{"abi":[{"anonymous":false,"inputs":[{"indexed":true,"internalType":"uint256","name":"index","type":"uint256"},{"indexed":true,"internalType":"address","name":"tokenAddress","type":"address"},{"indexed":false,"internalType":"bytes32","name":"newRoot","type":"bytes32"},{"indexed":false,"internalType":"bytes32","name":"ipfsHash","type":"bytes32"}],"name":"MerkleTreeAdded","type":"event"},{"anonymous":false,"inputs":[{"indexed":true,"internalType":"address","name":"destination","type":"address"},{"indexed":false,"internalType":"uint256","name":"numTokens","type":"uint256"},{"indexed":false,"internalType":"uint256","name":"tokensLeft","type":"uint256"},{"indexed":true,"internalType":"uint256","name":"merkleIndex","type":"uint256"}],"name":"WithdrawalOccurred","type":"event"},{"inputs":[],"name":"PRECISION","outputs":[{"internalType":"uint256","name":"","type":"uint256"}],"stateMutability":"view","type":"function"},{"inputs":[{"internalType":"bytes32","name":"newRoot","type":"bytes32"},{"internalType":"bytes32","name":"ipfsHash","type":"bytes32"},{"internalType":"uint256","name":"minEndTime","type":"uint256"},{"internalType":"uint256","name":"maxEndTime","type":"uint256"},{"internalType":"uint256","name":"pctUpFront","type":"uint256"},{"internalType":"address","name":"depositToken","type":"address"},{"internalType":"uint256","name":"tokenBalance","type":"uint256"}],"name":"addMerkleTree","outputs":[],"stateMutability":"nonpayable","type":"function"},{"inputs":[{"internalType":"uint256","name":"treeIndex","type":"uint256"},{"internalType":"uint256","name":"value","type":"uint256"}],"name":"depositTokens","outputs":[],"stateMutability":"nonpayable","type":"function"},{"inputs":[{"internalType":"uint256","name":"merkleIndex","type":"uint256"},{"internalType":"address","name":"destination","type":"address"},{"internalType":"uint256","name":"vestingTime","type":"uint256"},{"internalType":"uint256","name":"minTotalPayments","type":"uint256"},{"internalType":"uint256","name":"maxTotalPayments","type":"uint256"},{"internalType":"bytes32[]","name":"proof","type":"bytes32[]"}],"name":"initialize","outputs":[],"stateMutability":"nonpayable","type":"function"},{"inputs":[{"internalType":"address","name":"","type":"address"},{"internalType":"uint256","name":"","type":"uint256"}],"name":"initialized","outputs":[{"internalType":"bool","name":"","type":"bool"}],"stateMutability":"view","type":"function"},{"inputs":[{"internalType":"uint256","name":"","type":"uint256"}],"name":"merkleTrees","outputs":[{"internalType":"bytes32","name":"merkleRoot","type":"bytes32"},{"internalType":"bytes32","name":"ipfsHash","type":"bytes32"},{"internalType":"uint256","name":"minEndTime","type":"uint256"},{"internalType":"uint256","name":"maxEndTime","type":"uint256"},{"internalType":"uint256","name":"pctUpFront","type":"uint256"},{"internalType":"address","name":"tokenAddress","type":"address"},{"internalType":"uint256","name":"tokenBalance","type":"uint256"}],"stateMutability":"view","type":"function"},{"inputs":[],"name":"numTrees","outputs":[{"internalType":"uint256","name":"","type":"uint256"}],"stateMutability":"view","type":"function"},{"inputs":[{"internalType":"address","name":"","type":"address"},{"internalType":"uint256","name":"","type":"uint256"}],"name":"tranches","outputs":[{"internalType":"uint256","name":"totalCoins","type":"uint256"},{"internalType":"uint256","name":"currentCoins","type":"uint256"},{"internalType":"uint256","name":"startTime","type":"uint256"},{"internalType":"uint256","name":"endTime","type":"uint256"},{"internalType":"uint256","name":"coinsPerSecond","type":"uint256"},{"internalType":"uint256","name":"lastWithdrawalTime","type":"uint256"}],"stateMutability":"view","type":"function"},{"inputs":[{"internalType":"uint256","name":"merkleIndex","type":"uint256"},{"internalType":"uint256","name":"vestingTime","type":"uint256"},{"internalType":"uint256","name":"minTotalPayments","type":"uint256"},{"internalType":"uint256","name":"maxTotalPayments","type":"uint256"}],"name":"verifyVestingSchedule","outputs":[{"internalType":"bool","name":"","type":"bool"},{"internalType":"uint256","name":"","type":"uint256"},{"internalType":"uint256","name":"","type":"uint256"},{"internalType":"uint256","name":"","type":"uint256"}],"stateMutability":"view","type":"function"},{"inputs":[{"internalType":"uint256","name":"merkleIndex","type":"uint256"},{"internalType":"address","name":"destination","type":"address"}],"name":"withdraw","outputs":[],"stateMutability":"nonpayable","type":"function"}],"bytecode":"60806040526000805534801561001457600080fd5b506110da806100246000396000f3fe608060405234801561001057600080fd5b506004361061009d5760003560e01c8063aaf5eb6811610066578063aaf5eb68146101db578063c26cb54f146101e5578063d71383ed14610260578063f16ad51e14610273578063f287ad041461028657600080fd5b8062f714ce146100a2578063390b7c66146100b75780636fb6ec41146100d357806385d88cb11461010857806386bb82491461019d575b600080fd5b6100b56100b0366004610d5a565b610299565b005b6100c060005481565b6040519081526020015b60405180910390f35b6100e66100e1366004610d86565b61053c565b60408051941515855260208501939093529183015260608201526080016100ca565b61015f610116366004610db8565b600260208190526000918252604090912080546001820154928201546003830154600484015460058501546006909501549395949293919290916001600160a01b039091169087565b60408051978852602088019690965294860193909352606085019190915260808401526001600160a01b031660a083015260c082015260e0016100ca565b6101cb6101ab366004610dd1565b600160209081526000928352604080842090915290825290205460ff1681565b60405190151581526020016100ca565b6100c0620f424081565b6102336101f3366004610dd1565b6003602081815260009384526040808520909152918352912080546001820154600283015493830154600484015460059094015492949193919290919086565b604080519687526020870195909552938501929092526060840152608083015260a082015260c0016100ca565b6100b561026e366004610dfb565b6106e3565b6100b5610281366004610e57565b6108a7565b6100b5610294366004610e8f565b6109a4565b6001600160a01b038116600090815260016020908152604080832085845290915290205460ff166103215760405162461bcd60e51b815260206004820152602760248201527f596f75206d75737420696e697469616c697a6520796f7572206163636f756e74604482015266103334b939ba1760c91b60648201526084015b60405180910390fd5b6001600160a01b0381166000908152600360209081526040808320858452909152902060018101546103955760405162461bcd60e51b815260206004820152601960248201527f4e6f20636f696e73206c65667420746f207769746864726177000000000000006044820152606401610318565b6000816003015442106103ad575060018101546103ce565b600482015460058301546103c19042610f9b565b6103cb9190610fb2565b90505b6000848152600260205260408120600184018054919284926103f1908490610f9b565b9091555050426005840155600681018054839190600090610413908490610f9b565b9091555050600581015460405163a9059cbb60e01b81526001600160a01b038681166004830152602482018590529091169063a9059cbb90604401602060405180830381600087803b15801561046857600080fd5b505af115801561047c573d6000803e3d6000fd5b505050506040513d601f19601f820116820180604052508101906104a09190610fd1565b6104e45760405162461bcd60e51b8152602060048201526015602482015274151bdad95b881d1c985b9cd9995c8819985a5b1959605a1b6044820152606401610318565b84846001600160a01b03167f5ffb4b63dec15ba26308386f1d5ca61843b29ba365511062a887d95aa27532d384866001015460405161052d929190918252602082015260400190565b60405180910390a35050505050565b60008060008060005488111561055d575060009250829150819050806106d8565b600088815260026020818152604092839020835160e0810185528154815260018201549281019290925291820154928101929092526003810154606083018190526004820154608084015260058201546001600160a01b031660a084015260069091015460c08301528811806105d65750806040015188105b156105ef576000806000809450945094509450506106d8565b60008160600151891415610604575085610675565b60008260400151836060015161061a9190610f9b565b620f42406106288b8b610f9b565b6106329190610fb2565b61063c9190610ffa565b905088620f424084604001518c6106539190610f9b565b61065d9084610fb2565b6106679190610ffa565b610671919061101c565b9150505b60006106828a6064610fb2565b6080840151610692906064610f9b565b61069c9084610fb2565b6106a69190610ffa565b905060006106b48284610ffa565b6106be8c4261101c565b6106c89190610f9b565b6001985092965090945090925050505b945094509450949050565b606483106107275760405162461bcd60e51b81526020600482015260116024820152700706374557046726f6e74203e3d2031303607c1b6044820152606401610318565b8385106107865760405162461bcd60e51b815260206004820152602760248201527f6d696e456e6454696d65206d757374206265206c657373207468616e206d6178604482015266456e6454696d6560c81b6064820152608401610318565b6040518060e00160405280888152602001878152602001868152602001858152602001848152602001836001600160a01b0316815260200160008152506002600080600081546107d590611034565b918290555081526020808201929092526040908101600090812084518155928401516001840155908301516002830155606083015160038301556080830151600483015560a08301516005830180546001600160a01b0319166001600160a01b0390921691909117905560c0909201516006909101555461085690826108a7565b60005460408051898152602081018990526001600160a01b03851692917f7247d7268297fd9fe23a535b70f414660bbcbbcd73ac0d9ce3c103a356a61f45910160405180910390a350505050505050565b6000828152600260205260408120600681018054919284926108ca90849061101c565b909155505060058101546040516323b872dd60e01b8152336004820152306024820152604481018490526001600160a01b03909116906323b872dd90606401602060405180830381600087803b15801561092357600080fd5b505af1158015610937573d6000803e3d6000fd5b505050506040513d601f19601f8201168201806040525081019061095b9190610fd1565b61099f5760405162461bcd60e51b8152602060048201526015602482015274115490cc8c081d1c985b9cd9995c8819985a5b1959605a1b6044820152606401610318565b505050565b336001600160a01b03861614610a085760405162461bcd60e51b8152602060048201526024808201527f43616e206f6e6c7920696e697469616c697a6520796f7572206f776e207472616044820152636e63686560e01b6064820152608401610318565b6001600160a01b038516600090815260016020908152604080832089845290915290205460ff1615610a725760405162461bcd60e51b8152602060048201526013602482015272105b1c9958591e481a5b9a5d1a585b1a5e9959606a1b6044820152606401610318565b604080516001600160a01b03871660208201529081018490526060810183905260009060800160408051601f19818403018152828252805160209182012060008b815260028084529084902060e0860185528054808752600182015494870194909452908101548585015260038101546060860152600480820154608087015260058201546001600160a01b031660a087015260069091015460c08601529251632769cd1f60e21b815290945073__MerkleLib_____________________________92639da7347c92610b4b929091879189910161104f565b60206040518083038186803b158015610b6357600080fd5b505af4158015610b77573d6000803e3d6000fd5b505050506040513d601f19601f82011682018060405250810190610b9b9190610fd1565b610be75760405162461bcd60e51b815260206004820181905260248201527f5468652070726f6f6620636f756c64206e6f742062652076657269666965642e6044820152606401610318565b6001600160a01b03871660009081526001602081815260408084208c85529091528220805460ff19169091179055808080610c248c8b8b8b61053c565b935093509350935083610c795760405162461bcd60e51b815260206004820152601860248201527f496e76616c69642076657374696e67207363686564756c6500000000000000006044820152606401610318565b6040518060c001604052808481526020018481526020018281526020018b42610ca2919061101c565b815260200183815260200182815250600360008d6001600160a01b03166001600160a01b0316815260200190815260200160002060008e8152602001908152602001600020600082015181600001556020820151816001015560408201518160020155606082015181600301556080820151816004015560a08201518160050155905050610d308c8c610299565b505050505050505050505050565b80356001600160a01b0381168114610d5557600080fd5b919050565b60008060408385031215610d6d57600080fd5b82359150610d7d60208401610d3e565b90509250929050565b60008060008060808587031215610d9c57600080fd5b5050823594602084013594506040840135936060013592509050565b600060208284031215610dca57600080fd5b5035919050565b60008060408385031215610de457600080fd5b610ded83610d3e565b946020939093013593505050565b600080600080600080600060e0888a031215610e1657600080fd5b8735965060208801359550604088013594506060880135935060808801359250610e4260a08901610d3e565b915060c0880135905092959891949750929550565b60008060408385031215610e6a57600080fd5b50508035926020909101359150565b634e487b7160e01b600052604160045260246000fd5b60008060008060008060c08789031215610ea857600080fd5b863595506020610eb9818901610d3e565b955060408801359450606088013593506080880135925060a088013567ffffffffffffffff80821115610eeb57600080fd5b818a0191508a601f830112610eff57600080fd5b813581811115610f1157610f11610e79565b8060051b604051601f19603f83011681018181108582111715610f3657610f36610e79565b60405291825284820192508381018501918d831115610f5457600080fd5b938501935b82851015610f7257843584529385019392850192610f59565b8096505050505050509295509295509295565b634e487b7160e01b600052601160045260246000fd5b600082821015610fad57610fad610f85565b500390565b6000816000190483118215151615610fcc57610fcc610f85565b500290565b600060208284031215610fe357600080fd5b81518015158114610ff357600080fd5b9392505050565b60008261101757634e487b7160e01b600052601260045260246000fd5b500490565b6000821982111561102f5761102f610f85565b500190565b600060001982141561104857611048610f85565b5060010190565b6000606082018583526020858185015260606040850152818551808452608086019150828701935060005b818110156110965784518352938301939183019160010161107a565b50909897505050505050505056fea264697066735822122091144810fc3be6d93ff3dfcef3fa782a7e5dbf7ff996ade966260f44f6651fe564736f6c63430008090033","bytecodeSha1":"a2bdcaee8ecdf6edc4c50bc2184a57b7d6137ce8","compiler":{"evm_version":"istanbul","optimizer":{"enabled":true,"runs":200},"version":"0.8.9+commit.e5eed63a"},"contractName":"MerkleResistor","deployedBytecode":"608060405234801561001057600080fd5b506004361061009d5760003560e01c8063aaf5eb6811610066578063aaf5eb68146101db578063c26cb54f146101e5578063d71383ed14610260578063f16ad51e14610273578063f287ad041461028657600080fd5b8062f714ce146100a2578063390b7c66146100b75780636fb6ec41146100d357806385d88cb11461010857806386bb82491461019d575b600080fd5b6100b56100b0366004610d5a565b610299565b005b6100c060005481565b6040519081526020015b60405180910390f35b6100e66100e1366004610d86565b61053c565b60408051941515855260208501939093529183015260608201526080016100ca565b61015f610116366004610db8565b600260208190526000918252604090912080546001820154928201546003830154600484015460058501546006909501549395949293919290916001600160a01b039091169087565b60408051978852602088019690965294860193909352606085019190915260808401526001600160a01b031660a083015260c082015260e0016100ca565b6101cb6101ab366004610dd1565b600160209081526000928352604080842090915290825290205460ff1681565b60405190151581526020016100ca565b6100c0620f424081565b6102336101f3366004610dd1565b6003602081815260009384526040808520909152918352912080546001820154600283015493830154600484015460059094015492949193919290919086565b604080519687526020870195909552938501929092526060840152608083015260a082015260c0016100ca565b6100b561026e366004610dfb565b6106e3565b6100b5610281366004610e57565b6108a7565b6100b5610294366004610e8f565b6109a4565b6001600160a01b038116600090815260016020908152604080832085845290915290205460ff166103215760405162461bcd60e51b815260206004820152602760248201527f596f75206d75737420696e697469616c697a6520796f7572206163636f756e74604482015266103334b939ba1760c91b60648201526084015b60405180910390fd5b6001600160a01b0381166000908152600360209081526040808320858452909152902060018101546103955760405162461bcd60e51b815260206004820152601960248201527f4e6f20636f696e73206c65667420746f207769746864726177000000000000006044820152606401610318565b6000816003015442106103ad575060018101546103ce565b600482015460058301546103c19042610f9b565b6103cb9190610fb2565b90505b6000848152600260205260408120600184018054919284926103f1908490610f9b565b9091555050426005840155600681018054839190600090610413908490610f9b565b9091555050600581015460405163a9059cbb60e01b81526001600160a01b038681166004830152602482018590529091169063a9059cbb90604401602060405180830381600087803b15801561046857600080fd5b505af115801561047c573d6000803e3d6000fd5b505050506040513d601f19601f820116820180604052508101906104a09190610fd1565b6104e45760405162461bcd60e51b8152602060048201526015602482015274151bdad95b881d1c985b9cd9995c8819985a5b1959605a1b6044820152606401610318565b84846001600160a01b03167f5ffb4b63dec15ba26308386f1d5ca61843b29ba365511062a887d95aa27532d384866001015460405161052d929190918252602082015260400190565b60405180910390a35050505050565b60008060008060005488111561055d575060009250829150819050806106d8565b600088815260026020818152604092839020835160e0810185528154815260018201549281019290925291820154928101929092526003810154606083018190526004820154608084015260058201546001600160a01b031660a084015260069091015460c08301528811806105d65750806040015188105b156105ef576000806000809450945094509450506106d8565b60008160600151891415610604575085610675565b60008260400151836060015161061a9190610f9b565b620f42406106288b8b610f9b565b6106329190610fb2565b61063c9190610ffa565b905088620f424084604001518c6106539190610f9b565b61065d9084610fb2565b6106679190610ffa565b610671919061101c565b9150505b60006106828a6064610fb2565b6080840151610692906064610f9b565b61069c9084610fb2565b6106a69190610ffa565b905060006106b48284610ffa565b6106be8c4261101c565b6106c89190610f9b565b6001985092965090945090925050505b945094509450949050565b606483106107275760405162461bcd60e51b81526020600482015260116024820152700706374557046726f6e74203e3d2031303607c1b6044820152606401610318565b8385106107865760405162461bcd60e51b815260206004820152602760248201527f6d696e456e6454696d65206d757374206265206c657373207468616e206d6178604482015266456e6454696d6560c81b6064820152608401610318565b6040518060e00160405280888152602001878152602001868152602001858152602001848152602001836001600160a01b0316815260200160008152506002600080600081546107d590611034565b918290555081526020808201929092526040908101600090812084518155928401516001840155908301516002830155606083015160038301556080830151600483015560a08301516005830180546001600160a01b0319166001600160a01b0390921691909117905560c0909201516006909101555461085690826108a7565b60005460408051898152602081018990526001600160a01b03851692917f7247d7268297fd9fe23a535b70f414660bbcbbcd73ac0d9ce3c103a356a61f45910160405180910390a350505050505050565b6000828152600260205260408120600681018054919284926108ca90849061101c565b909155505060058101546040516323b872dd60e01b8152336004820152306024820152604481018490526001600160a01b03909116906323b872dd90606401602060405180830381600087803b15801561092357600080fd5b505af1158015610937573d6000803e3d6000fd5b505050506040513d601f19601f8201168201806040525081019061095b9190610fd1565b61099f5760405162461bcd60e51b8152602060048201526015602482015274115490cc8c081d1c985b9cd9995c8819985a5b1959605a1b6044820152606401610318565b505050565b336001600160a01b03861614610a085760405162461bcd60e51b8152602060048201526024808201527f43616e206f6e6c7920696e697469616c697a6520796f7572206f776e207472616044820152636e63686560e01b6064820152608401610318565b6001600160a01b038516600090815260016020908152604080832089845290915290205460ff1615610a725760405162461bcd60e51b8152602060048201526013602482015272105b1c9958591e481a5b9a5d1a585b1a5e9959606a1b6044820152606401610318565b604080516001600160a01b03871660208201529081018490526060810183905260009060800160408051601f19818403018152828252805160209182012060008b815260028084529084902060e0860185528054808752600182015494870194909452908101548585015260038101546060860152600480820154608087015260058201546001600160a01b031660a087015260069091015460c08601529251632769cd1f60e21b815290945073__$61dd25696c02d5bd2863c8d2c1a2324a87$__92639da7347c92610b4b929091879189910161104f565b60206040518083038186803b158015610b6357600080fd5b505af4158015610b77573d6000803e3d6000fd5b505050506040513d601f19601f82011682018060405250810190610b9b9190610fd1565b610be75760405162461bcd60e51b815260206004820181905260248201527f5468652070726f6f6620636f756c64206e6f742062652076657269666965642e6044820152606401610318565b6001600160a01b03871660009081526001602081815260408084208c85529091528220805460ff19169091179055808080610c248c8b8b8b61053c565b935093509350935083610c795760405162461bcd60e51b815260206004820152601860248201527f496e76616c69642076657374696e67207363686564756c6500000000000000006044820152606401610318565b6040518060c001604052808481526020018481526020018281526020018b42610ca2919061101c565b815260200183815260200182815250600360008d6001600160a01b03166001600160a01b0316815260200190815260200160002060008e8152602001908152602001600020600082015181600001556020820151816001015560408201518160020155606082015181600301556080820151816004015560a08201518160050155905050610d308c8c610299565b505050505050505050505050565b80356001600160a01b0381168114610d5557600080fd5b919050565b60008060408385031215610d6d57600080fd5b82359150610d7d60208401610d3e565b90509250929050565b60008060008060808587031215610d9c57600080fd5b5050823594602084013594506040840135936060013592509050565b600060208284031215610dca57600080fd5b5035919050565b60008060408385031215610de457600080fd5b610ded83610d3e565b946020939093013593505050565b600080600080600080600060e0888a031215610e1657600080fd5b8735965060208801359550604088013594506060880135935060808801359250610e4260a08901610d3e565b915060c0880135905092959891949750929550565b60008060408385031215610e6a57600080fd5b50508035926020909101359150565b634e487b7160e01b600052604160045260246000fd5b60008060008060008060c08789031215610ea857600080fd5b863595506020610eb9818901610d3e565b955060408801359450606088013593506080880135925060a088013567ffffffffffffffff80821115610eeb57600080fd5b818a0191508a601f830112610eff57600080fd5b813581811115610f1157610f11610e79565b8060051b604051601f19603f83011681018181108582111715610f3657610f36610e79565b60405291825284820192508381018501918d831115610f5457600080fd5b938501935b82851015610f7257843584529385019392850192610f59565b8096505050505050509295509295509295565b634e487b7160e01b600052601160045260246000fd5b600082821015610fad57610fad610f85565b500390565b6000816000190483118215151615610fcc57610fcc610f85565b500290565b600060208284031215610fe357600080fd5b81518015158114610ff357600080fd5b9392505050565b60008261101757634e487b7160e01b600052601260045260246000fd5b500490565b6000821982111561102f5761102f610f85565b500190565b600060001982141561104857611048610f85565b5060010190565b6000606082018583526020858185015260606040850152818551808452608086019150828701935060005b818110156110965784518352938301939183019160010161107a565b50909897505050505050505056fea264697066735822122091144810fc3be6d93ff3dfcef3fa782a7e5dbf7ff996ade966260f44f6651fe564736f6c63430008090033","language":"Solidity","natspec":{"kind":"dev","methods":{},"version":1},"opcodes":"PUSH1 0x80 PUSH1 0x40 MSTORE CALLVALUE DUP1 ISZERO PUSH2 0x10 JUMPI PUSH1 0x0 DUP1 REVERT JUMPDEST POP PUSH1 0x4 CALLDATASIZE LT PUSH2 0x9D JUMPI PUSH1 0x0 CALLDATALOAD PUSH1 0xE0 SHR DUP1 PUSH4 0xAAF5EB68 GT PUSH2 0x66 JUMPI DUP1 PUSH4 0xAAF5EB68 EQ PUSH2 0x1DB JUMPI DUP1 PUSH4 0xC26CB54F EQ PUSH2 0x1E5 JUMPI DUP1 PUSH4 0xD71383ED EQ PUSH2 0x260 JUMPI DUP1 PUSH4 0xF16AD51E EQ PUSH2 0x273 JUMPI DUP1 PUSH4 0xF287AD04 EQ PUSH2 0x286 JUMPI PUSH1 0x0 DUP1 REVERT JUMPDEST DUP1 PUSH3 0xF714CE EQ PUSH2 0xA2 JUMPI DUP1 PUSH4 0x390B7C66 EQ PUSH2 0xB7 JUMPI DUP1 PUSH4 0x6FB6EC41 EQ PUSH2 0xD3 JUMPI DUP1 PUSH4 0x85D88CB1 EQ PUSH2 0x108 JUMPI DUP1 PUSH4 0x86BB8249 EQ PUSH2 0x19D JUMPI JUMPDEST PUSH1 0x0 DUP1 REVERT JUMPDEST PUSH2 0xB5 PUSH2 0xB0 CALLDATASIZE PUSH1 0x4 PUSH2 0xD5A JUMP JUMPDEST PUSH2 0x299 JUMP JUMPDEST STOP JUMPDEST PUSH2 0xC0 PUSH1 0x0 SLOAD DUP2 JUMP JUMPDEST PUSH1 0x40 MLOAD SWAP1 DUP2 MSTORE PUSH1 0x20 ADD JUMPDEST PUSH1 0x40 MLOAD DUP1 SWAP2 SUB SWAP1 RETURN JUMPDEST PUSH2 0xE6 PUSH2 0xE1 CALLDATASIZE PUSH1 0x4 PUSH2 0xD86 JUMP JUMPDEST PUSH2 0x53C JUMP JUMPDEST PUSH1 0x40 DUP1 MLOAD SWAP5 ISZERO ISZERO DUP6 MSTORE PUSH1 0x20 DUP6 ADD SWAP4 SWAP1 SWAP4 MSTORE SWAP2 DUP4 ADD MSTORE PUSH1 0x60 DUP3 ADD MSTORE PUSH1 0x80 ADD PUSH2 0xCA JUMP JUMPDEST PUSH2 0x15F PUSH2 0x116 CALLDATASIZE PUSH1 0x4 PUSH2 0xDB8 JUMP JUMPDEST PUSH1 0x2 PUSH1 0x20 DUP2 SWAP1 MSTORE PUSH1 0x0 SWAP2 DUP3 MSTORE PUSH1 0x40 SWAP1 SWAP2 KECCAK256 DUP1 SLOAD PUSH1 0x1 DUP3 ADD SLOAD SWAP3 DUP3 ADD SLOAD PUSH1 0x3 DUP4 ADD SLOAD PUSH1 0x4 DUP5 ADD SLOAD PUSH1 0x5 DUP6 ADD SLOAD PUSH1 0x6 SWAP1 SWAP6 ADD SLOAD SWAP4 SWAP6 SWAP5 SWAP3 SWAP4 SWAP2 SWAP3 SWAP1 SWAP2 PUSH1 0x1 PUSH1 0x1 PUSH1 0xA0 SHL SUB SWAP1 SWAP2 AND SWAP1 DUP8 JUMP JUMPDEST PUSH1 0x40 DUP1 MLOAD SWAP8 DUP9 MSTORE PUSH1 0x20 DUP9 ADD SWAP7 SWAP1 SWAP7 MSTORE SWAP5 DUP7 ADD SWAP4 SWAP1 SWAP4 MSTORE PUSH1 0x60 DUP6 ADD SWAP2 SWAP1 SWAP2 MSTORE PUSH1 0x80 DUP5 ADD MSTORE PUSH1 0x1 PUSH1 0x1 PUSH1 0xA0 SHL SUB AND PUSH1 0xA0 DUP4 ADD MSTORE PUSH1 0xC0 DUP3 ADD MSTORE PUSH1 0xE0 ADD PUSH2 0xCA JUMP JUMPDEST PUSH2 0x1CB PUSH2 0x1AB CALLDATASIZE PUSH1 0x4 PUSH2 0xDD1 JUMP JUMPDEST PUSH1 0x1 PUSH1 0x20 SWAP1 DUP2 MSTORE PUSH1 0x0 SWAP3 DUP4 MSTORE PUSH1 0x40 DUP1 DUP5 KECCAK256 SWAP1 SWAP2 MSTORE SWAP1 DUP3 MSTORE SWAP1 KECCAK256 SLOAD PUSH1 0xFF AND DUP2 JUMP JUMPDEST PUSH1 0x40 MLOAD SWAP1 ISZERO ISZERO DUP2 MSTORE PUSH1 0x20 ADD PUSH2 0xCA JUMP JUMPDEST PUSH2 0xC0 PUSH3 0xF4240 DUP2 JUMP JUMPDEST PUSH2 0x233 PUSH2 0x1F3 CALLDATASIZE PUSH1 0x4 PUSH2 0xDD1 JUMP JUMPDEST PUSH1 0x3 PUSH1 0x20 DUP2 DUP2 MSTORE PUSH1 0x0 SWAP4 DUP5 MSTORE PUSH1 0x40 DUP1 DUP6 KECCAK256 SWAP1 SWAP2 MSTORE SWAP2 DUP4 MSTORE SWAP2 KECCAK256 DUP1 SLOAD PUSH1 0x1 DUP3 ADD SLOAD PUSH1 0x2 DUP4 ADD SLOAD SWAP4 DUP4 ADD SLOAD PUSH1 0x4 DUP5 ADD SLOAD PUSH1 0x5 SWAP1 SWAP5 ADD SLOAD SWAP3 SWAP5 SWAP2 SWAP4 SWAP2 SWAP3 SWAP1 SWAP2 SWAP1 DUP7 JUMP JUMPDEST PUSH1 0x40 DUP1 MLOAD SWAP7 DUP8 MSTORE PUSH1 0x20 DUP8 ADD SWAP6 SWAP1 SWAP6 MSTORE SWAP4 DUP6 ADD SWAP3 SWAP1 SWAP3 MSTORE PUSH1 0x60 DUP5 ADD MSTORE PUSH1 0x80 DUP4 ADD MSTORE PUSH1 0xA0 DUP3 ADD MSTORE PUSH1 0xC0 ADD PUSH2 0xCA JUMP JUMPDEST PUSH2 0xB5 PUSH2 0x26E CALLDATASIZE PUSH1 0x4 PUSH2 0xDFB JUMP JUMPDEST PUSH2 0x6E3 JUMP JUMPDEST PUSH2 0xB5 PUSH2 0x281 CALLDATASIZE PUSH1 0x4 PUSH2 0xE57 JUMP JUMPDEST PUSH2 0x8A7 JUMP JUMPDEST PUSH2 0xB5 PUSH2 0x294 CALLDATASIZE PUSH1 0x4 PUSH2 0xE8F JUMP JUMPDEST PUSH2 0x9A4 JUMP JUMPDEST PUSH1 0x1 PUSH1 0x1 PUSH1 0xA0 SHL SUB DUP2 AND PUSH1 0x0 SWAP1 DUP2 MSTORE PUSH1 0x1 PUSH1 0x20 SWAP1 DUP2 MSTORE PUSH1 0x40 DUP1 DUP4 KECCAK256 DUP6 DUP5 MSTORE SWAP1 SWAP2 MSTORE SWAP1 KECCAK256 SLOAD PUSH1 0xFF AND PUSH2 0x321 JUMPI PUSH1 0x40 MLOAD PUSH3 0x461BCD PUSH1 0xE5 SHL DUP2 MSTORE PUSH1 0x20 PUSH1 0x4 DUP3 ADD MSTORE PUSH1 0x27 PUSH1 0x24 DUP3 ADD MSTORE PUSH32 0x596F75206D75737420696E697469616C697A6520796F7572206163636F756E74 PUSH1 0x44 DUP3 ADD MSTORE PUSH7 0x103334B939BA17 PUSH1 0xC9 SHL PUSH1 0x64 DUP3 ADD MSTORE PUSH1 0x84 ADD JUMPDEST PUSH1 0x40 MLOAD DUP1 SWAP2 SUB SWAP1 REVERT JUMPDEST PUSH1 0x1 PUSH1 0x1 PUSH1 0xA0 SHL SUB DUP2 AND PUSH1 0x0 SWAP1 DUP2 MSTORE PUSH1 0x3 PUSH1 0x20 SWAP1 DUP2 MSTORE PUSH1 0x40 DUP1 DUP4 KECCAK256 DUP6 DUP5 MSTORE SWAP1 SWAP2 MSTORE SWAP1 KECCAK256 PUSH1 0x1 DUP2 ADD SLOAD PUSH2 0x395 JUMPI PUSH1 0x40 MLOAD PUSH3 0x461BCD PUSH1 0xE5 SHL DUP2 MSTORE PUSH1 0x20 PUSH1 0x4 DUP3 ADD MSTORE PUSH1 0x19 PUSH1 0x24 DUP3 ADD MSTORE PUSH32 0x4E6F20636F696E73206C65667420746F20776974686472617700000000000000 PUSH1 0x44 DUP3 ADD MSTORE PUSH1 0x64 ADD PUSH2 0x318 JUMP JUMPDEST PUSH1 0x0 DUP2 PUSH1 0x3 ADD SLOAD TIMESTAMP LT PUSH2 0x3AD JUMPI POP PUSH1 0x1 DUP2 ADD SLOAD PUSH2 0x3CE JUMP JUMPDEST PUSH1 0x4 DUP3 ADD SLOAD PUSH1 0x5 DUP4 ADD SLOAD PUSH2 0x3C1 SWAP1 TIMESTAMP PUSH2 0xF9B JUMP JUMPDEST PUSH2 0x3CB SWAP2 SWAP1 PUSH2 0xFB2 JUMP JUMPDEST SWAP1 POP JUMPDEST PUSH1 0x0 DUP5 DUP2 MSTORE PUSH1 0x2 PUSH1 0x20 MSTORE PUSH1 0x40 DUP2 KECCAK256 PUSH1 0x1 DUP5 ADD DUP1 SLOAD SWAP2 SWAP3 DUP5 SWAP3 PUSH2 0x3F1 SWAP1 DUP5 SWAP1 PUSH2 0xF9B JUMP JUMPDEST SWAP1 SWAP2 SSTORE POP POP TIMESTAMP PUSH1 0x5 DUP5 ADD SSTORE PUSH1 0x6 DUP2 ADD DUP1 SLOAD DUP4 SWAP2 SWAP1 PUSH1 0x0 SWAP1 PUSH2 0x413 SWAP1 DUP5 SWAP1 PUSH2 0xF9B JUMP JUMPDEST SWAP1 SWAP2 SSTORE POP POP PUSH1 0x5 DUP2 ADD SLOAD PUSH1 0x40 MLOAD PUSH4 0xA9059CBB PUSH1 0xE0 SHL DUP2 MSTORE PUSH1 0x1 PUSH1 0x1 PUSH1 0xA0 SHL SUB DUP7 DUP2 AND PUSH1 0x4 DUP4 ADD MSTORE PUSH1 0x24 DUP3 ADD DUP6 SWAP1 MSTORE SWAP1 SWAP2 AND SWAP1 PUSH4 0xA9059CBB SWAP1 PUSH1 0x44 ADD PUSH1 0x20 PUSH1 0x40 MLOAD DUP1 DUP4 SUB DUP2 PUSH1 0x0 DUP8 DUP1 EXTCODESIZE ISZERO DUP1 ISZERO PUSH2 0x468 JUMPI PUSH1 0x0 DUP1 REVERT JUMPDEST POP GAS CALL ISZERO DUP1 ISZERO PUSH2 0x47C JUMPI RETURNDATASIZE PUSH1 0x0 DUP1 RETURNDATACOPY RETURNDATASIZE PUSH1 0x0 REVERT JUMPDEST POP POP POP POP PUSH1 0x40 MLOAD RETURNDATASIZE PUSH1 0x1F NOT PUSH1 0x1F DUP3 ADD AND DUP3 ADD DUP1 PUSH1 0x40 MSTORE POP DUP2 ADD SWAP1 PUSH2 0x4A0 SWAP2 SWAP1 PUSH2 0xFD1 JUMP JUMPDEST PUSH2 0x4E4 JUMPI PUSH1 0x40 MLOAD PUSH3 0x461BCD PUSH1 0xE5 SHL DUP2 MSTORE PUSH1 0x20 PUSH1 0x4 DUP3 ADD MSTORE PUSH1 0x15 PUSH1 0x24 DUP3 ADD MSTORE PUSH21 0x151BDAD95B881D1C985B9CD9995C8819985A5B1959 PUSH1 0x5A SHL PUSH1 0x44 DUP3 ADD MSTORE PUSH1 0x64 ADD PUSH2 0x318 JUMP JUMPDEST DUP5 DUP5 PUSH1 0x1 PUSH1 0x1 PUSH1 0xA0 SHL SUB AND PUSH32 0x5FFB4B63DEC15BA26308386F1D5CA61843B29BA365511062A887D95AA27532D3 DUP5 DUP7 PUSH1 0x1 ADD SLOAD PUSH1 0x40 MLOAD PUSH2 0x52D SWAP3 SWAP2 SWAP1 SWAP2 DUP3 MSTORE PUSH1 0x20 DUP3 ADD MSTORE PUSH1 0x40 ADD SWAP1 JUMP JUMPDEST PUSH1 0x40 MLOAD DUP1 SWAP2 SUB SWAP1 LOG3 POP POP POP POP POP JUMP JUMPDEST PUSH1 0x0 DUP1 PUSH1 0x0 DUP1 PUSH1 0x0 SLOAD DUP9 GT ISZERO PUSH2 0x55D JUMPI POP PUSH1 0x0 SWAP3 POP DUP3 SWAP2 POP DUP2 SWAP1 POP DUP1 PUSH2 0x6D8 JUMP JUMPDEST PUSH1 0x0 DUP9 DUP2 MSTORE PUSH1 0x2 PUSH1 0x20 DUP2 DUP2 MSTORE PUSH1 0x40 SWAP3 DUP4 SWAP1 KECCAK256 DUP4 MLOAD PUSH1 0xE0 DUP2 ADD DUP6 MSTORE DUP2 SLOAD DUP2 MSTORE PUSH1 0x1 DUP3 ADD SLOAD SWAP3 DUP2 ADD SWAP3 SWAP1 SWAP3 MSTORE SWAP2 DUP3 ADD SLOAD SWAP3 DUP2 ADD SWAP3 SWAP1 SWAP3 MSTORE PUSH1 0x3 DUP2 ADD SLOAD PUSH1 0x60 DUP4 ADD DUP2 SWAP1 MSTORE PUSH1 0x4 DUP3 ADD SLOAD PUSH1 0x80 DUP5 ADD MSTORE PUSH1 0x5 DUP3 ADD SLOAD PUSH1 0x1 PUSH1 0x1 PUSH1 0xA0 SHL SUB AND PUSH1 0xA0 DUP5 ADD MSTORE PUSH1 0x6 SWAP1 SWAP2 ADD SLOAD PUSH1 0xC0 DUP4 ADD MSTORE DUP9 GT DUP1 PUSH2 0x5D6 JUMPI POP DUP1 PUSH1 0x40 ADD MLOAD DUP9 LT JUMPDEST ISZERO PUSH2 0x5EF JUMPI PUSH1 0x0 DUP1 PUSH1 0x0 DUP1 SWAP5 POP SWAP5 POP SWAP5 POP SWAP5 POP POP PUSH2 0x6D8 JUMP JUMPDEST PUSH1 0x0 DUP2 PUSH1 0x60 ADD MLOAD DUP10 EQ ISZERO PUSH2 0x604 JUMPI POP DUP6 PUSH2 0x675 JUMP JUMPDEST PUSH1 0x0 DUP3 PUSH1 0x40 ADD MLOAD DUP4 PUSH1 0x60 ADD MLOAD PUSH2 0x61A SWAP2 SWAP1 PUSH2 0xF9B JUMP JUMPDEST PUSH3 0xF4240 PUSH2 0x628 DUP12 DUP12 PUSH2 0xF9B JUMP JUMPDEST PUSH2 0x632 SWAP2 SWAP1 PUSH2 0xFB2 JUMP JUMPDEST PUSH2 0x63C SWAP2 SWAP1 PUSH2 0xFFA JUMP JUMPDEST SWAP1 POP DUP9 PUSH3 0xF4240 DUP5 PUSH1 0x40 ADD MLOAD DUP13 PUSH2 0x653 SWAP2 SWAP1 PUSH2 0xF9B JUMP JUMPDEST PUSH2 0x65D SWAP1 DUP5 PUSH2 0xFB2 JUMP JUMPDEST PUSH2 0x667 SWAP2 SWAP1 PUSH2 0xFFA JUMP JUMPDEST PUSH2 0x671 SWAP2 SWAP1 PUSH2 0x101C JUMP JUMPDEST SWAP2 POP POP JUMPDEST PUSH1 0x0 PUSH2 0x682 DUP11 PUSH1 0x64 PUSH2 0xFB2 JUMP JUMPDEST PUSH1 0x80 DUP5 ADD MLOAD PUSH2 0x692 SWAP1 PUSH1 0x64 PUSH2 0xF9B JUMP JUMPDEST PUSH2 0x69C SWAP1 DUP5 PUSH2 0xFB2 JUMP JUMPDEST PUSH2 0x6A6 SWAP2 SWAP1 PUSH2 0xFFA JUMP JUMPDEST SWAP1 POP PUSH1 0x0 PUSH2 0x6B4 DUP3 DUP5 PUSH2 0xFFA JUMP JUMPDEST PUSH2 0x6BE DUP13 TIMESTAMP PUSH2 0x101C JUMP JUMPDEST PUSH2 0x6C8 SWAP2 SWAP1 PUSH2 0xF9B JUMP JUMPDEST PUSH1 0x1 SWAP9 POP SWAP3 SWAP7 POP SWAP1 SWAP5 POP SWAP1 SWAP3 POP POP POP JUMPDEST SWAP5 POP SWAP5 POP SWAP5 POP SWAP5 SWAP1 POP JUMP JUMPDEST PUSH1 0x64 DUP4 LT PUSH2 0x727 JUMPI PUSH1 0x40 MLOAD PUSH3 0x461BCD PUSH1 0xE5 SHL DUP2 MSTORE PUSH1 0x20 PUSH1 0x4 DUP3 ADD MSTORE PUSH1 0x11 PUSH1 0x24 DUP3 ADD MSTORE PUSH17 0x706374557046726F6E74203E3D2031303 PUSH1 0x7C SHL PUSH1 0x44 DUP3 ADD MSTORE PUSH1 0x64 ADD PUSH2 0x318 JUMP JUMPDEST DUP4 DUP6 LT PUSH2 0x786 JUMPI PUSH1 0x40 MLOAD PUSH3 0x461BCD PUSH1 0xE5 SHL DUP2 MSTORE PUSH1 0x20 PUSH1 0x4 DUP3 ADD MSTORE PUSH1 0x27 PUSH1 0x24 DUP3 ADD MSTORE PUSH32 0x6D696E456E6454696D65206D757374206265206C657373207468616E206D6178 PUSH1 0x44 DUP3 ADD MSTORE PUSH7 0x456E6454696D65 PUSH1 0xC8 SHL PUSH1 0x64 DUP3 ADD MSTORE PUSH1 0x84 ADD PUSH2 0x318 JUMP JUMPDEST PUSH1 0x40 MLOAD DUP1 PUSH1 0xE0 ADD PUSH1 0x40 MSTORE DUP1 DUP9 DUP2 MSTORE PUSH1 0x20 ADD DUP8 DUP2 MSTORE PUSH1 0x20 ADD DUP7 DUP2 MSTORE PUSH1 0x20 ADD DUP6 DUP2 MSTORE PUSH1 0x20 ADD DUP5 DUP2 MSTORE PUSH1 0x20 ADD DUP4 PUSH1 0x1 PUSH1 0x1 PUSH1 0xA0 SHL SUB AND DUP2 MSTORE PUSH1 0x20 ADD PUSH1 0x0 DUP2 MSTORE POP PUSH1 0x2 PUSH1 0x0 DUP1 PUSH1 0x0 DUP2 SLOAD PUSH2 0x7D5 SWAP1 PUSH2 0x1034 JUMP JUMPDEST SWAP2 DUP3 SWAP1 SSTORE POP DUP2 MSTORE PUSH1 0x20 DUP1 DUP3 ADD SWAP3 SWAP1 SWAP3 MSTORE PUSH1 0x40 SWAP1 DUP2 ADD PUSH1 0x0 SWAP1 DUP2 KECCAK256 DUP5 MLOAD DUP2 SSTORE SWAP3 DUP5 ADD MLOAD PUSH1 0x1 DUP5 ADD SSTORE SWAP1 DUP4 ADD MLOAD PUSH1 0x2 DUP4 ADD SSTORE PUSH1 0x60 DUP4 ADD MLOAD PUSH1 0x3 DUP4 ADD SSTORE PUSH1 0x80 DUP4 ADD MLOAD PUSH1 0x4 DUP4 ADD SSTORE PUSH1 0xA0 DUP4 ADD MLOAD PUSH1 0x5 DUP4 ADD DUP1 SLOAD PUSH1 0x1 PUSH1 0x1 PUSH1 0xA0 SHL SUB NOT AND PUSH1 0x1 PUSH1 0x1 PUSH1 0xA0 SHL SUB SWAP1 SWAP3 AND SWAP2 SWAP1 SWAP2 OR SWAP1 SSTORE PUSH1 0xC0 SWAP1 SWAP3 ADD MLOAD PUSH1 0x6 SWAP1 SWAP2 ADD SSTORE SLOAD PUSH2 0x856 SWAP1 DUP3 PUSH2 0x8A7 JUMP JUMPDEST PUSH1 0x0 SLOAD PUSH1 0x40 DUP1 MLOAD DUP10 DUP2 MSTORE PUSH1 0x20 DUP2 ADD DUP10 SWAP1 MSTORE PUSH1 0x1 PUSH1 0x1 PUSH1 0xA0 SHL SUB DUP6 AND SWAP3 SWAP2 PUSH32 0x7247D7268297FD9FE23A535B70F414660BBCBBCD73AC0D9CE3C103A356A61F45 SWAP2 ADD PUSH1 0x40 MLOAD DUP1 SWAP2 SUB SWAP1 LOG3 POP POP POP POP POP POP POP JUMP JUMPDEST PUSH1 0x0 DUP3 DUP2 MSTORE PUSH1 0x2 PUSH1 0x20 MSTORE PUSH1 0x40 DUP2 KECCAK256 PUSH1 0x6 DUP2 ADD DUP1 SLOAD SWAP2 SWAP3 DUP5 SWAP3 PUSH2 0x8CA SWAP1 DUP5 SWAP1 PUSH2 0x101C JUMP JUMPDEST SWAP1 SWAP2 SSTORE POP POP PUSH1 0x5 DUP2 ADD SLOAD PUSH1 0x40 MLOAD PUSH4 0x23B872DD PUSH1 0xE0 SHL DUP2 MSTORE CALLER PUSH1 0x4 DUP3 ADD MSTORE ADDRESS PUSH1 0x24 DUP3 ADD MSTORE PUSH1 0x44 DUP2 ADD DUP5 SWAP1 MSTORE PUSH1 0x1 PUSH1 0x1 PUSH1 0xA0 SHL SUB SWAP1 SWAP2 AND SWAP1 PUSH4 0x23B872DD SWAP1 PUSH1 0x64 ADD PUSH1 0x20 PUSH1 0x40 MLOAD DUP1 DUP4 SUB DUP2 PUSH1 0x0 DUP8 DUP1 EXTCODESIZE ISZERO DUP1 ISZERO PUSH2 0x923 JUMPI PUSH1 0x0 DUP1 REVERT JUMPDEST POP GAS CALL ISZERO DUP1 ISZERO PUSH2 0x937 JUMPI RETURNDATASIZE PUSH1 0x0 DUP1 RETURNDATACOPY RETURNDATASIZE PUSH1 0x0 REVERT JUMPDEST POP POP POP POP PUSH1 0x40 MLOAD RETURNDATASIZE PUSH1 0x1F NOT PUSH1 0x1F DUP3 ADD AND DUP3 ADD DUP1 PUSH1 0x40 MSTORE POP DUP2 ADD SWAP1 PUSH2 0x95B SWAP2 SWAP1 PUSH2 0xFD1 JUMP JUMPDEST PUSH2 0x99F JUMPI PUSH1 0x40 MLOAD PUSH3 0x461BCD PUSH1 0xE5 SHL DUP2 MSTORE PUSH1 0x20 PUSH1 0x4 DUP3 ADD MSTORE PUSH1 0x15 PUSH1 0x24 DUP3 ADD MSTORE PUSH21 0x115490CC8C081D1C985B9CD9995C8819985A5B1959 PUSH1 0x5A SHL PUSH1 0x44 DUP3 ADD MSTORE PUSH1 0x64 ADD PUSH2 0x318 JUMP JUMPDEST POP POP POP JUMP JUMPDEST CALLER PUSH1 0x1 PUSH1 0x1 PUSH1 0xA0 SHL SUB DUP7 AND EQ PUSH2 0xA08 JUMPI PUSH1 0x40 MLOAD PUSH3 0x461BCD PUSH1 0xE5 SHL DUP2 MSTORE PUSH1 0x20 PUSH1 0x4 DUP3 ADD MSTORE PUSH1 0x24 DUP1 DUP3 ADD MSTORE PUSH32 0x43616E206F6E6C7920696E697469616C697A6520796F7572206F776E20747261 PUSH1 0x44 DUP3 ADD MSTORE PUSH4 0x6E636865 PUSH1 0xE0 SHL PUSH1 0x64 DUP3 ADD MSTORE PUSH1 0x84 ADD PUSH2 0x318 JUMP JUMPDEST PUSH1 0x1 PUSH1 0x1 PUSH1 0xA0 SHL SUB DUP6 AND PUSH1 0x0 SWAP1 DUP2 MSTORE PUSH1 0x1 PUSH1 0x20 SWAP1 DUP2 MSTORE PUSH1 0x40 DUP1 DUP4 KECCAK256 DUP10 DUP5 MSTORE SWAP1 SWAP2 MSTORE SWAP1 KECCAK256 SLOAD PUSH1 0xFF AND ISZERO PUSH2 0xA72 JUMPI PUSH1 0x40 MLOAD PUSH3 0x461BCD PUSH1 0xE5 SHL DUP2 MSTORE PUSH1 0x20 PUSH1 0x4 DUP3 ADD MSTORE PUSH1 0x13 PUSH1 0x24 DUP3 ADD MSTORE PUSH19 0x105B1C9958591E481A5B9A5D1A585B1A5E9959 PUSH1 0x6A SHL PUSH1 0x44 DUP3 ADD MSTORE PUSH1 0x64 ADD PUSH2 0x318 JUMP JUMPDEST PUSH1 0x40 DUP1 MLOAD PUSH1 0x1 PUSH1 0x1 PUSH1 0xA0 SHL SUB DUP8 AND PUSH1 0x20 DUP3 ADD MSTORE SWAP1 DUP2 ADD DUP5 SWAP1 MSTORE PUSH1 0x60 DUP2 ADD DUP4 SWAP1 MSTORE PUSH1 0x0 SWAP1 PUSH1 0x80 ADD PUSH1 0x40 DUP1 MLOAD PUSH1 0x1F NOT DUP2 DUP5 SUB ADD DUP2 MSTORE DUP3 DUP3 MSTORE DUP1 MLOAD PUSH1 0x20 SWAP2 DUP3 ADD KECCAK256 PUSH1 0x0 DUP12 DUP2 MSTORE PUSH1 0x2 DUP1 DUP5 MSTORE SWAP1 DUP5 SWAP1 KECCAK256 PUSH1 0xE0 DUP7 ADD DUP6 MSTORE DUP1 SLOAD DUP1 DUP8 MSTORE PUSH1 0x1 DUP3 ADD SLOAD SWAP5 DUP8 ADD SWAP5 SWAP1 SWAP5 MSTORE SWAP1 DUP2 ADD SLOAD DUP6 DUP6 ADD MSTORE PUSH1 0x3 DUP2 ADD SLOAD PUSH1 0x60 DUP7 ADD MSTORE PUSH1 0x4 DUP1 DUP3 ADD SLOAD PUSH1 0x80 DUP8 ADD MSTORE PUSH1 0x5 DUP3 ADD SLOAD PUSH1 0x1 PUSH1 0x1 PUSH1 0xA0 SHL SUB AND PUSH1 0xA0 DUP8 ADD MSTORE PUSH1 0x6 SWAP1 SWAP2 ADD SLOAD PUSH1 0xC0 DUP7 ADD MSTORE SWAP3 MLOAD PUSH4 0x2769CD1F PUSH1 0xE2 SHL DUP2 MSTORE SWAP1 SWAP5 POP PUSH20 0x0 SWAP3 PUSH4 0x9DA7347C SWAP3 PUSH2 0xB4B SWAP3 SWAP1 SWAP2 DUP8 SWAP2 DUP10 SWAP2 ADD PUSH2 0x104F JUMP JUMPDEST PUSH1 0x20 PUSH1 0x40 MLOAD DUP1 DUP4 SUB DUP2 DUP7 DUP1 EXTCODESIZE ISZERO DUP1 ISZERO PUSH2 0xB63 JUMPI PUSH1 0x0 DUP1 REVERT JUMPDEST POP GAS DELEGATECALL ISZERO DUP1 ISZERO PUSH2 0xB77 JUMPI RETURNDATASIZE PUSH1 0x0 DUP1 RETURNDATACOPY RETURNDATASIZE PUSH1 0x0 REVERT JUMPDEST POP POP POP POP PUSH1 0x40 MLOAD RETURNDATASIZE PUSH1 0x1F NOT PUSH1 0x1F DUP3 ADD AND DUP3 ADD DUP1 PUSH1 0x40 MSTORE POP DUP2 ADD SWAP1 PUSH2 0xB9B SWAP2 SWAP1 PUSH2 0xFD1 JUMP JUMPDEST PUSH2 0xBE7 JUMPI PUSH1 0x40 MLOAD PUSH3 0x461BCD PUSH1 0xE5 SHL DUP2 MSTORE PUSH1 0x20 PUSH1 0x4 DUP3 ADD DUP2 SWAP1 MSTORE PUSH1 0x24 DUP3 ADD MSTORE PUSH32 0x5468652070726F6F6620636F756C64206E6F742062652076657269666965642E PUSH1 0x44 DUP3 ADD MSTORE PUSH1 0x64 ADD PUSH2 0x318 JUMP JUMPDEST PUSH1 0x1 PUSH1 0x1 PUSH1 0xA0 SHL SUB DUP8 AND PUSH1 0x0 SWAP1 DUP2 MSTORE PUSH1 0x1 PUSH1 0x20 DUP2 DUP2 MSTORE PUSH1 0x40 DUP1 DUP5 KECCAK256 DUP13 DUP6 MSTORE SWAP1 SWAP2 MSTORE DUP3 KECCAK256 DUP1 SLOAD PUSH1 0xFF NOT AND SWAP1 SWAP2 OR SWAP1 SSTORE DUP1 DUP1 DUP1 PUSH2 0xC24 DUP13 DUP12 DUP12 DUP12 PUSH2 0x53C JUMP JUMPDEST SWAP4 POP SWAP4 POP SWAP4 POP SWAP4 POP DUP4 PUSH2 0xC79 JUMPI PUSH1 0x40 MLOAD PUSH3 0x461BCD PUSH1 0xE5 SHL DUP2 MSTORE PUSH1 0x20 PUSH1 0x4 DUP3 ADD MSTORE PUSH1 0x18 PUSH1 0x24 DUP3 ADD MSTORE PUSH32 0x496E76616C69642076657374696E67207363686564756C650000000000000000 PUSH1 0x44 DUP3 ADD MSTORE PUSH1 0x64 ADD PUSH2 0x318 JUMP JUMPDEST PUSH1 0x40 MLOAD DUP1 PUSH1 0xC0 ADD PUSH1 0x40 MSTORE DUP1 DUP5 DUP2 MSTORE PUSH1 0x20 ADD DUP5 DUP2 MSTORE PUSH1 0x20 ADD DUP3 DUP2 MSTORE PUSH1 0x20 ADD DUP12 TIMESTAMP PUSH2 0xCA2 SWAP2 SWAP1 PUSH2 0x101C JUMP JUMPDEST DUP2 MSTORE PUSH1 0x20 ADD DUP4 DUP2 MSTORE PUSH1 0x20 ADD DUP3 DUP2 MSTORE POP PUSH1 0x3 PUSH1 0x0 DUP14 PUSH1 0x1 PUSH1 0x1 PUSH1 0xA0 SHL SUB AND PUSH1 0x1 PUSH1 0x1 PUSH1 0xA0 SHL SUB AND DUP2 MSTORE PUSH1 0x20 ADD SWAP1 DUP2 MSTORE PUSH1 0x20 ADD PUSH1 0x0 KECCAK256 PUSH1 0x0 DUP15 DUP2 MSTORE PUSH1 0x20 ADD SWAP1 DUP2 MSTORE PUSH1 0x20 ADD PUSH1 0x0 KECCAK256 PUSH1 0x0 DUP3 ADD MLOAD DUP2 PUSH1 0x0 ADD SSTORE PUSH1 0x20 DUP3 ADD MLOAD DUP2 PUSH1 0x1 ADD SSTORE PUSH1 0x40 DUP3 ADD MLOAD DUP2 PUSH1 0x2 ADD SSTORE PUSH1 0x60 DUP3 ADD MLOAD DUP2 PUSH1 0x3 ADD SSTORE PUSH1 0x80 DUP3 ADD MLOAD DUP2 PUSH1 0x4 ADD SSTORE PUSH1 0xA0 DUP3 ADD MLOAD DUP2 PUSH1 0x5 ADD SSTORE SWAP1 POP POP PUSH2 0xD30 DUP13 DUP13 PUSH2 0x299 JUMP JUMPDEST POP POP POP POP POP POP POP POP POP POP POP POP JUMP JUMPDEST DUP1 CALLDATALOAD PUSH1 0x1 PUSH1 0x1 PUSH1 0xA0 SHL SUB DUP2 AND DUP2 EQ PUSH2 0xD55 JUMPI PUSH1 0x0 DUP1 REVERT JUMPDEST SWAP2 SWAP1 POP JUMP JUMPDEST PUSH1 0x0 DUP1 PUSH1 0x40 DUP4 DUP6 SUB SLT ISZERO PUSH2 0xD6D JUMPI PUSH1 0x0 DUP1 REVERT JUMPDEST DUP3 CALLDATALOAD SWAP2 POP PUSH2 0xD7D PUSH1 0x20 DUP5 ADD PUSH2 0xD3E JUMP JUMPDEST SWAP1 POP SWAP3 POP SWAP3 SWAP1 POP JUMP JUMPDEST PUSH1 0x0 DUP1 PUSH1 0x0 DUP1 PUSH1 0x80 DUP6 DUP8 SUB SLT ISZERO PUSH2 0xD9C JUMPI PUSH1 0x0 DUP1 REVERT JUMPDEST POP POP DUP3 CALLDATALOAD SWAP5 PUSH1 0x20 DUP5 ADD CALLDATALOAD SWAP5 POP PUSH1 0x40 DUP5 ADD CALLDATALOAD SWAP4 PUSH1 0x60 ADD CALLDATALOAD SWAP3 POP SWAP1 POP JUMP JUMPDEST PUSH1 0x0 PUSH1 0x20 DUP3 DUP5 SUB SLT ISZERO PUSH2 0xDCA JUMPI PUSH1 0x0 DUP1 REVERT JUMPDEST POP CALLDATALOAD SWAP2 SWAP1 POP JUMP JUMPDEST PUSH1 0x0 DUP1 PUSH1 0x40 DUP4 DUP6 SUB SLT ISZERO PUSH2 0xDE4 JUMPI PUSH1 0x0 DUP1 REVERT JUMPDEST PUSH2 0xDED DUP4 PUSH2 0xD3E JUMP JUMPDEST SWAP5 PUSH1 0x20 SWAP4 SWAP1 SWAP4 ADD CALLDATALOAD SWAP4 POP POP POP JUMP JUMPDEST PUSH1 0x0 DUP1 PUSH1 0x0 DUP1 PUSH1 0x0 DUP1 PUSH1 0x0 PUSH1 0xE0 DUP9 DUP11 SUB SLT ISZERO PUSH2 0xE16 JUMPI PUSH1 0x0 DUP1 REVERT JUMPDEST DUP8 CALLDATALOAD SWAP7 POP PUSH1 0x20 DUP9 ADD CALLDATALOAD SWAP6 POP PUSH1 0x40 DUP9 ADD CALLDATALOAD SWAP5 POP PUSH1 0x60 DUP9 ADD CALLDATALOAD SWAP4 POP PUSH1 0x80 DUP9 ADD CALLDATALOAD SWAP3 POP PUSH2 0xE42 PUSH1 0xA0 DUP10 ADD PUSH2 0xD3E JUMP JUMPDEST SWAP2 POP PUSH1 0xC0 DUP9 ADD CALLDATALOAD SWAP1 POP SWAP3 SWAP6 SWAP9 SWAP2 SWAP5 SWAP8 POP SWAP3 SWAP6 POP JUMP JUMPDEST PUSH1 0x0 DUP1 PUSH1 0x40 DUP4 DUP6 SUB SLT ISZERO PUSH2 0xE6A JUMPI PUSH1 0x0 DUP1 REVERT JUMPDEST POP POP DUP1 CALLDATALOAD SWAP3 PUSH1 0x20 SWAP1 SWAP2 ADD CALLDATALOAD SWAP2 POP JUMP JUMPDEST PUSH4 0x4E487B71 PUSH1 0xE0 SHL PUSH1 0x0 MSTORE PUSH1 0x41 PUSH1 0x4 MSTORE PUSH1 0x24 PUSH1 0x0 REVERT JUMPDEST PUSH1 0x0 DUP1 PUSH1 0x0 DUP1 PUSH1 0x0 DUP1 PUSH1 0xC0 DUP8 DUP10 SUB SLT ISZERO PUSH2 0xEA8 JUMPI PUSH1 0x0 DUP1 REVERT JUMPDEST DUP7 CALLDATALOAD SWAP6 POP PUSH1 0x20 PUSH2 0xEB9 DUP2 DUP10 ADD PUSH2 0xD3E JUMP JUMPDEST SWAP6 POP PUSH1 0x40 DUP9 ADD CALLDATALOAD SWAP5 POP PUSH1 0x60 DUP9 ADD CALLDATALOAD SWAP4 POP PUSH1 0x80 DUP9 ADD CALLDATALOAD SWAP3 POP PUSH1 0xA0 DUP9 ADD CALLDATALOAD PUSH8 0xFFFFFFFFFFFFFFFF DUP1 DUP3 GT ISZERO PUSH2 0xEEB JUMPI PUSH1 0x0 DUP1 REVERT JUMPDEST DUP2 DUP11 ADD SWAP2 POP DUP11 PUSH1 0x1F DUP4 ADD SLT PUSH2 0xEFF JUMPI PUSH1 0x0 DUP1 REVERT JUMPDEST DUP2 CALLDATALOAD DUP2 DUP2 GT ISZERO PUSH2 0xF11 JUMPI PUSH2 0xF11 PUSH2 0xE79 JUMP JUMPDEST DUP1 PUSH1 0x5 SHL PUSH1 0x40 MLOAD PUSH1 0x1F NOT PUSH1 0x3F DUP4 ADD AND DUP2 ADD DUP2 DUP2 LT DUP6 DUP3 GT OR ISZERO PUSH2 0xF36 JUMPI PUSH2 0xF36 PUSH2 0xE79 JUMP JUMPDEST PUSH1 0x40 MSTORE SWAP2 DUP3 MSTORE DUP5 DUP3 ADD SWAP3 POP DUP4 DUP2 ADD DUP6 ADD SWAP2 DUP14 DUP4 GT ISZERO PUSH2 0xF54 JUMPI PUSH1 0x0 DUP1 REVERT JUMPDEST SWAP4 DUP6 ADD SWAP4 JUMPDEST DUP3 DUP6 LT ISZERO PUSH2 0xF72 JUMPI DUP5 CALLDATALOAD DUP5 MSTORE SWAP4 DUP6 ADD SWAP4 SWAP3 DUP6 ADD SWAP3 PUSH2 0xF59 JUMP JUMPDEST DUP1 SWAP7 POP POP POP POP POP POP POP SWAP3 SWAP6 POP SWAP3 SWAP6 POP SWAP3 SWAP6 JUMP JUMPDEST PUSH4 0x4E487B71 PUSH1 0xE0 SHL PUSH1 0x0 MSTORE PUSH1 0x11 PUSH1 0x4 MSTORE PUSH1 0x24 PUSH1 0x0 REVERT JUMPDEST PUSH1 0x0 DUP3 DUP3 LT ISZERO PUSH2 0xFAD JUMPI PUSH2 0xFAD PUSH2 0xF85 JUMP JUMPDEST POP SUB SWAP1 JUMP JUMPDEST PUSH1 0x0 DUP2 PUSH1 0x0 NOT DIV DUP4 GT DUP3 ISZERO ISZERO AND ISZERO PUSH2 0xFCC JUMPI PUSH2 0xFCC PUSH2 0xF85 JUMP JUMPDEST POP MUL SWAP1 JUMP JUMPDEST PUSH1 0x0 PUSH1 0x20 DUP3 DUP5 SUB SLT ISZERO PUSH2 0xFE3 JUMPI PUSH1 0x0 DUP1 REVERT JUMPDEST DUP2 MLOAD DUP1 ISZERO ISZERO DUP2 EQ PUSH2 0xFF3 JUMPI PUSH1 0x0 DUP1 REVERT JUMPDEST SWAP4 SWAP3 POP POP POP JUMP JUMPDEST PUSH1 0x0 DUP3 PUSH2 0x1017 JUMPI PUSH4 0x4E487B71 PUSH1 0xE0 SHL PUSH1 0x0 MSTORE PUSH1 0x12 PUSH1 0x4 MSTORE PUSH1 0x24 PUSH1 0x0 REVERT JUMPDEST POP DIV SWAP1 JUMP JUMPDEST PUSH1 0x0 DUP3 NOT DUP3 GT ISZERO PUSH2 0x102F JUMPI PUSH2 0x102F PUSH2 0xF85 JUMP JUMPDEST POP ADD SWAP1 JUMP JUMPDEST PUSH1 0x0 PUSH1 0x0 NOT DUP3 EQ ISZERO PUSH2 0x1048 JUMPI PUSH2 0x1048 PUSH2 0xF85 JUMP JUMPDEST POP PUSH1 0x1 ADD SWAP1 JUMP JUMPDEST PUSH1 0x0 PUSH1 0x60 DUP3 ADD DUP6 DUP4 MSTORE PUSH1 0x20 DUP6 DUP2 DUP6 ADD MSTORE PUSH1 0x60 PUSH1 0x40 DUP6 ADD MSTORE DUP2 DUP6 MLOAD DUP1 DUP5 MSTORE PUSH1 0x80 DUP7 ADD SWAP2 POP DUP3 DUP8 ADD SWAP4 POP PUSH1 0x0 JUMPDEST DUP2 DUP2 LT ISZERO PUSH2 0x1096 JUMPI DUP5 MLOAD DUP4 MSTORE SWAP4 DUP4 ADD SWAP4 SWAP2 DUP4 ADD SWAP2 PUSH1 0x1 ADD PUSH2 0x107A JUMP JUMPDEST POP SWAP1 SWAP9 SWAP8 POP POP POP POP POP POP POP POP JUMP INVALID LOG2 PUSH5 0x6970667358 0x22 SLT KECCAK256 SWAP2 EQ BASEFEE LT 0xFC EXTCODESIZE 0xE6 0xD9 EXTCODEHASH RETURN 0xDF 0xCE RETURN STATICCALL PUSH25 0x2A7E5DBF7FF996ADE966260F44F6651FE564736F6C63430008 MULMOD STOP CALLER ","sha1":"67ec935b89d5c114c46f82b5382f7f8bef265b90","source":"// SPDX-License-Identifier: GPL-3.0-only\n\npragma solidity 0.8.9;\n\nimport \"../interfaces/IERC20.sol\";\nimport \"./MerkleLib.sol\";\n\n// This contract is for user-chosen vesting schedules, within parameters selected by the tree creator\ncontract MerkleResistor {\n    using MerkleLib for bytes32;\n\n    // tree (vesting schedule) counter\n    uint public numTrees = 0;\n\n    // this represents a user chosen vesting schedule, post initiation\n    struct Tranche {\n        uint totalCoins; // total coins released after vesting complete\n        uint currentCoins; // unclaimed coins remaining in the contract, waiting to be vested\n        uint startTime; // start time of the vesting schedule\n        uint endTime;   // end time of the vesting schedule\n        uint coinsPerSecond;  // how many coins are emitted per second, this value is cached to avoid recomputing it\n        uint lastWithdrawalTime; // keep track of last time user claimed coins to compute coins owed for this withdrawal\n    }\n\n    // this represents an arbitrarily large set of token recipients with partially-initialized vesting schedules\n    struct MerkleTree {\n        bytes32 merkleRoot; // merkle root of tree whose leaves are ranges of vesting schedules for each recipient\n        bytes32 ipfsHash; // ipfs hash of the entire data set represented by the merkle root, in case our servers go down\n        uint minEndTime; // minimum length (offset, not absolute) of vesting schedule in seconds\n        uint maxEndTime; // maximum length (offset, not absolute) of vesting schedule in seconds\n        uint pctUpFront; // percent of vested coins that will be available and withdrawn upon initialization\n        address tokenAddress; // address of token to be distributed\n        uint tokenBalance; // amount of tokens allocated to this tree (this prevents trees from sharing tokens)\n    }\n\n    // initialized[recipient][treeIndex] = hasUserChosenVestingSchedule\n    // could have reused tranches (see below) for this but loading a bool is cheaper than loading an entire struct\n    // NOTE: if a user appears in the same tree multiple times, the first leaf initialized will prevent the others from initializing\n    mapping (address => mapping (uint => bool)) public initialized;\n\n    // basically an array of vesting schedules, but without annoying solidity array syntax\n    mapping (uint => MerkleTree) public merkleTrees;\n\n    // tranches[recipient][treeIndex] = chosenVestingSchedule\n    mapping (address => mapping (uint => Tranche)) public tranches;\n\n    // precision factory used to handle floating point arithmetic\n    uint constant public PRECISION = 1000000;\n\n    // every time a withdrawal occurs\n    event WithdrawalOccurred(address indexed destination, uint numTokens, uint tokensLeft, uint indexed merkleIndex);\n    // every time a tree is added\n    event MerkleTreeAdded(uint indexed index, address indexed tokenAddress, bytes32 newRoot, bytes32 ipfsHash);\n\n    // anyone can add a tree\n    function addMerkleTree(bytes32 newRoot, bytes32 ipfsHash, uint minEndTime, uint maxEndTime, uint pctUpFront, address depositToken, uint tokenBalance) public {\n        // check basic coherence of request\n        require(pctUpFront < 100, 'pctUpFront >= 100');\n        require(minEndTime < maxEndTime, 'minEndTime must be less than maxEndTime');\n\n        // prefix operator ++ increments then evaluates\n        merkleTrees[++numTrees] = MerkleTree(\n            newRoot,\n            ipfsHash,\n            minEndTime,\n            maxEndTime,\n            pctUpFront,\n            depositToken,\n            0    // tokenBalance is 0 at first because no tokens have been deposited\n        );\n\n        // pull tokens from user to fund the tree\n        // if tree is insufficiently funded, then some users may not be able to be paid out, this is the responsibility\n        // of the tree creator, if trees are not funded, then the UI will not display the tree\n        depositTokens(numTrees, tokenBalance);\n        emit MerkleTreeAdded(numTrees, depositToken, newRoot, ipfsHash);\n    }\n\n    // anyone can fund any tree\n    function depositTokens(uint treeIndex, uint value) public {\n        // storage because we edit\n        MerkleTree storage merkleTree = merkleTrees[treeIndex];\n\n        // bookkeeping to make sure trees do not share tokens\n        merkleTree.tokenBalance += value;\n\n        // do the transfer from the caller\n        // NOTE: it is possible for user to overfund the tree and there is no mechanism to reclaim excess tokens\n        // this is because there is no way for the contract to know when a tree has had all leaves claimed\n        // there is also no way for the contract to know the minimum or maximum liabilities represented by the leaves\n        // in short, there is no on-chain inspection of the leaves except at initialization time\n        // NOTE: a malicious token contract could cause merkleTree.tokenBalance to be out of sync with the token contract\n        // this is an unavoidable possibility, and it could render the tree unusable, while leaving other trees unharmed\n        require(IERC20(merkleTree.tokenAddress).transferFrom(msg.sender, address(this), value), \"ERC20 transfer failed\");\n    }\n\n    // user calls this to choose and start their vesting schedule\n    // merkle proof confirms they are passing data previously committed to by tree creator\n    // vestingTime is chosen by the user, min/max TotalPayments is committed to by the merkleRoot\n    function initialize(uint merkleIndex, address destination, uint vestingTime, uint minTotalPayments, uint maxTotalPayments, bytes32[] memory proof) external {\n        // user selects own vesting schedule, not others\n        require(msg.sender == destination, 'Can only initialize your own tranche');\n        // can only initialize once\n        require(!initialized[destination][merkleIndex], \"Already initialized\");\n        // compute merkle leaf, this is first element of proof\n        bytes32 leaf = keccak256(abi.encode(destination, minTotalPayments, maxTotalPayments));\n        // memory because we do not edit\n        MerkleTree memory tree = merkleTrees[merkleIndex];\n        // this calls into MerkleLib, super cheap ~1000 gas per proof element\n        require(tree.merkleRoot.verifyProof(leaf, proof), \"The proof could not be verified.\");\n        // mark tree as initialized, preventing re-entrance or multiple initializations\n        initialized[destination][merkleIndex] = true;\n\n        (bool valid, uint totalCoins, uint coinsPerSecond, uint startTime) = verifyVestingSchedule(merkleIndex, vestingTime, minTotalPayments, maxTotalPayments);\n        require(valid, 'Invalid vesting schedule');\n\n        // fill out the struct for the address' vesting schedule\n        // don't have to mark as storage here, it's implied (why isn't it always implied when written to? solc-devs?)\n        tranches[destination][merkleIndex] = Tranche(\n            totalCoins,    // this is just a cached number for UI, not used\n            totalCoins,    // starts out full\n            startTime,     // start time will usually be in the past, if pctUpFront > 0\n            block.timestamp + vestingTime,  // vesting starts from initialization time\n            coinsPerSecond,  // cached value to avoid recomputation\n            startTime      // this is lastWithdrawalTime, set to startTime to indicate no withdrawals have occurred yet\n        );\n        withdraw(merkleIndex, destination);\n    }\n\n    // user calls this to claim available (unclaimed, unlocked) tokens\n    // NOTE: anyone can withdraw tokens for anyone else, but they always go to intended destination\n    // msg.sender is not used in this function ;)\n    function withdraw(uint merkleIndex, address destination) public {\n        // initialize first, no operations on empty structs, I don't care if the values are \"probably zero\"\n        require(initialized[destination][merkleIndex], \"You must initialize your account first.\");\n        // storage, since we are editing\n        Tranche storage tranche = tranches[destination][merkleIndex];\n        // if it's empty, don't bother\n        require(tranche.currentCoins >  0, 'No coins left to withdraw');\n        uint currentWithdrawal = 0;\n\n        // if after vesting period ends, give them the remaining coins, also avoids dust from rounding errors\n        if (block.timestamp >= tranche.endTime) {\n            currentWithdrawal = tranche.currentCoins;\n        } else {\n            // compute allowed withdrawal\n            // secondsElapsedSinceLastWithdrawal * coinsPerSecond == coinsAccumulatedSinceLastWithdrawal\n            currentWithdrawal = (block.timestamp - tranche.lastWithdrawalTime) * tranche.coinsPerSecond;\n        }\n        // muto? servo\n        MerkleTree storage tree = merkleTrees[merkleIndex];\n\n        // update struct, modern solidity will catch underflow and prevent currentWithdrawal from exceeding currentCoins\n        // but it's computed internally anyway, not user generated\n        tranche.currentCoins -= currentWithdrawal;\n        // move the time counter up so users can't double-withdraw allocated coins\n        // this also works as a re-entrance gate, so currentWithdrawal would be 0 upon re-entrance\n        tranche.lastWithdrawalTime = block.timestamp;\n        // handle the bookkeeping so trees don't share tokens, do it before transferring to create one more re-entrance gate\n        tree.tokenBalance -= currentWithdrawal;\n\n        // transfer the tokens, brah\n        // NOTE: if this is a malicious token, what could happen?\n        // 1/ token doesn't transfer given amount to recipient, this is bad for user, but does not effect other trees\n        // 2/ token fails for some reason, again bad for user, but this does not effect other trees\n        // 3/ token re-enters this function (or other, but this is the only one that transfers tokens out)\n        // in which case, lastWithdrawalTime == block.timestamp, so currentWithdrawal == 0\n        // besides msg.sender is not used in this function, so who calls it is irrelevant...\n        require(IERC20(tree.tokenAddress).transfer(destination, currentWithdrawal), 'Token transfer failed');\n        emit WithdrawalOccurred(destination, currentWithdrawal, tranche.currentCoins, merkleIndex);\n    }\n\n    // used to determine whether the vesting schedule is legit\n    function verifyVestingSchedule(uint merkleIndex, uint vestingTime, uint minTotalPayments, uint maxTotalPayments) public view returns (bool, uint, uint, uint) {\n        // vesting schedules for non-existing trees are invalid, I don't care how much you like uninitialized structs\n        if (merkleIndex > numTrees) {\n            return (false, 0, 0, 0);\n        }\n\n        // memory not storage, since we do not edit the tree, and it's a view function anyways\n        MerkleTree memory tree = merkleTrees[merkleIndex];\n\n        // vesting time must sit within the closed interval of [minEndTime, maxEndTime]\n        if (vestingTime > tree.maxEndTime || vestingTime < tree.minEndTime) {\n            return (false, 0, 0, 0);\n        }\n\n        uint totalCoins;\n        if (vestingTime == tree.maxEndTime) {\n            // this is to prevent dust accumulation from rounding errors\n            // maxEndTime results in max payments, no further computation necessary\n            totalCoins = maxTotalPayments;\n        } else {\n            // remember grade school algebra? slope = Δy / Δx\n            // this is the slope of eligible vesting schedules. In general, 0 < m < 1,\n            // (longer vesting schedules should result in less coins per second, hence \"resistor\")\n            // so we multiply by a precision factor to reduce rounding errors\n            // y axis = total coins released after vesting completed\n            // x axis = length of vesting schedule\n            // this is the line of valid end-points for the chosen vesting schedule line, see below\n            // NOTE: this reverts if minTotalPayments > maxTotalPayments, which is a good thing\n            uint paymentSlope = (maxTotalPayments - minTotalPayments) * PRECISION / (tree.maxEndTime - tree.minEndTime);\n\n            // y = mx + b = paymentSlope * (x - x0) + y0\n            // divide by precision factor here since we have completed the rounding error sensitive operations\n            totalCoins = (paymentSlope * (vestingTime - tree.minEndTime) / PRECISION) + minTotalPayments;\n        }\n\n        // this is a different slope, the slope of their chosen vesting schedule\n        // y axis = cumulative coins emitted\n        // x axis = time elapsed\n        // NOTE: vestingTime starts from block.timestamp, so doesn't include coins already available from pctUpFront\n        // totalCoins / vestingTime is wrong, we have to multiple by the proportion of the coins that are indexed\n        // by vestingTime, which is (100 - pctUpFront) / 100\n        uint coinsPerSecond = (totalCoins * (uint(100) - tree.pctUpFront)) / (vestingTime * 100);\n\n        // vestingTime is relative to initialization point\n        // endTime = block.timestamp + vestingTime\n        // vestingLength = totalCoins / coinsPerSecond\n        uint startTime = block.timestamp + vestingTime - (totalCoins / coinsPerSecond);\n\n        return (true, totalCoins, coinsPerSecond, startTime);\n    }\n\n}\n","sourcePath":"contracts/MerkleResistor.sol","type":"contract","deployment":{"address":"0x980F46E10504FFd2FbC58b8B7D8606d36307351e","chainid":"1","blockHeight":14660183}}