{"abi":[{"anonymous":false,"inputs":[{"indexed":true,"internalType":"uint256","name":"index","type":"uint256"},{"indexed":true,"internalType":"address","name":"tokenAddress","type":"address"},{"indexed":false,"internalType":"bytes32","name":"newRoot","type":"bytes32"},{"indexed":false,"internalType":"bytes32","name":"ipfsHash","type":"bytes32"}],"name":"MerkleTreeAdded","type":"event"},{"anonymous":false,"inputs":[{"indexed":true,"internalType":"uint256","name":"merkleIndex","type":"uint256"},{"indexed":true,"internalType":"address","name":"recipient","type":"address"},{"indexed":false,"internalType":"uint256","name":"value","type":"uint256"}],"name":"Withdraw","type":"event"},{"inputs":[{"internalType":"bytes32","name":"newRoot","type":"bytes32"},{"internalType":"bytes32","name":"ipfsHash","type":"bytes32"},{"internalType":"address","name":"depositToken","type":"address"},{"internalType":"uint256","name":"tokenBalance","type":"uint256"}],"name":"addMerkleTree","outputs":[],"stateMutability":"nonpayable","type":"function"},{"inputs":[{"internalType":"uint256","name":"treeIndex","type":"uint256"},{"internalType":"uint256","name":"value","type":"uint256"}],"name":"depositTokens","outputs":[],"stateMutability":"nonpayable","type":"function"},{"inputs":[{"internalType":"uint256","name":"","type":"uint256"}],"name":"merkleTrees","outputs":[{"internalType":"bytes32","name":"merkleRoot","type":"bytes32"},{"internalType":"bytes32","name":"ipfsHash","type":"bytes32"},{"internalType":"address","name":"tokenAddress","type":"address"},{"internalType":"uint256","name":"tokenBalance","type":"uint256"},{"internalType":"uint256","name":"spentTokens","type":"uint256"}],"stateMutability":"view","type":"function"},{"inputs":[],"name":"numTrees","outputs":[{"internalType":"uint256","name":"","type":"uint256"}],"stateMutability":"view","type":"function"},{"inputs":[{"internalType":"uint256","name":"merkleIndex","type":"uint256"},{"internalType":"address","name":"walletAddress","type":"address"},{"internalType":"uint256","name":"value","type":"uint256"},{"internalType":"bytes32[]","name":"proof","type":"bytes32[]"}],"name":"withdraw","outputs":[],"stateMutability":"nonpayable","type":"function"},{"inputs":[{"internalType":"address","name":"","type":"address"},{"internalType":"uint256","name":"","type":"uint256"}],"name":"withdrawn","outputs":[{"internalType":"bool","name":"","type":"bool"}],"stateMutability":"view","type":"function"}],"bytecode":"60806040526000805534801561001457600080fd5b506109c5806100246000396000f3fe608060405234801561001057600080fd5b50600436106100625760003560e01c806303a4153c14610067578063390b7c661461007c5780636fb24f3a1461009857806385d88cb1146100d6578063f1301ccf14610153578063f16ad51e14610166575b600080fd5b61007a61007536600461072d565b610179565b005b61008560005481565b6040519081526020015b60405180910390f35b6100c66100a636600461080f565b600160209081526000928352604080842090915290825290205460ff1681565b604051901515815260200161008f565b61011d6100e4366004610839565b6002602081905260009182526040909120805460018201549282015460038301546004909301549193926001600160a01b039091169185565b6040805195865260208601949094526001600160a01b03909216928401929092526060830191909152608082015260a00161008f565b61007a610161366004610852565b6104ff565b61007a61017436600461088f565b6105fe565b6000548411156101dc5760405162461bcd60e51b815260206004820152602360248201527f50726f7669646564206d65726b6c6520696e64657820646f65736e27742065786044820152621a5cdd60ea1b60648201526084015b60405180910390fd5b6001600160a01b038316600090815260016020908152604080832087845290915290205460ff16156102685760405162461bcd60e51b815260206004820152602f60248201527f596f75206861766520616c72656164792077697468647261776e20796f75722060448201526e32b73a34ba3632b2103a37b5b2b71760891b60648201526084016101d3565b604080516001600160a01b038516602082015290810183905260009060600160408051601f198184030181528282528051602091820120600089815260029092529190208054632769cd1f60e21b84529193509173__MerkleLib_____________________________91639da7347c916102e99190869088906004016108b1565b60206040518083038186803b15801561030157600080fd5b505af4158015610315573d6000803e3d6000fd5b505050506040513d601f19601f820116820180604052508101906103399190610906565b6103855760405162461bcd60e51b815260206004820181905260248201527f5468652070726f6f6620636f756c64206e6f742062652076657269666965642e60448201526064016101d3565b6001600160a01b03851660009081526001602081815260408084208a85529091528220805460ff191690911790556003820180548692906103c7908490610945565b92505081905550838160040160008282546103e2919061095c565b9091555050600281015460405163a9059cbb60e01b81526001600160a01b038781166004830152602482018790529091169063a9059cbb90604401602060405180830381600087803b15801561043757600080fd5b505af115801561044b573d6000803e3d6000fd5b505050506040513d601f19601f8201168201806040525081019061046f9190610906565b6104b35760405162461bcd60e51b8152602060048201526015602482015274115490cc8c081d1c985b9cd9995c8819985a5b1959605a1b60448201526064016101d3565b846001600160a01b0316867f9da6493a92039daf47d1f2d7a782299c5994c6323eb1e972f69c432089ec52bf866040516104ef91815260200190565b60405180910390a3505050505050565b6040518060a00160405280858152602001848152602001836001600160a01b0316815260200160008152602001600081525060026000806000815461054390610974565b918290555081526020808201929092526040908101600090812084518155928401516001840155908301516002830180546001600160a01b0319166001600160a01b0390921691909117905560608301516003830155608090920151600490910155546105b090826105fe565b60005460408051868152602081018690526001600160a01b03851692917f7247d7268297fd9fe23a535b70f414660bbcbbcd73ac0d9ce3c103a356a61f45910160405180910390a350505050565b60008281526002602052604081206003810180549192849261062190849061095c565b909155505060028101546040516323b872dd60e01b8152336004820152306024820152604481018490526001600160a01b03909116906323b872dd90606401602060405180830381600087803b15801561067a57600080fd5b505af115801561068e573d6000803e3d6000fd5b505050506040513d601f19601f820116820180604052508101906106b29190610906565b6106f65760405162461bcd60e51b8152602060048201526015602482015274115490cc8c081d1c985b9cd9995c8819985a5b1959605a1b60448201526064016101d3565b505050565b80356001600160a01b038116811461071257600080fd5b919050565b634e487b7160e01b600052604160045260246000fd5b6000806000806080858703121561074357600080fd5b8435935060206107548187016106fb565b935060408601359250606086013567ffffffffffffffff8082111561077857600080fd5b818801915088601f83011261078c57600080fd5b81358181111561079e5761079e610717565b8060051b604051601f19603f830116810181811085821117156107c3576107c3610717565b60405291825284820192508381018501918b8311156107e157600080fd5b938501935b828510156107ff578435845293850193928501926107e6565b989b979a50959850505050505050565b6000806040838503121561082257600080fd5b61082b836106fb565b946020939093013593505050565b60006020828403121561084b57600080fd5b5035919050565b6000806000806080858703121561086857600080fd5b843593506020850135925061087f604086016106fb565b9396929550929360600135925050565b600080604083850312156108a257600080fd5b50508035926020909101359150565b6000606082018583526020858185015260606040850152818551808452608086019150828701935060005b818110156108f8578451835293830193918301916001016108dc565b509098975050505050505050565b60006020828403121561091857600080fd5b8151801515811461092857600080fd5b9392505050565b634e487b7160e01b600052601160045260246000fd5b6000828210156109575761095761092f565b500390565b6000821982111561096f5761096f61092f565b500190565b60006000198214156109885761098861092f565b506001019056fea2646970667358221220a948046816972e68f08f10c71f6cc432ec5429b0116c92f48063e24abc3e790d64736f6c63430008090033","bytecodeSha1":"c9dd2722f76a92a29a51c355193e9a1799ebcf5a","compiler":{"evm_version":"istanbul","optimizer":{"enabled":true,"runs":200},"version":"0.8.9+commit.e5eed63a"},"contractName":"MerkleDropFactory","deployedBytecode":"608060405234801561001057600080fd5b50600436106100625760003560e01c806303a4153c14610067578063390b7c661461007c5780636fb24f3a1461009857806385d88cb1146100d6578063f1301ccf14610153578063f16ad51e14610166575b600080fd5b61007a61007536600461072d565b610179565b005b61008560005481565b6040519081526020015b60405180910390f35b6100c66100a636600461080f565b600160209081526000928352604080842090915290825290205460ff1681565b604051901515815260200161008f565b61011d6100e4366004610839565b6002602081905260009182526040909120805460018201549282015460038301546004909301549193926001600160a01b039091169185565b6040805195865260208601949094526001600160a01b03909216928401929092526060830191909152608082015260a00161008f565b61007a610161366004610852565b6104ff565b61007a61017436600461088f565b6105fe565b6000548411156101dc5760405162461bcd60e51b815260206004820152602360248201527f50726f7669646564206d65726b6c6520696e64657820646f65736e27742065786044820152621a5cdd60ea1b60648201526084015b60405180910390fd5b6001600160a01b038316600090815260016020908152604080832087845290915290205460ff16156102685760405162461bcd60e51b815260206004820152602f60248201527f596f75206861766520616c72656164792077697468647261776e20796f75722060448201526e32b73a34ba3632b2103a37b5b2b71760891b60648201526084016101d3565b604080516001600160a01b038516602082015290810183905260009060600160408051601f198184030181528282528051602091820120600089815260029092529190208054632769cd1f60e21b84529193509173__$61dd25696c02d5bd2863c8d2c1a2324a87$__91639da7347c916102e99190869088906004016108b1565b60206040518083038186803b15801561030157600080fd5b505af4158015610315573d6000803e3d6000fd5b505050506040513d601f19601f820116820180604052508101906103399190610906565b6103855760405162461bcd60e51b815260206004820181905260248201527f5468652070726f6f6620636f756c64206e6f742062652076657269666965642e60448201526064016101d3565b6001600160a01b03851660009081526001602081815260408084208a85529091528220805460ff191690911790556003820180548692906103c7908490610945565b92505081905550838160040160008282546103e2919061095c565b9091555050600281015460405163a9059cbb60e01b81526001600160a01b038781166004830152602482018790529091169063a9059cbb90604401602060405180830381600087803b15801561043757600080fd5b505af115801561044b573d6000803e3d6000fd5b505050506040513d601f19601f8201168201806040525081019061046f9190610906565b6104b35760405162461bcd60e51b8152602060048201526015602482015274115490cc8c081d1c985b9cd9995c8819985a5b1959605a1b60448201526064016101d3565b846001600160a01b0316867f9da6493a92039daf47d1f2d7a782299c5994c6323eb1e972f69c432089ec52bf866040516104ef91815260200190565b60405180910390a3505050505050565b6040518060a00160405280858152602001848152602001836001600160a01b0316815260200160008152602001600081525060026000806000815461054390610974565b918290555081526020808201929092526040908101600090812084518155928401516001840155908301516002830180546001600160a01b0319166001600160a01b0390921691909117905560608301516003830155608090920151600490910155546105b090826105fe565b60005460408051868152602081018690526001600160a01b03851692917f7247d7268297fd9fe23a535b70f414660bbcbbcd73ac0d9ce3c103a356a61f45910160405180910390a350505050565b60008281526002602052604081206003810180549192849261062190849061095c565b909155505060028101546040516323b872dd60e01b8152336004820152306024820152604481018490526001600160a01b03909116906323b872dd90606401602060405180830381600087803b15801561067a57600080fd5b505af115801561068e573d6000803e3d6000fd5b505050506040513d601f19601f820116820180604052508101906106b29190610906565b6106f65760405162461bcd60e51b8152602060048201526015602482015274115490cc8c081d1c985b9cd9995c8819985a5b1959605a1b60448201526064016101d3565b505050565b80356001600160a01b038116811461071257600080fd5b919050565b634e487b7160e01b600052604160045260246000fd5b6000806000806080858703121561074357600080fd5b8435935060206107548187016106fb565b935060408601359250606086013567ffffffffffffffff8082111561077857600080fd5b818801915088601f83011261078c57600080fd5b81358181111561079e5761079e610717565b8060051b604051601f19603f830116810181811085821117156107c3576107c3610717565b60405291825284820192508381018501918b8311156107e157600080fd5b938501935b828510156107ff578435845293850193928501926107e6565b989b979a50959850505050505050565b6000806040838503121561082257600080fd5b61082b836106fb565b946020939093013593505050565b60006020828403121561084b57600080fd5b5035919050565b6000806000806080858703121561086857600080fd5b843593506020850135925061087f604086016106fb565b9396929550929360600135925050565b600080604083850312156108a257600080fd5b50508035926020909101359150565b6000606082018583526020858185015260606040850152818551808452608086019150828701935060005b818110156108f8578451835293830193918301916001016108dc565b509098975050505050505050565b60006020828403121561091857600080fd5b8151801515811461092857600080fd5b9392505050565b634e487b7160e01b600052601160045260246000fd5b6000828210156109575761095761092f565b500390565b6000821982111561096f5761096f61092f565b500190565b60006000198214156109885761098861092f565b506001019056fea2646970667358221220a948046816972e68f08f10c71f6cc432ec5429b0116c92f48063e24abc3e790d64736f6c63430008090033","language":"Solidity","natspec":{"kind":"dev","methods":{},"version":1},"opcodes":"PUSH1 0x80 PUSH1 0x40 MSTORE CALLVALUE DUP1 ISZERO PUSH2 0x10 JUMPI PUSH1 0x0 DUP1 REVERT JUMPDEST POP PUSH1 0x4 CALLDATASIZE LT PUSH2 0x62 JUMPI PUSH1 0x0 CALLDATALOAD PUSH1 0xE0 SHR DUP1 PUSH4 0x3A4153C EQ PUSH2 0x67 JUMPI DUP1 PUSH4 0x390B7C66 EQ PUSH2 0x7C JUMPI DUP1 PUSH4 0x6FB24F3A EQ PUSH2 0x98 JUMPI DUP1 PUSH4 0x85D88CB1 EQ PUSH2 0xD6 JUMPI DUP1 PUSH4 0xF1301CCF EQ PUSH2 0x153 JUMPI DUP1 PUSH4 0xF16AD51E EQ PUSH2 0x166 JUMPI JUMPDEST PUSH1 0x0 DUP1 REVERT JUMPDEST PUSH2 0x7A PUSH2 0x75 CALLDATASIZE PUSH1 0x4 PUSH2 0x72D JUMP JUMPDEST PUSH2 0x179 JUMP JUMPDEST STOP JUMPDEST PUSH2 0x85 PUSH1 0x0 SLOAD DUP2 JUMP JUMPDEST PUSH1 0x40 MLOAD SWAP1 DUP2 MSTORE PUSH1 0x20 ADD JUMPDEST PUSH1 0x40 MLOAD DUP1 SWAP2 SUB SWAP1 RETURN JUMPDEST PUSH2 0xC6 PUSH2 0xA6 CALLDATASIZE PUSH1 0x4 PUSH2 0x80F JUMP JUMPDEST PUSH1 0x1 PUSH1 0x20 SWAP1 DUP2 MSTORE PUSH1 0x0 SWAP3 DUP4 MSTORE PUSH1 0x40 DUP1 DUP5 KECCAK256 SWAP1 SWAP2 MSTORE SWAP1 DUP3 MSTORE SWAP1 KECCAK256 SLOAD PUSH1 0xFF AND DUP2 JUMP JUMPDEST PUSH1 0x40 MLOAD SWAP1 ISZERO ISZERO DUP2 MSTORE PUSH1 0x20 ADD PUSH2 0x8F JUMP JUMPDEST PUSH2 0x11D PUSH2 0xE4 CALLDATASIZE PUSH1 0x4 PUSH2 0x839 JUMP JUMPDEST PUSH1 0x2 PUSH1 0x20 DUP2 SWAP1 MSTORE PUSH1 0x0 SWAP2 DUP3 MSTORE PUSH1 0x40 SWAP1 SWAP2 KECCAK256 DUP1 SLOAD PUSH1 0x1 DUP3 ADD SLOAD SWAP3 DUP3 ADD SLOAD PUSH1 0x3 DUP4 ADD SLOAD PUSH1 0x4 SWAP1 SWAP4 ADD SLOAD SWAP2 SWAP4 SWAP3 PUSH1 0x1 PUSH1 0x1 PUSH1 0xA0 SHL SUB SWAP1 SWAP2 AND SWAP2 DUP6 JUMP JUMPDEST PUSH1 0x40 DUP1 MLOAD SWAP6 DUP7 MSTORE PUSH1 0x20 DUP7 ADD SWAP5 SWAP1 SWAP5 MSTORE PUSH1 0x1 PUSH1 0x1 PUSH1 0xA0 SHL SUB SWAP1 SWAP3 AND SWAP3 DUP5 ADD SWAP3 SWAP1 SWAP3 MSTORE PUSH1 0x60 DUP4 ADD SWAP2 SWAP1 SWAP2 MSTORE PUSH1 0x80 DUP3 ADD MSTORE PUSH1 0xA0 ADD PUSH2 0x8F JUMP JUMPDEST PUSH2 0x7A PUSH2 0x161 CALLDATASIZE PUSH1 0x4 PUSH2 0x852 JUMP JUMPDEST PUSH2 0x4FF JUMP JUMPDEST PUSH2 0x7A PUSH2 0x174 CALLDATASIZE PUSH1 0x4 PUSH2 0x88F JUMP JUMPDEST PUSH2 0x5FE JUMP JUMPDEST PUSH1 0x0 SLOAD DUP5 GT ISZERO PUSH2 0x1DC JUMPI PUSH1 0x40 MLOAD PUSH3 0x461BCD PUSH1 0xE5 SHL DUP2 MSTORE PUSH1 0x20 PUSH1 0x4 DUP3 ADD MSTORE PUSH1 0x23 PUSH1 0x24 DUP3 ADD MSTORE PUSH32 0x50726F7669646564206D65726B6C6520696E64657820646F65736E2774206578 PUSH1 0x44 DUP3 ADD MSTORE PUSH3 0x1A5CDD PUSH1 0xEA SHL PUSH1 0x64 DUP3 ADD MSTORE PUSH1 0x84 ADD JUMPDEST PUSH1 0x40 MLOAD DUP1 SWAP2 SUB SWAP1 REVERT JUMPDEST PUSH1 0x1 PUSH1 0x1 PUSH1 0xA0 SHL SUB DUP4 AND PUSH1 0x0 SWAP1 DUP2 MSTORE PUSH1 0x1 PUSH1 0x20 SWAP1 DUP2 MSTORE PUSH1 0x40 DUP1 DUP4 KECCAK256 DUP8 DUP5 MSTORE SWAP1 SWAP2 MSTORE SWAP1 KECCAK256 SLOAD PUSH1 0xFF AND ISZERO PUSH2 0x268 JUMPI PUSH1 0x40 MLOAD PUSH3 0x461BCD PUSH1 0xE5 SHL DUP2 MSTORE PUSH1 0x20 PUSH1 0x4 DUP3 ADD MSTORE PUSH1 0x2F PUSH1 0x24 DUP3 ADD MSTORE PUSH32 0x596F75206861766520616C72656164792077697468647261776E20796F757220 PUSH1 0x44 DUP3 ADD MSTORE PUSH15 0x32B73A34BA3632B2103A37B5B2B717 PUSH1 0x89 SHL PUSH1 0x64 DUP3 ADD MSTORE PUSH1 0x84 ADD PUSH2 0x1D3 JUMP JUMPDEST PUSH1 0x40 DUP1 MLOAD PUSH1 0x1 PUSH1 0x1 PUSH1 0xA0 SHL SUB DUP6 AND PUSH1 0x20 DUP3 ADD MSTORE SWAP1 DUP2 ADD DUP4 SWAP1 MSTORE PUSH1 0x0 SWAP1 PUSH1 0x60 ADD PUSH1 0x40 DUP1 MLOAD PUSH1 0x1F NOT DUP2 DUP5 SUB ADD DUP2 MSTORE DUP3 DUP3 MSTORE DUP1 MLOAD PUSH1 0x20 SWAP2 DUP3 ADD KECCAK256 PUSH1 0x0 DUP10 DUP2 MSTORE PUSH1 0x2 SWAP1 SWAP3 MSTORE SWAP2 SWAP1 KECCAK256 DUP1 SLOAD PUSH4 0x2769CD1F PUSH1 0xE2 SHL DUP5 MSTORE SWAP2 SWAP4 POP SWAP2 PUSH20 0x0 SWAP2 PUSH4 0x9DA7347C SWAP2 PUSH2 0x2E9 SWAP2 SWAP1 DUP7 SWAP1 DUP9 SWAP1 PUSH1 0x4 ADD PUSH2 0x8B1 JUMP JUMPDEST PUSH1 0x20 PUSH1 0x40 MLOAD DUP1 DUP4 SUB DUP2 DUP7 DUP1 EXTCODESIZE ISZERO DUP1 ISZERO PUSH2 0x301 JUMPI PUSH1 0x0 DUP1 REVERT JUMPDEST POP GAS DELEGATECALL ISZERO DUP1 ISZERO PUSH2 0x315 JUMPI RETURNDATASIZE PUSH1 0x0 DUP1 RETURNDATACOPY RETURNDATASIZE PUSH1 0x0 REVERT JUMPDEST POP POP POP POP PUSH1 0x40 MLOAD RETURNDATASIZE PUSH1 0x1F NOT PUSH1 0x1F DUP3 ADD AND DUP3 ADD DUP1 PUSH1 0x40 MSTORE POP DUP2 ADD SWAP1 PUSH2 0x339 SWAP2 SWAP1 PUSH2 0x906 JUMP JUMPDEST PUSH2 0x385 JUMPI PUSH1 0x40 MLOAD PUSH3 0x461BCD PUSH1 0xE5 SHL DUP2 MSTORE PUSH1 0x20 PUSH1 0x4 DUP3 ADD DUP2 SWAP1 MSTORE PUSH1 0x24 DUP3 ADD MSTORE PUSH32 0x5468652070726F6F6620636F756C64206E6F742062652076657269666965642E PUSH1 0x44 DUP3 ADD MSTORE PUSH1 0x64 ADD PUSH2 0x1D3 JUMP JUMPDEST PUSH1 0x1 PUSH1 0x1 PUSH1 0xA0 SHL SUB DUP6 AND PUSH1 0x0 SWAP1 DUP2 MSTORE PUSH1 0x1 PUSH1 0x20 DUP2 DUP2 MSTORE PUSH1 0x40 DUP1 DUP5 KECCAK256 DUP11 DUP6 MSTORE SWAP1 SWAP2 MSTORE DUP3 KECCAK256 DUP1 SLOAD PUSH1 0xFF NOT AND SWAP1 SWAP2 OR SWAP1 SSTORE PUSH1 0x3 DUP3 ADD DUP1 SLOAD DUP7 SWAP3 SWAP1 PUSH2 0x3C7 SWAP1 DUP5 SWAP1 PUSH2 0x945 JUMP JUMPDEST SWAP3 POP POP DUP2 SWAP1 SSTORE POP DUP4 DUP2 PUSH1 0x4 ADD PUSH1 0x0 DUP3 DUP3 SLOAD PUSH2 0x3E2 SWAP2 SWAP1 PUSH2 0x95C JUMP JUMPDEST SWAP1 SWAP2 SSTORE POP POP PUSH1 0x2 DUP2 ADD SLOAD PUSH1 0x40 MLOAD PUSH4 0xA9059CBB PUSH1 0xE0 SHL DUP2 MSTORE PUSH1 0x1 PUSH1 0x1 PUSH1 0xA0 SHL SUB DUP8 DUP2 AND PUSH1 0x4 DUP4 ADD MSTORE PUSH1 0x24 DUP3 ADD DUP8 SWAP1 MSTORE SWAP1 SWAP2 AND SWAP1 PUSH4 0xA9059CBB SWAP1 PUSH1 0x44 ADD PUSH1 0x20 PUSH1 0x40 MLOAD DUP1 DUP4 SUB DUP2 PUSH1 0x0 DUP8 DUP1 EXTCODESIZE ISZERO DUP1 ISZERO PUSH2 0x437 JUMPI PUSH1 0x0 DUP1 REVERT JUMPDEST POP GAS CALL ISZERO DUP1 ISZERO PUSH2 0x44B JUMPI RETURNDATASIZE PUSH1 0x0 DUP1 RETURNDATACOPY RETURNDATASIZE PUSH1 0x0 REVERT JUMPDEST POP POP POP POP PUSH1 0x40 MLOAD RETURNDATASIZE PUSH1 0x1F NOT PUSH1 0x1F DUP3 ADD AND DUP3 ADD DUP1 PUSH1 0x40 MSTORE POP DUP2 ADD SWAP1 PUSH2 0x46F SWAP2 SWAP1 PUSH2 0x906 JUMP JUMPDEST PUSH2 0x4B3 JUMPI PUSH1 0x40 MLOAD PUSH3 0x461BCD PUSH1 0xE5 SHL DUP2 MSTORE PUSH1 0x20 PUSH1 0x4 DUP3 ADD MSTORE PUSH1 0x15 PUSH1 0x24 DUP3 ADD MSTORE PUSH21 0x115490CC8C081D1C985B9CD9995C8819985A5B1959 PUSH1 0x5A SHL PUSH1 0x44 DUP3 ADD MSTORE PUSH1 0x64 ADD PUSH2 0x1D3 JUMP JUMPDEST DUP5 PUSH1 0x1 PUSH1 0x1 PUSH1 0xA0 SHL SUB AND DUP7 PUSH32 0x9DA6493A92039DAF47D1F2D7A782299C5994C6323EB1E972F69C432089EC52BF DUP7 PUSH1 0x40 MLOAD PUSH2 0x4EF SWAP2 DUP2 MSTORE PUSH1 0x20 ADD SWAP1 JUMP JUMPDEST PUSH1 0x40 MLOAD DUP1 SWAP2 SUB SWAP1 LOG3 POP POP POP POP POP POP JUMP JUMPDEST PUSH1 0x40 MLOAD DUP1 PUSH1 0xA0 ADD PUSH1 0x40 MSTORE DUP1 DUP6 DUP2 MSTORE PUSH1 0x20 ADD DUP5 DUP2 MSTORE PUSH1 0x20 ADD DUP4 PUSH1 0x1 PUSH1 0x1 PUSH1 0xA0 SHL SUB AND DUP2 MSTORE PUSH1 0x20 ADD PUSH1 0x0 DUP2 MSTORE PUSH1 0x20 ADD PUSH1 0x0 DUP2 MSTORE POP PUSH1 0x2 PUSH1 0x0 DUP1 PUSH1 0x0 DUP2 SLOAD PUSH2 0x543 SWAP1 PUSH2 0x974 JUMP JUMPDEST SWAP2 DUP3 SWAP1 SSTORE POP DUP2 MSTORE PUSH1 0x20 DUP1 DUP3 ADD SWAP3 SWAP1 SWAP3 MSTORE PUSH1 0x40 SWAP1 DUP2 ADD PUSH1 0x0 SWAP1 DUP2 KECCAK256 DUP5 MLOAD DUP2 SSTORE SWAP3 DUP5 ADD MLOAD PUSH1 0x1 DUP5 ADD SSTORE SWAP1 DUP4 ADD MLOAD PUSH1 0x2 DUP4 ADD DUP1 SLOAD PUSH1 0x1 PUSH1 0x1 PUSH1 0xA0 SHL SUB NOT AND PUSH1 0x1 PUSH1 0x1 PUSH1 0xA0 SHL SUB SWAP1 SWAP3 AND SWAP2 SWAP1 SWAP2 OR SWAP1 SSTORE PUSH1 0x60 DUP4 ADD MLOAD PUSH1 0x3 DUP4 ADD SSTORE PUSH1 0x80 SWAP1 SWAP3 ADD MLOAD PUSH1 0x4 SWAP1 SWAP2 ADD SSTORE SLOAD PUSH2 0x5B0 SWAP1 DUP3 PUSH2 0x5FE JUMP JUMPDEST PUSH1 0x0 SLOAD PUSH1 0x40 DUP1 MLOAD DUP7 DUP2 MSTORE PUSH1 0x20 DUP2 ADD DUP7 SWAP1 MSTORE PUSH1 0x1 PUSH1 0x1 PUSH1 0xA0 SHL SUB DUP6 AND SWAP3 SWAP2 PUSH32 0x7247D7268297FD9FE23A535B70F414660BBCBBCD73AC0D9CE3C103A356A61F45 SWAP2 ADD PUSH1 0x40 MLOAD DUP1 SWAP2 SUB SWAP1 LOG3 POP POP POP POP JUMP JUMPDEST PUSH1 0x0 DUP3 DUP2 MSTORE PUSH1 0x2 PUSH1 0x20 MSTORE PUSH1 0x40 DUP2 KECCAK256 PUSH1 0x3 DUP2 ADD DUP1 SLOAD SWAP2 SWAP3 DUP5 SWAP3 PUSH2 0x621 SWAP1 DUP5 SWAP1 PUSH2 0x95C JUMP JUMPDEST SWAP1 SWAP2 SSTORE POP POP PUSH1 0x2 DUP2 ADD SLOAD PUSH1 0x40 MLOAD PUSH4 0x23B872DD PUSH1 0xE0 SHL DUP2 MSTORE CALLER PUSH1 0x4 DUP3 ADD MSTORE ADDRESS PUSH1 0x24 DUP3 ADD MSTORE PUSH1 0x44 DUP2 ADD DUP5 SWAP1 MSTORE PUSH1 0x1 PUSH1 0x1 PUSH1 0xA0 SHL SUB SWAP1 SWAP2 AND SWAP1 PUSH4 0x23B872DD SWAP1 PUSH1 0x64 ADD PUSH1 0x20 PUSH1 0x40 MLOAD DUP1 DUP4 SUB DUP2 PUSH1 0x0 DUP8 DUP1 EXTCODESIZE ISZERO DUP1 ISZERO PUSH2 0x67A JUMPI PUSH1 0x0 DUP1 REVERT JUMPDEST POP GAS CALL ISZERO DUP1 ISZERO PUSH2 0x68E JUMPI RETURNDATASIZE PUSH1 0x0 DUP1 RETURNDATACOPY RETURNDATASIZE PUSH1 0x0 REVERT JUMPDEST POP POP POP POP PUSH1 0x40 MLOAD RETURNDATASIZE PUSH1 0x1F NOT PUSH1 0x1F DUP3 ADD AND DUP3 ADD DUP1 PUSH1 0x40 MSTORE POP DUP2 ADD SWAP1 PUSH2 0x6B2 SWAP2 SWAP1 PUSH2 0x906 JUMP JUMPDEST PUSH2 0x6F6 JUMPI PUSH1 0x40 MLOAD PUSH3 0x461BCD PUSH1 0xE5 SHL DUP2 MSTORE PUSH1 0x20 PUSH1 0x4 DUP3 ADD MSTORE PUSH1 0x15 PUSH1 0x24 DUP3 ADD MSTORE PUSH21 0x115490CC8C081D1C985B9CD9995C8819985A5B1959 PUSH1 0x5A SHL PUSH1 0x44 DUP3 ADD MSTORE PUSH1 0x64 ADD PUSH2 0x1D3 JUMP JUMPDEST POP POP POP JUMP JUMPDEST DUP1 CALLDATALOAD PUSH1 0x1 PUSH1 0x1 PUSH1 0xA0 SHL SUB DUP2 AND DUP2 EQ PUSH2 0x712 JUMPI PUSH1 0x0 DUP1 REVERT JUMPDEST SWAP2 SWAP1 POP JUMP JUMPDEST PUSH4 0x4E487B71 PUSH1 0xE0 SHL PUSH1 0x0 MSTORE PUSH1 0x41 PUSH1 0x4 MSTORE PUSH1 0x24 PUSH1 0x0 REVERT JUMPDEST PUSH1 0x0 DUP1 PUSH1 0x0 DUP1 PUSH1 0x80 DUP6 DUP8 SUB SLT ISZERO PUSH2 0x743 JUMPI PUSH1 0x0 DUP1 REVERT JUMPDEST DUP5 CALLDATALOAD SWAP4 POP PUSH1 0x20 PUSH2 0x754 DUP2 DUP8 ADD PUSH2 0x6FB JUMP JUMPDEST SWAP4 POP PUSH1 0x40 DUP7 ADD CALLDATALOAD SWAP3 POP PUSH1 0x60 DUP7 ADD CALLDATALOAD PUSH8 0xFFFFFFFFFFFFFFFF DUP1 DUP3 GT ISZERO PUSH2 0x778 JUMPI PUSH1 0x0 DUP1 REVERT JUMPDEST DUP2 DUP9 ADD SWAP2 POP DUP9 PUSH1 0x1F DUP4 ADD SLT PUSH2 0x78C JUMPI PUSH1 0x0 DUP1 REVERT JUMPDEST DUP2 CALLDATALOAD DUP2 DUP2 GT ISZERO PUSH2 0x79E JUMPI PUSH2 0x79E PUSH2 0x717 JUMP JUMPDEST DUP1 PUSH1 0x5 SHL PUSH1 0x40 MLOAD PUSH1 0x1F NOT PUSH1 0x3F DUP4 ADD AND DUP2 ADD DUP2 DUP2 LT DUP6 DUP3 GT OR ISZERO PUSH2 0x7C3 JUMPI PUSH2 0x7C3 PUSH2 0x717 JUMP JUMPDEST PUSH1 0x40 MSTORE SWAP2 DUP3 MSTORE DUP5 DUP3 ADD SWAP3 POP DUP4 DUP2 ADD DUP6 ADD SWAP2 DUP12 DUP4 GT ISZERO PUSH2 0x7E1 JUMPI PUSH1 0x0 DUP1 REVERT JUMPDEST SWAP4 DUP6 ADD SWAP4 JUMPDEST DUP3 DUP6 LT ISZERO PUSH2 0x7FF JUMPI DUP5 CALLDATALOAD DUP5 MSTORE SWAP4 DUP6 ADD SWAP4 SWAP3 DUP6 ADD SWAP3 PUSH2 0x7E6 JUMP JUMPDEST SWAP9 SWAP12 SWAP8 SWAP11 POP SWAP6 SWAP9 POP POP POP POP POP POP POP JUMP JUMPDEST PUSH1 0x0 DUP1 PUSH1 0x40 DUP4 DUP6 SUB SLT ISZERO PUSH2 0x822 JUMPI PUSH1 0x0 DUP1 REVERT JUMPDEST PUSH2 0x82B DUP4 PUSH2 0x6FB JUMP JUMPDEST SWAP5 PUSH1 0x20 SWAP4 SWAP1 SWAP4 ADD CALLDATALOAD SWAP4 POP POP POP JUMP JUMPDEST PUSH1 0x0 PUSH1 0x20 DUP3 DUP5 SUB SLT ISZERO PUSH2 0x84B JUMPI PUSH1 0x0 DUP1 REVERT JUMPDEST POP CALLDATALOAD SWAP2 SWAP1 POP JUMP JUMPDEST PUSH1 0x0 DUP1 PUSH1 0x0 DUP1 PUSH1 0x80 DUP6 DUP8 SUB SLT ISZERO PUSH2 0x868 JUMPI PUSH1 0x0 DUP1 REVERT JUMPDEST DUP5 CALLDATALOAD SWAP4 POP PUSH1 0x20 DUP6 ADD CALLDATALOAD SWAP3 POP PUSH2 0x87F PUSH1 0x40 DUP7 ADD PUSH2 0x6FB JUMP JUMPDEST SWAP4 SWAP7 SWAP3 SWAP6 POP SWAP3 SWAP4 PUSH1 0x60 ADD CALLDATALOAD SWAP3 POP POP JUMP JUMPDEST PUSH1 0x0 DUP1 PUSH1 0x40 DUP4 DUP6 SUB SLT ISZERO PUSH2 0x8A2 JUMPI PUSH1 0x0 DUP1 REVERT JUMPDEST POP POP DUP1 CALLDATALOAD SWAP3 PUSH1 0x20 SWAP1 SWAP2 ADD CALLDATALOAD SWAP2 POP JUMP JUMPDEST PUSH1 0x0 PUSH1 0x60 DUP3 ADD DUP6 DUP4 MSTORE PUSH1 0x20 DUP6 DUP2 DUP6 ADD MSTORE PUSH1 0x60 PUSH1 0x40 DUP6 ADD MSTORE DUP2 DUP6 MLOAD DUP1 DUP5 MSTORE PUSH1 0x80 DUP7 ADD SWAP2 POP DUP3 DUP8 ADD SWAP4 POP PUSH1 0x0 JUMPDEST DUP2 DUP2 LT ISZERO PUSH2 0x8F8 JUMPI DUP5 MLOAD DUP4 MSTORE SWAP4 DUP4 ADD SWAP4 SWAP2 DUP4 ADD SWAP2 PUSH1 0x1 ADD PUSH2 0x8DC JUMP JUMPDEST POP SWAP1 SWAP9 SWAP8 POP POP POP POP POP POP POP POP JUMP JUMPDEST PUSH1 0x0 PUSH1 0x20 DUP3 DUP5 SUB SLT ISZERO PUSH2 0x918 JUMPI PUSH1 0x0 DUP1 REVERT JUMPDEST DUP2 MLOAD DUP1 ISZERO ISZERO DUP2 EQ PUSH2 0x928 JUMPI PUSH1 0x0 DUP1 REVERT JUMPDEST SWAP4 SWAP3 POP POP POP JUMP JUMPDEST PUSH4 0x4E487B71 PUSH1 0xE0 SHL PUSH1 0x0 MSTORE PUSH1 0x11 PUSH1 0x4 MSTORE PUSH1 0x24 PUSH1 0x0 REVERT JUMPDEST PUSH1 0x0 DUP3 DUP3 LT ISZERO PUSH2 0x957 JUMPI PUSH2 0x957 PUSH2 0x92F JUMP JUMPDEST POP SUB SWAP1 JUMP JUMPDEST PUSH1 0x0 DUP3 NOT DUP3 GT ISZERO PUSH2 0x96F JUMPI PUSH2 0x96F PUSH2 0x92F JUMP JUMPDEST POP ADD SWAP1 JUMP JUMPDEST PUSH1 0x0 PUSH1 0x0 NOT DUP3 EQ ISZERO PUSH2 0x988 JUMPI PUSH2 0x988 PUSH2 0x92F JUMP JUMPDEST POP PUSH1 0x1 ADD SWAP1 JUMP INVALID LOG2 PUSH5 0x6970667358 0x22 SLT KECCAK256 0xA9 BASEFEE DIV PUSH9 0x16972E68F08F10C71F PUSH13 0xC432EC5429B0116C92F48063E2 0x4A 0xBC RETURNDATACOPY PUSH26 0xD64736F6C634300080900330000000000000000000000000000 ","sha1":"9772c172a5861c419395f472c9dc4446decfd853","source":"// SPDX-License-Identifier: GPL-3.0-only\n\npragma solidity 0.8.9;\n\nimport \"../interfaces/IERC20.sol\";\nimport \"./MerkleLib.sol\";\n\n// This contract is for anyone to create a merkledrop, that is, an airdrop using merkleproofs to compute eligibility\ncontract MerkleDropFactory {\n    using MerkleLib for bytes32;\n\n    // the number of airdrops in this contract\n    uint public numTrees = 0;\n\n    // this represents a single airdrop\n    struct MerkleTree {\n        bytes32 merkleRoot;  // merkleroot of tree whose leaves are (address,uint) pairs representing amount owed to user\n        bytes32 ipfsHash; // ipfs hash of entire dataset, as backup in case our servers turn off...\n        address tokenAddress; // address of token that is being airdropped\n        uint tokenBalance; // amount of tokens allocated for this tree\n        uint spentTokens; // amount of tokens dispensed from this tree\n    }\n\n    // withdrawn[recipient][treeIndex] = hasUserWithdrawnAirdrop\n    mapping (address => mapping (uint => bool)) public withdrawn;\n\n    // array-like map for all ze merkle trees (airdrops)\n    mapping (uint => MerkleTree) public merkleTrees;\n\n    // every time there's a withdraw\n    event Withdraw(uint indexed merkleIndex, address indexed recipient, uint value);\n    // every time a tree is added\n    event MerkleTreeAdded(uint indexed index, address indexed tokenAddress, bytes32 newRoot, bytes32 ipfsHash);\n\n    // anyone can add a new airdrop\n    function addMerkleTree(bytes32 newRoot, bytes32 ipfsHash, address depositToken, uint tokenBalance) public {\n        // prefix operator ++ increments then evaluates\n        merkleTrees[++numTrees] = MerkleTree(\n            newRoot,\n            ipfsHash,\n            depositToken,\n            0,  // ain't no tokens in here yet\n            0   // ain't nobody claimed no tokens yet either\n        );\n        // you don't get to add a tree without funding it\n        depositTokens(numTrees, tokenBalance);\n        emit MerkleTreeAdded(numTrees, depositToken, newRoot, ipfsHash);\n    }\n\n    // anyone can fund any tree\n    function depositTokens(uint treeIndex, uint value) public {\n        // storage since we are editing\n        MerkleTree storage merkleTree = merkleTrees[treeIndex];\n\n        // bookkeeping to make sure trees don't share tokens\n        merkleTree.tokenBalance += value;\n\n        // transfer tokens, if this is a malicious token, then this whole tree is malicious\n        // but it does not effect the other trees\n        require(IERC20(merkleTree.tokenAddress).transferFrom(msg.sender, address(this), value), \"ERC20 transfer failed\");\n    }\n\n    // anyone can withdraw anyone else's tokens, altho they always go to the right destination\n    // msg.sender is not used in this function\n    function withdraw(uint merkleIndex, address walletAddress, uint value, bytes32[] memory proof) public {\n        // no withdrawing from uninitialized merkle trees\n        require(merkleIndex <= numTrees, \"Provided merkle index doesn't exist\");\n        // no withdrawing same airdrop twice\n        require(!withdrawn[walletAddress][merkleIndex], \"You have already withdrawn your entitled token.\");\n        // compute merkle leaf, this is first element of proof\n        bytes32 leaf = keccak256(abi.encode(walletAddress, value));\n        // storage because we edit\n        MerkleTree storage tree = merkleTrees[merkleIndex];\n        // this calls to MerkleLib, will return false if recursive hashes do not end in merkle root\n        require(tree.merkleRoot.verifyProof(leaf, proof), \"The proof could not be verified.\");\n        // close re-entrance gate, prevent double claims\n        withdrawn[walletAddress][merkleIndex] = true;\n        // update struct\n        tree.tokenBalance -= value;\n        tree.spentTokens += value;\n        // transfer the tokens\n        // NOTE: if the token contract is malicious this call could re-enter this function\n        // which will fail because withdrawn will be set to true\n        require(IERC20(tree.tokenAddress).transfer(walletAddress, value), \"ERC20 transfer failed\");\n        emit Withdraw(merkleIndex, walletAddress, value);\n    }\n\n}","sourcePath":"contracts/MerkleDropFactory.sol","type":"contract","deployment":{"address":"0xC1EC61dfde2082d56E2A4D062D66aa20bfB8e2f9","chainid":"4","blockHeight":10577120}}