{"bytecode":"6102b661003a600b82828239805160001a60731461002d57634e487b7160e01b600052600060045260246000fd5b30600052607381538281f3fe73000000000000000000000000000000000000000030146080604052600436106100405760003560e01c80639580f1f2146100455780639da7347c1461006b575b600080fd5b610058610053366004610139565b61008e565b6040519081526020015b60405180910390f35b61007e610079366004610171565b6100e9565b6040519015158152602001610062565b6000818310156100ca5760408051602081018590529081018390526060015b6040516020818303038152906040528051906020012090506100e3565b60408051602081018490529081018490526060016100ad565b92915050565b600082815b835181101561012e5761011a8285838151811061010d5761010d610244565b602002602001015161008e565b915061012760018261025a565b90506100ee565b509093149392505050565b6000806040838503121561014c57600080fd5b50508035926020909101359150565b634e487b7160e01b600052604160045260246000fd5b60008060006060848603121561018657600080fd5b833592506020808501359250604085013567ffffffffffffffff808211156101ad57600080fd5b818701915087601f8301126101c157600080fd5b8135818111156101d3576101d361015b565b8060051b604051601f19603f830116810181811085821117156101f8576101f861015b565b60405291825284820192508381018501918a83111561021657600080fd5b938501935b828510156102345784358452938501939285019261021b565b8096505050505050509250925092565b634e487b7160e01b600052603260045260246000fd5b6000821982111561027b57634e487b7160e01b600052601160045260246000fd5b50019056fea2646970667358221220deddc88013432893cdc330f9e880038aed345143f3e30be47c0abf57ce3619c164736f6c63430008090033","bytecodeSha1":"b0fcc8318be382416cfe44051098f86acef935ac","type":"library","abi":[{"inputs":[{"internalType":"bytes32","name":"a","type":"bytes32"},{"internalType":"bytes32","name":"b","type":"bytes32"}],"name":"parentHash","outputs":[{"internalType":"bytes32","name":"","type":"bytes32"}],"stateMutability":"pure","type":"function"},{"inputs":[{"internalType":"bytes32","name":"root","type":"bytes32"},{"internalType":"bytes32","name":"leaf","type":"bytes32"},{"internalType":"bytes32[]","name":"proof","type":"bytes32[]"}],"name":"verifyProof","outputs":[{"internalType":"bool","name":"","type":"bool"}],"stateMutability":"pure","type":"function"}],"compiler":{"version":"0.8.9+commit.e5eed63a","evm_version":"istanbul","optimizer":{"enabled":true,"runs":200}},"contractName":"MerkleLib","language":"Solidity","natspec":{"methods":{},"kind":"dev","version":1},"opcodes":"PUSH20 0x0 ADDRESS EQ PUSH1 0x80 PUSH1 0x40 MSTORE PUSH1 0x4 CALLDATASIZE LT PUSH2 0x40 JUMPI PUSH1 0x0 CALLDATALOAD PUSH1 0xE0 SHR DUP1 PUSH4 0x9580F1F2 EQ PUSH2 0x45 JUMPI DUP1 PUSH4 0x9DA7347C EQ PUSH2 0x6B JUMPI JUMPDEST PUSH1 0x0 DUP1 REVERT JUMPDEST PUSH2 0x58 PUSH2 0x53 CALLDATASIZE PUSH1 0x4 PUSH2 0x139 JUMP JUMPDEST PUSH2 0x8E JUMP JUMPDEST PUSH1 0x40 MLOAD SWAP1 DUP2 MSTORE PUSH1 0x20 ADD JUMPDEST PUSH1 0x40 MLOAD DUP1 SWAP2 SUB SWAP1 RETURN JUMPDEST PUSH2 0x7E PUSH2 0x79 CALLDATASIZE PUSH1 0x4 PUSH2 0x171 JUMP JUMPDEST PUSH2 0xE9 JUMP JUMPDEST PUSH1 0x40 MLOAD SWAP1 ISZERO ISZERO DUP2 MSTORE PUSH1 0x20 ADD PUSH2 0x62 JUMP JUMPDEST PUSH1 0x0 DUP2 DUP4 LT ISZERO PUSH2 0xCA JUMPI PUSH1 0x40 DUP1 MLOAD PUSH1 0x20 DUP2 ADD DUP6 SWAP1 MSTORE SWAP1 DUP2 ADD DUP4 SWAP1 MSTORE PUSH1 0x60 ADD JUMPDEST PUSH1 0x40 MLOAD PUSH1 0x20 DUP2 DUP4 SUB SUB DUP2 MSTORE SWAP1 PUSH1 0x40 MSTORE DUP1 MLOAD SWAP1 PUSH1 0x20 ADD KECCAK256 SWAP1 POP PUSH2 0xE3 JUMP JUMPDEST PUSH1 0x40 DUP1 MLOAD PUSH1 0x20 DUP2 ADD DUP5 SWAP1 MSTORE SWAP1 DUP2 ADD DUP5 SWAP1 MSTORE PUSH1 0x60 ADD PUSH2 0xAD JUMP JUMPDEST SWAP3 SWAP2 POP POP JUMP JUMPDEST PUSH1 0x0 DUP3 DUP2 JUMPDEST DUP4 MLOAD DUP2 LT ISZERO PUSH2 0x12E JUMPI PUSH2 0x11A DUP3 DUP6 DUP4 DUP2 MLOAD DUP2 LT PUSH2 0x10D JUMPI PUSH2 0x10D PUSH2 0x244 JUMP JUMPDEST PUSH1 0x20 MUL PUSH1 0x20 ADD ADD MLOAD PUSH2 0x8E JUMP JUMPDEST SWAP2 POP PUSH2 0x127 PUSH1 0x1 DUP3 PUSH2 0x25A JUMP JUMPDEST SWAP1 POP PUSH2 0xEE JUMP JUMPDEST POP SWAP1 SWAP4 EQ SWAP4 SWAP3 POP POP POP JUMP JUMPDEST PUSH1 0x0 DUP1 PUSH1 0x40 DUP4 DUP6 SUB SLT ISZERO PUSH2 0x14C JUMPI PUSH1 0x0 DUP1 REVERT JUMPDEST POP POP DUP1 CALLDATALOAD SWAP3 PUSH1 0x20 SWAP1 SWAP2 ADD CALLDATALOAD SWAP2 POP JUMP JUMPDEST PUSH4 0x4E487B71 PUSH1 0xE0 SHL PUSH1 0x0 MSTORE PUSH1 0x41 PUSH1 0x4 MSTORE PUSH1 0x24 PUSH1 0x0 REVERT JUMPDEST PUSH1 0x0 DUP1 PUSH1 0x0 PUSH1 0x60 DUP5 DUP7 SUB SLT ISZERO PUSH2 0x186 JUMPI PUSH1 0x0 DUP1 REVERT JUMPDEST DUP4 CALLDATALOAD SWAP3 POP PUSH1 0x20 DUP1 DUP6 ADD CALLDATALOAD SWAP3 POP PUSH1 0x40 DUP6 ADD CALLDATALOAD PUSH8 0xFFFFFFFFFFFFFFFF DUP1 DUP3 GT ISZERO PUSH2 0x1AD JUMPI PUSH1 0x0 DUP1 REVERT JUMPDEST DUP2 DUP8 ADD SWAP2 POP DUP8 PUSH1 0x1F DUP4 ADD SLT PUSH2 0x1C1 JUMPI PUSH1 0x0 DUP1 REVERT JUMPDEST DUP2 CALLDATALOAD DUP2 DUP2 GT ISZERO PUSH2 0x1D3 JUMPI PUSH2 0x1D3 PUSH2 0x15B JUMP JUMPDEST DUP1 PUSH1 0x5 SHL PUSH1 0x40 MLOAD PUSH1 0x1F NOT PUSH1 0x3F DUP4 ADD AND DUP2 ADD DUP2 DUP2 LT DUP6 DUP3 GT OR ISZERO PUSH2 0x1F8 JUMPI PUSH2 0x1F8 PUSH2 0x15B JUMP JUMPDEST PUSH1 0x40 MSTORE SWAP2 DUP3 MSTORE DUP5 DUP3 ADD SWAP3 POP DUP4 DUP2 ADD DUP6 ADD SWAP2 DUP11 DUP4 GT ISZERO PUSH2 0x216 JUMPI PUSH1 0x0 DUP1 REVERT JUMPDEST SWAP4 DUP6 ADD SWAP4 JUMPDEST DUP3 DUP6 LT ISZERO PUSH2 0x234 JUMPI DUP5 CALLDATALOAD DUP5 MSTORE SWAP4 DUP6 ADD SWAP4 SWAP3 DUP6 ADD SWAP3 PUSH2 0x21B JUMP JUMPDEST DUP1 SWAP7 POP POP POP POP POP POP POP SWAP3 POP SWAP3 POP SWAP3 JUMP JUMPDEST PUSH4 0x4E487B71 PUSH1 0xE0 SHL PUSH1 0x0 MSTORE PUSH1 0x32 PUSH1 0x4 MSTORE PUSH1 0x24 PUSH1 0x0 REVERT JUMPDEST PUSH1 0x0 DUP3 NOT DUP3 GT ISZERO PUSH2 0x27B JUMPI PUSH4 0x4E487B71 PUSH1 0xE0 SHL PUSH1 0x0 MSTORE PUSH1 0x11 PUSH1 0x4 MSTORE PUSH1 0x24 PUSH1 0x0 REVERT JUMPDEST POP ADD SWAP1 JUMP INVALID LOG2 PUSH5 0x6970667358 0x22 SLT KECCAK256 0xDE 0xDD 0xC8 DUP1 SGT NUMBER 0x28 SWAP4 0xCD 0xC3 ADDRESS 0xF9 0xE8 DUP1 SUB DUP11 0xED CALLVALUE MLOAD NUMBER RETURN 0xE3 SIGNEXTEND 0xE4 PUSH29 0xABF57CE3619C164736F6C634300080900330000000000000000000000 ","sha1":"f74560316d31321c5c60ed91ee24879e8767c978","source":"// SPDX-License-Identifier: GPL-3.0-only\n\npragma solidity 0.8.9;\n\nlibrary MerkleLib {\n\n    function verifyProof(bytes32 root, bytes32 leaf, bytes32[] memory proof) public pure returns (bool) {\n        bytes32 currentHash = leaf;\n\n        for (uint i = 0; i < proof.length; i += 1) {\n            currentHash = parentHash(currentHash, proof[i]);\n        }\n\n        return currentHash == root;\n    }\n\n    function parentHash(bytes32 a, bytes32 b) public pure returns (bytes32) {\n        if (a < b) {\n            return keccak256(abi.encode(a, b));\n        } else {\n            return keccak256(abi.encode(b, a));\n        }\n    }\n\n}\n","sourcePath":"contracts/MerkleLib.sol","deployment":{"address":"0xAB73C958F8A4Ed59Cc111B51f61440ff95Ca4376","chainid":"56","blockHeight":12548485}}