{"abi":[{"inputs":[{"internalType":"uint256","name":"treeIndex","type":"uint256"},{"internalType":"uint256","name":"trancheIndex","type":"uint256"}],"name":"AccountEmpty","type":"error"},{"inputs":[{"internalType":"uint256","name":"treeIndex","type":"uint256"},{"internalType":"uint256","name":"trancheIndex","type":"uint256"}],"name":"AccountStillLocked","type":"error"},{"inputs":[{"internalType":"uint256","name":"treeIndex","type":"uint256"},{"internalType":"bytes32","name":"leaf","type":"bytes32"}],"name":"AlreadyInitialized","type":"error"},{"inputs":[{"internalType":"uint256","name":"treeIndex","type":"uint256"},{"internalType":"bytes32","name":"leaf","type":"bytes32"},{"internalType":"bytes32[]","name":"proof","type":"bytes32[]"}],"name":"BadProof","type":"error"},{"inputs":[{"internalType":"uint256","name":"treeIndex","type":"uint256"}],"name":"BadTreeIndex","type":"error"},{"inputs":[{"internalType":"uint256","name":"treeIndex","type":"uint256"},{"internalType":"uint256","name":"trancheIndex","type":"uint256"}],"name":"UninitializedAccount","type":"error"},{"anonymous":false,"inputs":[{"indexed":true,"internalType":"uint256","name":"treeIndex","type":"uint256"},{"indexed":true,"internalType":"address","name":"tokenAddress","type":"address"},{"indexed":false,"internalType":"bytes32","name":"newRoot","type":"bytes32"},{"indexed":false,"internalType":"bytes32","name":"ipfsHash","type":"bytes32"}],"name":"MerkleRootAdded","type":"event"},{"anonymous":false,"inputs":[{"indexed":true,"internalType":"uint256","name":"treeIndex","type":"uint256"},{"indexed":true,"internalType":"address","name":"tokenAddress","type":"address"},{"indexed":false,"internalType":"uint256","name":"amount","type":"uint256"}],"name":"TokensDeposited","type":"event"},{"anonymous":false,"inputs":[{"indexed":true,"internalType":"uint256","name":"treeIndex","type":"uint256"},{"indexed":true,"internalType":"uint256","name":"trancheIndex","type":"uint256"},{"indexed":true,"internalType":"address","name":"recipient","type":"address"},{"indexed":false,"internalType":"bytes32","name":"leaf","type":"bytes32"}],"name":"TrancheInitialized","type":"event"},{"anonymous":false,"inputs":[{"indexed":true,"internalType":"uint256","name":"treeIndex","type":"uint256"},{"indexed":true,"internalType":"address","name":"destination","type":"address"},{"indexed":false,"internalType":"uint256","name":"numTokens","type":"uint256"},{"indexed":false,"internalType":"uint256","name":"tokensLeft","type":"uint256"}],"name":"WithdrawalOccurred","type":"event"},{"inputs":[{"internalType":"bytes32","name":"newRoot","type":"bytes32"},{"internalType":"bytes32","name":"ipfsHash","type":"bytes32"},{"internalType":"address","name":"tokenAddress","type":"address"},{"internalType":"uint256","name":"tokenBalance","type":"uint256"}],"name":"addMerkleRoot","outputs":[],"stateMutability":"nonpayable","type":"function"},{"inputs":[{"internalType":"uint256","name":"treeIndex","type":"uint256"},{"internalType":"uint256","name":"value","type":"uint256"}],"name":"depositTokens","outputs":[],"stateMutability":"nonpayable","type":"function"},{"inputs":[{"internalType":"uint256","name":"treeIndex","type":"uint256"},{"internalType":"bytes32","name":"leaf","type":"bytes32"}],"name":"getInitialized","outputs":[{"internalType":"bool","name":"","type":"bool"}],"stateMutability":"view","type":"function"},{"inputs":[{"internalType":"uint256","name":"treeIndex","type":"uint256"},{"internalType":"uint256","name":"trancheIndex","type":"uint256"}],"name":"getTranche","outputs":[{"internalType":"address","name":"","type":"address"},{"internalType":"uint256","name":"","type":"uint256"},{"internalType":"uint256","name":"","type":"uint256"},{"internalType":"uint256","name":"","type":"uint256"},{"internalType":"uint256","name":"","type":"uint256"},{"internalType":"uint256","name":"","type":"uint256"},{"internalType":"uint256","name":"","type":"uint256"}],"stateMutability":"view","type":"function"},{"inputs":[{"internalType":"uint256","name":"treeIndex","type":"uint256"},{"internalType":"address","name":"destination","type":"address"},{"internalType":"uint256","name":"totalCoins","type":"uint256"},{"internalType":"uint256","name":"startTime","type":"uint256"},{"internalType":"uint256","name":"endTime","type":"uint256"},{"internalType":"uint256","name":"lockPeriodEndTime","type":"uint256"},{"internalType":"bytes32[]","name":"proof","type":"bytes32[]"}],"name":"initialize","outputs":[{"internalType":"uint256","name":"","type":"uint256"}],"stateMutability":"nonpayable","type":"function"},{"inputs":[{"internalType":"uint256","name":"","type":"uint256"}],"name":"merkleTrees","outputs":[{"internalType":"bytes32","name":"rootHash","type":"bytes32"},{"internalType":"bytes32","name":"ipfsHash","type":"bytes32"},{"internalType":"address","name":"tokenAddress","type":"address"},{"internalType":"uint256","name":"tokenBalance","type":"uint256"},{"internalType":"uint256","name":"numTranchesInitialized","type":"uint256"}],"stateMutability":"view","type":"function"},{"inputs":[],"name":"numTrees","outputs":[{"internalType":"uint256","name":"","type":"uint256"}],"stateMutability":"view","type":"function"},{"inputs":[{"internalType":"uint256","name":"treeIndex","type":"uint256"},{"internalType":"uint256","name":"trancheIndex","type":"uint256"}],"name":"withdraw","outputs":[],"stateMutability":"nonpayable","type":"function"}],"bytecode":"608060405234801561001057600080fd5b50610e01806100206000396000f3fe608060405234801561001057600080fd5b50600436106100885760003560e01c80639e18a0541161005b5780639e18a054146101de578063a8efa9ba146101f1578063d6801c2e14610204578063f16ad51e1461024657600080fd5b80630b42abf21461008d578063390b7c6614610136578063441a3e701461014d57806385d88cb114610162575b600080fd5b6100f261009b366004610ae8565b60009182526001602081815260408085209385526005938401909152909220805492810154600282015460038301546004840154948401546006909401546001600160a01b03909616969295919490939092909190565b604080516001600160a01b0390981688526020880196909652948601939093526060850191909152608084015260a083015260c082015260e0015b60405180910390f35b61013f60005481565b60405190815260200161012d565b61016061015b366004610ae8565b610259565b005b6101a8610170366004610b0a565b60016020819052600091825260409091208054918101546002820154600383015460049093015491926001600160a01b039091169185565b6040805195865260208601949094526001600160a01b03909216928401929092526060830191909152608082015260a00161012d565b6101606101ec366004610b3f565b61053e565b61013f6101ff366004610b92565b6105ee565b610236610212366004610ae8565b60009182526001602090815260408084209284526006909201905290205460ff1690565b604051901515815260200161012d565b610160610254366004610ae8565b6108da565b600082815260016020818152604080842085855260058101909252909220908101546102a75760405163c085915360e01b815260048101859052602481018490526044015b60405180910390fd5b80600701544210156102d9576040516001624be61f60e11b03198152600481018590526024810184905260440161029e565b6002810154610305576040516318c0dc6760e21b8152600481018590526024810184905260440161029e565b60008160040154421061031d5750600281015461033e565b600582015460068301546103319042610ca9565b61033b9190610cc0565b90505b42600683015560028301546040516370a0823160e01b81523060048201526001600160a01b039091169060009082906370a0823190602401602060405180830381865afa158015610393573d6000803e3d6000fd5b505050506040513d601f19601f820116820180604052508101906103b79190610cdf565b845460405163a9059cbb60e01b81526001600160a01b0391821660048201526024810186905291925083169063a9059cbb906044016020604051808303816000875af115801561040b573d6000803e3d6000fd5b505050506040513d601f19601f8201168201806040525081019061042f9190610cf8565b506040516370a0823160e01b81523060048201526000906001600160a01b038416906370a0823190602401602060405180830381865afa158015610477573d6000803e3d6000fd5b505050506040513d601f19601f8201168201806040525081019061049b9190610cdf565b905060006104a98284610ca9565b9050808660020160008282546104bf9190610ca9565b92505081905550808760030160008282546104da9190610ca9565b9091555050855460028701546040516001600160a01b03909216918b917f1680e4cfe90468085407ef2b599dbe94b0aa30ff9f180f0e41d22eb71c8728729161052b91868252602082015260400190565b60405180910390a3505050505050505050565b600060016000806000815461055290610d21565b9182905550815260208101919091526040016000908120868155600181018690556002810180546001600160a01b0319166001600160a01b038716179055905490915061059f90836108da565b60005460408051878152602081018790526001600160a01b03861692917fb72ea3ed46a7513251023946d5d35916f3e1d76d748bb144e641d1162dee222f910160405180910390a35050505050565b60008715806105fe575060005488115b1561061f5760405163190a97ad60e01b81526004810189905260240161029e565b604080516001600160a01b0389166020820152908101879052606081018690526080810185905260a0810184905260009060c00160408051601f19818403018152918152815160209283012060008c81526001845282812082825260068101909452919091205490925060ff16156106b45760405163a0b0703160e01b8152600481018b90526024810183905260440161029e565b8054604051632769cd1f60e21b815273__MerkleLib_____________________________91639da7347c916106f0919086908990600401610d3c565b602060405180830381865af415801561070d573d6000803e3d6000fd5b505050506040513d601f19601f820116820180604052508101906107319190610cf8565b61075457898285604051630da5a8fd60e41b815260040161029e93929190610d3c565b60008281526006820160205260408120805460ff191660011790556107798888610ca9565b610783908a610d91565b90506040518061010001604052808b6001600160a01b031681526020018a81526020018a81526020018981526020018881526020018281526020018981526020018781525082600501600084600401600081546107df90610d21565b919050819055815260200190815260200160002060008201518160000160006101000a8154816001600160a01b0302191690836001600160a01b031602179055506020820151816001015560408201518160020155606082015181600301556080820151816004015560a0820151816005015560c0820151816006015560e08201518160070155905050896001600160a01b031682600401548c7fe937d08e98e81d14e69757213935a0ccaf856636fb06fdafc51d7c78cc85e97d866040516108aa91815260200190565b60405180910390a4428610156108c8576108c88b8360040154610259565b50600401549998505050505050505050565b8115806108e8575060005482115b156109095760405163190a97ad60e01b81526004810183905260240161029e565b600082815260016020526040808220600281015491516370a0823160e01b815230600482015290926001600160a01b03909216919082906370a0823190602401602060405180830381865afa158015610966573d6000803e3d6000fd5b505050506040513d601f19601f8201168201806040525081019061098a9190610cdf565b6040516323b872dd60e01b8152336004820152306024820152604481018690529091506001600160a01b038316906323b872dd906064016020604051808303816000875af11580156109e0573d6000803e3d6000fd5b505050506040513d601f19601f82011682018060405250810190610a049190610cf8565b506040516370a0823160e01b81523060048201526000906001600160a01b038416906370a0823190602401602060405180830381865afa158015610a4c573d6000803e3d6000fd5b505050506040513d601f19601f82011682018060405250810190610a709190610cdf565b90506000610a7e8383610ca9565b905080856003016000828254610a949190610db3565b909155505060028501546040518281526001600160a01b039091169088907fb162210da7d23d82c18cff5af46d3562661d26b42a6848fa28d64a6bdc70386a9060200160405180910390a350505050505050565b60008060408385031215610afb57600080fd5b50508035926020909101359150565b600060208284031215610b1c57600080fd5b5035919050565b80356001600160a01b0381168114610b3a57600080fd5b919050565b60008060008060808587031215610b5557600080fd5b8435935060208501359250610b6c60408601610b23565b9396929550929360600135925050565b634e487b7160e01b600052604160045260246000fd5b600080600080600080600060e0888a031215610bad57600080fd5b873596506020610bbe818a01610b23565b965060408901359550606089013594506080890135935060a0890135925060c089013567ffffffffffffffff80821115610bf757600080fd5b818b0191508b601f830112610c0b57600080fd5b813581811115610c1d57610c1d610b7c565b8060051b604051601f19603f83011681018181108582111715610c4257610c42610b7c565b60405291825284820192508381018501918e831115610c6057600080fd5b938501935b82851015610c7e57843584529385019392850192610c65565b80965050505050505092959891949750929550565b634e487b7160e01b600052601160045260246000fd5b600082821015610cbb57610cbb610c93565b500390565b6000816000190483118215151615610cda57610cda610c93565b500290565b600060208284031215610cf157600080fd5b5051919050565b600060208284031215610d0a57600080fd5b81518015158114610d1a57600080fd5b9392505050565b6000600019821415610d3557610d35610c93565b5060010190565b6000606082018583526020858185015260606040850152818551808452608086019150828701935060005b81811015610d8357845183529383019391830191600101610d67565b509098975050505050505050565b600082610dae57634e487b7160e01b600052601260045260246000fd5b500490565b60008219821115610dc657610dc6610c93565b50019056fea2646970667358221220a8823a183ddbc790db32dfe51b603f8da83eb9b9b8042a24627ef7e1c33322e564736f6c634300080c0033","bytecodeSha1":"6e9faf115e01af89ec2fc65e3c2edab2969bbf27","compiler":{"evm_version":"istanbul","optimizer":{"enabled":true,"runs":200},"version":"0.8.12+commit.f00d7308"},"contractName":"MerkleVesting","deployedBytecode":"608060405234801561001057600080fd5b50600436106100885760003560e01c80639e18a0541161005b5780639e18a054146101de578063a8efa9ba146101f1578063d6801c2e14610204578063f16ad51e1461024657600080fd5b80630b42abf21461008d578063390b7c6614610136578063441a3e701461014d57806385d88cb114610162575b600080fd5b6100f261009b366004610ae8565b60009182526001602081815260408085209385526005938401909152909220805492810154600282015460038301546004840154948401546006909401546001600160a01b03909616969295919490939092909190565b604080516001600160a01b0390981688526020880196909652948601939093526060850191909152608084015260a083015260c082015260e0015b60405180910390f35b61013f60005481565b60405190815260200161012d565b61016061015b366004610ae8565b610259565b005b6101a8610170366004610b0a565b60016020819052600091825260409091208054918101546002820154600383015460049093015491926001600160a01b039091169185565b6040805195865260208601949094526001600160a01b03909216928401929092526060830191909152608082015260a00161012d565b6101606101ec366004610b3f565b61053e565b61013f6101ff366004610b92565b6105ee565b610236610212366004610ae8565b60009182526001602090815260408084209284526006909201905290205460ff1690565b604051901515815260200161012d565b610160610254366004610ae8565b6108da565b600082815260016020818152604080842085855260058101909252909220908101546102a75760405163c085915360e01b815260048101859052602481018490526044015b60405180910390fd5b80600701544210156102d9576040516001624be61f60e11b03198152600481018590526024810184905260440161029e565b6002810154610305576040516318c0dc6760e21b8152600481018590526024810184905260440161029e565b60008160040154421061031d5750600281015461033e565b600582015460068301546103319042610ca9565b61033b9190610cc0565b90505b42600683015560028301546040516370a0823160e01b81523060048201526001600160a01b039091169060009082906370a0823190602401602060405180830381865afa158015610393573d6000803e3d6000fd5b505050506040513d601f19601f820116820180604052508101906103b79190610cdf565b845460405163a9059cbb60e01b81526001600160a01b0391821660048201526024810186905291925083169063a9059cbb906044016020604051808303816000875af115801561040b573d6000803e3d6000fd5b505050506040513d601f19601f8201168201806040525081019061042f9190610cf8565b506040516370a0823160e01b81523060048201526000906001600160a01b038416906370a0823190602401602060405180830381865afa158015610477573d6000803e3d6000fd5b505050506040513d601f19601f8201168201806040525081019061049b9190610cdf565b905060006104a98284610ca9565b9050808660020160008282546104bf9190610ca9565b92505081905550808760030160008282546104da9190610ca9565b9091555050855460028701546040516001600160a01b03909216918b917f1680e4cfe90468085407ef2b599dbe94b0aa30ff9f180f0e41d22eb71c8728729161052b91868252602082015260400190565b60405180910390a3505050505050505050565b600060016000806000815461055290610d21565b9182905550815260208101919091526040016000908120868155600181018690556002810180546001600160a01b0319166001600160a01b038716179055905490915061059f90836108da565b60005460408051878152602081018790526001600160a01b03861692917fb72ea3ed46a7513251023946d5d35916f3e1d76d748bb144e641d1162dee222f910160405180910390a35050505050565b60008715806105fe575060005488115b1561061f5760405163190a97ad60e01b81526004810189905260240161029e565b604080516001600160a01b0389166020820152908101879052606081018690526080810185905260a0810184905260009060c00160408051601f19818403018152918152815160209283012060008c81526001845282812082825260068101909452919091205490925060ff16156106b45760405163a0b0703160e01b8152600481018b90526024810183905260440161029e565b8054604051632769cd1f60e21b815273__$61dd25696c02d5bd2863c8d2c1a2324a87$__91639da7347c916106f0919086908990600401610d3c565b602060405180830381865af415801561070d573d6000803e3d6000fd5b505050506040513d601f19601f820116820180604052508101906107319190610cf8565b61075457898285604051630da5a8fd60e41b815260040161029e93929190610d3c565b60008281526006820160205260408120805460ff191660011790556107798888610ca9565b610783908a610d91565b90506040518061010001604052808b6001600160a01b031681526020018a81526020018a81526020018981526020018881526020018281526020018981526020018781525082600501600084600401600081546107df90610d21565b919050819055815260200190815260200160002060008201518160000160006101000a8154816001600160a01b0302191690836001600160a01b031602179055506020820151816001015560408201518160020155606082015181600301556080820151816004015560a0820151816005015560c0820151816006015560e08201518160070155905050896001600160a01b031682600401548c7fe937d08e98e81d14e69757213935a0ccaf856636fb06fdafc51d7c78cc85e97d866040516108aa91815260200190565b60405180910390a4428610156108c8576108c88b8360040154610259565b50600401549998505050505050505050565b8115806108e8575060005482115b156109095760405163190a97ad60e01b81526004810183905260240161029e565b600082815260016020526040808220600281015491516370a0823160e01b815230600482015290926001600160a01b03909216919082906370a0823190602401602060405180830381865afa158015610966573d6000803e3d6000fd5b505050506040513d601f19601f8201168201806040525081019061098a9190610cdf565b6040516323b872dd60e01b8152336004820152306024820152604481018690529091506001600160a01b038316906323b872dd906064016020604051808303816000875af11580156109e0573d6000803e3d6000fd5b505050506040513d601f19601f82011682018060405250810190610a049190610cf8565b506040516370a0823160e01b81523060048201526000906001600160a01b038416906370a0823190602401602060405180830381865afa158015610a4c573d6000803e3d6000fd5b505050506040513d601f19601f82011682018060405250810190610a709190610cdf565b90506000610a7e8383610ca9565b905080856003016000828254610a949190610db3565b909155505060028501546040518281526001600160a01b039091169088907fb162210da7d23d82c18cff5af46d3562661d26b42a6848fa28d64a6bdc70386a9060200160405180910390a350505050505050565b60008060408385031215610afb57600080fd5b50508035926020909101359150565b600060208284031215610b1c57600080fd5b5035919050565b80356001600160a01b0381168114610b3a57600080fd5b919050565b60008060008060808587031215610b5557600080fd5b8435935060208501359250610b6c60408601610b23565b9396929550929360600135925050565b634e487b7160e01b600052604160045260246000fd5b600080600080600080600060e0888a031215610bad57600080fd5b873596506020610bbe818a01610b23565b965060408901359550606089013594506080890135935060a0890135925060c089013567ffffffffffffffff80821115610bf757600080fd5b818b0191508b601f830112610c0b57600080fd5b813581811115610c1d57610c1d610b7c565b8060051b604051601f19603f83011681018181108582111715610c4257610c42610b7c565b60405291825284820192508381018501918e831115610c6057600080fd5b938501935b82851015610c7e57843584529385019392850192610c65565b80965050505050505092959891949750929550565b634e487b7160e01b600052601160045260246000fd5b600082821015610cbb57610cbb610c93565b500390565b6000816000190483118215151615610cda57610cda610c93565b500290565b600060208284031215610cf157600080fd5b5051919050565b600060208284031215610d0a57600080fd5b81518015158114610d1a57600080fd5b9392505050565b6000600019821415610d3557610d35610c93565b5060010190565b6000606082018583526020858185015260606040850152818551808452608086019150828701935060005b81811015610d8357845183529383019391830191600101610d67565b509098975050505050505050565b600082610dae57634e487b7160e01b600052601260045260246000fd5b500490565b60008219821115610dc657610dc6610c93565b50019056fea2646970667358221220a8823a183ddbc790db32dfe51b603f8da83eb9b9b8042a24627ef7e1c33322e564736f6c634300080c0033","language":"Solidity","natspec":{"author":"metapriest, adrian.wachel, marek.babiarz, radoslaw.gorecki","details":"The contract cannot introspect into the contents of the merkle tree, except when provided a merkle proof","kind":"dev","methods":{"addMerkleRoot(bytes32,bytes32,address,uint256)":{"details":"Anyone may call this function, therefore we must make sure trees cannot affect each otherRoot hash should be built from (destination, totalCoins, startTime, endTime, lockPeriodEndTime)","notice":"Add a new merkle tree to the contract, creating a new merkle-vesting-schedule","params":{"ipfsHash":"the ipfs hash of the entire dataset, used for redundance so that creator can ensure merkleproof are always computable","newRoot":"root hash of merkle tree representing vesting schedules","tokenAddress":"the address of the token contract that is being distributed","tokenBalance":"the amount of tokens user wishes to use to fund the airdrop, note trees can be under/overfunded"}},"depositTokens(uint256,uint256)":{"details":"Anyone may call this function, the only risk here is that the token contract is malicious, rendering the tree maliciousIf the tree is over-funded, excess funds are lost. No clear way to get around this without zk-proofs","notice":"Add funds to an existing merkle-vesting-schedule","params":{"treeIndex":"index into array-like map of merkleTrees","value":"the amount of tokens user wishes to use to fund the airdrop, note trees can be underfunded"}},"initialize(uint256,address,uint256,uint256,uint256,uint256,bytes32[])":{"details":"Anyone may call this function, the only risk here is that the token contract is malicious, rendering the tree maliciousIf the tree is over-funded, excess funds are lost. No clear way to get around this without zk-proofs of global tree statsThe contract has no knowledge of the vesting schedules until this function is called","notice":"Called once per recipient of a vesting schedule to initialize the vesting schedule","params":{"destination":"address that will receive tokens","endTime":"time vesting schedule completes, can be past or future","lockPeriodEndTime":"time that coins become unlocked, can be after endTime","proof":"array of hashes linking leaf hash of (destination, totalCoins, startTime, endTime, lockPeriodEndTime) to root","startTime":"time that vesting schedule starts, can be past or future","totalCoins":"amount of tokens to be released after vesting completes","treeIndex":"index into array-like map of merkleTrees"}},"withdraw(uint256,uint256)":{"details":"Anyone may call this function for anyone else, funds go to destination regardless, it's just a question ofwho provides the proof and pays the gas, msg.sender is not used in this function","notice":"Claim funds as a recipient in the merkle-drop","params":{"trancheIndex":"recipient of tokens","treeIndex":"index into array-like map of merkleTrees, which tree should we apply the proof to?"}}},"notice":"This contract is permissionless and public facing. Any fees must be included in the data of the merkle tree.","title":"A factory pattern for merkle-vesting, that is, a time release schedule for tokens, using merkle proofs to scale","version":1},"opcodes":"PUSH1 0x80 PUSH1 0x40 MSTORE CALLVALUE DUP1 ISZERO PUSH2 0x10 JUMPI PUSH1 0x0 DUP1 REVERT JUMPDEST POP PUSH1 0x4 CALLDATASIZE LT PUSH2 0x88 JUMPI PUSH1 0x0 CALLDATALOAD PUSH1 0xE0 SHR DUP1 PUSH4 0x9E18A054 GT PUSH2 0x5B JUMPI DUP1 PUSH4 0x9E18A054 EQ PUSH2 0x1DE JUMPI DUP1 PUSH4 0xA8EFA9BA EQ PUSH2 0x1F1 JUMPI DUP1 PUSH4 0xD6801C2E EQ PUSH2 0x204 JUMPI DUP1 PUSH4 0xF16AD51E EQ PUSH2 0x246 JUMPI PUSH1 0x0 DUP1 REVERT JUMPDEST DUP1 PUSH4 0xB42ABF2 EQ PUSH2 0x8D JUMPI DUP1 PUSH4 0x390B7C66 EQ PUSH2 0x136 JUMPI DUP1 PUSH4 0x441A3E70 EQ PUSH2 0x14D JUMPI DUP1 PUSH4 0x85D88CB1 EQ PUSH2 0x162 JUMPI JUMPDEST PUSH1 0x0 DUP1 REVERT JUMPDEST PUSH2 0xF2 PUSH2 0x9B CALLDATASIZE PUSH1 0x4 PUSH2 0xAE8 JUMP JUMPDEST PUSH1 0x0 SWAP2 DUP3 MSTORE PUSH1 0x1 PUSH1 0x20 DUP2 DUP2 MSTORE PUSH1 0x40 DUP1 DUP6 KECCAK256 SWAP4 DUP6 MSTORE PUSH1 0x5 SWAP4 DUP5 ADD SWAP1 SWAP2 MSTORE SWAP1 SWAP3 KECCAK256 DUP1 SLOAD SWAP3 DUP2 ADD SLOAD PUSH1 0x2 DUP3 ADD SLOAD PUSH1 0x3 DUP4 ADD SLOAD PUSH1 0x4 DUP5 ADD SLOAD SWAP5 DUP5 ADD SLOAD PUSH1 0x6 SWAP1 SWAP5 ADD SLOAD PUSH1 0x1 PUSH1 0x1 PUSH1 0xA0 SHL SUB SWAP1 SWAP7 AND SWAP7 SWAP3 SWAP6 SWAP2 SWAP5 SWAP1 SWAP4 SWAP1 SWAP3 SWAP1 SWAP2 SWAP1 JUMP JUMPDEST PUSH1 0x40 DUP1 MLOAD PUSH1 0x1 PUSH1 0x1 PUSH1 0xA0 SHL SUB SWAP1 SWAP9 AND DUP9 MSTORE PUSH1 0x20 DUP9 ADD SWAP7 SWAP1 SWAP7 MSTORE SWAP5 DUP7 ADD SWAP4 SWAP1 SWAP4 MSTORE PUSH1 0x60 DUP6 ADD SWAP2 SWAP1 SWAP2 MSTORE PUSH1 0x80 DUP5 ADD MSTORE PUSH1 0xA0 DUP4 ADD MSTORE PUSH1 0xC0 DUP3 ADD MSTORE PUSH1 0xE0 ADD JUMPDEST PUSH1 0x40 MLOAD DUP1 SWAP2 SUB SWAP1 RETURN JUMPDEST PUSH2 0x13F PUSH1 0x0 SLOAD DUP2 JUMP JUMPDEST PUSH1 0x40 MLOAD SWAP1 DUP2 MSTORE PUSH1 0x20 ADD PUSH2 0x12D JUMP JUMPDEST PUSH2 0x160 PUSH2 0x15B CALLDATASIZE PUSH1 0x4 PUSH2 0xAE8 JUMP JUMPDEST PUSH2 0x259 JUMP JUMPDEST STOP JUMPDEST PUSH2 0x1A8 PUSH2 0x170 CALLDATASIZE PUSH1 0x4 PUSH2 0xB0A JUMP JUMPDEST PUSH1 0x1 PUSH1 0x20 DUP2 SWAP1 MSTORE PUSH1 0x0 SWAP2 DUP3 MSTORE PUSH1 0x40 SWAP1 SWAP2 KECCAK256 DUP1 SLOAD SWAP2 DUP2 ADD SLOAD PUSH1 0x2 DUP3 ADD SLOAD PUSH1 0x3 DUP4 ADD SLOAD PUSH1 0x4 SWAP1 SWAP4 ADD SLOAD SWAP2 SWAP3 PUSH1 0x1 PUSH1 0x1 PUSH1 0xA0 SHL SUB SWAP1 SWAP2 AND SWAP2 DUP6 JUMP JUMPDEST PUSH1 0x40 DUP1 MLOAD SWAP6 DUP7 MSTORE PUSH1 0x20 DUP7 ADD SWAP5 SWAP1 SWAP5 MSTORE PUSH1 0x1 PUSH1 0x1 PUSH1 0xA0 SHL SUB SWAP1 SWAP3 AND SWAP3 DUP5 ADD SWAP3 SWAP1 SWAP3 MSTORE PUSH1 0x60 DUP4 ADD SWAP2 SWAP1 SWAP2 MSTORE PUSH1 0x80 DUP3 ADD MSTORE PUSH1 0xA0 ADD PUSH2 0x12D JUMP JUMPDEST PUSH2 0x160 PUSH2 0x1EC CALLDATASIZE PUSH1 0x4 PUSH2 0xB3F JUMP JUMPDEST PUSH2 0x53E JUMP JUMPDEST PUSH2 0x13F PUSH2 0x1FF CALLDATASIZE PUSH1 0x4 PUSH2 0xB92 JUMP JUMPDEST PUSH2 0x5EE JUMP JUMPDEST PUSH2 0x236 PUSH2 0x212 CALLDATASIZE PUSH1 0x4 PUSH2 0xAE8 JUMP JUMPDEST PUSH1 0x0 SWAP2 DUP3 MSTORE PUSH1 0x1 PUSH1 0x20 SWAP1 DUP2 MSTORE PUSH1 0x40 DUP1 DUP5 KECCAK256 SWAP3 DUP5 MSTORE PUSH1 0x6 SWAP1 SWAP3 ADD SWAP1 MSTORE SWAP1 KECCAK256 SLOAD PUSH1 0xFF AND SWAP1 JUMP JUMPDEST PUSH1 0x40 MLOAD SWAP1 ISZERO ISZERO DUP2 MSTORE PUSH1 0x20 ADD PUSH2 0x12D JUMP JUMPDEST PUSH2 0x160 PUSH2 0x254 CALLDATASIZE PUSH1 0x4 PUSH2 0xAE8 JUMP JUMPDEST PUSH2 0x8DA JUMP JUMPDEST PUSH1 0x0 DUP3 DUP2 MSTORE PUSH1 0x1 PUSH1 0x20 DUP2 DUP2 MSTORE PUSH1 0x40 DUP1 DUP5 KECCAK256 DUP6 DUP6 MSTORE PUSH1 0x5 DUP2 ADD SWAP1 SWAP3 MSTORE SWAP1 SWAP3 KECCAK256 SWAP1 DUP2 ADD SLOAD PUSH2 0x2A7 JUMPI PUSH1 0x40 MLOAD PUSH4 0xC0859153 PUSH1 0xE0 SHL DUP2 MSTORE PUSH1 0x4 DUP2 ADD DUP6 SWAP1 MSTORE PUSH1 0x24 DUP2 ADD DUP5 SWAP1 MSTORE PUSH1 0x44 ADD JUMPDEST PUSH1 0x40 MLOAD DUP1 SWAP2 SUB SWAP1 REVERT JUMPDEST DUP1 PUSH1 0x7 ADD SLOAD TIMESTAMP LT ISZERO PUSH2 0x2D9 JUMPI PUSH1 0x40 MLOAD PUSH1 0x1 PUSH3 0x4BE61F PUSH1 0xE1 SHL SUB NOT DUP2 MSTORE PUSH1 0x4 DUP2 ADD DUP6 SWAP1 MSTORE PUSH1 0x24 DUP2 ADD DUP5 SWAP1 MSTORE PUSH1 0x44 ADD PUSH2 0x29E JUMP JUMPDEST PUSH1 0x2 DUP2 ADD SLOAD PUSH2 0x305 JUMPI PUSH1 0x40 MLOAD PUSH4 0x18C0DC67 PUSH1 0xE2 SHL DUP2 MSTORE PUSH1 0x4 DUP2 ADD DUP6 SWAP1 MSTORE PUSH1 0x24 DUP2 ADD DUP5 SWAP1 MSTORE PUSH1 0x44 ADD PUSH2 0x29E JUMP JUMPDEST PUSH1 0x0 DUP2 PUSH1 0x4 ADD SLOAD TIMESTAMP LT PUSH2 0x31D JUMPI POP PUSH1 0x2 DUP2 ADD SLOAD PUSH2 0x33E JUMP JUMPDEST PUSH1 0x5 DUP3 ADD SLOAD PUSH1 0x6 DUP4 ADD SLOAD PUSH2 0x331 SWAP1 TIMESTAMP PUSH2 0xCA9 JUMP JUMPDEST PUSH2 0x33B SWAP2 SWAP1 PUSH2 0xCC0 JUMP JUMPDEST SWAP1 POP JUMPDEST TIMESTAMP PUSH1 0x6 DUP4 ADD SSTORE PUSH1 0x2 DUP4 ADD SLOAD PUSH1 0x40 MLOAD PUSH4 0x70A08231 PUSH1 0xE0 SHL DUP2 MSTORE ADDRESS PUSH1 0x4 DUP3 ADD MSTORE PUSH1 0x1 PUSH1 0x1 PUSH1 0xA0 SHL SUB SWAP1 SWAP2 AND SWAP1 PUSH1 0x0 SWAP1 DUP3 SWAP1 PUSH4 0x70A08231 SWAP1 PUSH1 0x24 ADD PUSH1 0x20 PUSH1 0x40 MLOAD DUP1 DUP4 SUB DUP2 DUP7 GAS STATICCALL ISZERO DUP1 ISZERO PUSH2 0x393 JUMPI RETURNDATASIZE PUSH1 0x0 DUP1 RETURNDATACOPY RETURNDATASIZE PUSH1 0x0 REVERT JUMPDEST POP POP POP POP PUSH1 0x40 MLOAD RETURNDATASIZE PUSH1 0x1F NOT PUSH1 0x1F DUP3 ADD AND DUP3 ADD DUP1 PUSH1 0x40 MSTORE POP DUP2 ADD SWAP1 PUSH2 0x3B7 SWAP2 SWAP1 PUSH2 0xCDF JUMP JUMPDEST DUP5 SLOAD PUSH1 0x40 MLOAD PUSH4 0xA9059CBB PUSH1 0xE0 SHL DUP2 MSTORE PUSH1 0x1 PUSH1 0x1 PUSH1 0xA0 SHL SUB SWAP2 DUP3 AND PUSH1 0x4 DUP3 ADD MSTORE PUSH1 0x24 DUP2 ADD DUP7 SWAP1 MSTORE SWAP2 SWAP3 POP DUP4 AND SWAP1 PUSH4 0xA9059CBB SWAP1 PUSH1 0x44 ADD PUSH1 0x20 PUSH1 0x40 MLOAD DUP1 DUP4 SUB DUP2 PUSH1 0x0 DUP8 GAS CALL ISZERO DUP1 ISZERO PUSH2 0x40B JUMPI RETURNDATASIZE PUSH1 0x0 DUP1 RETURNDATACOPY RETURNDATASIZE PUSH1 0x0 REVERT JUMPDEST POP POP POP POP PUSH1 0x40 MLOAD RETURNDATASIZE PUSH1 0x1F NOT PUSH1 0x1F DUP3 ADD AND DUP3 ADD DUP1 PUSH1 0x40 MSTORE POP DUP2 ADD SWAP1 PUSH2 0x42F SWAP2 SWAP1 PUSH2 0xCF8 JUMP JUMPDEST POP PUSH1 0x40 MLOAD PUSH4 0x70A08231 PUSH1 0xE0 SHL DUP2 MSTORE ADDRESS PUSH1 0x4 DUP3 ADD MSTORE PUSH1 0x0 SWAP1 PUSH1 0x1 PUSH1 0x1 PUSH1 0xA0 SHL SUB DUP5 AND SWAP1 PUSH4 0x70A08231 SWAP1 PUSH1 0x24 ADD PUSH1 0x20 PUSH1 0x40 MLOAD DUP1 DUP4 SUB DUP2 DUP7 GAS STATICCALL ISZERO DUP1 ISZERO PUSH2 0x477 JUMPI RETURNDATASIZE PUSH1 0x0 DUP1 RETURNDATACOPY RETURNDATASIZE PUSH1 0x0 REVERT JUMPDEST POP POP POP POP PUSH1 0x40 MLOAD RETURNDATASIZE PUSH1 0x1F NOT PUSH1 0x1F DUP3 ADD AND DUP3 ADD DUP1 PUSH1 0x40 MSTORE POP DUP2 ADD SWAP1 PUSH2 0x49B SWAP2 SWAP1 PUSH2 0xCDF JUMP JUMPDEST SWAP1 POP PUSH1 0x0 PUSH2 0x4A9 DUP3 DUP5 PUSH2 0xCA9 JUMP JUMPDEST SWAP1 POP DUP1 DUP7 PUSH1 0x2 ADD PUSH1 0x0 DUP3 DUP3 SLOAD PUSH2 0x4BF SWAP2 SWAP1 PUSH2 0xCA9 JUMP JUMPDEST SWAP3 POP POP DUP2 SWAP1 SSTORE POP DUP1 DUP8 PUSH1 0x3 ADD PUSH1 0x0 DUP3 DUP3 SLOAD PUSH2 0x4DA SWAP2 SWAP1 PUSH2 0xCA9 JUMP JUMPDEST SWAP1 SWAP2 SSTORE POP POP DUP6 SLOAD PUSH1 0x2 DUP8 ADD SLOAD PUSH1 0x40 MLOAD PUSH1 0x1 PUSH1 0x1 PUSH1 0xA0 SHL SUB SWAP1 SWAP3 AND SWAP2 DUP12 SWAP2 PUSH32 0x1680E4CFE90468085407EF2B599DBE94B0AA30FF9F180F0E41D22EB71C872872 SWAP2 PUSH2 0x52B SWAP2 DUP7 DUP3 MSTORE PUSH1 0x20 DUP3 ADD MSTORE PUSH1 0x40 ADD SWAP1 JUMP JUMPDEST PUSH1 0x40 MLOAD DUP1 SWAP2 SUB SWAP1 LOG3 POP POP POP POP POP POP POP POP POP JUMP JUMPDEST PUSH1 0x0 PUSH1 0x1 PUSH1 0x0 DUP1 PUSH1 0x0 DUP2 SLOAD PUSH2 0x552 SWAP1 PUSH2 0xD21 JUMP JUMPDEST SWAP2 DUP3 SWAP1 SSTORE POP DUP2 MSTORE PUSH1 0x20 DUP2 ADD SWAP2 SWAP1 SWAP2 MSTORE PUSH1 0x40 ADD PUSH1 0x0 SWAP1 DUP2 KECCAK256 DUP7 DUP2 SSTORE PUSH1 0x1 DUP2 ADD DUP7 SWAP1 SSTORE PUSH1 0x2 DUP2 ADD DUP1 SLOAD PUSH1 0x1 PUSH1 0x1 PUSH1 0xA0 SHL SUB NOT AND PUSH1 0x1 PUSH1 0x1 PUSH1 0xA0 SHL SUB DUP8 AND OR SWAP1 SSTORE SWAP1 SLOAD SWAP1 SWAP2 POP PUSH2 0x59F SWAP1 DUP4 PUSH2 0x8DA JUMP JUMPDEST PUSH1 0x0 SLOAD PUSH1 0x40 DUP1 MLOAD DUP8 DUP2 MSTORE PUSH1 0x20 DUP2 ADD DUP8 SWAP1 MSTORE PUSH1 0x1 PUSH1 0x1 PUSH1 0xA0 SHL SUB DUP7 AND SWAP3 SWAP2 PUSH32 0xB72EA3ED46A7513251023946D5D35916F3E1D76D748BB144E641D1162DEE222F SWAP2 ADD PUSH1 0x40 MLOAD DUP1 SWAP2 SUB SWAP1 LOG3 POP POP POP POP POP JUMP JUMPDEST PUSH1 0x0 DUP8 ISZERO DUP1 PUSH2 0x5FE JUMPI POP PUSH1 0x0 SLOAD DUP9 GT JUMPDEST ISZERO PUSH2 0x61F JUMPI PUSH1 0x40 MLOAD PUSH4 0x190A97AD PUSH1 0xE0 SHL DUP2 MSTORE PUSH1 0x4 DUP2 ADD DUP10 SWAP1 MSTORE PUSH1 0x24 ADD PUSH2 0x29E JUMP JUMPDEST PUSH1 0x40 DUP1 MLOAD PUSH1 0x1 PUSH1 0x1 PUSH1 0xA0 SHL SUB DUP10 AND PUSH1 0x20 DUP3 ADD MSTORE SWAP1 DUP2 ADD DUP8 SWAP1 MSTORE PUSH1 0x60 DUP2 ADD DUP7 SWAP1 MSTORE PUSH1 0x80 DUP2 ADD DUP6 SWAP1 MSTORE PUSH1 0xA0 DUP2 ADD DUP5 SWAP1 MSTORE PUSH1 0x0 SWAP1 PUSH1 0xC0 ADD PUSH1 0x40 DUP1 MLOAD PUSH1 0x1F NOT DUP2 DUP5 SUB ADD DUP2 MSTORE SWAP2 DUP2 MSTORE DUP2 MLOAD PUSH1 0x20 SWAP3 DUP4 ADD KECCAK256 PUSH1 0x0 DUP13 DUP2 MSTORE PUSH1 0x1 DUP5 MSTORE DUP3 DUP2 KECCAK256 DUP3 DUP3 MSTORE PUSH1 0x6 DUP2 ADD SWAP1 SWAP5 MSTORE SWAP2 SWAP1 SWAP2 KECCAK256 SLOAD SWAP1 SWAP3 POP PUSH1 0xFF AND ISZERO PUSH2 0x6B4 JUMPI PUSH1 0x40 MLOAD PUSH4 0xA0B07031 PUSH1 0xE0 SHL DUP2 MSTORE PUSH1 0x4 DUP2 ADD DUP12 SWAP1 MSTORE PUSH1 0x24 DUP2 ADD DUP4 SWAP1 MSTORE PUSH1 0x44 ADD PUSH2 0x29E JUMP JUMPDEST DUP1 SLOAD PUSH1 0x40 MLOAD PUSH4 0x2769CD1F PUSH1 0xE2 SHL DUP2 MSTORE PUSH20 0x0 SWAP2 PUSH4 0x9DA7347C SWAP2 PUSH2 0x6F0 SWAP2 SWAP1 DUP7 SWAP1 DUP10 SWAP1 PUSH1 0x4 ADD PUSH2 0xD3C JUMP JUMPDEST PUSH1 0x20 PUSH1 0x40 MLOAD DUP1 DUP4 SUB DUP2 DUP7 GAS DELEGATECALL ISZERO DUP1 ISZERO PUSH2 0x70D JUMPI RETURNDATASIZE PUSH1 0x0 DUP1 RETURNDATACOPY RETURNDATASIZE PUSH1 0x0 REVERT JUMPDEST POP POP POP POP PUSH1 0x40 MLOAD RETURNDATASIZE PUSH1 0x1F NOT PUSH1 0x1F DUP3 ADD AND DUP3 ADD DUP1 PUSH1 0x40 MSTORE POP DUP2 ADD SWAP1 PUSH2 0x731 SWAP2 SWAP1 PUSH2 0xCF8 JUMP JUMPDEST PUSH2 0x754 JUMPI DUP10 DUP3 DUP6 PUSH1 0x40 MLOAD PUSH4 0xDA5A8FD PUSH1 0xE4 SHL DUP2 MSTORE PUSH1 0x4 ADD PUSH2 0x29E SWAP4 SWAP3 SWAP2 SWAP1 PUSH2 0xD3C JUMP JUMPDEST PUSH1 0x0 DUP3 DUP2 MSTORE PUSH1 0x6 DUP3 ADD PUSH1 0x20 MSTORE PUSH1 0x40 DUP2 KECCAK256 DUP1 SLOAD PUSH1 0xFF NOT AND PUSH1 0x1 OR SWAP1 SSTORE PUSH2 0x779 DUP9 DUP9 PUSH2 0xCA9 JUMP JUMPDEST PUSH2 0x783 SWAP1 DUP11 PUSH2 0xD91 JUMP JUMPDEST SWAP1 POP PUSH1 0x40 MLOAD DUP1 PUSH2 0x100 ADD PUSH1 0x40 MSTORE DUP1 DUP12 PUSH1 0x1 PUSH1 0x1 PUSH1 0xA0 SHL SUB AND DUP2 MSTORE PUSH1 0x20 ADD DUP11 DUP2 MSTORE PUSH1 0x20 ADD DUP11 DUP2 MSTORE PUSH1 0x20 ADD DUP10 DUP2 MSTORE PUSH1 0x20 ADD DUP9 DUP2 MSTORE PUSH1 0x20 ADD DUP3 DUP2 MSTORE PUSH1 0x20 ADD DUP10 DUP2 MSTORE PUSH1 0x20 ADD DUP8 DUP2 MSTORE POP DUP3 PUSH1 0x5 ADD PUSH1 0x0 DUP5 PUSH1 0x4 ADD PUSH1 0x0 DUP2 SLOAD PUSH2 0x7DF SWAP1 PUSH2 0xD21 JUMP JUMPDEST SWAP2 SWAP1 POP DUP2 SWAP1 SSTORE DUP2 MSTORE PUSH1 0x20 ADD SWAP1 DUP2 MSTORE PUSH1 0x20 ADD PUSH1 0x0 KECCAK256 PUSH1 0x0 DUP3 ADD MLOAD DUP2 PUSH1 0x0 ADD PUSH1 0x0 PUSH2 0x100 EXP DUP2 SLOAD DUP2 PUSH1 0x1 PUSH1 0x1 PUSH1 0xA0 SHL SUB MUL NOT AND SWAP1 DUP4 PUSH1 0x1 PUSH1 0x1 PUSH1 0xA0 SHL SUB AND MUL OR SWAP1 SSTORE POP PUSH1 0x20 DUP3 ADD MLOAD DUP2 PUSH1 0x1 ADD SSTORE PUSH1 0x40 DUP3 ADD MLOAD DUP2 PUSH1 0x2 ADD SSTORE PUSH1 0x60 DUP3 ADD MLOAD DUP2 PUSH1 0x3 ADD SSTORE PUSH1 0x80 DUP3 ADD MLOAD DUP2 PUSH1 0x4 ADD SSTORE PUSH1 0xA0 DUP3 ADD MLOAD DUP2 PUSH1 0x5 ADD SSTORE PUSH1 0xC0 DUP3 ADD MLOAD DUP2 PUSH1 0x6 ADD SSTORE PUSH1 0xE0 DUP3 ADD MLOAD DUP2 PUSH1 0x7 ADD SSTORE SWAP1 POP POP DUP10 PUSH1 0x1 PUSH1 0x1 PUSH1 0xA0 SHL SUB AND DUP3 PUSH1 0x4 ADD SLOAD DUP13 PUSH32 0xE937D08E98E81D14E69757213935A0CCAF856636FB06FDAFC51D7C78CC85E97D DUP7 PUSH1 0x40 MLOAD PUSH2 0x8AA SWAP2 DUP2 MSTORE PUSH1 0x20 ADD SWAP1 JUMP JUMPDEST PUSH1 0x40 MLOAD DUP1 SWAP2 SUB SWAP1 LOG4 TIMESTAMP DUP7 LT ISZERO PUSH2 0x8C8 JUMPI PUSH2 0x8C8 DUP12 DUP4 PUSH1 0x4 ADD SLOAD PUSH2 0x259 JUMP JUMPDEST POP PUSH1 0x4 ADD SLOAD SWAP10 SWAP9 POP POP POP POP POP POP POP POP POP JUMP JUMPDEST DUP2 ISZERO DUP1 PUSH2 0x8E8 JUMPI POP PUSH1 0x0 SLOAD DUP3 GT JUMPDEST ISZERO PUSH2 0x909 JUMPI PUSH1 0x40 MLOAD PUSH4 0x190A97AD PUSH1 0xE0 SHL DUP2 MSTORE PUSH1 0x4 DUP2 ADD DUP4 SWAP1 MSTORE PUSH1 0x24 ADD PUSH2 0x29E JUMP JUMPDEST PUSH1 0x0 DUP3 DUP2 MSTORE PUSH1 0x1 PUSH1 0x20 MSTORE PUSH1 0x40 DUP1 DUP3 KECCAK256 PUSH1 0x2 DUP2 ADD SLOAD SWAP2 MLOAD PUSH4 0x70A08231 PUSH1 0xE0 SHL DUP2 MSTORE ADDRESS PUSH1 0x4 DUP3 ADD MSTORE SWAP1 SWAP3 PUSH1 0x1 PUSH1 0x1 PUSH1 0xA0 SHL SUB SWAP1 SWAP3 AND SWAP2 SWAP1 DUP3 SWAP1 PUSH4 0x70A08231 SWAP1 PUSH1 0x24 ADD PUSH1 0x20 PUSH1 0x40 MLOAD DUP1 DUP4 SUB DUP2 DUP7 GAS STATICCALL ISZERO DUP1 ISZERO PUSH2 0x966 JUMPI RETURNDATASIZE PUSH1 0x0 DUP1 RETURNDATACOPY RETURNDATASIZE PUSH1 0x0 REVERT JUMPDEST POP POP POP POP PUSH1 0x40 MLOAD RETURNDATASIZE PUSH1 0x1F NOT PUSH1 0x1F DUP3 ADD AND DUP3 ADD DUP1 PUSH1 0x40 MSTORE POP DUP2 ADD SWAP1 PUSH2 0x98A SWAP2 SWAP1 PUSH2 0xCDF JUMP JUMPDEST PUSH1 0x40 MLOAD PUSH4 0x23B872DD PUSH1 0xE0 SHL DUP2 MSTORE CALLER PUSH1 0x4 DUP3 ADD MSTORE ADDRESS PUSH1 0x24 DUP3 ADD MSTORE PUSH1 0x44 DUP2 ADD DUP7 SWAP1 MSTORE SWAP1 SWAP2 POP PUSH1 0x1 PUSH1 0x1 PUSH1 0xA0 SHL SUB DUP4 AND SWAP1 PUSH4 0x23B872DD SWAP1 PUSH1 0x64 ADD PUSH1 0x20 PUSH1 0x40 MLOAD DUP1 DUP4 SUB DUP2 PUSH1 0x0 DUP8 GAS CALL ISZERO DUP1 ISZERO PUSH2 0x9E0 JUMPI RETURNDATASIZE PUSH1 0x0 DUP1 RETURNDATACOPY RETURNDATASIZE PUSH1 0x0 REVERT JUMPDEST POP POP POP POP PUSH1 0x40 MLOAD RETURNDATASIZE PUSH1 0x1F NOT PUSH1 0x1F DUP3 ADD AND DUP3 ADD DUP1 PUSH1 0x40 MSTORE POP DUP2 ADD SWAP1 PUSH2 0xA04 SWAP2 SWAP1 PUSH2 0xCF8 JUMP JUMPDEST POP PUSH1 0x40 MLOAD PUSH4 0x70A08231 PUSH1 0xE0 SHL DUP2 MSTORE ADDRESS PUSH1 0x4 DUP3 ADD MSTORE PUSH1 0x0 SWAP1 PUSH1 0x1 PUSH1 0x1 PUSH1 0xA0 SHL SUB DUP5 AND SWAP1 PUSH4 0x70A08231 SWAP1 PUSH1 0x24 ADD PUSH1 0x20 PUSH1 0x40 MLOAD DUP1 DUP4 SUB DUP2 DUP7 GAS STATICCALL ISZERO DUP1 ISZERO PUSH2 0xA4C JUMPI RETURNDATASIZE PUSH1 0x0 DUP1 RETURNDATACOPY RETURNDATASIZE PUSH1 0x0 REVERT JUMPDEST POP POP POP POP PUSH1 0x40 MLOAD RETURNDATASIZE PUSH1 0x1F NOT PUSH1 0x1F DUP3 ADD AND DUP3 ADD DUP1 PUSH1 0x40 MSTORE POP DUP2 ADD SWAP1 PUSH2 0xA70 SWAP2 SWAP1 PUSH2 0xCDF JUMP JUMPDEST SWAP1 POP PUSH1 0x0 PUSH2 0xA7E DUP4 DUP4 PUSH2 0xCA9 JUMP JUMPDEST SWAP1 POP DUP1 DUP6 PUSH1 0x3 ADD PUSH1 0x0 DUP3 DUP3 SLOAD PUSH2 0xA94 SWAP2 SWAP1 PUSH2 0xDB3 JUMP JUMPDEST SWAP1 SWAP2 SSTORE POP POP PUSH1 0x2 DUP6 ADD SLOAD PUSH1 0x40 MLOAD DUP3 DUP2 MSTORE PUSH1 0x1 PUSH1 0x1 PUSH1 0xA0 SHL SUB SWAP1 SWAP2 AND SWAP1 DUP9 SWAP1 PUSH32 0xB162210DA7D23D82C18CFF5AF46D3562661D26B42A6848FA28D64A6BDC70386A SWAP1 PUSH1 0x20 ADD PUSH1 0x40 MLOAD DUP1 SWAP2 SUB SWAP1 LOG3 POP POP POP POP POP POP POP JUMP JUMPDEST PUSH1 0x0 DUP1 PUSH1 0x40 DUP4 DUP6 SUB SLT ISZERO PUSH2 0xAFB JUMPI PUSH1 0x0 DUP1 REVERT JUMPDEST POP POP DUP1 CALLDATALOAD SWAP3 PUSH1 0x20 SWAP1 SWAP2 ADD CALLDATALOAD SWAP2 POP JUMP JUMPDEST PUSH1 0x0 PUSH1 0x20 DUP3 DUP5 SUB SLT ISZERO PUSH2 0xB1C JUMPI PUSH1 0x0 DUP1 REVERT JUMPDEST POP CALLDATALOAD SWAP2 SWAP1 POP JUMP JUMPDEST DUP1 CALLDATALOAD PUSH1 0x1 PUSH1 0x1 PUSH1 0xA0 SHL SUB DUP2 AND DUP2 EQ PUSH2 0xB3A JUMPI PUSH1 0x0 DUP1 REVERT JUMPDEST SWAP2 SWAP1 POP JUMP JUMPDEST PUSH1 0x0 DUP1 PUSH1 0x0 DUP1 PUSH1 0x80 DUP6 DUP8 SUB SLT ISZERO PUSH2 0xB55 JUMPI PUSH1 0x0 DUP1 REVERT JUMPDEST DUP5 CALLDATALOAD SWAP4 POP PUSH1 0x20 DUP6 ADD CALLDATALOAD SWAP3 POP PUSH2 0xB6C PUSH1 0x40 DUP7 ADD PUSH2 0xB23 JUMP JUMPDEST SWAP4 SWAP7 SWAP3 SWAP6 POP SWAP3 SWAP4 PUSH1 0x60 ADD CALLDATALOAD SWAP3 POP POP JUMP JUMPDEST PUSH4 0x4E487B71 PUSH1 0xE0 SHL PUSH1 0x0 MSTORE PUSH1 0x41 PUSH1 0x4 MSTORE PUSH1 0x24 PUSH1 0x0 REVERT JUMPDEST PUSH1 0x0 DUP1 PUSH1 0x0 DUP1 PUSH1 0x0 DUP1 PUSH1 0x0 PUSH1 0xE0 DUP9 DUP11 SUB SLT ISZERO PUSH2 0xBAD JUMPI PUSH1 0x0 DUP1 REVERT JUMPDEST DUP8 CALLDATALOAD SWAP7 POP PUSH1 0x20 PUSH2 0xBBE DUP2 DUP11 ADD PUSH2 0xB23 JUMP JUMPDEST SWAP7 POP PUSH1 0x40 DUP10 ADD CALLDATALOAD SWAP6 POP PUSH1 0x60 DUP10 ADD CALLDATALOAD SWAP5 POP PUSH1 0x80 DUP10 ADD CALLDATALOAD SWAP4 POP PUSH1 0xA0 DUP10 ADD CALLDATALOAD SWAP3 POP PUSH1 0xC0 DUP10 ADD CALLDATALOAD PUSH8 0xFFFFFFFFFFFFFFFF DUP1 DUP3 GT ISZERO PUSH2 0xBF7 JUMPI PUSH1 0x0 DUP1 REVERT JUMPDEST DUP2 DUP12 ADD SWAP2 POP DUP12 PUSH1 0x1F DUP4 ADD SLT PUSH2 0xC0B JUMPI PUSH1 0x0 DUP1 REVERT JUMPDEST DUP2 CALLDATALOAD DUP2 DUP2 GT ISZERO PUSH2 0xC1D JUMPI PUSH2 0xC1D PUSH2 0xB7C JUMP JUMPDEST DUP1 PUSH1 0x5 SHL PUSH1 0x40 MLOAD PUSH1 0x1F NOT PUSH1 0x3F DUP4 ADD AND DUP2 ADD DUP2 DUP2 LT DUP6 DUP3 GT OR ISZERO PUSH2 0xC42 JUMPI PUSH2 0xC42 PUSH2 0xB7C JUMP JUMPDEST PUSH1 0x40 MSTORE SWAP2 DUP3 MSTORE DUP5 DUP3 ADD SWAP3 POP DUP4 DUP2 ADD DUP6 ADD SWAP2 DUP15 DUP4 GT ISZERO PUSH2 0xC60 JUMPI PUSH1 0x0 DUP1 REVERT JUMPDEST SWAP4 DUP6 ADD SWAP4 JUMPDEST DUP3 DUP6 LT ISZERO PUSH2 0xC7E JUMPI DUP5 CALLDATALOAD DUP5 MSTORE SWAP4 DUP6 ADD SWAP4 SWAP3 DUP6 ADD SWAP3 PUSH2 0xC65 JUMP JUMPDEST DUP1 SWAP7 POP POP POP POP POP POP POP SWAP3 SWAP6 SWAP9 SWAP2 SWAP5 SWAP8 POP SWAP3 SWAP6 POP JUMP JUMPDEST PUSH4 0x4E487B71 PUSH1 0xE0 SHL PUSH1 0x0 MSTORE PUSH1 0x11 PUSH1 0x4 MSTORE PUSH1 0x24 PUSH1 0x0 REVERT JUMPDEST PUSH1 0x0 DUP3 DUP3 LT ISZERO PUSH2 0xCBB JUMPI PUSH2 0xCBB PUSH2 0xC93 JUMP JUMPDEST POP SUB SWAP1 JUMP JUMPDEST PUSH1 0x0 DUP2 PUSH1 0x0 NOT DIV DUP4 GT DUP3 ISZERO ISZERO AND ISZERO PUSH2 0xCDA JUMPI PUSH2 0xCDA PUSH2 0xC93 JUMP JUMPDEST POP MUL SWAP1 JUMP JUMPDEST PUSH1 0x0 PUSH1 0x20 DUP3 DUP5 SUB SLT ISZERO PUSH2 0xCF1 JUMPI PUSH1 0x0 DUP1 REVERT JUMPDEST POP MLOAD SWAP2 SWAP1 POP JUMP JUMPDEST PUSH1 0x0 PUSH1 0x20 DUP3 DUP5 SUB SLT ISZERO PUSH2 0xD0A JUMPI PUSH1 0x0 DUP1 REVERT JUMPDEST DUP2 MLOAD DUP1 ISZERO ISZERO DUP2 EQ PUSH2 0xD1A JUMPI PUSH1 0x0 DUP1 REVERT JUMPDEST SWAP4 SWAP3 POP POP POP JUMP JUMPDEST PUSH1 0x0 PUSH1 0x0 NOT DUP3 EQ ISZERO PUSH2 0xD35 JUMPI PUSH2 0xD35 PUSH2 0xC93 JUMP JUMPDEST POP PUSH1 0x1 ADD SWAP1 JUMP JUMPDEST PUSH1 0x0 PUSH1 0x60 DUP3 ADD DUP6 DUP4 MSTORE PUSH1 0x20 DUP6 DUP2 DUP6 ADD MSTORE PUSH1 0x60 PUSH1 0x40 DUP6 ADD MSTORE DUP2 DUP6 MLOAD DUP1 DUP5 MSTORE PUSH1 0x80 DUP7 ADD SWAP2 POP DUP3 DUP8 ADD SWAP4 POP PUSH1 0x0 JUMPDEST DUP2 DUP2 LT ISZERO PUSH2 0xD83 JUMPI DUP5 MLOAD DUP4 MSTORE SWAP4 DUP4 ADD SWAP4 SWAP2 DUP4 ADD SWAP2 PUSH1 0x1 ADD PUSH2 0xD67 JUMP JUMPDEST POP SWAP1 SWAP9 SWAP8 POP POP POP POP POP POP POP POP JUMP JUMPDEST PUSH1 0x0 DUP3 PUSH2 0xDAE JUMPI PUSH4 0x4E487B71 PUSH1 0xE0 SHL PUSH1 0x0 MSTORE PUSH1 0x12 PUSH1 0x4 MSTORE PUSH1 0x24 PUSH1 0x0 REVERT JUMPDEST POP DIV SWAP1 JUMP JUMPDEST PUSH1 0x0 DUP3 NOT DUP3 GT ISZERO PUSH2 0xDC6 JUMPI PUSH2 0xDC6 PUSH2 0xC93 JUMP JUMPDEST POP ADD SWAP1 JUMP INVALID LOG2 PUSH5 0x6970667358 0x22 SLT KECCAK256 0xA8 DUP3 GASPRICE XOR RETURNDATASIZE 0xDB 0xC7 SWAP1 0xDB ORIGIN 0xDF 0xE5 SHL PUSH1 0x3F DUP14 0xA8 RETURNDATACOPY 0xB9 0xB9 0xB8 DIV 0x2A 0x24 PUSH3 0x7EF7E1 0xC3 CALLER 0x22 0xE5 PUSH5 0x736F6C6343 STOP ADDMOD 0xC STOP CALLER ","sha1":"bd92bc4bd49549a354c1b7138a170a42b50dff9d","source":"// SPDX-License-Identifier: GPL-3.0-only\n\npragma solidity 0.8.12;\n\nimport \"../interfaces/IERC20.sol\";\nimport \"./MerkleLib.sol\";\n\n/// @title A factory pattern for merkle-vesting, that is, a time release schedule for tokens, using merkle proofs to scale\n/// @author metapriest, adrian.wachel, marek.babiarz, radoslaw.gorecki\n/// @notice This contract is permissionless and public facing. Any fees must be included in the data of the merkle tree.\n/// @dev The contract cannot introspect into the contents of the merkle tree, except when provided a merkle proof\ncontract MerkleVesting {\n    using MerkleLib for bytes32;\n\n    // the number of vesting schedules in this contract\n    uint public numTrees;\n    \n    // this represents a single vesting schedule for a specific address\n    struct Tranche {\n        address recipient;\n        uint totalCoins;  // total number of coins released to an address after vesting is completed\n        uint currentCoins; // how many coins are left unclaimed by this address, vested or unvested\n        uint startTime; // when the vesting schedule is set to start, possibly in the past\n        uint endTime;  // when the vesting schedule will have released all coins\n        uint coinsPerSecond; // an intermediate value cached to reduce gas costs, how many coins released every second\n        uint lastWithdrawalTime; // the last time a withdrawal occurred, used to compute unvested coins\n        uint lockPeriodEndTime; // the first time at which coins may be withdrawn\n    }\n\n    // this represents a set of vesting schedules all in the same token\n    struct MerkleTree {\n        bytes32 rootHash;  // merkleroot of tree whose leaves are (address,uint,uint,uint,uint) representing vesting schedules\n        bytes32 ipfsHash; // ipfs hash of entire dataset, used to reconstruct merkle proofs if our servers go down\n        address tokenAddress; // token that the vesting schedules will be denominated in\n        uint tokenBalance; // current amount of tokens deposited to this tree, used to make sure trees don't share tokens\n        uint numTranchesInitialized;\n        mapping (uint => Tranche) tranches;\n        mapping (bytes32 => bool) initialized;\n    }\n\n    // array-like sequential map for all the vesting schedules\n    mapping (uint => MerkleTree) public merkleTrees;\n\n\n    // every time there's a withdrawal\n    event WithdrawalOccurred(uint indexed treeIndex, address indexed destination, uint numTokens, uint tokensLeft);\n\n    // every time a tree is added\n    event MerkleRootAdded(uint indexed treeIndex, address indexed tokenAddress, bytes32 newRoot, bytes32 ipfsHash);\n\n    // every time a tree is topped up\n    event TokensDeposited(uint indexed treeIndex, address indexed tokenAddress, uint amount);\n\n    event TrancheInitialized(uint indexed treeIndex, uint indexed trancheIndex, address indexed recipient, bytes32 leaf);\n\n    error BadTreeIndex(uint treeIndex);\n    error AlreadyInitialized(uint treeIndex, bytes32 leaf);\n    error BadProof(uint treeIndex, bytes32 leaf, bytes32[] proof);\n    error UninitializedAccount(uint treeIndex, uint trancheIndex);\n    error AccountStillLocked(uint treeIndex, uint trancheIndex);\n    error AccountEmpty(uint treeIndex, uint trancheIndex);\n\n    /// @notice Add a new merkle tree to the contract, creating a new merkle-vesting-schedule\n    /// @dev Anyone may call this function, therefore we must make sure trees cannot affect each other\n    /// @dev Root hash should be built from (destination, totalCoins, startTime, endTime, lockPeriodEndTime)\n    /// @param newRoot root hash of merkle tree representing vesting schedules\n    /// @param ipfsHash the ipfs hash of the entire dataset, used for redundance so that creator can ensure merkleproof are always computable\n    /// @param tokenAddress the address of the token contract that is being distributed\n    /// @param tokenBalance the amount of tokens user wishes to use to fund the airdrop, note trees can be under/overfunded\n    function addMerkleRoot(bytes32 newRoot, bytes32 ipfsHash, address tokenAddress, uint tokenBalance) public {\n        // prefix operator ++ increments then evaluates\n        MerkleTree storage tree = merkleTrees[++numTrees];\n        tree.rootHash = newRoot;\n        tree.ipfsHash = ipfsHash;\n        tree.tokenAddress = tokenAddress;\n\n        // fund the tree now\n        depositTokens(numTrees, tokenBalance);\n        emit MerkleRootAdded(numTrees, tokenAddress, newRoot, ipfsHash);\n    }\n\n    /// @notice Add funds to an existing merkle-vesting-schedule\n    /// @dev Anyone may call this function, the only risk here is that the token contract is malicious, rendering the tree malicious\n    /// @dev If the tree is over-funded, excess funds are lost. No clear way to get around this without zk-proofs\n    /// @param treeIndex index into array-like map of merkleTrees\n    /// @param value the amount of tokens user wishes to use to fund the airdrop, note trees can be underfunded\n    function depositTokens(uint treeIndex, uint value) public {\n        if (treeIndex == 0 || treeIndex > numTrees) {\n            revert BadTreeIndex(treeIndex);\n        }\n\n        // storage since we are editing\n        MerkleTree storage merkleTree = merkleTrees[treeIndex];\n\n        IERC20 token = IERC20(merkleTree.tokenAddress);\n        uint balanceBefore = token.balanceOf(address(this));\n\n        // transfer tokens, if this is a malicious token, then this whole tree is malicious\n        // but it does not effect the other trees\n        // NOTE: we don't check for success here because some tokens don't return a bool\n        // Instead we check the balance before and after, which takes care of the fee-on-transfer tokens as well\n        token.transferFrom(msg.sender, address(this), value);\n\n        uint balanceAfter = token.balanceOf(address(this));\n        // diff may be different from value here, it may even be zero if the transfer failed silently\n        uint diff = balanceAfter - balanceBefore;\n\n        // bookkeeping to make sure trees don't share tokens\n        merkleTree.tokenBalance += diff;\n        emit TokensDeposited(treeIndex, merkleTree.tokenAddress, diff);\n    }\n\n    /// @notice Called once per recipient of a vesting schedule to initialize the vesting schedule\n    /// @dev Anyone may call this function, the only risk here is that the token contract is malicious, rendering the tree malicious\n    /// @dev If the tree is over-funded, excess funds are lost. No clear way to get around this without zk-proofs of global tree stats\n    /// @dev The contract has no knowledge of the vesting schedules until this function is called\n    /// @param treeIndex index into array-like map of merkleTrees\n    /// @param destination address that will receive tokens\n    /// @param totalCoins amount of tokens to be released after vesting completes\n    /// @param startTime time that vesting schedule starts, can be past or future\n    /// @param endTime time vesting schedule completes, can be past or future\n    /// @param lockPeriodEndTime time that coins become unlocked, can be after endTime\n    /// @param proof array of hashes linking leaf hash of (destination, totalCoins, startTime, endTime, lockPeriodEndTime) to root\n    function initialize(\n        uint treeIndex,\n        address destination,\n        uint totalCoins,\n        uint startTime,\n        uint endTime,\n        uint lockPeriodEndTime,\n        bytes32[] memory proof) external returns (uint) {\n        if (treeIndex == 0 || treeIndex > numTrees) {\n            revert BadTreeIndex(treeIndex);\n        }\n\n        // leaf hash is digest of vesting schedule parameters and destination\n        // NOTE: use abi.encode, not abi.encodePacked to avoid possible (but unlikely) collision\n        bytes32 leaf = keccak256(abi.encode(destination, totalCoins, startTime, endTime, lockPeriodEndTime));\n\n        // storage because it's cheaper, \"memory\" copies from storage to memory\n        MerkleTree storage tree = merkleTrees[treeIndex];\n\n        // must not initialize multiple times\n        if (tree.initialized[leaf]) {\n            revert AlreadyInitialized(treeIndex, leaf);\n        }\n\n        // call to MerkleLib to check if the submitted data is correct\n        if (tree.rootHash.verifyProof(leaf, proof) == false) {\n            revert BadProof(treeIndex, leaf, proof);\n        }\n\n        // set initialized, preventing double initialization\n        tree.initialized[leaf] = true;\n\n        // precompute how many coins are released per second\n        // NOTE: should check that endTime != startTime on backend since that would revert here\n        uint coinsPerSecond = totalCoins / (endTime - startTime);\n\n        // create the tranche struct and assign it\n        tree.tranches[++tree.numTranchesInitialized] = Tranche(\n            destination,\n            totalCoins,  // total coins to be released\n            totalCoins,  // currentCoins starts as totalCoins\n            startTime,\n            endTime,\n            coinsPerSecond,\n            startTime,    // lastWithdrawal starts as startTime\n            lockPeriodEndTime\n        );\n\n        emit TrancheInitialized(treeIndex, tree.numTranchesInitialized, destination, leaf);\n\n        // if we've passed the lock time go ahead and perform a withdrawal now\n        if (lockPeriodEndTime < block.timestamp) {\n            withdraw(treeIndex, tree.numTranchesInitialized);\n        }\n        return tree.numTranchesInitialized;\n    }\n\n    /// @notice Claim funds as a recipient in the merkle-drop\n    /// @dev Anyone may call this function for anyone else, funds go to destination regardless, it's just a question of\n    /// @dev who provides the proof and pays the gas, msg.sender is not used in this function\n    /// @param treeIndex index into array-like map of merkleTrees, which tree should we apply the proof to?\n    /// @param trancheIndex recipient of tokens\n    function withdraw(uint treeIndex, uint trancheIndex) public {\n\n        MerkleTree storage tree = merkleTrees[treeIndex];\n        Tranche storage tranche = tree.tranches[trancheIndex];\n\n        // checking this way so we don't have to recompute leaf hash\n        if (tranche.totalCoins == 0) {\n            revert UninitializedAccount(treeIndex, trancheIndex);\n        }\n\n        // no withdrawals before lock time ends\n        if (block.timestamp < tranche.lockPeriodEndTime) {\n            revert AccountStillLocked(treeIndex, trancheIndex);\n        }\n\n        // revert if there's nothing left\n        if (tranche.currentCoins == 0) {\n            revert AccountEmpty(treeIndex, trancheIndex);\n        }\n\n        // declaration for branched assignment\n        uint currentWithdrawal;\n\n        // if after vesting period ends, give them the remaining coins\n        if (block.timestamp >= tranche.endTime) {\n            currentWithdrawal = tranche.currentCoins;\n        } else {\n            // compute allowed withdrawal\n            currentWithdrawal = (block.timestamp - tranche.lastWithdrawalTime) * tranche.coinsPerSecond;\n        }\n\n        // this makes sure coins don't get double withdrawn, closes re-entrance gate\n        tranche.lastWithdrawalTime = block.timestamp;\n\n        IERC20 token = IERC20(tree.tokenAddress);\n        uint balanceBefore = token.balanceOf(address(this));\n\n        // Transfer the tokens, if the token contract is malicious, this will make the whole tree malicious\n        // but this does not allow re-entrance due to struct updates and it does not effect other trees.\n        // It is also consistent with the ethereum general security model:\n        // other contracts do what they want, it's our job to protect our contract\n        token.transfer(tranche.recipient, currentWithdrawal);\n\n        // compute the diff in case there is a fee-on-transfer or transfer failed silently\n        uint balanceAfter = token.balanceOf(address(this));\n        uint diff = balanceBefore - balanceAfter;\n\n        // decrease allocation of coins\n        tranche.currentCoins -= diff;\n\n        // update the tree balance so trees can't take each other's tokens\n        tree.tokenBalance -= diff;\n\n        emit WithdrawalOccurred(treeIndex, tranche.recipient, diff, tranche.currentCoins);\n    }\n\n    function getTranche(uint treeIndex, uint trancheIndex) view external returns (address, uint, uint, uint, uint, uint, uint) {\n        Tranche storage tranche = merkleTrees[treeIndex].tranches[trancheIndex];\n        return (tranche.recipient, tranche.totalCoins, tranche.currentCoins, tranche.startTime, tranche.endTime, tranche.coinsPerSecond, tranche.lastWithdrawalTime);\n    }\n\n    function getInitialized(uint treeIndex, bytes32 leaf) external view returns (bool) {\n        return merkleTrees[treeIndex].initialized[leaf];\n    }\n\n}","sourcePath":"contracts/MerkleVesting.sol","type":"contract","deployment":{"address":"0xEedDDCda44c8808260588B311Ff6521D631F3565","chainid":"137","blockHeight":33010409}}