{
  "abi": [
    {
      "inputs": [],
      "stateMutability": "nonpayable",
      "type": "constructor"
    },
    {
      "anonymous": false,
      "inputs": [
        {
          "indexed": true,
          "internalType": "uint256",
          "name": "index",
          "type": "uint256"
        },
        {
          "indexed": true,
          "internalType": "address",
          "name": "tokenAddress",
          "type": "address"
        },
        {
          "indexed": false,
          "internalType": "bytes32",
          "name": "newRoot",
          "type": "bytes32"
        },
        {
          "indexed": false,
          "internalType": "bytes32",
          "name": "ipfsHash",
          "type": "bytes32"
        }
      ],
      "name": "MerkleTreeAdded",
      "type": "event"
    },
    {
      "anonymous": false,
      "inputs": [
        {
          "indexed": true,
          "internalType": "address",
          "name": "destination",
          "type": "address"
        },
        {
          "indexed": false,
          "internalType": "uint256",
          "name": "numTokens",
          "type": "uint256"
        },
        {
          "indexed": false,
          "internalType": "uint256",
          "name": "tokensLeft",
          "type": "uint256"
        },
        {
          "indexed": true,
          "internalType": "uint256",
          "name": "merkleIndex",
          "type": "uint256"
        }
      ],
      "name": "WithdrawalOccurred",
      "type": "event"
    },
    {
      "inputs": [],
      "name": "ERROR_TOLERANCE",
      "outputs": [
        {
          "internalType": "uint256",
          "name": "",
          "type": "uint256"
        }
      ],
      "stateMutability": "view",
      "type": "function"
    },
    {
      "inputs": [],
      "name": "PRECISION",
      "outputs": [
        {
          "internalType": "uint256",
          "name": "",
          "type": "uint256"
        }
      ],
      "stateMutability": "view",
      "type": "function"
    },
    {
      "inputs": [
        {
          "internalType": "bytes32",
          "name": "newRoot",
          "type": "bytes32"
        },
        {
          "internalType": "bytes32",
          "name": "ipfsHash",
          "type": "bytes32"
        },
        {
          "internalType": "uint256",
          "name": "minEndTime",
          "type": "uint256"
        },
        {
          "internalType": "uint256",
          "name": "maxEndTime",
          "type": "uint256"
        },
        {
          "internalType": "uint256",
          "name": "pctUpFront",
          "type": "uint256"
        },
        {
          "internalType": "address",
          "name": "depositToken",
          "type": "address"
        }
      ],
      "name": "addMerkleTree",
      "outputs": [],
      "stateMutability": "nonpayable",
      "type": "function"
    },
    {
      "inputs": [],
      "name": "initialBalance",
      "outputs": [
        {
          "internalType": "uint256",
          "name": "",
          "type": "uint256"
        }
      ],
      "stateMutability": "view",
      "type": "function"
    },
    {
      "inputs": [
        {
          "internalType": "uint256",
          "name": "merkleIndex",
          "type": "uint256"
        },
        {
          "internalType": "address",
          "name": "destination",
          "type": "address"
        },
        {
          "internalType": "uint256",
          "name": "vestingTime",
          "type": "uint256"
        },
        {
          "internalType": "uint256",
          "name": "minTotalPayments",
          "type": "uint256"
        },
        {
          "internalType": "uint256",
          "name": "maxTotalPayments",
          "type": "uint256"
        },
        {
          "internalType": "bytes32[]",
          "name": "proof",
          "type": "bytes32[]"
        }
      ],
      "name": "initialize",
      "outputs": [],
      "stateMutability": "nonpayable",
      "type": "function"
    },
    {
      "inputs": [
        {
          "internalType": "address",
          "name": "",
          "type": "address"
        },
        {
          "internalType": "uint256",
          "name": "",
          "type": "uint256"
        }
      ],
      "name": "initialized",
      "outputs": [
        {
          "internalType": "bool",
          "name": "",
          "type": "bool"
        }
      ],
      "stateMutability": "view",
      "type": "function"
    },
    {
      "inputs": [
        {
          "internalType": "uint256",
          "name": "",
          "type": "uint256"
        }
      ],
      "name": "merkleTrees",
      "outputs": [
        {
          "internalType": "bytes32",
          "name": "merkleRoot",
          "type": "bytes32"
        },
        {
          "internalType": "bytes32",
          "name": "ipfsHash",
          "type": "bytes32"
        },
        {
          "internalType": "uint256",
          "name": "minEndTime",
          "type": "uint256"
        },
        {
          "internalType": "uint256",
          "name": "maxEndTime",
          "type": "uint256"
        },
        {
          "internalType": "uint256",
          "name": "pctUpFront",
          "type": "uint256"
        },
        {
          "internalType": "address",
          "name": "tokenAddress",
          "type": "address"
        }
      ],
      "stateMutability": "view",
      "type": "function"
    },
    {
      "inputs": [],
      "name": "numTrees",
      "outputs": [
        {
          "internalType": "uint256",
          "name": "",
          "type": "uint256"
        }
      ],
      "stateMutability": "view",
      "type": "function"
    },
    {
      "inputs": [
        {
          "internalType": "address",
          "name": "",
          "type": "address"
        },
        {
          "internalType": "uint256",
          "name": "",
          "type": "uint256"
        }
      ],
      "name": "tranches",
      "outputs": [
        {
          "internalType": "uint256",
          "name": "totalCoins",
          "type": "uint256"
        },
        {
          "internalType": "uint256",
          "name": "currentCoins",
          "type": "uint256"
        },
        {
          "internalType": "uint256",
          "name": "startTime",
          "type": "uint256"
        },
        {
          "internalType": "uint256",
          "name": "endTime",
          "type": "uint256"
        },
        {
          "internalType": "uint256",
          "name": "coinsPerSecond",
          "type": "uint256"
        },
        {
          "internalType": "uint256",
          "name": "lastWithdrawalTime",
          "type": "uint256"
        }
      ],
      "stateMutability": "view",
      "type": "function"
    },
    {
      "inputs": [
        {
          "internalType": "uint256",
          "name": "merkleIndex",
          "type": "uint256"
        },
        {
          "internalType": "uint256",
          "name": "vestingTime",
          "type": "uint256"
        },
        {
          "internalType": "uint256",
          "name": "minTotalPayments",
          "type": "uint256"
        },
        {
          "internalType": "uint256",
          "name": "maxTotalPayments",
          "type": "uint256"
        }
      ],
      "name": "verifyVestingSchedule",
      "outputs": [
        {
          "internalType": "bool",
          "name": "",
          "type": "bool"
        },
        {
          "internalType": "uint256",
          "name": "",
          "type": "uint256"
        },
        {
          "internalType": "uint256",
          "name": "",
          "type": "uint256"
        },
        {
          "internalType": "uint256",
          "name": "",
          "type": "uint256"
        }
      ],
      "stateMutability": "view",
      "type": "function"
    },
    {
      "inputs": [
        {
          "internalType": "uint256",
          "name": "merkleIndex",
          "type": "uint256"
        },
        {
          "internalType": "address",
          "name": "destination",
          "type": "address"
        }
      ],
      "name": "withdraw",
      "outputs": [],
      "stateMutability": "nonpayable",
      "type": "function"
    }
  ],
  "bytecode": "60806040526000805534801561001457600080fd5b50610f47806100246000396000f3fe608060405234801561001057600080fd5b50600436106100a85760003560e01c80636fb6ec41116100715780636fb6ec411461010257806385d88cb11461013757806386bb8249146101bc578063aaf5eb68146101fa578063c26cb54f14610204578063f287ad041461027c57600080fd5b8062f714ce146100ad5780630997eaa1146100c257806318369a2a146100d55780632811e253146100f1578063390b7c66146100f9575b600080fd5b6100c06100bb366004610bf4565b61028f565b005b6100c06100d0366004610c20565b610512565b6100de60015481565b6040519081526020015b60405180910390f35b6100de600181565b6100de60005481565b610115610110366004610c71565b6106aa565b60408051941515855260208501939093529183015260608201526080016100e8565b610186610145366004610ca3565b60036020819052600091825260409091208054600182015460028301549383015460048401546005909401549294919391929091906001600160a01b031686565b60408051968752602087019590955293850192909252606084015260808301526001600160a01b031660a082015260c0016100e8565b6101ea6101ca366004610cbc565b600260209081526000928352604080842090915290825290205460ff1681565b60405190151581526020016100e8565b6100de620f424081565b61024f610212366004610cbc565b6004602081815260009384526040808520909152918352912080546001820154600283015460038401549484015460059094015492949193909286565b604080519687526020870195909552938501929092526060840152608083015260a082015260c0016100e8565b6100c061028a366004610cfc565b610848565b6001600160a01b038116600090815260026020908152604080832085845290915290205460ff166103175760405162461bcd60e51b815260206004820152602760248201527f596f75206d75737420696e697469616c697a6520796f7572206163636f756e74604482015266103334b939ba1760c91b60648201526084015b60405180910390fd5b6001600160a01b0380821660009081526004602081815260408084208785528252808420600380845294829020825160c081018452815481526001808301549582019590955260028201549381019390935294850154606083015292840154608082015260059093015490931660a0830152918201546103d95760405162461bcd60e51b815260206004820152601960248201527f4e6f20636f696e73206c65667420746f20776974686472617700000000000000604482015260640161030e565b6000826003015442106103f157506001820154610412565b600483015460058401546104059042610e08565b61040f9190610e1f565b90505b808360010160008282546104269190610e08565b909155505042600584015560a082015160405163a9059cbb60e01b81526001600160a01b038681166004830152602482018490529091169063a9059cbb90604401602060405180830381600087803b15801561048157600080fd5b505af1158015610495573d6000803e3d6000fd5b505050506040513d601f19601f820116820180604052508101906104b99190610e3e565b5084846001600160a01b03167f5ffb4b63dec15ba26308386f1d5ca61843b29ba365511062a887d95aa27532d3838660010154604051610503929190918252602082015260400190565b60405180910390a35050505050565b606482106105565760405162461bcd60e51b81526020600482015260116024820152700706374557046726f6e74203e3d2031303607c1b604482015260640161030e565b8284106105b55760405162461bcd60e51b815260206004820152602760248201527f6d696e456e6454696d65206d757374206265206c657373207468616e206d6178604482015266456e6454696d6560c81b606482015260840161030e565b6040518060c00160405280878152602001868152602001858152602001848152602001838152602001826001600160a01b03168152506003600080600081546105fd90610e67565b918290555081526020808201929092526040908101600090812084518155848401516001820155848301516002820155606085015160038201556080850151600482015560a090940151600590940180546001600160a01b0319166001600160a01b039586161790555481518a815292830189905292841692917f7247d7268297fd9fe23a535b70f414660bbcbbcd73ac0d9ce3c103a356a61f45910160405180910390a3505050505050565b6000806000806000548811156106cb5750600092508291508190508061083d565b600088815260036020818152604092839020835160c081018552815481526001820154928101929092526002810154938201939093529082015460608201819052600483015460808301526005909201546001600160a01b031660a08201529088118061073b5750806040015188105b156107545760008060008094509450945094505061083d565b600081606001518914156107695750856107da565b60008260400151836060015161077f9190610e08565b620f424061078d8b8b610e08565b6107979190610e1f565b6107a19190610e82565b905088620f424084604001518c6107b89190610e08565b6107c29084610e1f565b6107cc9190610e82565b6107d69190610ea4565b9150505b60006107e78a6064610e1f565b60808401516107f7906064610e08565b6108019084610e1f565b61080b9190610e82565b905060006108198284610e82565b6108238c42610ea4565b61082d9190610e08565b6001985092965090945090925050505b945094509450949050565b336001600160a01b038616146108ac5760405162461bcd60e51b8152602060048201526024808201527f43616e206f6e6c7920696e697469616c697a6520796f7572206f776e207472616044820152636e63686560e01b606482015260840161030e565b6001600160a01b038516600090815260026020908152604080832089845290915290205460ff16156109165760405162461bcd60e51b8152602060048201526013602482015272105b1c9958591e481a5b9a5d1a585b1a5e9959606a1b604482015260640161030e565b604080516001600160a01b03871660208201529081018490526060810183905260009060800160408051601f19818403018152828252805160209182012060008b815260038084529084902060c086018552805480875260018201549487019490945260028101548686015290810154606086015260048082015460808701526005909101546001600160a01b031660a08601529251632769cd1f60e21b815290945073__MerkleLib_____________________________92639da7347c926109e59290918791899101610ebc565b60206040518083038186803b1580156109fd57600080fd5b505af4158015610a11573d6000803e3d6000fd5b505050506040513d601f19601f82011682018060405250810190610a359190610e3e565b610a815760405162461bcd60e51b815260206004820181905260248201527f5468652070726f6f6620636f756c64206e6f742062652076657269666965642e604482015260640161030e565b6001600160a01b03871660009081526002602090815260408083208b84529091528120805460ff19166001179055808080610abe8c8b8b8b6106aa565b935093509350935083610b135760405162461bcd60e51b815260206004820152601860248201527f496e76616c69642076657374696e67207363686564756c650000000000000000604482015260640161030e565b6040518060c001604052808481526020018481526020018281526020018b42610b3c9190610ea4565b815260200183815260200182815250600460008d6001600160a01b03166001600160a01b0316815260200190815260200160002060008e8152602001908152602001600020600082015181600001556020820151816001015560408201518160020155606082015181600301556080820151816004015560a08201518160050155905050610bca8c8c61028f565b505050505050505050505050565b80356001600160a01b0381168114610bef57600080fd5b919050565b60008060408385031215610c0757600080fd5b82359150610c1760208401610bd8565b90509250929050565b60008060008060008060c08789031215610c3957600080fd5b8635955060208701359450604087013593506060870135925060808701359150610c6560a08801610bd8565b90509295509295509295565b60008060008060808587031215610c8757600080fd5b5050823594602084013594506040840135936060013592509050565b600060208284031215610cb557600080fd5b5035919050565b60008060408385031215610ccf57600080fd5b610cd883610bd8565b946020939093013593505050565b634e487b7160e01b600052604160045260246000fd5b60008060008060008060c08789031215610d1557600080fd5b863595506020610d26818901610bd8565b955060408801359450606088013593506080880135925060a088013567ffffffffffffffff80821115610d5857600080fd5b818a0191508a601f830112610d6c57600080fd5b813581811115610d7e57610d7e610ce6565b8060051b604051601f19603f83011681018181108582111715610da357610da3610ce6565b60405291825284820192508381018501918d831115610dc157600080fd5b938501935b82851015610ddf57843584529385019392850192610dc6565b8096505050505050509295509295509295565b634e487b7160e01b600052601160045260246000fd5b600082821015610e1a57610e1a610df2565b500390565b6000816000190483118215151615610e3957610e39610df2565b500290565b600060208284031215610e5057600080fd5b81518015158114610e6057600080fd5b9392505050565b6000600019821415610e7b57610e7b610df2565b5060010190565b600082610e9f57634e487b7160e01b600052601260045260246000fd5b500490565b60008219821115610eb757610eb7610df2565b500190565b6000606082018583526020858185015260606040850152818551808452608086019150828701935060005b81811015610f0357845183529383019391830191600101610ee7565b50909897505050505050505056fea2646970667358221220d74713884523b8ad49733bb4edc64746f17086976828e898c637ca79e3aec04464736f6c63430008090033",
  "bytecodeSha1": "1e6bfa6da7db8c667184f437938c6ee37382fc5c",
  "compiler": {
    "evm_version": "istanbul",
    "optimizer": {
      "enabled": true,
      "runs": 200
    },
    "version": "0.8.9+commit.e5eed63a"
  },
  "contractName": "DummyMerkleResistor",
  "deployedBytecode": "608060405234801561001057600080fd5b50600436106100a85760003560e01c80636fb6ec41116100715780636fb6ec411461010257806385d88cb11461013757806386bb8249146101bc578063aaf5eb68146101fa578063c26cb54f14610204578063f287ad041461027c57600080fd5b8062f714ce146100ad5780630997eaa1146100c257806318369a2a146100d55780632811e253146100f1578063390b7c66146100f9575b600080fd5b6100c06100bb366004610bf4565b61028f565b005b6100c06100d0366004610c20565b610512565b6100de60015481565b6040519081526020015b60405180910390f35b6100de600181565b6100de60005481565b610115610110366004610c71565b6106aa565b60408051941515855260208501939093529183015260608201526080016100e8565b610186610145366004610ca3565b60036020819052600091825260409091208054600182015460028301549383015460048401546005909401549294919391929091906001600160a01b031686565b60408051968752602087019590955293850192909252606084015260808301526001600160a01b031660a082015260c0016100e8565b6101ea6101ca366004610cbc565b600260209081526000928352604080842090915290825290205460ff1681565b60405190151581526020016100e8565b6100de620f424081565b61024f610212366004610cbc565b6004602081815260009384526040808520909152918352912080546001820154600283015460038401549484015460059094015492949193909286565b604080519687526020870195909552938501929092526060840152608083015260a082015260c0016100e8565b6100c061028a366004610cfc565b610848565b6001600160a01b038116600090815260026020908152604080832085845290915290205460ff166103175760405162461bcd60e51b815260206004820152602760248201527f596f75206d75737420696e697469616c697a6520796f7572206163636f756e74604482015266103334b939ba1760c91b60648201526084015b60405180910390fd5b6001600160a01b0380821660009081526004602081815260408084208785528252808420600380845294829020825160c081018452815481526001808301549582019590955260028201549381019390935294850154606083015292840154608082015260059093015490931660a0830152918201546103d95760405162461bcd60e51b815260206004820152601960248201527f4e6f20636f696e73206c65667420746f20776974686472617700000000000000604482015260640161030e565b6000826003015442106103f157506001820154610412565b600483015460058401546104059042610e08565b61040f9190610e1f565b90505b808360010160008282546104269190610e08565b909155505042600584015560a082015160405163a9059cbb60e01b81526001600160a01b038681166004830152602482018490529091169063a9059cbb90604401602060405180830381600087803b15801561048157600080fd5b505af1158015610495573d6000803e3d6000fd5b505050506040513d601f19601f820116820180604052508101906104b99190610e3e565b5084846001600160a01b03167f5ffb4b63dec15ba26308386f1d5ca61843b29ba365511062a887d95aa27532d3838660010154604051610503929190918252602082015260400190565b60405180910390a35050505050565b606482106105565760405162461bcd60e51b81526020600482015260116024820152700706374557046726f6e74203e3d2031303607c1b604482015260640161030e565b8284106105b55760405162461bcd60e51b815260206004820152602760248201527f6d696e456e6454696d65206d757374206265206c657373207468616e206d6178604482015266456e6454696d6560c81b606482015260840161030e565b6040518060c00160405280878152602001868152602001858152602001848152602001838152602001826001600160a01b03168152506003600080600081546105fd90610e67565b918290555081526020808201929092526040908101600090812084518155848401516001820155848301516002820155606085015160038201556080850151600482015560a090940151600590940180546001600160a01b0319166001600160a01b039586161790555481518a815292830189905292841692917f7247d7268297fd9fe23a535b70f414660bbcbbcd73ac0d9ce3c103a356a61f45910160405180910390a3505050505050565b6000806000806000548811156106cb5750600092508291508190508061083d565b600088815260036020818152604092839020835160c081018552815481526001820154928101929092526002810154938201939093529082015460608201819052600483015460808301526005909201546001600160a01b031660a08201529088118061073b5750806040015188105b156107545760008060008094509450945094505061083d565b600081606001518914156107695750856107da565b60008260400151836060015161077f9190610e08565b620f424061078d8b8b610e08565b6107979190610e1f565b6107a19190610e82565b905088620f424084604001518c6107b89190610e08565b6107c29084610e1f565b6107cc9190610e82565b6107d69190610ea4565b9150505b60006107e78a6064610e1f565b60808401516107f7906064610e08565b6108019084610e1f565b61080b9190610e82565b905060006108198284610e82565b6108238c42610ea4565b61082d9190610e08565b6001985092965090945090925050505b945094509450949050565b336001600160a01b038616146108ac5760405162461bcd60e51b8152602060048201526024808201527f43616e206f6e6c7920696e697469616c697a6520796f7572206f776e207472616044820152636e63686560e01b606482015260840161030e565b6001600160a01b038516600090815260026020908152604080832089845290915290205460ff16156109165760405162461bcd60e51b8152602060048201526013602482015272105b1c9958591e481a5b9a5d1a585b1a5e9959606a1b604482015260640161030e565b604080516001600160a01b03871660208201529081018490526060810183905260009060800160408051601f19818403018152828252805160209182012060008b815260038084529084902060c086018552805480875260018201549487019490945260028101548686015290810154606086015260048082015460808701526005909101546001600160a01b031660a08601529251632769cd1f60e21b815290945073__$61dd25696c02d5bd2863c8d2c1a2324a87$__92639da7347c926109e59290918791899101610ebc565b60206040518083038186803b1580156109fd57600080fd5b505af4158015610a11573d6000803e3d6000fd5b505050506040513d601f19601f82011682018060405250810190610a359190610e3e565b610a815760405162461bcd60e51b815260206004820181905260248201527f5468652070726f6f6620636f756c64206e6f742062652076657269666965642e604482015260640161030e565b6001600160a01b03871660009081526002602090815260408083208b84529091528120805460ff19166001179055808080610abe8c8b8b8b6106aa565b935093509350935083610b135760405162461bcd60e51b815260206004820152601860248201527f496e76616c69642076657374696e67207363686564756c650000000000000000604482015260640161030e565b6040518060c001604052808481526020018481526020018281526020018b42610b3c9190610ea4565b815260200183815260200182815250600460008d6001600160a01b03166001600160a01b0316815260200190815260200160002060008e8152602001908152602001600020600082015181600001556020820151816001015560408201518160020155606082015181600301556080820151816004015560a08201518160050155905050610bca8c8c61028f565b505050505050505050505050565b80356001600160a01b0381168114610bef57600080fd5b919050565b60008060408385031215610c0757600080fd5b82359150610c1760208401610bd8565b90509250929050565b60008060008060008060c08789031215610c3957600080fd5b8635955060208701359450604087013593506060870135925060808701359150610c6560a08801610bd8565b90509295509295509295565b60008060008060808587031215610c8757600080fd5b5050823594602084013594506040840135936060013592509050565b600060208284031215610cb557600080fd5b5035919050565b60008060408385031215610ccf57600080fd5b610cd883610bd8565b946020939093013593505050565b634e487b7160e01b600052604160045260246000fd5b60008060008060008060c08789031215610d1557600080fd5b863595506020610d26818901610bd8565b955060408801359450606088013593506080880135925060a088013567ffffffffffffffff80821115610d5857600080fd5b818a0191508a601f830112610d6c57600080fd5b813581811115610d7e57610d7e610ce6565b8060051b604051601f19603f83011681018181108582111715610da357610da3610ce6565b60405291825284820192508381018501918d831115610dc157600080fd5b938501935b82851015610ddf57843584529385019392850192610dc6565b8096505050505050509295509295509295565b634e487b7160e01b600052601160045260246000fd5b600082821015610e1a57610e1a610df2565b500390565b6000816000190483118215151615610e3957610e39610df2565b500290565b600060208284031215610e5057600080fd5b81518015158114610e6057600080fd5b9392505050565b6000600019821415610e7b57610e7b610df2565b5060010190565b600082610e9f57634e487b7160e01b600052601260045260246000fd5b500490565b60008219821115610eb757610eb7610df2565b500190565b6000606082018583526020858185015260606040850152818551808452608086019150828701935060005b81811015610f0357845183529383019391830191600101610ee7565b50909897505050505050505056fea2646970667358221220d74713884523b8ad49733bb4edc64746f17086976828e898c637ca79e3aec04464736f6c63430008090033",
  "language": "Solidity",
  "natspec": {
    "kind": "dev",
    "methods": {},
    "version": 1
  },
  "opcodes": "PUSH1 0x80 PUSH1 0x40 MSTORE CALLVALUE DUP1 ISZERO PUSH2 0x10 JUMPI PUSH1 0x0 DUP1 REVERT JUMPDEST POP PUSH1 0x4 CALLDATASIZE LT PUSH2 0xA8 JUMPI PUSH1 0x0 CALLDATALOAD PUSH1 0xE0 SHR DUP1 PUSH4 0x6FB6EC41 GT PUSH2 0x71 JUMPI DUP1 PUSH4 0x6FB6EC41 EQ PUSH2 0x102 JUMPI DUP1 PUSH4 0x85D88CB1 EQ PUSH2 0x137 JUMPI DUP1 PUSH4 0x86BB8249 EQ PUSH2 0x1BC JUMPI DUP1 PUSH4 0xAAF5EB68 EQ PUSH2 0x1FA JUMPI DUP1 PUSH4 0xC26CB54F EQ PUSH2 0x204 JUMPI DUP1 PUSH4 0xF287AD04 EQ PUSH2 0x27C JUMPI PUSH1 0x0 DUP1 REVERT JUMPDEST DUP1 PUSH3 0xF714CE EQ PUSH2 0xAD JUMPI DUP1 PUSH4 0x997EAA1 EQ PUSH2 0xC2 JUMPI DUP1 PUSH4 0x18369A2A EQ PUSH2 0xD5 JUMPI DUP1 PUSH4 0x2811E253 EQ PUSH2 0xF1 JUMPI DUP1 PUSH4 0x390B7C66 EQ PUSH2 0xF9 JUMPI JUMPDEST PUSH1 0x0 DUP1 REVERT JUMPDEST PUSH2 0xC0 PUSH2 0xBB CALLDATASIZE PUSH1 0x4 PUSH2 0xBF4 JUMP JUMPDEST PUSH2 0x28F JUMP JUMPDEST STOP JUMPDEST PUSH2 0xC0 PUSH2 0xD0 CALLDATASIZE PUSH1 0x4 PUSH2 0xC20 JUMP JUMPDEST PUSH2 0x512 JUMP JUMPDEST PUSH2 0xDE PUSH1 0x1 SLOAD DUP2 JUMP JUMPDEST PUSH1 0x40 MLOAD SWAP1 DUP2 MSTORE PUSH1 0x20 ADD JUMPDEST PUSH1 0x40 MLOAD DUP1 SWAP2 SUB SWAP1 RETURN JUMPDEST PUSH2 0xDE PUSH1 0x1 DUP2 JUMP JUMPDEST PUSH2 0xDE PUSH1 0x0 SLOAD DUP2 JUMP JUMPDEST PUSH2 0x115 PUSH2 0x110 CALLDATASIZE PUSH1 0x4 PUSH2 0xC71 JUMP JUMPDEST PUSH2 0x6AA JUMP JUMPDEST PUSH1 0x40 DUP1 MLOAD SWAP5 ISZERO ISZERO DUP6 MSTORE PUSH1 0x20 DUP6 ADD SWAP4 SWAP1 SWAP4 MSTORE SWAP2 DUP4 ADD MSTORE PUSH1 0x60 DUP3 ADD MSTORE PUSH1 0x80 ADD PUSH2 0xE8 JUMP JUMPDEST PUSH2 0x186 PUSH2 0x145 CALLDATASIZE PUSH1 0x4 PUSH2 0xCA3 JUMP JUMPDEST PUSH1 0x3 PUSH1 0x20 DUP2 SWAP1 MSTORE PUSH1 0x0 SWAP2 DUP3 MSTORE PUSH1 0x40 SWAP1 SWAP2 KECCAK256 DUP1 SLOAD PUSH1 0x1 DUP3 ADD SLOAD PUSH1 0x2 DUP4 ADD SLOAD SWAP4 DUP4 ADD SLOAD PUSH1 0x4 DUP5 ADD SLOAD PUSH1 0x5 SWAP1 SWAP5 ADD SLOAD SWAP3 SWAP5 SWAP2 SWAP4 SWAP2 SWAP3 SWAP1 SWAP2 SWAP1 PUSH1 0x1 PUSH1 0x1 PUSH1 0xA0 SHL SUB AND DUP7 JUMP JUMPDEST PUSH1 0x40 DUP1 MLOAD SWAP7 DUP8 MSTORE PUSH1 0x20 DUP8 ADD SWAP6 SWAP1 SWAP6 MSTORE SWAP4 DUP6 ADD SWAP3 SWAP1 SWAP3 MSTORE PUSH1 0x60 DUP5 ADD MSTORE PUSH1 0x80 DUP4 ADD MSTORE PUSH1 0x1 PUSH1 0x1 PUSH1 0xA0 SHL SUB AND PUSH1 0xA0 DUP3 ADD MSTORE PUSH1 0xC0 ADD PUSH2 0xE8 JUMP JUMPDEST PUSH2 0x1EA PUSH2 0x1CA CALLDATASIZE PUSH1 0x4 PUSH2 0xCBC JUMP JUMPDEST PUSH1 0x2 PUSH1 0x20 SWAP1 DUP2 MSTORE PUSH1 0x0 SWAP3 DUP4 MSTORE PUSH1 0x40 DUP1 DUP5 KECCAK256 SWAP1 SWAP2 MSTORE SWAP1 DUP3 MSTORE SWAP1 KECCAK256 SLOAD PUSH1 0xFF AND DUP2 JUMP JUMPDEST PUSH1 0x40 MLOAD SWAP1 ISZERO ISZERO DUP2 MSTORE PUSH1 0x20 ADD PUSH2 0xE8 JUMP JUMPDEST PUSH2 0xDE PUSH3 0xF4240 DUP2 JUMP JUMPDEST PUSH2 0x24F PUSH2 0x212 CALLDATASIZE PUSH1 0x4 PUSH2 0xCBC JUMP JUMPDEST PUSH1 0x4 PUSH1 0x20 DUP2 DUP2 MSTORE PUSH1 0x0 SWAP4 DUP5 MSTORE PUSH1 0x40 DUP1 DUP6 KECCAK256 SWAP1 SWAP2 MSTORE SWAP2 DUP4 MSTORE SWAP2 KECCAK256 DUP1 SLOAD PUSH1 0x1 DUP3 ADD SLOAD PUSH1 0x2 DUP4 ADD SLOAD PUSH1 0x3 DUP5 ADD SLOAD SWAP5 DUP5 ADD SLOAD PUSH1 0x5 SWAP1 SWAP5 ADD SLOAD SWAP3 SWAP5 SWAP2 SWAP4 SWAP1 SWAP3 DUP7 JUMP JUMPDEST PUSH1 0x40 DUP1 MLOAD SWAP7 DUP8 MSTORE PUSH1 0x20 DUP8 ADD SWAP6 SWAP1 SWAP6 MSTORE SWAP4 DUP6 ADD SWAP3 SWAP1 SWAP3 MSTORE PUSH1 0x60 DUP5 ADD MSTORE PUSH1 0x80 DUP4 ADD MSTORE PUSH1 0xA0 DUP3 ADD MSTORE PUSH1 0xC0 ADD PUSH2 0xE8 JUMP JUMPDEST PUSH2 0xC0 PUSH2 0x28A CALLDATASIZE PUSH1 0x4 PUSH2 0xCFC JUMP JUMPDEST PUSH2 0x848 JUMP JUMPDEST PUSH1 0x1 PUSH1 0x1 PUSH1 0xA0 SHL SUB DUP2 AND PUSH1 0x0 SWAP1 DUP2 MSTORE PUSH1 0x2 PUSH1 0x20 SWAP1 DUP2 MSTORE PUSH1 0x40 DUP1 DUP4 KECCAK256 DUP6 DUP5 MSTORE SWAP1 SWAP2 MSTORE SWAP1 KECCAK256 SLOAD PUSH1 0xFF AND PUSH2 0x317 JUMPI PUSH1 0x40 MLOAD PUSH3 0x461BCD PUSH1 0xE5 SHL DUP2 MSTORE PUSH1 0x20 PUSH1 0x4 DUP3 ADD MSTORE PUSH1 0x27 PUSH1 0x24 DUP3 ADD MSTORE PUSH32 0x596F75206D75737420696E697469616C697A6520796F7572206163636F756E74 PUSH1 0x44 DUP3 ADD MSTORE PUSH7 0x103334B939BA17 PUSH1 0xC9 SHL PUSH1 0x64 DUP3 ADD MSTORE PUSH1 0x84 ADD JUMPDEST PUSH1 0x40 MLOAD DUP1 SWAP2 SUB SWAP1 REVERT JUMPDEST PUSH1 0x1 PUSH1 0x1 PUSH1 0xA0 SHL SUB DUP1 DUP3 AND PUSH1 0x0 SWAP1 DUP2 MSTORE PUSH1 0x4 PUSH1 0x20 DUP2 DUP2 MSTORE PUSH1 0x40 DUP1 DUP5 KECCAK256 DUP8 DUP6 MSTORE DUP3 MSTORE DUP1 DUP5 KECCAK256 PUSH1 0x3 DUP1 DUP5 MSTORE SWAP5 DUP3 SWAP1 KECCAK256 DUP3 MLOAD PUSH1 0xC0 DUP2 ADD DUP5 MSTORE DUP2 SLOAD DUP2 MSTORE PUSH1 0x1 DUP1 DUP4 ADD SLOAD SWAP6 DUP3 ADD SWAP6 SWAP1 SWAP6 MSTORE PUSH1 0x2 DUP3 ADD SLOAD SWAP4 DUP2 ADD SWAP4 SWAP1 SWAP4 MSTORE SWAP5 DUP6 ADD SLOAD PUSH1 0x60 DUP4 ADD MSTORE SWAP3 DUP5 ADD SLOAD PUSH1 0x80 DUP3 ADD MSTORE PUSH1 0x5 SWAP1 SWAP4 ADD SLOAD SWAP1 SWAP4 AND PUSH1 0xA0 DUP4 ADD MSTORE SWAP2 DUP3 ADD SLOAD PUSH2 0x3D9 JUMPI PUSH1 0x40 MLOAD PUSH3 0x461BCD PUSH1 0xE5 SHL DUP2 MSTORE PUSH1 0x20 PUSH1 0x4 DUP3 ADD MSTORE PUSH1 0x19 PUSH1 0x24 DUP3 ADD MSTORE PUSH32 0x4E6F20636F696E73206C65667420746F20776974686472617700000000000000 PUSH1 0x44 DUP3 ADD MSTORE PUSH1 0x64 ADD PUSH2 0x30E JUMP JUMPDEST PUSH1 0x0 DUP3 PUSH1 0x3 ADD SLOAD TIMESTAMP LT PUSH2 0x3F1 JUMPI POP PUSH1 0x1 DUP3 ADD SLOAD PUSH2 0x412 JUMP JUMPDEST PUSH1 0x4 DUP4 ADD SLOAD PUSH1 0x5 DUP5 ADD SLOAD PUSH2 0x405 SWAP1 TIMESTAMP PUSH2 0xE08 JUMP JUMPDEST PUSH2 0x40F SWAP2 SWAP1 PUSH2 0xE1F JUMP JUMPDEST SWAP1 POP JUMPDEST DUP1 DUP4 PUSH1 0x1 ADD PUSH1 0x0 DUP3 DUP3 SLOAD PUSH2 0x426 SWAP2 SWAP1 PUSH2 0xE08 JUMP JUMPDEST SWAP1 SWAP2 SSTORE POP POP TIMESTAMP PUSH1 0x5 DUP5 ADD SSTORE PUSH1 0xA0 DUP3 ADD MLOAD PUSH1 0x40 MLOAD PUSH4 0xA9059CBB PUSH1 0xE0 SHL DUP2 MSTORE PUSH1 0x1 PUSH1 0x1 PUSH1 0xA0 SHL SUB DUP7 DUP2 AND PUSH1 0x4 DUP4 ADD MSTORE PUSH1 0x24 DUP3 ADD DUP5 SWAP1 MSTORE SWAP1 SWAP2 AND SWAP1 PUSH4 0xA9059CBB SWAP1 PUSH1 0x44 ADD PUSH1 0x20 PUSH1 0x40 MLOAD DUP1 DUP4 SUB DUP2 PUSH1 0x0 DUP8 DUP1 EXTCODESIZE ISZERO DUP1 ISZERO PUSH2 0x481 JUMPI PUSH1 0x0 DUP1 REVERT JUMPDEST POP GAS CALL ISZERO DUP1 ISZERO PUSH2 0x495 JUMPI RETURNDATASIZE PUSH1 0x0 DUP1 RETURNDATACOPY RETURNDATASIZE PUSH1 0x0 REVERT JUMPDEST POP POP POP POP PUSH1 0x40 MLOAD RETURNDATASIZE PUSH1 0x1F NOT PUSH1 0x1F DUP3 ADD AND DUP3 ADD DUP1 PUSH1 0x40 MSTORE POP DUP2 ADD SWAP1 PUSH2 0x4B9 SWAP2 SWAP1 PUSH2 0xE3E JUMP JUMPDEST POP DUP5 DUP5 PUSH1 0x1 PUSH1 0x1 PUSH1 0xA0 SHL SUB AND PUSH32 0x5FFB4B63DEC15BA26308386F1D5CA61843B29BA365511062A887D95AA27532D3 DUP4 DUP7 PUSH1 0x1 ADD SLOAD PUSH1 0x40 MLOAD PUSH2 0x503 SWAP3 SWAP2 SWAP1 SWAP2 DUP3 MSTORE PUSH1 0x20 DUP3 ADD MSTORE PUSH1 0x40 ADD SWAP1 JUMP JUMPDEST PUSH1 0x40 MLOAD DUP1 SWAP2 SUB SWAP1 LOG3 POP POP POP POP POP JUMP JUMPDEST PUSH1 0x64 DUP3 LT PUSH2 0x556 JUMPI PUSH1 0x40 MLOAD PUSH3 0x461BCD PUSH1 0xE5 SHL DUP2 MSTORE PUSH1 0x20 PUSH1 0x4 DUP3 ADD MSTORE PUSH1 0x11 PUSH1 0x24 DUP3 ADD MSTORE PUSH17 0x706374557046726F6E74203E3D2031303 PUSH1 0x7C SHL PUSH1 0x44 DUP3 ADD MSTORE PUSH1 0x64 ADD PUSH2 0x30E JUMP JUMPDEST DUP3 DUP5 LT PUSH2 0x5B5 JUMPI PUSH1 0x40 MLOAD PUSH3 0x461BCD PUSH1 0xE5 SHL DUP2 MSTORE PUSH1 0x20 PUSH1 0x4 DUP3 ADD MSTORE PUSH1 0x27 PUSH1 0x24 DUP3 ADD MSTORE PUSH32 0x6D696E456E6454696D65206D757374206265206C657373207468616E206D6178 PUSH1 0x44 DUP3 ADD MSTORE PUSH7 0x456E6454696D65 PUSH1 0xC8 SHL PUSH1 0x64 DUP3 ADD MSTORE PUSH1 0x84 ADD PUSH2 0x30E JUMP JUMPDEST PUSH1 0x40 MLOAD DUP1 PUSH1 0xC0 ADD PUSH1 0x40 MSTORE DUP1 DUP8 DUP2 MSTORE PUSH1 0x20 ADD DUP7 DUP2 MSTORE PUSH1 0x20 ADD DUP6 DUP2 MSTORE PUSH1 0x20 ADD DUP5 DUP2 MSTORE PUSH1 0x20 ADD DUP4 DUP2 MSTORE PUSH1 0x20 ADD DUP3 PUSH1 0x1 PUSH1 0x1 PUSH1 0xA0 SHL SUB AND DUP2 MSTORE POP PUSH1 0x3 PUSH1 0x0 DUP1 PUSH1 0x0 DUP2 SLOAD PUSH2 0x5FD SWAP1 PUSH2 0xE67 JUMP JUMPDEST SWAP2 DUP3 SWAP1 SSTORE POP DUP2 MSTORE PUSH1 0x20 DUP1 DUP3 ADD SWAP3 SWAP1 SWAP3 MSTORE PUSH1 0x40 SWAP1 DUP2 ADD PUSH1 0x0 SWAP1 DUP2 KECCAK256 DUP5 MLOAD DUP2 SSTORE DUP5 DUP5 ADD MLOAD PUSH1 0x1 DUP3 ADD SSTORE DUP5 DUP4 ADD MLOAD PUSH1 0x2 DUP3 ADD SSTORE PUSH1 0x60 DUP6 ADD MLOAD PUSH1 0x3 DUP3 ADD SSTORE PUSH1 0x80 DUP6 ADD MLOAD PUSH1 0x4 DUP3 ADD SSTORE PUSH1 0xA0 SWAP1 SWAP5 ADD MLOAD PUSH1 0x5 SWAP1 SWAP5 ADD DUP1 SLOAD PUSH1 0x1 PUSH1 0x1 PUSH1 0xA0 SHL SUB NOT AND PUSH1 0x1 PUSH1 0x1 PUSH1 0xA0 SHL SUB SWAP6 DUP7 AND OR SWAP1 SSTORE SLOAD DUP2 MLOAD DUP11 DUP2 MSTORE SWAP3 DUP4 ADD DUP10 SWAP1 MSTORE SWAP3 DUP5 AND SWAP3 SWAP2 PUSH32 0x7247D7268297FD9FE23A535B70F414660BBCBBCD73AC0D9CE3C103A356A61F45 SWAP2 ADD PUSH1 0x40 MLOAD DUP1 SWAP2 SUB SWAP1 LOG3 POP POP POP POP POP POP JUMP JUMPDEST PUSH1 0x0 DUP1 PUSH1 0x0 DUP1 PUSH1 0x0 SLOAD DUP9 GT ISZERO PUSH2 0x6CB JUMPI POP PUSH1 0x0 SWAP3 POP DUP3 SWAP2 POP DUP2 SWAP1 POP DUP1 PUSH2 0x83D JUMP JUMPDEST PUSH1 0x0 DUP9 DUP2 MSTORE PUSH1 0x3 PUSH1 0x20 DUP2 DUP2 MSTORE PUSH1 0x40 SWAP3 DUP4 SWAP1 KECCAK256 DUP4 MLOAD PUSH1 0xC0 DUP2 ADD DUP6 MSTORE DUP2 SLOAD DUP2 MSTORE PUSH1 0x1 DUP3 ADD SLOAD SWAP3 DUP2 ADD SWAP3 SWAP1 SWAP3 MSTORE PUSH1 0x2 DUP2 ADD SLOAD SWAP4 DUP3 ADD SWAP4 SWAP1 SWAP4 MSTORE SWAP1 DUP3 ADD SLOAD PUSH1 0x60 DUP3 ADD DUP2 SWAP1 MSTORE PUSH1 0x4 DUP4 ADD SLOAD PUSH1 0x80 DUP4 ADD MSTORE PUSH1 0x5 SWAP1 SWAP3 ADD SLOAD PUSH1 0x1 PUSH1 0x1 PUSH1 0xA0 SHL SUB AND PUSH1 0xA0 DUP3 ADD MSTORE SWAP1 DUP9 GT DUP1 PUSH2 0x73B JUMPI POP DUP1 PUSH1 0x40 ADD MLOAD DUP9 LT JUMPDEST ISZERO PUSH2 0x754 JUMPI PUSH1 0x0 DUP1 PUSH1 0x0 DUP1 SWAP5 POP SWAP5 POP SWAP5 POP SWAP5 POP POP PUSH2 0x83D JUMP JUMPDEST PUSH1 0x0 DUP2 PUSH1 0x60 ADD MLOAD DUP10 EQ ISZERO PUSH2 0x769 JUMPI POP DUP6 PUSH2 0x7DA JUMP JUMPDEST PUSH1 0x0 DUP3 PUSH1 0x40 ADD MLOAD DUP4 PUSH1 0x60 ADD MLOAD PUSH2 0x77F SWAP2 SWAP1 PUSH2 0xE08 JUMP JUMPDEST PUSH3 0xF4240 PUSH2 0x78D DUP12 DUP12 PUSH2 0xE08 JUMP JUMPDEST PUSH2 0x797 SWAP2 SWAP1 PUSH2 0xE1F JUMP JUMPDEST PUSH2 0x7A1 SWAP2 SWAP1 PUSH2 0xE82 JUMP JUMPDEST SWAP1 POP DUP9 PUSH3 0xF4240 DUP5 PUSH1 0x40 ADD MLOAD DUP13 PUSH2 0x7B8 SWAP2 SWAP1 PUSH2 0xE08 JUMP JUMPDEST PUSH2 0x7C2 SWAP1 DUP5 PUSH2 0xE1F JUMP JUMPDEST PUSH2 0x7CC SWAP2 SWAP1 PUSH2 0xE82 JUMP JUMPDEST PUSH2 0x7D6 SWAP2 SWAP1 PUSH2 0xEA4 JUMP JUMPDEST SWAP2 POP POP JUMPDEST PUSH1 0x0 PUSH2 0x7E7 DUP11 PUSH1 0x64 PUSH2 0xE1F JUMP JUMPDEST PUSH1 0x80 DUP5 ADD MLOAD PUSH2 0x7F7 SWAP1 PUSH1 0x64 PUSH2 0xE08 JUMP JUMPDEST PUSH2 0x801 SWAP1 DUP5 PUSH2 0xE1F JUMP JUMPDEST PUSH2 0x80B SWAP2 SWAP1 PUSH2 0xE82 JUMP JUMPDEST SWAP1 POP PUSH1 0x0 PUSH2 0x819 DUP3 DUP5 PUSH2 0xE82 JUMP JUMPDEST PUSH2 0x823 DUP13 TIMESTAMP PUSH2 0xEA4 JUMP JUMPDEST PUSH2 0x82D SWAP2 SWAP1 PUSH2 0xE08 JUMP JUMPDEST PUSH1 0x1 SWAP9 POP SWAP3 SWAP7 POP SWAP1 SWAP5 POP SWAP1 SWAP3 POP POP POP JUMPDEST SWAP5 POP SWAP5 POP SWAP5 POP SWAP5 SWAP1 POP JUMP JUMPDEST CALLER PUSH1 0x1 PUSH1 0x1 PUSH1 0xA0 SHL SUB DUP7 AND EQ PUSH2 0x8AC JUMPI PUSH1 0x40 MLOAD PUSH3 0x461BCD PUSH1 0xE5 SHL DUP2 MSTORE PUSH1 0x20 PUSH1 0x4 DUP3 ADD MSTORE PUSH1 0x24 DUP1 DUP3 ADD MSTORE PUSH32 0x43616E206F6E6C7920696E697469616C697A6520796F7572206F776E20747261 PUSH1 0x44 DUP3 ADD MSTORE PUSH4 0x6E636865 PUSH1 0xE0 SHL PUSH1 0x64 DUP3 ADD MSTORE PUSH1 0x84 ADD PUSH2 0x30E JUMP JUMPDEST PUSH1 0x1 PUSH1 0x1 PUSH1 0xA0 SHL SUB DUP6 AND PUSH1 0x0 SWAP1 DUP2 MSTORE PUSH1 0x2 PUSH1 0x20 SWAP1 DUP2 MSTORE PUSH1 0x40 DUP1 DUP4 KECCAK256 DUP10 DUP5 MSTORE SWAP1 SWAP2 MSTORE SWAP1 KECCAK256 SLOAD PUSH1 0xFF AND ISZERO PUSH2 0x916 JUMPI PUSH1 0x40 MLOAD PUSH3 0x461BCD PUSH1 0xE5 SHL DUP2 MSTORE PUSH1 0x20 PUSH1 0x4 DUP3 ADD MSTORE PUSH1 0x13 PUSH1 0x24 DUP3 ADD MSTORE PUSH19 0x105B1C9958591E481A5B9A5D1A585B1A5E9959 PUSH1 0x6A SHL PUSH1 0x44 DUP3 ADD MSTORE PUSH1 0x64 ADD PUSH2 0x30E JUMP JUMPDEST PUSH1 0x40 DUP1 MLOAD PUSH1 0x1 PUSH1 0x1 PUSH1 0xA0 SHL SUB DUP8 AND PUSH1 0x20 DUP3 ADD MSTORE SWAP1 DUP2 ADD DUP5 SWAP1 MSTORE PUSH1 0x60 DUP2 ADD DUP4 SWAP1 MSTORE PUSH1 0x0 SWAP1 PUSH1 0x80 ADD PUSH1 0x40 DUP1 MLOAD PUSH1 0x1F NOT DUP2 DUP5 SUB ADD DUP2 MSTORE DUP3 DUP3 MSTORE DUP1 MLOAD PUSH1 0x20 SWAP2 DUP3 ADD KECCAK256 PUSH1 0x0 DUP12 DUP2 MSTORE PUSH1 0x3 DUP1 DUP5 MSTORE SWAP1 DUP5 SWAP1 KECCAK256 PUSH1 0xC0 DUP7 ADD DUP6 MSTORE DUP1 SLOAD DUP1 DUP8 MSTORE PUSH1 0x1 DUP3 ADD SLOAD SWAP5 DUP8 ADD SWAP5 SWAP1 SWAP5 MSTORE PUSH1 0x2 DUP2 ADD SLOAD DUP7 DUP7 ADD MSTORE SWAP1 DUP2 ADD SLOAD PUSH1 0x60 DUP7 ADD MSTORE PUSH1 0x4 DUP1 DUP3 ADD SLOAD PUSH1 0x80 DUP8 ADD MSTORE PUSH1 0x5 SWAP1 SWAP2 ADD SLOAD PUSH1 0x1 PUSH1 0x1 PUSH1 0xA0 SHL SUB AND PUSH1 0xA0 DUP7 ADD MSTORE SWAP3 MLOAD PUSH4 0x2769CD1F PUSH1 0xE2 SHL DUP2 MSTORE SWAP1 SWAP5 POP PUSH20 0x0 SWAP3 PUSH4 0x9DA7347C SWAP3 PUSH2 0x9E5 SWAP3 SWAP1 SWAP2 DUP8 SWAP2 DUP10 SWAP2 ADD PUSH2 0xEBC JUMP JUMPDEST PUSH1 0x20 PUSH1 0x40 MLOAD DUP1 DUP4 SUB DUP2 DUP7 DUP1 EXTCODESIZE ISZERO DUP1 ISZERO PUSH2 0x9FD JUMPI PUSH1 0x0 DUP1 REVERT JUMPDEST POP GAS DELEGATECALL ISZERO DUP1 ISZERO PUSH2 0xA11 JUMPI RETURNDATASIZE PUSH1 0x0 DUP1 RETURNDATACOPY RETURNDATASIZE PUSH1 0x0 REVERT JUMPDEST POP POP POP POP PUSH1 0x40 MLOAD RETURNDATASIZE PUSH1 0x1F NOT PUSH1 0x1F DUP3 ADD AND DUP3 ADD DUP1 PUSH1 0x40 MSTORE POP DUP2 ADD SWAP1 PUSH2 0xA35 SWAP2 SWAP1 PUSH2 0xE3E JUMP JUMPDEST PUSH2 0xA81 JUMPI PUSH1 0x40 MLOAD PUSH3 0x461BCD PUSH1 0xE5 SHL DUP2 MSTORE PUSH1 0x20 PUSH1 0x4 DUP3 ADD DUP2 SWAP1 MSTORE PUSH1 0x24 DUP3 ADD MSTORE PUSH32 0x5468652070726F6F6620636F756C64206E6F742062652076657269666965642E PUSH1 0x44 DUP3 ADD MSTORE PUSH1 0x64 ADD PUSH2 0x30E JUMP JUMPDEST PUSH1 0x1 PUSH1 0x1 PUSH1 0xA0 SHL SUB DUP8 AND PUSH1 0x0 SWAP1 DUP2 MSTORE PUSH1 0x2 PUSH1 0x20 SWAP1 DUP2 MSTORE PUSH1 0x40 DUP1 DUP4 KECCAK256 DUP12 DUP5 MSTORE SWAP1 SWAP2 MSTORE DUP2 KECCAK256 DUP1 SLOAD PUSH1 0xFF NOT AND PUSH1 0x1 OR SWAP1 SSTORE DUP1 DUP1 DUP1 PUSH2 0xABE DUP13 DUP12 DUP12 DUP12 PUSH2 0x6AA JUMP JUMPDEST SWAP4 POP SWAP4 POP SWAP4 POP SWAP4 POP DUP4 PUSH2 0xB13 JUMPI PUSH1 0x40 MLOAD PUSH3 0x461BCD PUSH1 0xE5 SHL DUP2 MSTORE PUSH1 0x20 PUSH1 0x4 DUP3 ADD MSTORE PUSH1 0x18 PUSH1 0x24 DUP3 ADD MSTORE PUSH32 0x496E76616C69642076657374696E67207363686564756C650000000000000000 PUSH1 0x44 DUP3 ADD MSTORE PUSH1 0x64 ADD PUSH2 0x30E JUMP JUMPDEST PUSH1 0x40 MLOAD DUP1 PUSH1 0xC0 ADD PUSH1 0x40 MSTORE DUP1 DUP5 DUP2 MSTORE PUSH1 0x20 ADD DUP5 DUP2 MSTORE PUSH1 0x20 ADD DUP3 DUP2 MSTORE PUSH1 0x20 ADD DUP12 TIMESTAMP PUSH2 0xB3C SWAP2 SWAP1 PUSH2 0xEA4 JUMP JUMPDEST DUP2 MSTORE PUSH1 0x20 ADD DUP4 DUP2 MSTORE PUSH1 0x20 ADD DUP3 DUP2 MSTORE POP PUSH1 0x4 PUSH1 0x0 DUP14 PUSH1 0x1 PUSH1 0x1 PUSH1 0xA0 SHL SUB AND PUSH1 0x1 PUSH1 0x1 PUSH1 0xA0 SHL SUB AND DUP2 MSTORE PUSH1 0x20 ADD SWAP1 DUP2 MSTORE PUSH1 0x20 ADD PUSH1 0x0 KECCAK256 PUSH1 0x0 DUP15 DUP2 MSTORE PUSH1 0x20 ADD SWAP1 DUP2 MSTORE PUSH1 0x20 ADD PUSH1 0x0 KECCAK256 PUSH1 0x0 DUP3 ADD MLOAD DUP2 PUSH1 0x0 ADD SSTORE PUSH1 0x20 DUP3 ADD MLOAD DUP2 PUSH1 0x1 ADD SSTORE PUSH1 0x40 DUP3 ADD MLOAD DUP2 PUSH1 0x2 ADD SSTORE PUSH1 0x60 DUP3 ADD MLOAD DUP2 PUSH1 0x3 ADD SSTORE PUSH1 0x80 DUP3 ADD MLOAD DUP2 PUSH1 0x4 ADD SSTORE PUSH1 0xA0 DUP3 ADD MLOAD DUP2 PUSH1 0x5 ADD SSTORE SWAP1 POP POP PUSH2 0xBCA DUP13 DUP13 PUSH2 0x28F JUMP JUMPDEST POP POP POP POP POP POP POP POP POP POP POP POP JUMP JUMPDEST DUP1 CALLDATALOAD PUSH1 0x1 PUSH1 0x1 PUSH1 0xA0 SHL SUB DUP2 AND DUP2 EQ PUSH2 0xBEF JUMPI PUSH1 0x0 DUP1 REVERT JUMPDEST SWAP2 SWAP1 POP JUMP JUMPDEST PUSH1 0x0 DUP1 PUSH1 0x40 DUP4 DUP6 SUB SLT ISZERO PUSH2 0xC07 JUMPI PUSH1 0x0 DUP1 REVERT JUMPDEST DUP3 CALLDATALOAD SWAP2 POP PUSH2 0xC17 PUSH1 0x20 DUP5 ADD PUSH2 0xBD8 JUMP JUMPDEST SWAP1 POP SWAP3 POP SWAP3 SWAP1 POP JUMP JUMPDEST PUSH1 0x0 DUP1 PUSH1 0x0 DUP1 PUSH1 0x0 DUP1 PUSH1 0xC0 DUP8 DUP10 SUB SLT ISZERO PUSH2 0xC39 JUMPI PUSH1 0x0 DUP1 REVERT JUMPDEST DUP7 CALLDATALOAD SWAP6 POP PUSH1 0x20 DUP8 ADD CALLDATALOAD SWAP5 POP PUSH1 0x40 DUP8 ADD CALLDATALOAD SWAP4 POP PUSH1 0x60 DUP8 ADD CALLDATALOAD SWAP3 POP PUSH1 0x80 DUP8 ADD CALLDATALOAD SWAP2 POP PUSH2 0xC65 PUSH1 0xA0 DUP9 ADD PUSH2 0xBD8 JUMP JUMPDEST SWAP1 POP SWAP3 SWAP6 POP SWAP3 SWAP6 POP SWAP3 SWAP6 JUMP JUMPDEST PUSH1 0x0 DUP1 PUSH1 0x0 DUP1 PUSH1 0x80 DUP6 DUP8 SUB SLT ISZERO PUSH2 0xC87 JUMPI PUSH1 0x0 DUP1 REVERT JUMPDEST POP POP DUP3 CALLDATALOAD SWAP5 PUSH1 0x20 DUP5 ADD CALLDATALOAD SWAP5 POP PUSH1 0x40 DUP5 ADD CALLDATALOAD SWAP4 PUSH1 0x60 ADD CALLDATALOAD SWAP3 POP SWAP1 POP JUMP JUMPDEST PUSH1 0x0 PUSH1 0x20 DUP3 DUP5 SUB SLT ISZERO PUSH2 0xCB5 JUMPI PUSH1 0x0 DUP1 REVERT JUMPDEST POP CALLDATALOAD SWAP2 SWAP1 POP JUMP JUMPDEST PUSH1 0x0 DUP1 PUSH1 0x40 DUP4 DUP6 SUB SLT ISZERO PUSH2 0xCCF JUMPI PUSH1 0x0 DUP1 REVERT JUMPDEST PUSH2 0xCD8 DUP4 PUSH2 0xBD8 JUMP JUMPDEST SWAP5 PUSH1 0x20 SWAP4 SWAP1 SWAP4 ADD CALLDATALOAD SWAP4 POP POP POP JUMP JUMPDEST PUSH4 0x4E487B71 PUSH1 0xE0 SHL PUSH1 0x0 MSTORE PUSH1 0x41 PUSH1 0x4 MSTORE PUSH1 0x24 PUSH1 0x0 REVERT JUMPDEST PUSH1 0x0 DUP1 PUSH1 0x0 DUP1 PUSH1 0x0 DUP1 PUSH1 0xC0 DUP8 DUP10 SUB SLT ISZERO PUSH2 0xD15 JUMPI PUSH1 0x0 DUP1 REVERT JUMPDEST DUP7 CALLDATALOAD SWAP6 POP PUSH1 0x20 PUSH2 0xD26 DUP2 DUP10 ADD PUSH2 0xBD8 JUMP JUMPDEST SWAP6 POP PUSH1 0x40 DUP9 ADD CALLDATALOAD SWAP5 POP PUSH1 0x60 DUP9 ADD CALLDATALOAD SWAP4 POP PUSH1 0x80 DUP9 ADD CALLDATALOAD SWAP3 POP PUSH1 0xA0 DUP9 ADD CALLDATALOAD PUSH8 0xFFFFFFFFFFFFFFFF DUP1 DUP3 GT ISZERO PUSH2 0xD58 JUMPI PUSH1 0x0 DUP1 REVERT JUMPDEST DUP2 DUP11 ADD SWAP2 POP DUP11 PUSH1 0x1F DUP4 ADD SLT PUSH2 0xD6C JUMPI PUSH1 0x0 DUP1 REVERT JUMPDEST DUP2 CALLDATALOAD DUP2 DUP2 GT ISZERO PUSH2 0xD7E JUMPI PUSH2 0xD7E PUSH2 0xCE6 JUMP JUMPDEST DUP1 PUSH1 0x5 SHL PUSH1 0x40 MLOAD PUSH1 0x1F NOT PUSH1 0x3F DUP4 ADD AND DUP2 ADD DUP2 DUP2 LT DUP6 DUP3 GT OR ISZERO PUSH2 0xDA3 JUMPI PUSH2 0xDA3 PUSH2 0xCE6 JUMP JUMPDEST PUSH1 0x40 MSTORE SWAP2 DUP3 MSTORE DUP5 DUP3 ADD SWAP3 POP DUP4 DUP2 ADD DUP6 ADD SWAP2 DUP14 DUP4 GT ISZERO PUSH2 0xDC1 JUMPI PUSH1 0x0 DUP1 REVERT JUMPDEST SWAP4 DUP6 ADD SWAP4 JUMPDEST DUP3 DUP6 LT ISZERO PUSH2 0xDDF JUMPI DUP5 CALLDATALOAD DUP5 MSTORE SWAP4 DUP6 ADD SWAP4 SWAP3 DUP6 ADD SWAP3 PUSH2 0xDC6 JUMP JUMPDEST DUP1 SWAP7 POP POP POP POP POP POP POP SWAP3 SWAP6 POP SWAP3 SWAP6 POP SWAP3 SWAP6 JUMP JUMPDEST PUSH4 0x4E487B71 PUSH1 0xE0 SHL PUSH1 0x0 MSTORE PUSH1 0x11 PUSH1 0x4 MSTORE PUSH1 0x24 PUSH1 0x0 REVERT JUMPDEST PUSH1 0x0 DUP3 DUP3 LT ISZERO PUSH2 0xE1A JUMPI PUSH2 0xE1A PUSH2 0xDF2 JUMP JUMPDEST POP SUB SWAP1 JUMP JUMPDEST PUSH1 0x0 DUP2 PUSH1 0x0 NOT DIV DUP4 GT DUP3 ISZERO ISZERO AND ISZERO PUSH2 0xE39 JUMPI PUSH2 0xE39 PUSH2 0xDF2 JUMP JUMPDEST POP MUL SWAP1 JUMP JUMPDEST PUSH1 0x0 PUSH1 0x20 DUP3 DUP5 SUB SLT ISZERO PUSH2 0xE50 JUMPI PUSH1 0x0 DUP1 REVERT JUMPDEST DUP2 MLOAD DUP1 ISZERO ISZERO DUP2 EQ PUSH2 0xE60 JUMPI PUSH1 0x0 DUP1 REVERT JUMPDEST SWAP4 SWAP3 POP POP POP JUMP JUMPDEST PUSH1 0x0 PUSH1 0x0 NOT DUP3 EQ ISZERO PUSH2 0xE7B JUMPI PUSH2 0xE7B PUSH2 0xDF2 JUMP JUMPDEST POP PUSH1 0x1 ADD SWAP1 JUMP JUMPDEST PUSH1 0x0 DUP3 PUSH2 0xE9F JUMPI PUSH4 0x4E487B71 PUSH1 0xE0 SHL PUSH1 0x0 MSTORE PUSH1 0x12 PUSH1 0x4 MSTORE PUSH1 0x24 PUSH1 0x0 REVERT JUMPDEST POP DIV SWAP1 JUMP JUMPDEST PUSH1 0x0 DUP3 NOT DUP3 GT ISZERO PUSH2 0xEB7 JUMPI PUSH2 0xEB7 PUSH2 0xDF2 JUMP JUMPDEST POP ADD SWAP1 JUMP JUMPDEST PUSH1 0x0 PUSH1 0x60 DUP3 ADD DUP6 DUP4 MSTORE PUSH1 0x20 DUP6 DUP2 DUP6 ADD MSTORE PUSH1 0x60 PUSH1 0x40 DUP6 ADD MSTORE DUP2 DUP6 MLOAD DUP1 DUP5 MSTORE PUSH1 0x80 DUP7 ADD SWAP2 POP DUP3 DUP8 ADD SWAP4 POP PUSH1 0x0 JUMPDEST DUP2 DUP2 LT ISZERO PUSH2 0xF03 JUMPI DUP5 MLOAD DUP4 MSTORE SWAP4 DUP4 ADD SWAP4 SWAP2 DUP4 ADD SWAP2 PUSH1 0x1 ADD PUSH2 0xEE7 JUMP JUMPDEST POP SWAP1 SWAP9 SWAP8 POP POP POP POP POP POP POP POP JUMP INVALID LOG2 PUSH5 0x6970667358 0x22 SLT KECCAK256 0xD7 SELFBALANCE SGT DUP9 GASLIMIT 0x23 0xB8 0xAD 0x49 PUSH20 0x3BB4EDC64746F17086976828E898C637CA79E3AE 0xC0 DIFFICULTY PUSH5 0x736F6C6343 STOP ADDMOD MULMOD STOP CALLER ",
  "sha1": "229e10fb934c366bd6fca5b5c0c8c0afc41531b9",
  "source": "// SPDX-License-Identifier: GPL-3.0-only\n\npragma solidity 0.8.9;\n\nimport \"../interfaces/IERC20.sol\";\nimport \"./MerkleLib.sol\";\n\ncontract DummyMerkleResistor {\n    using MerkleLib for bytes32;\n\n    uint public numTrees = 0;\n    uint public initialBalance;\n\n    struct Tranche {\n        uint totalCoins;\n        uint currentCoins;\n        uint startTime;\n        uint endTime;\n        uint coinsPerSecond;\n        uint lastWithdrawalTime;\n    }\n\n    struct MerkleTree {\n        bytes32 merkleRoot;\n        bytes32 ipfsHash;\n        uint minEndTime; // offsets\n        uint maxEndTime; // offsets\n        uint pctUpFront;\n        address tokenAddress;\n    }\n\n    mapping (address => mapping (uint => bool)) public initialized;\n    mapping (uint => MerkleTree) public merkleTrees;\n    mapping (address => mapping (uint => Tranche)) public tranches;\n\n    uint constant public PRECISION = 1000000;\n    uint constant public ERROR_TOLERANCE = 1;\n\n    event WithdrawalOccurred(address indexed destination, uint numTokens, uint tokensLeft, uint indexed merkleIndex);\n    event MerkleTreeAdded(uint indexed index, address indexed tokenAddress, bytes32 newRoot, bytes32 ipfsHash);\n\n    constructor() {\n    }\n\n    function addMerkleTree(bytes32 newRoot, bytes32 ipfsHash, uint minEndTime, uint maxEndTime, uint pctUpFront, address depositToken) public {\n        require(pctUpFront < 100, 'pctUpFront >= 100');\n        require(minEndTime < maxEndTime, 'minEndTime must be less than maxEndTime');\n        merkleTrees[++numTrees] = MerkleTree(\n            newRoot,\n            ipfsHash,\n            minEndTime,\n            maxEndTime,\n            pctUpFront,\n            depositToken\n        );\n        emit MerkleTreeAdded(numTrees, depositToken, newRoot, ipfsHash);\n    }\n\n    function initialize(uint merkleIndex, address destination, uint vestingTime, uint minTotalPayments, uint maxTotalPayments, bytes32[] memory proof) external {\n        require(msg.sender == destination, 'Can only initialize your own tranche');\n        require(!initialized[destination][merkleIndex], \"Already initialized\");\n        bytes32 leaf = keccak256(abi.encode(destination, minTotalPayments, maxTotalPayments));\n        MerkleTree memory tree = merkleTrees[merkleIndex];\n        require(tree.merkleRoot.verifyProof(leaf, proof), \"The proof could not be verified.\");\n        initialized[destination][merkleIndex] = true;\n\n        (bool valid, uint totalCoins, uint coinsPerSecond, uint startTime) = verifyVestingSchedule(merkleIndex, vestingTime, minTotalPayments, maxTotalPayments);\n        require(valid, 'Invalid vesting schedule');\n\n        tranches[destination][merkleIndex] = Tranche(\n            totalCoins,\n            totalCoins,\n            startTime,\n            block.timestamp + vestingTime,\n            coinsPerSecond,\n            startTime\n        );\n        withdraw(merkleIndex, destination);\n    }\n\n    function withdraw(uint merkleIndex, address destination) public {\n        require(initialized[destination][merkleIndex], \"You must initialize your account first.\");\n        Tranche storage tranche = tranches[destination][merkleIndex];\n        MerkleTree memory tree = merkleTrees[merkleIndex];\n        require(tranche.currentCoins >  0, 'No coins left to withdraw');\n        uint currentWithdrawal = 0;\n\n        // if after vesting period ends, give them the remaining coins\n        if (block.timestamp >= tranche.endTime) {\n            currentWithdrawal = tranche.currentCoins;\n        } else {\n            // compute allowed withdrawal\n            currentWithdrawal = (block.timestamp - tranche.lastWithdrawalTime) * tranche.coinsPerSecond;\n        }\n\n        // update struct\n        tranche.currentCoins -= currentWithdrawal;\n        tranche.lastWithdrawalTime = block.timestamp;\n\n        // transfer the tokens, brah\n        IERC20(tree.tokenAddress).transfer(destination, currentWithdrawal);\n        emit WithdrawalOccurred(destination, currentWithdrawal, tranche.currentCoins, merkleIndex);\n    }\n\n    function verifyVestingSchedule(uint merkleIndex, uint vestingTime, uint minTotalPayments, uint maxTotalPayments) public view returns (bool, uint, uint, uint) {\n        if (merkleIndex > numTrees) {\n            return (false, 0, 0, 0);\n        }\n\n        MerkleTree memory tree = merkleTrees[merkleIndex];\n\n        if (vestingTime > tree.maxEndTime || vestingTime < tree.minEndTime) {\n            return (false, 0, 0, 0);\n        }\n\n        uint totalCoins;\n        if (vestingTime == tree.maxEndTime) {\n            totalCoins = maxTotalPayments;\n        } else {\n            uint paymentSlope = (maxTotalPayments - minTotalPayments) * PRECISION / (tree.maxEndTime - tree.minEndTime);\n            totalCoins = (paymentSlope * (vestingTime - tree.minEndTime) / PRECISION) + minTotalPayments;\n        }\n\n        uint coinsPerSecond = (totalCoins * (uint(100) - tree.pctUpFront)) / (vestingTime * 100);\n        uint startTime = block.timestamp + vestingTime - (totalCoins / coinsPerSecond);\n\n        return (true, totalCoins, coinsPerSecond, startTime);\n    }\n\n}\n",
  "sourcePath": "contracts/DummyMerkleResistor.sol",
  "type": "contract"
}