{
  "abi": [
    {
      "inputs": [
        {
          "internalType": "contract IERC20",
          "name": "_token",
          "type": "address"
        },
        {
          "internalType": "bytes32",
          "name": "_root",
          "type": "bytes32"
        }
      ],
      "stateMutability": "nonpayable",
      "type": "constructor"
    },
    {
      "anonymous": false,
      "inputs": [
        {
          "indexed": true,
          "internalType": "uint256",
          "name": "index",
          "type": "uint256"
        },
        {
          "indexed": false,
          "internalType": "bytes32",
          "name": "newRoot",
          "type": "bytes32"
        }
      ],
      "name": "MerkleRootAdded",
      "type": "event"
    },
    {
      "anonymous": false,
      "inputs": [
        {
          "indexed": false,
          "internalType": "address",
          "name": "destination",
          "type": "address"
        },
        {
          "indexed": false,
          "internalType": "uint256",
          "name": "numTokens",
          "type": "uint256"
        },
        {
          "indexed": false,
          "internalType": "uint256",
          "name": "tokensLeft",
          "type": "uint256"
        }
      ],
      "name": "WithdrawalOccurred",
      "type": "event"
    },
    {
      "inputs": [
        {
          "internalType": "bytes32",
          "name": "newRoot",
          "type": "bytes32"
        }
      ],
      "name": "addMerkleRoot",
      "outputs": [],
      "stateMutability": "nonpayable",
      "type": "function"
    },
    {
      "inputs": [],
      "name": "initialBalance",
      "outputs": [
        {
          "internalType": "uint256",
          "name": "",
          "type": "uint256"
        }
      ],
      "stateMutability": "view",
      "type": "function"
    },
    {
      "inputs": [
        {
          "internalType": "uint256",
          "name": "merkleIndex",
          "type": "uint256"
        },
        {
          "internalType": "address",
          "name": "destination",
          "type": "address"
        },
        {
          "internalType": "uint256",
          "name": "totalCoins",
          "type": "uint256"
        },
        {
          "internalType": "uint256",
          "name": "startTime",
          "type": "uint256"
        },
        {
          "internalType": "uint256",
          "name": "endTime",
          "type": "uint256"
        },
        {
          "internalType": "bytes32[]",
          "name": "proof",
          "type": "bytes32[]"
        }
      ],
      "name": "initialize",
      "outputs": [],
      "stateMutability": "nonpayable",
      "type": "function"
    },
    {
      "inputs": [
        {
          "internalType": "address",
          "name": "",
          "type": "address"
        }
      ],
      "name": "initialized",
      "outputs": [
        {
          "internalType": "bool",
          "name": "",
          "type": "bool"
        }
      ],
      "stateMutability": "view",
      "type": "function"
    },
    {
      "inputs": [
        {
          "internalType": "uint256",
          "name": "",
          "type": "uint256"
        }
      ],
      "name": "merkleRoots",
      "outputs": [
        {
          "internalType": "bytes32",
          "name": "",
          "type": "bytes32"
        }
      ],
      "stateMutability": "view",
      "type": "function"
    },
    {
      "inputs": [],
      "name": "numRoots",
      "outputs": [
        {
          "internalType": "uint256",
          "name": "",
          "type": "uint256"
        }
      ],
      "stateMutability": "view",
      "type": "function"
    },
    {
      "inputs": [],
      "name": "token",
      "outputs": [
        {
          "internalType": "contract IERC20",
          "name": "",
          "type": "address"
        }
      ],
      "stateMutability": "view",
      "type": "function"
    },
    {
      "inputs": [
        {
          "internalType": "address",
          "name": "",
          "type": "address"
        }
      ],
      "name": "tranches",
      "outputs": [
        {
          "internalType": "uint256",
          "name": "totalCoins",
          "type": "uint256"
        },
        {
          "internalType": "uint256",
          "name": "currentCoins",
          "type": "uint256"
        },
        {
          "internalType": "uint256",
          "name": "startTime",
          "type": "uint256"
        },
        {
          "internalType": "uint256",
          "name": "endTime",
          "type": "uint256"
        },
        {
          "internalType": "uint256",
          "name": "coinsPerSecond",
          "type": "uint256"
        },
        {
          "internalType": "uint256",
          "name": "lastWithdrawalTime",
          "type": "uint256"
        }
      ],
      "stateMutability": "view",
      "type": "function"
    }
  ],
  "bytecode": "608060405234801561001057600080fd5b50604051610a01380380610a0183398101604081905261002f91610086565b600280546001600160a01b0319166001600160a01b039390931692909217909155600160008181526020527fada5013122d395ba3c54772283fb069b10426056ef8ca54750cb9bb552a59e7d9190915580556100c0565b6000806040838503121561009957600080fd5b82516001600160a01b03811681146100b057600080fd5b6020939093015192949293505050565b610932806100cf6000396000f3fe608060405234801561001057600080fd5b50600436106100885760003560e01c80637cda64971161005b5780637cda64971461014e578063cbca47db14610157578063f287ad041461018a578063fc0c546a1461019d57600080fd5b806318369a2a1461008d5780633323c807146100a95780633bb0170d146100be57806371c5ecb11461012e575b600080fd5b61009660035481565b6040519081526020015b60405180910390f35b6100bc6100b7366004610699565b6101c8565b005b6101016100cc3660046106ce565b600560208190526000918252604090912080546001820154600283015460038401546004850154949095015492949193909286565b604080519687526020870195909552938501929092526060840152608083015260a082015260c0016100a0565b61009661013c366004610699565b60006020819052908152604090205481565b61009660015481565b61017a6101653660046106ce565b60046020526000908152604090205460ff1681565b60405190151581526020016100a0565b6100bc610198366004610706565b610232565b6002546101b0906001600160a01b031681565b6040516001600160a01b0390911681526020016100a0565b806000806001600081546101db90610812565b9190508190558152602001908152602001600020819055506001547f14ae70b7538cb704d414f634689a12a1b4ac99bcce8305042069d26ee7fed3f38260405161022791815260200190565b60405180910390a250565b6001600160a01b03851660009081526004602052604090205460ff16156102965760405162461bcd60e51b8152602060048201526013602482015272105b1c9958591e481a5b9a5d1a585b1a5e9959606a1b60448201526064015b60405180910390fd5b6040516bffffffffffffffffffffffff19606087901b16602082015260348101859052605481018490526074810183905260009060940160408051601f19818403018152828252805160209182012060008b81529182905291902054632769cd1f60e21b835290925073__MerkleLib_____________________________91639da7347c9161032b918590879060040161082d565b602060405180830381865af4158015610348573d6000803e3d6000fd5b505050506040513d601f19601f8201168201806040525081019061036c9190610882565b6103b85760405162461bcd60e51b815260206004820181905260248201527f5468652070726f6f6620636f756c64206e6f742062652076657269666965642e604482015260640161028d565b6001600160a01b0386166000908152600460205260408120805460ff191660011790556103e585856108a4565b6103ef90876108bb565b90506040518060c001604052808781526020018781526020018681526020018581526020018281526020018681525060056000896001600160a01b03166001600160a01b03168152602001908152602001600020600082015181600001556020820151816001015560408201518160020155606082015181600301556080820151816004015560a0820151816005015590505061048b87610495565b5050505050505050565b6001600160a01b03811660009081526004602052604090205460ff1661050d5760405162461bcd60e51b815260206004820152602760248201527f596f75206d75737420696e697469616c697a6520796f7572206163636f756e74604482015266103334b939ba1760c91b606482015260840161028d565b6001600160a01b038116600090815260056020526040902060018101546105765760405162461bcd60e51b815260206004820152601960248201527f4e6f20636f696e73206c65667420746f20776974686472617700000000000000604482015260640161028d565b60008160030154421061058e575060018101546105af565b600482015460058301546105a290426108a4565b6105ac91906108dd565b90505b808260010160008282546105c391906108a4565b909155505042600583015560025460405163a9059cbb60e01b81526001600160a01b038581166004830152602482018490529091169063a9059cbb906044016020604051808303816000875af1158015610621573d6000803e3d6000fd5b505050506040513d601f19601f820116820180604052508101906106459190610882565b506001820154604080516001600160a01b03861681526020810184905280820192909252517f840b2e72ac87c36be7e2e3f300d63bfe13603652df8705edbe38c230313531689181900360600190a1505050565b6000602082840312156106ab57600080fd5b5035919050565b80356001600160a01b03811681146106c957600080fd5b919050565b6000602082840312156106e057600080fd5b6106e9826106b2565b9392505050565b634e487b7160e01b600052604160045260246000fd5b60008060008060008060c0878903121561071f57600080fd5b8635955060206107308189016106b2565b955060408801359450606088013593506080880135925060a088013567ffffffffffffffff8082111561076257600080fd5b818a0191508a601f83011261077657600080fd5b813581811115610788576107886106f0565b8060051b604051601f19603f830116810181811085821117156107ad576107ad6106f0565b60405291825284820192508381018501918d8311156107cb57600080fd5b938501935b828510156107e9578435845293850193928501926107d0565b8096505050505050509295509295509295565b634e487b7160e01b600052601160045260246000fd5b6000600019821415610826576108266107fc565b5060010190565b6000606082018583526020858185015260606040850152818551808452608086019150828701935060005b8181101561087457845183529383019391830191600101610858565b509098975050505050505050565b60006020828403121561089457600080fd5b815180151581146106e957600080fd5b6000828210156108b6576108b66107fc565b500390565b6000826108d857634e487b7160e01b600052601260045260246000fd5b500490565b60008160001904831182151516156108f7576108f76107fc565b50029056fea2646970667358221220b1241213253f9f89666e8c983b2a4f12671516c021d108a37afe413ef7be106b64736f6c634300080c0033",
  "bytecodeSha1": "a2a710487a4a7f66983d79db26ec9834bdb80cd3",
  "compiler": {
    "evm_version": "istanbul",
    "optimizer": {
      "enabled": true,
      "runs": 200
    },
    "version": "0.8.12+commit.f00d7308"
  },
  "contractName": "DummyMerkleVesting",
  "deployedBytecode": "608060405234801561001057600080fd5b50600436106100885760003560e01c80637cda64971161005b5780637cda64971461014e578063cbca47db14610157578063f287ad041461018a578063fc0c546a1461019d57600080fd5b806318369a2a1461008d5780633323c807146100a95780633bb0170d146100be57806371c5ecb11461012e575b600080fd5b61009660035481565b6040519081526020015b60405180910390f35b6100bc6100b7366004610699565b6101c8565b005b6101016100cc3660046106ce565b600560208190526000918252604090912080546001820154600283015460038401546004850154949095015492949193909286565b604080519687526020870195909552938501929092526060840152608083015260a082015260c0016100a0565b61009661013c366004610699565b60006020819052908152604090205481565b61009660015481565b61017a6101653660046106ce565b60046020526000908152604090205460ff1681565b60405190151581526020016100a0565b6100bc610198366004610706565b610232565b6002546101b0906001600160a01b031681565b6040516001600160a01b0390911681526020016100a0565b806000806001600081546101db90610812565b9190508190558152602001908152602001600020819055506001547f14ae70b7538cb704d414f634689a12a1b4ac99bcce8305042069d26ee7fed3f38260405161022791815260200190565b60405180910390a250565b6001600160a01b03851660009081526004602052604090205460ff16156102965760405162461bcd60e51b8152602060048201526013602482015272105b1c9958591e481a5b9a5d1a585b1a5e9959606a1b60448201526064015b60405180910390fd5b6040516bffffffffffffffffffffffff19606087901b16602082015260348101859052605481018490526074810183905260009060940160408051601f19818403018152828252805160209182012060008b81529182905291902054632769cd1f60e21b835290925073__$61dd25696c02d5bd2863c8d2c1a2324a87$__91639da7347c9161032b918590879060040161082d565b602060405180830381865af4158015610348573d6000803e3d6000fd5b505050506040513d601f19601f8201168201806040525081019061036c9190610882565b6103b85760405162461bcd60e51b815260206004820181905260248201527f5468652070726f6f6620636f756c64206e6f742062652076657269666965642e604482015260640161028d565b6001600160a01b0386166000908152600460205260408120805460ff191660011790556103e585856108a4565b6103ef90876108bb565b90506040518060c001604052808781526020018781526020018681526020018581526020018281526020018681525060056000896001600160a01b03166001600160a01b03168152602001908152602001600020600082015181600001556020820151816001015560408201518160020155606082015181600301556080820151816004015560a0820151816005015590505061048b87610495565b5050505050505050565b6001600160a01b03811660009081526004602052604090205460ff1661050d5760405162461bcd60e51b815260206004820152602760248201527f596f75206d75737420696e697469616c697a6520796f7572206163636f756e74604482015266103334b939ba1760c91b606482015260840161028d565b6001600160a01b038116600090815260056020526040902060018101546105765760405162461bcd60e51b815260206004820152601960248201527f4e6f20636f696e73206c65667420746f20776974686472617700000000000000604482015260640161028d565b60008160030154421061058e575060018101546105af565b600482015460058301546105a290426108a4565b6105ac91906108dd565b90505b808260010160008282546105c391906108a4565b909155505042600583015560025460405163a9059cbb60e01b81526001600160a01b038581166004830152602482018490529091169063a9059cbb906044016020604051808303816000875af1158015610621573d6000803e3d6000fd5b505050506040513d601f19601f820116820180604052508101906106459190610882565b506001820154604080516001600160a01b03861681526020810184905280820192909252517f840b2e72ac87c36be7e2e3f300d63bfe13603652df8705edbe38c230313531689181900360600190a1505050565b6000602082840312156106ab57600080fd5b5035919050565b80356001600160a01b03811681146106c957600080fd5b919050565b6000602082840312156106e057600080fd5b6106e9826106b2565b9392505050565b634e487b7160e01b600052604160045260246000fd5b60008060008060008060c0878903121561071f57600080fd5b8635955060206107308189016106b2565b955060408801359450606088013593506080880135925060a088013567ffffffffffffffff8082111561076257600080fd5b818a0191508a601f83011261077657600080fd5b813581811115610788576107886106f0565b8060051b604051601f19603f830116810181811085821117156107ad576107ad6106f0565b60405291825284820192508381018501918d8311156107cb57600080fd5b938501935b828510156107e9578435845293850193928501926107d0565b8096505050505050509295509295509295565b634e487b7160e01b600052601160045260246000fd5b6000600019821415610826576108266107fc565b5060010190565b6000606082018583526020858185015260606040850152818551808452608086019150828701935060005b8181101561087457845183529383019391830191600101610858565b509098975050505050505050565b60006020828403121561089457600080fd5b815180151581146106e957600080fd5b6000828210156108b6576108b66107fc565b500390565b6000826108d857634e487b7160e01b600052601260045260246000fd5b500490565b60008160001904831182151516156108f7576108f76107fc565b50029056fea2646970667358221220b1241213253f9f89666e8c983b2a4f12671516c021d108a37afe413ef7be106b64736f6c634300080c0033",
  "language": "Solidity",
  "natspec": {
    "kind": "dev",
    "methods": {},
    "version": 1
  },
  "opcodes": "PUSH1 0x80 PUSH1 0x40 MSTORE CALLVALUE DUP1 ISZERO PUSH2 0x10 JUMPI PUSH1 0x0 DUP1 REVERT JUMPDEST POP PUSH1 0x4 CALLDATASIZE LT PUSH2 0x88 JUMPI PUSH1 0x0 CALLDATALOAD PUSH1 0xE0 SHR DUP1 PUSH4 0x7CDA6497 GT PUSH2 0x5B JUMPI DUP1 PUSH4 0x7CDA6497 EQ PUSH2 0x14E JUMPI DUP1 PUSH4 0xCBCA47DB EQ PUSH2 0x157 JUMPI DUP1 PUSH4 0xF287AD04 EQ PUSH2 0x18A JUMPI DUP1 PUSH4 0xFC0C546A EQ PUSH2 0x19D JUMPI PUSH1 0x0 DUP1 REVERT JUMPDEST DUP1 PUSH4 0x18369A2A EQ PUSH2 0x8D JUMPI DUP1 PUSH4 0x3323C807 EQ PUSH2 0xA9 JUMPI DUP1 PUSH4 0x3BB0170D EQ PUSH2 0xBE JUMPI DUP1 PUSH4 0x71C5ECB1 EQ PUSH2 0x12E JUMPI JUMPDEST PUSH1 0x0 DUP1 REVERT JUMPDEST PUSH2 0x96 PUSH1 0x3 SLOAD DUP2 JUMP JUMPDEST PUSH1 0x40 MLOAD SWAP1 DUP2 MSTORE PUSH1 0x20 ADD JUMPDEST PUSH1 0x40 MLOAD DUP1 SWAP2 SUB SWAP1 RETURN JUMPDEST PUSH2 0xBC PUSH2 0xB7 CALLDATASIZE PUSH1 0x4 PUSH2 0x699 JUMP JUMPDEST PUSH2 0x1C8 JUMP JUMPDEST STOP JUMPDEST PUSH2 0x101 PUSH2 0xCC CALLDATASIZE PUSH1 0x4 PUSH2 0x6CE JUMP JUMPDEST PUSH1 0x5 PUSH1 0x20 DUP2 SWAP1 MSTORE PUSH1 0x0 SWAP2 DUP3 MSTORE PUSH1 0x40 SWAP1 SWAP2 KECCAK256 DUP1 SLOAD PUSH1 0x1 DUP3 ADD SLOAD PUSH1 0x2 DUP4 ADD SLOAD PUSH1 0x3 DUP5 ADD SLOAD PUSH1 0x4 DUP6 ADD SLOAD SWAP5 SWAP1 SWAP6 ADD SLOAD SWAP3 SWAP5 SWAP2 SWAP4 SWAP1 SWAP3 DUP7 JUMP JUMPDEST PUSH1 0x40 DUP1 MLOAD SWAP7 DUP8 MSTORE PUSH1 0x20 DUP8 ADD SWAP6 SWAP1 SWAP6 MSTORE SWAP4 DUP6 ADD SWAP3 SWAP1 SWAP3 MSTORE PUSH1 0x60 DUP5 ADD MSTORE PUSH1 0x80 DUP4 ADD MSTORE PUSH1 0xA0 DUP3 ADD MSTORE PUSH1 0xC0 ADD PUSH2 0xA0 JUMP JUMPDEST PUSH2 0x96 PUSH2 0x13C CALLDATASIZE PUSH1 0x4 PUSH2 0x699 JUMP JUMPDEST PUSH1 0x0 PUSH1 0x20 DUP2 SWAP1 MSTORE SWAP1 DUP2 MSTORE PUSH1 0x40 SWAP1 KECCAK256 SLOAD DUP2 JUMP JUMPDEST PUSH2 0x96 PUSH1 0x1 SLOAD DUP2 JUMP JUMPDEST PUSH2 0x17A PUSH2 0x165 CALLDATASIZE PUSH1 0x4 PUSH2 0x6CE JUMP JUMPDEST PUSH1 0x4 PUSH1 0x20 MSTORE PUSH1 0x0 SWAP1 DUP2 MSTORE PUSH1 0x40 SWAP1 KECCAK256 SLOAD PUSH1 0xFF AND DUP2 JUMP JUMPDEST PUSH1 0x40 MLOAD SWAP1 ISZERO ISZERO DUP2 MSTORE PUSH1 0x20 ADD PUSH2 0xA0 JUMP JUMPDEST PUSH2 0xBC PUSH2 0x198 CALLDATASIZE PUSH1 0x4 PUSH2 0x706 JUMP JUMPDEST PUSH2 0x232 JUMP JUMPDEST PUSH1 0x2 SLOAD PUSH2 0x1B0 SWAP1 PUSH1 0x1 PUSH1 0x1 PUSH1 0xA0 SHL SUB AND DUP2 JUMP JUMPDEST PUSH1 0x40 MLOAD PUSH1 0x1 PUSH1 0x1 PUSH1 0xA0 SHL SUB SWAP1 SWAP2 AND DUP2 MSTORE PUSH1 0x20 ADD PUSH2 0xA0 JUMP JUMPDEST DUP1 PUSH1 0x0 DUP1 PUSH1 0x1 PUSH1 0x0 DUP2 SLOAD PUSH2 0x1DB SWAP1 PUSH2 0x812 JUMP JUMPDEST SWAP2 SWAP1 POP DUP2 SWAP1 SSTORE DUP2 MSTORE PUSH1 0x20 ADD SWAP1 DUP2 MSTORE PUSH1 0x20 ADD PUSH1 0x0 KECCAK256 DUP2 SWAP1 SSTORE POP PUSH1 0x1 SLOAD PUSH32 0x14AE70B7538CB704D414F634689A12A1B4AC99BCCE8305042069D26EE7FED3F3 DUP3 PUSH1 0x40 MLOAD PUSH2 0x227 SWAP2 DUP2 MSTORE PUSH1 0x20 ADD SWAP1 JUMP JUMPDEST PUSH1 0x40 MLOAD DUP1 SWAP2 SUB SWAP1 LOG2 POP JUMP JUMPDEST PUSH1 0x1 PUSH1 0x1 PUSH1 0xA0 SHL SUB DUP6 AND PUSH1 0x0 SWAP1 DUP2 MSTORE PUSH1 0x4 PUSH1 0x20 MSTORE PUSH1 0x40 SWAP1 KECCAK256 SLOAD PUSH1 0xFF AND ISZERO PUSH2 0x296 JUMPI PUSH1 0x40 MLOAD PUSH3 0x461BCD PUSH1 0xE5 SHL DUP2 MSTORE PUSH1 0x20 PUSH1 0x4 DUP3 ADD MSTORE PUSH1 0x13 PUSH1 0x24 DUP3 ADD MSTORE PUSH19 0x105B1C9958591E481A5B9A5D1A585B1A5E9959 PUSH1 0x6A SHL PUSH1 0x44 DUP3 ADD MSTORE PUSH1 0x64 ADD JUMPDEST PUSH1 0x40 MLOAD DUP1 SWAP2 SUB SWAP1 REVERT JUMPDEST PUSH1 0x40 MLOAD PUSH12 0xFFFFFFFFFFFFFFFFFFFFFFFF NOT PUSH1 0x60 DUP8 SWAP1 SHL AND PUSH1 0x20 DUP3 ADD MSTORE PUSH1 0x34 DUP2 ADD DUP6 SWAP1 MSTORE PUSH1 0x54 DUP2 ADD DUP5 SWAP1 MSTORE PUSH1 0x74 DUP2 ADD DUP4 SWAP1 MSTORE PUSH1 0x0 SWAP1 PUSH1 0x94 ADD PUSH1 0x40 DUP1 MLOAD PUSH1 0x1F NOT DUP2 DUP5 SUB ADD DUP2 MSTORE DUP3 DUP3 MSTORE DUP1 MLOAD PUSH1 0x20 SWAP2 DUP3 ADD KECCAK256 PUSH1 0x0 DUP12 DUP2 MSTORE SWAP2 DUP3 SWAP1 MSTORE SWAP2 SWAP1 KECCAK256 SLOAD PUSH4 0x2769CD1F PUSH1 0xE2 SHL DUP4 MSTORE SWAP1 SWAP3 POP PUSH20 0x0 SWAP2 PUSH4 0x9DA7347C SWAP2 PUSH2 0x32B SWAP2 DUP6 SWAP1 DUP8 SWAP1 PUSH1 0x4 ADD PUSH2 0x82D JUMP JUMPDEST PUSH1 0x20 PUSH1 0x40 MLOAD DUP1 DUP4 SUB DUP2 DUP7 GAS DELEGATECALL ISZERO DUP1 ISZERO PUSH2 0x348 JUMPI RETURNDATASIZE PUSH1 0x0 DUP1 RETURNDATACOPY RETURNDATASIZE PUSH1 0x0 REVERT JUMPDEST POP POP POP POP PUSH1 0x40 MLOAD RETURNDATASIZE PUSH1 0x1F NOT PUSH1 0x1F DUP3 ADD AND DUP3 ADD DUP1 PUSH1 0x40 MSTORE POP DUP2 ADD SWAP1 PUSH2 0x36C SWAP2 SWAP1 PUSH2 0x882 JUMP JUMPDEST PUSH2 0x3B8 JUMPI PUSH1 0x40 MLOAD PUSH3 0x461BCD PUSH1 0xE5 SHL DUP2 MSTORE PUSH1 0x20 PUSH1 0x4 DUP3 ADD DUP2 SWAP1 MSTORE PUSH1 0x24 DUP3 ADD MSTORE PUSH32 0x5468652070726F6F6620636F756C64206E6F742062652076657269666965642E PUSH1 0x44 DUP3 ADD MSTORE PUSH1 0x64 ADD PUSH2 0x28D JUMP JUMPDEST PUSH1 0x1 PUSH1 0x1 PUSH1 0xA0 SHL SUB DUP7 AND PUSH1 0x0 SWAP1 DUP2 MSTORE PUSH1 0x4 PUSH1 0x20 MSTORE PUSH1 0x40 DUP2 KECCAK256 DUP1 SLOAD PUSH1 0xFF NOT AND PUSH1 0x1 OR SWAP1 SSTORE PUSH2 0x3E5 DUP6 DUP6 PUSH2 0x8A4 JUMP JUMPDEST PUSH2 0x3EF SWAP1 DUP8 PUSH2 0x8BB JUMP JUMPDEST SWAP1 POP PUSH1 0x40 MLOAD DUP1 PUSH1 0xC0 ADD PUSH1 0x40 MSTORE DUP1 DUP8 DUP2 MSTORE PUSH1 0x20 ADD DUP8 DUP2 MSTORE PUSH1 0x20 ADD DUP7 DUP2 MSTORE PUSH1 0x20 ADD DUP6 DUP2 MSTORE PUSH1 0x20 ADD DUP3 DUP2 MSTORE PUSH1 0x20 ADD DUP7 DUP2 MSTORE POP PUSH1 0x5 PUSH1 0x0 DUP10 PUSH1 0x1 PUSH1 0x1 PUSH1 0xA0 SHL SUB AND PUSH1 0x1 PUSH1 0x1 PUSH1 0xA0 SHL SUB AND DUP2 MSTORE PUSH1 0x20 ADD SWAP1 DUP2 MSTORE PUSH1 0x20 ADD PUSH1 0x0 KECCAK256 PUSH1 0x0 DUP3 ADD MLOAD DUP2 PUSH1 0x0 ADD SSTORE PUSH1 0x20 DUP3 ADD MLOAD DUP2 PUSH1 0x1 ADD SSTORE PUSH1 0x40 DUP3 ADD MLOAD DUP2 PUSH1 0x2 ADD SSTORE PUSH1 0x60 DUP3 ADD MLOAD DUP2 PUSH1 0x3 ADD SSTORE PUSH1 0x80 DUP3 ADD MLOAD DUP2 PUSH1 0x4 ADD SSTORE PUSH1 0xA0 DUP3 ADD MLOAD DUP2 PUSH1 0x5 ADD SSTORE SWAP1 POP POP PUSH2 0x48B DUP8 PUSH2 0x495 JUMP JUMPDEST POP POP POP POP POP POP POP POP JUMP JUMPDEST PUSH1 0x1 PUSH1 0x1 PUSH1 0xA0 SHL SUB DUP2 AND PUSH1 0x0 SWAP1 DUP2 MSTORE PUSH1 0x4 PUSH1 0x20 MSTORE PUSH1 0x40 SWAP1 KECCAK256 SLOAD PUSH1 0xFF AND PUSH2 0x50D JUMPI PUSH1 0x40 MLOAD PUSH3 0x461BCD PUSH1 0xE5 SHL DUP2 MSTORE PUSH1 0x20 PUSH1 0x4 DUP3 ADD MSTORE PUSH1 0x27 PUSH1 0x24 DUP3 ADD MSTORE PUSH32 0x596F75206D75737420696E697469616C697A6520796F7572206163636F756E74 PUSH1 0x44 DUP3 ADD MSTORE PUSH7 0x103334B939BA17 PUSH1 0xC9 SHL PUSH1 0x64 DUP3 ADD MSTORE PUSH1 0x84 ADD PUSH2 0x28D JUMP JUMPDEST PUSH1 0x1 PUSH1 0x1 PUSH1 0xA0 SHL SUB DUP2 AND PUSH1 0x0 SWAP1 DUP2 MSTORE PUSH1 0x5 PUSH1 0x20 MSTORE PUSH1 0x40 SWAP1 KECCAK256 PUSH1 0x1 DUP2 ADD SLOAD PUSH2 0x576 JUMPI PUSH1 0x40 MLOAD PUSH3 0x461BCD PUSH1 0xE5 SHL DUP2 MSTORE PUSH1 0x20 PUSH1 0x4 DUP3 ADD MSTORE PUSH1 0x19 PUSH1 0x24 DUP3 ADD MSTORE PUSH32 0x4E6F20636F696E73206C65667420746F20776974686472617700000000000000 PUSH1 0x44 DUP3 ADD MSTORE PUSH1 0x64 ADD PUSH2 0x28D JUMP JUMPDEST PUSH1 0x0 DUP2 PUSH1 0x3 ADD SLOAD TIMESTAMP LT PUSH2 0x58E JUMPI POP PUSH1 0x1 DUP2 ADD SLOAD PUSH2 0x5AF JUMP JUMPDEST PUSH1 0x4 DUP3 ADD SLOAD PUSH1 0x5 DUP4 ADD SLOAD PUSH2 0x5A2 SWAP1 TIMESTAMP PUSH2 0x8A4 JUMP JUMPDEST PUSH2 0x5AC SWAP2 SWAP1 PUSH2 0x8DD JUMP JUMPDEST SWAP1 POP JUMPDEST DUP1 DUP3 PUSH1 0x1 ADD PUSH1 0x0 DUP3 DUP3 SLOAD PUSH2 0x5C3 SWAP2 SWAP1 PUSH2 0x8A4 JUMP JUMPDEST SWAP1 SWAP2 SSTORE POP POP TIMESTAMP PUSH1 0x5 DUP4 ADD SSTORE PUSH1 0x2 SLOAD PUSH1 0x40 MLOAD PUSH4 0xA9059CBB PUSH1 0xE0 SHL DUP2 MSTORE PUSH1 0x1 PUSH1 0x1 PUSH1 0xA0 SHL SUB DUP6 DUP2 AND PUSH1 0x4 DUP4 ADD MSTORE PUSH1 0x24 DUP3 ADD DUP5 SWAP1 MSTORE SWAP1 SWAP2 AND SWAP1 PUSH4 0xA9059CBB SWAP1 PUSH1 0x44 ADD PUSH1 0x20 PUSH1 0x40 MLOAD DUP1 DUP4 SUB DUP2 PUSH1 0x0 DUP8 GAS CALL ISZERO DUP1 ISZERO PUSH2 0x621 JUMPI RETURNDATASIZE PUSH1 0x0 DUP1 RETURNDATACOPY RETURNDATASIZE PUSH1 0x0 REVERT JUMPDEST POP POP POP POP PUSH1 0x40 MLOAD RETURNDATASIZE PUSH1 0x1F NOT PUSH1 0x1F DUP3 ADD AND DUP3 ADD DUP1 PUSH1 0x40 MSTORE POP DUP2 ADD SWAP1 PUSH2 0x645 SWAP2 SWAP1 PUSH2 0x882 JUMP JUMPDEST POP PUSH1 0x1 DUP3 ADD SLOAD PUSH1 0x40 DUP1 MLOAD PUSH1 0x1 PUSH1 0x1 PUSH1 0xA0 SHL SUB DUP7 AND DUP2 MSTORE PUSH1 0x20 DUP2 ADD DUP5 SWAP1 MSTORE DUP1 DUP3 ADD SWAP3 SWAP1 SWAP3 MSTORE MLOAD PUSH32 0x840B2E72AC87C36BE7E2E3F300D63BFE13603652DF8705EDBE38C23031353168 SWAP2 DUP2 SWAP1 SUB PUSH1 0x60 ADD SWAP1 LOG1 POP POP POP JUMP JUMPDEST PUSH1 0x0 PUSH1 0x20 DUP3 DUP5 SUB SLT ISZERO PUSH2 0x6AB JUMPI PUSH1 0x0 DUP1 REVERT JUMPDEST POP CALLDATALOAD SWAP2 SWAP1 POP JUMP JUMPDEST DUP1 CALLDATALOAD PUSH1 0x1 PUSH1 0x1 PUSH1 0xA0 SHL SUB DUP2 AND DUP2 EQ PUSH2 0x6C9 JUMPI PUSH1 0x0 DUP1 REVERT JUMPDEST SWAP2 SWAP1 POP JUMP JUMPDEST PUSH1 0x0 PUSH1 0x20 DUP3 DUP5 SUB SLT ISZERO PUSH2 0x6E0 JUMPI PUSH1 0x0 DUP1 REVERT JUMPDEST PUSH2 0x6E9 DUP3 PUSH2 0x6B2 JUMP JUMPDEST SWAP4 SWAP3 POP POP POP JUMP JUMPDEST PUSH4 0x4E487B71 PUSH1 0xE0 SHL PUSH1 0x0 MSTORE PUSH1 0x41 PUSH1 0x4 MSTORE PUSH1 0x24 PUSH1 0x0 REVERT JUMPDEST PUSH1 0x0 DUP1 PUSH1 0x0 DUP1 PUSH1 0x0 DUP1 PUSH1 0xC0 DUP8 DUP10 SUB SLT ISZERO PUSH2 0x71F JUMPI PUSH1 0x0 DUP1 REVERT JUMPDEST DUP7 CALLDATALOAD SWAP6 POP PUSH1 0x20 PUSH2 0x730 DUP2 DUP10 ADD PUSH2 0x6B2 JUMP JUMPDEST SWAP6 POP PUSH1 0x40 DUP9 ADD CALLDATALOAD SWAP5 POP PUSH1 0x60 DUP9 ADD CALLDATALOAD SWAP4 POP PUSH1 0x80 DUP9 ADD CALLDATALOAD SWAP3 POP PUSH1 0xA0 DUP9 ADD CALLDATALOAD PUSH8 0xFFFFFFFFFFFFFFFF DUP1 DUP3 GT ISZERO PUSH2 0x762 JUMPI PUSH1 0x0 DUP1 REVERT JUMPDEST DUP2 DUP11 ADD SWAP2 POP DUP11 PUSH1 0x1F DUP4 ADD SLT PUSH2 0x776 JUMPI PUSH1 0x0 DUP1 REVERT JUMPDEST DUP2 CALLDATALOAD DUP2 DUP2 GT ISZERO PUSH2 0x788 JUMPI PUSH2 0x788 PUSH2 0x6F0 JUMP JUMPDEST DUP1 PUSH1 0x5 SHL PUSH1 0x40 MLOAD PUSH1 0x1F NOT PUSH1 0x3F DUP4 ADD AND DUP2 ADD DUP2 DUP2 LT DUP6 DUP3 GT OR ISZERO PUSH2 0x7AD JUMPI PUSH2 0x7AD PUSH2 0x6F0 JUMP JUMPDEST PUSH1 0x40 MSTORE SWAP2 DUP3 MSTORE DUP5 DUP3 ADD SWAP3 POP DUP4 DUP2 ADD DUP6 ADD SWAP2 DUP14 DUP4 GT ISZERO PUSH2 0x7CB JUMPI PUSH1 0x0 DUP1 REVERT JUMPDEST SWAP4 DUP6 ADD SWAP4 JUMPDEST DUP3 DUP6 LT ISZERO PUSH2 0x7E9 JUMPI DUP5 CALLDATALOAD DUP5 MSTORE SWAP4 DUP6 ADD SWAP4 SWAP3 DUP6 ADD SWAP3 PUSH2 0x7D0 JUMP JUMPDEST DUP1 SWAP7 POP POP POP POP POP POP POP SWAP3 SWAP6 POP SWAP3 SWAP6 POP SWAP3 SWAP6 JUMP JUMPDEST PUSH4 0x4E487B71 PUSH1 0xE0 SHL PUSH1 0x0 MSTORE PUSH1 0x11 PUSH1 0x4 MSTORE PUSH1 0x24 PUSH1 0x0 REVERT JUMPDEST PUSH1 0x0 PUSH1 0x0 NOT DUP3 EQ ISZERO PUSH2 0x826 JUMPI PUSH2 0x826 PUSH2 0x7FC JUMP JUMPDEST POP PUSH1 0x1 ADD SWAP1 JUMP JUMPDEST PUSH1 0x0 PUSH1 0x60 DUP3 ADD DUP6 DUP4 MSTORE PUSH1 0x20 DUP6 DUP2 DUP6 ADD MSTORE PUSH1 0x60 PUSH1 0x40 DUP6 ADD MSTORE DUP2 DUP6 MLOAD DUP1 DUP5 MSTORE PUSH1 0x80 DUP7 ADD SWAP2 POP DUP3 DUP8 ADD SWAP4 POP PUSH1 0x0 JUMPDEST DUP2 DUP2 LT ISZERO PUSH2 0x874 JUMPI DUP5 MLOAD DUP4 MSTORE SWAP4 DUP4 ADD SWAP4 SWAP2 DUP4 ADD SWAP2 PUSH1 0x1 ADD PUSH2 0x858 JUMP JUMPDEST POP SWAP1 SWAP9 SWAP8 POP POP POP POP POP POP POP POP JUMP JUMPDEST PUSH1 0x0 PUSH1 0x20 DUP3 DUP5 SUB SLT ISZERO PUSH2 0x894 JUMPI PUSH1 0x0 DUP1 REVERT JUMPDEST DUP2 MLOAD DUP1 ISZERO ISZERO DUP2 EQ PUSH2 0x6E9 JUMPI PUSH1 0x0 DUP1 REVERT JUMPDEST PUSH1 0x0 DUP3 DUP3 LT ISZERO PUSH2 0x8B6 JUMPI PUSH2 0x8B6 PUSH2 0x7FC JUMP JUMPDEST POP SUB SWAP1 JUMP JUMPDEST PUSH1 0x0 DUP3 PUSH2 0x8D8 JUMPI PUSH4 0x4E487B71 PUSH1 0xE0 SHL PUSH1 0x0 MSTORE PUSH1 0x12 PUSH1 0x4 MSTORE PUSH1 0x24 PUSH1 0x0 REVERT JUMPDEST POP DIV SWAP1 JUMP JUMPDEST PUSH1 0x0 DUP2 PUSH1 0x0 NOT DIV DUP4 GT DUP3 ISZERO ISZERO AND ISZERO PUSH2 0x8F7 JUMPI PUSH2 0x8F7 PUSH2 0x7FC JUMP JUMPDEST POP MUL SWAP1 JUMP INVALID LOG2 PUSH5 0x6970667358 0x22 SLT KECCAK256 0xB1 0x24 SLT SGT 0x25 EXTCODEHASH SWAP16 DUP10 PUSH7 0x6E8C983B2A4F12 PUSH8 0x1516C021D108A37A INVALID COINBASE RETURNDATACOPY 0xF7 0xBE LT PUSH12 0x64736F6C634300080C003300 ",
  "sha1": "21806c07aa2e72adca5387af10ddcbb1dadac4e9",
  "source": "// SPDX-License-Identifier: GPL-3.0-only\n\npragma solidity 0.8.12;\n\nimport \"../interfaces/IERC20.sol\";\nimport \"./MerkleLib.sol\";\n\ncontract DummyMerkleVesting {\n    using MerkleLib for bytes32;\n\n    mapping (uint => bytes32) public merkleRoots;\n    uint public numRoots;\n    IERC20 public token;\n\n    uint public initialBalance;\n\n    struct Tranche {\n        uint totalCoins;\n        uint currentCoins;\n        uint startTime;\n        uint endTime;\n        uint coinsPerSecond;\n        uint lastWithdrawalTime;\n    }\n\n    mapping (address => bool) public initialized;\n    mapping (address => Tranche) public tranches;\n\n    event WithdrawalOccurred(address destination, uint numTokens, uint tokensLeft);\n    event MerkleRootAdded(uint indexed index, bytes32 newRoot);\n\n    constructor(IERC20 _token, bytes32 _root) {\n        token = _token;\n        merkleRoots[1] = _root;\n        numRoots = 1;\n    }\n\n    function addMerkleRoot(bytes32 newRoot) public {\n        merkleRoots[++numRoots] = newRoot;\n        emit MerkleRootAdded(numRoots, newRoot);\n    }\n\n    function initialize(uint merkleIndex, address destination, uint totalCoins, uint startTime, uint endTime, bytes32[] memory proof) external {\n        require(!initialized[destination], \"Already initialized\");\n        bytes32 leaf = keccak256(abi.encodePacked(destination, totalCoins, startTime, endTime));\n\n        require(merkleRoots[merkleIndex].verifyProof(leaf, proof), \"The proof could not be verified.\");\n        initialized[destination] = true;\n        uint coinsPerSecond = totalCoins / (endTime - startTime);\n        tranches[destination] = Tranche(\n            totalCoins,\n            totalCoins,\n            startTime,\n            endTime,\n            coinsPerSecond,\n            startTime\n        );\n        withdraw(destination);\n    }\n\n    function withdraw(address destination) internal {\n        require(initialized[destination], \"You must initialize your account first.\");\n        Tranche storage tranche = tranches[destination];\n        require(tranche.currentCoins >  0, 'No coins left to withdraw');\n        uint currentWithdrawal = 0;\n\n        // if after vesting period ends, give them the remaining coins\n        if (block.timestamp >= tranche.endTime) {\n            currentWithdrawal = tranche.currentCoins;\n        } else {\n            // compute allowed withdrawal\n            currentWithdrawal = (block.timestamp - tranche.lastWithdrawalTime) * tranche.coinsPerSecond;\n        }\n\n        // update struct\n        tranche.currentCoins -= currentWithdrawal;\n        tranche.lastWithdrawalTime = block.timestamp;\n\n        // transfer the tokens, brah\n        token.transfer(destination, currentWithdrawal);\n        emit WithdrawalOccurred(destination, currentWithdrawal, tranche.currentCoins);\n    }\n\n}",
  "sourcePath": "contracts/DummyMerkleVesting.sol",
  "type": "contract"
}