{
  "abi": [
    {
      "inputs": [
        {
          "internalType": "uint256",
          "name": "treeIndex",
          "type": "uint256"
        },
        {
          "internalType": "uint256",
          "name": "trancheIndex",
          "type": "uint256"
        }
      ],
      "name": "AccountEmpty",
      "type": "error"
    },
    {
      "inputs": [
        {
          "internalType": "uint256",
          "name": "treeIndex",
          "type": "uint256"
        },
        {
          "internalType": "bytes32",
          "name": "leaf",
          "type": "bytes32"
        }
      ],
      "name": "AlreadyInitialized",
      "type": "error"
    },
    {
      "inputs": [
        {
          "internalType": "uint256",
          "name": "treeIndex",
          "type": "uint256"
        },
        {
          "internalType": "bytes32",
          "name": "leaf",
          "type": "bytes32"
        },
        {
          "internalType": "bytes32[]",
          "name": "proof",
          "type": "bytes32[]"
        }
      ],
      "name": "BadProof",
      "type": "error"
    },
    {
      "inputs": [
        {
          "internalType": "uint256",
          "name": "treeIndex",
          "type": "uint256"
        }
      ],
      "name": "BadTreeIndex",
      "type": "error"
    },
    {
      "inputs": [
        {
          "internalType": "uint256",
          "name": "treeIndex",
          "type": "uint256"
        },
        {
          "internalType": "uint256",
          "name": "vestingTime",
          "type": "uint256"
        },
        {
          "internalType": "uint256",
          "name": "minTotalPayments",
          "type": "uint256"
        },
        {
          "internalType": "uint256",
          "name": "maxTotalPayments",
          "type": "uint256"
        }
      ],
      "name": "BadVestingSchedule",
      "type": "error"
    },
    {
      "inputs": [
        {
          "internalType": "uint256",
          "name": "min",
          "type": "uint256"
        },
        {
          "internalType": "uint256",
          "name": "max",
          "type": "uint256"
        }
      ],
      "name": "IncoherentTimes",
      "type": "error"
    },
    {
      "inputs": [
        {
          "internalType": "uint256",
          "name": "pct",
          "type": "uint256"
        }
      ],
      "name": "InvalidPct",
      "type": "error"
    },
    {
      "inputs": [
        {
          "internalType": "uint256",
          "name": "treeIndex",
          "type": "uint256"
        },
        {
          "internalType": "uint256",
          "name": "trancheIndex",
          "type": "uint256"
        }
      ],
      "name": "UninitializedAccount",
      "type": "error"
    },
    {
      "anonymous": false,
      "inputs": [
        {
          "indexed": true,
          "internalType": "uint256",
          "name": "treeIndex",
          "type": "uint256"
        },
        {
          "indexed": true,
          "internalType": "address",
          "name": "tokenAddress",
          "type": "address"
        },
        {
          "indexed": false,
          "internalType": "bytes32",
          "name": "newRoot",
          "type": "bytes32"
        },
        {
          "indexed": false,
          "internalType": "bytes32",
          "name": "ipfsHash",
          "type": "bytes32"
        }
      ],
      "name": "MerkleTreeAdded",
      "type": "event"
    },
    {
      "anonymous": false,
      "inputs": [
        {
          "indexed": true,
          "internalType": "uint256",
          "name": "treeIndex",
          "type": "uint256"
        },
        {
          "indexed": true,
          "internalType": "address",
          "name": "tokenAddress",
          "type": "address"
        },
        {
          "indexed": false,
          "internalType": "uint256",
          "name": "amount",
          "type": "uint256"
        }
      ],
      "name": "TokensDeposited",
      "type": "event"
    },
    {
      "anonymous": false,
      "inputs": [
        {
          "indexed": true,
          "internalType": "uint256",
          "name": "treeIndex",
          "type": "uint256"
        },
        {
          "indexed": true,
          "internalType": "uint256",
          "name": "trancheIndex",
          "type": "uint256"
        },
        {
          "indexed": true,
          "internalType": "address",
          "name": "recipient",
          "type": "address"
        },
        {
          "indexed": false,
          "internalType": "bytes32",
          "name": "leaf",
          "type": "bytes32"
        }
      ],
      "name": "TrancheInitialized",
      "type": "event"
    },
    {
      "anonymous": false,
      "inputs": [
        {
          "indexed": true,
          "internalType": "uint256",
          "name": "treeIndex",
          "type": "uint256"
        },
        {
          "indexed": true,
          "internalType": "address",
          "name": "destination",
          "type": "address"
        },
        {
          "indexed": false,
          "internalType": "uint256",
          "name": "numTokens",
          "type": "uint256"
        },
        {
          "indexed": false,
          "internalType": "uint256",
          "name": "tokensLeft",
          "type": "uint256"
        }
      ],
      "name": "WithdrawalOccurred",
      "type": "event"
    },
    {
      "inputs": [],
      "name": "PRECISION",
      "outputs": [
        {
          "internalType": "uint256",
          "name": "",
          "type": "uint256"
        }
      ],
      "stateMutability": "view",
      "type": "function"
    },
    {
      "inputs": [
        {
          "internalType": "bytes32",
          "name": "newRoot",
          "type": "bytes32"
        },
        {
          "internalType": "bytes32",
          "name": "ipfsHash",
          "type": "bytes32"
        },
        {
          "internalType": "uint256",
          "name": "minEndTime",
          "type": "uint256"
        },
        {
          "internalType": "uint256",
          "name": "maxEndTime",
          "type": "uint256"
        },
        {
          "internalType": "uint256",
          "name": "pctUpFront",
          "type": "uint256"
        },
        {
          "internalType": "address",
          "name": "tokenAddress",
          "type": "address"
        },
        {
          "internalType": "uint256",
          "name": "tokenBalance",
          "type": "uint256"
        }
      ],
      "name": "addMerkleTree",
      "outputs": [],
      "stateMutability": "nonpayable",
      "type": "function"
    },
    {
      "inputs": [
        {
          "internalType": "uint256",
          "name": "treeIndex",
          "type": "uint256"
        },
        {
          "internalType": "uint256",
          "name": "value",
          "type": "uint256"
        }
      ],
      "name": "depositTokens",
      "outputs": [],
      "stateMutability": "nonpayable",
      "type": "function"
    },
    {
      "inputs": [
        {
          "internalType": "uint256",
          "name": "treeIndex",
          "type": "uint256"
        },
        {
          "internalType": "bytes32",
          "name": "leaf",
          "type": "bytes32"
        }
      ],
      "name": "getInitialized",
      "outputs": [
        {
          "internalType": "bool",
          "name": "",
          "type": "bool"
        }
      ],
      "stateMutability": "view",
      "type": "function"
    },
    {
      "inputs": [
        {
          "internalType": "uint256",
          "name": "treeIndex",
          "type": "uint256"
        },
        {
          "internalType": "uint256",
          "name": "trancheIndex",
          "type": "uint256"
        }
      ],
      "name": "getTranche",
      "outputs": [
        {
          "internalType": "address",
          "name": "",
          "type": "address"
        },
        {
          "internalType": "uint256",
          "name": "",
          "type": "uint256"
        },
        {
          "internalType": "uint256",
          "name": "",
          "type": "uint256"
        },
        {
          "internalType": "uint256",
          "name": "",
          "type": "uint256"
        },
        {
          "internalType": "uint256",
          "name": "",
          "type": "uint256"
        },
        {
          "internalType": "uint256",
          "name": "",
          "type": "uint256"
        },
        {
          "internalType": "uint256",
          "name": "",
          "type": "uint256"
        }
      ],
      "stateMutability": "view",
      "type": "function"
    },
    {
      "inputs": [
        {
          "internalType": "uint256",
          "name": "treeIndex",
          "type": "uint256"
        },
        {
          "internalType": "uint256",
          "name": "vestingTime",
          "type": "uint256"
        },
        {
          "internalType": "uint256",
          "name": "minTotalPayments",
          "type": "uint256"
        },
        {
          "internalType": "uint256",
          "name": "maxTotalPayments",
          "type": "uint256"
        },
        {
          "internalType": "bytes32[]",
          "name": "proof",
          "type": "bytes32[]"
        }
      ],
      "name": "initialize",
      "outputs": [
        {
          "internalType": "uint256",
          "name": "",
          "type": "uint256"
        }
      ],
      "stateMutability": "nonpayable",
      "type": "function"
    },
    {
      "inputs": [
        {
          "internalType": "uint256",
          "name": "",
          "type": "uint256"
        }
      ],
      "name": "merkleTrees",
      "outputs": [
        {
          "internalType": "bytes32",
          "name": "merkleRoot",
          "type": "bytes32"
        },
        {
          "internalType": "bytes32",
          "name": "ipfsHash",
          "type": "bytes32"
        },
        {
          "internalType": "uint256",
          "name": "minEndTime",
          "type": "uint256"
        },
        {
          "internalType": "uint256",
          "name": "maxEndTime",
          "type": "uint256"
        },
        {
          "internalType": "uint256",
          "name": "pctUpFront",
          "type": "uint256"
        },
        {
          "internalType": "address",
          "name": "tokenAddress",
          "type": "address"
        },
        {
          "internalType": "uint256",
          "name": "tokenBalance",
          "type": "uint256"
        },
        {
          "internalType": "uint256",
          "name": "numTranchesInitialized",
          "type": "uint256"
        }
      ],
      "stateMutability": "view",
      "type": "function"
    },
    {
      "inputs": [],
      "name": "numTrees",
      "outputs": [
        {
          "internalType": "uint256",
          "name": "",
          "type": "uint256"
        }
      ],
      "stateMutability": "view",
      "type": "function"
    },
    {
      "inputs": [
        {
          "internalType": "uint256",
          "name": "treeIndex",
          "type": "uint256"
        },
        {
          "internalType": "uint256",
          "name": "vestingTime",
          "type": "uint256"
        },
        {
          "internalType": "uint256",
          "name": "minTotalPayments",
          "type": "uint256"
        },
        {
          "internalType": "uint256",
          "name": "maxTotalPayments",
          "type": "uint256"
        }
      ],
      "name": "verifyVestingSchedule",
      "outputs": [
        {
          "internalType": "bool",
          "name": "",
          "type": "bool"
        },
        {
          "internalType": "uint256",
          "name": "",
          "type": "uint256"
        },
        {
          "internalType": "uint256",
          "name": "",
          "type": "uint256"
        },
        {
          "internalType": "uint256",
          "name": "",
          "type": "uint256"
        }
      ],
      "stateMutability": "view",
      "type": "function"
    },
    {
      "inputs": [
        {
          "internalType": "uint256",
          "name": "treeIndex",
          "type": "uint256"
        },
        {
          "internalType": "uint256",
          "name": "trancheIndex",
          "type": "uint256"
        }
      ],
      "name": "withdraw",
      "outputs": [],
      "stateMutability": "nonpayable",
      "type": "function"
    }
  ],
  "bytecode": "608060405234801561001057600080fd5b50611014806100206000396000f3fe608060405234801561001057600080fd5b506004361061009e5760003560e01c806385d88cb11161006657806385d88cb1146101bd578063aaf5eb681461025d578063d6801c2e14610267578063d71383ed146102a9578063f16ad51e146102bc57600080fd5b80630b42abf2146100a3578063390b7c6614610149578063441a3e70146101605780636fb6ec411461017557806377389921146101aa575b600080fd5b6101056100b1366004610cd0565b600091825260016020818152604080852093855260089093019052912080549181015460028201546003830154600484015460058501546006909501546001600160a01b0390961696939592949193909290565b604080516001600160a01b0390981688526020880196909652948601939093526060850191909152608084015260a083015260c082015260e0015b60405180910390f35b61015260005481565b604051908152602001610140565b61017361016e366004610cd0565b6102cf565b005b610188610183366004610cf2565b610582565b6040805194151585526020850193909352918301526060820152608001610140565b6101526101b8366004610d3a565b6106d3565b6102196101cb366004610e21565b60016020819052600091825260409091208054918101546002820154600383015460048401546005850154600686015460079096015494959394929391926001600160a01b03909116919088565b60408051988952602089019790975295870194909452606086019290925260808501526001600160a01b031660a084015260c083015260e082015261010001610140565b610152620f424081565b610299610275366004610cd0565b60009182526001602090815260408084209284526009909201905290205460ff1690565b6040519015158152602001610140565b6101736102b7366004610e3a565b6109ac565b6101736102ca366004610cd0565b610ac2565b6000828152600160208181526040808420858552600881019092529092209081015461031d5760405163c085915360e01b815260048101859052602481018490526044015b60405180910390fd5b6002810154610349576040516318c0dc6760e21b81526004810185905260248101849052604401610314565b60008160040154421061036157506002810154610382565b600582015460068301546103759042610ebc565b61037f9190610ed3565b90505b42600683015560058301546040516370a0823160e01b81523060048201526001600160a01b039091169060009082906370a0823190602401602060405180830381865afa1580156103d7573d6000803e3d6000fd5b505050506040513d601f19601f820116820180604052508101906103fb9190610ef2565b845460405163a9059cbb60e01b81526001600160a01b0391821660048201526024810186905291925083169063a9059cbb906044016020604051808303816000875af115801561044f573d6000803e3d6000fd5b505050506040513d601f19601f820116820180604052508101906104739190610f0b565b506040516370a0823160e01b81523060048201526000906001600160a01b038416906370a0823190602401602060405180830381865afa1580156104bb573d6000803e3d6000fd5b505050506040513d601f19601f820116820180604052508101906104df9190610ef2565b905060006104ed8284610ebc565b9050808660020160008282546105039190610ebc565b925050819055508087600601600082825461051e9190610ebc565b9091555050855460028701546040516001600160a01b03909216918b917f1680e4cfe90468085407ef2b599dbe94b0aa30ff9f180f0e41d22eb71c8728729161056f91868252602082015260400190565b60405180910390a3505050505050505050565b6000806000806000548811156105a3575060009250829150819050806106c8565b600088815260016020526040902060038101548811806105c65750806002015488105b156105df576000806000809450945094509450506106c8565b600081600301548914156105f4575085610665565b60008260020154836003015461060a9190610ebc565b620f42406106188b8b610ebc565b6106229190610ed3565b61062c9190610f34565b905088620f424084600201548c6106439190610ebc565b61064d9084610ed3565b6106579190610f34565b6106619190610f56565b9150505b60006106728a6064610ed3565b6004840154610682906064610ebc565b61068c9084610ed3565b6106969190610f34565b905060006106a48284610f34565b6106ae8c42610f56565b6106b89190610ebc565b6001985092965090945090925050505b945094509450949050565b60008515806106e3575060005486115b156107045760405163190a97ad60e01b815260048101879052602401610314565b600086815260016020908152604080832081513381850152808301899052606080820189905283518083039091018152608090910183528051908401208085526009820190935292205460ff16156107795760405163a0b0703160e01b81526004810189905260248101829052604401610314565b8154604051632769cd1f60e21b815273__MerkleLib_____________________________91639da7347c916107b5919085908990600401610f6e565b602060405180830381865af41580156107d2573d6000803e3d6000fd5b505050506040513d601f19601f820116820180604052508101906107f69190610f0b565b61081957878185604051630da5a8fd60e41b815260040161031493929190610f6e565b60008060008061082b8c8c8c8c610582565b929650909450925090508361086b576040516323f4345360e01b8152600481018d9052602481018c9052604481018b9052606481018a9052608401610314565b6000858152600987016020908152604091829020805460ff19166001179055815160e08101835233815290810185905290810184905260608101829052608081016108b68d42610f56565b81526020018381526020018281525086600801600088600701600081546108dc90610fc3565b918290555081526020808201929092526040908101600020835181546001600160a01b0319166001600160a01b03909116178155838301516001820155838201516002820155606084015160038201556080840151600482015560a0840151600582015560c090930151600690930192909255600788015491518781523392918f917fe937d08e98e81d14e69757213935a0ccaf856636fb06fdafc51d7c78cc85e97d910160405180910390a46109978c87600701546102cf565b50505060079092015498975050505050505050565b606483106109d05760405163078299b560e21b815260048101849052602401610314565b8385106109fa57604051636f30d75760e11b81526004810186905260248101859052604401610314565b6000600160008060008154610a0e90610fc3565b9182905550815260208101919091526040016000908120898155600181018990556002810188905560038101879055600481018690556005810180546001600160a01b0319166001600160a01b0387161790559054909150610a709083610ac2565b600054604080518a8152602081018a90526001600160a01b03861692917f7247d7268297fd9fe23a535b70f414660bbcbbcd73ac0d9ce3c103a356a61f45910160405180910390a35050505050505050565b811580610ad0575060005482115b15610af15760405163190a97ad60e01b815260048101839052602401610314565b600082815260016020526040808220600581015491516370a0823160e01b815230600482015290926001600160a01b03909216919082906370a0823190602401602060405180830381865afa158015610b4e573d6000803e3d6000fd5b505050506040513d601f19601f82011682018060405250810190610b729190610ef2565b6040516323b872dd60e01b8152336004820152306024820152604481018690529091506001600160a01b038316906323b872dd906064016020604051808303816000875af1158015610bc8573d6000803e3d6000fd5b505050506040513d601f19601f82011682018060405250810190610bec9190610f0b565b506040516370a0823160e01b81523060048201526000906001600160a01b038416906370a0823190602401602060405180830381865afa158015610c34573d6000803e3d6000fd5b505050506040513d601f19601f82011682018060405250810190610c589190610ef2565b90506000610c668383610ebc565b905080856006016000828254610c7c9190610f56565b909155505060058501546040518281526001600160a01b039091169088907fb162210da7d23d82c18cff5af46d3562661d26b42a6848fa28d64a6bdc70386a9060200160405180910390a350505050505050565b60008060408385031215610ce357600080fd5b50508035926020909101359150565b60008060008060808587031215610d0857600080fd5b5050823594602084013594506040840135936060013592509050565b634e487b7160e01b600052604160045260246000fd5b600080600080600060a08688031215610d5257600080fd5b8535945060208087013594506040870135935060608701359250608087013567ffffffffffffffff80821115610d8757600080fd5b818901915089601f830112610d9b57600080fd5b813581811115610dad57610dad610d24565b8060051b604051601f19603f83011681018181108582111715610dd257610dd2610d24565b60405291825284820192508381018501918c831115610df057600080fd5b938501935b82851015610e0e57843584529385019392850192610df5565b8096505050505050509295509295909350565b600060208284031215610e3357600080fd5b5035919050565b600080600080600080600060e0888a031215610e5557600080fd5b873596506020880135955060408801359450606088013593506080880135925060a08801356001600160a01b0381168114610e8f57600080fd5b8092505060c0880135905092959891949750929550565b634e487b7160e01b600052601160045260246000fd5b600082821015610ece57610ece610ea6565b500390565b6000816000190483118215151615610eed57610eed610ea6565b500290565b600060208284031215610f0457600080fd5b5051919050565b600060208284031215610f1d57600080fd5b81518015158114610f2d57600080fd5b9392505050565b600082610f5157634e487b7160e01b600052601260045260246000fd5b500490565b60008219821115610f6957610f69610ea6565b500190565b6000606082018583526020858185015260606040850152818551808452608086019150828701935060005b81811015610fb557845183529383019391830191600101610f99565b509098975050505050505050565b6000600019821415610fd757610fd7610ea6565b506001019056fea2646970667358221220afc0b6b00dc16ffec3d8484a03fafeb60777540ecb0a992093f42ddadeb9880464736f6c634300080c0033",
  "bytecodeSha1": "ecd816e42459afc70b2a409e76ab8aa193c7bf98",
  "compiler": {
    "evm_version": "istanbul",
    "optimizer": {
      "enabled": true,
      "runs": 200
    },
    "version": "0.8.12+commit.f00d7308"
  },
  "contractName": "MerkleResistor",
  "deployedBytecode": "608060405234801561001057600080fd5b506004361061009e5760003560e01c806385d88cb11161006657806385d88cb1146101bd578063aaf5eb681461025d578063d6801c2e14610267578063d71383ed146102a9578063f16ad51e146102bc57600080fd5b80630b42abf2146100a3578063390b7c6614610149578063441a3e70146101605780636fb6ec411461017557806377389921146101aa575b600080fd5b6101056100b1366004610cd0565b600091825260016020818152604080852093855260089093019052912080549181015460028201546003830154600484015460058501546006909501546001600160a01b0390961696939592949193909290565b604080516001600160a01b0390981688526020880196909652948601939093526060850191909152608084015260a083015260c082015260e0015b60405180910390f35b61015260005481565b604051908152602001610140565b61017361016e366004610cd0565b6102cf565b005b610188610183366004610cf2565b610582565b6040805194151585526020850193909352918301526060820152608001610140565b6101526101b8366004610d3a565b6106d3565b6102196101cb366004610e21565b60016020819052600091825260409091208054918101546002820154600383015460048401546005850154600686015460079096015494959394929391926001600160a01b03909116919088565b60408051988952602089019790975295870194909452606086019290925260808501526001600160a01b031660a084015260c083015260e082015261010001610140565b610152620f424081565b610299610275366004610cd0565b60009182526001602090815260408084209284526009909201905290205460ff1690565b6040519015158152602001610140565b6101736102b7366004610e3a565b6109ac565b6101736102ca366004610cd0565b610ac2565b6000828152600160208181526040808420858552600881019092529092209081015461031d5760405163c085915360e01b815260048101859052602481018490526044015b60405180910390fd5b6002810154610349576040516318c0dc6760e21b81526004810185905260248101849052604401610314565b60008160040154421061036157506002810154610382565b600582015460068301546103759042610ebc565b61037f9190610ed3565b90505b42600683015560058301546040516370a0823160e01b81523060048201526001600160a01b039091169060009082906370a0823190602401602060405180830381865afa1580156103d7573d6000803e3d6000fd5b505050506040513d601f19601f820116820180604052508101906103fb9190610ef2565b845460405163a9059cbb60e01b81526001600160a01b0391821660048201526024810186905291925083169063a9059cbb906044016020604051808303816000875af115801561044f573d6000803e3d6000fd5b505050506040513d601f19601f820116820180604052508101906104739190610f0b565b506040516370a0823160e01b81523060048201526000906001600160a01b038416906370a0823190602401602060405180830381865afa1580156104bb573d6000803e3d6000fd5b505050506040513d601f19601f820116820180604052508101906104df9190610ef2565b905060006104ed8284610ebc565b9050808660020160008282546105039190610ebc565b925050819055508087600601600082825461051e9190610ebc565b9091555050855460028701546040516001600160a01b03909216918b917f1680e4cfe90468085407ef2b599dbe94b0aa30ff9f180f0e41d22eb71c8728729161056f91868252602082015260400190565b60405180910390a3505050505050505050565b6000806000806000548811156105a3575060009250829150819050806106c8565b600088815260016020526040902060038101548811806105c65750806002015488105b156105df576000806000809450945094509450506106c8565b600081600301548914156105f4575085610665565b60008260020154836003015461060a9190610ebc565b620f42406106188b8b610ebc565b6106229190610ed3565b61062c9190610f34565b905088620f424084600201548c6106439190610ebc565b61064d9084610ed3565b6106579190610f34565b6106619190610f56565b9150505b60006106728a6064610ed3565b6004840154610682906064610ebc565b61068c9084610ed3565b6106969190610f34565b905060006106a48284610f34565b6106ae8c42610f56565b6106b89190610ebc565b6001985092965090945090925050505b945094509450949050565b60008515806106e3575060005486115b156107045760405163190a97ad60e01b815260048101879052602401610314565b600086815260016020908152604080832081513381850152808301899052606080820189905283518083039091018152608090910183528051908401208085526009820190935292205460ff16156107795760405163a0b0703160e01b81526004810189905260248101829052604401610314565b8154604051632769cd1f60e21b815273__$61dd25696c02d5bd2863c8d2c1a2324a87$__91639da7347c916107b5919085908990600401610f6e565b602060405180830381865af41580156107d2573d6000803e3d6000fd5b505050506040513d601f19601f820116820180604052508101906107f69190610f0b565b61081957878185604051630da5a8fd60e41b815260040161031493929190610f6e565b60008060008061082b8c8c8c8c610582565b929650909450925090508361086b576040516323f4345360e01b8152600481018d9052602481018c9052604481018b9052606481018a9052608401610314565b6000858152600987016020908152604091829020805460ff19166001179055815160e08101835233815290810185905290810184905260608101829052608081016108b68d42610f56565b81526020018381526020018281525086600801600088600701600081546108dc90610fc3565b918290555081526020808201929092526040908101600020835181546001600160a01b0319166001600160a01b03909116178155838301516001820155838201516002820155606084015160038201556080840151600482015560a0840151600582015560c090930151600690930192909255600788015491518781523392918f917fe937d08e98e81d14e69757213935a0ccaf856636fb06fdafc51d7c78cc85e97d910160405180910390a46109978c87600701546102cf565b50505060079092015498975050505050505050565b606483106109d05760405163078299b560e21b815260048101849052602401610314565b8385106109fa57604051636f30d75760e11b81526004810186905260248101859052604401610314565b6000600160008060008154610a0e90610fc3565b9182905550815260208101919091526040016000908120898155600181018990556002810188905560038101879055600481018690556005810180546001600160a01b0319166001600160a01b0387161790559054909150610a709083610ac2565b600054604080518a8152602081018a90526001600160a01b03861692917f7247d7268297fd9fe23a535b70f414660bbcbbcd73ac0d9ce3c103a356a61f45910160405180910390a35050505050505050565b811580610ad0575060005482115b15610af15760405163190a97ad60e01b815260048101839052602401610314565b600082815260016020526040808220600581015491516370a0823160e01b815230600482015290926001600160a01b03909216919082906370a0823190602401602060405180830381865afa158015610b4e573d6000803e3d6000fd5b505050506040513d601f19601f82011682018060405250810190610b729190610ef2565b6040516323b872dd60e01b8152336004820152306024820152604481018690529091506001600160a01b038316906323b872dd906064016020604051808303816000875af1158015610bc8573d6000803e3d6000fd5b505050506040513d601f19601f82011682018060405250810190610bec9190610f0b565b506040516370a0823160e01b81523060048201526000906001600160a01b038416906370a0823190602401602060405180830381865afa158015610c34573d6000803e3d6000fd5b505050506040513d601f19601f82011682018060405250810190610c589190610ef2565b90506000610c668383610ebc565b905080856006016000828254610c7c9190610f56565b909155505060058501546040518281526001600160a01b039091169088907fb162210da7d23d82c18cff5af46d3562661d26b42a6848fa28d64a6bdc70386a9060200160405180910390a350505050505050565b60008060408385031215610ce357600080fd5b50508035926020909101359150565b60008060008060808587031215610d0857600080fd5b5050823594602084013594506040840135936060013592509050565b634e487b7160e01b600052604160045260246000fd5b600080600080600060a08688031215610d5257600080fd5b8535945060208087013594506040870135935060608701359250608087013567ffffffffffffffff80821115610d8757600080fd5b818901915089601f830112610d9b57600080fd5b813581811115610dad57610dad610d24565b8060051b604051601f19603f83011681018181108582111715610dd257610dd2610d24565b60405291825284820192508381018501918c831115610df057600080fd5b938501935b82851015610e0e57843584529385019392850192610df5565b8096505050505050509295509295909350565b600060208284031215610e3357600080fd5b5035919050565b600080600080600080600060e0888a031215610e5557600080fd5b873596506020880135955060408801359450606088013593506080880135925060a08801356001600160a01b0381168114610e8f57600080fd5b8092505060c0880135905092959891949750929550565b634e487b7160e01b600052601160045260246000fd5b600082821015610ece57610ece610ea6565b500390565b6000816000190483118215151615610eed57610eed610ea6565b500290565b600060208284031215610f0457600080fd5b5051919050565b600060208284031215610f1d57600080fd5b81518015158114610f2d57600080fd5b9392505050565b600082610f5157634e487b7160e01b600052601260045260246000fd5b500490565b60008219821115610f6957610f69610ea6565b500190565b6000606082018583526020858185015260606040850152818551808452608086019150828701935060005b81811015610fb557845183529383019391830191600101610f99565b509098975050505050505050565b6000600019821415610fd757610fd7610ea6565b506001019056fea2646970667358221220afc0b6b00dc16ffec3d8484a03fafeb60777540ecb0a992093f42ddadeb9880464736f6c634300080c0033",
  "language": "Solidity",
  "natspec": {
    "author": "metapriest, adrian.wachel, marek.babiarz, radoslaw.gorecki",
    "details": "The contract cannot introspect into the contents of the merkle tree, except when provided a merkle proof.User chosen vesting schedules means the contract has parameters that define a line segment thatdescribes a range of vesting-schedule parameters within which the user can negotiate tradeoffsMore tokens => longer vesting time && slower drip, when used correctly, but the contract does not enforcecoherence of vesting schedules, so someone could make a range of vesting schedules in whichmore tokens => longer vesting time && faster drip, but this is a user error, also we wouldn't catch it untilafter the tree has been initialized and funded, so we just let them do it.The choice of which parameters to initialize at tree-creation-time versus at schedule-initialization-time issomewhat arbitrary, but we choose to have min/max end times at tree scope and min/max total payments at first-withdrawal-time",
    "kind": "dev",
    "methods": {
      "addMerkleTree(bytes32,bytes32,uint256,uint256,uint256,address,uint256)": {
        "details": "Anyone may call this function, therefore we must make sure trees cannot affect each otherRoot hash should be built from (destination, minTotalPayments, maxTotalPayments)",
        "notice": "Add a new merkle tree to the contract, creating a new merkle-vesting-schedule-range",
        "params": {
          "ipfsHash": "the ipfs hash of the entire dataset, used for redundance so that creator can ensure merkleproof are always computable",
          "maxEndTime": "a continuous range of possible end times are specified, this is the maximum",
          "minEndTime": "a continuous range of possible end times are specified, this is the minimum",
          "newRoot": "root hash of merkle tree representing vesting schedule ranges",
          "pctUpFront": "the percent of tokens user will get at initialization time (note this implies no lock time)",
          "tokenAddress": "the address of the token contract that is being distributed",
          "tokenBalance": "the amount of tokens user wishes to use to fund the airdrop, note trees can be under/overfunded"
        }
      },
      "depositTokens(uint256,uint256)": {
        "details": "Anyone may call this function, the only risk here is that the token contract is malicious, rendering the tree malicious",
        "notice": "Add funds to an existing merkle-tree",
        "params": {
          "treeIndex": "index into array-like map of merkleTrees",
          "value": "the amount of tokens user wishes to use to fund the airdrop, note trees can be under/overfunded"
        }
      },
      "initialize(uint256,uint256,uint256,uint256,bytes32[])": {
        "details": "Only the recipient can initialize their own schedule here, because a meaningful choice is madeIf the tree is over-funded, excess funds are lost. No clear way to get around this without zk-proofs of global tree stats",
        "notice": "Called once per recipient of a vesting schedule to initialize the vesting schedule and fix the parameters",
        "params": {
          "maxTotalPayments": "the maximum amount of tokens they will receive, if they choose maxEndTime as vestingTime",
          "minTotalPayments": "the minimum amount of tokens they will receive, if they choose minEndTime as vestingTime",
          "proof": "array of hashes linking leaf hash of (destination, minTotalPayments, maxTotalPayments) to root",
          "treeIndex": "index into array-like map of merkleTrees",
          "vestingTime": "the actual length of the vesting schedule, chosen by the user"
        }
      },
      "verifyVestingSchedule(uint256,uint256,uint256,uint256)": {
        "details": "Anyone may call this to check, but it also returns values used in the initialization of vesting schedules",
        "notice": "Determine if the proposed vesting schedule is legit",
        "params": {
          "maxTotalPayments": "pre-committed (in the root hash) maximum of possible totalCoins",
          "minTotalPayments": "pre-committed (in the root hash) minimum of possible totalCoins",
          "treeIndex": "index into array-like map of merkleTrees, which tree are we talking about?",
          "vestingTime": "user chosen length of vesting schedule"
        },
        "returns": {
          "_0": "valid is the proposed vesting-schedule valid",
          "_1": "totalCoins amount of coins allocated in the vesting schedule",
          "_2": "coinsPerSecond amount of coins released every second, in the proposed vesting schedule",
          "_3": "startTime start time of vesting schedule implied by supplied parameters, will always be <= block.timestamp"
        }
      },
      "withdraw(uint256,uint256)": {
        "details": "Anyone may call this function for anyone else, funds go to destination regardless, it's just a question ofwho provides the proof and pays the gas, msg.sender is not used in this function",
        "notice": "Move unlocked funds to the destination",
        "params": {
          "trancheIndex": "index into tranche map",
          "treeIndex": "index into array-like map of merkleTrees, which tree should we apply the proof to?"
        }
      }
    },
    "notice": "This contract is permissionless and public facing. Any fees must be included in the data of the merkle tree.",
    "title": "A factory pattern for user-chosen vesting-schedules, that is, a time release schedule for tokens, using merkle proofs to scale",
    "version": 1
  },
  "opcodes": "PUSH1 0x80 PUSH1 0x40 MSTORE CALLVALUE DUP1 ISZERO PUSH2 0x10 JUMPI PUSH1 0x0 DUP1 REVERT JUMPDEST POP PUSH1 0x4 CALLDATASIZE LT PUSH2 0x9E JUMPI PUSH1 0x0 CALLDATALOAD PUSH1 0xE0 SHR DUP1 PUSH4 0x85D88CB1 GT PUSH2 0x66 JUMPI DUP1 PUSH4 0x85D88CB1 EQ PUSH2 0x1BD JUMPI DUP1 PUSH4 0xAAF5EB68 EQ PUSH2 0x25D JUMPI DUP1 PUSH4 0xD6801C2E EQ PUSH2 0x267 JUMPI DUP1 PUSH4 0xD71383ED EQ PUSH2 0x2A9 JUMPI DUP1 PUSH4 0xF16AD51E EQ PUSH2 0x2BC JUMPI PUSH1 0x0 DUP1 REVERT JUMPDEST DUP1 PUSH4 0xB42ABF2 EQ PUSH2 0xA3 JUMPI DUP1 PUSH4 0x390B7C66 EQ PUSH2 0x149 JUMPI DUP1 PUSH4 0x441A3E70 EQ PUSH2 0x160 JUMPI DUP1 PUSH4 0x6FB6EC41 EQ PUSH2 0x175 JUMPI DUP1 PUSH4 0x77389921 EQ PUSH2 0x1AA JUMPI JUMPDEST PUSH1 0x0 DUP1 REVERT JUMPDEST PUSH2 0x105 PUSH2 0xB1 CALLDATASIZE PUSH1 0x4 PUSH2 0xCD0 JUMP JUMPDEST PUSH1 0x0 SWAP2 DUP3 MSTORE PUSH1 0x1 PUSH1 0x20 DUP2 DUP2 MSTORE PUSH1 0x40 DUP1 DUP6 KECCAK256 SWAP4 DUP6 MSTORE PUSH1 0x8 SWAP1 SWAP4 ADD SWAP1 MSTORE SWAP2 KECCAK256 DUP1 SLOAD SWAP2 DUP2 ADD SLOAD PUSH1 0x2 DUP3 ADD SLOAD PUSH1 0x3 DUP4 ADD SLOAD PUSH1 0x4 DUP5 ADD SLOAD PUSH1 0x5 DUP6 ADD SLOAD PUSH1 0x6 SWAP1 SWAP6 ADD SLOAD PUSH1 0x1 PUSH1 0x1 PUSH1 0xA0 SHL SUB SWAP1 SWAP7 AND SWAP7 SWAP4 SWAP6 SWAP3 SWAP5 SWAP2 SWAP4 SWAP1 SWAP3 SWAP1 JUMP JUMPDEST PUSH1 0x40 DUP1 MLOAD PUSH1 0x1 PUSH1 0x1 PUSH1 0xA0 SHL SUB SWAP1 SWAP9 AND DUP9 MSTORE PUSH1 0x20 DUP9 ADD SWAP7 SWAP1 SWAP7 MSTORE SWAP5 DUP7 ADD SWAP4 SWAP1 SWAP4 MSTORE PUSH1 0x60 DUP6 ADD SWAP2 SWAP1 SWAP2 MSTORE PUSH1 0x80 DUP5 ADD MSTORE PUSH1 0xA0 DUP4 ADD MSTORE PUSH1 0xC0 DUP3 ADD MSTORE PUSH1 0xE0 ADD JUMPDEST PUSH1 0x40 MLOAD DUP1 SWAP2 SUB SWAP1 RETURN JUMPDEST PUSH2 0x152 PUSH1 0x0 SLOAD DUP2 JUMP JUMPDEST PUSH1 0x40 MLOAD SWAP1 DUP2 MSTORE PUSH1 0x20 ADD PUSH2 0x140 JUMP JUMPDEST PUSH2 0x173 PUSH2 0x16E CALLDATASIZE PUSH1 0x4 PUSH2 0xCD0 JUMP JUMPDEST PUSH2 0x2CF JUMP JUMPDEST STOP JUMPDEST PUSH2 0x188 PUSH2 0x183 CALLDATASIZE PUSH1 0x4 PUSH2 0xCF2 JUMP JUMPDEST PUSH2 0x582 JUMP JUMPDEST PUSH1 0x40 DUP1 MLOAD SWAP5 ISZERO ISZERO DUP6 MSTORE PUSH1 0x20 DUP6 ADD SWAP4 SWAP1 SWAP4 MSTORE SWAP2 DUP4 ADD MSTORE PUSH1 0x60 DUP3 ADD MSTORE PUSH1 0x80 ADD PUSH2 0x140 JUMP JUMPDEST PUSH2 0x152 PUSH2 0x1B8 CALLDATASIZE PUSH1 0x4 PUSH2 0xD3A JUMP JUMPDEST PUSH2 0x6D3 JUMP JUMPDEST PUSH2 0x219 PUSH2 0x1CB CALLDATASIZE PUSH1 0x4 PUSH2 0xE21 JUMP JUMPDEST PUSH1 0x1 PUSH1 0x20 DUP2 SWAP1 MSTORE PUSH1 0x0 SWAP2 DUP3 MSTORE PUSH1 0x40 SWAP1 SWAP2 KECCAK256 DUP1 SLOAD SWAP2 DUP2 ADD SLOAD PUSH1 0x2 DUP3 ADD SLOAD PUSH1 0x3 DUP4 ADD SLOAD PUSH1 0x4 DUP5 ADD SLOAD PUSH1 0x5 DUP6 ADD SLOAD PUSH1 0x6 DUP7 ADD SLOAD PUSH1 0x7 SWAP1 SWAP7 ADD SLOAD SWAP5 SWAP6 SWAP4 SWAP5 SWAP3 SWAP4 SWAP2 SWAP3 PUSH1 0x1 PUSH1 0x1 PUSH1 0xA0 SHL SUB SWAP1 SWAP2 AND SWAP2 SWAP1 DUP9 JUMP JUMPDEST PUSH1 0x40 DUP1 MLOAD SWAP9 DUP10 MSTORE PUSH1 0x20 DUP10 ADD SWAP8 SWAP1 SWAP8 MSTORE SWAP6 DUP8 ADD SWAP5 SWAP1 SWAP5 MSTORE PUSH1 0x60 DUP7 ADD SWAP3 SWAP1 SWAP3 MSTORE PUSH1 0x80 DUP6 ADD MSTORE PUSH1 0x1 PUSH1 0x1 PUSH1 0xA0 SHL SUB AND PUSH1 0xA0 DUP5 ADD MSTORE PUSH1 0xC0 DUP4 ADD MSTORE PUSH1 0xE0 DUP3 ADD MSTORE PUSH2 0x100 ADD PUSH2 0x140 JUMP JUMPDEST PUSH2 0x152 PUSH3 0xF4240 DUP2 JUMP JUMPDEST PUSH2 0x299 PUSH2 0x275 CALLDATASIZE PUSH1 0x4 PUSH2 0xCD0 JUMP JUMPDEST PUSH1 0x0 SWAP2 DUP3 MSTORE PUSH1 0x1 PUSH1 0x20 SWAP1 DUP2 MSTORE PUSH1 0x40 DUP1 DUP5 KECCAK256 SWAP3 DUP5 MSTORE PUSH1 0x9 SWAP1 SWAP3 ADD SWAP1 MSTORE SWAP1 KECCAK256 SLOAD PUSH1 0xFF AND SWAP1 JUMP JUMPDEST PUSH1 0x40 MLOAD SWAP1 ISZERO ISZERO DUP2 MSTORE PUSH1 0x20 ADD PUSH2 0x140 JUMP JUMPDEST PUSH2 0x173 PUSH2 0x2B7 CALLDATASIZE PUSH1 0x4 PUSH2 0xE3A JUMP JUMPDEST PUSH2 0x9AC JUMP JUMPDEST PUSH2 0x173 PUSH2 0x2CA CALLDATASIZE PUSH1 0x4 PUSH2 0xCD0 JUMP JUMPDEST PUSH2 0xAC2 JUMP JUMPDEST PUSH1 0x0 DUP3 DUP2 MSTORE PUSH1 0x1 PUSH1 0x20 DUP2 DUP2 MSTORE PUSH1 0x40 DUP1 DUP5 KECCAK256 DUP6 DUP6 MSTORE PUSH1 0x8 DUP2 ADD SWAP1 SWAP3 MSTORE SWAP1 SWAP3 KECCAK256 SWAP1 DUP2 ADD SLOAD PUSH2 0x31D JUMPI PUSH1 0x40 MLOAD PUSH4 0xC0859153 PUSH1 0xE0 SHL DUP2 MSTORE PUSH1 0x4 DUP2 ADD DUP6 SWAP1 MSTORE PUSH1 0x24 DUP2 ADD DUP5 SWAP1 MSTORE PUSH1 0x44 ADD JUMPDEST PUSH1 0x40 MLOAD DUP1 SWAP2 SUB SWAP1 REVERT JUMPDEST PUSH1 0x2 DUP2 ADD SLOAD PUSH2 0x349 JUMPI PUSH1 0x40 MLOAD PUSH4 0x18C0DC67 PUSH1 0xE2 SHL DUP2 MSTORE PUSH1 0x4 DUP2 ADD DUP6 SWAP1 MSTORE PUSH1 0x24 DUP2 ADD DUP5 SWAP1 MSTORE PUSH1 0x44 ADD PUSH2 0x314 JUMP JUMPDEST PUSH1 0x0 DUP2 PUSH1 0x4 ADD SLOAD TIMESTAMP LT PUSH2 0x361 JUMPI POP PUSH1 0x2 DUP2 ADD SLOAD PUSH2 0x382 JUMP JUMPDEST PUSH1 0x5 DUP3 ADD SLOAD PUSH1 0x6 DUP4 ADD SLOAD PUSH2 0x375 SWAP1 TIMESTAMP PUSH2 0xEBC JUMP JUMPDEST PUSH2 0x37F SWAP2 SWAP1 PUSH2 0xED3 JUMP JUMPDEST SWAP1 POP JUMPDEST TIMESTAMP PUSH1 0x6 DUP4 ADD SSTORE PUSH1 0x5 DUP4 ADD SLOAD PUSH1 0x40 MLOAD PUSH4 0x70A08231 PUSH1 0xE0 SHL DUP2 MSTORE ADDRESS PUSH1 0x4 DUP3 ADD MSTORE PUSH1 0x1 PUSH1 0x1 PUSH1 0xA0 SHL SUB SWAP1 SWAP2 AND SWAP1 PUSH1 0x0 SWAP1 DUP3 SWAP1 PUSH4 0x70A08231 SWAP1 PUSH1 0x24 ADD PUSH1 0x20 PUSH1 0x40 MLOAD DUP1 DUP4 SUB DUP2 DUP7 GAS STATICCALL ISZERO DUP1 ISZERO PUSH2 0x3D7 JUMPI RETURNDATASIZE PUSH1 0x0 DUP1 RETURNDATACOPY RETURNDATASIZE PUSH1 0x0 REVERT JUMPDEST POP POP POP POP PUSH1 0x40 MLOAD RETURNDATASIZE PUSH1 0x1F NOT PUSH1 0x1F DUP3 ADD AND DUP3 ADD DUP1 PUSH1 0x40 MSTORE POP DUP2 ADD SWAP1 PUSH2 0x3FB SWAP2 SWAP1 PUSH2 0xEF2 JUMP JUMPDEST DUP5 SLOAD PUSH1 0x40 MLOAD PUSH4 0xA9059CBB PUSH1 0xE0 SHL DUP2 MSTORE PUSH1 0x1 PUSH1 0x1 PUSH1 0xA0 SHL SUB SWAP2 DUP3 AND PUSH1 0x4 DUP3 ADD MSTORE PUSH1 0x24 DUP2 ADD DUP7 SWAP1 MSTORE SWAP2 SWAP3 POP DUP4 AND SWAP1 PUSH4 0xA9059CBB SWAP1 PUSH1 0x44 ADD PUSH1 0x20 PUSH1 0x40 MLOAD DUP1 DUP4 SUB DUP2 PUSH1 0x0 DUP8 GAS CALL ISZERO DUP1 ISZERO PUSH2 0x44F JUMPI RETURNDATASIZE PUSH1 0x0 DUP1 RETURNDATACOPY RETURNDATASIZE PUSH1 0x0 REVERT JUMPDEST POP POP POP POP PUSH1 0x40 MLOAD RETURNDATASIZE PUSH1 0x1F NOT PUSH1 0x1F DUP3 ADD AND DUP3 ADD DUP1 PUSH1 0x40 MSTORE POP DUP2 ADD SWAP1 PUSH2 0x473 SWAP2 SWAP1 PUSH2 0xF0B JUMP JUMPDEST POP PUSH1 0x40 MLOAD PUSH4 0x70A08231 PUSH1 0xE0 SHL DUP2 MSTORE ADDRESS PUSH1 0x4 DUP3 ADD MSTORE PUSH1 0x0 SWAP1 PUSH1 0x1 PUSH1 0x1 PUSH1 0xA0 SHL SUB DUP5 AND SWAP1 PUSH4 0x70A08231 SWAP1 PUSH1 0x24 ADD PUSH1 0x20 PUSH1 0x40 MLOAD DUP1 DUP4 SUB DUP2 DUP7 GAS STATICCALL ISZERO DUP1 ISZERO PUSH2 0x4BB JUMPI RETURNDATASIZE PUSH1 0x0 DUP1 RETURNDATACOPY RETURNDATASIZE PUSH1 0x0 REVERT JUMPDEST POP POP POP POP PUSH1 0x40 MLOAD RETURNDATASIZE PUSH1 0x1F NOT PUSH1 0x1F DUP3 ADD AND DUP3 ADD DUP1 PUSH1 0x40 MSTORE POP DUP2 ADD SWAP1 PUSH2 0x4DF SWAP2 SWAP1 PUSH2 0xEF2 JUMP JUMPDEST SWAP1 POP PUSH1 0x0 PUSH2 0x4ED DUP3 DUP5 PUSH2 0xEBC JUMP JUMPDEST SWAP1 POP DUP1 DUP7 PUSH1 0x2 ADD PUSH1 0x0 DUP3 DUP3 SLOAD PUSH2 0x503 SWAP2 SWAP1 PUSH2 0xEBC JUMP JUMPDEST SWAP3 POP POP DUP2 SWAP1 SSTORE POP DUP1 DUP8 PUSH1 0x6 ADD PUSH1 0x0 DUP3 DUP3 SLOAD PUSH2 0x51E SWAP2 SWAP1 PUSH2 0xEBC JUMP JUMPDEST SWAP1 SWAP2 SSTORE POP POP DUP6 SLOAD PUSH1 0x2 DUP8 ADD SLOAD PUSH1 0x40 MLOAD PUSH1 0x1 PUSH1 0x1 PUSH1 0xA0 SHL SUB SWAP1 SWAP3 AND SWAP2 DUP12 SWAP2 PUSH32 0x1680E4CFE90468085407EF2B599DBE94B0AA30FF9F180F0E41D22EB71C872872 SWAP2 PUSH2 0x56F SWAP2 DUP7 DUP3 MSTORE PUSH1 0x20 DUP3 ADD MSTORE PUSH1 0x40 ADD SWAP1 JUMP JUMPDEST PUSH1 0x40 MLOAD DUP1 SWAP2 SUB SWAP1 LOG3 POP POP POP POP POP POP POP POP POP JUMP JUMPDEST PUSH1 0x0 DUP1 PUSH1 0x0 DUP1 PUSH1 0x0 SLOAD DUP9 GT ISZERO PUSH2 0x5A3 JUMPI POP PUSH1 0x0 SWAP3 POP DUP3 SWAP2 POP DUP2 SWAP1 POP DUP1 PUSH2 0x6C8 JUMP JUMPDEST PUSH1 0x0 DUP9 DUP2 MSTORE PUSH1 0x1 PUSH1 0x20 MSTORE PUSH1 0x40 SWAP1 KECCAK256 PUSH1 0x3 DUP2 ADD SLOAD DUP9 GT DUP1 PUSH2 0x5C6 JUMPI POP DUP1 PUSH1 0x2 ADD SLOAD DUP9 LT JUMPDEST ISZERO PUSH2 0x5DF JUMPI PUSH1 0x0 DUP1 PUSH1 0x0 DUP1 SWAP5 POP SWAP5 POP SWAP5 POP SWAP5 POP POP PUSH2 0x6C8 JUMP JUMPDEST PUSH1 0x0 DUP2 PUSH1 0x3 ADD SLOAD DUP10 EQ ISZERO PUSH2 0x5F4 JUMPI POP DUP6 PUSH2 0x665 JUMP JUMPDEST PUSH1 0x0 DUP3 PUSH1 0x2 ADD SLOAD DUP4 PUSH1 0x3 ADD SLOAD PUSH2 0x60A SWAP2 SWAP1 PUSH2 0xEBC JUMP JUMPDEST PUSH3 0xF4240 PUSH2 0x618 DUP12 DUP12 PUSH2 0xEBC JUMP JUMPDEST PUSH2 0x622 SWAP2 SWAP1 PUSH2 0xED3 JUMP JUMPDEST PUSH2 0x62C SWAP2 SWAP1 PUSH2 0xF34 JUMP JUMPDEST SWAP1 POP DUP9 PUSH3 0xF4240 DUP5 PUSH1 0x2 ADD SLOAD DUP13 PUSH2 0x643 SWAP2 SWAP1 PUSH2 0xEBC JUMP JUMPDEST PUSH2 0x64D SWAP1 DUP5 PUSH2 0xED3 JUMP JUMPDEST PUSH2 0x657 SWAP2 SWAP1 PUSH2 0xF34 JUMP JUMPDEST PUSH2 0x661 SWAP2 SWAP1 PUSH2 0xF56 JUMP JUMPDEST SWAP2 POP POP JUMPDEST PUSH1 0x0 PUSH2 0x672 DUP11 PUSH1 0x64 PUSH2 0xED3 JUMP JUMPDEST PUSH1 0x4 DUP5 ADD SLOAD PUSH2 0x682 SWAP1 PUSH1 0x64 PUSH2 0xEBC JUMP JUMPDEST PUSH2 0x68C SWAP1 DUP5 PUSH2 0xED3 JUMP JUMPDEST PUSH2 0x696 SWAP2 SWAP1 PUSH2 0xF34 JUMP JUMPDEST SWAP1 POP PUSH1 0x0 PUSH2 0x6A4 DUP3 DUP5 PUSH2 0xF34 JUMP JUMPDEST PUSH2 0x6AE DUP13 TIMESTAMP PUSH2 0xF56 JUMP JUMPDEST PUSH2 0x6B8 SWAP2 SWAP1 PUSH2 0xEBC JUMP JUMPDEST PUSH1 0x1 SWAP9 POP SWAP3 SWAP7 POP SWAP1 SWAP5 POP SWAP1 SWAP3 POP POP POP JUMPDEST SWAP5 POP SWAP5 POP SWAP5 POP SWAP5 SWAP1 POP JUMP JUMPDEST PUSH1 0x0 DUP6 ISZERO DUP1 PUSH2 0x6E3 JUMPI POP PUSH1 0x0 SLOAD DUP7 GT JUMPDEST ISZERO PUSH2 0x704 JUMPI PUSH1 0x40 MLOAD PUSH4 0x190A97AD PUSH1 0xE0 SHL DUP2 MSTORE PUSH1 0x4 DUP2 ADD DUP8 SWAP1 MSTORE PUSH1 0x24 ADD PUSH2 0x314 JUMP JUMPDEST PUSH1 0x0 DUP7 DUP2 MSTORE PUSH1 0x1 PUSH1 0x20 SWAP1 DUP2 MSTORE PUSH1 0x40 DUP1 DUP4 KECCAK256 DUP2 MLOAD CALLER DUP2 DUP6 ADD MSTORE DUP1 DUP4 ADD DUP10 SWAP1 MSTORE PUSH1 0x60 DUP1 DUP3 ADD DUP10 SWAP1 MSTORE DUP4 MLOAD DUP1 DUP4 SUB SWAP1 SWAP2 ADD DUP2 MSTORE PUSH1 0x80 SWAP1 SWAP2 ADD DUP4 MSTORE DUP1 MLOAD SWAP1 DUP5 ADD KECCAK256 DUP1 DUP6 MSTORE PUSH1 0x9 DUP3 ADD SWAP1 SWAP4 MSTORE SWAP3 KECCAK256 SLOAD PUSH1 0xFF AND ISZERO PUSH2 0x779 JUMPI PUSH1 0x40 MLOAD PUSH4 0xA0B07031 PUSH1 0xE0 SHL DUP2 MSTORE PUSH1 0x4 DUP2 ADD DUP10 SWAP1 MSTORE PUSH1 0x24 DUP2 ADD DUP3 SWAP1 MSTORE PUSH1 0x44 ADD PUSH2 0x314 JUMP JUMPDEST DUP2 SLOAD PUSH1 0x40 MLOAD PUSH4 0x2769CD1F PUSH1 0xE2 SHL DUP2 MSTORE PUSH20 0x0 SWAP2 PUSH4 0x9DA7347C SWAP2 PUSH2 0x7B5 SWAP2 SWAP1 DUP6 SWAP1 DUP10 SWAP1 PUSH1 0x4 ADD PUSH2 0xF6E JUMP JUMPDEST PUSH1 0x20 PUSH1 0x40 MLOAD DUP1 DUP4 SUB DUP2 DUP7 GAS DELEGATECALL ISZERO DUP1 ISZERO PUSH2 0x7D2 JUMPI RETURNDATASIZE PUSH1 0x0 DUP1 RETURNDATACOPY RETURNDATASIZE PUSH1 0x0 REVERT JUMPDEST POP POP POP POP PUSH1 0x40 MLOAD RETURNDATASIZE PUSH1 0x1F NOT PUSH1 0x1F DUP3 ADD AND DUP3 ADD DUP1 PUSH1 0x40 MSTORE POP DUP2 ADD SWAP1 PUSH2 0x7F6 SWAP2 SWAP1 PUSH2 0xF0B JUMP JUMPDEST PUSH2 0x819 JUMPI DUP8 DUP2 DUP6 PUSH1 0x40 MLOAD PUSH4 0xDA5A8FD PUSH1 0xE4 SHL DUP2 MSTORE PUSH1 0x4 ADD PUSH2 0x314 SWAP4 SWAP3 SWAP2 SWAP1 PUSH2 0xF6E JUMP JUMPDEST PUSH1 0x0 DUP1 PUSH1 0x0 DUP1 PUSH2 0x82B DUP13 DUP13 DUP13 DUP13 PUSH2 0x582 JUMP JUMPDEST SWAP3 SWAP7 POP SWAP1 SWAP5 POP SWAP3 POP SWAP1 POP DUP4 PUSH2 0x86B JUMPI PUSH1 0x40 MLOAD PUSH4 0x23F43453 PUSH1 0xE0 SHL DUP2 MSTORE PUSH1 0x4 DUP2 ADD DUP14 SWAP1 MSTORE PUSH1 0x24 DUP2 ADD DUP13 SWAP1 MSTORE PUSH1 0x44 DUP2 ADD DUP12 SWAP1 MSTORE PUSH1 0x64 DUP2 ADD DUP11 SWAP1 MSTORE PUSH1 0x84 ADD PUSH2 0x314 JUMP JUMPDEST PUSH1 0x0 DUP6 DUP2 MSTORE PUSH1 0x9 DUP8 ADD PUSH1 0x20 SWAP1 DUP2 MSTORE PUSH1 0x40 SWAP2 DUP3 SWAP1 KECCAK256 DUP1 SLOAD PUSH1 0xFF NOT AND PUSH1 0x1 OR SWAP1 SSTORE DUP2 MLOAD PUSH1 0xE0 DUP2 ADD DUP4 MSTORE CALLER DUP2 MSTORE SWAP1 DUP2 ADD DUP6 SWAP1 MSTORE SWAP1 DUP2 ADD DUP5 SWAP1 MSTORE PUSH1 0x60 DUP2 ADD DUP3 SWAP1 MSTORE PUSH1 0x80 DUP2 ADD PUSH2 0x8B6 DUP14 TIMESTAMP PUSH2 0xF56 JUMP JUMPDEST DUP2 MSTORE PUSH1 0x20 ADD DUP4 DUP2 MSTORE PUSH1 0x20 ADD DUP3 DUP2 MSTORE POP DUP7 PUSH1 0x8 ADD PUSH1 0x0 DUP9 PUSH1 0x7 ADD PUSH1 0x0 DUP2 SLOAD PUSH2 0x8DC SWAP1 PUSH2 0xFC3 JUMP JUMPDEST SWAP2 DUP3 SWAP1 SSTORE POP DUP2 MSTORE PUSH1 0x20 DUP1 DUP3 ADD SWAP3 SWAP1 SWAP3 MSTORE PUSH1 0x40 SWAP1 DUP2 ADD PUSH1 0x0 KECCAK256 DUP4 MLOAD DUP2 SLOAD PUSH1 0x1 PUSH1 0x1 PUSH1 0xA0 SHL SUB NOT AND PUSH1 0x1 PUSH1 0x1 PUSH1 0xA0 SHL SUB SWAP1 SWAP2 AND OR DUP2 SSTORE DUP4 DUP4 ADD MLOAD PUSH1 0x1 DUP3 ADD SSTORE DUP4 DUP3 ADD MLOAD PUSH1 0x2 DUP3 ADD SSTORE PUSH1 0x60 DUP5 ADD MLOAD PUSH1 0x3 DUP3 ADD SSTORE PUSH1 0x80 DUP5 ADD MLOAD PUSH1 0x4 DUP3 ADD SSTORE PUSH1 0xA0 DUP5 ADD MLOAD PUSH1 0x5 DUP3 ADD SSTORE PUSH1 0xC0 SWAP1 SWAP4 ADD MLOAD PUSH1 0x6 SWAP1 SWAP4 ADD SWAP3 SWAP1 SWAP3 SSTORE PUSH1 0x7 DUP9 ADD SLOAD SWAP2 MLOAD DUP8 DUP2 MSTORE CALLER SWAP3 SWAP2 DUP16 SWAP2 PUSH32 0xE937D08E98E81D14E69757213935A0CCAF856636FB06FDAFC51D7C78CC85E97D SWAP2 ADD PUSH1 0x40 MLOAD DUP1 SWAP2 SUB SWAP1 LOG4 PUSH2 0x997 DUP13 DUP8 PUSH1 0x7 ADD SLOAD PUSH2 0x2CF JUMP JUMPDEST POP POP POP PUSH1 0x7 SWAP1 SWAP3 ADD SLOAD SWAP9 SWAP8 POP POP POP POP POP POP POP POP JUMP JUMPDEST PUSH1 0x64 DUP4 LT PUSH2 0x9D0 JUMPI PUSH1 0x40 MLOAD PUSH4 0x78299B5 PUSH1 0xE2 SHL DUP2 MSTORE PUSH1 0x4 DUP2 ADD DUP5 SWAP1 MSTORE PUSH1 0x24 ADD PUSH2 0x314 JUMP JUMPDEST DUP4 DUP6 LT PUSH2 0x9FA JUMPI PUSH1 0x40 MLOAD PUSH4 0x6F30D757 PUSH1 0xE1 SHL DUP2 MSTORE PUSH1 0x4 DUP2 ADD DUP7 SWAP1 MSTORE PUSH1 0x24 DUP2 ADD DUP6 SWAP1 MSTORE PUSH1 0x44 ADD PUSH2 0x314 JUMP JUMPDEST PUSH1 0x0 PUSH1 0x1 PUSH1 0x0 DUP1 PUSH1 0x0 DUP2 SLOAD PUSH2 0xA0E SWAP1 PUSH2 0xFC3 JUMP JUMPDEST SWAP2 DUP3 SWAP1 SSTORE POP DUP2 MSTORE PUSH1 0x20 DUP2 ADD SWAP2 SWAP1 SWAP2 MSTORE PUSH1 0x40 ADD PUSH1 0x0 SWAP1 DUP2 KECCAK256 DUP10 DUP2 SSTORE PUSH1 0x1 DUP2 ADD DUP10 SWAP1 SSTORE PUSH1 0x2 DUP2 ADD DUP9 SWAP1 SSTORE PUSH1 0x3 DUP2 ADD DUP8 SWAP1 SSTORE PUSH1 0x4 DUP2 ADD DUP7 SWAP1 SSTORE PUSH1 0x5 DUP2 ADD DUP1 SLOAD PUSH1 0x1 PUSH1 0x1 PUSH1 0xA0 SHL SUB NOT AND PUSH1 0x1 PUSH1 0x1 PUSH1 0xA0 SHL SUB DUP8 AND OR SWAP1 SSTORE SWAP1 SLOAD SWAP1 SWAP2 POP PUSH2 0xA70 SWAP1 DUP4 PUSH2 0xAC2 JUMP JUMPDEST PUSH1 0x0 SLOAD PUSH1 0x40 DUP1 MLOAD DUP11 DUP2 MSTORE PUSH1 0x20 DUP2 ADD DUP11 SWAP1 MSTORE PUSH1 0x1 PUSH1 0x1 PUSH1 0xA0 SHL SUB DUP7 AND SWAP3 SWAP2 PUSH32 0x7247D7268297FD9FE23A535B70F414660BBCBBCD73AC0D9CE3C103A356A61F45 SWAP2 ADD PUSH1 0x40 MLOAD DUP1 SWAP2 SUB SWAP1 LOG3 POP POP POP POP POP POP POP POP JUMP JUMPDEST DUP2 ISZERO DUP1 PUSH2 0xAD0 JUMPI POP PUSH1 0x0 SLOAD DUP3 GT JUMPDEST ISZERO PUSH2 0xAF1 JUMPI PUSH1 0x40 MLOAD PUSH4 0x190A97AD PUSH1 0xE0 SHL DUP2 MSTORE PUSH1 0x4 DUP2 ADD DUP4 SWAP1 MSTORE PUSH1 0x24 ADD PUSH2 0x314 JUMP JUMPDEST PUSH1 0x0 DUP3 DUP2 MSTORE PUSH1 0x1 PUSH1 0x20 MSTORE PUSH1 0x40 DUP1 DUP3 KECCAK256 PUSH1 0x5 DUP2 ADD SLOAD SWAP2 MLOAD PUSH4 0x70A08231 PUSH1 0xE0 SHL DUP2 MSTORE ADDRESS PUSH1 0x4 DUP3 ADD MSTORE SWAP1 SWAP3 PUSH1 0x1 PUSH1 0x1 PUSH1 0xA0 SHL SUB SWAP1 SWAP3 AND SWAP2 SWAP1 DUP3 SWAP1 PUSH4 0x70A08231 SWAP1 PUSH1 0x24 ADD PUSH1 0x20 PUSH1 0x40 MLOAD DUP1 DUP4 SUB DUP2 DUP7 GAS STATICCALL ISZERO DUP1 ISZERO PUSH2 0xB4E JUMPI RETURNDATASIZE PUSH1 0x0 DUP1 RETURNDATACOPY RETURNDATASIZE PUSH1 0x0 REVERT JUMPDEST POP POP POP POP PUSH1 0x40 MLOAD RETURNDATASIZE PUSH1 0x1F NOT PUSH1 0x1F DUP3 ADD AND DUP3 ADD DUP1 PUSH1 0x40 MSTORE POP DUP2 ADD SWAP1 PUSH2 0xB72 SWAP2 SWAP1 PUSH2 0xEF2 JUMP JUMPDEST PUSH1 0x40 MLOAD PUSH4 0x23B872DD PUSH1 0xE0 SHL DUP2 MSTORE CALLER PUSH1 0x4 DUP3 ADD MSTORE ADDRESS PUSH1 0x24 DUP3 ADD MSTORE PUSH1 0x44 DUP2 ADD DUP7 SWAP1 MSTORE SWAP1 SWAP2 POP PUSH1 0x1 PUSH1 0x1 PUSH1 0xA0 SHL SUB DUP4 AND SWAP1 PUSH4 0x23B872DD SWAP1 PUSH1 0x64 ADD PUSH1 0x20 PUSH1 0x40 MLOAD DUP1 DUP4 SUB DUP2 PUSH1 0x0 DUP8 GAS CALL ISZERO DUP1 ISZERO PUSH2 0xBC8 JUMPI RETURNDATASIZE PUSH1 0x0 DUP1 RETURNDATACOPY RETURNDATASIZE PUSH1 0x0 REVERT JUMPDEST POP POP POP POP PUSH1 0x40 MLOAD RETURNDATASIZE PUSH1 0x1F NOT PUSH1 0x1F DUP3 ADD AND DUP3 ADD DUP1 PUSH1 0x40 MSTORE POP DUP2 ADD SWAP1 PUSH2 0xBEC SWAP2 SWAP1 PUSH2 0xF0B JUMP JUMPDEST POP PUSH1 0x40 MLOAD PUSH4 0x70A08231 PUSH1 0xE0 SHL DUP2 MSTORE ADDRESS PUSH1 0x4 DUP3 ADD MSTORE PUSH1 0x0 SWAP1 PUSH1 0x1 PUSH1 0x1 PUSH1 0xA0 SHL SUB DUP5 AND SWAP1 PUSH4 0x70A08231 SWAP1 PUSH1 0x24 ADD PUSH1 0x20 PUSH1 0x40 MLOAD DUP1 DUP4 SUB DUP2 DUP7 GAS STATICCALL ISZERO DUP1 ISZERO PUSH2 0xC34 JUMPI RETURNDATASIZE PUSH1 0x0 DUP1 RETURNDATACOPY RETURNDATASIZE PUSH1 0x0 REVERT JUMPDEST POP POP POP POP PUSH1 0x40 MLOAD RETURNDATASIZE PUSH1 0x1F NOT PUSH1 0x1F DUP3 ADD AND DUP3 ADD DUP1 PUSH1 0x40 MSTORE POP DUP2 ADD SWAP1 PUSH2 0xC58 SWAP2 SWAP1 PUSH2 0xEF2 JUMP JUMPDEST SWAP1 POP PUSH1 0x0 PUSH2 0xC66 DUP4 DUP4 PUSH2 0xEBC JUMP JUMPDEST SWAP1 POP DUP1 DUP6 PUSH1 0x6 ADD PUSH1 0x0 DUP3 DUP3 SLOAD PUSH2 0xC7C SWAP2 SWAP1 PUSH2 0xF56 JUMP JUMPDEST SWAP1 SWAP2 SSTORE POP POP PUSH1 0x5 DUP6 ADD SLOAD PUSH1 0x40 MLOAD DUP3 DUP2 MSTORE PUSH1 0x1 PUSH1 0x1 PUSH1 0xA0 SHL SUB SWAP1 SWAP2 AND SWAP1 DUP9 SWAP1 PUSH32 0xB162210DA7D23D82C18CFF5AF46D3562661D26B42A6848FA28D64A6BDC70386A SWAP1 PUSH1 0x20 ADD PUSH1 0x40 MLOAD DUP1 SWAP2 SUB SWAP1 LOG3 POP POP POP POP POP POP POP JUMP JUMPDEST PUSH1 0x0 DUP1 PUSH1 0x40 DUP4 DUP6 SUB SLT ISZERO PUSH2 0xCE3 JUMPI PUSH1 0x0 DUP1 REVERT JUMPDEST POP POP DUP1 CALLDATALOAD SWAP3 PUSH1 0x20 SWAP1 SWAP2 ADD CALLDATALOAD SWAP2 POP JUMP JUMPDEST PUSH1 0x0 DUP1 PUSH1 0x0 DUP1 PUSH1 0x80 DUP6 DUP8 SUB SLT ISZERO PUSH2 0xD08 JUMPI PUSH1 0x0 DUP1 REVERT JUMPDEST POP POP DUP3 CALLDATALOAD SWAP5 PUSH1 0x20 DUP5 ADD CALLDATALOAD SWAP5 POP PUSH1 0x40 DUP5 ADD CALLDATALOAD SWAP4 PUSH1 0x60 ADD CALLDATALOAD SWAP3 POP SWAP1 POP JUMP JUMPDEST PUSH4 0x4E487B71 PUSH1 0xE0 SHL PUSH1 0x0 MSTORE PUSH1 0x41 PUSH1 0x4 MSTORE PUSH1 0x24 PUSH1 0x0 REVERT JUMPDEST PUSH1 0x0 DUP1 PUSH1 0x0 DUP1 PUSH1 0x0 PUSH1 0xA0 DUP7 DUP9 SUB SLT ISZERO PUSH2 0xD52 JUMPI PUSH1 0x0 DUP1 REVERT JUMPDEST DUP6 CALLDATALOAD SWAP5 POP PUSH1 0x20 DUP1 DUP8 ADD CALLDATALOAD SWAP5 POP PUSH1 0x40 DUP8 ADD CALLDATALOAD SWAP4 POP PUSH1 0x60 DUP8 ADD CALLDATALOAD SWAP3 POP PUSH1 0x80 DUP8 ADD CALLDATALOAD PUSH8 0xFFFFFFFFFFFFFFFF DUP1 DUP3 GT ISZERO PUSH2 0xD87 JUMPI PUSH1 0x0 DUP1 REVERT JUMPDEST DUP2 DUP10 ADD SWAP2 POP DUP10 PUSH1 0x1F DUP4 ADD SLT PUSH2 0xD9B JUMPI PUSH1 0x0 DUP1 REVERT JUMPDEST DUP2 CALLDATALOAD DUP2 DUP2 GT ISZERO PUSH2 0xDAD JUMPI PUSH2 0xDAD PUSH2 0xD24 JUMP JUMPDEST DUP1 PUSH1 0x5 SHL PUSH1 0x40 MLOAD PUSH1 0x1F NOT PUSH1 0x3F DUP4 ADD AND DUP2 ADD DUP2 DUP2 LT DUP6 DUP3 GT OR ISZERO PUSH2 0xDD2 JUMPI PUSH2 0xDD2 PUSH2 0xD24 JUMP JUMPDEST PUSH1 0x40 MSTORE SWAP2 DUP3 MSTORE DUP5 DUP3 ADD SWAP3 POP DUP4 DUP2 ADD DUP6 ADD SWAP2 DUP13 DUP4 GT ISZERO PUSH2 0xDF0 JUMPI PUSH1 0x0 DUP1 REVERT JUMPDEST SWAP4 DUP6 ADD SWAP4 JUMPDEST DUP3 DUP6 LT ISZERO PUSH2 0xE0E JUMPI DUP5 CALLDATALOAD DUP5 MSTORE SWAP4 DUP6 ADD SWAP4 SWAP3 DUP6 ADD SWAP3 PUSH2 0xDF5 JUMP JUMPDEST DUP1 SWAP7 POP POP POP POP POP POP POP SWAP3 SWAP6 POP SWAP3 SWAP6 SWAP1 SWAP4 POP JUMP JUMPDEST PUSH1 0x0 PUSH1 0x20 DUP3 DUP5 SUB SLT ISZERO PUSH2 0xE33 JUMPI PUSH1 0x0 DUP1 REVERT JUMPDEST POP CALLDATALOAD SWAP2 SWAP1 POP JUMP JUMPDEST PUSH1 0x0 DUP1 PUSH1 0x0 DUP1 PUSH1 0x0 DUP1 PUSH1 0x0 PUSH1 0xE0 DUP9 DUP11 SUB SLT ISZERO PUSH2 0xE55 JUMPI PUSH1 0x0 DUP1 REVERT JUMPDEST DUP8 CALLDATALOAD SWAP7 POP PUSH1 0x20 DUP9 ADD CALLDATALOAD SWAP6 POP PUSH1 0x40 DUP9 ADD CALLDATALOAD SWAP5 POP PUSH1 0x60 DUP9 ADD CALLDATALOAD SWAP4 POP PUSH1 0x80 DUP9 ADD CALLDATALOAD SWAP3 POP PUSH1 0xA0 DUP9 ADD CALLDATALOAD PUSH1 0x1 PUSH1 0x1 PUSH1 0xA0 SHL SUB DUP2 AND DUP2 EQ PUSH2 0xE8F JUMPI PUSH1 0x0 DUP1 REVERT JUMPDEST DUP1 SWAP3 POP POP PUSH1 0xC0 DUP9 ADD CALLDATALOAD SWAP1 POP SWAP3 SWAP6 SWAP9 SWAP2 SWAP5 SWAP8 POP SWAP3 SWAP6 POP JUMP JUMPDEST PUSH4 0x4E487B71 PUSH1 0xE0 SHL PUSH1 0x0 MSTORE PUSH1 0x11 PUSH1 0x4 MSTORE PUSH1 0x24 PUSH1 0x0 REVERT JUMPDEST PUSH1 0x0 DUP3 DUP3 LT ISZERO PUSH2 0xECE JUMPI PUSH2 0xECE PUSH2 0xEA6 JUMP JUMPDEST POP SUB SWAP1 JUMP JUMPDEST PUSH1 0x0 DUP2 PUSH1 0x0 NOT DIV DUP4 GT DUP3 ISZERO ISZERO AND ISZERO PUSH2 0xEED JUMPI PUSH2 0xEED PUSH2 0xEA6 JUMP JUMPDEST POP MUL SWAP1 JUMP JUMPDEST PUSH1 0x0 PUSH1 0x20 DUP3 DUP5 SUB SLT ISZERO PUSH2 0xF04 JUMPI PUSH1 0x0 DUP1 REVERT JUMPDEST POP MLOAD SWAP2 SWAP1 POP JUMP JUMPDEST PUSH1 0x0 PUSH1 0x20 DUP3 DUP5 SUB SLT ISZERO PUSH2 0xF1D JUMPI PUSH1 0x0 DUP1 REVERT JUMPDEST DUP2 MLOAD DUP1 ISZERO ISZERO DUP2 EQ PUSH2 0xF2D JUMPI PUSH1 0x0 DUP1 REVERT JUMPDEST SWAP4 SWAP3 POP POP POP JUMP JUMPDEST PUSH1 0x0 DUP3 PUSH2 0xF51 JUMPI PUSH4 0x4E487B71 PUSH1 0xE0 SHL PUSH1 0x0 MSTORE PUSH1 0x12 PUSH1 0x4 MSTORE PUSH1 0x24 PUSH1 0x0 REVERT JUMPDEST POP DIV SWAP1 JUMP JUMPDEST PUSH1 0x0 DUP3 NOT DUP3 GT ISZERO PUSH2 0xF69 JUMPI PUSH2 0xF69 PUSH2 0xEA6 JUMP JUMPDEST POP ADD SWAP1 JUMP JUMPDEST PUSH1 0x0 PUSH1 0x60 DUP3 ADD DUP6 DUP4 MSTORE PUSH1 0x20 DUP6 DUP2 DUP6 ADD MSTORE PUSH1 0x60 PUSH1 0x40 DUP6 ADD MSTORE DUP2 DUP6 MLOAD DUP1 DUP5 MSTORE PUSH1 0x80 DUP7 ADD SWAP2 POP DUP3 DUP8 ADD SWAP4 POP PUSH1 0x0 JUMPDEST DUP2 DUP2 LT ISZERO PUSH2 0xFB5 JUMPI DUP5 MLOAD DUP4 MSTORE SWAP4 DUP4 ADD SWAP4 SWAP2 DUP4 ADD SWAP2 PUSH1 0x1 ADD PUSH2 0xF99 JUMP JUMPDEST POP SWAP1 SWAP9 SWAP8 POP POP POP POP POP POP POP POP JUMP JUMPDEST PUSH1 0x0 PUSH1 0x0 NOT DUP3 EQ ISZERO PUSH2 0xFD7 JUMPI PUSH2 0xFD7 PUSH2 0xEA6 JUMP JUMPDEST POP PUSH1 0x1 ADD SWAP1 JUMP INVALID LOG2 PUSH5 0x6970667358 0x22 SLT KECCAK256 0xAF 0xC0 0xB6 0xB0 0xD 0xC1 PUSH16 0xFEC3D8484A03FAFEB60777540ECB0A99 KECCAK256 SWAP4 DELEGATECALL 0x2D 0xDA 0xDE 0xB9 DUP9 DIV PUSH5 0x736F6C6343 STOP ADDMOD 0xC STOP CALLER ",
  "sha1": "bfb1de63cd8d85a3e844a5a781a79a8e54086dd5",
  "source": "// SPDX-License-Identifier: GPL-3.0-only\n\npragma solidity 0.8.12;\n\nimport \"../interfaces/IERC20.sol\";\nimport \"./MerkleLib.sol\";\n\n/// @title A factory pattern for user-chosen vesting-schedules, that is, a time release schedule for tokens, using merkle proofs to scale\n/// @author metapriest, adrian.wachel, marek.babiarz, radoslaw.gorecki\n/// @notice This contract is permissionless and public facing. Any fees must be included in the data of the merkle tree.\n/// @dev The contract cannot introspect into the contents of the merkle tree, except when provided a merkle proof.\n/// @dev User chosen vesting schedules means the contract has parameters that define a line segment that\n/// @dev describes a range of vesting-schedule parameters within which the user can negotiate tradeoffs\n/// @dev More tokens => longer vesting time && slower drip, when used correctly, but the contract does not enforce\n/// @dev coherence of vesting schedules, so someone could make a range of vesting schedules in which\n/// @dev more tokens => longer vesting time && faster drip, but this is a user error, also we wouldn't catch it until\n/// @dev after the tree has been initialized and funded, so we just let them do it.\n/// @dev The choice of which parameters to initialize at tree-creation-time versus at schedule-initialization-time is\n/// @dev somewhat arbitrary, but we choose to have min/max end times at tree scope and min/max total payments at first-withdrawal-time\ncontract MerkleResistor {\n    using MerkleLib for bytes32;\n\n    // tree (vesting schedule) counter\n    uint public numTrees;\n\n    // this represents a user chosen vesting schedule, post initiation\n    struct Tranche {\n        address recipient;\n        uint totalCoins; // total coins released after vesting complete\n        uint currentCoins; // unclaimed coins remaining in the contract, waiting to be vested\n        uint startTime; // start time of the vesting schedule\n        uint endTime;   // end time of the vesting schedule\n        uint coinsPerSecond;  // how many coins are emitted per second, this value is cached to avoid recomputing it\n        uint lastWithdrawalTime; // keep track of last time user claimed coins to compute coins owed for this withdrawal\n    }\n\n    // this represents an arbitrarily large set of token recipients with partially-initialized vesting schedules\n    struct MerkleTree {\n        bytes32 merkleRoot; // merkle root of tree whose leaves are ranges of vesting schedules for each recipient\n        bytes32 ipfsHash; // ipfs hash of the entire data set represented by the merkle root, in case our servers go down\n        uint minEndTime; // minimum length (offset, not absolute) of vesting schedule in seconds\n        uint maxEndTime; // maximum length (offset, not absolute) of vesting schedule in seconds\n        uint pctUpFront; // percent of vested coins that will be available and withdrawn upon initialization\n        address tokenAddress; // address of token to be distributed\n        uint tokenBalance; // amount of tokens allocated to this tree (this prevents trees from sharing tokens)\n        uint numTranchesInitialized;\n        mapping (uint => Tranche) tranches;\n        mapping (bytes32 => bool) initialized;\n    }\n\n    // basically an array of vesting schedules, but without annoying solidity array syntax\n    mapping (uint => MerkleTree) public merkleTrees;\n\n    // precision factory used to handle floating point arithmetic\n    uint constant public PRECISION = 1000000;\n\n    // every time a withdrawal occurs\n    event WithdrawalOccurred(uint indexed treeIndex, address indexed destination, uint numTokens, uint tokensLeft);\n\n    // every time a tree is added\n    event MerkleTreeAdded(uint indexed treeIndex, address indexed tokenAddress, bytes32 newRoot, bytes32 ipfsHash);\n\n    // every time a tree is topped up\n    event TokensDeposited(uint indexed treeIndex, address indexed tokenAddress, uint amount);\n    event TrancheInitialized(uint indexed treeIndex, uint indexed trancheIndex, address indexed recipient, bytes32 leaf);\n\n    error BadTreeIndex(uint treeIndex);\n    error InvalidPct(uint pct);\n    error IncoherentTimes(uint min, uint max);\n    error AlreadyInitialized(uint treeIndex, bytes32 leaf);\n    error BadProof(uint treeIndex, bytes32 leaf, bytes32[] proof);\n    error BadVestingSchedule(uint treeIndex, uint vestingTime, uint minTotalPayments, uint maxTotalPayments);\n    error UninitializedAccount(uint treeIndex, uint trancheIndex);\n    error AccountEmpty(uint treeIndex, uint trancheIndex);\n\n    /// @notice Add a new merkle tree to the contract, creating a new merkle-vesting-schedule-range\n    /// @dev Anyone may call this function, therefore we must make sure trees cannot affect each other\n    /// @dev Root hash should be built from (destination, minTotalPayments, maxTotalPayments)\n    /// @param newRoot root hash of merkle tree representing vesting schedule ranges\n    /// @param ipfsHash the ipfs hash of the entire dataset, used for redundance so that creator can ensure merkleproof are always computable\n    /// @param minEndTime a continuous range of possible end times are specified, this is the minimum\n    /// @param maxEndTime a continuous range of possible end times are specified, this is the maximum\n    /// @param pctUpFront the percent of tokens user will get at initialization time (note this implies no lock time)\n    /// @param tokenAddress the address of the token contract that is being distributed\n    /// @param tokenBalance the amount of tokens user wishes to use to fund the airdrop, note trees can be under/overfunded\n    function addMerkleTree(bytes32 newRoot, bytes32 ipfsHash, uint minEndTime, uint maxEndTime, uint pctUpFront, address tokenAddress, uint tokenBalance) public {\n        // check basic coherence of request\n        if (pctUpFront >= 100) {\n            revert InvalidPct(pctUpFront);\n        }\n\n        if (minEndTime >= maxEndTime) {\n            revert IncoherentTimes(minEndTime, maxEndTime);\n        }\n\n        MerkleTree storage tree = merkleTrees[++numTrees];\n        tree.merkleRoot = newRoot;\n        tree.ipfsHash = ipfsHash;\n        tree.minEndTime = minEndTime;\n        tree.maxEndTime = maxEndTime;\n        tree.pctUpFront = pctUpFront;\n        tree.tokenAddress = tokenAddress;\n\n        // pull tokens from user to fund the tree\n        // if tree is insufficiently funded, then some users may not be able to be paid out, this is the responsibility\n        // of the tree creator, if trees are not funded, then the UI will not display the tree\n        depositTokens(numTrees, tokenBalance);\n        emit MerkleTreeAdded(numTrees, tokenAddress, newRoot, ipfsHash);\n    }\n\n    /// @notice Add funds to an existing merkle-tree\n    /// @dev Anyone may call this function, the only risk here is that the token contract is malicious, rendering the tree malicious\n    /// @param treeIndex index into array-like map of merkleTrees\n    /// @param value the amount of tokens user wishes to use to fund the airdrop, note trees can be under/overfunded\n    function depositTokens(uint treeIndex, uint value) public {\n        if (treeIndex == 0 || treeIndex > numTrees) {\n            revert BadTreeIndex(treeIndex);\n        }\n\n        MerkleTree storage merkleTree = merkleTrees[treeIndex];\n\n        IERC20 token = IERC20(merkleTree.tokenAddress);\n        uint balanceBefore = token.balanceOf(address(this));\n\n        // do the transfer from the caller\n        // NOTE: it is possible for user to overfund the tree and there is no mechanism to reclaim excess tokens\n        // this is because there is no way for the contract to know when a tree has had all leaves claimed.\n        // There is also no way for the contract to know the minimum or maximum liabilities represented by the leaves\n        // in short, there is no on-chain inspection of any of the leaf data except at initialization time\n        // NOTE: a malicious token contract could cause merkleTree.tokenBalance to be out of sync with the token contract\n        // this is an unavoidable possibility, and it could render the tree unusable, while leaving other trees unharmed\n        token.transferFrom(msg.sender, address(this), value);\n\n        uint balanceAfter = token.balanceOf(address(this));\n        // diff may be different from value here, it may even be zero if the transfer failed silently\n        uint diff = balanceAfter - balanceBefore;\n\n        // bookkeeping to make sure trees do not share tokens\n        merkleTree.tokenBalance += diff;\n        emit TokensDeposited(treeIndex, merkleTree.tokenAddress, diff);\n    }\n\n    /// @notice Called once per recipient of a vesting schedule to initialize the vesting schedule and fix the parameters\n    /// @dev Only the recipient can initialize their own schedule here, because a meaningful choice is made\n    /// @dev If the tree is over-funded, excess funds are lost. No clear way to get around this without zk-proofs of global tree stats\n    /// @param treeIndex index into array-like map of merkleTrees\n    /// @param vestingTime the actual length of the vesting schedule, chosen by the user\n    /// @param minTotalPayments the minimum amount of tokens they will receive, if they choose minEndTime as vestingTime\n    /// @param maxTotalPayments the maximum amount of tokens they will receive, if they choose maxEndTime as vestingTime\n    /// @param proof array of hashes linking leaf hash of (destination, minTotalPayments, maxTotalPayments) to root\n    function initialize(\n        uint treeIndex,\n        uint vestingTime,\n        uint minTotalPayments,\n        uint maxTotalPayments,\n        bytes32[] memory proof) external returns (uint) {\n        if (treeIndex == 0 || treeIndex > numTrees) {\n            revert BadTreeIndex(treeIndex);\n        }\n\n        MerkleTree storage tree = merkleTrees[treeIndex];\n        // compute merkle leaf, this is first element of proof\n        bytes32 leaf = keccak256(abi.encode(msg.sender, minTotalPayments, maxTotalPayments));\n\n        if (tree.initialized[leaf]) {\n            revert AlreadyInitialized(treeIndex, leaf);\n        }\n\n        if (tree.merkleRoot.verifyProof(leaf, proof) == false) {\n            revert BadProof(treeIndex, leaf, proof);\n        }\n\n        (bool valid, uint totalCoins, uint coinsPerSecond, uint startTime) = verifyVestingSchedule(treeIndex, vestingTime, minTotalPayments, maxTotalPayments);\n\n        if (valid == false) {\n            revert BadVestingSchedule(treeIndex, vestingTime, minTotalPayments, maxTotalPayments);\n        }\n\n        // mark tree as initialized, preventing re-entrance or multiple initializations\n        tree.initialized[leaf] = true;\n\n\n        // fill out the struct for the address' vesting schedule\n        // don't have to mark as storage here, it's implied (why isn't it always implied when written to? solc-devs?)\n        tree.tranches[++tree.numTranchesInitialized] = Tranche(\n            msg.sender,\n            totalCoins,    // this is just a cached number for UI, not used\n            totalCoins,    // starts out full\n            startTime,     // start time will usually be in the past, if pctUpFront > 0\n            block.timestamp + vestingTime,  // vesting starts from initialization time\n            coinsPerSecond,  // cached value to avoid recomputation\n            startTime      // this is lastWithdrawalTime, set to startTime to indicate no withdrawals have occurred yet\n        );\n\n        emit TrancheInitialized(treeIndex, tree.numTranchesInitialized, msg.sender, leaf);\n\n        withdraw(treeIndex, tree.numTranchesInitialized);\n\n        return tree.numTranchesInitialized;\n    }\n\n    /// @notice Move unlocked funds to the destination\n    /// @dev Anyone may call this function for anyone else, funds go to destination regardless, it's just a question of\n    /// @dev who provides the proof and pays the gas, msg.sender is not used in this function\n    /// @param treeIndex index into array-like map of merkleTrees, which tree should we apply the proof to?\n    /// @param trancheIndex index into tranche map\n    function withdraw(uint treeIndex, uint trancheIndex) public {\n        MerkleTree storage tree = merkleTrees[treeIndex];\n        Tranche storage tranche = tree.tranches[trancheIndex];\n\n        // checking this way so we don't have to recompute leaf hash\n        if (tranche.totalCoins == 0) {\n            revert UninitializedAccount(treeIndex, trancheIndex);\n        }\n\n        // revert if there's nothing left\n        if (tranche.currentCoins == 0) {\n            revert AccountEmpty(treeIndex, trancheIndex);\n        }\n\n        uint currentWithdrawal;\n\n        // if after vesting period ends, give them the remaining coins, also avoids dust from rounding errors\n        if (block.timestamp >= tranche.endTime) {\n            currentWithdrawal = tranche.currentCoins;\n        } else {\n            // compute allowed withdrawal\n            // secondsElapsedSinceLastWithdrawal * coinsPerSecond == coinsAccumulatedSinceLastWithdrawal\n            currentWithdrawal = (block.timestamp - tranche.lastWithdrawalTime) * tranche.coinsPerSecond;\n        }\n\n        // move the time counter up so users can't double-withdraw allocated coins\n        // this also works as a re-entrance gate, so currentWithdrawal would be 0 upon re-entrance\n        tranche.lastWithdrawalTime = block.timestamp;\n\n        IERC20 token = IERC20(tree.tokenAddress);\n        uint balanceBefore = token.balanceOf(address(this));\n\n        // transfer the tokens, brah\n        // NOTE: if this is a malicious token, what could happen?\n        // 1/ token doesn't transfer given amount to recipient, this is bad for user, but does not effect other trees\n        // 2/ token fails for some reason, again bad for user, but this does not effect other trees\n        // 3/ token re-enters this function (or other, but this is the only one that transfers tokens out)\n        // in which case, lastWithdrawalTime == block.timestamp, so currentWithdrawal == 0\n        // Also this could be a misconfigured ERC20 and not return true even if successful, so diff should catch that\n        token.transfer(tranche.recipient, currentWithdrawal);\n\n        // compute the diff in case there is a fee-on-transfer or transfer failed silently\n        uint balanceAfter = token.balanceOf(address(this));\n        uint diff = balanceBefore - balanceAfter;\n\n        // update struct, modern solidity will catch underflow and prevent currentWithdrawal from exceeding currentCoins\n        // but it's computed internally anyway, not user generated\n        tranche.currentCoins -= diff;\n        // handle the bookkeeping so trees don't share tokens, do it before transferring to create one more re-entrance gate\n        tree.tokenBalance -= diff;\n\n        emit WithdrawalOccurred(treeIndex, tranche.recipient, diff, tranche.currentCoins);\n    }\n\n    /// @notice Determine if the proposed vesting schedule is legit\n    /// @dev Anyone may call this to check, but it also returns values used in the initialization of vesting schedules\n    /// @param treeIndex index into array-like map of merkleTrees, which tree are we talking about?\n    /// @param vestingTime user chosen length of vesting schedule\n    /// @param minTotalPayments pre-committed (in the root hash) minimum of possible totalCoins\n    /// @param maxTotalPayments pre-committed (in the root hash) maximum of possible totalCoins\n    /// @return valid is the proposed vesting-schedule valid\n    /// @return totalCoins amount of coins allocated in the vesting schedule\n    /// @return coinsPerSecond amount of coins released every second, in the proposed vesting schedule\n    /// @return startTime start time of vesting schedule implied by supplied parameters, will always be <= block.timestamp\n    function verifyVestingSchedule(uint treeIndex, uint vestingTime, uint minTotalPayments, uint maxTotalPayments) public view returns (bool, uint, uint, uint) {\n        // vesting schedules for non-existing trees are invalid, I don't care how much you like uninitialized structs\n        if (treeIndex > numTrees) {\n            return (false, 0, 0, 0);\n        }\n\n        // memory not storage, since we do not edit the tree, and it's a view function anyways\n        MerkleTree storage tree = merkleTrees[treeIndex];\n\n        // vesting time must sit within the closed interval of [minEndTime, maxEndTime]\n        if (vestingTime > tree.maxEndTime || vestingTime < tree.minEndTime) {\n            return (false, 0, 0, 0);\n        }\n\n        uint totalCoins;\n        if (vestingTime == tree.maxEndTime) {\n            // this is to prevent dust accumulation from rounding errors\n            // maxEndTime results in max payments, no further computation necessary\n            totalCoins = maxTotalPayments;\n        } else {\n            // remember grade school algebra? slope = Δy / Δx\n            // this is the slope of eligible vesting schedules. In general, 0 < m < 1,\n            // (longer vesting schedules should result in less coins per second, hence \"resistor\")\n            // so we multiply by a precision factor to reduce rounding errors\n            // y axis = total coins released after vesting completed\n            // x axis = length of vesting schedule\n            // this is the line of valid end-points for the chosen vesting schedule line, see below\n            // NOTE: this reverts if minTotalPayments > maxTotalPayments, which is a good thing\n            uint paymentSlope = (maxTotalPayments - minTotalPayments) * PRECISION / (tree.maxEndTime - tree.minEndTime);\n\n            // y = mx + b = paymentSlope * (x - x0) + y0\n            // divide by precision factor here since we have completed the rounding error sensitive operations\n            totalCoins = (paymentSlope * (vestingTime - tree.minEndTime) / PRECISION) + minTotalPayments;\n        }\n\n        // this is a different slope, the slope of their chosen vesting schedule\n        // y axis = cumulative coins emitted\n        // x axis = time elapsed\n        // NOTE: vestingTime starts from block.timestamp, so doesn't include coins already available from pctUpFront\n        // totalCoins / vestingTime is wrong, we have to multiple by the proportion of the coins that are indexed\n        // by vestingTime, which is (100 - pctUpFront) / 100\n        uint coinsPerSecond = (totalCoins * (uint(100) - tree.pctUpFront)) / (vestingTime * 100);\n\n        // vestingTime is relative to initialization point\n        // endTime = block.timestamp + vestingTime\n        // vestingLength = totalCoins / coinsPerSecond\n        uint startTime = block.timestamp + vestingTime - (totalCoins / coinsPerSecond);\n\n        return (true, totalCoins, coinsPerSecond, startTime);\n    }\n\n    function getTranche(uint treeIndex, uint trancheIndex) view external returns (address, uint, uint, uint, uint, uint, uint) {\n        Tranche storage tranche = merkleTrees[treeIndex].tranches[trancheIndex];\n        return (tranche.recipient, tranche.totalCoins, tranche.currentCoins, tranche.startTime, tranche.endTime, tranche.coinsPerSecond, tranche.lastWithdrawalTime);\n    }\n\n    function getInitialized(uint treeIndex, bytes32 leaf) external view returns (bool) {\n        return merkleTrees[treeIndex].initialized[leaf];\n    }\n\n}\n",
  "sourcePath": "contracts/MerkleResistor.sol",
  "type": "contract"
}