{
  "abi": [
    {
      "inputs": [
        {
          "internalType": "uint256",
          "name": "treeIndex",
          "type": "uint256"
        },
        {
          "internalType": "uint256",
          "name": "trancheIndex",
          "type": "uint256"
        }
      ],
      "name": "AccountEmpty",
      "type": "error"
    },
    {
      "inputs": [
        {
          "internalType": "uint256",
          "name": "treeIndex",
          "type": "uint256"
        },
        {
          "internalType": "bytes32",
          "name": "leaf",
          "type": "bytes32"
        }
      ],
      "name": "AlreadyInitialized",
      "type": "error"
    },
    {
      "inputs": [
        {
          "internalType": "uint256",
          "name": "treeIndex",
          "type": "uint256"
        },
        {
          "internalType": "bytes32",
          "name": "leaf",
          "type": "bytes32"
        },
        {
          "internalType": "bytes32[]",
          "name": "proof",
          "type": "bytes32[]"
        }
      ],
      "name": "BadProof",
      "type": "error"
    },
    {
      "inputs": [
        {
          "internalType": "uint256",
          "name": "treeIndex",
          "type": "uint256"
        },
        {
          "internalType": "uint256",
          "name": "vestingTime",
          "type": "uint256"
        },
        {
          "internalType": "uint256",
          "name": "minTotalPayments",
          "type": "uint256"
        },
        {
          "internalType": "uint256",
          "name": "maxTotalPayments",
          "type": "uint256"
        }
      ],
      "name": "BadVestingSchedule",
      "type": "error"
    },
    {
      "inputs": [
        {
          "internalType": "uint256",
          "name": "min",
          "type": "uint256"
        },
        {
          "internalType": "uint256",
          "name": "max",
          "type": "uint256"
        }
      ],
      "name": "IncoherentTimes",
      "type": "error"
    },
    {
      "inputs": [
        {
          "internalType": "uint256",
          "name": "pct",
          "type": "uint256"
        }
      ],
      "name": "InvalidPct",
      "type": "error"
    },
    {
      "inputs": [
        {
          "internalType": "uint256",
          "name": "treeIndex",
          "type": "uint256"
        },
        {
          "internalType": "uint256",
          "name": "trancheIndex",
          "type": "uint256"
        }
      ],
      "name": "UninitializedAccount",
      "type": "error"
    },
    {
      "anonymous": false,
      "inputs": [
        {
          "indexed": true,
          "internalType": "uint256",
          "name": "treeIndex",
          "type": "uint256"
        },
        {
          "indexed": true,
          "internalType": "address",
          "name": "tokenAddress",
          "type": "address"
        },
        {
          "indexed": false,
          "internalType": "bytes32",
          "name": "newRoot",
          "type": "bytes32"
        },
        {
          "indexed": false,
          "internalType": "bytes32",
          "name": "ipfsHash",
          "type": "bytes32"
        }
      ],
      "name": "MerkleTreeAdded",
      "type": "event"
    },
    {
      "anonymous": false,
      "inputs": [
        {
          "indexed": true,
          "internalType": "uint256",
          "name": "treeIndex",
          "type": "uint256"
        },
        {
          "indexed": true,
          "internalType": "address",
          "name": "tokenAddress",
          "type": "address"
        },
        {
          "indexed": false,
          "internalType": "uint256",
          "name": "amount",
          "type": "uint256"
        }
      ],
      "name": "TokensDeposited",
      "type": "event"
    },
    {
      "anonymous": false,
      "inputs": [
        {
          "indexed": true,
          "internalType": "uint256",
          "name": "treeIndex",
          "type": "uint256"
        },
        {
          "indexed": true,
          "internalType": "uint256",
          "name": "trancheIndex",
          "type": "uint256"
        },
        {
          "indexed": true,
          "internalType": "address",
          "name": "recipient",
          "type": "address"
        }
      ],
      "name": "TrancheInitialized",
      "type": "event"
    },
    {
      "anonymous": false,
      "inputs": [
        {
          "indexed": true,
          "internalType": "uint256",
          "name": "treeIndex",
          "type": "uint256"
        },
        {
          "indexed": true,
          "internalType": "address",
          "name": "destination",
          "type": "address"
        },
        {
          "indexed": false,
          "internalType": "uint256",
          "name": "numTokens",
          "type": "uint256"
        },
        {
          "indexed": false,
          "internalType": "uint256",
          "name": "tokensLeft",
          "type": "uint256"
        }
      ],
      "name": "WithdrawalOccurred",
      "type": "event"
    },
    {
      "inputs": [],
      "name": "PRECISION",
      "outputs": [
        {
          "internalType": "uint256",
          "name": "",
          "type": "uint256"
        }
      ],
      "stateMutability": "view",
      "type": "function"
    },
    {
      "inputs": [
        {
          "internalType": "bytes32",
          "name": "newRoot",
          "type": "bytes32"
        },
        {
          "internalType": "bytes32",
          "name": "ipfsHash",
          "type": "bytes32"
        },
        {
          "internalType": "uint256",
          "name": "minEndTime",
          "type": "uint256"
        },
        {
          "internalType": "uint256",
          "name": "maxEndTime",
          "type": "uint256"
        },
        {
          "internalType": "uint256",
          "name": "pctUpFront",
          "type": "uint256"
        },
        {
          "internalType": "address",
          "name": "tokenAddress",
          "type": "address"
        },
        {
          "internalType": "uint256",
          "name": "tokenBalance",
          "type": "uint256"
        }
      ],
      "name": "addMerkleTree",
      "outputs": [],
      "stateMutability": "nonpayable",
      "type": "function"
    },
    {
      "inputs": [
        {
          "internalType": "uint256",
          "name": "treeIndex",
          "type": "uint256"
        },
        {
          "internalType": "uint256",
          "name": "value",
          "type": "uint256"
        }
      ],
      "name": "depositTokens",
      "outputs": [],
      "stateMutability": "nonpayable",
      "type": "function"
    },
    {
      "inputs": [
        {
          "internalType": "uint256",
          "name": "treeIndex",
          "type": "uint256"
        },
        {
          "internalType": "uint256",
          "name": "trancheIndex",
          "type": "uint256"
        }
      ],
      "name": "getTranche",
      "outputs": [
        {
          "internalType": "address",
          "name": "",
          "type": "address"
        },
        {
          "internalType": "uint256",
          "name": "",
          "type": "uint256"
        },
        {
          "internalType": "uint256",
          "name": "",
          "type": "uint256"
        },
        {
          "internalType": "uint256",
          "name": "",
          "type": "uint256"
        },
        {
          "internalType": "uint256",
          "name": "",
          "type": "uint256"
        },
        {
          "internalType": "uint256",
          "name": "",
          "type": "uint256"
        },
        {
          "internalType": "uint256",
          "name": "",
          "type": "uint256"
        }
      ],
      "stateMutability": "view",
      "type": "function"
    },
    {
      "inputs": [
        {
          "internalType": "uint256",
          "name": "treeIndex",
          "type": "uint256"
        },
        {
          "internalType": "uint256",
          "name": "vestingTime",
          "type": "uint256"
        },
        {
          "internalType": "uint256",
          "name": "minTotalPayments",
          "type": "uint256"
        },
        {
          "internalType": "uint256",
          "name": "maxTotalPayments",
          "type": "uint256"
        },
        {
          "internalType": "bytes32[]",
          "name": "proof",
          "type": "bytes32[]"
        }
      ],
      "name": "initialize",
      "outputs": [
        {
          "internalType": "uint256",
          "name": "",
          "type": "uint256"
        }
      ],
      "stateMutability": "nonpayable",
      "type": "function"
    },
    {
      "inputs": [
        {
          "internalType": "uint256",
          "name": "",
          "type": "uint256"
        }
      ],
      "name": "merkleTrees",
      "outputs": [
        {
          "internalType": "bytes32",
          "name": "merkleRoot",
          "type": "bytes32"
        },
        {
          "internalType": "bytes32",
          "name": "ipfsHash",
          "type": "bytes32"
        },
        {
          "internalType": "uint256",
          "name": "minEndTime",
          "type": "uint256"
        },
        {
          "internalType": "uint256",
          "name": "maxEndTime",
          "type": "uint256"
        },
        {
          "internalType": "uint256",
          "name": "pctUpFront",
          "type": "uint256"
        },
        {
          "internalType": "address",
          "name": "tokenAddress",
          "type": "address"
        },
        {
          "internalType": "uint256",
          "name": "tokenBalance",
          "type": "uint256"
        },
        {
          "internalType": "uint256",
          "name": "numTranchesInitialized",
          "type": "uint256"
        }
      ],
      "stateMutability": "view",
      "type": "function"
    },
    {
      "inputs": [],
      "name": "numTrees",
      "outputs": [
        {
          "internalType": "uint256",
          "name": "",
          "type": "uint256"
        }
      ],
      "stateMutability": "view",
      "type": "function"
    },
    {
      "inputs": [
        {
          "internalType": "uint256",
          "name": "treeIndex",
          "type": "uint256"
        },
        {
          "internalType": "uint256",
          "name": "vestingTime",
          "type": "uint256"
        },
        {
          "internalType": "uint256",
          "name": "minTotalPayments",
          "type": "uint256"
        },
        {
          "internalType": "uint256",
          "name": "maxTotalPayments",
          "type": "uint256"
        }
      ],
      "name": "verifyVestingSchedule",
      "outputs": [
        {
          "internalType": "bool",
          "name": "",
          "type": "bool"
        },
        {
          "internalType": "uint256",
          "name": "",
          "type": "uint256"
        },
        {
          "internalType": "uint256",
          "name": "",
          "type": "uint256"
        },
        {
          "internalType": "uint256",
          "name": "",
          "type": "uint256"
        }
      ],
      "stateMutability": "view",
      "type": "function"
    },
    {
      "inputs": [
        {
          "internalType": "uint256",
          "name": "treeIndex",
          "type": "uint256"
        },
        {
          "internalType": "uint256",
          "name": "trancheIndex",
          "type": "uint256"
        }
      ],
      "name": "withdraw",
      "outputs": [],
      "stateMutability": "nonpayable",
      "type": "function"
    }
  ],
  "bytecode": "608060405234801561001057600080fd5b50610f62806100206000396000f3fe608060405234801561001057600080fd5b50600436106100935760003560e01c80637738992111610066578063773899211461019f57806385d88cb1146101b2578063aaf5eb6814610252578063d71383ed1461025c578063f16ad51e1461026f57600080fd5b80630b42abf214610098578063390b7c661461013e578063441a3e70146101555780636fb6ec411461016a575b600080fd5b6100fa6100a6366004610c1e565b600091825260016020818152604080852093855260089093019052912080549181015460028201546003830154600484015460058501546006909501546001600160a01b0390961696939592949193909290565b604080516001600160a01b0390981688526020880196909652948601939093526060850191909152608084015260a083015260c082015260e0015b60405180910390f35b61014760005481565b604051908152602001610135565b610168610163366004610c1e565b610282565b005b61017d610178366004610c40565b610535565b6040805194151585526020850193909352918301526060820152608001610135565b6101476101ad366004610c88565b610686565b61020e6101c0366004610d6f565b60016020819052600091825260409091208054918101546002820154600383015460048401546005850154600686015460079096015494959394929391926001600160a01b03909116919088565b60408051988952602089019790975295870194909452606086019290925260808501526001600160a01b031660a084015260c083015260e082015261010001610135565b610147620f424081565b61016861026a366004610d88565b610929565b61016861027d366004610c1e565b610a3f565b600082815260016020818152604080842085855260088101909252909220908101546102d05760405163c085915360e01b815260048101859052602481018490526044015b60405180910390fd5b60028101546102fc576040516318c0dc6760e21b815260048101859052602481018490526044016102c7565b60008160040154421061031457506002810154610335565b600582015460068301546103289042610e0a565b6103329190610e21565b90505b42600683015560058301546040516370a0823160e01b81523060048201526001600160a01b039091169060009082906370a0823190602401602060405180830381865afa15801561038a573d6000803e3d6000fd5b505050506040513d601f19601f820116820180604052508101906103ae9190610e40565b845460405163a9059cbb60e01b81526001600160a01b0391821660048201526024810186905291925083169063a9059cbb906044016020604051808303816000875af1158015610402573d6000803e3d6000fd5b505050506040513d601f19601f820116820180604052508101906104269190610e59565b506040516370a0823160e01b81523060048201526000906001600160a01b038416906370a0823190602401602060405180830381865afa15801561046e573d6000803e3d6000fd5b505050506040513d601f19601f820116820180604052508101906104929190610e40565b905060006104a08284610e0a565b9050808660020160008282546104b69190610e0a565b92505081905550808760060160008282546104d19190610e0a565b9091555050855460028701546040516001600160a01b03909216918b917f1680e4cfe90468085407ef2b599dbe94b0aa30ff9f180f0e41d22eb71c8728729161052291868252602082015260400190565b60405180910390a3505050505050505050565b6000806000806000548811156105565750600092508291508190508061067b565b600088815260016020526040902060038101548811806105795750806002015488105b156105925760008060008094509450945094505061067b565b600081600301548914156105a7575085610618565b6000826002015483600301546105bd9190610e0a565b620f42406105cb8b8b610e0a565b6105d59190610e21565b6105df9190610e82565b905088620f424084600201548c6105f69190610e0a565b6106009084610e21565b61060a9190610e82565b6106149190610ea4565b9150505b60006106258a6064610e21565b6004840154610635906064610e0a565b61063f9084610e21565b6106499190610e82565b905060006106578284610e82565b6106618c42610ea4565b61066b9190610e0a565b6001985092965090945090925050505b945094509450949050565b60008581526001602090815260408083208151338185015280830188905260608082018890528351808303909101815260809091018352805190840120808552600982019093529083205490919060ff16156106ff5760405163a0b0703160e01b815260048101899052602481018290526044016102c7565b8154604051632769cd1f60e21b815273__MerkleLib_____________________________91639da7347c9161073b919085908990600401610ebc565b602060405180830381865af4158015610758573d6000803e3d6000fd5b505050506040513d601f19601f8201168201806040525081019061077c9190610e59565b61079f57878185604051630da5a8fd60e41b81526004016102c793929190610ebc565b6000806000806107b18c8c8c8c610535565b92965090945092509050836107f1576040516323f4345360e01b8152600481018d9052602481018c9052604481018b9052606481018a90526084016102c7565b6000858152600987016020908152604091829020805460ff19166001179055815160e081018352338152908101859052908101849052606081018290526080810161083c8d42610ea4565b815260200183815260200182815250866008016000886007016000815461086290610f11565b9182905550815260208082019290925260409081016000908120845181546001600160a01b0319166001600160a01b03909116178155928401516001840155838201516002840155606084015160038401556080840151600484015560a0840151600584015560c0909301516006909201919091556007880154905133928f917f8d1a99fb79ba81aa040238d9df7033b8a8a3048d382036a272839a9c2a2616b59190a46109148c8760070154610282565b50505060079092015498975050505050505050565b6064831061094d5760405163078299b560e21b8152600481018490526024016102c7565b83851061097757604051636f30d75760e11b815260048101869052602481018590526044016102c7565b600060016000806000815461098b90610f11565b9182905550815260208101919091526040016000908120898155600181018990556002810188905560038101879055600481018690556005810180546001600160a01b0319166001600160a01b03871617905590549091506109ed9083610a3f565b600054604080518a8152602081018a90526001600160a01b03861692917f7247d7268297fd9fe23a535b70f414660bbcbbcd73ac0d9ce3c103a356a61f45910160405180910390a35050505050505050565b600082815260016020526040808220600581015491516370a0823160e01b815230600482015290926001600160a01b03909216919082906370a0823190602401602060405180830381865afa158015610a9c573d6000803e3d6000fd5b505050506040513d601f19601f82011682018060405250810190610ac09190610e40565b6040516323b872dd60e01b8152336004820152306024820152604481018690529091506001600160a01b038316906323b872dd906064016020604051808303816000875af1158015610b16573d6000803e3d6000fd5b505050506040513d601f19601f82011682018060405250810190610b3a9190610e59565b506040516370a0823160e01b81523060048201526000906001600160a01b038416906370a0823190602401602060405180830381865afa158015610b82573d6000803e3d6000fd5b505050506040513d601f19601f82011682018060405250810190610ba69190610e40565b90506000610bb48383610e0a565b905080856006016000828254610bca9190610ea4565b909155505060058501546040518281526001600160a01b039091169088907fb162210da7d23d82c18cff5af46d3562661d26b42a6848fa28d64a6bdc70386a9060200160405180910390a350505050505050565b60008060408385031215610c3157600080fd5b50508035926020909101359150565b60008060008060808587031215610c5657600080fd5b5050823594602084013594506040840135936060013592509050565b634e487b7160e01b600052604160045260246000fd5b600080600080600060a08688031215610ca057600080fd5b8535945060208087013594506040870135935060608701359250608087013567ffffffffffffffff80821115610cd557600080fd5b818901915089601f830112610ce957600080fd5b813581811115610cfb57610cfb610c72565b8060051b604051601f19603f83011681018181108582111715610d2057610d20610c72565b60405291825284820192508381018501918c831115610d3e57600080fd5b938501935b82851015610d5c57843584529385019392850192610d43565b8096505050505050509295509295909350565b600060208284031215610d8157600080fd5b5035919050565b600080600080600080600060e0888a031215610da357600080fd5b873596506020880135955060408801359450606088013593506080880135925060a08801356001600160a01b0381168114610ddd57600080fd5b8092505060c0880135905092959891949750929550565b634e487b7160e01b600052601160045260246000fd5b600082821015610e1c57610e1c610df4565b500390565b6000816000190483118215151615610e3b57610e3b610df4565b500290565b600060208284031215610e5257600080fd5b5051919050565b600060208284031215610e6b57600080fd5b81518015158114610e7b57600080fd5b9392505050565b600082610e9f57634e487b7160e01b600052601260045260246000fd5b500490565b60008219821115610eb757610eb7610df4565b500190565b6000606082018583526020858185015260606040850152818551808452608086019150828701935060005b81811015610f0357845183529383019391830191600101610ee7565b509098975050505050505050565b6000600019821415610f2557610f25610df4565b506001019056fea2646970667358221220f031dfbb315eb3d718508ada8829a58f6098020314df7c44a9fe885c1eb9970664736f6c634300080c0033",
  "bytecodeSha1": "f5d6101bf8b2502e2ffae1f7f1716f597d781f42",
  "compiler": {
    "evm_version": "istanbul",
    "optimizer": {
      "enabled": true,
      "runs": 200
    },
    "version": "0.8.12+commit.f00d7308"
  },
  "contractName": "MerkleResistor",
  "deployedBytecode": "608060405234801561001057600080fd5b50600436106100935760003560e01c80637738992111610066578063773899211461019f57806385d88cb1146101b2578063aaf5eb6814610252578063d71383ed1461025c578063f16ad51e1461026f57600080fd5b80630b42abf214610098578063390b7c661461013e578063441a3e70146101555780636fb6ec411461016a575b600080fd5b6100fa6100a6366004610c1e565b600091825260016020818152604080852093855260089093019052912080549181015460028201546003830154600484015460058501546006909501546001600160a01b0390961696939592949193909290565b604080516001600160a01b0390981688526020880196909652948601939093526060850191909152608084015260a083015260c082015260e0015b60405180910390f35b61014760005481565b604051908152602001610135565b610168610163366004610c1e565b610282565b005b61017d610178366004610c40565b610535565b6040805194151585526020850193909352918301526060820152608001610135565b6101476101ad366004610c88565b610686565b61020e6101c0366004610d6f565b60016020819052600091825260409091208054918101546002820154600383015460048401546005850154600686015460079096015494959394929391926001600160a01b03909116919088565b60408051988952602089019790975295870194909452606086019290925260808501526001600160a01b031660a084015260c083015260e082015261010001610135565b610147620f424081565b61016861026a366004610d88565b610929565b61016861027d366004610c1e565b610a3f565b600082815260016020818152604080842085855260088101909252909220908101546102d05760405163c085915360e01b815260048101859052602481018490526044015b60405180910390fd5b60028101546102fc576040516318c0dc6760e21b815260048101859052602481018490526044016102c7565b60008160040154421061031457506002810154610335565b600582015460068301546103289042610e0a565b6103329190610e21565b90505b42600683015560058301546040516370a0823160e01b81523060048201526001600160a01b039091169060009082906370a0823190602401602060405180830381865afa15801561038a573d6000803e3d6000fd5b505050506040513d601f19601f820116820180604052508101906103ae9190610e40565b845460405163a9059cbb60e01b81526001600160a01b0391821660048201526024810186905291925083169063a9059cbb906044016020604051808303816000875af1158015610402573d6000803e3d6000fd5b505050506040513d601f19601f820116820180604052508101906104269190610e59565b506040516370a0823160e01b81523060048201526000906001600160a01b038416906370a0823190602401602060405180830381865afa15801561046e573d6000803e3d6000fd5b505050506040513d601f19601f820116820180604052508101906104929190610e40565b905060006104a08284610e0a565b9050808660020160008282546104b69190610e0a565b92505081905550808760060160008282546104d19190610e0a565b9091555050855460028701546040516001600160a01b03909216918b917f1680e4cfe90468085407ef2b599dbe94b0aa30ff9f180f0e41d22eb71c8728729161052291868252602082015260400190565b60405180910390a3505050505050505050565b6000806000806000548811156105565750600092508291508190508061067b565b600088815260016020526040902060038101548811806105795750806002015488105b156105925760008060008094509450945094505061067b565b600081600301548914156105a7575085610618565b6000826002015483600301546105bd9190610e0a565b620f42406105cb8b8b610e0a565b6105d59190610e21565b6105df9190610e82565b905088620f424084600201548c6105f69190610e0a565b6106009084610e21565b61060a9190610e82565b6106149190610ea4565b9150505b60006106258a6064610e21565b6004840154610635906064610e0a565b61063f9084610e21565b6106499190610e82565b905060006106578284610e82565b6106618c42610ea4565b61066b9190610e0a565b6001985092965090945090925050505b945094509450949050565b60008581526001602090815260408083208151338185015280830188905260608082018890528351808303909101815260809091018352805190840120808552600982019093529083205490919060ff16156106ff5760405163a0b0703160e01b815260048101899052602481018290526044016102c7565b8154604051632769cd1f60e21b815273__$61dd25696c02d5bd2863c8d2c1a2324a87$__91639da7347c9161073b919085908990600401610ebc565b602060405180830381865af4158015610758573d6000803e3d6000fd5b505050506040513d601f19601f8201168201806040525081019061077c9190610e59565b61079f57878185604051630da5a8fd60e41b81526004016102c793929190610ebc565b6000806000806107b18c8c8c8c610535565b92965090945092509050836107f1576040516323f4345360e01b8152600481018d9052602481018c9052604481018b9052606481018a90526084016102c7565b6000858152600987016020908152604091829020805460ff19166001179055815160e081018352338152908101859052908101849052606081018290526080810161083c8d42610ea4565b815260200183815260200182815250866008016000886007016000815461086290610f11565b9182905550815260208082019290925260409081016000908120845181546001600160a01b0319166001600160a01b03909116178155928401516001840155838201516002840155606084015160038401556080840151600484015560a0840151600584015560c0909301516006909201919091556007880154905133928f917f8d1a99fb79ba81aa040238d9df7033b8a8a3048d382036a272839a9c2a2616b59190a46109148c8760070154610282565b50505060079092015498975050505050505050565b6064831061094d5760405163078299b560e21b8152600481018490526024016102c7565b83851061097757604051636f30d75760e11b815260048101869052602481018590526044016102c7565b600060016000806000815461098b90610f11565b9182905550815260208101919091526040016000908120898155600181018990556002810188905560038101879055600481018690556005810180546001600160a01b0319166001600160a01b03871617905590549091506109ed9083610a3f565b600054604080518a8152602081018a90526001600160a01b03861692917f7247d7268297fd9fe23a535b70f414660bbcbbcd73ac0d9ce3c103a356a61f45910160405180910390a35050505050505050565b600082815260016020526040808220600581015491516370a0823160e01b815230600482015290926001600160a01b03909216919082906370a0823190602401602060405180830381865afa158015610a9c573d6000803e3d6000fd5b505050506040513d601f19601f82011682018060405250810190610ac09190610e40565b6040516323b872dd60e01b8152336004820152306024820152604481018690529091506001600160a01b038316906323b872dd906064016020604051808303816000875af1158015610b16573d6000803e3d6000fd5b505050506040513d601f19601f82011682018060405250810190610b3a9190610e59565b506040516370a0823160e01b81523060048201526000906001600160a01b038416906370a0823190602401602060405180830381865afa158015610b82573d6000803e3d6000fd5b505050506040513d601f19601f82011682018060405250810190610ba69190610e40565b90506000610bb48383610e0a565b905080856006016000828254610bca9190610ea4565b909155505060058501546040518281526001600160a01b039091169088907fb162210da7d23d82c18cff5af46d3562661d26b42a6848fa28d64a6bdc70386a9060200160405180910390a350505050505050565b60008060408385031215610c3157600080fd5b50508035926020909101359150565b60008060008060808587031215610c5657600080fd5b5050823594602084013594506040840135936060013592509050565b634e487b7160e01b600052604160045260246000fd5b600080600080600060a08688031215610ca057600080fd5b8535945060208087013594506040870135935060608701359250608087013567ffffffffffffffff80821115610cd557600080fd5b818901915089601f830112610ce957600080fd5b813581811115610cfb57610cfb610c72565b8060051b604051601f19603f83011681018181108582111715610d2057610d20610c72565b60405291825284820192508381018501918c831115610d3e57600080fd5b938501935b82851015610d5c57843584529385019392850192610d43565b8096505050505050509295509295909350565b600060208284031215610d8157600080fd5b5035919050565b600080600080600080600060e0888a031215610da357600080fd5b873596506020880135955060408801359450606088013593506080880135925060a08801356001600160a01b0381168114610ddd57600080fd5b8092505060c0880135905092959891949750929550565b634e487b7160e01b600052601160045260246000fd5b600082821015610e1c57610e1c610df4565b500390565b6000816000190483118215151615610e3b57610e3b610df4565b500290565b600060208284031215610e5257600080fd5b5051919050565b600060208284031215610e6b57600080fd5b81518015158114610e7b57600080fd5b9392505050565b600082610e9f57634e487b7160e01b600052601260045260246000fd5b500490565b60008219821115610eb757610eb7610df4565b500190565b6000606082018583526020858185015260606040850152818551808452608086019150828701935060005b81811015610f0357845183529383019391830191600101610ee7565b509098975050505050505050565b6000600019821415610f2557610f25610df4565b506001019056fea2646970667358221220f031dfbb315eb3d718508ada8829a58f6098020314df7c44a9fe885c1eb9970664736f6c634300080c0033",
  "language": "Solidity",
  "natspec": {
    "author": "metapriest, adrian.wachel, marek.babiarz, radoslaw.gorecki",
    "details": "The contract cannot introspect into the contents of the merkle tree, except when provided a merkle proof.User chosen vesting schedules means the contract has parameters that define a line segment thatdescribes a range of vesting-schedule parameters within which the user can negotiate tradeoffsMore tokens => longer vesting time && slower drip, when used correctly, but the contract does not enforcecoherence of vesting schedules, so someone could make a range of vesting schedules in whichmore tokens => longer vesting time && faster drip, but this is a user error, also we wouldn't catch it untilafter the tree has been initialized and funded, so we just let them do it.The choice of which parameters to initialize at tree-creation-time versus at schedule-initialization-time issomewhat arbitrary, but we choose to have min/max end times at tree scope and min/max total payments at first-withdrawal-time",
    "kind": "dev",
    "methods": {
      "addMerkleTree(bytes32,bytes32,uint256,uint256,uint256,address,uint256)": {
        "details": "Anyone may call this function, therefore we must make sure trees cannot affect each otherRoot hash should be built from (destination, minTotalPayments, maxTotalPayments)",
        "notice": "Add a new merkle tree to the contract, creating a new merkle-vesting-schedule-range",
        "params": {
          "ipfsHash": "the ipfs hash of the entire dataset, used for redundance so that creator can ensure merkleproof are always computable",
          "maxEndTime": "a continuous range of possible end times are specified, this is the maximum",
          "minEndTime": "a continuous range of possible end times are specified, this is the minimum",
          "newRoot": "root hash of merkle tree representing vesting schedule ranges",
          "pctUpFront": "the percent of tokens user will get at initialization time (note this implies no lock time)",
          "tokenAddress": "the address of the token contract that is being distributed",
          "tokenBalance": "the amount of tokens user wishes to use to fund the airdrop, note trees can be under/overfunded"
        }
      },
      "depositTokens(uint256,uint256)": {
        "details": "Anyone may call this function, the only risk here is that the token contract is malicious, rendering the tree malicious",
        "notice": "Add funds to an existing merkle-tree",
        "params": {
          "treeIndex": "index into array-like map of merkleTrees",
          "value": "the amount of tokens user wishes to use to fund the airdrop, note trees can be under/overfunded"
        }
      },
      "initialize(uint256,uint256,uint256,uint256,bytes32[])": {
        "details": "Only the recipient can initialize their own schedule here, because a meaningful choice is madeIf the tree is over-funded, excess funds are lost. No clear way to get around this without zk-proofs of global tree stats",
        "notice": "Called once per recipient of a vesting schedule to initialize the vesting schedule and fix the parameters",
        "params": {
          "maxTotalPayments": "the maximum amount of tokens they will receive, if they choose maxEndTime as vestingTime",
          "minTotalPayments": "the minimum amount of tokens they will receive, if they choose minEndTime as vestingTime",
          "proof": "array of hashes linking leaf hash of (destination, minTotalPayments, maxTotalPayments) to root",
          "treeIndex": "index into array-like map of merkleTrees",
          "vestingTime": "the actual length of the vesting schedule, chosen by the user"
        }
      },
      "verifyVestingSchedule(uint256,uint256,uint256,uint256)": {
        "details": "Anyone may call this to check, but it also returns values used in the initialization of vesting schedules",
        "notice": "Determine if the proposed vesting schedule is legit",
        "params": {
          "maxTotalPayments": "pre-committed (in the root hash) maximum of possible totalCoins",
          "minTotalPayments": "pre-committed (in the root hash) minimum of possible totalCoins",
          "treeIndex": "index into array-like map of merkleTrees, which tree are we talking about?",
          "vestingTime": "user chosen length of vesting schedule"
        },
        "returns": {
          "_0": "valid is the proposed vesting-schedule valid",
          "_1": "totalCoins amount of coins allocated in the vesting schedule",
          "_2": "coinsPerSecond amount of coins released every second, in the proposed vesting schedule",
          "_3": "startTime start time of vesting schedule implied by supplied parameters, will always be <= block.timestamp"
        }
      },
      "withdraw(uint256,uint256)": {
        "details": "Anyone may call this function for anyone else, funds go to destination regardless, it's just a question ofwho provides the proof and pays the gas, msg.sender is not used in this function",
        "notice": "Move unlocked funds to the destination",
        "params": {
          "trancheIndex": "index into tranche map",
          "treeIndex": "index into array-like map of merkleTrees, which tree should we apply the proof to?"
        }
      }
    },
    "notice": "This contract is permissionless and public facing. Any fees must be included in the data of the merkle tree.",
    "title": "A factory pattern for user-chosen vesting-schedules, that is, a time release schedule for tokens, using merkle proofs to scale",
    "version": 1
  },
  "opcodes": "PUSH1 0x80 PUSH1 0x40 MSTORE CALLVALUE DUP1 ISZERO PUSH2 0x10 JUMPI PUSH1 0x0 DUP1 REVERT JUMPDEST POP PUSH1 0x4 CALLDATASIZE LT PUSH2 0x93 JUMPI PUSH1 0x0 CALLDATALOAD PUSH1 0xE0 SHR DUP1 PUSH4 0x77389921 GT PUSH2 0x66 JUMPI DUP1 PUSH4 0x77389921 EQ PUSH2 0x19F JUMPI DUP1 PUSH4 0x85D88CB1 EQ PUSH2 0x1B2 JUMPI DUP1 PUSH4 0xAAF5EB68 EQ PUSH2 0x252 JUMPI DUP1 PUSH4 0xD71383ED EQ PUSH2 0x25C JUMPI DUP1 PUSH4 0xF16AD51E EQ PUSH2 0x26F JUMPI PUSH1 0x0 DUP1 REVERT JUMPDEST DUP1 PUSH4 0xB42ABF2 EQ PUSH2 0x98 JUMPI DUP1 PUSH4 0x390B7C66 EQ PUSH2 0x13E JUMPI DUP1 PUSH4 0x441A3E70 EQ PUSH2 0x155 JUMPI DUP1 PUSH4 0x6FB6EC41 EQ PUSH2 0x16A JUMPI JUMPDEST PUSH1 0x0 DUP1 REVERT JUMPDEST PUSH2 0xFA PUSH2 0xA6 CALLDATASIZE PUSH1 0x4 PUSH2 0xC1E JUMP JUMPDEST PUSH1 0x0 SWAP2 DUP3 MSTORE PUSH1 0x1 PUSH1 0x20 DUP2 DUP2 MSTORE PUSH1 0x40 DUP1 DUP6 KECCAK256 SWAP4 DUP6 MSTORE PUSH1 0x8 SWAP1 SWAP4 ADD SWAP1 MSTORE SWAP2 KECCAK256 DUP1 SLOAD SWAP2 DUP2 ADD SLOAD PUSH1 0x2 DUP3 ADD SLOAD PUSH1 0x3 DUP4 ADD SLOAD PUSH1 0x4 DUP5 ADD SLOAD PUSH1 0x5 DUP6 ADD SLOAD PUSH1 0x6 SWAP1 SWAP6 ADD SLOAD PUSH1 0x1 PUSH1 0x1 PUSH1 0xA0 SHL SUB SWAP1 SWAP7 AND SWAP7 SWAP4 SWAP6 SWAP3 SWAP5 SWAP2 SWAP4 SWAP1 SWAP3 SWAP1 JUMP JUMPDEST PUSH1 0x40 DUP1 MLOAD PUSH1 0x1 PUSH1 0x1 PUSH1 0xA0 SHL SUB SWAP1 SWAP9 AND DUP9 MSTORE PUSH1 0x20 DUP9 ADD SWAP7 SWAP1 SWAP7 MSTORE SWAP5 DUP7 ADD SWAP4 SWAP1 SWAP4 MSTORE PUSH1 0x60 DUP6 ADD SWAP2 SWAP1 SWAP2 MSTORE PUSH1 0x80 DUP5 ADD MSTORE PUSH1 0xA0 DUP4 ADD MSTORE PUSH1 0xC0 DUP3 ADD MSTORE PUSH1 0xE0 ADD JUMPDEST PUSH1 0x40 MLOAD DUP1 SWAP2 SUB SWAP1 RETURN JUMPDEST PUSH2 0x147 PUSH1 0x0 SLOAD DUP2 JUMP JUMPDEST PUSH1 0x40 MLOAD SWAP1 DUP2 MSTORE PUSH1 0x20 ADD PUSH2 0x135 JUMP JUMPDEST PUSH2 0x168 PUSH2 0x163 CALLDATASIZE PUSH1 0x4 PUSH2 0xC1E JUMP JUMPDEST PUSH2 0x282 JUMP JUMPDEST STOP JUMPDEST PUSH2 0x17D PUSH2 0x178 CALLDATASIZE PUSH1 0x4 PUSH2 0xC40 JUMP JUMPDEST PUSH2 0x535 JUMP JUMPDEST PUSH1 0x40 DUP1 MLOAD SWAP5 ISZERO ISZERO DUP6 MSTORE PUSH1 0x20 DUP6 ADD SWAP4 SWAP1 SWAP4 MSTORE SWAP2 DUP4 ADD MSTORE PUSH1 0x60 DUP3 ADD MSTORE PUSH1 0x80 ADD PUSH2 0x135 JUMP JUMPDEST PUSH2 0x147 PUSH2 0x1AD CALLDATASIZE PUSH1 0x4 PUSH2 0xC88 JUMP JUMPDEST PUSH2 0x686 JUMP JUMPDEST PUSH2 0x20E PUSH2 0x1C0 CALLDATASIZE PUSH1 0x4 PUSH2 0xD6F JUMP JUMPDEST PUSH1 0x1 PUSH1 0x20 DUP2 SWAP1 MSTORE PUSH1 0x0 SWAP2 DUP3 MSTORE PUSH1 0x40 SWAP1 SWAP2 KECCAK256 DUP1 SLOAD SWAP2 DUP2 ADD SLOAD PUSH1 0x2 DUP3 ADD SLOAD PUSH1 0x3 DUP4 ADD SLOAD PUSH1 0x4 DUP5 ADD SLOAD PUSH1 0x5 DUP6 ADD SLOAD PUSH1 0x6 DUP7 ADD SLOAD PUSH1 0x7 SWAP1 SWAP7 ADD SLOAD SWAP5 SWAP6 SWAP4 SWAP5 SWAP3 SWAP4 SWAP2 SWAP3 PUSH1 0x1 PUSH1 0x1 PUSH1 0xA0 SHL SUB SWAP1 SWAP2 AND SWAP2 SWAP1 DUP9 JUMP JUMPDEST PUSH1 0x40 DUP1 MLOAD SWAP9 DUP10 MSTORE PUSH1 0x20 DUP10 ADD SWAP8 SWAP1 SWAP8 MSTORE SWAP6 DUP8 ADD SWAP5 SWAP1 SWAP5 MSTORE PUSH1 0x60 DUP7 ADD SWAP3 SWAP1 SWAP3 MSTORE PUSH1 0x80 DUP6 ADD MSTORE PUSH1 0x1 PUSH1 0x1 PUSH1 0xA0 SHL SUB AND PUSH1 0xA0 DUP5 ADD MSTORE PUSH1 0xC0 DUP4 ADD MSTORE PUSH1 0xE0 DUP3 ADD MSTORE PUSH2 0x100 ADD PUSH2 0x135 JUMP JUMPDEST PUSH2 0x147 PUSH3 0xF4240 DUP2 JUMP JUMPDEST PUSH2 0x168 PUSH2 0x26A CALLDATASIZE PUSH1 0x4 PUSH2 0xD88 JUMP JUMPDEST PUSH2 0x929 JUMP JUMPDEST PUSH2 0x168 PUSH2 0x27D CALLDATASIZE PUSH1 0x4 PUSH2 0xC1E JUMP JUMPDEST PUSH2 0xA3F JUMP JUMPDEST PUSH1 0x0 DUP3 DUP2 MSTORE PUSH1 0x1 PUSH1 0x20 DUP2 DUP2 MSTORE PUSH1 0x40 DUP1 DUP5 KECCAK256 DUP6 DUP6 MSTORE PUSH1 0x8 DUP2 ADD SWAP1 SWAP3 MSTORE SWAP1 SWAP3 KECCAK256 SWAP1 DUP2 ADD SLOAD PUSH2 0x2D0 JUMPI PUSH1 0x40 MLOAD PUSH4 0xC0859153 PUSH1 0xE0 SHL DUP2 MSTORE PUSH1 0x4 DUP2 ADD DUP6 SWAP1 MSTORE PUSH1 0x24 DUP2 ADD DUP5 SWAP1 MSTORE PUSH1 0x44 ADD JUMPDEST PUSH1 0x40 MLOAD DUP1 SWAP2 SUB SWAP1 REVERT JUMPDEST PUSH1 0x2 DUP2 ADD SLOAD PUSH2 0x2FC JUMPI PUSH1 0x40 MLOAD PUSH4 0x18C0DC67 PUSH1 0xE2 SHL DUP2 MSTORE PUSH1 0x4 DUP2 ADD DUP6 SWAP1 MSTORE PUSH1 0x24 DUP2 ADD DUP5 SWAP1 MSTORE PUSH1 0x44 ADD PUSH2 0x2C7 JUMP JUMPDEST PUSH1 0x0 DUP2 PUSH1 0x4 ADD SLOAD TIMESTAMP LT PUSH2 0x314 JUMPI POP PUSH1 0x2 DUP2 ADD SLOAD PUSH2 0x335 JUMP JUMPDEST PUSH1 0x5 DUP3 ADD SLOAD PUSH1 0x6 DUP4 ADD SLOAD PUSH2 0x328 SWAP1 TIMESTAMP PUSH2 0xE0A JUMP JUMPDEST PUSH2 0x332 SWAP2 SWAP1 PUSH2 0xE21 JUMP JUMPDEST SWAP1 POP JUMPDEST TIMESTAMP PUSH1 0x6 DUP4 ADD SSTORE PUSH1 0x5 DUP4 ADD SLOAD PUSH1 0x40 MLOAD PUSH4 0x70A08231 PUSH1 0xE0 SHL DUP2 MSTORE ADDRESS PUSH1 0x4 DUP3 ADD MSTORE PUSH1 0x1 PUSH1 0x1 PUSH1 0xA0 SHL SUB SWAP1 SWAP2 AND SWAP1 PUSH1 0x0 SWAP1 DUP3 SWAP1 PUSH4 0x70A08231 SWAP1 PUSH1 0x24 ADD PUSH1 0x20 PUSH1 0x40 MLOAD DUP1 DUP4 SUB DUP2 DUP7 GAS STATICCALL ISZERO DUP1 ISZERO PUSH2 0x38A JUMPI RETURNDATASIZE PUSH1 0x0 DUP1 RETURNDATACOPY RETURNDATASIZE PUSH1 0x0 REVERT JUMPDEST POP POP POP POP PUSH1 0x40 MLOAD RETURNDATASIZE PUSH1 0x1F NOT PUSH1 0x1F DUP3 ADD AND DUP3 ADD DUP1 PUSH1 0x40 MSTORE POP DUP2 ADD SWAP1 PUSH2 0x3AE SWAP2 SWAP1 PUSH2 0xE40 JUMP JUMPDEST DUP5 SLOAD PUSH1 0x40 MLOAD PUSH4 0xA9059CBB PUSH1 0xE0 SHL DUP2 MSTORE PUSH1 0x1 PUSH1 0x1 PUSH1 0xA0 SHL SUB SWAP2 DUP3 AND PUSH1 0x4 DUP3 ADD MSTORE PUSH1 0x24 DUP2 ADD DUP7 SWAP1 MSTORE SWAP2 SWAP3 POP DUP4 AND SWAP1 PUSH4 0xA9059CBB SWAP1 PUSH1 0x44 ADD PUSH1 0x20 PUSH1 0x40 MLOAD DUP1 DUP4 SUB DUP2 PUSH1 0x0 DUP8 GAS CALL ISZERO DUP1 ISZERO PUSH2 0x402 JUMPI RETURNDATASIZE PUSH1 0x0 DUP1 RETURNDATACOPY RETURNDATASIZE PUSH1 0x0 REVERT JUMPDEST POP POP POP POP PUSH1 0x40 MLOAD RETURNDATASIZE PUSH1 0x1F NOT PUSH1 0x1F DUP3 ADD AND DUP3 ADD DUP1 PUSH1 0x40 MSTORE POP DUP2 ADD SWAP1 PUSH2 0x426 SWAP2 SWAP1 PUSH2 0xE59 JUMP JUMPDEST POP PUSH1 0x40 MLOAD PUSH4 0x70A08231 PUSH1 0xE0 SHL DUP2 MSTORE ADDRESS PUSH1 0x4 DUP3 ADD MSTORE PUSH1 0x0 SWAP1 PUSH1 0x1 PUSH1 0x1 PUSH1 0xA0 SHL SUB DUP5 AND SWAP1 PUSH4 0x70A08231 SWAP1 PUSH1 0x24 ADD PUSH1 0x20 PUSH1 0x40 MLOAD DUP1 DUP4 SUB DUP2 DUP7 GAS STATICCALL ISZERO DUP1 ISZERO PUSH2 0x46E JUMPI RETURNDATASIZE PUSH1 0x0 DUP1 RETURNDATACOPY RETURNDATASIZE PUSH1 0x0 REVERT JUMPDEST POP POP POP POP PUSH1 0x40 MLOAD RETURNDATASIZE PUSH1 0x1F NOT PUSH1 0x1F DUP3 ADD AND DUP3 ADD DUP1 PUSH1 0x40 MSTORE POP DUP2 ADD SWAP1 PUSH2 0x492 SWAP2 SWAP1 PUSH2 0xE40 JUMP JUMPDEST SWAP1 POP PUSH1 0x0 PUSH2 0x4A0 DUP3 DUP5 PUSH2 0xE0A JUMP JUMPDEST SWAP1 POP DUP1 DUP7 PUSH1 0x2 ADD PUSH1 0x0 DUP3 DUP3 SLOAD PUSH2 0x4B6 SWAP2 SWAP1 PUSH2 0xE0A JUMP JUMPDEST SWAP3 POP POP DUP2 SWAP1 SSTORE POP DUP1 DUP8 PUSH1 0x6 ADD PUSH1 0x0 DUP3 DUP3 SLOAD PUSH2 0x4D1 SWAP2 SWAP1 PUSH2 0xE0A JUMP JUMPDEST SWAP1 SWAP2 SSTORE POP POP DUP6 SLOAD PUSH1 0x2 DUP8 ADD SLOAD PUSH1 0x40 MLOAD PUSH1 0x1 PUSH1 0x1 PUSH1 0xA0 SHL SUB SWAP1 SWAP3 AND SWAP2 DUP12 SWAP2 PUSH32 0x1680E4CFE90468085407EF2B599DBE94B0AA30FF9F180F0E41D22EB71C872872 SWAP2 PUSH2 0x522 SWAP2 DUP7 DUP3 MSTORE PUSH1 0x20 DUP3 ADD MSTORE PUSH1 0x40 ADD SWAP1 JUMP JUMPDEST PUSH1 0x40 MLOAD DUP1 SWAP2 SUB SWAP1 LOG3 POP POP POP POP POP POP POP POP POP JUMP JUMPDEST PUSH1 0x0 DUP1 PUSH1 0x0 DUP1 PUSH1 0x0 SLOAD DUP9 GT ISZERO PUSH2 0x556 JUMPI POP PUSH1 0x0 SWAP3 POP DUP3 SWAP2 POP DUP2 SWAP1 POP DUP1 PUSH2 0x67B JUMP JUMPDEST PUSH1 0x0 DUP9 DUP2 MSTORE PUSH1 0x1 PUSH1 0x20 MSTORE PUSH1 0x40 SWAP1 KECCAK256 PUSH1 0x3 DUP2 ADD SLOAD DUP9 GT DUP1 PUSH2 0x579 JUMPI POP DUP1 PUSH1 0x2 ADD SLOAD DUP9 LT JUMPDEST ISZERO PUSH2 0x592 JUMPI PUSH1 0x0 DUP1 PUSH1 0x0 DUP1 SWAP5 POP SWAP5 POP SWAP5 POP SWAP5 POP POP PUSH2 0x67B JUMP JUMPDEST PUSH1 0x0 DUP2 PUSH1 0x3 ADD SLOAD DUP10 EQ ISZERO PUSH2 0x5A7 JUMPI POP DUP6 PUSH2 0x618 JUMP JUMPDEST PUSH1 0x0 DUP3 PUSH1 0x2 ADD SLOAD DUP4 PUSH1 0x3 ADD SLOAD PUSH2 0x5BD SWAP2 SWAP1 PUSH2 0xE0A JUMP JUMPDEST PUSH3 0xF4240 PUSH2 0x5CB DUP12 DUP12 PUSH2 0xE0A JUMP JUMPDEST PUSH2 0x5D5 SWAP2 SWAP1 PUSH2 0xE21 JUMP JUMPDEST PUSH2 0x5DF SWAP2 SWAP1 PUSH2 0xE82 JUMP JUMPDEST SWAP1 POP DUP9 PUSH3 0xF4240 DUP5 PUSH1 0x2 ADD SLOAD DUP13 PUSH2 0x5F6 SWAP2 SWAP1 PUSH2 0xE0A JUMP JUMPDEST PUSH2 0x600 SWAP1 DUP5 PUSH2 0xE21 JUMP JUMPDEST PUSH2 0x60A SWAP2 SWAP1 PUSH2 0xE82 JUMP JUMPDEST PUSH2 0x614 SWAP2 SWAP1 PUSH2 0xEA4 JUMP JUMPDEST SWAP2 POP POP JUMPDEST PUSH1 0x0 PUSH2 0x625 DUP11 PUSH1 0x64 PUSH2 0xE21 JUMP JUMPDEST PUSH1 0x4 DUP5 ADD SLOAD PUSH2 0x635 SWAP1 PUSH1 0x64 PUSH2 0xE0A JUMP JUMPDEST PUSH2 0x63F SWAP1 DUP5 PUSH2 0xE21 JUMP JUMPDEST PUSH2 0x649 SWAP2 SWAP1 PUSH2 0xE82 JUMP JUMPDEST SWAP1 POP PUSH1 0x0 PUSH2 0x657 DUP3 DUP5 PUSH2 0xE82 JUMP JUMPDEST PUSH2 0x661 DUP13 TIMESTAMP PUSH2 0xEA4 JUMP JUMPDEST PUSH2 0x66B SWAP2 SWAP1 PUSH2 0xE0A JUMP JUMPDEST PUSH1 0x1 SWAP9 POP SWAP3 SWAP7 POP SWAP1 SWAP5 POP SWAP1 SWAP3 POP POP POP JUMPDEST SWAP5 POP SWAP5 POP SWAP5 POP SWAP5 SWAP1 POP JUMP JUMPDEST PUSH1 0x0 DUP6 DUP2 MSTORE PUSH1 0x1 PUSH1 0x20 SWAP1 DUP2 MSTORE PUSH1 0x40 DUP1 DUP4 KECCAK256 DUP2 MLOAD CALLER DUP2 DUP6 ADD MSTORE DUP1 DUP4 ADD DUP9 SWAP1 MSTORE PUSH1 0x60 DUP1 DUP3 ADD DUP9 SWAP1 MSTORE DUP4 MLOAD DUP1 DUP4 SUB SWAP1 SWAP2 ADD DUP2 MSTORE PUSH1 0x80 SWAP1 SWAP2 ADD DUP4 MSTORE DUP1 MLOAD SWAP1 DUP5 ADD KECCAK256 DUP1 DUP6 MSTORE PUSH1 0x9 DUP3 ADD SWAP1 SWAP4 MSTORE SWAP1 DUP4 KECCAK256 SLOAD SWAP1 SWAP2 SWAP1 PUSH1 0xFF AND ISZERO PUSH2 0x6FF JUMPI PUSH1 0x40 MLOAD PUSH4 0xA0B07031 PUSH1 0xE0 SHL DUP2 MSTORE PUSH1 0x4 DUP2 ADD DUP10 SWAP1 MSTORE PUSH1 0x24 DUP2 ADD DUP3 SWAP1 MSTORE PUSH1 0x44 ADD PUSH2 0x2C7 JUMP JUMPDEST DUP2 SLOAD PUSH1 0x40 MLOAD PUSH4 0x2769CD1F PUSH1 0xE2 SHL DUP2 MSTORE PUSH20 0x0 SWAP2 PUSH4 0x9DA7347C SWAP2 PUSH2 0x73B SWAP2 SWAP1 DUP6 SWAP1 DUP10 SWAP1 PUSH1 0x4 ADD PUSH2 0xEBC JUMP JUMPDEST PUSH1 0x20 PUSH1 0x40 MLOAD DUP1 DUP4 SUB DUP2 DUP7 GAS DELEGATECALL ISZERO DUP1 ISZERO PUSH2 0x758 JUMPI RETURNDATASIZE PUSH1 0x0 DUP1 RETURNDATACOPY RETURNDATASIZE PUSH1 0x0 REVERT JUMPDEST POP POP POP POP PUSH1 0x40 MLOAD RETURNDATASIZE PUSH1 0x1F NOT PUSH1 0x1F DUP3 ADD AND DUP3 ADD DUP1 PUSH1 0x40 MSTORE POP DUP2 ADD SWAP1 PUSH2 0x77C SWAP2 SWAP1 PUSH2 0xE59 JUMP JUMPDEST PUSH2 0x79F JUMPI DUP8 DUP2 DUP6 PUSH1 0x40 MLOAD PUSH4 0xDA5A8FD PUSH1 0xE4 SHL DUP2 MSTORE PUSH1 0x4 ADD PUSH2 0x2C7 SWAP4 SWAP3 SWAP2 SWAP1 PUSH2 0xEBC JUMP JUMPDEST PUSH1 0x0 DUP1 PUSH1 0x0 DUP1 PUSH2 0x7B1 DUP13 DUP13 DUP13 DUP13 PUSH2 0x535 JUMP JUMPDEST SWAP3 SWAP7 POP SWAP1 SWAP5 POP SWAP3 POP SWAP1 POP DUP4 PUSH2 0x7F1 JUMPI PUSH1 0x40 MLOAD PUSH4 0x23F43453 PUSH1 0xE0 SHL DUP2 MSTORE PUSH1 0x4 DUP2 ADD DUP14 SWAP1 MSTORE PUSH1 0x24 DUP2 ADD DUP13 SWAP1 MSTORE PUSH1 0x44 DUP2 ADD DUP12 SWAP1 MSTORE PUSH1 0x64 DUP2 ADD DUP11 SWAP1 MSTORE PUSH1 0x84 ADD PUSH2 0x2C7 JUMP JUMPDEST PUSH1 0x0 DUP6 DUP2 MSTORE PUSH1 0x9 DUP8 ADD PUSH1 0x20 SWAP1 DUP2 MSTORE PUSH1 0x40 SWAP2 DUP3 SWAP1 KECCAK256 DUP1 SLOAD PUSH1 0xFF NOT AND PUSH1 0x1 OR SWAP1 SSTORE DUP2 MLOAD PUSH1 0xE0 DUP2 ADD DUP4 MSTORE CALLER DUP2 MSTORE SWAP1 DUP2 ADD DUP6 SWAP1 MSTORE SWAP1 DUP2 ADD DUP5 SWAP1 MSTORE PUSH1 0x60 DUP2 ADD DUP3 SWAP1 MSTORE PUSH1 0x80 DUP2 ADD PUSH2 0x83C DUP14 TIMESTAMP PUSH2 0xEA4 JUMP JUMPDEST DUP2 MSTORE PUSH1 0x20 ADD DUP4 DUP2 MSTORE PUSH1 0x20 ADD DUP3 DUP2 MSTORE POP DUP7 PUSH1 0x8 ADD PUSH1 0x0 DUP9 PUSH1 0x7 ADD PUSH1 0x0 DUP2 SLOAD PUSH2 0x862 SWAP1 PUSH2 0xF11 JUMP JUMPDEST SWAP2 DUP3 SWAP1 SSTORE POP DUP2 MSTORE PUSH1 0x20 DUP1 DUP3 ADD SWAP3 SWAP1 SWAP3 MSTORE PUSH1 0x40 SWAP1 DUP2 ADD PUSH1 0x0 SWAP1 DUP2 KECCAK256 DUP5 MLOAD DUP2 SLOAD PUSH1 0x1 PUSH1 0x1 PUSH1 0xA0 SHL SUB NOT AND PUSH1 0x1 PUSH1 0x1 PUSH1 0xA0 SHL SUB SWAP1 SWAP2 AND OR DUP2 SSTORE SWAP3 DUP5 ADD MLOAD PUSH1 0x1 DUP5 ADD SSTORE DUP4 DUP3 ADD MLOAD PUSH1 0x2 DUP5 ADD SSTORE PUSH1 0x60 DUP5 ADD MLOAD PUSH1 0x3 DUP5 ADD SSTORE PUSH1 0x80 DUP5 ADD MLOAD PUSH1 0x4 DUP5 ADD SSTORE PUSH1 0xA0 DUP5 ADD MLOAD PUSH1 0x5 DUP5 ADD SSTORE PUSH1 0xC0 SWAP1 SWAP4 ADD MLOAD PUSH1 0x6 SWAP1 SWAP3 ADD SWAP2 SWAP1 SWAP2 SSTORE PUSH1 0x7 DUP9 ADD SLOAD SWAP1 MLOAD CALLER SWAP3 DUP16 SWAP2 PUSH32 0x8D1A99FB79BA81AA040238D9DF7033B8A8A3048D382036A272839A9C2A2616B5 SWAP2 SWAP1 LOG4 PUSH2 0x914 DUP13 DUP8 PUSH1 0x7 ADD SLOAD PUSH2 0x282 JUMP JUMPDEST POP POP POP PUSH1 0x7 SWAP1 SWAP3 ADD SLOAD SWAP9 SWAP8 POP POP POP POP POP POP POP POP JUMP JUMPDEST PUSH1 0x64 DUP4 LT PUSH2 0x94D JUMPI PUSH1 0x40 MLOAD PUSH4 0x78299B5 PUSH1 0xE2 SHL DUP2 MSTORE PUSH1 0x4 DUP2 ADD DUP5 SWAP1 MSTORE PUSH1 0x24 ADD PUSH2 0x2C7 JUMP JUMPDEST DUP4 DUP6 LT PUSH2 0x977 JUMPI PUSH1 0x40 MLOAD PUSH4 0x6F30D757 PUSH1 0xE1 SHL DUP2 MSTORE PUSH1 0x4 DUP2 ADD DUP7 SWAP1 MSTORE PUSH1 0x24 DUP2 ADD DUP6 SWAP1 MSTORE PUSH1 0x44 ADD PUSH2 0x2C7 JUMP JUMPDEST PUSH1 0x0 PUSH1 0x1 PUSH1 0x0 DUP1 PUSH1 0x0 DUP2 SLOAD PUSH2 0x98B SWAP1 PUSH2 0xF11 JUMP JUMPDEST SWAP2 DUP3 SWAP1 SSTORE POP DUP2 MSTORE PUSH1 0x20 DUP2 ADD SWAP2 SWAP1 SWAP2 MSTORE PUSH1 0x40 ADD PUSH1 0x0 SWAP1 DUP2 KECCAK256 DUP10 DUP2 SSTORE PUSH1 0x1 DUP2 ADD DUP10 SWAP1 SSTORE PUSH1 0x2 DUP2 ADD DUP9 SWAP1 SSTORE PUSH1 0x3 DUP2 ADD DUP8 SWAP1 SSTORE PUSH1 0x4 DUP2 ADD DUP7 SWAP1 SSTORE PUSH1 0x5 DUP2 ADD DUP1 SLOAD PUSH1 0x1 PUSH1 0x1 PUSH1 0xA0 SHL SUB NOT AND PUSH1 0x1 PUSH1 0x1 PUSH1 0xA0 SHL SUB DUP8 AND OR SWAP1 SSTORE SWAP1 SLOAD SWAP1 SWAP2 POP PUSH2 0x9ED SWAP1 DUP4 PUSH2 0xA3F JUMP JUMPDEST PUSH1 0x0 SLOAD PUSH1 0x40 DUP1 MLOAD DUP11 DUP2 MSTORE PUSH1 0x20 DUP2 ADD DUP11 SWAP1 MSTORE PUSH1 0x1 PUSH1 0x1 PUSH1 0xA0 SHL SUB DUP7 AND SWAP3 SWAP2 PUSH32 0x7247D7268297FD9FE23A535B70F414660BBCBBCD73AC0D9CE3C103A356A61F45 SWAP2 ADD PUSH1 0x40 MLOAD DUP1 SWAP2 SUB SWAP1 LOG3 POP POP POP POP POP POP POP POP JUMP JUMPDEST PUSH1 0x0 DUP3 DUP2 MSTORE PUSH1 0x1 PUSH1 0x20 MSTORE PUSH1 0x40 DUP1 DUP3 KECCAK256 PUSH1 0x5 DUP2 ADD SLOAD SWAP2 MLOAD PUSH4 0x70A08231 PUSH1 0xE0 SHL DUP2 MSTORE ADDRESS PUSH1 0x4 DUP3 ADD MSTORE SWAP1 SWAP3 PUSH1 0x1 PUSH1 0x1 PUSH1 0xA0 SHL SUB SWAP1 SWAP3 AND SWAP2 SWAP1 DUP3 SWAP1 PUSH4 0x70A08231 SWAP1 PUSH1 0x24 ADD PUSH1 0x20 PUSH1 0x40 MLOAD DUP1 DUP4 SUB DUP2 DUP7 GAS STATICCALL ISZERO DUP1 ISZERO PUSH2 0xA9C JUMPI RETURNDATASIZE PUSH1 0x0 DUP1 RETURNDATACOPY RETURNDATASIZE PUSH1 0x0 REVERT JUMPDEST POP POP POP POP PUSH1 0x40 MLOAD RETURNDATASIZE PUSH1 0x1F NOT PUSH1 0x1F DUP3 ADD AND DUP3 ADD DUP1 PUSH1 0x40 MSTORE POP DUP2 ADD SWAP1 PUSH2 0xAC0 SWAP2 SWAP1 PUSH2 0xE40 JUMP JUMPDEST PUSH1 0x40 MLOAD PUSH4 0x23B872DD PUSH1 0xE0 SHL DUP2 MSTORE CALLER PUSH1 0x4 DUP3 ADD MSTORE ADDRESS PUSH1 0x24 DUP3 ADD MSTORE PUSH1 0x44 DUP2 ADD DUP7 SWAP1 MSTORE SWAP1 SWAP2 POP PUSH1 0x1 PUSH1 0x1 PUSH1 0xA0 SHL SUB DUP4 AND SWAP1 PUSH4 0x23B872DD SWAP1 PUSH1 0x64 ADD PUSH1 0x20 PUSH1 0x40 MLOAD DUP1 DUP4 SUB DUP2 PUSH1 0x0 DUP8 GAS CALL ISZERO DUP1 ISZERO PUSH2 0xB16 JUMPI RETURNDATASIZE PUSH1 0x0 DUP1 RETURNDATACOPY RETURNDATASIZE PUSH1 0x0 REVERT JUMPDEST POP POP POP POP PUSH1 0x40 MLOAD RETURNDATASIZE PUSH1 0x1F NOT PUSH1 0x1F DUP3 ADD AND DUP3 ADD DUP1 PUSH1 0x40 MSTORE POP DUP2 ADD SWAP1 PUSH2 0xB3A SWAP2 SWAP1 PUSH2 0xE59 JUMP JUMPDEST POP PUSH1 0x40 MLOAD PUSH4 0x70A08231 PUSH1 0xE0 SHL DUP2 MSTORE ADDRESS PUSH1 0x4 DUP3 ADD MSTORE PUSH1 0x0 SWAP1 PUSH1 0x1 PUSH1 0x1 PUSH1 0xA0 SHL SUB DUP5 AND SWAP1 PUSH4 0x70A08231 SWAP1 PUSH1 0x24 ADD PUSH1 0x20 PUSH1 0x40 MLOAD DUP1 DUP4 SUB DUP2 DUP7 GAS STATICCALL ISZERO DUP1 ISZERO PUSH2 0xB82 JUMPI RETURNDATASIZE PUSH1 0x0 DUP1 RETURNDATACOPY RETURNDATASIZE PUSH1 0x0 REVERT JUMPDEST POP POP POP POP PUSH1 0x40 MLOAD RETURNDATASIZE PUSH1 0x1F NOT PUSH1 0x1F DUP3 ADD AND DUP3 ADD DUP1 PUSH1 0x40 MSTORE POP DUP2 ADD SWAP1 PUSH2 0xBA6 SWAP2 SWAP1 PUSH2 0xE40 JUMP JUMPDEST SWAP1 POP PUSH1 0x0 PUSH2 0xBB4 DUP4 DUP4 PUSH2 0xE0A JUMP JUMPDEST SWAP1 POP DUP1 DUP6 PUSH1 0x6 ADD PUSH1 0x0 DUP3 DUP3 SLOAD PUSH2 0xBCA SWAP2 SWAP1 PUSH2 0xEA4 JUMP JUMPDEST SWAP1 SWAP2 SSTORE POP POP PUSH1 0x5 DUP6 ADD SLOAD PUSH1 0x40 MLOAD DUP3 DUP2 MSTORE PUSH1 0x1 PUSH1 0x1 PUSH1 0xA0 SHL SUB SWAP1 SWAP2 AND SWAP1 DUP9 SWAP1 PUSH32 0xB162210DA7D23D82C18CFF5AF46D3562661D26B42A6848FA28D64A6BDC70386A SWAP1 PUSH1 0x20 ADD PUSH1 0x40 MLOAD DUP1 SWAP2 SUB SWAP1 LOG3 POP POP POP POP POP POP POP JUMP JUMPDEST PUSH1 0x0 DUP1 PUSH1 0x40 DUP4 DUP6 SUB SLT ISZERO PUSH2 0xC31 JUMPI PUSH1 0x0 DUP1 REVERT JUMPDEST POP POP DUP1 CALLDATALOAD SWAP3 PUSH1 0x20 SWAP1 SWAP2 ADD CALLDATALOAD SWAP2 POP JUMP JUMPDEST PUSH1 0x0 DUP1 PUSH1 0x0 DUP1 PUSH1 0x80 DUP6 DUP8 SUB SLT ISZERO PUSH2 0xC56 JUMPI PUSH1 0x0 DUP1 REVERT JUMPDEST POP POP DUP3 CALLDATALOAD SWAP5 PUSH1 0x20 DUP5 ADD CALLDATALOAD SWAP5 POP PUSH1 0x40 DUP5 ADD CALLDATALOAD SWAP4 PUSH1 0x60 ADD CALLDATALOAD SWAP3 POP SWAP1 POP JUMP JUMPDEST PUSH4 0x4E487B71 PUSH1 0xE0 SHL PUSH1 0x0 MSTORE PUSH1 0x41 PUSH1 0x4 MSTORE PUSH1 0x24 PUSH1 0x0 REVERT JUMPDEST PUSH1 0x0 DUP1 PUSH1 0x0 DUP1 PUSH1 0x0 PUSH1 0xA0 DUP7 DUP9 SUB SLT ISZERO PUSH2 0xCA0 JUMPI PUSH1 0x0 DUP1 REVERT JUMPDEST DUP6 CALLDATALOAD SWAP5 POP PUSH1 0x20 DUP1 DUP8 ADD CALLDATALOAD SWAP5 POP PUSH1 0x40 DUP8 ADD CALLDATALOAD SWAP4 POP PUSH1 0x60 DUP8 ADD CALLDATALOAD SWAP3 POP PUSH1 0x80 DUP8 ADD CALLDATALOAD PUSH8 0xFFFFFFFFFFFFFFFF DUP1 DUP3 GT ISZERO PUSH2 0xCD5 JUMPI PUSH1 0x0 DUP1 REVERT JUMPDEST DUP2 DUP10 ADD SWAP2 POP DUP10 PUSH1 0x1F DUP4 ADD SLT PUSH2 0xCE9 JUMPI PUSH1 0x0 DUP1 REVERT JUMPDEST DUP2 CALLDATALOAD DUP2 DUP2 GT ISZERO PUSH2 0xCFB JUMPI PUSH2 0xCFB PUSH2 0xC72 JUMP JUMPDEST DUP1 PUSH1 0x5 SHL PUSH1 0x40 MLOAD PUSH1 0x1F NOT PUSH1 0x3F DUP4 ADD AND DUP2 ADD DUP2 DUP2 LT DUP6 DUP3 GT OR ISZERO PUSH2 0xD20 JUMPI PUSH2 0xD20 PUSH2 0xC72 JUMP JUMPDEST PUSH1 0x40 MSTORE SWAP2 DUP3 MSTORE DUP5 DUP3 ADD SWAP3 POP DUP4 DUP2 ADD DUP6 ADD SWAP2 DUP13 DUP4 GT ISZERO PUSH2 0xD3E JUMPI PUSH1 0x0 DUP1 REVERT JUMPDEST SWAP4 DUP6 ADD SWAP4 JUMPDEST DUP3 DUP6 LT ISZERO PUSH2 0xD5C JUMPI DUP5 CALLDATALOAD DUP5 MSTORE SWAP4 DUP6 ADD SWAP4 SWAP3 DUP6 ADD SWAP3 PUSH2 0xD43 JUMP JUMPDEST DUP1 SWAP7 POP POP POP POP POP POP POP SWAP3 SWAP6 POP SWAP3 SWAP6 SWAP1 SWAP4 POP JUMP JUMPDEST PUSH1 0x0 PUSH1 0x20 DUP3 DUP5 SUB SLT ISZERO PUSH2 0xD81 JUMPI PUSH1 0x0 DUP1 REVERT JUMPDEST POP CALLDATALOAD SWAP2 SWAP1 POP JUMP JUMPDEST PUSH1 0x0 DUP1 PUSH1 0x0 DUP1 PUSH1 0x0 DUP1 PUSH1 0x0 PUSH1 0xE0 DUP9 DUP11 SUB SLT ISZERO PUSH2 0xDA3 JUMPI PUSH1 0x0 DUP1 REVERT JUMPDEST DUP8 CALLDATALOAD SWAP7 POP PUSH1 0x20 DUP9 ADD CALLDATALOAD SWAP6 POP PUSH1 0x40 DUP9 ADD CALLDATALOAD SWAP5 POP PUSH1 0x60 DUP9 ADD CALLDATALOAD SWAP4 POP PUSH1 0x80 DUP9 ADD CALLDATALOAD SWAP3 POP PUSH1 0xA0 DUP9 ADD CALLDATALOAD PUSH1 0x1 PUSH1 0x1 PUSH1 0xA0 SHL SUB DUP2 AND DUP2 EQ PUSH2 0xDDD JUMPI PUSH1 0x0 DUP1 REVERT JUMPDEST DUP1 SWAP3 POP POP PUSH1 0xC0 DUP9 ADD CALLDATALOAD SWAP1 POP SWAP3 SWAP6 SWAP9 SWAP2 SWAP5 SWAP8 POP SWAP3 SWAP6 POP JUMP JUMPDEST PUSH4 0x4E487B71 PUSH1 0xE0 SHL PUSH1 0x0 MSTORE PUSH1 0x11 PUSH1 0x4 MSTORE PUSH1 0x24 PUSH1 0x0 REVERT JUMPDEST PUSH1 0x0 DUP3 DUP3 LT ISZERO PUSH2 0xE1C JUMPI PUSH2 0xE1C PUSH2 0xDF4 JUMP JUMPDEST POP SUB SWAP1 JUMP JUMPDEST PUSH1 0x0 DUP2 PUSH1 0x0 NOT DIV DUP4 GT DUP3 ISZERO ISZERO AND ISZERO PUSH2 0xE3B JUMPI PUSH2 0xE3B PUSH2 0xDF4 JUMP JUMPDEST POP MUL SWAP1 JUMP JUMPDEST PUSH1 0x0 PUSH1 0x20 DUP3 DUP5 SUB SLT ISZERO PUSH2 0xE52 JUMPI PUSH1 0x0 DUP1 REVERT JUMPDEST POP MLOAD SWAP2 SWAP1 POP JUMP JUMPDEST PUSH1 0x0 PUSH1 0x20 DUP3 DUP5 SUB SLT ISZERO PUSH2 0xE6B JUMPI PUSH1 0x0 DUP1 REVERT JUMPDEST DUP2 MLOAD DUP1 ISZERO ISZERO DUP2 EQ PUSH2 0xE7B JUMPI PUSH1 0x0 DUP1 REVERT JUMPDEST SWAP4 SWAP3 POP POP POP JUMP JUMPDEST PUSH1 0x0 DUP3 PUSH2 0xE9F JUMPI PUSH4 0x4E487B71 PUSH1 0xE0 SHL PUSH1 0x0 MSTORE PUSH1 0x12 PUSH1 0x4 MSTORE PUSH1 0x24 PUSH1 0x0 REVERT JUMPDEST POP DIV SWAP1 JUMP JUMPDEST PUSH1 0x0 DUP3 NOT DUP3 GT ISZERO PUSH2 0xEB7 JUMPI PUSH2 0xEB7 PUSH2 0xDF4 JUMP JUMPDEST POP ADD SWAP1 JUMP JUMPDEST PUSH1 0x0 PUSH1 0x60 DUP3 ADD DUP6 DUP4 MSTORE PUSH1 0x20 DUP6 DUP2 DUP6 ADD MSTORE PUSH1 0x60 PUSH1 0x40 DUP6 ADD MSTORE DUP2 DUP6 MLOAD DUP1 DUP5 MSTORE PUSH1 0x80 DUP7 ADD SWAP2 POP DUP3 DUP8 ADD SWAP4 POP PUSH1 0x0 JUMPDEST DUP2 DUP2 LT ISZERO PUSH2 0xF03 JUMPI DUP5 MLOAD DUP4 MSTORE SWAP4 DUP4 ADD SWAP4 SWAP2 DUP4 ADD SWAP2 PUSH1 0x1 ADD PUSH2 0xEE7 JUMP JUMPDEST POP SWAP1 SWAP9 SWAP8 POP POP POP POP POP POP POP POP JUMP JUMPDEST PUSH1 0x0 PUSH1 0x0 NOT DUP3 EQ ISZERO PUSH2 0xF25 JUMPI PUSH2 0xF25 PUSH2 0xDF4 JUMP JUMPDEST POP PUSH1 0x1 ADD SWAP1 JUMP INVALID LOG2 PUSH5 0x6970667358 0x22 SLT KECCAK256 CREATE BALANCE 0xDF 0xBB BALANCE 0x5E 0xB3 0xD7 XOR POP DUP11 0xDA DUP9 0x29 0xA5 DUP16 PUSH1 0x98 MUL SUB EQ 0xDF PUSH29 0x44A9FE885C1EB9970664736F6C634300080C0033000000000000000000 ",
  "sha1": "05eefea05d5731d34c950d825e41e2ecb00342d8",
  "source": "// SPDX-License-Identifier: GPL-3.0-only\n\npragma solidity 0.8.12;\n\nimport \"../interfaces/IERC20.sol\";\nimport \"./MerkleLib.sol\";\n\n/// @title A factory pattern for user-chosen vesting-schedules, that is, a time release schedule for tokens, using merkle proofs to scale\n/// @author metapriest, adrian.wachel, marek.babiarz, radoslaw.gorecki\n/// @notice This contract is permissionless and public facing. Any fees must be included in the data of the merkle tree.\n/// @dev The contract cannot introspect into the contents of the merkle tree, except when provided a merkle proof.\n/// @dev User chosen vesting schedules means the contract has parameters that define a line segment that\n/// @dev describes a range of vesting-schedule parameters within which the user can negotiate tradeoffs\n/// @dev More tokens => longer vesting time && slower drip, when used correctly, but the contract does not enforce\n/// @dev coherence of vesting schedules, so someone could make a range of vesting schedules in which\n/// @dev more tokens => longer vesting time && faster drip, but this is a user error, also we wouldn't catch it until\n/// @dev after the tree has been initialized and funded, so we just let them do it.\n/// @dev The choice of which parameters to initialize at tree-creation-time versus at schedule-initialization-time is\n/// @dev somewhat arbitrary, but we choose to have min/max end times at tree scope and min/max total payments at first-withdrawal-time\ncontract MerkleResistor {\n    using MerkleLib for bytes32;\n\n    // tree (vesting schedule) counter\n    uint public numTrees;\n\n    // this represents a user chosen vesting schedule, post initiation\n    struct Tranche {\n        address recipient;\n        uint totalCoins; // total coins released after vesting complete\n        uint currentCoins; // unclaimed coins remaining in the contract, waiting to be vested\n        uint startTime; // start time of the vesting schedule\n        uint endTime;   // end time of the vesting schedule\n        uint coinsPerSecond;  // how many coins are emitted per second, this value is cached to avoid recomputing it\n        uint lastWithdrawalTime; // keep track of last time user claimed coins to compute coins owed for this withdrawal\n    }\n\n    // this represents an arbitrarily large set of token recipients with partially-initialized vesting schedules\n    struct MerkleTree {\n        bytes32 merkleRoot; // merkle root of tree whose leaves are ranges of vesting schedules for each recipient\n        bytes32 ipfsHash; // ipfs hash of the entire data set represented by the merkle root, in case our servers go down\n        uint minEndTime; // minimum length (offset, not absolute) of vesting schedule in seconds\n        uint maxEndTime; // maximum length (offset, not absolute) of vesting schedule in seconds\n        uint pctUpFront; // percent of vested coins that will be available and withdrawn upon initialization\n        address tokenAddress; // address of token to be distributed\n        uint tokenBalance; // amount of tokens allocated to this tree (this prevents trees from sharing tokens)\n        uint numTranchesInitialized;\n        mapping (uint => Tranche) tranches;\n        mapping (bytes32 => bool) initialized;\n    }\n\n    // basically an array of vesting schedules, but without annoying solidity array syntax\n    mapping (uint => MerkleTree) public merkleTrees;\n\n    // precision factory used to handle floating point arithmetic\n    uint constant public PRECISION = 1000000;\n\n    // every time a withdrawal occurs\n    event WithdrawalOccurred(uint indexed treeIndex, address indexed destination, uint numTokens, uint tokensLeft);\n\n    // every time a tree is added\n    event MerkleTreeAdded(uint indexed treeIndex, address indexed tokenAddress, bytes32 newRoot, bytes32 ipfsHash);\n\n    // every time a tree is topped up\n    event TokensDeposited(uint indexed treeIndex, address indexed tokenAddress, uint amount);\n    event TrancheInitialized(uint indexed treeIndex, uint indexed trancheIndex, address indexed recipient);\n\n    error InvalidPct(uint pct);\n    error IncoherentTimes(uint min, uint max);\n    error AlreadyInitialized(uint treeIndex, bytes32 leaf);\n    error BadProof(uint treeIndex, bytes32 leaf, bytes32[] proof);\n    error BadVestingSchedule(uint treeIndex, uint vestingTime, uint minTotalPayments, uint maxTotalPayments);\n    error UninitializedAccount(uint treeIndex, uint trancheIndex);\n    error AccountEmpty(uint treeIndex, uint trancheIndex);\n\n    /// @notice Add a new merkle tree to the contract, creating a new merkle-vesting-schedule-range\n    /// @dev Anyone may call this function, therefore we must make sure trees cannot affect each other\n    /// @dev Root hash should be built from (destination, minTotalPayments, maxTotalPayments)\n    /// @param newRoot root hash of merkle tree representing vesting schedule ranges\n    /// @param ipfsHash the ipfs hash of the entire dataset, used for redundance so that creator can ensure merkleproof are always computable\n    /// @param minEndTime a continuous range of possible end times are specified, this is the minimum\n    /// @param maxEndTime a continuous range of possible end times are specified, this is the maximum\n    /// @param pctUpFront the percent of tokens user will get at initialization time (note this implies no lock time)\n    /// @param tokenAddress the address of the token contract that is being distributed\n    /// @param tokenBalance the amount of tokens user wishes to use to fund the airdrop, note trees can be under/overfunded\n    function addMerkleTree(bytes32 newRoot, bytes32 ipfsHash, uint minEndTime, uint maxEndTime, uint pctUpFront, address tokenAddress, uint tokenBalance) public {\n        // check basic coherence of request\n        if (pctUpFront >= 100) {\n            revert InvalidPct(pctUpFront);\n        }\n\n        if (minEndTime >= maxEndTime) {\n            revert IncoherentTimes(minEndTime, maxEndTime);\n        }\n\n        MerkleTree storage tree = merkleTrees[++numTrees];\n        tree.merkleRoot = newRoot;\n        tree.ipfsHash = ipfsHash;\n        tree.minEndTime = minEndTime;\n        tree.maxEndTime = maxEndTime;\n        tree.pctUpFront = pctUpFront;\n        tree.tokenAddress = tokenAddress;\n\n        // pull tokens from user to fund the tree\n        // if tree is insufficiently funded, then some users may not be able to be paid out, this is the responsibility\n        // of the tree creator, if trees are not funded, then the UI will not display the tree\n        depositTokens(numTrees, tokenBalance);\n        emit MerkleTreeAdded(numTrees, tokenAddress, newRoot, ipfsHash);\n    }\n\n    /// @notice Add funds to an existing merkle-tree\n    /// @dev Anyone may call this function, the only risk here is that the token contract is malicious, rendering the tree malicious\n    /// @param treeIndex index into array-like map of merkleTrees\n    /// @param value the amount of tokens user wishes to use to fund the airdrop, note trees can be under/overfunded\n    function depositTokens(uint treeIndex, uint value) public {\n        // storage because we edit\n        MerkleTree storage merkleTree = merkleTrees[treeIndex];\n\n        IERC20 token = IERC20(merkleTree.tokenAddress);\n        uint balanceBefore = token.balanceOf(address(this));\n\n        // do the transfer from the caller\n        // NOTE: it is possible for user to overfund the tree and there is no mechanism to reclaim excess tokens\n        // this is because there is no way for the contract to know when a tree has had all leaves claimed.\n        // There is also no way for the contract to know the minimum or maximum liabilities represented by the leaves\n        // in short, there is no on-chain inspection of any of the leaf data except at initialization time\n        // NOTE: a malicious token contract could cause merkleTree.tokenBalance to be out of sync with the token contract\n        // this is an unavoidable possibility, and it could render the tree unusable, while leaving other trees unharmed\n        token.transferFrom(msg.sender, address(this), value);\n\n        uint balanceAfter = token.balanceOf(address(this));\n        // diff may be different from value here, it may even be zero if the transfer failed silently\n        uint diff = balanceAfter - balanceBefore;\n\n        // bookkeeping to make sure trees do not share tokens\n        merkleTree.tokenBalance += diff;\n        emit TokensDeposited(treeIndex, merkleTree.tokenAddress, diff);\n    }\n\n    /// @notice Called once per recipient of a vesting schedule to initialize the vesting schedule and fix the parameters\n    /// @dev Only the recipient can initialize their own schedule here, because a meaningful choice is made\n    /// @dev If the tree is over-funded, excess funds are lost. No clear way to get around this without zk-proofs of global tree stats\n    /// @param treeIndex index into array-like map of merkleTrees\n    /// @param vestingTime the actual length of the vesting schedule, chosen by the user\n    /// @param minTotalPayments the minimum amount of tokens they will receive, if they choose minEndTime as vestingTime\n    /// @param maxTotalPayments the maximum amount of tokens they will receive, if they choose maxEndTime as vestingTime\n    /// @param proof array of hashes linking leaf hash of (destination, minTotalPayments, maxTotalPayments) to root\n    function initialize(\n        uint treeIndex,\n        uint vestingTime,\n        uint minTotalPayments,\n        uint maxTotalPayments,\n        bytes32[] memory proof) external returns (uint) {\n        MerkleTree storage tree = merkleTrees[treeIndex];\n        // compute merkle leaf, this is first element of proof\n        bytes32 leaf = keccak256(abi.encode(msg.sender, minTotalPayments, maxTotalPayments));\n\n        if (tree.initialized[leaf]) {\n            revert AlreadyInitialized(treeIndex, leaf);\n        }\n\n        if (tree.merkleRoot.verifyProof(leaf, proof) == false) {\n            revert BadProof(treeIndex, leaf, proof);\n        }\n\n        (bool valid, uint totalCoins, uint coinsPerSecond, uint startTime) = verifyVestingSchedule(treeIndex, vestingTime, minTotalPayments, maxTotalPayments);\n\n        if (valid == false) {\n            revert BadVestingSchedule(treeIndex, vestingTime, minTotalPayments, maxTotalPayments);\n        }\n\n        // mark tree as initialized, preventing re-entrance or multiple initializations\n        tree.initialized[leaf] = true;\n\n\n        // fill out the struct for the address' vesting schedule\n        // don't have to mark as storage here, it's implied (why isn't it always implied when written to? solc-devs?)\n        tree.tranches[++tree.numTranchesInitialized] = Tranche(\n            msg.sender,\n            totalCoins,    // this is just a cached number for UI, not used\n            totalCoins,    // starts out full\n            startTime,     // start time will usually be in the past, if pctUpFront > 0\n            block.timestamp + vestingTime,  // vesting starts from initialization time\n            coinsPerSecond,  // cached value to avoid recomputation\n            startTime      // this is lastWithdrawalTime, set to startTime to indicate no withdrawals have occurred yet\n        );\n\n        emit TrancheInitialized(treeIndex, tree.numTranchesInitialized, msg.sender);\n\n        withdraw(treeIndex, tree.numTranchesInitialized);\n\n        return tree.numTranchesInitialized;\n    }\n\n    /// @notice Move unlocked funds to the destination\n    /// @dev Anyone may call this function for anyone else, funds go to destination regardless, it's just a question of\n    /// @dev who provides the proof and pays the gas, msg.sender is not used in this function\n    /// @param treeIndex index into array-like map of merkleTrees, which tree should we apply the proof to?\n    /// @param trancheIndex index into tranche map\n    function withdraw(uint treeIndex, uint trancheIndex) public {\n        MerkleTree storage tree = merkleTrees[treeIndex];\n        Tranche storage tranche = tree.tranches[trancheIndex];\n\n        // checking this way so we don't have to recompute leaf hash\n        if (tranche.totalCoins == 0) {\n            revert UninitializedAccount(treeIndex, trancheIndex);\n        }\n\n        // revert if there's nothing left\n        if (tranche.currentCoins == 0) {\n            revert AccountEmpty(treeIndex, trancheIndex);\n        }\n\n        uint currentWithdrawal;\n\n        // if after vesting period ends, give them the remaining coins, also avoids dust from rounding errors\n        if (block.timestamp >= tranche.endTime) {\n            currentWithdrawal = tranche.currentCoins;\n        } else {\n            // compute allowed withdrawal\n            // secondsElapsedSinceLastWithdrawal * coinsPerSecond == coinsAccumulatedSinceLastWithdrawal\n            currentWithdrawal = (block.timestamp - tranche.lastWithdrawalTime) * tranche.coinsPerSecond;\n        }\n\n        // move the time counter up so users can't double-withdraw allocated coins\n        // this also works as a re-entrance gate, so currentWithdrawal would be 0 upon re-entrance\n        tranche.lastWithdrawalTime = block.timestamp;\n\n        IERC20 token = IERC20(tree.tokenAddress);\n        uint balanceBefore = token.balanceOf(address(this));\n\n        // transfer the tokens, brah\n        // NOTE: if this is a malicious token, what could happen?\n        // 1/ token doesn't transfer given amount to recipient, this is bad for user, but does not effect other trees\n        // 2/ token fails for some reason, again bad for user, but this does not effect other trees\n        // 3/ token re-enters this function (or other, but this is the only one that transfers tokens out)\n        // in which case, lastWithdrawalTime == block.timestamp, so currentWithdrawal == 0\n        // Also this could be a misconfigured ERC20 and not return true even if successful, so diff should catch that\n        token.transfer(tranche.recipient, currentWithdrawal);\n\n        // compute the diff in case there is a fee-on-transfer or transfer failed silently\n        uint balanceAfter = token.balanceOf(address(this));\n        uint diff = balanceBefore - balanceAfter;\n\n        // update struct, modern solidity will catch underflow and prevent currentWithdrawal from exceeding currentCoins\n        // but it's computed internally anyway, not user generated\n        tranche.currentCoins -= diff;\n        // handle the bookkeeping so trees don't share tokens, do it before transferring to create one more re-entrance gate\n        tree.tokenBalance -= diff;\n\n        emit WithdrawalOccurred(treeIndex, tranche.recipient, diff, tranche.currentCoins);\n    }\n\n    /// @notice Determine if the proposed vesting schedule is legit\n    /// @dev Anyone may call this to check, but it also returns values used in the initialization of vesting schedules\n    /// @param treeIndex index into array-like map of merkleTrees, which tree are we talking about?\n    /// @param vestingTime user chosen length of vesting schedule\n    /// @param minTotalPayments pre-committed (in the root hash) minimum of possible totalCoins\n    /// @param maxTotalPayments pre-committed (in the root hash) maximum of possible totalCoins\n    /// @return valid is the proposed vesting-schedule valid\n    /// @return totalCoins amount of coins allocated in the vesting schedule\n    /// @return coinsPerSecond amount of coins released every second, in the proposed vesting schedule\n    /// @return startTime start time of vesting schedule implied by supplied parameters, will always be <= block.timestamp\n    function verifyVestingSchedule(uint treeIndex, uint vestingTime, uint minTotalPayments, uint maxTotalPayments) public view returns (bool, uint, uint, uint) {\n        // vesting schedules for non-existing trees are invalid, I don't care how much you like uninitialized structs\n        if (treeIndex > numTrees) {\n            return (false, 0, 0, 0);\n        }\n\n        // memory not storage, since we do not edit the tree, and it's a view function anyways\n        MerkleTree storage tree = merkleTrees[treeIndex];\n\n        // vesting time must sit within the closed interval of [minEndTime, maxEndTime]\n        if (vestingTime > tree.maxEndTime || vestingTime < tree.minEndTime) {\n            return (false, 0, 0, 0);\n        }\n\n        uint totalCoins;\n        if (vestingTime == tree.maxEndTime) {\n            // this is to prevent dust accumulation from rounding errors\n            // maxEndTime results in max payments, no further computation necessary\n            totalCoins = maxTotalPayments;\n        } else {\n            // remember grade school algebra? slope = Δy / Δx\n            // this is the slope of eligible vesting schedules. In general, 0 < m < 1,\n            // (longer vesting schedules should result in less coins per second, hence \"resistor\")\n            // so we multiply by a precision factor to reduce rounding errors\n            // y axis = total coins released after vesting completed\n            // x axis = length of vesting schedule\n            // this is the line of valid end-points for the chosen vesting schedule line, see below\n            // NOTE: this reverts if minTotalPayments > maxTotalPayments, which is a good thing\n            uint paymentSlope = (maxTotalPayments - minTotalPayments) * PRECISION / (tree.maxEndTime - tree.minEndTime);\n\n            // y = mx + b = paymentSlope * (x - x0) + y0\n            // divide by precision factor here since we have completed the rounding error sensitive operations\n            totalCoins = (paymentSlope * (vestingTime - tree.minEndTime) / PRECISION) + minTotalPayments;\n        }\n\n        // this is a different slope, the slope of their chosen vesting schedule\n        // y axis = cumulative coins emitted\n        // x axis = time elapsed\n        // NOTE: vestingTime starts from block.timestamp, so doesn't include coins already available from pctUpFront\n        // totalCoins / vestingTime is wrong, we have to multiple by the proportion of the coins that are indexed\n        // by vestingTime, which is (100 - pctUpFront) / 100\n        uint coinsPerSecond = (totalCoins * (uint(100) - tree.pctUpFront)) / (vestingTime * 100);\n\n        // vestingTime is relative to initialization point\n        // endTime = block.timestamp + vestingTime\n        // vestingLength = totalCoins / coinsPerSecond\n        uint startTime = block.timestamp + vestingTime - (totalCoins / coinsPerSecond);\n\n        return (true, totalCoins, coinsPerSecond, startTime);\n    }\n\n    function getTranche(uint treeIndex, uint trancheIndex) view external returns (address, uint, uint, uint, uint, uint, uint) {\n        Tranche storage tranche = merkleTrees[treeIndex].tranches[trancheIndex];\n        return (tranche.recipient, tranche.totalCoins, tranche.currentCoins, tranche.startTime, tranche.endTime, tranche.coinsPerSecond, tranche.lastWithdrawalTime);\n    }\n\n}\n",
  "sourcePath": "contracts/MerkleResistor.sol",
  "type": "contract"
}