{
  "abi": [
    {
      "inputs": [
        {
          "internalType": "uint256",
          "name": "treeIndex",
          "type": "uint256"
        },
        {
          "internalType": "address",
          "name": "recipient",
          "type": "address"
        }
      ],
      "name": "AccountEmpty",
      "type": "error"
    },
    {
      "inputs": [
        {
          "internalType": "uint256",
          "name": "treeIndex",
          "type": "uint256"
        },
        {
          "internalType": "address",
          "name": "recipient",
          "type": "address"
        }
      ],
      "name": "AccountStillLocked",
      "type": "error"
    },
    {
      "inputs": [
        {
          "internalType": "uint256",
          "name": "treeIndex",
          "type": "uint256"
        },
        {
          "internalType": "address",
          "name": "destination",
          "type": "address"
        }
      ],
      "name": "AlreadyInitialized",
      "type": "error"
    },
    {
      "inputs": [
        {
          "internalType": "uint256",
          "name": "treeIndex",
          "type": "uint256"
        },
        {
          "internalType": "bytes32",
          "name": "leaf",
          "type": "bytes32"
        },
        {
          "internalType": "bytes32[]",
          "name": "proof",
          "type": "bytes32[]"
        }
      ],
      "name": "BadProof",
      "type": "error"
    },
    {
      "inputs": [
        {
          "internalType": "uint256",
          "name": "treeIndex",
          "type": "uint256"
        }
      ],
      "name": "BadTreeIndex",
      "type": "error"
    },
    {
      "inputs": [
        {
          "internalType": "uint256",
          "name": "treeIndex",
          "type": "uint256"
        },
        {
          "internalType": "address",
          "name": "recipient",
          "type": "address"
        }
      ],
      "name": "UninitializedAccount",
      "type": "error"
    },
    {
      "anonymous": false,
      "inputs": [
        {
          "indexed": true,
          "internalType": "uint256",
          "name": "treeIndex",
          "type": "uint256"
        },
        {
          "indexed": true,
          "internalType": "address",
          "name": "tokenAddress",
          "type": "address"
        },
        {
          "indexed": false,
          "internalType": "bytes32",
          "name": "newRoot",
          "type": "bytes32"
        },
        {
          "indexed": false,
          "internalType": "bytes32",
          "name": "ipfsHash",
          "type": "bytes32"
        }
      ],
      "name": "MerkleRootAdded",
      "type": "event"
    },
    {
      "anonymous": false,
      "inputs": [
        {
          "indexed": true,
          "internalType": "uint256",
          "name": "treeIndex",
          "type": "uint256"
        },
        {
          "indexed": true,
          "internalType": "address",
          "name": "tokenAddress",
          "type": "address"
        },
        {
          "indexed": false,
          "internalType": "uint256",
          "name": "amount",
          "type": "uint256"
        }
      ],
      "name": "TokensDeposited",
      "type": "event"
    },
    {
      "anonymous": false,
      "inputs": [
        {
          "indexed": true,
          "internalType": "uint256",
          "name": "treeIndex",
          "type": "uint256"
        },
        {
          "indexed": true,
          "internalType": "address",
          "name": "destination",
          "type": "address"
        },
        {
          "indexed": false,
          "internalType": "uint256",
          "name": "numTokens",
          "type": "uint256"
        },
        {
          "indexed": false,
          "internalType": "uint256",
          "name": "tokensLeft",
          "type": "uint256"
        }
      ],
      "name": "WithdrawalOccurred",
      "type": "event"
    },
    {
      "inputs": [
        {
          "internalType": "bytes32",
          "name": "newRoot",
          "type": "bytes32"
        },
        {
          "internalType": "bytes32",
          "name": "ipfsHash",
          "type": "bytes32"
        },
        {
          "internalType": "address",
          "name": "tokenAddress",
          "type": "address"
        },
        {
          "internalType": "uint256",
          "name": "tokenBalance",
          "type": "uint256"
        }
      ],
      "name": "addMerkleRoot",
      "outputs": [],
      "stateMutability": "nonpayable",
      "type": "function"
    },
    {
      "inputs": [
        {
          "internalType": "uint256",
          "name": "treeIndex",
          "type": "uint256"
        },
        {
          "internalType": "uint256",
          "name": "value",
          "type": "uint256"
        }
      ],
      "name": "depositTokens",
      "outputs": [],
      "stateMutability": "nonpayable",
      "type": "function"
    },
    {
      "inputs": [
        {
          "internalType": "uint256",
          "name": "treeIndex",
          "type": "uint256"
        },
        {
          "internalType": "address",
          "name": "destination",
          "type": "address"
        },
        {
          "internalType": "uint256",
          "name": "totalCoins",
          "type": "uint256"
        },
        {
          "internalType": "uint256",
          "name": "startTime",
          "type": "uint256"
        },
        {
          "internalType": "uint256",
          "name": "endTime",
          "type": "uint256"
        },
        {
          "internalType": "uint256",
          "name": "lockPeriodEndTime",
          "type": "uint256"
        },
        {
          "internalType": "bytes32[]",
          "name": "proof",
          "type": "bytes32[]"
        }
      ],
      "name": "initialize",
      "outputs": [],
      "stateMutability": "nonpayable",
      "type": "function"
    },
    {
      "inputs": [
        {
          "internalType": "uint256",
          "name": "",
          "type": "uint256"
        },
        {
          "internalType": "bytes32",
          "name": "",
          "type": "bytes32"
        }
      ],
      "name": "initialized",
      "outputs": [
        {
          "internalType": "bool",
          "name": "",
          "type": "bool"
        }
      ],
      "stateMutability": "view",
      "type": "function"
    },
    {
      "inputs": [
        {
          "internalType": "uint256",
          "name": "",
          "type": "uint256"
        }
      ],
      "name": "merkleTrees",
      "outputs": [
        {
          "internalType": "bytes32",
          "name": "rootHash",
          "type": "bytes32"
        },
        {
          "internalType": "bytes32",
          "name": "ipfsHash",
          "type": "bytes32"
        },
        {
          "internalType": "address",
          "name": "tokenAddress",
          "type": "address"
        },
        {
          "internalType": "uint256",
          "name": "tokenBalance",
          "type": "uint256"
        }
      ],
      "stateMutability": "view",
      "type": "function"
    },
    {
      "inputs": [],
      "name": "numTrees",
      "outputs": [
        {
          "internalType": "uint256",
          "name": "",
          "type": "uint256"
        }
      ],
      "stateMutability": "view",
      "type": "function"
    },
    {
      "inputs": [
        {
          "internalType": "address",
          "name": "",
          "type": "address"
        },
        {
          "internalType": "uint256",
          "name": "",
          "type": "uint256"
        }
      ],
      "name": "tranches",
      "outputs": [
        {
          "internalType": "uint256",
          "name": "totalCoins",
          "type": "uint256"
        },
        {
          "internalType": "uint256",
          "name": "currentCoins",
          "type": "uint256"
        },
        {
          "internalType": "uint256",
          "name": "startTime",
          "type": "uint256"
        },
        {
          "internalType": "uint256",
          "name": "endTime",
          "type": "uint256"
        },
        {
          "internalType": "uint256",
          "name": "coinsPerSecond",
          "type": "uint256"
        },
        {
          "internalType": "uint256",
          "name": "lastWithdrawalTime",
          "type": "uint256"
        },
        {
          "internalType": "uint256",
          "name": "lockPeriodEndTime",
          "type": "uint256"
        }
      ],
      "stateMutability": "view",
      "type": "function"
    },
    {
      "inputs": [
        {
          "internalType": "uint256",
          "name": "treeIndex",
          "type": "uint256"
        },
        {
          "internalType": "address",
          "name": "destination",
          "type": "address"
        }
      ],
      "name": "withdraw",
      "outputs": [],
      "stateMutability": "nonpayable",
      "type": "function"
    }
  ],
  "bytecode": "608060405234801561001057600080fd5b50610e18806100206000396000f3fe608060405234801561001057600080fd5b50600436106100875760003560e01c8063a8efa9ba1161005b578063a8efa9ba1461013f578063c26cb54f14610152578063cf61bf72146101db578063f16ad51e1461021957600080fd5b8062f714ce1461008c578063390b7c66146100a157806385d88cb1146100bd5780639e18a0541461012c575b600080fd5b61009f61009a366004610ac5565b61022c565b005b6100aa60005481565b6040519081526020015b60405180910390f35b6100fd6100cb366004610af1565b600260208190526000918252604090912080546001820154928201546003909201549092916001600160a01b03169084565b6040516100b4949392919093845260208401929092526001600160a01b03166040830152606082015260800190565b61009f61013a366004610b0a565b61052d565b61009f61014d366004610b5d565b61061b565b6101a6610160366004610c5e565b6003602081815260009384526040808520909152918352912080546001820154600283015493830154600484015460058501546006909501549395929492939192909187565b604080519788526020880196909652948601939093526060850191909152608084015260a083015260c082015260e0016100b4565b6102096101e9366004610c88565b600160209081526000928352604080842090915290825290205460ff1681565b60405190151581526020016100b4565b61009f610227366004610c88565b61089b565b6001600160a01b038116600090815260036020908152604080832085845290915290208054610284576040516211b7dd60ea1b8152600481018490526001600160a01b03831660248201526044015b60405180910390fd5b80600601544210156102bb5760405163f49184ff60e01b8152600481018490526001600160a01b038316602482015260440161027b565b60018101546102ef576040516324a137c160e01b8152600481018490526001600160a01b038316602482015260440161027b565b60008160030154421061030757506001810154610328565b6004820154600583015461031b9042610cc0565b6103259190610cd7565b90505b42600583015560008481526002602081905260408083209182015490516370a0823160e01b815230600482015291926001600160a01b039091169182906370a0823190602401602060405180830381865afa15801561038b573d6000803e3d6000fd5b505050506040513d601f19601f820116820180604052508101906103af9190610cf6565b60405163a9059cbb60e01b81526001600160a01b038881166004830152602482018790529192509083169063a9059cbb906044016020604051808303816000875af1158015610402573d6000803e3d6000fd5b505050506040513d601f19601f820116820180604052508101906104269190610d0f565b506040516370a0823160e01b81523060048201526000906001600160a01b038416906370a0823190602401602060405180830381865afa15801561046e573d6000803e3d6000fd5b505050506040513d601f19601f820116820180604052508101906104929190610cf6565b905060006104a08284610cc0565b9050808760010160008282546104b69190610cc0565b92505081905550808560030160008282546104d19190610cc0565b909155505060018701546040805183815260208101929092526001600160a01b038a16918b917f1680e4cfe90468085407ef2b599dbe94b0aa30ff9f180f0e41d22eb71c872872910160405180910390a3505050505050505050565b6040518060800160405280858152602001848152602001836001600160a01b03168152602001600081525060026000806000815461056a90610d38565b918290555081526020808201929092526040908101600090812084518155928401516001840155908301516002830180546001600160a01b0319166001600160a01b03909216919091179055606090920151600390910155546105cd908261089b565b60005460408051868152602081018690526001600160a01b03851692917fb72ea3ed46a7513251023946d5d35916f3e1d76d748bb144e641d1162dee222f910160405180910390a350505050565b861580610629575060005487115b1561064a5760405163190a97ad60e01b81526004810188905260240161027b565b604080516001600160a01b0388166020820152908101869052606081018590526080810184905260a0810183905260009060c00160408051601f19818403018152918152815160209283012060008b81526001845282812082825290935291205490915060ff16156106e15760405163d700855760e01b8152600481018990526001600160a01b038816602482015260440161027b565b6000888152600260205260409081902080549151632769cd1f60e21b8152909173__MerkleLib_____________________________91639da7347c9161072d9186908890600401610d53565b602060405180830381865af415801561074a573d6000803e3d6000fd5b505050506040513d601f19601f8201168201806040525081019061076e9190610d0f565b61079157888284604051630da5a8fd60e41b815260040161027b93929190610d53565b60008981526001602081815260408084208685529091528220805460ff191690911790556107bf8787610cc0565b6107c99089610da8565b90506040518060e0016040528089815260200189815260200188815260200187815260200182815260200188815260200186815250600360008b6001600160a01b03166001600160a01b0316815260200190815260200160002060008c8152602001908152602001600020600082015181600001556020820151816001015560408201518160020155606082015181600301556080820151816004015560a0820151816005015560c082015181600601559050504285101561088f5761088f8a8a61022c565b50505050505050505050565b8115806108a9575060005482115b156108ca5760405163190a97ad60e01b81526004810183905260240161027b565b60008281526002602081905260408083209182015490516370a0823160e01b815230600482015291926001600160a01b039091169182906370a0823190602401602060405180830381865afa158015610927573d6000803e3d6000fd5b505050506040513d601f19601f8201168201806040525081019061094b9190610cf6565b6040516323b872dd60e01b8152336004820152306024820152604481018690529091506001600160a01b038316906323b872dd906064016020604051808303816000875af11580156109a1573d6000803e3d6000fd5b505050506040513d601f19601f820116820180604052508101906109c59190610d0f565b506040516370a0823160e01b81523060048201526000906001600160a01b038416906370a0823190602401602060405180830381865afa158015610a0d573d6000803e3d6000fd5b505050506040513d601f19601f82011682018060405250810190610a319190610cf6565b90506000610a3f8383610cc0565b905080856003016000828254610a559190610dca565b909155505060028501546040518281526001600160a01b039091169088907fb162210da7d23d82c18cff5af46d3562661d26b42a6848fa28d64a6bdc70386a9060200160405180910390a350505050505050565b80356001600160a01b0381168114610ac057600080fd5b919050565b60008060408385031215610ad857600080fd5b82359150610ae860208401610aa9565b90509250929050565b600060208284031215610b0357600080fd5b5035919050565b60008060008060808587031215610b2057600080fd5b8435935060208501359250610b3760408601610aa9565b9396929550929360600135925050565b634e487b7160e01b600052604160045260246000fd5b600080600080600080600060e0888a031215610b7857600080fd5b873596506020610b89818a01610aa9565b965060408901359550606089013594506080890135935060a0890135925060c089013567ffffffffffffffff80821115610bc257600080fd5b818b0191508b601f830112610bd657600080fd5b813581811115610be857610be8610b47565b8060051b604051601f19603f83011681018181108582111715610c0d57610c0d610b47565b60405291825284820192508381018501918e831115610c2b57600080fd5b938501935b82851015610c4957843584529385019392850192610c30565b80965050505050505092959891949750929550565b60008060408385031215610c7157600080fd5b610c7a83610aa9565b946020939093013593505050565b60008060408385031215610c9b57600080fd5b50508035926020909101359150565b634e487b7160e01b600052601160045260246000fd5b600082821015610cd257610cd2610caa565b500390565b6000816000190483118215151615610cf157610cf1610caa565b500290565b600060208284031215610d0857600080fd5b5051919050565b600060208284031215610d2157600080fd5b81518015158114610d3157600080fd5b9392505050565b6000600019821415610d4c57610d4c610caa565b5060010190565b6000606082018583526020858185015260606040850152818551808452608086019150828701935060005b81811015610d9a57845183529383019391830191600101610d7e565b509098975050505050505050565b600082610dc557634e487b7160e01b600052601260045260246000fd5b500490565b60008219821115610ddd57610ddd610caa565b50019056fea2646970667358221220b36503167aba1378c4e9ec42bc320d6fc9f23e120efe03d251a86854506d2f3c64736f6c634300080c0033",
  "bytecodeSha1": "40b7dadcb665bdaf1d55c2237ac41bcc50bd903c",
  "compiler": {
    "evm_version": "istanbul",
    "optimizer": {
      "enabled": true,
      "runs": 200
    },
    "version": "0.8.12+commit.f00d7308"
  },
  "contractName": "MerkleVesting",
  "deployedBytecode": "608060405234801561001057600080fd5b50600436106100875760003560e01c8063a8efa9ba1161005b578063a8efa9ba1461013f578063c26cb54f14610152578063cf61bf72146101db578063f16ad51e1461021957600080fd5b8062f714ce1461008c578063390b7c66146100a157806385d88cb1146100bd5780639e18a0541461012c575b600080fd5b61009f61009a366004610ac5565b61022c565b005b6100aa60005481565b6040519081526020015b60405180910390f35b6100fd6100cb366004610af1565b600260208190526000918252604090912080546001820154928201546003909201549092916001600160a01b03169084565b6040516100b4949392919093845260208401929092526001600160a01b03166040830152606082015260800190565b61009f61013a366004610b0a565b61052d565b61009f61014d366004610b5d565b61061b565b6101a6610160366004610c5e565b6003602081815260009384526040808520909152918352912080546001820154600283015493830154600484015460058501546006909501549395929492939192909187565b604080519788526020880196909652948601939093526060850191909152608084015260a083015260c082015260e0016100b4565b6102096101e9366004610c88565b600160209081526000928352604080842090915290825290205460ff1681565b60405190151581526020016100b4565b61009f610227366004610c88565b61089b565b6001600160a01b038116600090815260036020908152604080832085845290915290208054610284576040516211b7dd60ea1b8152600481018490526001600160a01b03831660248201526044015b60405180910390fd5b80600601544210156102bb5760405163f49184ff60e01b8152600481018490526001600160a01b038316602482015260440161027b565b60018101546102ef576040516324a137c160e01b8152600481018490526001600160a01b038316602482015260440161027b565b60008160030154421061030757506001810154610328565b6004820154600583015461031b9042610cc0565b6103259190610cd7565b90505b42600583015560008481526002602081905260408083209182015490516370a0823160e01b815230600482015291926001600160a01b039091169182906370a0823190602401602060405180830381865afa15801561038b573d6000803e3d6000fd5b505050506040513d601f19601f820116820180604052508101906103af9190610cf6565b60405163a9059cbb60e01b81526001600160a01b038881166004830152602482018790529192509083169063a9059cbb906044016020604051808303816000875af1158015610402573d6000803e3d6000fd5b505050506040513d601f19601f820116820180604052508101906104269190610d0f565b506040516370a0823160e01b81523060048201526000906001600160a01b038416906370a0823190602401602060405180830381865afa15801561046e573d6000803e3d6000fd5b505050506040513d601f19601f820116820180604052508101906104929190610cf6565b905060006104a08284610cc0565b9050808760010160008282546104b69190610cc0565b92505081905550808560030160008282546104d19190610cc0565b909155505060018701546040805183815260208101929092526001600160a01b038a16918b917f1680e4cfe90468085407ef2b599dbe94b0aa30ff9f180f0e41d22eb71c872872910160405180910390a3505050505050505050565b6040518060800160405280858152602001848152602001836001600160a01b03168152602001600081525060026000806000815461056a90610d38565b918290555081526020808201929092526040908101600090812084518155928401516001840155908301516002830180546001600160a01b0319166001600160a01b03909216919091179055606090920151600390910155546105cd908261089b565b60005460408051868152602081018690526001600160a01b03851692917fb72ea3ed46a7513251023946d5d35916f3e1d76d748bb144e641d1162dee222f910160405180910390a350505050565b861580610629575060005487115b1561064a5760405163190a97ad60e01b81526004810188905260240161027b565b604080516001600160a01b0388166020820152908101869052606081018590526080810184905260a0810183905260009060c00160408051601f19818403018152918152815160209283012060008b81526001845282812082825290935291205490915060ff16156106e15760405163d700855760e01b8152600481018990526001600160a01b038816602482015260440161027b565b6000888152600260205260409081902080549151632769cd1f60e21b8152909173__$61dd25696c02d5bd2863c8d2c1a2324a87$__91639da7347c9161072d9186908890600401610d53565b602060405180830381865af415801561074a573d6000803e3d6000fd5b505050506040513d601f19601f8201168201806040525081019061076e9190610d0f565b61079157888284604051630da5a8fd60e41b815260040161027b93929190610d53565b60008981526001602081815260408084208685529091528220805460ff191690911790556107bf8787610cc0565b6107c99089610da8565b90506040518060e0016040528089815260200189815260200188815260200187815260200182815260200188815260200186815250600360008b6001600160a01b03166001600160a01b0316815260200190815260200160002060008c8152602001908152602001600020600082015181600001556020820151816001015560408201518160020155606082015181600301556080820151816004015560a0820151816005015560c082015181600601559050504285101561088f5761088f8a8a61022c565b50505050505050505050565b8115806108a9575060005482115b156108ca5760405163190a97ad60e01b81526004810183905260240161027b565b60008281526002602081905260408083209182015490516370a0823160e01b815230600482015291926001600160a01b039091169182906370a0823190602401602060405180830381865afa158015610927573d6000803e3d6000fd5b505050506040513d601f19601f8201168201806040525081019061094b9190610cf6565b6040516323b872dd60e01b8152336004820152306024820152604481018690529091506001600160a01b038316906323b872dd906064016020604051808303816000875af11580156109a1573d6000803e3d6000fd5b505050506040513d601f19601f820116820180604052508101906109c59190610d0f565b506040516370a0823160e01b81523060048201526000906001600160a01b038416906370a0823190602401602060405180830381865afa158015610a0d573d6000803e3d6000fd5b505050506040513d601f19601f82011682018060405250810190610a319190610cf6565b90506000610a3f8383610cc0565b905080856003016000828254610a559190610dca565b909155505060028501546040518281526001600160a01b039091169088907fb162210da7d23d82c18cff5af46d3562661d26b42a6848fa28d64a6bdc70386a9060200160405180910390a350505050505050565b80356001600160a01b0381168114610ac057600080fd5b919050565b60008060408385031215610ad857600080fd5b82359150610ae860208401610aa9565b90509250929050565b600060208284031215610b0357600080fd5b5035919050565b60008060008060808587031215610b2057600080fd5b8435935060208501359250610b3760408601610aa9565b9396929550929360600135925050565b634e487b7160e01b600052604160045260246000fd5b600080600080600080600060e0888a031215610b7857600080fd5b873596506020610b89818a01610aa9565b965060408901359550606089013594506080890135935060a0890135925060c089013567ffffffffffffffff80821115610bc257600080fd5b818b0191508b601f830112610bd657600080fd5b813581811115610be857610be8610b47565b8060051b604051601f19603f83011681018181108582111715610c0d57610c0d610b47565b60405291825284820192508381018501918e831115610c2b57600080fd5b938501935b82851015610c4957843584529385019392850192610c30565b80965050505050505092959891949750929550565b60008060408385031215610c7157600080fd5b610c7a83610aa9565b946020939093013593505050565b60008060408385031215610c9b57600080fd5b50508035926020909101359150565b634e487b7160e01b600052601160045260246000fd5b600082821015610cd257610cd2610caa565b500390565b6000816000190483118215151615610cf157610cf1610caa565b500290565b600060208284031215610d0857600080fd5b5051919050565b600060208284031215610d2157600080fd5b81518015158114610d3157600080fd5b9392505050565b6000600019821415610d4c57610d4c610caa565b5060010190565b6000606082018583526020858185015260606040850152818551808452608086019150828701935060005b81811015610d9a57845183529383019391830191600101610d7e565b509098975050505050505050565b600082610dc557634e487b7160e01b600052601260045260246000fd5b500490565b60008219821115610ddd57610ddd610caa565b50019056fea2646970667358221220b36503167aba1378c4e9ec42bc320d6fc9f23e120efe03d251a86854506d2f3c64736f6c634300080c0033",
  "language": "Solidity",
  "natspec": {
    "author": "metapriest, adrian.wachel, marek.babiarz, radoslaw.gorecki",
    "details": "The contract cannot introspect into the contents of the merkle tree, except when provided a merkle proof",
    "kind": "dev",
    "methods": {
      "addMerkleRoot(bytes32,bytes32,address,uint256)": {
        "details": "Anyone may call this function, therefore we must make sure trees cannot affect each otherRoot hash should be built from (destination, totalCoins, startTime, endTime, lockPeriodEndTime)",
        "notice": "Add a new merkle tree to the contract, creating a new merkle-vesting-schedule",
        "params": {
          "ipfsHash": "the ipfs hash of the entire dataset, used for redundance so that creator can ensure merkleproof are always computable",
          "newRoot": "root hash of merkle tree representing vesting schedules",
          "tokenAddress": "the address of the token contract that is being distributed",
          "tokenBalance": "the amount of tokens user wishes to use to fund the airdrop, note trees can be under/overfunded"
        }
      },
      "depositTokens(uint256,uint256)": {
        "details": "Anyone may call this function, the only risk here is that the token contract is malicious, rendering the tree maliciousIf the tree is over-funded, excess funds are lost. No clear way to get around this without zk-proofs",
        "notice": "Add funds to an existing merkle-vesting-schedule",
        "params": {
          "treeIndex": "index into array-like map of merkleTrees",
          "value": "the amount of tokens user wishes to use to fund the airdrop, note trees can be underfunded"
        }
      },
      "initialize(uint256,address,uint256,uint256,uint256,uint256,bytes32[])": {
        "details": "Anyone may call this function, the only risk here is that the token contract is malicious, rendering the tree maliciousIf the tree is over-funded, excess funds are lost. No clear way to get around this without zk-proofs of global tree statsThe contract has no knowledge of the vesting schedules until this function is called",
        "notice": "Called once per recipient of a vesting schedule to initialize the vesting schedule",
        "params": {
          "destination": "address that will receive tokens",
          "endTime": "time vesting schedule completes, can be past or future",
          "lockPeriodEndTime": "time that coins become unlocked, can be after endTime",
          "proof": "array of hashes linking leaf hash of (destination, totalCoins, startTime, endTime, lockPeriodEndTime) to root",
          "startTime": "time that vesting schedule starts, can be past or future",
          "totalCoins": "amount of tokens to be released after vesting completes",
          "treeIndex": "index into array-like map of merkleTrees"
        }
      },
      "withdraw(uint256,address)": {
        "details": "Anyone may call this function for anyone else, funds go to destination regardless, it's just a question ofwho provides the proof and pays the gas, msg.sender is not used in this function",
        "notice": "Claim funds as a recipient in the merkle-drop",
        "params": {
          "destination": "recipient of tokens",
          "treeIndex": "index into array-like map of merkleTrees, which tree should we apply the proof to?"
        }
      }
    },
    "notice": "This contract is permissionless and public facing. Any fees must be included in the data of the merkle tree.",
    "title": "A factory pattern for merkle-vesting, that is, a time release schedule for tokens, using merkle proofs to scale",
    "version": 1
  },
  "opcodes": "PUSH1 0x80 PUSH1 0x40 MSTORE CALLVALUE DUP1 ISZERO PUSH2 0x10 JUMPI PUSH1 0x0 DUP1 REVERT JUMPDEST POP PUSH1 0x4 CALLDATASIZE LT PUSH2 0x87 JUMPI PUSH1 0x0 CALLDATALOAD PUSH1 0xE0 SHR DUP1 PUSH4 0xA8EFA9BA GT PUSH2 0x5B JUMPI DUP1 PUSH4 0xA8EFA9BA EQ PUSH2 0x13F JUMPI DUP1 PUSH4 0xC26CB54F EQ PUSH2 0x152 JUMPI DUP1 PUSH4 0xCF61BF72 EQ PUSH2 0x1DB JUMPI DUP1 PUSH4 0xF16AD51E EQ PUSH2 0x219 JUMPI PUSH1 0x0 DUP1 REVERT JUMPDEST DUP1 PUSH3 0xF714CE EQ PUSH2 0x8C JUMPI DUP1 PUSH4 0x390B7C66 EQ PUSH2 0xA1 JUMPI DUP1 PUSH4 0x85D88CB1 EQ PUSH2 0xBD JUMPI DUP1 PUSH4 0x9E18A054 EQ PUSH2 0x12C JUMPI JUMPDEST PUSH1 0x0 DUP1 REVERT JUMPDEST PUSH2 0x9F PUSH2 0x9A CALLDATASIZE PUSH1 0x4 PUSH2 0xAC5 JUMP JUMPDEST PUSH2 0x22C JUMP JUMPDEST STOP JUMPDEST PUSH2 0xAA PUSH1 0x0 SLOAD DUP2 JUMP JUMPDEST PUSH1 0x40 MLOAD SWAP1 DUP2 MSTORE PUSH1 0x20 ADD JUMPDEST PUSH1 0x40 MLOAD DUP1 SWAP2 SUB SWAP1 RETURN JUMPDEST PUSH2 0xFD PUSH2 0xCB CALLDATASIZE PUSH1 0x4 PUSH2 0xAF1 JUMP JUMPDEST PUSH1 0x2 PUSH1 0x20 DUP2 SWAP1 MSTORE PUSH1 0x0 SWAP2 DUP3 MSTORE PUSH1 0x40 SWAP1 SWAP2 KECCAK256 DUP1 SLOAD PUSH1 0x1 DUP3 ADD SLOAD SWAP3 DUP3 ADD SLOAD PUSH1 0x3 SWAP1 SWAP3 ADD SLOAD SWAP1 SWAP3 SWAP2 PUSH1 0x1 PUSH1 0x1 PUSH1 0xA0 SHL SUB AND SWAP1 DUP5 JUMP JUMPDEST PUSH1 0x40 MLOAD PUSH2 0xB4 SWAP5 SWAP4 SWAP3 SWAP2 SWAP1 SWAP4 DUP5 MSTORE PUSH1 0x20 DUP5 ADD SWAP3 SWAP1 SWAP3 MSTORE PUSH1 0x1 PUSH1 0x1 PUSH1 0xA0 SHL SUB AND PUSH1 0x40 DUP4 ADD MSTORE PUSH1 0x60 DUP3 ADD MSTORE PUSH1 0x80 ADD SWAP1 JUMP JUMPDEST PUSH2 0x9F PUSH2 0x13A CALLDATASIZE PUSH1 0x4 PUSH2 0xB0A JUMP JUMPDEST PUSH2 0x52D JUMP JUMPDEST PUSH2 0x9F PUSH2 0x14D CALLDATASIZE PUSH1 0x4 PUSH2 0xB5D JUMP JUMPDEST PUSH2 0x61B JUMP JUMPDEST PUSH2 0x1A6 PUSH2 0x160 CALLDATASIZE PUSH1 0x4 PUSH2 0xC5E JUMP JUMPDEST PUSH1 0x3 PUSH1 0x20 DUP2 DUP2 MSTORE PUSH1 0x0 SWAP4 DUP5 MSTORE PUSH1 0x40 DUP1 DUP6 KECCAK256 SWAP1 SWAP2 MSTORE SWAP2 DUP4 MSTORE SWAP2 KECCAK256 DUP1 SLOAD PUSH1 0x1 DUP3 ADD SLOAD PUSH1 0x2 DUP4 ADD SLOAD SWAP4 DUP4 ADD SLOAD PUSH1 0x4 DUP5 ADD SLOAD PUSH1 0x5 DUP6 ADD SLOAD PUSH1 0x6 SWAP1 SWAP6 ADD SLOAD SWAP4 SWAP6 SWAP3 SWAP5 SWAP3 SWAP4 SWAP2 SWAP3 SWAP1 SWAP2 DUP8 JUMP JUMPDEST PUSH1 0x40 DUP1 MLOAD SWAP8 DUP9 MSTORE PUSH1 0x20 DUP9 ADD SWAP7 SWAP1 SWAP7 MSTORE SWAP5 DUP7 ADD SWAP4 SWAP1 SWAP4 MSTORE PUSH1 0x60 DUP6 ADD SWAP2 SWAP1 SWAP2 MSTORE PUSH1 0x80 DUP5 ADD MSTORE PUSH1 0xA0 DUP4 ADD MSTORE PUSH1 0xC0 DUP3 ADD MSTORE PUSH1 0xE0 ADD PUSH2 0xB4 JUMP JUMPDEST PUSH2 0x209 PUSH2 0x1E9 CALLDATASIZE PUSH1 0x4 PUSH2 0xC88 JUMP JUMPDEST PUSH1 0x1 PUSH1 0x20 SWAP1 DUP2 MSTORE PUSH1 0x0 SWAP3 DUP4 MSTORE PUSH1 0x40 DUP1 DUP5 KECCAK256 SWAP1 SWAP2 MSTORE SWAP1 DUP3 MSTORE SWAP1 KECCAK256 SLOAD PUSH1 0xFF AND DUP2 JUMP JUMPDEST PUSH1 0x40 MLOAD SWAP1 ISZERO ISZERO DUP2 MSTORE PUSH1 0x20 ADD PUSH2 0xB4 JUMP JUMPDEST PUSH2 0x9F PUSH2 0x227 CALLDATASIZE PUSH1 0x4 PUSH2 0xC88 JUMP JUMPDEST PUSH2 0x89B JUMP JUMPDEST PUSH1 0x1 PUSH1 0x1 PUSH1 0xA0 SHL SUB DUP2 AND PUSH1 0x0 SWAP1 DUP2 MSTORE PUSH1 0x3 PUSH1 0x20 SWAP1 DUP2 MSTORE PUSH1 0x40 DUP1 DUP4 KECCAK256 DUP6 DUP5 MSTORE SWAP1 SWAP2 MSTORE SWAP1 KECCAK256 DUP1 SLOAD PUSH2 0x284 JUMPI PUSH1 0x40 MLOAD PUSH3 0x11B7DD PUSH1 0xEA SHL DUP2 MSTORE PUSH1 0x4 DUP2 ADD DUP5 SWAP1 MSTORE PUSH1 0x1 PUSH1 0x1 PUSH1 0xA0 SHL SUB DUP4 AND PUSH1 0x24 DUP3 ADD MSTORE PUSH1 0x44 ADD JUMPDEST PUSH1 0x40 MLOAD DUP1 SWAP2 SUB SWAP1 REVERT JUMPDEST DUP1 PUSH1 0x6 ADD SLOAD TIMESTAMP LT ISZERO PUSH2 0x2BB JUMPI PUSH1 0x40 MLOAD PUSH4 0xF49184FF PUSH1 0xE0 SHL DUP2 MSTORE PUSH1 0x4 DUP2 ADD DUP5 SWAP1 MSTORE PUSH1 0x1 PUSH1 0x1 PUSH1 0xA0 SHL SUB DUP4 AND PUSH1 0x24 DUP3 ADD MSTORE PUSH1 0x44 ADD PUSH2 0x27B JUMP JUMPDEST PUSH1 0x1 DUP2 ADD SLOAD PUSH2 0x2EF JUMPI PUSH1 0x40 MLOAD PUSH4 0x24A137C1 PUSH1 0xE0 SHL DUP2 MSTORE PUSH1 0x4 DUP2 ADD DUP5 SWAP1 MSTORE PUSH1 0x1 PUSH1 0x1 PUSH1 0xA0 SHL SUB DUP4 AND PUSH1 0x24 DUP3 ADD MSTORE PUSH1 0x44 ADD PUSH2 0x27B JUMP JUMPDEST PUSH1 0x0 DUP2 PUSH1 0x3 ADD SLOAD TIMESTAMP LT PUSH2 0x307 JUMPI POP PUSH1 0x1 DUP2 ADD SLOAD PUSH2 0x328 JUMP JUMPDEST PUSH1 0x4 DUP3 ADD SLOAD PUSH1 0x5 DUP4 ADD SLOAD PUSH2 0x31B SWAP1 TIMESTAMP PUSH2 0xCC0 JUMP JUMPDEST PUSH2 0x325 SWAP2 SWAP1 PUSH2 0xCD7 JUMP JUMPDEST SWAP1 POP JUMPDEST TIMESTAMP PUSH1 0x5 DUP4 ADD SSTORE PUSH1 0x0 DUP5 DUP2 MSTORE PUSH1 0x2 PUSH1 0x20 DUP2 SWAP1 MSTORE PUSH1 0x40 DUP1 DUP4 KECCAK256 SWAP2 DUP3 ADD SLOAD SWAP1 MLOAD PUSH4 0x70A08231 PUSH1 0xE0 SHL DUP2 MSTORE ADDRESS PUSH1 0x4 DUP3 ADD MSTORE SWAP2 SWAP3 PUSH1 0x1 PUSH1 0x1 PUSH1 0xA0 SHL SUB SWAP1 SWAP2 AND SWAP2 DUP3 SWAP1 PUSH4 0x70A08231 SWAP1 PUSH1 0x24 ADD PUSH1 0x20 PUSH1 0x40 MLOAD DUP1 DUP4 SUB DUP2 DUP7 GAS STATICCALL ISZERO DUP1 ISZERO PUSH2 0x38B JUMPI RETURNDATASIZE PUSH1 0x0 DUP1 RETURNDATACOPY RETURNDATASIZE PUSH1 0x0 REVERT JUMPDEST POP POP POP POP PUSH1 0x40 MLOAD RETURNDATASIZE PUSH1 0x1F NOT PUSH1 0x1F DUP3 ADD AND DUP3 ADD DUP1 PUSH1 0x40 MSTORE POP DUP2 ADD SWAP1 PUSH2 0x3AF SWAP2 SWAP1 PUSH2 0xCF6 JUMP JUMPDEST PUSH1 0x40 MLOAD PUSH4 0xA9059CBB PUSH1 0xE0 SHL DUP2 MSTORE PUSH1 0x1 PUSH1 0x1 PUSH1 0xA0 SHL SUB DUP9 DUP2 AND PUSH1 0x4 DUP4 ADD MSTORE PUSH1 0x24 DUP3 ADD DUP8 SWAP1 MSTORE SWAP2 SWAP3 POP SWAP1 DUP4 AND SWAP1 PUSH4 0xA9059CBB SWAP1 PUSH1 0x44 ADD PUSH1 0x20 PUSH1 0x40 MLOAD DUP1 DUP4 SUB DUP2 PUSH1 0x0 DUP8 GAS CALL ISZERO DUP1 ISZERO PUSH2 0x402 JUMPI RETURNDATASIZE PUSH1 0x0 DUP1 RETURNDATACOPY RETURNDATASIZE PUSH1 0x0 REVERT JUMPDEST POP POP POP POP PUSH1 0x40 MLOAD RETURNDATASIZE PUSH1 0x1F NOT PUSH1 0x1F DUP3 ADD AND DUP3 ADD DUP1 PUSH1 0x40 MSTORE POP DUP2 ADD SWAP1 PUSH2 0x426 SWAP2 SWAP1 PUSH2 0xD0F JUMP JUMPDEST POP PUSH1 0x40 MLOAD PUSH4 0x70A08231 PUSH1 0xE0 SHL DUP2 MSTORE ADDRESS PUSH1 0x4 DUP3 ADD MSTORE PUSH1 0x0 SWAP1 PUSH1 0x1 PUSH1 0x1 PUSH1 0xA0 SHL SUB DUP5 AND SWAP1 PUSH4 0x70A08231 SWAP1 PUSH1 0x24 ADD PUSH1 0x20 PUSH1 0x40 MLOAD DUP1 DUP4 SUB DUP2 DUP7 GAS STATICCALL ISZERO DUP1 ISZERO PUSH2 0x46E JUMPI RETURNDATASIZE PUSH1 0x0 DUP1 RETURNDATACOPY RETURNDATASIZE PUSH1 0x0 REVERT JUMPDEST POP POP POP POP PUSH1 0x40 MLOAD RETURNDATASIZE PUSH1 0x1F NOT PUSH1 0x1F DUP3 ADD AND DUP3 ADD DUP1 PUSH1 0x40 MSTORE POP DUP2 ADD SWAP1 PUSH2 0x492 SWAP2 SWAP1 PUSH2 0xCF6 JUMP JUMPDEST SWAP1 POP PUSH1 0x0 PUSH2 0x4A0 DUP3 DUP5 PUSH2 0xCC0 JUMP JUMPDEST SWAP1 POP DUP1 DUP8 PUSH1 0x1 ADD PUSH1 0x0 DUP3 DUP3 SLOAD PUSH2 0x4B6 SWAP2 SWAP1 PUSH2 0xCC0 JUMP JUMPDEST SWAP3 POP POP DUP2 SWAP1 SSTORE POP DUP1 DUP6 PUSH1 0x3 ADD PUSH1 0x0 DUP3 DUP3 SLOAD PUSH2 0x4D1 SWAP2 SWAP1 PUSH2 0xCC0 JUMP JUMPDEST SWAP1 SWAP2 SSTORE POP POP PUSH1 0x1 DUP8 ADD SLOAD PUSH1 0x40 DUP1 MLOAD DUP4 DUP2 MSTORE PUSH1 0x20 DUP2 ADD SWAP3 SWAP1 SWAP3 MSTORE PUSH1 0x1 PUSH1 0x1 PUSH1 0xA0 SHL SUB DUP11 AND SWAP2 DUP12 SWAP2 PUSH32 0x1680E4CFE90468085407EF2B599DBE94B0AA30FF9F180F0E41D22EB71C872872 SWAP2 ADD PUSH1 0x40 MLOAD DUP1 SWAP2 SUB SWAP1 LOG3 POP POP POP POP POP POP POP POP POP JUMP JUMPDEST PUSH1 0x40 MLOAD DUP1 PUSH1 0x80 ADD PUSH1 0x40 MSTORE DUP1 DUP6 DUP2 MSTORE PUSH1 0x20 ADD DUP5 DUP2 MSTORE PUSH1 0x20 ADD DUP4 PUSH1 0x1 PUSH1 0x1 PUSH1 0xA0 SHL SUB AND DUP2 MSTORE PUSH1 0x20 ADD PUSH1 0x0 DUP2 MSTORE POP PUSH1 0x2 PUSH1 0x0 DUP1 PUSH1 0x0 DUP2 SLOAD PUSH2 0x56A SWAP1 PUSH2 0xD38 JUMP JUMPDEST SWAP2 DUP3 SWAP1 SSTORE POP DUP2 MSTORE PUSH1 0x20 DUP1 DUP3 ADD SWAP3 SWAP1 SWAP3 MSTORE PUSH1 0x40 SWAP1 DUP2 ADD PUSH1 0x0 SWAP1 DUP2 KECCAK256 DUP5 MLOAD DUP2 SSTORE SWAP3 DUP5 ADD MLOAD PUSH1 0x1 DUP5 ADD SSTORE SWAP1 DUP4 ADD MLOAD PUSH1 0x2 DUP4 ADD DUP1 SLOAD PUSH1 0x1 PUSH1 0x1 PUSH1 0xA0 SHL SUB NOT AND PUSH1 0x1 PUSH1 0x1 PUSH1 0xA0 SHL SUB SWAP1 SWAP3 AND SWAP2 SWAP1 SWAP2 OR SWAP1 SSTORE PUSH1 0x60 SWAP1 SWAP3 ADD MLOAD PUSH1 0x3 SWAP1 SWAP2 ADD SSTORE SLOAD PUSH2 0x5CD SWAP1 DUP3 PUSH2 0x89B JUMP JUMPDEST PUSH1 0x0 SLOAD PUSH1 0x40 DUP1 MLOAD DUP7 DUP2 MSTORE PUSH1 0x20 DUP2 ADD DUP7 SWAP1 MSTORE PUSH1 0x1 PUSH1 0x1 PUSH1 0xA0 SHL SUB DUP6 AND SWAP3 SWAP2 PUSH32 0xB72EA3ED46A7513251023946D5D35916F3E1D76D748BB144E641D1162DEE222F SWAP2 ADD PUSH1 0x40 MLOAD DUP1 SWAP2 SUB SWAP1 LOG3 POP POP POP POP JUMP JUMPDEST DUP7 ISZERO DUP1 PUSH2 0x629 JUMPI POP PUSH1 0x0 SLOAD DUP8 GT JUMPDEST ISZERO PUSH2 0x64A JUMPI PUSH1 0x40 MLOAD PUSH4 0x190A97AD PUSH1 0xE0 SHL DUP2 MSTORE PUSH1 0x4 DUP2 ADD DUP9 SWAP1 MSTORE PUSH1 0x24 ADD PUSH2 0x27B JUMP JUMPDEST PUSH1 0x40 DUP1 MLOAD PUSH1 0x1 PUSH1 0x1 PUSH1 0xA0 SHL SUB DUP9 AND PUSH1 0x20 DUP3 ADD MSTORE SWAP1 DUP2 ADD DUP7 SWAP1 MSTORE PUSH1 0x60 DUP2 ADD DUP6 SWAP1 MSTORE PUSH1 0x80 DUP2 ADD DUP5 SWAP1 MSTORE PUSH1 0xA0 DUP2 ADD DUP4 SWAP1 MSTORE PUSH1 0x0 SWAP1 PUSH1 0xC0 ADD PUSH1 0x40 DUP1 MLOAD PUSH1 0x1F NOT DUP2 DUP5 SUB ADD DUP2 MSTORE SWAP2 DUP2 MSTORE DUP2 MLOAD PUSH1 0x20 SWAP3 DUP4 ADD KECCAK256 PUSH1 0x0 DUP12 DUP2 MSTORE PUSH1 0x1 DUP5 MSTORE DUP3 DUP2 KECCAK256 DUP3 DUP3 MSTORE SWAP1 SWAP4 MSTORE SWAP2 KECCAK256 SLOAD SWAP1 SWAP2 POP PUSH1 0xFF AND ISZERO PUSH2 0x6E1 JUMPI PUSH1 0x40 MLOAD PUSH4 0xD7008557 PUSH1 0xE0 SHL DUP2 MSTORE PUSH1 0x4 DUP2 ADD DUP10 SWAP1 MSTORE PUSH1 0x1 PUSH1 0x1 PUSH1 0xA0 SHL SUB DUP9 AND PUSH1 0x24 DUP3 ADD MSTORE PUSH1 0x44 ADD PUSH2 0x27B JUMP JUMPDEST PUSH1 0x0 DUP9 DUP2 MSTORE PUSH1 0x2 PUSH1 0x20 MSTORE PUSH1 0x40 SWAP1 DUP2 SWAP1 KECCAK256 DUP1 SLOAD SWAP2 MLOAD PUSH4 0x2769CD1F PUSH1 0xE2 SHL DUP2 MSTORE SWAP1 SWAP2 PUSH20 0x0 SWAP2 PUSH4 0x9DA7347C SWAP2 PUSH2 0x72D SWAP2 DUP7 SWAP1 DUP9 SWAP1 PUSH1 0x4 ADD PUSH2 0xD53 JUMP JUMPDEST PUSH1 0x20 PUSH1 0x40 MLOAD DUP1 DUP4 SUB DUP2 DUP7 GAS DELEGATECALL ISZERO DUP1 ISZERO PUSH2 0x74A JUMPI RETURNDATASIZE PUSH1 0x0 DUP1 RETURNDATACOPY RETURNDATASIZE PUSH1 0x0 REVERT JUMPDEST POP POP POP POP PUSH1 0x40 MLOAD RETURNDATASIZE PUSH1 0x1F NOT PUSH1 0x1F DUP3 ADD AND DUP3 ADD DUP1 PUSH1 0x40 MSTORE POP DUP2 ADD SWAP1 PUSH2 0x76E SWAP2 SWAP1 PUSH2 0xD0F JUMP JUMPDEST PUSH2 0x791 JUMPI DUP9 DUP3 DUP5 PUSH1 0x40 MLOAD PUSH4 0xDA5A8FD PUSH1 0xE4 SHL DUP2 MSTORE PUSH1 0x4 ADD PUSH2 0x27B SWAP4 SWAP3 SWAP2 SWAP1 PUSH2 0xD53 JUMP JUMPDEST PUSH1 0x0 DUP10 DUP2 MSTORE PUSH1 0x1 PUSH1 0x20 DUP2 DUP2 MSTORE PUSH1 0x40 DUP1 DUP5 KECCAK256 DUP7 DUP6 MSTORE SWAP1 SWAP2 MSTORE DUP3 KECCAK256 DUP1 SLOAD PUSH1 0xFF NOT AND SWAP1 SWAP2 OR SWAP1 SSTORE PUSH2 0x7BF DUP8 DUP8 PUSH2 0xCC0 JUMP JUMPDEST PUSH2 0x7C9 SWAP1 DUP10 PUSH2 0xDA8 JUMP JUMPDEST SWAP1 POP PUSH1 0x40 MLOAD DUP1 PUSH1 0xE0 ADD PUSH1 0x40 MSTORE DUP1 DUP10 DUP2 MSTORE PUSH1 0x20 ADD DUP10 DUP2 MSTORE PUSH1 0x20 ADD DUP9 DUP2 MSTORE PUSH1 0x20 ADD DUP8 DUP2 MSTORE PUSH1 0x20 ADD DUP3 DUP2 MSTORE PUSH1 0x20 ADD DUP9 DUP2 MSTORE PUSH1 0x20 ADD DUP7 DUP2 MSTORE POP PUSH1 0x3 PUSH1 0x0 DUP12 PUSH1 0x1 PUSH1 0x1 PUSH1 0xA0 SHL SUB AND PUSH1 0x1 PUSH1 0x1 PUSH1 0xA0 SHL SUB AND DUP2 MSTORE PUSH1 0x20 ADD SWAP1 DUP2 MSTORE PUSH1 0x20 ADD PUSH1 0x0 KECCAK256 PUSH1 0x0 DUP13 DUP2 MSTORE PUSH1 0x20 ADD SWAP1 DUP2 MSTORE PUSH1 0x20 ADD PUSH1 0x0 KECCAK256 PUSH1 0x0 DUP3 ADD MLOAD DUP2 PUSH1 0x0 ADD SSTORE PUSH1 0x20 DUP3 ADD MLOAD DUP2 PUSH1 0x1 ADD SSTORE PUSH1 0x40 DUP3 ADD MLOAD DUP2 PUSH1 0x2 ADD SSTORE PUSH1 0x60 DUP3 ADD MLOAD DUP2 PUSH1 0x3 ADD SSTORE PUSH1 0x80 DUP3 ADD MLOAD DUP2 PUSH1 0x4 ADD SSTORE PUSH1 0xA0 DUP3 ADD MLOAD DUP2 PUSH1 0x5 ADD SSTORE PUSH1 0xC0 DUP3 ADD MLOAD DUP2 PUSH1 0x6 ADD SSTORE SWAP1 POP POP TIMESTAMP DUP6 LT ISZERO PUSH2 0x88F JUMPI PUSH2 0x88F DUP11 DUP11 PUSH2 0x22C JUMP JUMPDEST POP POP POP POP POP POP POP POP POP POP JUMP JUMPDEST DUP2 ISZERO DUP1 PUSH2 0x8A9 JUMPI POP PUSH1 0x0 SLOAD DUP3 GT JUMPDEST ISZERO PUSH2 0x8CA JUMPI PUSH1 0x40 MLOAD PUSH4 0x190A97AD PUSH1 0xE0 SHL DUP2 MSTORE PUSH1 0x4 DUP2 ADD DUP4 SWAP1 MSTORE PUSH1 0x24 ADD PUSH2 0x27B JUMP JUMPDEST PUSH1 0x0 DUP3 DUP2 MSTORE PUSH1 0x2 PUSH1 0x20 DUP2 SWAP1 MSTORE PUSH1 0x40 DUP1 DUP4 KECCAK256 SWAP2 DUP3 ADD SLOAD SWAP1 MLOAD PUSH4 0x70A08231 PUSH1 0xE0 SHL DUP2 MSTORE ADDRESS PUSH1 0x4 DUP3 ADD MSTORE SWAP2 SWAP3 PUSH1 0x1 PUSH1 0x1 PUSH1 0xA0 SHL SUB SWAP1 SWAP2 AND SWAP2 DUP3 SWAP1 PUSH4 0x70A08231 SWAP1 PUSH1 0x24 ADD PUSH1 0x20 PUSH1 0x40 MLOAD DUP1 DUP4 SUB DUP2 DUP7 GAS STATICCALL ISZERO DUP1 ISZERO PUSH2 0x927 JUMPI RETURNDATASIZE PUSH1 0x0 DUP1 RETURNDATACOPY RETURNDATASIZE PUSH1 0x0 REVERT JUMPDEST POP POP POP POP PUSH1 0x40 MLOAD RETURNDATASIZE PUSH1 0x1F NOT PUSH1 0x1F DUP3 ADD AND DUP3 ADD DUP1 PUSH1 0x40 MSTORE POP DUP2 ADD SWAP1 PUSH2 0x94B SWAP2 SWAP1 PUSH2 0xCF6 JUMP JUMPDEST PUSH1 0x40 MLOAD PUSH4 0x23B872DD PUSH1 0xE0 SHL DUP2 MSTORE CALLER PUSH1 0x4 DUP3 ADD MSTORE ADDRESS PUSH1 0x24 DUP3 ADD MSTORE PUSH1 0x44 DUP2 ADD DUP7 SWAP1 MSTORE SWAP1 SWAP2 POP PUSH1 0x1 PUSH1 0x1 PUSH1 0xA0 SHL SUB DUP4 AND SWAP1 PUSH4 0x23B872DD SWAP1 PUSH1 0x64 ADD PUSH1 0x20 PUSH1 0x40 MLOAD DUP1 DUP4 SUB DUP2 PUSH1 0x0 DUP8 GAS CALL ISZERO DUP1 ISZERO PUSH2 0x9A1 JUMPI RETURNDATASIZE PUSH1 0x0 DUP1 RETURNDATACOPY RETURNDATASIZE PUSH1 0x0 REVERT JUMPDEST POP POP POP POP PUSH1 0x40 MLOAD RETURNDATASIZE PUSH1 0x1F NOT PUSH1 0x1F DUP3 ADD AND DUP3 ADD DUP1 PUSH1 0x40 MSTORE POP DUP2 ADD SWAP1 PUSH2 0x9C5 SWAP2 SWAP1 PUSH2 0xD0F JUMP JUMPDEST POP PUSH1 0x40 MLOAD PUSH4 0x70A08231 PUSH1 0xE0 SHL DUP2 MSTORE ADDRESS PUSH1 0x4 DUP3 ADD MSTORE PUSH1 0x0 SWAP1 PUSH1 0x1 PUSH1 0x1 PUSH1 0xA0 SHL SUB DUP5 AND SWAP1 PUSH4 0x70A08231 SWAP1 PUSH1 0x24 ADD PUSH1 0x20 PUSH1 0x40 MLOAD DUP1 DUP4 SUB DUP2 DUP7 GAS STATICCALL ISZERO DUP1 ISZERO PUSH2 0xA0D JUMPI RETURNDATASIZE PUSH1 0x0 DUP1 RETURNDATACOPY RETURNDATASIZE PUSH1 0x0 REVERT JUMPDEST POP POP POP POP PUSH1 0x40 MLOAD RETURNDATASIZE PUSH1 0x1F NOT PUSH1 0x1F DUP3 ADD AND DUP3 ADD DUP1 PUSH1 0x40 MSTORE POP DUP2 ADD SWAP1 PUSH2 0xA31 SWAP2 SWAP1 PUSH2 0xCF6 JUMP JUMPDEST SWAP1 POP PUSH1 0x0 PUSH2 0xA3F DUP4 DUP4 PUSH2 0xCC0 JUMP JUMPDEST SWAP1 POP DUP1 DUP6 PUSH1 0x3 ADD PUSH1 0x0 DUP3 DUP3 SLOAD PUSH2 0xA55 SWAP2 SWAP1 PUSH2 0xDCA JUMP JUMPDEST SWAP1 SWAP2 SSTORE POP POP PUSH1 0x2 DUP6 ADD SLOAD PUSH1 0x40 MLOAD DUP3 DUP2 MSTORE PUSH1 0x1 PUSH1 0x1 PUSH1 0xA0 SHL SUB SWAP1 SWAP2 AND SWAP1 DUP9 SWAP1 PUSH32 0xB162210DA7D23D82C18CFF5AF46D3562661D26B42A6848FA28D64A6BDC70386A SWAP1 PUSH1 0x20 ADD PUSH1 0x40 MLOAD DUP1 SWAP2 SUB SWAP1 LOG3 POP POP POP POP POP POP POP JUMP JUMPDEST DUP1 CALLDATALOAD PUSH1 0x1 PUSH1 0x1 PUSH1 0xA0 SHL SUB DUP2 AND DUP2 EQ PUSH2 0xAC0 JUMPI PUSH1 0x0 DUP1 REVERT JUMPDEST SWAP2 SWAP1 POP JUMP JUMPDEST PUSH1 0x0 DUP1 PUSH1 0x40 DUP4 DUP6 SUB SLT ISZERO PUSH2 0xAD8 JUMPI PUSH1 0x0 DUP1 REVERT JUMPDEST DUP3 CALLDATALOAD SWAP2 POP PUSH2 0xAE8 PUSH1 0x20 DUP5 ADD PUSH2 0xAA9 JUMP JUMPDEST SWAP1 POP SWAP3 POP SWAP3 SWAP1 POP JUMP JUMPDEST PUSH1 0x0 PUSH1 0x20 DUP3 DUP5 SUB SLT ISZERO PUSH2 0xB03 JUMPI PUSH1 0x0 DUP1 REVERT JUMPDEST POP CALLDATALOAD SWAP2 SWAP1 POP JUMP JUMPDEST PUSH1 0x0 DUP1 PUSH1 0x0 DUP1 PUSH1 0x80 DUP6 DUP8 SUB SLT ISZERO PUSH2 0xB20 JUMPI PUSH1 0x0 DUP1 REVERT JUMPDEST DUP5 CALLDATALOAD SWAP4 POP PUSH1 0x20 DUP6 ADD CALLDATALOAD SWAP3 POP PUSH2 0xB37 PUSH1 0x40 DUP7 ADD PUSH2 0xAA9 JUMP JUMPDEST SWAP4 SWAP7 SWAP3 SWAP6 POP SWAP3 SWAP4 PUSH1 0x60 ADD CALLDATALOAD SWAP3 POP POP JUMP JUMPDEST PUSH4 0x4E487B71 PUSH1 0xE0 SHL PUSH1 0x0 MSTORE PUSH1 0x41 PUSH1 0x4 MSTORE PUSH1 0x24 PUSH1 0x0 REVERT JUMPDEST PUSH1 0x0 DUP1 PUSH1 0x0 DUP1 PUSH1 0x0 DUP1 PUSH1 0x0 PUSH1 0xE0 DUP9 DUP11 SUB SLT ISZERO PUSH2 0xB78 JUMPI PUSH1 0x0 DUP1 REVERT JUMPDEST DUP8 CALLDATALOAD SWAP7 POP PUSH1 0x20 PUSH2 0xB89 DUP2 DUP11 ADD PUSH2 0xAA9 JUMP JUMPDEST SWAP7 POP PUSH1 0x40 DUP10 ADD CALLDATALOAD SWAP6 POP PUSH1 0x60 DUP10 ADD CALLDATALOAD SWAP5 POP PUSH1 0x80 DUP10 ADD CALLDATALOAD SWAP4 POP PUSH1 0xA0 DUP10 ADD CALLDATALOAD SWAP3 POP PUSH1 0xC0 DUP10 ADD CALLDATALOAD PUSH8 0xFFFFFFFFFFFFFFFF DUP1 DUP3 GT ISZERO PUSH2 0xBC2 JUMPI PUSH1 0x0 DUP1 REVERT JUMPDEST DUP2 DUP12 ADD SWAP2 POP DUP12 PUSH1 0x1F DUP4 ADD SLT PUSH2 0xBD6 JUMPI PUSH1 0x0 DUP1 REVERT JUMPDEST DUP2 CALLDATALOAD DUP2 DUP2 GT ISZERO PUSH2 0xBE8 JUMPI PUSH2 0xBE8 PUSH2 0xB47 JUMP JUMPDEST DUP1 PUSH1 0x5 SHL PUSH1 0x40 MLOAD PUSH1 0x1F NOT PUSH1 0x3F DUP4 ADD AND DUP2 ADD DUP2 DUP2 LT DUP6 DUP3 GT OR ISZERO PUSH2 0xC0D JUMPI PUSH2 0xC0D PUSH2 0xB47 JUMP JUMPDEST PUSH1 0x40 MSTORE SWAP2 DUP3 MSTORE DUP5 DUP3 ADD SWAP3 POP DUP4 DUP2 ADD DUP6 ADD SWAP2 DUP15 DUP4 GT ISZERO PUSH2 0xC2B JUMPI PUSH1 0x0 DUP1 REVERT JUMPDEST SWAP4 DUP6 ADD SWAP4 JUMPDEST DUP3 DUP6 LT ISZERO PUSH2 0xC49 JUMPI DUP5 CALLDATALOAD DUP5 MSTORE SWAP4 DUP6 ADD SWAP4 SWAP3 DUP6 ADD SWAP3 PUSH2 0xC30 JUMP JUMPDEST DUP1 SWAP7 POP POP POP POP POP POP POP SWAP3 SWAP6 SWAP9 SWAP2 SWAP5 SWAP8 POP SWAP3 SWAP6 POP JUMP JUMPDEST PUSH1 0x0 DUP1 PUSH1 0x40 DUP4 DUP6 SUB SLT ISZERO PUSH2 0xC71 JUMPI PUSH1 0x0 DUP1 REVERT JUMPDEST PUSH2 0xC7A DUP4 PUSH2 0xAA9 JUMP JUMPDEST SWAP5 PUSH1 0x20 SWAP4 SWAP1 SWAP4 ADD CALLDATALOAD SWAP4 POP POP POP JUMP JUMPDEST PUSH1 0x0 DUP1 PUSH1 0x40 DUP4 DUP6 SUB SLT ISZERO PUSH2 0xC9B JUMPI PUSH1 0x0 DUP1 REVERT JUMPDEST POP POP DUP1 CALLDATALOAD SWAP3 PUSH1 0x20 SWAP1 SWAP2 ADD CALLDATALOAD SWAP2 POP JUMP JUMPDEST PUSH4 0x4E487B71 PUSH1 0xE0 SHL PUSH1 0x0 MSTORE PUSH1 0x11 PUSH1 0x4 MSTORE PUSH1 0x24 PUSH1 0x0 REVERT JUMPDEST PUSH1 0x0 DUP3 DUP3 LT ISZERO PUSH2 0xCD2 JUMPI PUSH2 0xCD2 PUSH2 0xCAA JUMP JUMPDEST POP SUB SWAP1 JUMP JUMPDEST PUSH1 0x0 DUP2 PUSH1 0x0 NOT DIV DUP4 GT DUP3 ISZERO ISZERO AND ISZERO PUSH2 0xCF1 JUMPI PUSH2 0xCF1 PUSH2 0xCAA JUMP JUMPDEST POP MUL SWAP1 JUMP JUMPDEST PUSH1 0x0 PUSH1 0x20 DUP3 DUP5 SUB SLT ISZERO PUSH2 0xD08 JUMPI PUSH1 0x0 DUP1 REVERT JUMPDEST POP MLOAD SWAP2 SWAP1 POP JUMP JUMPDEST PUSH1 0x0 PUSH1 0x20 DUP3 DUP5 SUB SLT ISZERO PUSH2 0xD21 JUMPI PUSH1 0x0 DUP1 REVERT JUMPDEST DUP2 MLOAD DUP1 ISZERO ISZERO DUP2 EQ PUSH2 0xD31 JUMPI PUSH1 0x0 DUP1 REVERT JUMPDEST SWAP4 SWAP3 POP POP POP JUMP JUMPDEST PUSH1 0x0 PUSH1 0x0 NOT DUP3 EQ ISZERO PUSH2 0xD4C JUMPI PUSH2 0xD4C PUSH2 0xCAA JUMP JUMPDEST POP PUSH1 0x1 ADD SWAP1 JUMP JUMPDEST PUSH1 0x0 PUSH1 0x60 DUP3 ADD DUP6 DUP4 MSTORE PUSH1 0x20 DUP6 DUP2 DUP6 ADD MSTORE PUSH1 0x60 PUSH1 0x40 DUP6 ADD MSTORE DUP2 DUP6 MLOAD DUP1 DUP5 MSTORE PUSH1 0x80 DUP7 ADD SWAP2 POP DUP3 DUP8 ADD SWAP4 POP PUSH1 0x0 JUMPDEST DUP2 DUP2 LT ISZERO PUSH2 0xD9A JUMPI DUP5 MLOAD DUP4 MSTORE SWAP4 DUP4 ADD SWAP4 SWAP2 DUP4 ADD SWAP2 PUSH1 0x1 ADD PUSH2 0xD7E JUMP JUMPDEST POP SWAP1 SWAP9 SWAP8 POP POP POP POP POP POP POP POP JUMP JUMPDEST PUSH1 0x0 DUP3 PUSH2 0xDC5 JUMPI PUSH4 0x4E487B71 PUSH1 0xE0 SHL PUSH1 0x0 MSTORE PUSH1 0x12 PUSH1 0x4 MSTORE PUSH1 0x24 PUSH1 0x0 REVERT JUMPDEST POP DIV SWAP1 JUMP JUMPDEST PUSH1 0x0 DUP3 NOT DUP3 GT ISZERO PUSH2 0xDDD JUMPI PUSH2 0xDDD PUSH2 0xCAA JUMP JUMPDEST POP ADD SWAP1 JUMP INVALID LOG2 PUSH5 0x6970667358 0x22 SLT KECCAK256 0xB3 PUSH6 0x3167ABA1378 0xC4 0xE9 0xEC TIMESTAMP 0xBC ORIGIN 0xD PUSH16 0xC9F23E120EFE03D251A86854506D2F3C PUSH5 0x736F6C6343 STOP ADDMOD 0xC STOP CALLER ",
  "sha1": "9ee0e62e934bb4522cd4a4ac2341d3d0c03eb323",
  "source": "// SPDX-License-Identifier: GPL-3.0-only\n\npragma solidity 0.8.12;\n\nimport \"../interfaces/IERC20.sol\";\nimport \"./MerkleLib.sol\";\n\n/// @title A factory pattern for merkle-vesting, that is, a time release schedule for tokens, using merkle proofs to scale\n/// @author metapriest, adrian.wachel, marek.babiarz, radoslaw.gorecki\n/// @notice This contract is permissionless and public facing. Any fees must be included in the data of the merkle tree.\n/// @dev The contract cannot introspect into the contents of the merkle tree, except when provided a merkle proof\ncontract MerkleVesting {\n    using MerkleLib for bytes32;\n\n    // the number of vesting schedules in this contract\n    uint public numTrees;\n    \n    // this represents a single vesting schedule for a specific address\n    struct Tranche {\n        uint totalCoins;  // total number of coins released to an address after vesting is completed\n        uint currentCoins; // how many coins are left unclaimed by this address, vested or unvested\n        uint startTime; // when the vesting schedule is set to start, possibly in the past\n        uint endTime;  // when the vesting schedule will have released all coins\n        uint coinsPerSecond; // an intermediate value cached to reduce gas costs, how many coins released every second\n        uint lastWithdrawalTime; // the last time a withdrawal occurred, used to compute unvested coins\n        uint lockPeriodEndTime; // the first time at which coins may be withdrawn\n    }\n\n    // this represents a set of vesting schedules all in the same token\n    struct MerkleTree {\n        bytes32 rootHash;  // merkleroot of tree whose leaves are (address,uint,uint,uint,uint) representing vesting schedules\n        bytes32 ipfsHash; // ipfs hash of entire dataset, used to reconstruct merkle proofs if our servers go down\n        address tokenAddress; // token that the vesting schedules will be denominated in\n        uint tokenBalance; // current amount of tokens deposited to this tree, used to make sure trees don't share tokens\n    }\n\n    // initialized[treeIndex][leafHash] = wasItInitialized?\n    mapping (uint => mapping (bytes32 => bool)) public initialized;\n\n    // array-like sequential map for all the vesting schedules\n    mapping (uint => MerkleTree) public merkleTrees;\n\n    // tranches[recipient][treeIndex] = initializedVestingSchedule\n    mapping (address => mapping (uint => Tranche)) public tranches;\n\n    // every time there's a withdrawal\n    event WithdrawalOccurred(uint indexed treeIndex, address indexed destination, uint numTokens, uint tokensLeft);\n\n    // every time a tree is added\n    event MerkleRootAdded(uint indexed treeIndex, address indexed tokenAddress, bytes32 newRoot, bytes32 ipfsHash);\n\n    // every time a tree is topped up\n    event TokensDeposited(uint indexed treeIndex, address indexed tokenAddress, uint amount);\n\n    error BadTreeIndex(uint treeIndex);\n    error AlreadyInitialized(uint treeIndex, address destination);\n    error BadProof(uint treeIndex, bytes32 leaf, bytes32[] proof);\n    error UninitializedAccount(uint treeIndex, address recipient);\n    error AccountStillLocked(uint treeIndex, address recipient);\n    error AccountEmpty(uint treeIndex, address recipient);\n\n    /// @notice Add a new merkle tree to the contract, creating a new merkle-vesting-schedule\n    /// @dev Anyone may call this function, therefore we must make sure trees cannot affect each other\n    /// @dev Root hash should be built from (destination, totalCoins, startTime, endTime, lockPeriodEndTime)\n    /// @param newRoot root hash of merkle tree representing vesting schedules\n    /// @param ipfsHash the ipfs hash of the entire dataset, used for redundance so that creator can ensure merkleproof are always computable\n    /// @param tokenAddress the address of the token contract that is being distributed\n    /// @param tokenBalance the amount of tokens user wishes to use to fund the airdrop, note trees can be under/overfunded\n    function addMerkleRoot(bytes32 newRoot, bytes32 ipfsHash, address tokenAddress, uint tokenBalance) public {\n        // prefix operator ++ increments then evaluates\n        merkleTrees[++numTrees] = MerkleTree(\n            newRoot,\n            ipfsHash,\n            tokenAddress,\n            0    // no funds have been allocated to the tree yet\n        );\n        // fund the tree now\n        depositTokens(numTrees, tokenBalance);\n        emit MerkleRootAdded(numTrees, tokenAddress, newRoot, ipfsHash);\n    }\n\n    /// @notice Add funds to an existing merkle-vesting-schedule\n    /// @dev Anyone may call this function, the only risk here is that the token contract is malicious, rendering the tree malicious\n    /// @dev If the tree is over-funded, excess funds are lost. No clear way to get around this without zk-proofs\n    /// @param treeIndex index into array-like map of merkleTrees\n    /// @param value the amount of tokens user wishes to use to fund the airdrop, note trees can be underfunded\n    function depositTokens(uint treeIndex, uint value) public {\n        if (treeIndex == 0 || treeIndex > numTrees) {\n            revert BadTreeIndex(treeIndex);\n        }\n\n        // storage since we are editing\n        MerkleTree storage merkleTree = merkleTrees[treeIndex];\n\n        IERC20 token = IERC20(merkleTree.tokenAddress);\n        uint balanceBefore = token.balanceOf(address(this));\n\n        // transfer tokens, if this is a malicious token, then this whole tree is malicious\n        // but it does not effect the other trees\n        // NOTE: we don't check for success here because some tokens don't return a bool\n        // Instead we check the balance before and after, which takes care of the fee-on-transfer tokens as well\n        token.transferFrom(msg.sender, address(this), value);\n\n        uint balanceAfter = token.balanceOf(address(this));\n        // diff may be different from value here, it may even be zero if the transfer failed silently\n        uint diff = balanceAfter - balanceBefore;\n\n        // bookkeeping to make sure trees don't share tokens\n        merkleTree.tokenBalance += diff;\n        emit TokensDeposited(treeIndex, merkleTree.tokenAddress, diff);\n    }\n\n    /// @notice Called once per recipient of a vesting schedule to initialize the vesting schedule\n    /// @dev Anyone may call this function, the only risk here is that the token contract is malicious, rendering the tree malicious\n    /// @dev If the tree is over-funded, excess funds are lost. No clear way to get around this without zk-proofs of global tree stats\n    /// @dev The contract has no knowledge of the vesting schedules until this function is called\n    /// @param treeIndex index into array-like map of merkleTrees\n    /// @param destination address that will receive tokens\n    /// @param totalCoins amount of tokens to be released after vesting completes\n    /// @param startTime time that vesting schedule starts, can be past or future\n    /// @param endTime time vesting schedule completes, can be past or future\n    /// @param lockPeriodEndTime time that coins become unlocked, can be after endTime\n    /// @param proof array of hashes linking leaf hash of (destination, totalCoins, startTime, endTime, lockPeriodEndTime) to root\n    function initialize(uint treeIndex, address destination, uint totalCoins, uint startTime, uint endTime, uint lockPeriodEndTime, bytes32[] memory proof) external {\n        if (treeIndex == 0 || treeIndex > numTrees) {\n            revert BadTreeIndex(treeIndex);\n        }\n        // leaf hash is digest of vesting schedule parameters and destination\n        // NOTE: use abi.encode, not abi.encodePacked to avoid possible (but unlikely) collision\n        bytes32 leaf = keccak256(abi.encode(destination, totalCoins, startTime, endTime, lockPeriodEndTime));\n\n        // must not initialize multiple times\n        if (initialized[treeIndex][leaf]) {\n            revert AlreadyInitialized(treeIndex, destination);\n        }\n\n        // storage because it's cheaper, \"memory\" copies from storage to memory\n        MerkleTree storage tree = merkleTrees[treeIndex];\n\n        // call to MerkleLib to check if the submitted data is correct\n        if (tree.rootHash.verifyProof(leaf, proof) == false) {\n            revert BadProof(treeIndex, leaf, proof);\n        }\n\n        // set initialized, preventing double initialization\n        initialized[treeIndex][leaf] = true;\n\n        // precompute how many coins are released per second\n        // NOTE: should check that endTime != startTime on backend since that would revert here\n        uint coinsPerSecond = totalCoins / (endTime - startTime);\n\n        // create the tranche struct and assign it\n        tranches[destination][treeIndex] = Tranche(\n            totalCoins,  // total coins to be released\n            totalCoins,  // currentCoins starts as totalCoins\n            startTime,\n            endTime,\n            coinsPerSecond,\n            startTime,    // lastWithdrawal starts as startTime\n            lockPeriodEndTime\n        );\n\n        // if we've passed the lock time go ahead and perform a withdrawal now\n        if (lockPeriodEndTime < block.timestamp) {\n            withdraw(treeIndex, destination);\n        }\n    }\n\n    /// @notice Claim funds as a recipient in the merkle-drop\n    /// @dev Anyone may call this function for anyone else, funds go to destination regardless, it's just a question of\n    /// @dev who provides the proof and pays the gas, msg.sender is not used in this function\n    /// @param treeIndex index into array-like map of merkleTrees, which tree should we apply the proof to?\n    /// @param destination recipient of tokens\n    function withdraw(uint treeIndex, address destination) public {\n        // storage because we will modify it\n        Tranche storage tranche = tranches[destination][treeIndex];\n\n        // checking this way so we don't have to recompute leaf hash\n        if (tranche.totalCoins == 0) {\n            revert UninitializedAccount(treeIndex, destination);\n        }\n\n        // no withdrawals before lock time ends\n        if (block.timestamp < tranche.lockPeriodEndTime) {\n            revert AccountStillLocked(treeIndex, destination);\n        }\n\n        // revert if there's nothing left\n        if (tranche.currentCoins == 0) {\n            revert AccountEmpty(treeIndex, destination);\n        }\n\n        // declaration for branched assignment\n        uint currentWithdrawal;\n\n        // if after vesting period ends, give them the remaining coins\n        if (block.timestamp >= tranche.endTime) {\n            currentWithdrawal = tranche.currentCoins;\n        } else {\n            // compute allowed withdrawal\n            currentWithdrawal = (block.timestamp - tranche.lastWithdrawalTime) * tranche.coinsPerSecond;\n        }\n\n        // this makes sure coins don't get double withdrawn, closes re-entrance gate\n        tranche.lastWithdrawalTime = block.timestamp;\n\n        MerkleTree storage tree = merkleTrees[treeIndex];\n        IERC20 token = IERC20(tree.tokenAddress);\n        uint balanceBefore = token.balanceOf(address(this));\n\n        // Transfer the tokens, if the token contract is malicious, this will make the whole tree malicious\n        // but this does not allow re-entrance due to struct updates and it does not effect other trees.\n        // It is also consistent with the ethereum general security model:\n        // other contracts do what they want, it's our job to protect our contract\n        token.transfer(destination, currentWithdrawal);\n\n        // compute the diff in case there is a fee-on-transfer or transfer failed silently\n        uint balanceAfter = token.balanceOf(address(this));\n        uint diff = balanceBefore - balanceAfter;\n\n        // decrease allocation of coins\n        tranche.currentCoins -= diff;\n\n        // update the tree balance so trees can't take each other's tokens\n        tree.tokenBalance -= diff;\n\n        emit WithdrawalOccurred(treeIndex, destination, diff, tranche.currentCoins);\n    }\n\n}",
  "sourcePath": "contracts/MerkleVesting.sol",
  "type": "contract"
}