{
  "abi": [
    {
      "anonymous": false,
      "inputs": [
        {
          "indexed": true,
          "internalType": "uint256",
          "name": "treeIndex",
          "type": "uint256"
        },
        {
          "indexed": true,
          "internalType": "address",
          "name": "tokenAddress",
          "type": "address"
        },
        {
          "indexed": false,
          "internalType": "bytes32",
          "name": "newRoot",
          "type": "bytes32"
        },
        {
          "indexed": false,
          "internalType": "bytes32",
          "name": "ipfsHash",
          "type": "bytes32"
        }
      ],
      "name": "MerkleTreeAdded",
      "type": "event"
    },
    {
      "anonymous": false,
      "inputs": [
        {
          "indexed": true,
          "internalType": "uint256",
          "name": "treeIndex",
          "type": "uint256"
        },
        {
          "indexed": true,
          "internalType": "address",
          "name": "tokenAddress",
          "type": "address"
        },
        {
          "indexed": false,
          "internalType": "uint256",
          "name": "amount",
          "type": "uint256"
        }
      ],
      "name": "TokensDeposited",
      "type": "event"
    },
    {
      "anonymous": false,
      "inputs": [
        {
          "indexed": true,
          "internalType": "uint256",
          "name": "treeIndex",
          "type": "uint256"
        },
        {
          "indexed": true,
          "internalType": "address",
          "name": "destination",
          "type": "address"
        },
        {
          "indexed": false,
          "internalType": "uint256",
          "name": "numTokens",
          "type": "uint256"
        },
        {
          "indexed": false,
          "internalType": "uint256",
          "name": "tokensLeft",
          "type": "uint256"
        }
      ],
      "name": "WithdrawalOccurred",
      "type": "event"
    },
    {
      "inputs": [],
      "name": "PRECISION",
      "outputs": [
        {
          "internalType": "uint256",
          "name": "",
          "type": "uint256"
        }
      ],
      "stateMutability": "view",
      "type": "function"
    },
    {
      "inputs": [
        {
          "internalType": "bytes32",
          "name": "newRoot",
          "type": "bytes32"
        },
        {
          "internalType": "bytes32",
          "name": "ipfsHash",
          "type": "bytes32"
        },
        {
          "internalType": "uint256",
          "name": "minEndTime",
          "type": "uint256"
        },
        {
          "internalType": "uint256",
          "name": "maxEndTime",
          "type": "uint256"
        },
        {
          "internalType": "uint256",
          "name": "pctUpFront",
          "type": "uint256"
        },
        {
          "internalType": "address",
          "name": "tokenAddress",
          "type": "address"
        },
        {
          "internalType": "uint256",
          "name": "tokenBalance",
          "type": "uint256"
        }
      ],
      "name": "addMerkleTree",
      "outputs": [],
      "stateMutability": "nonpayable",
      "type": "function"
    },
    {
      "inputs": [
        {
          "internalType": "uint256",
          "name": "treeIndex",
          "type": "uint256"
        },
        {
          "internalType": "uint256",
          "name": "value",
          "type": "uint256"
        }
      ],
      "name": "depositTokens",
      "outputs": [],
      "stateMutability": "nonpayable",
      "type": "function"
    },
    {
      "inputs": [
        {
          "internalType": "uint256",
          "name": "treeIndex",
          "type": "uint256"
        },
        {
          "internalType": "address",
          "name": "destination",
          "type": "address"
        },
        {
          "internalType": "uint256",
          "name": "vestingTime",
          "type": "uint256"
        },
        {
          "internalType": "uint256",
          "name": "minTotalPayments",
          "type": "uint256"
        },
        {
          "internalType": "uint256",
          "name": "maxTotalPayments",
          "type": "uint256"
        },
        {
          "internalType": "bytes32[]",
          "name": "proof",
          "type": "bytes32[]"
        }
      ],
      "name": "initialize",
      "outputs": [],
      "stateMutability": "nonpayable",
      "type": "function"
    },
    {
      "inputs": [
        {
          "internalType": "address",
          "name": "",
          "type": "address"
        },
        {
          "internalType": "uint256",
          "name": "",
          "type": "uint256"
        }
      ],
      "name": "initialized",
      "outputs": [
        {
          "internalType": "bool",
          "name": "",
          "type": "bool"
        }
      ],
      "stateMutability": "view",
      "type": "function"
    },
    {
      "inputs": [
        {
          "internalType": "uint256",
          "name": "",
          "type": "uint256"
        }
      ],
      "name": "merkleTrees",
      "outputs": [
        {
          "internalType": "bytes32",
          "name": "merkleRoot",
          "type": "bytes32"
        },
        {
          "internalType": "bytes32",
          "name": "ipfsHash",
          "type": "bytes32"
        },
        {
          "internalType": "uint256",
          "name": "minEndTime",
          "type": "uint256"
        },
        {
          "internalType": "uint256",
          "name": "maxEndTime",
          "type": "uint256"
        },
        {
          "internalType": "uint256",
          "name": "pctUpFront",
          "type": "uint256"
        },
        {
          "internalType": "address",
          "name": "tokenAddress",
          "type": "address"
        },
        {
          "internalType": "uint256",
          "name": "tokenBalance",
          "type": "uint256"
        }
      ],
      "stateMutability": "view",
      "type": "function"
    },
    {
      "inputs": [],
      "name": "numTrees",
      "outputs": [
        {
          "internalType": "uint256",
          "name": "",
          "type": "uint256"
        }
      ],
      "stateMutability": "view",
      "type": "function"
    },
    {
      "inputs": [
        {
          "internalType": "address",
          "name": "",
          "type": "address"
        },
        {
          "internalType": "uint256",
          "name": "",
          "type": "uint256"
        }
      ],
      "name": "tranches",
      "outputs": [
        {
          "internalType": "uint256",
          "name": "totalCoins",
          "type": "uint256"
        },
        {
          "internalType": "uint256",
          "name": "currentCoins",
          "type": "uint256"
        },
        {
          "internalType": "uint256",
          "name": "startTime",
          "type": "uint256"
        },
        {
          "internalType": "uint256",
          "name": "endTime",
          "type": "uint256"
        },
        {
          "internalType": "uint256",
          "name": "coinsPerSecond",
          "type": "uint256"
        },
        {
          "internalType": "uint256",
          "name": "lastWithdrawalTime",
          "type": "uint256"
        }
      ],
      "stateMutability": "view",
      "type": "function"
    },
    {
      "inputs": [
        {
          "internalType": "uint256",
          "name": "treeIndex",
          "type": "uint256"
        },
        {
          "internalType": "uint256",
          "name": "vestingTime",
          "type": "uint256"
        },
        {
          "internalType": "uint256",
          "name": "minTotalPayments",
          "type": "uint256"
        },
        {
          "internalType": "uint256",
          "name": "maxTotalPayments",
          "type": "uint256"
        }
      ],
      "name": "verifyVestingSchedule",
      "outputs": [
        {
          "internalType": "bool",
          "name": "",
          "type": "bool"
        },
        {
          "internalType": "uint256",
          "name": "",
          "type": "uint256"
        },
        {
          "internalType": "uint256",
          "name": "",
          "type": "uint256"
        },
        {
          "internalType": "uint256",
          "name": "",
          "type": "uint256"
        }
      ],
      "stateMutability": "view",
      "type": "function"
    },
    {
      "inputs": [
        {
          "internalType": "uint256",
          "name": "treeIndex",
          "type": "uint256"
        },
        {
          "internalType": "address",
          "name": "destination",
          "type": "address"
        }
      ],
      "name": "withdraw",
      "outputs": [],
      "stateMutability": "nonpayable",
      "type": "function"
    }
  ],
  "bytecode": "60806040526000805534801561001457600080fd5b506110f3806100246000396000f3fe608060405234801561001057600080fd5b506004361061009d5760003560e01c8063aaf5eb6811610066578063aaf5eb68146101db578063c26cb54f146101e5578063d71383ed14610260578063f16ad51e14610273578063f287ad041461028657600080fd5b8062f714ce146100a2578063390b7c66146100b75780636fb6ec41146100d357806385d88cb11461010857806386bb82491461019d575b600080fd5b6100b56100b0366004610d73565b610299565b005b6100c060005481565b6040519081526020015b60405180910390f35b6100e66100e1366004610d9f565b61052d565b60408051941515855260208501939093529183015260608201526080016100ca565b61015f610116366004610dd1565b600260208190526000918252604090912080546001820154928201546003830154600484015460058501546006909501549395949293919290916001600160a01b039091169087565b60408051978852602088019690965294860193909352606085019190915260808401526001600160a01b031660a083015260c082015260e0016100ca565b6101cb6101ab366004610dea565b600160209081526000928352604080842090915290825290205460ff1681565b60405190151581526020016100ca565b6100c0620f424081565b6102336101f3366004610dea565b6003602081815260009384526040808520909152918352912080546001820154600283015493830154600484015460059094015492949193919290919086565b604080519687526020870195909552938501929092526060840152608083015260a082015260c0016100ca565b6100b561026e366004610e14565b6106d4565b6100b5610281366004610e70565b610898565b6100b5610294366004610ea8565b6109cc565b6001600160a01b038116600090815260016020908152604080832085845290915290205460ff166103215760405162461bcd60e51b815260206004820152602760248201527f596f75206d75737420696e697469616c697a6520796f7572206163636f756e74604482015266103334b939ba1760c91b60648201526084015b60405180910390fd5b6001600160a01b0381166000908152600360209081526040808320858452909152902060018101546103955760405162461bcd60e51b815260206004820152601960248201527f4e6f20636f696e73206c65667420746f207769746864726177000000000000006044820152606401610318565b6000816003015442106103ad575060018101546103ce565b600482015460058301546103c19042610fb4565b6103cb9190610fcb565b90505b6000848152600260205260408120600184018054919284926103f1908490610fb4565b9091555050426005840155600681018054839190600090610413908490610fb4565b9091555050600581015460405163a9059cbb60e01b81526001600160a01b038681166004830152602482018590529091169063a9059cbb906044016020604051808303816000875af115801561046d573d6000803e3d6000fd5b505050506040513d601f19601f820116820180604052508101906104919190610fea565b6104d55760405162461bcd60e51b8152602060048201526015602482015274151bdad95b881d1c985b9cd9995c8819985a5b1959605a1b6044820152606401610318565b836001600160a01b0316857f1680e4cfe90468085407ef2b599dbe94b0aa30ff9f180f0e41d22eb71c87287284866001015460405161051e929190918252602082015260400190565b60405180910390a35050505050565b60008060008060005488111561054e575060009250829150819050806106c9565b600088815260026020818152604092839020835160e0810185528154815260018201549281019290925291820154928101929092526003810154606083018190526004820154608084015260058201546001600160a01b031660a084015260069091015460c08301528811806105c75750806040015188105b156105e0576000806000809450945094509450506106c9565b600081606001518914156105f5575085610666565b60008260400151836060015161060b9190610fb4565b620f42406106198b8b610fb4565b6106239190610fcb565b61062d9190611013565b905088620f424084604001518c6106449190610fb4565b61064e9084610fcb565b6106589190611013565b6106629190611035565b9150505b60006106738a6064610fcb565b6080840151610683906064610fb4565b61068d9084610fcb565b6106979190611013565b905060006106a58284611013565b6106af8c42611035565b6106b99190610fb4565b6001985092965090945090925050505b945094509450949050565b606483106107185760405162461bcd60e51b81526020600482015260116024820152700706374557046726f6e74203e3d2031303607c1b6044820152606401610318565b8385106107775760405162461bcd60e51b815260206004820152602760248201527f6d696e456e6454696d65206d757374206265206c657373207468616e206d6178604482015266456e6454696d6560c81b6064820152608401610318565b6040518060e00160405280888152602001878152602001868152602001858152602001848152602001836001600160a01b0316815260200160008152506002600080600081546107c69061104d565b918290555081526020808201929092526040908101600090812084518155928401516001840155908301516002830155606083015160038301556080830151600483015560a08301516005830180546001600160a01b0319166001600160a01b0390921691909117905560c090920151600690910155546108479082610898565b60005460408051898152602081018990526001600160a01b03851692917f7247d7268297fd9fe23a535b70f414660bbcbbcd73ac0d9ce3c103a356a61f45910160405180910390a350505050505050565b6000828152600260205260408120600681018054919284926108bb908490611035565b909155505060058101546040516323b872dd60e01b8152336004820152306024820152604481018490526001600160a01b03909116906323b872dd906064016020604051808303816000875af1158015610919573d6000803e3d6000fd5b505050506040513d601f19601f8201168201806040525081019061093d9190610fea565b6109815760405162461bcd60e51b8152602060048201526015602482015274115490cc8c081d1c985b9cd9995c8819985a5b1959605a1b6044820152606401610318565b60058101546040518381526001600160a01b039091169084907fb162210da7d23d82c18cff5af46d3562661d26b42a6848fa28d64a6bdc70386a9060200160405180910390a3505050565b336001600160a01b03861614610a305760405162461bcd60e51b8152602060048201526024808201527f43616e206f6e6c7920696e697469616c697a6520796f7572206f776e207472616044820152636e63686560e01b6064820152608401610318565b6001600160a01b038516600090815260016020908152604080832089845290915290205460ff1615610a9a5760405162461bcd60e51b8152602060048201526013602482015272105b1c9958591e481a5b9a5d1a585b1a5e9959606a1b6044820152606401610318565b604080516001600160a01b03871660208201529081018490526060810183905260009060800160408051601f19818403018152828252805160209182012060008b815260028084529084902060e0860185528054808752600182015494870194909452908101548585015260038101546060860152600480820154608087015260058201546001600160a01b031660a087015260069091015460c08601529251632769cd1f60e21b815290945073__MerkleLib_____________________________92639da7347c92610b739290918791899101611068565b602060405180830381865af4158015610b90573d6000803e3d6000fd5b505050506040513d601f19601f82011682018060405250810190610bb49190610fea565b610c005760405162461bcd60e51b815260206004820181905260248201527f5468652070726f6f6620636f756c64206e6f742062652076657269666965642e6044820152606401610318565b6001600160a01b03871660009081526001602081815260408084208c85529091528220805460ff19169091179055808080610c3d8c8b8b8b61052d565b935093509350935083610c925760405162461bcd60e51b815260206004820152601860248201527f496e76616c69642076657374696e67207363686564756c6500000000000000006044820152606401610318565b6040518060c001604052808481526020018481526020018281526020018b42610cbb9190611035565b815260200183815260200182815250600360008d6001600160a01b03166001600160a01b0316815260200190815260200160002060008e8152602001908152602001600020600082015181600001556020820151816001015560408201518160020155606082015181600301556080820151816004015560a08201518160050155905050610d498c8c610299565b505050505050505050505050565b80356001600160a01b0381168114610d6e57600080fd5b919050565b60008060408385031215610d8657600080fd5b82359150610d9660208401610d57565b90509250929050565b60008060008060808587031215610db557600080fd5b5050823594602084013594506040840135936060013592509050565b600060208284031215610de357600080fd5b5035919050565b60008060408385031215610dfd57600080fd5b610e0683610d57565b946020939093013593505050565b600080600080600080600060e0888a031215610e2f57600080fd5b8735965060208801359550604088013594506060880135935060808801359250610e5b60a08901610d57565b915060c0880135905092959891949750929550565b60008060408385031215610e8357600080fd5b50508035926020909101359150565b634e487b7160e01b600052604160045260246000fd5b60008060008060008060c08789031215610ec157600080fd5b863595506020610ed2818901610d57565b955060408801359450606088013593506080880135925060a088013567ffffffffffffffff80821115610f0457600080fd5b818a0191508a601f830112610f1857600080fd5b813581811115610f2a57610f2a610e92565b8060051b604051601f19603f83011681018181108582111715610f4f57610f4f610e92565b60405291825284820192508381018501918d831115610f6d57600080fd5b938501935b82851015610f8b57843584529385019392850192610f72565b8096505050505050509295509295509295565b634e487b7160e01b600052601160045260246000fd5b600082821015610fc657610fc6610f9e565b500390565b6000816000190483118215151615610fe557610fe5610f9e565b500290565b600060208284031215610ffc57600080fd5b8151801515811461100c57600080fd5b9392505050565b60008261103057634e487b7160e01b600052601260045260246000fd5b500490565b6000821982111561104857611048610f9e565b500190565b600060001982141561106157611061610f9e565b5060010190565b6000606082018583526020858185015260606040850152818551808452608086019150828701935060005b818110156110af57845183529383019391830191600101611093565b50909897505050505050505056fea2646970667358221220198ffe822c1c194d96499bea219612d820d133b281e67d5819fb658313d30dfb64736f6c634300080c0033",
  "bytecodeSha1": "1f6b2bfb5884cc0dbe972589d90a0a914cc2492c",
  "compiler": {
    "evm_version": "istanbul",
    "optimizer": {
      "enabled": true,
      "runs": 200
    },
    "version": "0.8.12+commit.f00d7308"
  },
  "contractName": "MerkleResistor",
  "deployedBytecode": "608060405234801561001057600080fd5b506004361061009d5760003560e01c8063aaf5eb6811610066578063aaf5eb68146101db578063c26cb54f146101e5578063d71383ed14610260578063f16ad51e14610273578063f287ad041461028657600080fd5b8062f714ce146100a2578063390b7c66146100b75780636fb6ec41146100d357806385d88cb11461010857806386bb82491461019d575b600080fd5b6100b56100b0366004610d73565b610299565b005b6100c060005481565b6040519081526020015b60405180910390f35b6100e66100e1366004610d9f565b61052d565b60408051941515855260208501939093529183015260608201526080016100ca565b61015f610116366004610dd1565b600260208190526000918252604090912080546001820154928201546003830154600484015460058501546006909501549395949293919290916001600160a01b039091169087565b60408051978852602088019690965294860193909352606085019190915260808401526001600160a01b031660a083015260c082015260e0016100ca565b6101cb6101ab366004610dea565b600160209081526000928352604080842090915290825290205460ff1681565b60405190151581526020016100ca565b6100c0620f424081565b6102336101f3366004610dea565b6003602081815260009384526040808520909152918352912080546001820154600283015493830154600484015460059094015492949193919290919086565b604080519687526020870195909552938501929092526060840152608083015260a082015260c0016100ca565b6100b561026e366004610e14565b6106d4565b6100b5610281366004610e70565b610898565b6100b5610294366004610ea8565b6109cc565b6001600160a01b038116600090815260016020908152604080832085845290915290205460ff166103215760405162461bcd60e51b815260206004820152602760248201527f596f75206d75737420696e697469616c697a6520796f7572206163636f756e74604482015266103334b939ba1760c91b60648201526084015b60405180910390fd5b6001600160a01b0381166000908152600360209081526040808320858452909152902060018101546103955760405162461bcd60e51b815260206004820152601960248201527f4e6f20636f696e73206c65667420746f207769746864726177000000000000006044820152606401610318565b6000816003015442106103ad575060018101546103ce565b600482015460058301546103c19042610fb4565b6103cb9190610fcb565b90505b6000848152600260205260408120600184018054919284926103f1908490610fb4565b9091555050426005840155600681018054839190600090610413908490610fb4565b9091555050600581015460405163a9059cbb60e01b81526001600160a01b038681166004830152602482018590529091169063a9059cbb906044016020604051808303816000875af115801561046d573d6000803e3d6000fd5b505050506040513d601f19601f820116820180604052508101906104919190610fea565b6104d55760405162461bcd60e51b8152602060048201526015602482015274151bdad95b881d1c985b9cd9995c8819985a5b1959605a1b6044820152606401610318565b836001600160a01b0316857f1680e4cfe90468085407ef2b599dbe94b0aa30ff9f180f0e41d22eb71c87287284866001015460405161051e929190918252602082015260400190565b60405180910390a35050505050565b60008060008060005488111561054e575060009250829150819050806106c9565b600088815260026020818152604092839020835160e0810185528154815260018201549281019290925291820154928101929092526003810154606083018190526004820154608084015260058201546001600160a01b031660a084015260069091015460c08301528811806105c75750806040015188105b156105e0576000806000809450945094509450506106c9565b600081606001518914156105f5575085610666565b60008260400151836060015161060b9190610fb4565b620f42406106198b8b610fb4565b6106239190610fcb565b61062d9190611013565b905088620f424084604001518c6106449190610fb4565b61064e9084610fcb565b6106589190611013565b6106629190611035565b9150505b60006106738a6064610fcb565b6080840151610683906064610fb4565b61068d9084610fcb565b6106979190611013565b905060006106a58284611013565b6106af8c42611035565b6106b99190610fb4565b6001985092965090945090925050505b945094509450949050565b606483106107185760405162461bcd60e51b81526020600482015260116024820152700706374557046726f6e74203e3d2031303607c1b6044820152606401610318565b8385106107775760405162461bcd60e51b815260206004820152602760248201527f6d696e456e6454696d65206d757374206265206c657373207468616e206d6178604482015266456e6454696d6560c81b6064820152608401610318565b6040518060e00160405280888152602001878152602001868152602001858152602001848152602001836001600160a01b0316815260200160008152506002600080600081546107c69061104d565b918290555081526020808201929092526040908101600090812084518155928401516001840155908301516002830155606083015160038301556080830151600483015560a08301516005830180546001600160a01b0319166001600160a01b0390921691909117905560c090920151600690910155546108479082610898565b60005460408051898152602081018990526001600160a01b03851692917f7247d7268297fd9fe23a535b70f414660bbcbbcd73ac0d9ce3c103a356a61f45910160405180910390a350505050505050565b6000828152600260205260408120600681018054919284926108bb908490611035565b909155505060058101546040516323b872dd60e01b8152336004820152306024820152604481018490526001600160a01b03909116906323b872dd906064016020604051808303816000875af1158015610919573d6000803e3d6000fd5b505050506040513d601f19601f8201168201806040525081019061093d9190610fea565b6109815760405162461bcd60e51b8152602060048201526015602482015274115490cc8c081d1c985b9cd9995c8819985a5b1959605a1b6044820152606401610318565b60058101546040518381526001600160a01b039091169084907fb162210da7d23d82c18cff5af46d3562661d26b42a6848fa28d64a6bdc70386a9060200160405180910390a3505050565b336001600160a01b03861614610a305760405162461bcd60e51b8152602060048201526024808201527f43616e206f6e6c7920696e697469616c697a6520796f7572206f776e207472616044820152636e63686560e01b6064820152608401610318565b6001600160a01b038516600090815260016020908152604080832089845290915290205460ff1615610a9a5760405162461bcd60e51b8152602060048201526013602482015272105b1c9958591e481a5b9a5d1a585b1a5e9959606a1b6044820152606401610318565b604080516001600160a01b03871660208201529081018490526060810183905260009060800160408051601f19818403018152828252805160209182012060008b815260028084529084902060e0860185528054808752600182015494870194909452908101548585015260038101546060860152600480820154608087015260058201546001600160a01b031660a087015260069091015460c08601529251632769cd1f60e21b815290945073__$61dd25696c02d5bd2863c8d2c1a2324a87$__92639da7347c92610b739290918791899101611068565b602060405180830381865af4158015610b90573d6000803e3d6000fd5b505050506040513d601f19601f82011682018060405250810190610bb49190610fea565b610c005760405162461bcd60e51b815260206004820181905260248201527f5468652070726f6f6620636f756c64206e6f742062652076657269666965642e6044820152606401610318565b6001600160a01b03871660009081526001602081815260408084208c85529091528220805460ff19169091179055808080610c3d8c8b8b8b61052d565b935093509350935083610c925760405162461bcd60e51b815260206004820152601860248201527f496e76616c69642076657374696e67207363686564756c6500000000000000006044820152606401610318565b6040518060c001604052808481526020018481526020018281526020018b42610cbb9190611035565b815260200183815260200182815250600360008d6001600160a01b03166001600160a01b0316815260200190815260200160002060008e8152602001908152602001600020600082015181600001556020820151816001015560408201518160020155606082015181600301556080820151816004015560a08201518160050155905050610d498c8c610299565b505050505050505050505050565b80356001600160a01b0381168114610d6e57600080fd5b919050565b60008060408385031215610d8657600080fd5b82359150610d9660208401610d57565b90509250929050565b60008060008060808587031215610db557600080fd5b5050823594602084013594506040840135936060013592509050565b600060208284031215610de357600080fd5b5035919050565b60008060408385031215610dfd57600080fd5b610e0683610d57565b946020939093013593505050565b600080600080600080600060e0888a031215610e2f57600080fd5b8735965060208801359550604088013594506060880135935060808801359250610e5b60a08901610d57565b915060c0880135905092959891949750929550565b60008060408385031215610e8357600080fd5b50508035926020909101359150565b634e487b7160e01b600052604160045260246000fd5b60008060008060008060c08789031215610ec157600080fd5b863595506020610ed2818901610d57565b955060408801359450606088013593506080880135925060a088013567ffffffffffffffff80821115610f0457600080fd5b818a0191508a601f830112610f1857600080fd5b813581811115610f2a57610f2a610e92565b8060051b604051601f19603f83011681018181108582111715610f4f57610f4f610e92565b60405291825284820192508381018501918d831115610f6d57600080fd5b938501935b82851015610f8b57843584529385019392850192610f72565b8096505050505050509295509295509295565b634e487b7160e01b600052601160045260246000fd5b600082821015610fc657610fc6610f9e565b500390565b6000816000190483118215151615610fe557610fe5610f9e565b500290565b600060208284031215610ffc57600080fd5b8151801515811461100c57600080fd5b9392505050565b60008261103057634e487b7160e01b600052601260045260246000fd5b500490565b6000821982111561104857611048610f9e565b500190565b600060001982141561106157611061610f9e565b5060010190565b6000606082018583526020858185015260606040850152818551808452608086019150828701935060005b818110156110af57845183529383019391830191600101611093565b50909897505050505050505056fea2646970667358221220198ffe822c1c194d96499bea219612d820d133b281e67d5819fb658313d30dfb64736f6c634300080c0033",
  "language": "Solidity",
  "natspec": {
    "author": "metapriest, adrian.wachel, marek.babiarz, radoslaw.gorecki",
    "details": "The contract cannot introspect into the contents of the merkle tree, except when provided a merkle proof.User chosen vesting schedules means the contract has parameters that define a line segment thatdescribes a range of vesting-schedule parameters within which the user can negotiate tradeoffsMore tokens => longer vesting time && slower drip, when used correctly, but the contract does not enforcecoherence of vesting schedules, so someone could make a range of vesting schedules in whichmore tokens => longer vesting time && faster drip, but this is a user error, also we wouldn't catch it untilafter the tree has been initialized and funded, so we just let them do it.The choice of which parameters to initialize at tree-creation-time versus at schedule-initialization-time issomewhat arbitrary, but we choose to have min/max end times at tree scope and min/max total payments at first-withdrawal-time",
    "kind": "dev",
    "methods": {
      "addMerkleTree(bytes32,bytes32,uint256,uint256,uint256,address,uint256)": {
        "details": "Anyone may call this function, therefore we must make sure trees cannot affect each otherRoot hash should be built from (destination, minTotalPayments, maxTotalPayments)",
        "notice": "Add a new merkle tree to the contract, creating a new merkle-vesting-schedule-range",
        "params": {
          "ipfsHash": "the ipfs hash of the entire dataset, used for redundance so that creator can ensure merkleproof are always computable",
          "maxEndTime": "a continuous range of possible end times are specified, this is the maximum",
          "minEndTime": "a continuous range of possible end times are specified, this is the minimum",
          "newRoot": "root hash of merkle tree representing vesting schedule ranges",
          "pctUpFront": "the percent of tokens user will get at initialization time (note this implies no lock time)",
          "tokenAddress": "the address of the token contract that is being distributed",
          "tokenBalance": "the amount of tokens user wishes to use to fund the airdrop, note trees can be under/overfunded"
        }
      },
      "depositTokens(uint256,uint256)": {
        "details": "Anyone may call this function, the only risk here is that the token contract is malicious, rendering the tree malicious",
        "notice": "Add funds to an existing merkle-tree",
        "params": {
          "treeIndex": "index into array-like map of merkleTrees",
          "value": "the amount of tokens user wishes to use to fund the airdrop, note trees can be under/overfunded"
        }
      },
      "initialize(uint256,address,uint256,uint256,uint256,bytes32[])": {
        "details": "Only the recipient can initialize their own schedule here, because a meaningful choice is madeIf the tree is over-funded, excess funds are lost. No clear way to get around this without zk-proofs of global tree stats",
        "notice": "Called once per recipient of a vesting schedule to initialize the vesting schedule and fix the parameters",
        "params": {
          "destination": "address that will receive tokens",
          "maxTotalPayments": "the maximum amount of tokens they will receive, if they choose maxEndTime as vestingTime",
          "minTotalPayments": "the minimum amount of tokens they will receive, if they choose minEndTime as vestingTime",
          "proof": "array of hashes linking leaf hash of (destination, minTotalPayments, maxTotalPayments) to root",
          "treeIndex": "index into array-like map of merkleTrees",
          "vestingTime": "the actual length of the vesting schedule, chosen by the user"
        }
      },
      "verifyVestingSchedule(uint256,uint256,uint256,uint256)": {
        "details": "Anyone may call this to check, but it also returns values used in the initialization of vesting schedules",
        "notice": "Determine if the proposed vesting schedule is legit",
        "params": {
          "maxTotalPayments": "pre-committed (in the root hash) maximum of possible totalCoins",
          "minTotalPayments": "pre-committed (in the root hash) minimum of possible totalCoins",
          "treeIndex": "index into array-like map of merkleTrees, which tree are we talking about?",
          "vestingTime": "user chosen length of vesting schedule"
        },
        "returns": {
          "_0": "valid is the proposed vesting-schedule valid",
          "_1": "totalCoins amount of coins allocated in the vesting schedule",
          "_2": "coinsPerSecond amount of coins released every second, in the proposed vesting schedule",
          "_3": "startTime start time of vesting schedule implied by supplied parameters, will always be <= block.timestamp"
        }
      },
      "withdraw(uint256,address)": {
        "details": "Anyone may call this function for anyone else, funds go to destination regardless, it's just a question ofwho provides the proof and pays the gas, msg.sender is not used in this function",
        "notice": "Move unlocked funds to the destination",
        "params": {
          "destination": "recipient of tokens",
          "treeIndex": "index into array-like map of merkleTrees, which tree should we apply the proof to?"
        }
      }
    },
    "notice": "This contract is permissionless and public facing. Any fees must be included in the data of the merkle tree.",
    "title": "A factory pattern for user-chosen vesting-schedules, that is, a time release schedule for tokens, using merkle proofs to scale",
    "version": 1
  },
  "opcodes": "PUSH1 0x80 PUSH1 0x40 MSTORE CALLVALUE DUP1 ISZERO PUSH2 0x10 JUMPI PUSH1 0x0 DUP1 REVERT JUMPDEST POP PUSH1 0x4 CALLDATASIZE LT PUSH2 0x9D JUMPI PUSH1 0x0 CALLDATALOAD PUSH1 0xE0 SHR DUP1 PUSH4 0xAAF5EB68 GT PUSH2 0x66 JUMPI DUP1 PUSH4 0xAAF5EB68 EQ PUSH2 0x1DB JUMPI DUP1 PUSH4 0xC26CB54F EQ PUSH2 0x1E5 JUMPI DUP1 PUSH4 0xD71383ED EQ PUSH2 0x260 JUMPI DUP1 PUSH4 0xF16AD51E EQ PUSH2 0x273 JUMPI DUP1 PUSH4 0xF287AD04 EQ PUSH2 0x286 JUMPI PUSH1 0x0 DUP1 REVERT JUMPDEST DUP1 PUSH3 0xF714CE EQ PUSH2 0xA2 JUMPI DUP1 PUSH4 0x390B7C66 EQ PUSH2 0xB7 JUMPI DUP1 PUSH4 0x6FB6EC41 EQ PUSH2 0xD3 JUMPI DUP1 PUSH4 0x85D88CB1 EQ PUSH2 0x108 JUMPI DUP1 PUSH4 0x86BB8249 EQ PUSH2 0x19D JUMPI JUMPDEST PUSH1 0x0 DUP1 REVERT JUMPDEST PUSH2 0xB5 PUSH2 0xB0 CALLDATASIZE PUSH1 0x4 PUSH2 0xD73 JUMP JUMPDEST PUSH2 0x299 JUMP JUMPDEST STOP JUMPDEST PUSH2 0xC0 PUSH1 0x0 SLOAD DUP2 JUMP JUMPDEST PUSH1 0x40 MLOAD SWAP1 DUP2 MSTORE PUSH1 0x20 ADD JUMPDEST PUSH1 0x40 MLOAD DUP1 SWAP2 SUB SWAP1 RETURN JUMPDEST PUSH2 0xE6 PUSH2 0xE1 CALLDATASIZE PUSH1 0x4 PUSH2 0xD9F JUMP JUMPDEST PUSH2 0x52D JUMP JUMPDEST PUSH1 0x40 DUP1 MLOAD SWAP5 ISZERO ISZERO DUP6 MSTORE PUSH1 0x20 DUP6 ADD SWAP4 SWAP1 SWAP4 MSTORE SWAP2 DUP4 ADD MSTORE PUSH1 0x60 DUP3 ADD MSTORE PUSH1 0x80 ADD PUSH2 0xCA JUMP JUMPDEST PUSH2 0x15F PUSH2 0x116 CALLDATASIZE PUSH1 0x4 PUSH2 0xDD1 JUMP JUMPDEST PUSH1 0x2 PUSH1 0x20 DUP2 SWAP1 MSTORE PUSH1 0x0 SWAP2 DUP3 MSTORE PUSH1 0x40 SWAP1 SWAP2 KECCAK256 DUP1 SLOAD PUSH1 0x1 DUP3 ADD SLOAD SWAP3 DUP3 ADD SLOAD PUSH1 0x3 DUP4 ADD SLOAD PUSH1 0x4 DUP5 ADD SLOAD PUSH1 0x5 DUP6 ADD SLOAD PUSH1 0x6 SWAP1 SWAP6 ADD SLOAD SWAP4 SWAP6 SWAP5 SWAP3 SWAP4 SWAP2 SWAP3 SWAP1 SWAP2 PUSH1 0x1 PUSH1 0x1 PUSH1 0xA0 SHL SUB SWAP1 SWAP2 AND SWAP1 DUP8 JUMP JUMPDEST PUSH1 0x40 DUP1 MLOAD SWAP8 DUP9 MSTORE PUSH1 0x20 DUP9 ADD SWAP7 SWAP1 SWAP7 MSTORE SWAP5 DUP7 ADD SWAP4 SWAP1 SWAP4 MSTORE PUSH1 0x60 DUP6 ADD SWAP2 SWAP1 SWAP2 MSTORE PUSH1 0x80 DUP5 ADD MSTORE PUSH1 0x1 PUSH1 0x1 PUSH1 0xA0 SHL SUB AND PUSH1 0xA0 DUP4 ADD MSTORE PUSH1 0xC0 DUP3 ADD MSTORE PUSH1 0xE0 ADD PUSH2 0xCA JUMP JUMPDEST PUSH2 0x1CB PUSH2 0x1AB CALLDATASIZE PUSH1 0x4 PUSH2 0xDEA JUMP JUMPDEST PUSH1 0x1 PUSH1 0x20 SWAP1 DUP2 MSTORE PUSH1 0x0 SWAP3 DUP4 MSTORE PUSH1 0x40 DUP1 DUP5 KECCAK256 SWAP1 SWAP2 MSTORE SWAP1 DUP3 MSTORE SWAP1 KECCAK256 SLOAD PUSH1 0xFF AND DUP2 JUMP JUMPDEST PUSH1 0x40 MLOAD SWAP1 ISZERO ISZERO DUP2 MSTORE PUSH1 0x20 ADD PUSH2 0xCA JUMP JUMPDEST PUSH2 0xC0 PUSH3 0xF4240 DUP2 JUMP JUMPDEST PUSH2 0x233 PUSH2 0x1F3 CALLDATASIZE PUSH1 0x4 PUSH2 0xDEA JUMP JUMPDEST PUSH1 0x3 PUSH1 0x20 DUP2 DUP2 MSTORE PUSH1 0x0 SWAP4 DUP5 MSTORE PUSH1 0x40 DUP1 DUP6 KECCAK256 SWAP1 SWAP2 MSTORE SWAP2 DUP4 MSTORE SWAP2 KECCAK256 DUP1 SLOAD PUSH1 0x1 DUP3 ADD SLOAD PUSH1 0x2 DUP4 ADD SLOAD SWAP4 DUP4 ADD SLOAD PUSH1 0x4 DUP5 ADD SLOAD PUSH1 0x5 SWAP1 SWAP5 ADD SLOAD SWAP3 SWAP5 SWAP2 SWAP4 SWAP2 SWAP3 SWAP1 SWAP2 SWAP1 DUP7 JUMP JUMPDEST PUSH1 0x40 DUP1 MLOAD SWAP7 DUP8 MSTORE PUSH1 0x20 DUP8 ADD SWAP6 SWAP1 SWAP6 MSTORE SWAP4 DUP6 ADD SWAP3 SWAP1 SWAP3 MSTORE PUSH1 0x60 DUP5 ADD MSTORE PUSH1 0x80 DUP4 ADD MSTORE PUSH1 0xA0 DUP3 ADD MSTORE PUSH1 0xC0 ADD PUSH2 0xCA JUMP JUMPDEST PUSH2 0xB5 PUSH2 0x26E CALLDATASIZE PUSH1 0x4 PUSH2 0xE14 JUMP JUMPDEST PUSH2 0x6D4 JUMP JUMPDEST PUSH2 0xB5 PUSH2 0x281 CALLDATASIZE PUSH1 0x4 PUSH2 0xE70 JUMP JUMPDEST PUSH2 0x898 JUMP JUMPDEST PUSH2 0xB5 PUSH2 0x294 CALLDATASIZE PUSH1 0x4 PUSH2 0xEA8 JUMP JUMPDEST PUSH2 0x9CC JUMP JUMPDEST PUSH1 0x1 PUSH1 0x1 PUSH1 0xA0 SHL SUB DUP2 AND PUSH1 0x0 SWAP1 DUP2 MSTORE PUSH1 0x1 PUSH1 0x20 SWAP1 DUP2 MSTORE PUSH1 0x40 DUP1 DUP4 KECCAK256 DUP6 DUP5 MSTORE SWAP1 SWAP2 MSTORE SWAP1 KECCAK256 SLOAD PUSH1 0xFF AND PUSH2 0x321 JUMPI PUSH1 0x40 MLOAD PUSH3 0x461BCD PUSH1 0xE5 SHL DUP2 MSTORE PUSH1 0x20 PUSH1 0x4 DUP3 ADD MSTORE PUSH1 0x27 PUSH1 0x24 DUP3 ADD MSTORE PUSH32 0x596F75206D75737420696E697469616C697A6520796F7572206163636F756E74 PUSH1 0x44 DUP3 ADD MSTORE PUSH7 0x103334B939BA17 PUSH1 0xC9 SHL PUSH1 0x64 DUP3 ADD MSTORE PUSH1 0x84 ADD JUMPDEST PUSH1 0x40 MLOAD DUP1 SWAP2 SUB SWAP1 REVERT JUMPDEST PUSH1 0x1 PUSH1 0x1 PUSH1 0xA0 SHL SUB DUP2 AND PUSH1 0x0 SWAP1 DUP2 MSTORE PUSH1 0x3 PUSH1 0x20 SWAP1 DUP2 MSTORE PUSH1 0x40 DUP1 DUP4 KECCAK256 DUP6 DUP5 MSTORE SWAP1 SWAP2 MSTORE SWAP1 KECCAK256 PUSH1 0x1 DUP2 ADD SLOAD PUSH2 0x395 JUMPI PUSH1 0x40 MLOAD PUSH3 0x461BCD PUSH1 0xE5 SHL DUP2 MSTORE PUSH1 0x20 PUSH1 0x4 DUP3 ADD MSTORE PUSH1 0x19 PUSH1 0x24 DUP3 ADD MSTORE PUSH32 0x4E6F20636F696E73206C65667420746F20776974686472617700000000000000 PUSH1 0x44 DUP3 ADD MSTORE PUSH1 0x64 ADD PUSH2 0x318 JUMP JUMPDEST PUSH1 0x0 DUP2 PUSH1 0x3 ADD SLOAD TIMESTAMP LT PUSH2 0x3AD JUMPI POP PUSH1 0x1 DUP2 ADD SLOAD PUSH2 0x3CE JUMP JUMPDEST PUSH1 0x4 DUP3 ADD SLOAD PUSH1 0x5 DUP4 ADD SLOAD PUSH2 0x3C1 SWAP1 TIMESTAMP PUSH2 0xFB4 JUMP JUMPDEST PUSH2 0x3CB SWAP2 SWAP1 PUSH2 0xFCB JUMP JUMPDEST SWAP1 POP JUMPDEST PUSH1 0x0 DUP5 DUP2 MSTORE PUSH1 0x2 PUSH1 0x20 MSTORE PUSH1 0x40 DUP2 KECCAK256 PUSH1 0x1 DUP5 ADD DUP1 SLOAD SWAP2 SWAP3 DUP5 SWAP3 PUSH2 0x3F1 SWAP1 DUP5 SWAP1 PUSH2 0xFB4 JUMP JUMPDEST SWAP1 SWAP2 SSTORE POP POP TIMESTAMP PUSH1 0x5 DUP5 ADD SSTORE PUSH1 0x6 DUP2 ADD DUP1 SLOAD DUP4 SWAP2 SWAP1 PUSH1 0x0 SWAP1 PUSH2 0x413 SWAP1 DUP5 SWAP1 PUSH2 0xFB4 JUMP JUMPDEST SWAP1 SWAP2 SSTORE POP POP PUSH1 0x5 DUP2 ADD SLOAD PUSH1 0x40 MLOAD PUSH4 0xA9059CBB PUSH1 0xE0 SHL DUP2 MSTORE PUSH1 0x1 PUSH1 0x1 PUSH1 0xA0 SHL SUB DUP7 DUP2 AND PUSH1 0x4 DUP4 ADD MSTORE PUSH1 0x24 DUP3 ADD DUP6 SWAP1 MSTORE SWAP1 SWAP2 AND SWAP1 PUSH4 0xA9059CBB SWAP1 PUSH1 0x44 ADD PUSH1 0x20 PUSH1 0x40 MLOAD DUP1 DUP4 SUB DUP2 PUSH1 0x0 DUP8 GAS CALL ISZERO DUP1 ISZERO PUSH2 0x46D JUMPI RETURNDATASIZE PUSH1 0x0 DUP1 RETURNDATACOPY RETURNDATASIZE PUSH1 0x0 REVERT JUMPDEST POP POP POP POP PUSH1 0x40 MLOAD RETURNDATASIZE PUSH1 0x1F NOT PUSH1 0x1F DUP3 ADD AND DUP3 ADD DUP1 PUSH1 0x40 MSTORE POP DUP2 ADD SWAP1 PUSH2 0x491 SWAP2 SWAP1 PUSH2 0xFEA JUMP JUMPDEST PUSH2 0x4D5 JUMPI PUSH1 0x40 MLOAD PUSH3 0x461BCD PUSH1 0xE5 SHL DUP2 MSTORE PUSH1 0x20 PUSH1 0x4 DUP3 ADD MSTORE PUSH1 0x15 PUSH1 0x24 DUP3 ADD MSTORE PUSH21 0x151BDAD95B881D1C985B9CD9995C8819985A5B1959 PUSH1 0x5A SHL PUSH1 0x44 DUP3 ADD MSTORE PUSH1 0x64 ADD PUSH2 0x318 JUMP JUMPDEST DUP4 PUSH1 0x1 PUSH1 0x1 PUSH1 0xA0 SHL SUB AND DUP6 PUSH32 0x1680E4CFE90468085407EF2B599DBE94B0AA30FF9F180F0E41D22EB71C872872 DUP5 DUP7 PUSH1 0x1 ADD SLOAD PUSH1 0x40 MLOAD PUSH2 0x51E SWAP3 SWAP2 SWAP1 SWAP2 DUP3 MSTORE PUSH1 0x20 DUP3 ADD MSTORE PUSH1 0x40 ADD SWAP1 JUMP JUMPDEST PUSH1 0x40 MLOAD DUP1 SWAP2 SUB SWAP1 LOG3 POP POP POP POP POP JUMP JUMPDEST PUSH1 0x0 DUP1 PUSH1 0x0 DUP1 PUSH1 0x0 SLOAD DUP9 GT ISZERO PUSH2 0x54E JUMPI POP PUSH1 0x0 SWAP3 POP DUP3 SWAP2 POP DUP2 SWAP1 POP DUP1 PUSH2 0x6C9 JUMP JUMPDEST PUSH1 0x0 DUP9 DUP2 MSTORE PUSH1 0x2 PUSH1 0x20 DUP2 DUP2 MSTORE PUSH1 0x40 SWAP3 DUP4 SWAP1 KECCAK256 DUP4 MLOAD PUSH1 0xE0 DUP2 ADD DUP6 MSTORE DUP2 SLOAD DUP2 MSTORE PUSH1 0x1 DUP3 ADD SLOAD SWAP3 DUP2 ADD SWAP3 SWAP1 SWAP3 MSTORE SWAP2 DUP3 ADD SLOAD SWAP3 DUP2 ADD SWAP3 SWAP1 SWAP3 MSTORE PUSH1 0x3 DUP2 ADD SLOAD PUSH1 0x60 DUP4 ADD DUP2 SWAP1 MSTORE PUSH1 0x4 DUP3 ADD SLOAD PUSH1 0x80 DUP5 ADD MSTORE PUSH1 0x5 DUP3 ADD SLOAD PUSH1 0x1 PUSH1 0x1 PUSH1 0xA0 SHL SUB AND PUSH1 0xA0 DUP5 ADD MSTORE PUSH1 0x6 SWAP1 SWAP2 ADD SLOAD PUSH1 0xC0 DUP4 ADD MSTORE DUP9 GT DUP1 PUSH2 0x5C7 JUMPI POP DUP1 PUSH1 0x40 ADD MLOAD DUP9 LT JUMPDEST ISZERO PUSH2 0x5E0 JUMPI PUSH1 0x0 DUP1 PUSH1 0x0 DUP1 SWAP5 POP SWAP5 POP SWAP5 POP SWAP5 POP POP PUSH2 0x6C9 JUMP JUMPDEST PUSH1 0x0 DUP2 PUSH1 0x60 ADD MLOAD DUP10 EQ ISZERO PUSH2 0x5F5 JUMPI POP DUP6 PUSH2 0x666 JUMP JUMPDEST PUSH1 0x0 DUP3 PUSH1 0x40 ADD MLOAD DUP4 PUSH1 0x60 ADD MLOAD PUSH2 0x60B SWAP2 SWAP1 PUSH2 0xFB4 JUMP JUMPDEST PUSH3 0xF4240 PUSH2 0x619 DUP12 DUP12 PUSH2 0xFB4 JUMP JUMPDEST PUSH2 0x623 SWAP2 SWAP1 PUSH2 0xFCB JUMP JUMPDEST PUSH2 0x62D SWAP2 SWAP1 PUSH2 0x1013 JUMP JUMPDEST SWAP1 POP DUP9 PUSH3 0xF4240 DUP5 PUSH1 0x40 ADD MLOAD DUP13 PUSH2 0x644 SWAP2 SWAP1 PUSH2 0xFB4 JUMP JUMPDEST PUSH2 0x64E SWAP1 DUP5 PUSH2 0xFCB JUMP JUMPDEST PUSH2 0x658 SWAP2 SWAP1 PUSH2 0x1013 JUMP JUMPDEST PUSH2 0x662 SWAP2 SWAP1 PUSH2 0x1035 JUMP JUMPDEST SWAP2 POP POP JUMPDEST PUSH1 0x0 PUSH2 0x673 DUP11 PUSH1 0x64 PUSH2 0xFCB JUMP JUMPDEST PUSH1 0x80 DUP5 ADD MLOAD PUSH2 0x683 SWAP1 PUSH1 0x64 PUSH2 0xFB4 JUMP JUMPDEST PUSH2 0x68D SWAP1 DUP5 PUSH2 0xFCB JUMP JUMPDEST PUSH2 0x697 SWAP2 SWAP1 PUSH2 0x1013 JUMP JUMPDEST SWAP1 POP PUSH1 0x0 PUSH2 0x6A5 DUP3 DUP5 PUSH2 0x1013 JUMP JUMPDEST PUSH2 0x6AF DUP13 TIMESTAMP PUSH2 0x1035 JUMP JUMPDEST PUSH2 0x6B9 SWAP2 SWAP1 PUSH2 0xFB4 JUMP JUMPDEST PUSH1 0x1 SWAP9 POP SWAP3 SWAP7 POP SWAP1 SWAP5 POP SWAP1 SWAP3 POP POP POP JUMPDEST SWAP5 POP SWAP5 POP SWAP5 POP SWAP5 SWAP1 POP JUMP JUMPDEST PUSH1 0x64 DUP4 LT PUSH2 0x718 JUMPI PUSH1 0x40 MLOAD PUSH3 0x461BCD PUSH1 0xE5 SHL DUP2 MSTORE PUSH1 0x20 PUSH1 0x4 DUP3 ADD MSTORE PUSH1 0x11 PUSH1 0x24 DUP3 ADD MSTORE PUSH17 0x706374557046726F6E74203E3D2031303 PUSH1 0x7C SHL PUSH1 0x44 DUP3 ADD MSTORE PUSH1 0x64 ADD PUSH2 0x318 JUMP JUMPDEST DUP4 DUP6 LT PUSH2 0x777 JUMPI PUSH1 0x40 MLOAD PUSH3 0x461BCD PUSH1 0xE5 SHL DUP2 MSTORE PUSH1 0x20 PUSH1 0x4 DUP3 ADD MSTORE PUSH1 0x27 PUSH1 0x24 DUP3 ADD MSTORE PUSH32 0x6D696E456E6454696D65206D757374206265206C657373207468616E206D6178 PUSH1 0x44 DUP3 ADD MSTORE PUSH7 0x456E6454696D65 PUSH1 0xC8 SHL PUSH1 0x64 DUP3 ADD MSTORE PUSH1 0x84 ADD PUSH2 0x318 JUMP JUMPDEST PUSH1 0x40 MLOAD DUP1 PUSH1 0xE0 ADD PUSH1 0x40 MSTORE DUP1 DUP9 DUP2 MSTORE PUSH1 0x20 ADD DUP8 DUP2 MSTORE PUSH1 0x20 ADD DUP7 DUP2 MSTORE PUSH1 0x20 ADD DUP6 DUP2 MSTORE PUSH1 0x20 ADD DUP5 DUP2 MSTORE PUSH1 0x20 ADD DUP4 PUSH1 0x1 PUSH1 0x1 PUSH1 0xA0 SHL SUB AND DUP2 MSTORE PUSH1 0x20 ADD PUSH1 0x0 DUP2 MSTORE POP PUSH1 0x2 PUSH1 0x0 DUP1 PUSH1 0x0 DUP2 SLOAD PUSH2 0x7C6 SWAP1 PUSH2 0x104D JUMP JUMPDEST SWAP2 DUP3 SWAP1 SSTORE POP DUP2 MSTORE PUSH1 0x20 DUP1 DUP3 ADD SWAP3 SWAP1 SWAP3 MSTORE PUSH1 0x40 SWAP1 DUP2 ADD PUSH1 0x0 SWAP1 DUP2 KECCAK256 DUP5 MLOAD DUP2 SSTORE SWAP3 DUP5 ADD MLOAD PUSH1 0x1 DUP5 ADD SSTORE SWAP1 DUP4 ADD MLOAD PUSH1 0x2 DUP4 ADD SSTORE PUSH1 0x60 DUP4 ADD MLOAD PUSH1 0x3 DUP4 ADD SSTORE PUSH1 0x80 DUP4 ADD MLOAD PUSH1 0x4 DUP4 ADD SSTORE PUSH1 0xA0 DUP4 ADD MLOAD PUSH1 0x5 DUP4 ADD DUP1 SLOAD PUSH1 0x1 PUSH1 0x1 PUSH1 0xA0 SHL SUB NOT AND PUSH1 0x1 PUSH1 0x1 PUSH1 0xA0 SHL SUB SWAP1 SWAP3 AND SWAP2 SWAP1 SWAP2 OR SWAP1 SSTORE PUSH1 0xC0 SWAP1 SWAP3 ADD MLOAD PUSH1 0x6 SWAP1 SWAP2 ADD SSTORE SLOAD PUSH2 0x847 SWAP1 DUP3 PUSH2 0x898 JUMP JUMPDEST PUSH1 0x0 SLOAD PUSH1 0x40 DUP1 MLOAD DUP10 DUP2 MSTORE PUSH1 0x20 DUP2 ADD DUP10 SWAP1 MSTORE PUSH1 0x1 PUSH1 0x1 PUSH1 0xA0 SHL SUB DUP6 AND SWAP3 SWAP2 PUSH32 0x7247D7268297FD9FE23A535B70F414660BBCBBCD73AC0D9CE3C103A356A61F45 SWAP2 ADD PUSH1 0x40 MLOAD DUP1 SWAP2 SUB SWAP1 LOG3 POP POP POP POP POP POP POP JUMP JUMPDEST PUSH1 0x0 DUP3 DUP2 MSTORE PUSH1 0x2 PUSH1 0x20 MSTORE PUSH1 0x40 DUP2 KECCAK256 PUSH1 0x6 DUP2 ADD DUP1 SLOAD SWAP2 SWAP3 DUP5 SWAP3 PUSH2 0x8BB SWAP1 DUP5 SWAP1 PUSH2 0x1035 JUMP JUMPDEST SWAP1 SWAP2 SSTORE POP POP PUSH1 0x5 DUP2 ADD SLOAD PUSH1 0x40 MLOAD PUSH4 0x23B872DD PUSH1 0xE0 SHL DUP2 MSTORE CALLER PUSH1 0x4 DUP3 ADD MSTORE ADDRESS PUSH1 0x24 DUP3 ADD MSTORE PUSH1 0x44 DUP2 ADD DUP5 SWAP1 MSTORE PUSH1 0x1 PUSH1 0x1 PUSH1 0xA0 SHL SUB SWAP1 SWAP2 AND SWAP1 PUSH4 0x23B872DD SWAP1 PUSH1 0x64 ADD PUSH1 0x20 PUSH1 0x40 MLOAD DUP1 DUP4 SUB DUP2 PUSH1 0x0 DUP8 GAS CALL ISZERO DUP1 ISZERO PUSH2 0x919 JUMPI RETURNDATASIZE PUSH1 0x0 DUP1 RETURNDATACOPY RETURNDATASIZE PUSH1 0x0 REVERT JUMPDEST POP POP POP POP PUSH1 0x40 MLOAD RETURNDATASIZE PUSH1 0x1F NOT PUSH1 0x1F DUP3 ADD AND DUP3 ADD DUP1 PUSH1 0x40 MSTORE POP DUP2 ADD SWAP1 PUSH2 0x93D SWAP2 SWAP1 PUSH2 0xFEA JUMP JUMPDEST PUSH2 0x981 JUMPI PUSH1 0x40 MLOAD PUSH3 0x461BCD PUSH1 0xE5 SHL DUP2 MSTORE PUSH1 0x20 PUSH1 0x4 DUP3 ADD MSTORE PUSH1 0x15 PUSH1 0x24 DUP3 ADD MSTORE PUSH21 0x115490CC8C081D1C985B9CD9995C8819985A5B1959 PUSH1 0x5A SHL PUSH1 0x44 DUP3 ADD MSTORE PUSH1 0x64 ADD PUSH2 0x318 JUMP JUMPDEST PUSH1 0x5 DUP2 ADD SLOAD PUSH1 0x40 MLOAD DUP4 DUP2 MSTORE PUSH1 0x1 PUSH1 0x1 PUSH1 0xA0 SHL SUB SWAP1 SWAP2 AND SWAP1 DUP5 SWAP1 PUSH32 0xB162210DA7D23D82C18CFF5AF46D3562661D26B42A6848FA28D64A6BDC70386A SWAP1 PUSH1 0x20 ADD PUSH1 0x40 MLOAD DUP1 SWAP2 SUB SWAP1 LOG3 POP POP POP JUMP JUMPDEST CALLER PUSH1 0x1 PUSH1 0x1 PUSH1 0xA0 SHL SUB DUP7 AND EQ PUSH2 0xA30 JUMPI PUSH1 0x40 MLOAD PUSH3 0x461BCD PUSH1 0xE5 SHL DUP2 MSTORE PUSH1 0x20 PUSH1 0x4 DUP3 ADD MSTORE PUSH1 0x24 DUP1 DUP3 ADD MSTORE PUSH32 0x43616E206F6E6C7920696E697469616C697A6520796F7572206F776E20747261 PUSH1 0x44 DUP3 ADD MSTORE PUSH4 0x6E636865 PUSH1 0xE0 SHL PUSH1 0x64 DUP3 ADD MSTORE PUSH1 0x84 ADD PUSH2 0x318 JUMP JUMPDEST PUSH1 0x1 PUSH1 0x1 PUSH1 0xA0 SHL SUB DUP6 AND PUSH1 0x0 SWAP1 DUP2 MSTORE PUSH1 0x1 PUSH1 0x20 SWAP1 DUP2 MSTORE PUSH1 0x40 DUP1 DUP4 KECCAK256 DUP10 DUP5 MSTORE SWAP1 SWAP2 MSTORE SWAP1 KECCAK256 SLOAD PUSH1 0xFF AND ISZERO PUSH2 0xA9A JUMPI PUSH1 0x40 MLOAD PUSH3 0x461BCD PUSH1 0xE5 SHL DUP2 MSTORE PUSH1 0x20 PUSH1 0x4 DUP3 ADD MSTORE PUSH1 0x13 PUSH1 0x24 DUP3 ADD MSTORE PUSH19 0x105B1C9958591E481A5B9A5D1A585B1A5E9959 PUSH1 0x6A SHL PUSH1 0x44 DUP3 ADD MSTORE PUSH1 0x64 ADD PUSH2 0x318 JUMP JUMPDEST PUSH1 0x40 DUP1 MLOAD PUSH1 0x1 PUSH1 0x1 PUSH1 0xA0 SHL SUB DUP8 AND PUSH1 0x20 DUP3 ADD MSTORE SWAP1 DUP2 ADD DUP5 SWAP1 MSTORE PUSH1 0x60 DUP2 ADD DUP4 SWAP1 MSTORE PUSH1 0x0 SWAP1 PUSH1 0x80 ADD PUSH1 0x40 DUP1 MLOAD PUSH1 0x1F NOT DUP2 DUP5 SUB ADD DUP2 MSTORE DUP3 DUP3 MSTORE DUP1 MLOAD PUSH1 0x20 SWAP2 DUP3 ADD KECCAK256 PUSH1 0x0 DUP12 DUP2 MSTORE PUSH1 0x2 DUP1 DUP5 MSTORE SWAP1 DUP5 SWAP1 KECCAK256 PUSH1 0xE0 DUP7 ADD DUP6 MSTORE DUP1 SLOAD DUP1 DUP8 MSTORE PUSH1 0x1 DUP3 ADD SLOAD SWAP5 DUP8 ADD SWAP5 SWAP1 SWAP5 MSTORE SWAP1 DUP2 ADD SLOAD DUP6 DUP6 ADD MSTORE PUSH1 0x3 DUP2 ADD SLOAD PUSH1 0x60 DUP7 ADD MSTORE PUSH1 0x4 DUP1 DUP3 ADD SLOAD PUSH1 0x80 DUP8 ADD MSTORE PUSH1 0x5 DUP3 ADD SLOAD PUSH1 0x1 PUSH1 0x1 PUSH1 0xA0 SHL SUB AND PUSH1 0xA0 DUP8 ADD MSTORE PUSH1 0x6 SWAP1 SWAP2 ADD SLOAD PUSH1 0xC0 DUP7 ADD MSTORE SWAP3 MLOAD PUSH4 0x2769CD1F PUSH1 0xE2 SHL DUP2 MSTORE SWAP1 SWAP5 POP PUSH20 0x0 SWAP3 PUSH4 0x9DA7347C SWAP3 PUSH2 0xB73 SWAP3 SWAP1 SWAP2 DUP8 SWAP2 DUP10 SWAP2 ADD PUSH2 0x1068 JUMP JUMPDEST PUSH1 0x20 PUSH1 0x40 MLOAD DUP1 DUP4 SUB DUP2 DUP7 GAS DELEGATECALL ISZERO DUP1 ISZERO PUSH2 0xB90 JUMPI RETURNDATASIZE PUSH1 0x0 DUP1 RETURNDATACOPY RETURNDATASIZE PUSH1 0x0 REVERT JUMPDEST POP POP POP POP PUSH1 0x40 MLOAD RETURNDATASIZE PUSH1 0x1F NOT PUSH1 0x1F DUP3 ADD AND DUP3 ADD DUP1 PUSH1 0x40 MSTORE POP DUP2 ADD SWAP1 PUSH2 0xBB4 SWAP2 SWAP1 PUSH2 0xFEA JUMP JUMPDEST PUSH2 0xC00 JUMPI PUSH1 0x40 MLOAD PUSH3 0x461BCD PUSH1 0xE5 SHL DUP2 MSTORE PUSH1 0x20 PUSH1 0x4 DUP3 ADD DUP2 SWAP1 MSTORE PUSH1 0x24 DUP3 ADD MSTORE PUSH32 0x5468652070726F6F6620636F756C64206E6F742062652076657269666965642E PUSH1 0x44 DUP3 ADD MSTORE PUSH1 0x64 ADD PUSH2 0x318 JUMP JUMPDEST PUSH1 0x1 PUSH1 0x1 PUSH1 0xA0 SHL SUB DUP8 AND PUSH1 0x0 SWAP1 DUP2 MSTORE PUSH1 0x1 PUSH1 0x20 DUP2 DUP2 MSTORE PUSH1 0x40 DUP1 DUP5 KECCAK256 DUP13 DUP6 MSTORE SWAP1 SWAP2 MSTORE DUP3 KECCAK256 DUP1 SLOAD PUSH1 0xFF NOT AND SWAP1 SWAP2 OR SWAP1 SSTORE DUP1 DUP1 DUP1 PUSH2 0xC3D DUP13 DUP12 DUP12 DUP12 PUSH2 0x52D JUMP JUMPDEST SWAP4 POP SWAP4 POP SWAP4 POP SWAP4 POP DUP4 PUSH2 0xC92 JUMPI PUSH1 0x40 MLOAD PUSH3 0x461BCD PUSH1 0xE5 SHL DUP2 MSTORE PUSH1 0x20 PUSH1 0x4 DUP3 ADD MSTORE PUSH1 0x18 PUSH1 0x24 DUP3 ADD MSTORE PUSH32 0x496E76616C69642076657374696E67207363686564756C650000000000000000 PUSH1 0x44 DUP3 ADD MSTORE PUSH1 0x64 ADD PUSH2 0x318 JUMP JUMPDEST PUSH1 0x40 MLOAD DUP1 PUSH1 0xC0 ADD PUSH1 0x40 MSTORE DUP1 DUP5 DUP2 MSTORE PUSH1 0x20 ADD DUP5 DUP2 MSTORE PUSH1 0x20 ADD DUP3 DUP2 MSTORE PUSH1 0x20 ADD DUP12 TIMESTAMP PUSH2 0xCBB SWAP2 SWAP1 PUSH2 0x1035 JUMP JUMPDEST DUP2 MSTORE PUSH1 0x20 ADD DUP4 DUP2 MSTORE PUSH1 0x20 ADD DUP3 DUP2 MSTORE POP PUSH1 0x3 PUSH1 0x0 DUP14 PUSH1 0x1 PUSH1 0x1 PUSH1 0xA0 SHL SUB AND PUSH1 0x1 PUSH1 0x1 PUSH1 0xA0 SHL SUB AND DUP2 MSTORE PUSH1 0x20 ADD SWAP1 DUP2 MSTORE PUSH1 0x20 ADD PUSH1 0x0 KECCAK256 PUSH1 0x0 DUP15 DUP2 MSTORE PUSH1 0x20 ADD SWAP1 DUP2 MSTORE PUSH1 0x20 ADD PUSH1 0x0 KECCAK256 PUSH1 0x0 DUP3 ADD MLOAD DUP2 PUSH1 0x0 ADD SSTORE PUSH1 0x20 DUP3 ADD MLOAD DUP2 PUSH1 0x1 ADD SSTORE PUSH1 0x40 DUP3 ADD MLOAD DUP2 PUSH1 0x2 ADD SSTORE PUSH1 0x60 DUP3 ADD MLOAD DUP2 PUSH1 0x3 ADD SSTORE PUSH1 0x80 DUP3 ADD MLOAD DUP2 PUSH1 0x4 ADD SSTORE PUSH1 0xA0 DUP3 ADD MLOAD DUP2 PUSH1 0x5 ADD SSTORE SWAP1 POP POP PUSH2 0xD49 DUP13 DUP13 PUSH2 0x299 JUMP JUMPDEST POP POP POP POP POP POP POP POP POP POP POP POP JUMP JUMPDEST DUP1 CALLDATALOAD PUSH1 0x1 PUSH1 0x1 PUSH1 0xA0 SHL SUB DUP2 AND DUP2 EQ PUSH2 0xD6E JUMPI PUSH1 0x0 DUP1 REVERT JUMPDEST SWAP2 SWAP1 POP JUMP JUMPDEST PUSH1 0x0 DUP1 PUSH1 0x40 DUP4 DUP6 SUB SLT ISZERO PUSH2 0xD86 JUMPI PUSH1 0x0 DUP1 REVERT JUMPDEST DUP3 CALLDATALOAD SWAP2 POP PUSH2 0xD96 PUSH1 0x20 DUP5 ADD PUSH2 0xD57 JUMP JUMPDEST SWAP1 POP SWAP3 POP SWAP3 SWAP1 POP JUMP JUMPDEST PUSH1 0x0 DUP1 PUSH1 0x0 DUP1 PUSH1 0x80 DUP6 DUP8 SUB SLT ISZERO PUSH2 0xDB5 JUMPI PUSH1 0x0 DUP1 REVERT JUMPDEST POP POP DUP3 CALLDATALOAD SWAP5 PUSH1 0x20 DUP5 ADD CALLDATALOAD SWAP5 POP PUSH1 0x40 DUP5 ADD CALLDATALOAD SWAP4 PUSH1 0x60 ADD CALLDATALOAD SWAP3 POP SWAP1 POP JUMP JUMPDEST PUSH1 0x0 PUSH1 0x20 DUP3 DUP5 SUB SLT ISZERO PUSH2 0xDE3 JUMPI PUSH1 0x0 DUP1 REVERT JUMPDEST POP CALLDATALOAD SWAP2 SWAP1 POP JUMP JUMPDEST PUSH1 0x0 DUP1 PUSH1 0x40 DUP4 DUP6 SUB SLT ISZERO PUSH2 0xDFD JUMPI PUSH1 0x0 DUP1 REVERT JUMPDEST PUSH2 0xE06 DUP4 PUSH2 0xD57 JUMP JUMPDEST SWAP5 PUSH1 0x20 SWAP4 SWAP1 SWAP4 ADD CALLDATALOAD SWAP4 POP POP POP JUMP JUMPDEST PUSH1 0x0 DUP1 PUSH1 0x0 DUP1 PUSH1 0x0 DUP1 PUSH1 0x0 PUSH1 0xE0 DUP9 DUP11 SUB SLT ISZERO PUSH2 0xE2F JUMPI PUSH1 0x0 DUP1 REVERT JUMPDEST DUP8 CALLDATALOAD SWAP7 POP PUSH1 0x20 DUP9 ADD CALLDATALOAD SWAP6 POP PUSH1 0x40 DUP9 ADD CALLDATALOAD SWAP5 POP PUSH1 0x60 DUP9 ADD CALLDATALOAD SWAP4 POP PUSH1 0x80 DUP9 ADD CALLDATALOAD SWAP3 POP PUSH2 0xE5B PUSH1 0xA0 DUP10 ADD PUSH2 0xD57 JUMP JUMPDEST SWAP2 POP PUSH1 0xC0 DUP9 ADD CALLDATALOAD SWAP1 POP SWAP3 SWAP6 SWAP9 SWAP2 SWAP5 SWAP8 POP SWAP3 SWAP6 POP JUMP JUMPDEST PUSH1 0x0 DUP1 PUSH1 0x40 DUP4 DUP6 SUB SLT ISZERO PUSH2 0xE83 JUMPI PUSH1 0x0 DUP1 REVERT JUMPDEST POP POP DUP1 CALLDATALOAD SWAP3 PUSH1 0x20 SWAP1 SWAP2 ADD CALLDATALOAD SWAP2 POP JUMP JUMPDEST PUSH4 0x4E487B71 PUSH1 0xE0 SHL PUSH1 0x0 MSTORE PUSH1 0x41 PUSH1 0x4 MSTORE PUSH1 0x24 PUSH1 0x0 REVERT JUMPDEST PUSH1 0x0 DUP1 PUSH1 0x0 DUP1 PUSH1 0x0 DUP1 PUSH1 0xC0 DUP8 DUP10 SUB SLT ISZERO PUSH2 0xEC1 JUMPI PUSH1 0x0 DUP1 REVERT JUMPDEST DUP7 CALLDATALOAD SWAP6 POP PUSH1 0x20 PUSH2 0xED2 DUP2 DUP10 ADD PUSH2 0xD57 JUMP JUMPDEST SWAP6 POP PUSH1 0x40 DUP9 ADD CALLDATALOAD SWAP5 POP PUSH1 0x60 DUP9 ADD CALLDATALOAD SWAP4 POP PUSH1 0x80 DUP9 ADD CALLDATALOAD SWAP3 POP PUSH1 0xA0 DUP9 ADD CALLDATALOAD PUSH8 0xFFFFFFFFFFFFFFFF DUP1 DUP3 GT ISZERO PUSH2 0xF04 JUMPI PUSH1 0x0 DUP1 REVERT JUMPDEST DUP2 DUP11 ADD SWAP2 POP DUP11 PUSH1 0x1F DUP4 ADD SLT PUSH2 0xF18 JUMPI PUSH1 0x0 DUP1 REVERT JUMPDEST DUP2 CALLDATALOAD DUP2 DUP2 GT ISZERO PUSH2 0xF2A JUMPI PUSH2 0xF2A PUSH2 0xE92 JUMP JUMPDEST DUP1 PUSH1 0x5 SHL PUSH1 0x40 MLOAD PUSH1 0x1F NOT PUSH1 0x3F DUP4 ADD AND DUP2 ADD DUP2 DUP2 LT DUP6 DUP3 GT OR ISZERO PUSH2 0xF4F JUMPI PUSH2 0xF4F PUSH2 0xE92 JUMP JUMPDEST PUSH1 0x40 MSTORE SWAP2 DUP3 MSTORE DUP5 DUP3 ADD SWAP3 POP DUP4 DUP2 ADD DUP6 ADD SWAP2 DUP14 DUP4 GT ISZERO PUSH2 0xF6D JUMPI PUSH1 0x0 DUP1 REVERT JUMPDEST SWAP4 DUP6 ADD SWAP4 JUMPDEST DUP3 DUP6 LT ISZERO PUSH2 0xF8B JUMPI DUP5 CALLDATALOAD DUP5 MSTORE SWAP4 DUP6 ADD SWAP4 SWAP3 DUP6 ADD SWAP3 PUSH2 0xF72 JUMP JUMPDEST DUP1 SWAP7 POP POP POP POP POP POP POP SWAP3 SWAP6 POP SWAP3 SWAP6 POP SWAP3 SWAP6 JUMP JUMPDEST PUSH4 0x4E487B71 PUSH1 0xE0 SHL PUSH1 0x0 MSTORE PUSH1 0x11 PUSH1 0x4 MSTORE PUSH1 0x24 PUSH1 0x0 REVERT JUMPDEST PUSH1 0x0 DUP3 DUP3 LT ISZERO PUSH2 0xFC6 JUMPI PUSH2 0xFC6 PUSH2 0xF9E JUMP JUMPDEST POP SUB SWAP1 JUMP JUMPDEST PUSH1 0x0 DUP2 PUSH1 0x0 NOT DIV DUP4 GT DUP3 ISZERO ISZERO AND ISZERO PUSH2 0xFE5 JUMPI PUSH2 0xFE5 PUSH2 0xF9E JUMP JUMPDEST POP MUL SWAP1 JUMP JUMPDEST PUSH1 0x0 PUSH1 0x20 DUP3 DUP5 SUB SLT ISZERO PUSH2 0xFFC JUMPI PUSH1 0x0 DUP1 REVERT JUMPDEST DUP2 MLOAD DUP1 ISZERO ISZERO DUP2 EQ PUSH2 0x100C JUMPI PUSH1 0x0 DUP1 REVERT JUMPDEST SWAP4 SWAP3 POP POP POP JUMP JUMPDEST PUSH1 0x0 DUP3 PUSH2 0x1030 JUMPI PUSH4 0x4E487B71 PUSH1 0xE0 SHL PUSH1 0x0 MSTORE PUSH1 0x12 PUSH1 0x4 MSTORE PUSH1 0x24 PUSH1 0x0 REVERT JUMPDEST POP DIV SWAP1 JUMP JUMPDEST PUSH1 0x0 DUP3 NOT DUP3 GT ISZERO PUSH2 0x1048 JUMPI PUSH2 0x1048 PUSH2 0xF9E JUMP JUMPDEST POP ADD SWAP1 JUMP JUMPDEST PUSH1 0x0 PUSH1 0x0 NOT DUP3 EQ ISZERO PUSH2 0x1061 JUMPI PUSH2 0x1061 PUSH2 0xF9E JUMP JUMPDEST POP PUSH1 0x1 ADD SWAP1 JUMP JUMPDEST PUSH1 0x0 PUSH1 0x60 DUP3 ADD DUP6 DUP4 MSTORE PUSH1 0x20 DUP6 DUP2 DUP6 ADD MSTORE PUSH1 0x60 PUSH1 0x40 DUP6 ADD MSTORE DUP2 DUP6 MLOAD DUP1 DUP5 MSTORE PUSH1 0x80 DUP7 ADD SWAP2 POP DUP3 DUP8 ADD SWAP4 POP PUSH1 0x0 JUMPDEST DUP2 DUP2 LT ISZERO PUSH2 0x10AF JUMPI DUP5 MLOAD DUP4 MSTORE SWAP4 DUP4 ADD SWAP4 SWAP2 DUP4 ADD SWAP2 PUSH1 0x1 ADD PUSH2 0x1093 JUMP JUMPDEST POP SWAP1 SWAP9 SWAP8 POP POP POP POP POP POP POP POP JUMP INVALID LOG2 PUSH5 0x6970667358 0x22 SLT KECCAK256 NOT DUP16 INVALID DUP3 0x2C SHR NOT 0x4D SWAP7 0x49 SWAP12 0xEA 0x21 SWAP7 SLT 0xD8 KECCAK256 0xD1 CALLER 0xB2 DUP2 0xE6 PUSH30 0x5819FB658313D30DFB64736F6C634300080C003300000000000000000000 ",
  "sha1": "61d6bb4681c8f333bb8ea1968f0d66be69f3c2c7",
  "source": "// SPDX-License-Identifier: GPL-3.0-only\n\npragma solidity 0.8.12;\n\nimport \"../interfaces/IERC20.sol\";\nimport \"./MerkleLib.sol\";\n\n/// @title A factory pattern for user-chosen vesting-schedules, that is, a time release schedule for tokens, using merkle proofs to scale\n/// @author metapriest, adrian.wachel, marek.babiarz, radoslaw.gorecki\n/// @notice This contract is permissionless and public facing. Any fees must be included in the data of the merkle tree.\n/// @dev The contract cannot introspect into the contents of the merkle tree, except when provided a merkle proof.\n/// @dev User chosen vesting schedules means the contract has parameters that define a line segment that\n/// @dev describes a range of vesting-schedule parameters within which the user can negotiate tradeoffs\n/// @dev More tokens => longer vesting time && slower drip, when used correctly, but the contract does not enforce\n/// @dev coherence of vesting schedules, so someone could make a range of vesting schedules in which\n/// @dev more tokens => longer vesting time && faster drip, but this is a user error, also we wouldn't catch it until\n/// @dev after the tree has been initialized and funded, so we just let them do it.\n/// @dev The choice of which parameters to initialize at tree-creation-time versus at schedule-initialization-time is\n/// @dev somewhat arbitrary, but we choose to have min/max end times at tree scope and min/max total payments at first-withdrawal-time\ncontract MerkleResistor {\n    using MerkleLib for bytes32;\n\n    // tree (vesting schedule) counter\n    uint public numTrees = 0;\n\n    // this represents a user chosen vesting schedule, post initiation\n    struct Tranche {\n        uint totalCoins; // total coins released after vesting complete\n        uint currentCoins; // unclaimed coins remaining in the contract, waiting to be vested\n        uint startTime; // start time of the vesting schedule\n        uint endTime;   // end time of the vesting schedule\n        uint coinsPerSecond;  // how many coins are emitted per second, this value is cached to avoid recomputing it\n        uint lastWithdrawalTime; // keep track of last time user claimed coins to compute coins owed for this withdrawal\n    }\n\n    // this represents an arbitrarily large set of token recipients with partially-initialized vesting schedules\n    struct MerkleTree {\n        bytes32 merkleRoot; // merkle root of tree whose leaves are ranges of vesting schedules for each recipient\n        bytes32 ipfsHash; // ipfs hash of the entire data set represented by the merkle root, in case our servers go down\n        uint minEndTime; // minimum length (offset, not absolute) of vesting schedule in seconds\n        uint maxEndTime; // maximum length (offset, not absolute) of vesting schedule in seconds\n        uint pctUpFront; // percent of vested coins that will be available and withdrawn upon initialization\n        address tokenAddress; // address of token to be distributed\n        uint tokenBalance; // amount of tokens allocated to this tree (this prevents trees from sharing tokens)\n    }\n\n    // initialized[recipient][treeIndex] = hasUserChosenVestingSchedule\n    // could have reused tranches (see below) for this but loading a bool is cheaper than loading an entire struct\n    // NOTE: if a user appears in the same tree multiple times, the first leaf initialized will prevent the others from initializing\n    mapping (address => mapping (uint => bool)) public initialized;\n\n    // basically an array of vesting schedules, but without annoying solidity array syntax\n    mapping (uint => MerkleTree) public merkleTrees;\n\n    // tranches[recipient][treeIndex] = chosenVestingSchedule\n    mapping (address => mapping (uint => Tranche)) public tranches;\n\n    // precision factory used to handle floating point arithmetic\n    uint constant public PRECISION = 1000000;\n\n    // every time a withdrawal occurs\n    event WithdrawalOccurred(uint indexed treeIndex, address indexed destination, uint numTokens, uint tokensLeft);\n\n    // every time a tree is added\n    event MerkleTreeAdded(uint indexed treeIndex, address indexed tokenAddress, bytes32 newRoot, bytes32 ipfsHash);\n\n    // every time a tree is topped up\n    event TokensDeposited(uint indexed treeIndex, address indexed tokenAddress, uint amount);\n\n    /// @notice Add a new merkle tree to the contract, creating a new merkle-vesting-schedule-range\n    /// @dev Anyone may call this function, therefore we must make sure trees cannot affect each other\n    /// @dev Root hash should be built from (destination, minTotalPayments, maxTotalPayments)\n    /// @param newRoot root hash of merkle tree representing vesting schedule ranges\n    /// @param ipfsHash the ipfs hash of the entire dataset, used for redundance so that creator can ensure merkleproof are always computable\n    /// @param minEndTime a continuous range of possible end times are specified, this is the minimum\n    /// @param maxEndTime a continuous range of possible end times are specified, this is the maximum\n    /// @param pctUpFront the percent of tokens user will get at initialization time (note this implies no lock time)\n    /// @param tokenAddress the address of the token contract that is being distributed\n    /// @param tokenBalance the amount of tokens user wishes to use to fund the airdrop, note trees can be under/overfunded\n    function addMerkleTree(bytes32 newRoot, bytes32 ipfsHash, uint minEndTime, uint maxEndTime, uint pctUpFront, address tokenAddress, uint tokenBalance) public {\n        // check basic coherence of request\n        require(pctUpFront < 100, 'pctUpFront >= 100');\n        require(minEndTime < maxEndTime, 'minEndTime must be less than maxEndTime');\n\n        // prefix operator ++ increments then evaluates\n        merkleTrees[++numTrees] = MerkleTree(\n            newRoot,\n            ipfsHash,\n            minEndTime,\n            maxEndTime,\n            pctUpFront,\n            tokenAddress,\n            0    // tokenBalance is 0 at first because no tokens have been deposited\n        );\n\n        // pull tokens from user to fund the tree\n        // if tree is insufficiently funded, then some users may not be able to be paid out, this is the responsibility\n        // of the tree creator, if trees are not funded, then the UI will not display the tree\n        depositTokens(numTrees, tokenBalance);\n        emit MerkleTreeAdded(numTrees, tokenAddress, newRoot, ipfsHash);\n    }\n\n    /// @notice Add funds to an existing merkle-tree\n    /// @dev Anyone may call this function, the only risk here is that the token contract is malicious, rendering the tree malicious\n    /// @param treeIndex index into array-like map of merkleTrees\n    /// @param value the amount of tokens user wishes to use to fund the airdrop, note trees can be under/overfunded\n    function depositTokens(uint treeIndex, uint value) public {\n        // storage because we edit\n        MerkleTree storage merkleTree = merkleTrees[treeIndex];\n\n        // bookkeeping to make sure trees do not share tokens\n        merkleTree.tokenBalance += value;\n\n        // do the transfer from the caller\n        // NOTE: it is possible for user to overfund the tree and there is no mechanism to reclaim excess tokens\n        // this is because there is no way for the contract to know when a tree has had all leaves claimed.\n        // There is also no way for the contract to know the minimum or maximum liabilities represented by the leaves\n        // in short, there is no on-chain inspection of any of the leaf data except at initialization time\n        // NOTE: a malicious token contract could cause merkleTree.tokenBalance to be out of sync with the token contract\n        // this is an unavoidable possibility, and it could render the tree unusable, while leaving other trees unharmed\n        require(IERC20(merkleTree.tokenAddress).transferFrom(msg.sender, address(this), value), \"ERC20 transfer failed\");\n        emit TokensDeposited(treeIndex, merkleTree.tokenAddress, value);\n    }\n\n    /// @notice Called once per recipient of a vesting schedule to initialize the vesting schedule and fix the parameters\n    /// @dev Only the recipient can initialize their own schedule here, because a meaningful choice is made\n    /// @dev If the tree is over-funded, excess funds are lost. No clear way to get around this without zk-proofs of global tree stats\n    /// @param treeIndex index into array-like map of merkleTrees\n    /// @param destination address that will receive tokens\n    /// @param vestingTime the actual length of the vesting schedule, chosen by the user\n    /// @param minTotalPayments the minimum amount of tokens they will receive, if they choose minEndTime as vestingTime\n    /// @param maxTotalPayments the maximum amount of tokens they will receive, if they choose maxEndTime as vestingTime\n    /// @param proof array of hashes linking leaf hash of (destination, minTotalPayments, maxTotalPayments) to root\n    function initialize(uint treeIndex, address destination, uint vestingTime, uint minTotalPayments, uint maxTotalPayments, bytes32[] memory proof) external {\n        // user selects own vesting schedule, not others\n        require(msg.sender == destination, 'Can only initialize your own tranche');\n        // can only initialize once\n        require(!initialized[destination][treeIndex], \"Already initialized\");\n        // compute merkle leaf, this is first element of proof\n        bytes32 leaf = keccak256(abi.encode(destination, minTotalPayments, maxTotalPayments));\n        // memory because we do not edit\n        MerkleTree memory tree = merkleTrees[treeIndex];\n        // this calls into MerkleLib, super cheap ~1000 gas per proof element\n        require(tree.merkleRoot.verifyProof(leaf, proof), \"The proof could not be verified.\");\n        // mark tree as initialized, preventing re-entrance or multiple initializations\n        initialized[destination][treeIndex] = true;\n\n        (bool valid, uint totalCoins, uint coinsPerSecond, uint startTime) = verifyVestingSchedule(treeIndex, vestingTime, minTotalPayments, maxTotalPayments);\n        require(valid, 'Invalid vesting schedule');\n\n        // fill out the struct for the address' vesting schedule\n        // don't have to mark as storage here, it's implied (why isn't it always implied when written to? solc-devs?)\n        tranches[destination][treeIndex] = Tranche(\n            totalCoins,    // this is just a cached number for UI, not used\n            totalCoins,    // starts out full\n            startTime,     // start time will usually be in the past, if pctUpFront > 0\n            block.timestamp + vestingTime,  // vesting starts from initialization time\n            coinsPerSecond,  // cached value to avoid recomputation\n            startTime      // this is lastWithdrawalTime, set to startTime to indicate no withdrawals have occurred yet\n        );\n        withdraw(treeIndex, destination);\n    }\n\n    /// @notice Move unlocked funds to the destination\n    /// @dev Anyone may call this function for anyone else, funds go to destination regardless, it's just a question of\n    /// @dev who provides the proof and pays the gas, msg.sender is not used in this function\n    /// @param treeIndex index into array-like map of merkleTrees, which tree should we apply the proof to?\n    /// @param destination recipient of tokens\n    function withdraw(uint treeIndex, address destination) public {\n        // initialize first, no operations on empty structs, I don't care if the values are \"probably zero\"\n        require(initialized[destination][treeIndex], \"You must initialize your account first.\");\n        // storage, since we are editing\n        Tranche storage tranche = tranches[destination][treeIndex];\n        // if it's empty, don't bother\n        require(tranche.currentCoins >  0, 'No coins left to withdraw');\n        uint currentWithdrawal = 0;\n\n        // if after vesting period ends, give them the remaining coins, also avoids dust from rounding errors\n        if (block.timestamp >= tranche.endTime) {\n            currentWithdrawal = tranche.currentCoins;\n        } else {\n            // compute allowed withdrawal\n            // secondsElapsedSinceLastWithdrawal * coinsPerSecond == coinsAccumulatedSinceLastWithdrawal\n            currentWithdrawal = (block.timestamp - tranche.lastWithdrawalTime) * tranche.coinsPerSecond;\n        }\n        // muto? servo\n        MerkleTree storage tree = merkleTrees[treeIndex];\n\n        // update struct, modern solidity will catch underflow and prevent currentWithdrawal from exceeding currentCoins\n        // but it's computed internally anyway, not user generated\n        tranche.currentCoins -= currentWithdrawal;\n        // move the time counter up so users can't double-withdraw allocated coins\n        // this also works as a re-entrance gate, so currentWithdrawal would be 0 upon re-entrance\n        tranche.lastWithdrawalTime = block.timestamp;\n        // handle the bookkeeping so trees don't share tokens, do it before transferring to create one more re-entrance gate\n        tree.tokenBalance -= currentWithdrawal;\n\n        // transfer the tokens, brah\n        // NOTE: if this is a malicious token, what could happen?\n        // 1/ token doesn't transfer given amount to recipient, this is bad for user, but does not effect other trees\n        // 2/ token fails for some reason, again bad for user, but this does not effect other trees\n        // 3/ token re-enters this function (or other, but this is the only one that transfers tokens out)\n        // in which case, lastWithdrawalTime == block.timestamp, so currentWithdrawal == 0\n        require(IERC20(tree.tokenAddress).transfer(destination, currentWithdrawal), 'Token transfer failed');\n        emit WithdrawalOccurred(treeIndex, destination, currentWithdrawal, tranche.currentCoins);\n    }\n\n    /// @notice Determine if the proposed vesting schedule is legit\n    /// @dev Anyone may call this to check, but it also returns values used in the initialization of vesting schedules\n    /// @param treeIndex index into array-like map of merkleTrees, which tree are we talking about?\n    /// @param vestingTime user chosen length of vesting schedule\n    /// @param minTotalPayments pre-committed (in the root hash) minimum of possible totalCoins\n    /// @param maxTotalPayments pre-committed (in the root hash) maximum of possible totalCoins\n    /// @return valid is the proposed vesting-schedule valid\n    /// @return totalCoins amount of coins allocated in the vesting schedule\n    /// @return coinsPerSecond amount of coins released every second, in the proposed vesting schedule\n    /// @return startTime start time of vesting schedule implied by supplied parameters, will always be <= block.timestamp\n    function verifyVestingSchedule(uint treeIndex, uint vestingTime, uint minTotalPayments, uint maxTotalPayments) public view returns (bool, uint, uint, uint) {\n        // vesting schedules for non-existing trees are invalid, I don't care how much you like uninitialized structs\n        if (treeIndex > numTrees) {\n            return (false, 0, 0, 0);\n        }\n\n        // memory not storage, since we do not edit the tree, and it's a view function anyways\n        MerkleTree memory tree = merkleTrees[treeIndex];\n\n        // vesting time must sit within the closed interval of [minEndTime, maxEndTime]\n        if (vestingTime > tree.maxEndTime || vestingTime < tree.minEndTime) {\n            return (false, 0, 0, 0);\n        }\n\n        uint totalCoins;\n        if (vestingTime == tree.maxEndTime) {\n            // this is to prevent dust accumulation from rounding errors\n            // maxEndTime results in max payments, no further computation necessary\n            totalCoins = maxTotalPayments;\n        } else {\n            // remember grade school algebra? slope = Δy / Δx\n            // this is the slope of eligible vesting schedules. In general, 0 < m < 1,\n            // (longer vesting schedules should result in less coins per second, hence \"resistor\")\n            // so we multiply by a precision factor to reduce rounding errors\n            // y axis = total coins released after vesting completed\n            // x axis = length of vesting schedule\n            // this is the line of valid end-points for the chosen vesting schedule line, see below\n            // NOTE: this reverts if minTotalPayments > maxTotalPayments, which is a good thing\n            uint paymentSlope = (maxTotalPayments - minTotalPayments) * PRECISION / (tree.maxEndTime - tree.minEndTime);\n\n            // y = mx + b = paymentSlope * (x - x0) + y0\n            // divide by precision factor here since we have completed the rounding error sensitive operations\n            totalCoins = (paymentSlope * (vestingTime - tree.minEndTime) / PRECISION) + minTotalPayments;\n        }\n\n        // this is a different slope, the slope of their chosen vesting schedule\n        // y axis = cumulative coins emitted\n        // x axis = time elapsed\n        // NOTE: vestingTime starts from block.timestamp, so doesn't include coins already available from pctUpFront\n        // totalCoins / vestingTime is wrong, we have to multiple by the proportion of the coins that are indexed\n        // by vestingTime, which is (100 - pctUpFront) / 100\n        uint coinsPerSecond = (totalCoins * (uint(100) - tree.pctUpFront)) / (vestingTime * 100);\n\n        // vestingTime is relative to initialization point\n        // endTime = block.timestamp + vestingTime\n        // vestingLength = totalCoins / coinsPerSecond\n        uint startTime = block.timestamp + vestingTime - (totalCoins / coinsPerSecond);\n\n        return (true, totalCoins, coinsPerSecond, startTime);\n    }\n\n}\n",
  "sourcePath": "contracts/MerkleResistor.sol",
  "type": "contract"
}