{
  "abi": [
    {
      "anonymous": false,
      "inputs": [
        {
          "indexed": true,
          "internalType": "uint256",
          "name": "index",
          "type": "uint256"
        },
        {
          "indexed": true,
          "internalType": "address",
          "name": "tokenAddress",
          "type": "address"
        },
        {
          "indexed": false,
          "internalType": "bytes32",
          "name": "newRoot",
          "type": "bytes32"
        }
      ],
      "name": "MerkleRootAdded",
      "type": "event"
    },
    {
      "anonymous": false,
      "inputs": [
        {
          "indexed": true,
          "internalType": "address",
          "name": "destination",
          "type": "address"
        },
        {
          "indexed": false,
          "internalType": "uint256",
          "name": "numTokens",
          "type": "uint256"
        },
        {
          "indexed": false,
          "internalType": "uint256",
          "name": "tokensLeft",
          "type": "uint256"
        },
        {
          "indexed": true,
          "internalType": "uint256",
          "name": "merkleIndex",
          "type": "uint256"
        }
      ],
      "name": "WithdrawalOccurred",
      "type": "event"
    },
    {
      "inputs": [
        {
          "internalType": "bytes32",
          "name": "rootHash",
          "type": "bytes32"
        },
        {
          "internalType": "bytes32",
          "name": "ipfsHash",
          "type": "bytes32"
        },
        {
          "internalType": "address",
          "name": "tokenAddress",
          "type": "address"
        },
        {
          "internalType": "uint256",
          "name": "tokenBalance",
          "type": "uint256"
        }
      ],
      "name": "addMerkleRoot",
      "outputs": [],
      "stateMutability": "nonpayable",
      "type": "function"
    },
    {
      "inputs": [
        {
          "internalType": "uint256",
          "name": "numTree",
          "type": "uint256"
        },
        {
          "internalType": "uint256",
          "name": "value",
          "type": "uint256"
        }
      ],
      "name": "depositTokens",
      "outputs": [],
      "stateMutability": "nonpayable",
      "type": "function"
    },
    {
      "inputs": [
        {
          "internalType": "uint256",
          "name": "merkleIndex",
          "type": "uint256"
        },
        {
          "internalType": "address",
          "name": "destination",
          "type": "address"
        },
        {
          "internalType": "uint256",
          "name": "totalCoins",
          "type": "uint256"
        },
        {
          "internalType": "uint256",
          "name": "startTime",
          "type": "uint256"
        },
        {
          "internalType": "uint256",
          "name": "endTime",
          "type": "uint256"
        },
        {
          "internalType": "uint256",
          "name": "lockPeriodEndTime",
          "type": "uint256"
        },
        {
          "internalType": "bytes32[]",
          "name": "proof",
          "type": "bytes32[]"
        }
      ],
      "name": "initialize",
      "outputs": [],
      "stateMutability": "nonpayable",
      "type": "function"
    },
    {
      "inputs": [
        {
          "internalType": "address",
          "name": "",
          "type": "address"
        },
        {
          "internalType": "uint256",
          "name": "",
          "type": "uint256"
        }
      ],
      "name": "initialized",
      "outputs": [
        {
          "internalType": "bool",
          "name": "",
          "type": "bool"
        }
      ],
      "stateMutability": "view",
      "type": "function"
    },
    {
      "inputs": [
        {
          "internalType": "uint256",
          "name": "",
          "type": "uint256"
        }
      ],
      "name": "merkleTrees",
      "outputs": [
        {
          "internalType": "bytes32",
          "name": "rootHash",
          "type": "bytes32"
        },
        {
          "internalType": "bytes32",
          "name": "ipfsHash",
          "type": "bytes32"
        },
        {
          "internalType": "address",
          "name": "tokenAddress",
          "type": "address"
        },
        {
          "internalType": "uint256",
          "name": "tokenBalance",
          "type": "uint256"
        }
      ],
      "stateMutability": "view",
      "type": "function"
    },
    {
      "inputs": [],
      "name": "numTrees",
      "outputs": [
        {
          "internalType": "uint256",
          "name": "",
          "type": "uint256"
        }
      ],
      "stateMutability": "view",
      "type": "function"
    },
    {
      "inputs": [
        {
          "internalType": "address",
          "name": "",
          "type": "address"
        },
        {
          "internalType": "uint256",
          "name": "",
          "type": "uint256"
        }
      ],
      "name": "tranches",
      "outputs": [
        {
          "internalType": "uint256",
          "name": "totalCoins",
          "type": "uint256"
        },
        {
          "internalType": "uint256",
          "name": "currentCoins",
          "type": "uint256"
        },
        {
          "internalType": "uint256",
          "name": "startTime",
          "type": "uint256"
        },
        {
          "internalType": "uint256",
          "name": "endTime",
          "type": "uint256"
        },
        {
          "internalType": "uint256",
          "name": "coinsPerSecond",
          "type": "uint256"
        },
        {
          "internalType": "uint256",
          "name": "lastWithdrawalTime",
          "type": "uint256"
        },
        {
          "internalType": "uint256",
          "name": "lockPeriodEndTime",
          "type": "uint256"
        }
      ],
      "stateMutability": "view",
      "type": "function"
    },
    {
      "inputs": [
        {
          "internalType": "uint256",
          "name": "merkleIndex",
          "type": "uint256"
        },
        {
          "internalType": "address",
          "name": "destination",
          "type": "address"
        }
      ],
      "name": "withdraw",
      "outputs": [],
      "stateMutability": "nonpayable",
      "type": "function"
    }
  ],
  "bytecode": "60806040526000805534801561001457600080fd5b50610d09806100246000396000f3fe608060405234801561001057600080fd5b50600436106100875760003560e01c80639e18a0541161005b5780639e18a0541461016a578063a8efa9ba1461017d578063c26cb54f14610190578063f16ad51e1461021957600080fd5b8062f714ce1461008c578063390b7c66146100a157806385d88cb1146100bd57806386bb82491461012c575b600080fd5b61009f61009a3660046109cf565b61022c565b005b6100aa60005481565b6040519081526020015b60405180910390f35b6100fd6100cb3660046109fb565b600260208190526000918252604090912080546001820154928201546003909201549092916001600160a01b03169084565b6040516100b4949392919093845260208401929092526001600160a01b03166040830152606082015260800190565b61015a61013a366004610a14565b600160209081526000928352604080842090915290825290205460ff1681565b60405190151581526020016100b4565b61009f610178366004610a3e565b6104e9565b61009f61018b366004610a91565b6105d5565b6101e461019e366004610a14565b6003602081815260009384526040808520909152918352912080546001820154600283015493830154600484015460058501546006909501549395929492939192909187565b604080519788526020880196909652948601939093526060850191909152608084015260a083015260c082015260e0016100b4565b61009f610227366004610b92565b6108b5565b6001600160a01b038116600090815260016020908152604080832085845290915290205460ff166102b45760405162461bcd60e51b815260206004820152602760248201527f596f75206d75737420696e697469616c697a6520796f7572206163636f756e74604482015266103334b939ba1760c91b60648201526084015b60405180910390fd5b6001600160a01b03811660009081526003602090815260408083208584529091529020600681015442116103345760405162461bcd60e51b815260206004820152602160248201527f4d757374207761697420756e74696c206166746572206c6f636b20706572696f6044820152601960fa1b60648201526084016102ab565b60008160010154116103885760405162461bcd60e51b815260206004820152601960248201527f4e6f20636f696e73206c65667420746f2077697468647261770000000000000060448201526064016102ab565b6000816003015442106103a0575060018101546103c1565b600482015460058301546103b49042610bca565b6103be9190610be1565b90505b808260010160008282546103d59190610bca565b9091555050426005830155600084815260026020526040812060038101805491928492610403908490610bca565b9091555050600281015460405163a9059cbb60e01b81526001600160a01b038681166004830152602482018590529091169063a9059cbb90604401602060405180830381600087803b15801561045857600080fd5b505af115801561046c573d6000803e3d6000fd5b505050506040513d601f19601f820116820180604052508101906104909190610c00565b5084846001600160a01b03167f5ffb4b63dec15ba26308386f1d5ca61843b29ba365511062a887d95aa27532d38486600101546040516104da929190918252602082015260400190565b60405180910390a35050505050565b6040518060800160405280858152602001848152602001836001600160a01b03168152602001600081525060026000806000815461052690610c29565b918290555081526020808201929092526040908101600090812084518155928401516001840155908301516002830180546001600160a01b0319166001600160a01b039092169190911790556060909201516003909101555461058990826108b5565b816001600160a01b03166000547fe273192d66feeccd5e76000356363957eb17e3f1bff1f91105559db4aa9281b6866040516105c791815260200190565b60405180910390a350505050565b6001600160a01b03861660009081526001602090815260408083208a845290915290205460ff161561063f5760405162461bcd60e51b8152602060048201526013602482015272105b1c9958591e481a5b9a5d1a585b1a5e9959606a1b60448201526064016102ab565b604080516001600160a01b0388166020820152908101869052606081018590526080810184905260a0810183905260009060c00160408051601f19818403018152828252805160209182012060008c81526002808452908490206080860185528054808752600182015494870194909452908101546001600160a01b0316858501526003015460608501529151632769cd1f60e21b815291935073__MerkleLib_____________________________91639da7347c916107059186908890600401610c44565b60206040518083038186803b15801561071d57600080fd5b505af4158015610731573d6000803e3d6000fd5b505050506040513d601f19601f820116820180604052508101906107559190610c00565b6107a15760405162461bcd60e51b815260206004820181905260248201527f5468652070726f6f6620636f756c64206e6f742062652076657269666965642e60448201526064016102ab565b6001600160a01b03881660009081526001602081815260408084208d85529091528220805460ff191690911790556107d98787610bca565b6107e39089610c99565b90506040518060e0016040528089815260200189815260200188815260200187815260200182815260200188815260200186815250600360008b6001600160a01b03166001600160a01b0316815260200190815260200160002060008c8152602001908152602001600020600082015181600001556020820151816001015560408201518160020155606082015181600301556080820151816004015560a0820151816005015560c08201518160060155905050428510156108a9576108a98a8a61022c565b50505050505050505050565b6000828152600260208190526040918290209081015491516323b872dd60e01b81523360048201523060248201526044810184905290916001600160a01b0316906323b872dd90606401602060405180830381600087803b15801561091957600080fd5b505af115801561092d573d6000803e3d6000fd5b505050506040513d601f19601f820116820180604052508101906109519190610c00565b6109955760405162461bcd60e51b8152602060048201526015602482015274115490cc8c081d1c985b9cd9995c8819985a5b1959605a1b60448201526064016102ab565b818160030160008282546109a99190610cbb565b9091555050505050565b80356001600160a01b03811681146109ca57600080fd5b919050565b600080604083850312156109e257600080fd5b823591506109f2602084016109b3565b90509250929050565b600060208284031215610a0d57600080fd5b5035919050565b60008060408385031215610a2757600080fd5b610a30836109b3565b946020939093013593505050565b60008060008060808587031215610a5457600080fd5b8435935060208501359250610a6b604086016109b3565b9396929550929360600135925050565b634e487b7160e01b600052604160045260246000fd5b600080600080600080600060e0888a031215610aac57600080fd5b873596506020610abd818a016109b3565b965060408901359550606089013594506080890135935060a0890135925060c089013567ffffffffffffffff80821115610af657600080fd5b818b0191508b601f830112610b0a57600080fd5b813581811115610b1c57610b1c610a7b565b8060051b604051601f19603f83011681018181108582111715610b4157610b41610a7b565b60405291825284820192508381018501918e831115610b5f57600080fd5b938501935b82851015610b7d57843584529385019392850192610b64565b80965050505050505092959891949750929550565b60008060408385031215610ba557600080fd5b50508035926020909101359150565b634e487b7160e01b600052601160045260246000fd5b600082821015610bdc57610bdc610bb4565b500390565b6000816000190483118215151615610bfb57610bfb610bb4565b500290565b600060208284031215610c1257600080fd5b81518015158114610c2257600080fd5b9392505050565b6000600019821415610c3d57610c3d610bb4565b5060010190565b6000606082018583526020858185015260606040850152818551808452608086019150828701935060005b81811015610c8b57845183529383019391830191600101610c6f565b509098975050505050505050565b600082610cb657634e487b7160e01b600052601260045260246000fd5b500490565b60008219821115610cce57610cce610bb4565b50019056fea26469706673582212208466ef61b854bcdf35bdfb8568c48d081a0ed3194750c4405581e8994ae4c8ab64736f6c63430008090033",
  "bytecodeSha1": "519d1df91a9bea41b099aa324da53031e37edaf8",
  "compiler": {
    "evm_version": "istanbul",
    "optimizer": {
      "enabled": true,
      "runs": 200
    },
    "version": "0.8.9+commit.e5eed63a"
  },
  "contractName": "MerkleVesting",
  "deployedBytecode": "608060405234801561001057600080fd5b50600436106100875760003560e01c80639e18a0541161005b5780639e18a0541461016a578063a8efa9ba1461017d578063c26cb54f14610190578063f16ad51e1461021957600080fd5b8062f714ce1461008c578063390b7c66146100a157806385d88cb1146100bd57806386bb82491461012c575b600080fd5b61009f61009a3660046109cf565b61022c565b005b6100aa60005481565b6040519081526020015b60405180910390f35b6100fd6100cb3660046109fb565b600260208190526000918252604090912080546001820154928201546003909201549092916001600160a01b03169084565b6040516100b4949392919093845260208401929092526001600160a01b03166040830152606082015260800190565b61015a61013a366004610a14565b600160209081526000928352604080842090915290825290205460ff1681565b60405190151581526020016100b4565b61009f610178366004610a3e565b6104e9565b61009f61018b366004610a91565b6105d5565b6101e461019e366004610a14565b6003602081815260009384526040808520909152918352912080546001820154600283015493830154600484015460058501546006909501549395929492939192909187565b604080519788526020880196909652948601939093526060850191909152608084015260a083015260c082015260e0016100b4565b61009f610227366004610b92565b6108b5565b6001600160a01b038116600090815260016020908152604080832085845290915290205460ff166102b45760405162461bcd60e51b815260206004820152602760248201527f596f75206d75737420696e697469616c697a6520796f7572206163636f756e74604482015266103334b939ba1760c91b60648201526084015b60405180910390fd5b6001600160a01b03811660009081526003602090815260408083208584529091529020600681015442116103345760405162461bcd60e51b815260206004820152602160248201527f4d757374207761697420756e74696c206166746572206c6f636b20706572696f6044820152601960fa1b60648201526084016102ab565b60008160010154116103885760405162461bcd60e51b815260206004820152601960248201527f4e6f20636f696e73206c65667420746f2077697468647261770000000000000060448201526064016102ab565b6000816003015442106103a0575060018101546103c1565b600482015460058301546103b49042610bca565b6103be9190610be1565b90505b808260010160008282546103d59190610bca565b9091555050426005830155600084815260026020526040812060038101805491928492610403908490610bca565b9091555050600281015460405163a9059cbb60e01b81526001600160a01b038681166004830152602482018590529091169063a9059cbb90604401602060405180830381600087803b15801561045857600080fd5b505af115801561046c573d6000803e3d6000fd5b505050506040513d601f19601f820116820180604052508101906104909190610c00565b5084846001600160a01b03167f5ffb4b63dec15ba26308386f1d5ca61843b29ba365511062a887d95aa27532d38486600101546040516104da929190918252602082015260400190565b60405180910390a35050505050565b6040518060800160405280858152602001848152602001836001600160a01b03168152602001600081525060026000806000815461052690610c29565b918290555081526020808201929092526040908101600090812084518155928401516001840155908301516002830180546001600160a01b0319166001600160a01b039092169190911790556060909201516003909101555461058990826108b5565b816001600160a01b03166000547fe273192d66feeccd5e76000356363957eb17e3f1bff1f91105559db4aa9281b6866040516105c791815260200190565b60405180910390a350505050565b6001600160a01b03861660009081526001602090815260408083208a845290915290205460ff161561063f5760405162461bcd60e51b8152602060048201526013602482015272105b1c9958591e481a5b9a5d1a585b1a5e9959606a1b60448201526064016102ab565b604080516001600160a01b0388166020820152908101869052606081018590526080810184905260a0810183905260009060c00160408051601f19818403018152828252805160209182012060008c81526002808452908490206080860185528054808752600182015494870194909452908101546001600160a01b0316858501526003015460608501529151632769cd1f60e21b815291935073__$61dd25696c02d5bd2863c8d2c1a2324a87$__91639da7347c916107059186908890600401610c44565b60206040518083038186803b15801561071d57600080fd5b505af4158015610731573d6000803e3d6000fd5b505050506040513d601f19601f820116820180604052508101906107559190610c00565b6107a15760405162461bcd60e51b815260206004820181905260248201527f5468652070726f6f6620636f756c64206e6f742062652076657269666965642e60448201526064016102ab565b6001600160a01b03881660009081526001602081815260408084208d85529091528220805460ff191690911790556107d98787610bca565b6107e39089610c99565b90506040518060e0016040528089815260200189815260200188815260200187815260200182815260200188815260200186815250600360008b6001600160a01b03166001600160a01b0316815260200190815260200160002060008c8152602001908152602001600020600082015181600001556020820151816001015560408201518160020155606082015181600301556080820151816004015560a0820151816005015560c08201518160060155905050428510156108a9576108a98a8a61022c565b50505050505050505050565b6000828152600260208190526040918290209081015491516323b872dd60e01b81523360048201523060248201526044810184905290916001600160a01b0316906323b872dd90606401602060405180830381600087803b15801561091957600080fd5b505af115801561092d573d6000803e3d6000fd5b505050506040513d601f19601f820116820180604052508101906109519190610c00565b6109955760405162461bcd60e51b8152602060048201526015602482015274115490cc8c081d1c985b9cd9995c8819985a5b1959605a1b60448201526064016102ab565b818160030160008282546109a99190610cbb565b9091555050505050565b80356001600160a01b03811681146109ca57600080fd5b919050565b600080604083850312156109e257600080fd5b823591506109f2602084016109b3565b90509250929050565b600060208284031215610a0d57600080fd5b5035919050565b60008060408385031215610a2757600080fd5b610a30836109b3565b946020939093013593505050565b60008060008060808587031215610a5457600080fd5b8435935060208501359250610a6b604086016109b3565b9396929550929360600135925050565b634e487b7160e01b600052604160045260246000fd5b600080600080600080600060e0888a031215610aac57600080fd5b873596506020610abd818a016109b3565b965060408901359550606089013594506080890135935060a0890135925060c089013567ffffffffffffffff80821115610af657600080fd5b818b0191508b601f830112610b0a57600080fd5b813581811115610b1c57610b1c610a7b565b8060051b604051601f19603f83011681018181108582111715610b4157610b41610a7b565b60405291825284820192508381018501918e831115610b5f57600080fd5b938501935b82851015610b7d57843584529385019392850192610b64565b80965050505050505092959891949750929550565b60008060408385031215610ba557600080fd5b50508035926020909101359150565b634e487b7160e01b600052601160045260246000fd5b600082821015610bdc57610bdc610bb4565b500390565b6000816000190483118215151615610bfb57610bfb610bb4565b500290565b600060208284031215610c1257600080fd5b81518015158114610c2257600080fd5b9392505050565b6000600019821415610c3d57610c3d610bb4565b5060010190565b6000606082018583526020858185015260606040850152818551808452608086019150828701935060005b81811015610c8b57845183529383019391830191600101610c6f565b509098975050505050505050565b600082610cb657634e487b7160e01b600052601260045260246000fd5b500490565b60008219821115610cce57610cce610bb4565b50019056fea26469706673582212208466ef61b854bcdf35bdfb8568c48d081a0ed3194750c4405581e8994ae4c8ab64736f6c63430008090033",
  "language": "Solidity",
  "natspec": {
    "kind": "dev",
    "methods": {},
    "version": 1
  },
  "opcodes": "PUSH1 0x80 PUSH1 0x40 MSTORE CALLVALUE DUP1 ISZERO PUSH2 0x10 JUMPI PUSH1 0x0 DUP1 REVERT JUMPDEST POP PUSH1 0x4 CALLDATASIZE LT PUSH2 0x87 JUMPI PUSH1 0x0 CALLDATALOAD PUSH1 0xE0 SHR DUP1 PUSH4 0x9E18A054 GT PUSH2 0x5B JUMPI DUP1 PUSH4 0x9E18A054 EQ PUSH2 0x16A JUMPI DUP1 PUSH4 0xA8EFA9BA EQ PUSH2 0x17D JUMPI DUP1 PUSH4 0xC26CB54F EQ PUSH2 0x190 JUMPI DUP1 PUSH4 0xF16AD51E EQ PUSH2 0x219 JUMPI PUSH1 0x0 DUP1 REVERT JUMPDEST DUP1 PUSH3 0xF714CE EQ PUSH2 0x8C JUMPI DUP1 PUSH4 0x390B7C66 EQ PUSH2 0xA1 JUMPI DUP1 PUSH4 0x85D88CB1 EQ PUSH2 0xBD JUMPI DUP1 PUSH4 0x86BB8249 EQ PUSH2 0x12C JUMPI JUMPDEST PUSH1 0x0 DUP1 REVERT JUMPDEST PUSH2 0x9F PUSH2 0x9A CALLDATASIZE PUSH1 0x4 PUSH2 0x9CF JUMP JUMPDEST PUSH2 0x22C JUMP JUMPDEST STOP JUMPDEST PUSH2 0xAA PUSH1 0x0 SLOAD DUP2 JUMP JUMPDEST PUSH1 0x40 MLOAD SWAP1 DUP2 MSTORE PUSH1 0x20 ADD JUMPDEST PUSH1 0x40 MLOAD DUP1 SWAP2 SUB SWAP1 RETURN JUMPDEST PUSH2 0xFD PUSH2 0xCB CALLDATASIZE PUSH1 0x4 PUSH2 0x9FB JUMP JUMPDEST PUSH1 0x2 PUSH1 0x20 DUP2 SWAP1 MSTORE PUSH1 0x0 SWAP2 DUP3 MSTORE PUSH1 0x40 SWAP1 SWAP2 KECCAK256 DUP1 SLOAD PUSH1 0x1 DUP3 ADD SLOAD SWAP3 DUP3 ADD SLOAD PUSH1 0x3 SWAP1 SWAP3 ADD SLOAD SWAP1 SWAP3 SWAP2 PUSH1 0x1 PUSH1 0x1 PUSH1 0xA0 SHL SUB AND SWAP1 DUP5 JUMP JUMPDEST PUSH1 0x40 MLOAD PUSH2 0xB4 SWAP5 SWAP4 SWAP3 SWAP2 SWAP1 SWAP4 DUP5 MSTORE PUSH1 0x20 DUP5 ADD SWAP3 SWAP1 SWAP3 MSTORE PUSH1 0x1 PUSH1 0x1 PUSH1 0xA0 SHL SUB AND PUSH1 0x40 DUP4 ADD MSTORE PUSH1 0x60 DUP3 ADD MSTORE PUSH1 0x80 ADD SWAP1 JUMP JUMPDEST PUSH2 0x15A PUSH2 0x13A CALLDATASIZE PUSH1 0x4 PUSH2 0xA14 JUMP JUMPDEST PUSH1 0x1 PUSH1 0x20 SWAP1 DUP2 MSTORE PUSH1 0x0 SWAP3 DUP4 MSTORE PUSH1 0x40 DUP1 DUP5 KECCAK256 SWAP1 SWAP2 MSTORE SWAP1 DUP3 MSTORE SWAP1 KECCAK256 SLOAD PUSH1 0xFF AND DUP2 JUMP JUMPDEST PUSH1 0x40 MLOAD SWAP1 ISZERO ISZERO DUP2 MSTORE PUSH1 0x20 ADD PUSH2 0xB4 JUMP JUMPDEST PUSH2 0x9F PUSH2 0x178 CALLDATASIZE PUSH1 0x4 PUSH2 0xA3E JUMP JUMPDEST PUSH2 0x4E9 JUMP JUMPDEST PUSH2 0x9F PUSH2 0x18B CALLDATASIZE PUSH1 0x4 PUSH2 0xA91 JUMP JUMPDEST PUSH2 0x5D5 JUMP JUMPDEST PUSH2 0x1E4 PUSH2 0x19E CALLDATASIZE PUSH1 0x4 PUSH2 0xA14 JUMP JUMPDEST PUSH1 0x3 PUSH1 0x20 DUP2 DUP2 MSTORE PUSH1 0x0 SWAP4 DUP5 MSTORE PUSH1 0x40 DUP1 DUP6 KECCAK256 SWAP1 SWAP2 MSTORE SWAP2 DUP4 MSTORE SWAP2 KECCAK256 DUP1 SLOAD PUSH1 0x1 DUP3 ADD SLOAD PUSH1 0x2 DUP4 ADD SLOAD SWAP4 DUP4 ADD SLOAD PUSH1 0x4 DUP5 ADD SLOAD PUSH1 0x5 DUP6 ADD SLOAD PUSH1 0x6 SWAP1 SWAP6 ADD SLOAD SWAP4 SWAP6 SWAP3 SWAP5 SWAP3 SWAP4 SWAP2 SWAP3 SWAP1 SWAP2 DUP8 JUMP JUMPDEST PUSH1 0x40 DUP1 MLOAD SWAP8 DUP9 MSTORE PUSH1 0x20 DUP9 ADD SWAP7 SWAP1 SWAP7 MSTORE SWAP5 DUP7 ADD SWAP4 SWAP1 SWAP4 MSTORE PUSH1 0x60 DUP6 ADD SWAP2 SWAP1 SWAP2 MSTORE PUSH1 0x80 DUP5 ADD MSTORE PUSH1 0xA0 DUP4 ADD MSTORE PUSH1 0xC0 DUP3 ADD MSTORE PUSH1 0xE0 ADD PUSH2 0xB4 JUMP JUMPDEST PUSH2 0x9F PUSH2 0x227 CALLDATASIZE PUSH1 0x4 PUSH2 0xB92 JUMP JUMPDEST PUSH2 0x8B5 JUMP JUMPDEST PUSH1 0x1 PUSH1 0x1 PUSH1 0xA0 SHL SUB DUP2 AND PUSH1 0x0 SWAP1 DUP2 MSTORE PUSH1 0x1 PUSH1 0x20 SWAP1 DUP2 MSTORE PUSH1 0x40 DUP1 DUP4 KECCAK256 DUP6 DUP5 MSTORE SWAP1 SWAP2 MSTORE SWAP1 KECCAK256 SLOAD PUSH1 0xFF AND PUSH2 0x2B4 JUMPI PUSH1 0x40 MLOAD PUSH3 0x461BCD PUSH1 0xE5 SHL DUP2 MSTORE PUSH1 0x20 PUSH1 0x4 DUP3 ADD MSTORE PUSH1 0x27 PUSH1 0x24 DUP3 ADD MSTORE PUSH32 0x596F75206D75737420696E697469616C697A6520796F7572206163636F756E74 PUSH1 0x44 DUP3 ADD MSTORE PUSH7 0x103334B939BA17 PUSH1 0xC9 SHL PUSH1 0x64 DUP3 ADD MSTORE PUSH1 0x84 ADD JUMPDEST PUSH1 0x40 MLOAD DUP1 SWAP2 SUB SWAP1 REVERT JUMPDEST PUSH1 0x1 PUSH1 0x1 PUSH1 0xA0 SHL SUB DUP2 AND PUSH1 0x0 SWAP1 DUP2 MSTORE PUSH1 0x3 PUSH1 0x20 SWAP1 DUP2 MSTORE PUSH1 0x40 DUP1 DUP4 KECCAK256 DUP6 DUP5 MSTORE SWAP1 SWAP2 MSTORE SWAP1 KECCAK256 PUSH1 0x6 DUP2 ADD SLOAD TIMESTAMP GT PUSH2 0x334 JUMPI PUSH1 0x40 MLOAD PUSH3 0x461BCD PUSH1 0xE5 SHL DUP2 MSTORE PUSH1 0x20 PUSH1 0x4 DUP3 ADD MSTORE PUSH1 0x21 PUSH1 0x24 DUP3 ADD MSTORE PUSH32 0x4D757374207761697420756E74696C206166746572206C6F636B20706572696F PUSH1 0x44 DUP3 ADD MSTORE PUSH1 0x19 PUSH1 0xFA SHL PUSH1 0x64 DUP3 ADD MSTORE PUSH1 0x84 ADD PUSH2 0x2AB JUMP JUMPDEST PUSH1 0x0 DUP2 PUSH1 0x1 ADD SLOAD GT PUSH2 0x388 JUMPI PUSH1 0x40 MLOAD PUSH3 0x461BCD PUSH1 0xE5 SHL DUP2 MSTORE PUSH1 0x20 PUSH1 0x4 DUP3 ADD MSTORE PUSH1 0x19 PUSH1 0x24 DUP3 ADD MSTORE PUSH32 0x4E6F20636F696E73206C65667420746F20776974686472617700000000000000 PUSH1 0x44 DUP3 ADD MSTORE PUSH1 0x64 ADD PUSH2 0x2AB JUMP JUMPDEST PUSH1 0x0 DUP2 PUSH1 0x3 ADD SLOAD TIMESTAMP LT PUSH2 0x3A0 JUMPI POP PUSH1 0x1 DUP2 ADD SLOAD PUSH2 0x3C1 JUMP JUMPDEST PUSH1 0x4 DUP3 ADD SLOAD PUSH1 0x5 DUP4 ADD SLOAD PUSH2 0x3B4 SWAP1 TIMESTAMP PUSH2 0xBCA JUMP JUMPDEST PUSH2 0x3BE SWAP2 SWAP1 PUSH2 0xBE1 JUMP JUMPDEST SWAP1 POP JUMPDEST DUP1 DUP3 PUSH1 0x1 ADD PUSH1 0x0 DUP3 DUP3 SLOAD PUSH2 0x3D5 SWAP2 SWAP1 PUSH2 0xBCA JUMP JUMPDEST SWAP1 SWAP2 SSTORE POP POP TIMESTAMP PUSH1 0x5 DUP4 ADD SSTORE PUSH1 0x0 DUP5 DUP2 MSTORE PUSH1 0x2 PUSH1 0x20 MSTORE PUSH1 0x40 DUP2 KECCAK256 PUSH1 0x3 DUP2 ADD DUP1 SLOAD SWAP2 SWAP3 DUP5 SWAP3 PUSH2 0x403 SWAP1 DUP5 SWAP1 PUSH2 0xBCA JUMP JUMPDEST SWAP1 SWAP2 SSTORE POP POP PUSH1 0x2 DUP2 ADD SLOAD PUSH1 0x40 MLOAD PUSH4 0xA9059CBB PUSH1 0xE0 SHL DUP2 MSTORE PUSH1 0x1 PUSH1 0x1 PUSH1 0xA0 SHL SUB DUP7 DUP2 AND PUSH1 0x4 DUP4 ADD MSTORE PUSH1 0x24 DUP3 ADD DUP6 SWAP1 MSTORE SWAP1 SWAP2 AND SWAP1 PUSH4 0xA9059CBB SWAP1 PUSH1 0x44 ADD PUSH1 0x20 PUSH1 0x40 MLOAD DUP1 DUP4 SUB DUP2 PUSH1 0x0 DUP8 DUP1 EXTCODESIZE ISZERO DUP1 ISZERO PUSH2 0x458 JUMPI PUSH1 0x0 DUP1 REVERT JUMPDEST POP GAS CALL ISZERO DUP1 ISZERO PUSH2 0x46C JUMPI RETURNDATASIZE PUSH1 0x0 DUP1 RETURNDATACOPY RETURNDATASIZE PUSH1 0x0 REVERT JUMPDEST POP POP POP POP PUSH1 0x40 MLOAD RETURNDATASIZE PUSH1 0x1F NOT PUSH1 0x1F DUP3 ADD AND DUP3 ADD DUP1 PUSH1 0x40 MSTORE POP DUP2 ADD SWAP1 PUSH2 0x490 SWAP2 SWAP1 PUSH2 0xC00 JUMP JUMPDEST POP DUP5 DUP5 PUSH1 0x1 PUSH1 0x1 PUSH1 0xA0 SHL SUB AND PUSH32 0x5FFB4B63DEC15BA26308386F1D5CA61843B29BA365511062A887D95AA27532D3 DUP5 DUP7 PUSH1 0x1 ADD SLOAD PUSH1 0x40 MLOAD PUSH2 0x4DA SWAP3 SWAP2 SWAP1 SWAP2 DUP3 MSTORE PUSH1 0x20 DUP3 ADD MSTORE PUSH1 0x40 ADD SWAP1 JUMP JUMPDEST PUSH1 0x40 MLOAD DUP1 SWAP2 SUB SWAP1 LOG3 POP POP POP POP POP JUMP JUMPDEST PUSH1 0x40 MLOAD DUP1 PUSH1 0x80 ADD PUSH1 0x40 MSTORE DUP1 DUP6 DUP2 MSTORE PUSH1 0x20 ADD DUP5 DUP2 MSTORE PUSH1 0x20 ADD DUP4 PUSH1 0x1 PUSH1 0x1 PUSH1 0xA0 SHL SUB AND DUP2 MSTORE PUSH1 0x20 ADD PUSH1 0x0 DUP2 MSTORE POP PUSH1 0x2 PUSH1 0x0 DUP1 PUSH1 0x0 DUP2 SLOAD PUSH2 0x526 SWAP1 PUSH2 0xC29 JUMP JUMPDEST SWAP2 DUP3 SWAP1 SSTORE POP DUP2 MSTORE PUSH1 0x20 DUP1 DUP3 ADD SWAP3 SWAP1 SWAP3 MSTORE PUSH1 0x40 SWAP1 DUP2 ADD PUSH1 0x0 SWAP1 DUP2 KECCAK256 DUP5 MLOAD DUP2 SSTORE SWAP3 DUP5 ADD MLOAD PUSH1 0x1 DUP5 ADD SSTORE SWAP1 DUP4 ADD MLOAD PUSH1 0x2 DUP4 ADD DUP1 SLOAD PUSH1 0x1 PUSH1 0x1 PUSH1 0xA0 SHL SUB NOT AND PUSH1 0x1 PUSH1 0x1 PUSH1 0xA0 SHL SUB SWAP1 SWAP3 AND SWAP2 SWAP1 SWAP2 OR SWAP1 SSTORE PUSH1 0x60 SWAP1 SWAP3 ADD MLOAD PUSH1 0x3 SWAP1 SWAP2 ADD SSTORE SLOAD PUSH2 0x589 SWAP1 DUP3 PUSH2 0x8B5 JUMP JUMPDEST DUP2 PUSH1 0x1 PUSH1 0x1 PUSH1 0xA0 SHL SUB AND PUSH1 0x0 SLOAD PUSH32 0xE273192D66FEECCD5E76000356363957EB17E3F1BFF1F91105559DB4AA9281B6 DUP7 PUSH1 0x40 MLOAD PUSH2 0x5C7 SWAP2 DUP2 MSTORE PUSH1 0x20 ADD SWAP1 JUMP JUMPDEST PUSH1 0x40 MLOAD DUP1 SWAP2 SUB SWAP1 LOG3 POP POP POP POP JUMP JUMPDEST PUSH1 0x1 PUSH1 0x1 PUSH1 0xA0 SHL SUB DUP7 AND PUSH1 0x0 SWAP1 DUP2 MSTORE PUSH1 0x1 PUSH1 0x20 SWAP1 DUP2 MSTORE PUSH1 0x40 DUP1 DUP4 KECCAK256 DUP11 DUP5 MSTORE SWAP1 SWAP2 MSTORE SWAP1 KECCAK256 SLOAD PUSH1 0xFF AND ISZERO PUSH2 0x63F JUMPI PUSH1 0x40 MLOAD PUSH3 0x461BCD PUSH1 0xE5 SHL DUP2 MSTORE PUSH1 0x20 PUSH1 0x4 DUP3 ADD MSTORE PUSH1 0x13 PUSH1 0x24 DUP3 ADD MSTORE PUSH19 0x105B1C9958591E481A5B9A5D1A585B1A5E9959 PUSH1 0x6A SHL PUSH1 0x44 DUP3 ADD MSTORE PUSH1 0x64 ADD PUSH2 0x2AB JUMP JUMPDEST PUSH1 0x40 DUP1 MLOAD PUSH1 0x1 PUSH1 0x1 PUSH1 0xA0 SHL SUB DUP9 AND PUSH1 0x20 DUP3 ADD MSTORE SWAP1 DUP2 ADD DUP7 SWAP1 MSTORE PUSH1 0x60 DUP2 ADD DUP6 SWAP1 MSTORE PUSH1 0x80 DUP2 ADD DUP5 SWAP1 MSTORE PUSH1 0xA0 DUP2 ADD DUP4 SWAP1 MSTORE PUSH1 0x0 SWAP1 PUSH1 0xC0 ADD PUSH1 0x40 DUP1 MLOAD PUSH1 0x1F NOT DUP2 DUP5 SUB ADD DUP2 MSTORE DUP3 DUP3 MSTORE DUP1 MLOAD PUSH1 0x20 SWAP2 DUP3 ADD KECCAK256 PUSH1 0x0 DUP13 DUP2 MSTORE PUSH1 0x2 DUP1 DUP5 MSTORE SWAP1 DUP5 SWAP1 KECCAK256 PUSH1 0x80 DUP7 ADD DUP6 MSTORE DUP1 SLOAD DUP1 DUP8 MSTORE PUSH1 0x1 DUP3 ADD SLOAD SWAP5 DUP8 ADD SWAP5 SWAP1 SWAP5 MSTORE SWAP1 DUP2 ADD SLOAD PUSH1 0x1 PUSH1 0x1 PUSH1 0xA0 SHL SUB AND DUP6 DUP6 ADD MSTORE PUSH1 0x3 ADD SLOAD PUSH1 0x60 DUP6 ADD MSTORE SWAP2 MLOAD PUSH4 0x2769CD1F PUSH1 0xE2 SHL DUP2 MSTORE SWAP2 SWAP4 POP PUSH20 0x0 SWAP2 PUSH4 0x9DA7347C SWAP2 PUSH2 0x705 SWAP2 DUP7 SWAP1 DUP9 SWAP1 PUSH1 0x4 ADD PUSH2 0xC44 JUMP JUMPDEST PUSH1 0x20 PUSH1 0x40 MLOAD DUP1 DUP4 SUB DUP2 DUP7 DUP1 EXTCODESIZE ISZERO DUP1 ISZERO PUSH2 0x71D JUMPI PUSH1 0x0 DUP1 REVERT JUMPDEST POP GAS DELEGATECALL ISZERO DUP1 ISZERO PUSH2 0x731 JUMPI RETURNDATASIZE PUSH1 0x0 DUP1 RETURNDATACOPY RETURNDATASIZE PUSH1 0x0 REVERT JUMPDEST POP POP POP POP PUSH1 0x40 MLOAD RETURNDATASIZE PUSH1 0x1F NOT PUSH1 0x1F DUP3 ADD AND DUP3 ADD DUP1 PUSH1 0x40 MSTORE POP DUP2 ADD SWAP1 PUSH2 0x755 SWAP2 SWAP1 PUSH2 0xC00 JUMP JUMPDEST PUSH2 0x7A1 JUMPI PUSH1 0x40 MLOAD PUSH3 0x461BCD PUSH1 0xE5 SHL DUP2 MSTORE PUSH1 0x20 PUSH1 0x4 DUP3 ADD DUP2 SWAP1 MSTORE PUSH1 0x24 DUP3 ADD MSTORE PUSH32 0x5468652070726F6F6620636F756C64206E6F742062652076657269666965642E PUSH1 0x44 DUP3 ADD MSTORE PUSH1 0x64 ADD PUSH2 0x2AB JUMP JUMPDEST PUSH1 0x1 PUSH1 0x1 PUSH1 0xA0 SHL SUB DUP9 AND PUSH1 0x0 SWAP1 DUP2 MSTORE PUSH1 0x1 PUSH1 0x20 DUP2 DUP2 MSTORE PUSH1 0x40 DUP1 DUP5 KECCAK256 DUP14 DUP6 MSTORE SWAP1 SWAP2 MSTORE DUP3 KECCAK256 DUP1 SLOAD PUSH1 0xFF NOT AND SWAP1 SWAP2 OR SWAP1 SSTORE PUSH2 0x7D9 DUP8 DUP8 PUSH2 0xBCA JUMP JUMPDEST PUSH2 0x7E3 SWAP1 DUP10 PUSH2 0xC99 JUMP JUMPDEST SWAP1 POP PUSH1 0x40 MLOAD DUP1 PUSH1 0xE0 ADD PUSH1 0x40 MSTORE DUP1 DUP10 DUP2 MSTORE PUSH1 0x20 ADD DUP10 DUP2 MSTORE PUSH1 0x20 ADD DUP9 DUP2 MSTORE PUSH1 0x20 ADD DUP8 DUP2 MSTORE PUSH1 0x20 ADD DUP3 DUP2 MSTORE PUSH1 0x20 ADD DUP9 DUP2 MSTORE PUSH1 0x20 ADD DUP7 DUP2 MSTORE POP PUSH1 0x3 PUSH1 0x0 DUP12 PUSH1 0x1 PUSH1 0x1 PUSH1 0xA0 SHL SUB AND PUSH1 0x1 PUSH1 0x1 PUSH1 0xA0 SHL SUB AND DUP2 MSTORE PUSH1 0x20 ADD SWAP1 DUP2 MSTORE PUSH1 0x20 ADD PUSH1 0x0 KECCAK256 PUSH1 0x0 DUP13 DUP2 MSTORE PUSH1 0x20 ADD SWAP1 DUP2 MSTORE PUSH1 0x20 ADD PUSH1 0x0 KECCAK256 PUSH1 0x0 DUP3 ADD MLOAD DUP2 PUSH1 0x0 ADD SSTORE PUSH1 0x20 DUP3 ADD MLOAD DUP2 PUSH1 0x1 ADD SSTORE PUSH1 0x40 DUP3 ADD MLOAD DUP2 PUSH1 0x2 ADD SSTORE PUSH1 0x60 DUP3 ADD MLOAD DUP2 PUSH1 0x3 ADD SSTORE PUSH1 0x80 DUP3 ADD MLOAD DUP2 PUSH1 0x4 ADD SSTORE PUSH1 0xA0 DUP3 ADD MLOAD DUP2 PUSH1 0x5 ADD SSTORE PUSH1 0xC0 DUP3 ADD MLOAD DUP2 PUSH1 0x6 ADD SSTORE SWAP1 POP POP TIMESTAMP DUP6 LT ISZERO PUSH2 0x8A9 JUMPI PUSH2 0x8A9 DUP11 DUP11 PUSH2 0x22C JUMP JUMPDEST POP POP POP POP POP POP POP POP POP POP JUMP JUMPDEST PUSH1 0x0 DUP3 DUP2 MSTORE PUSH1 0x2 PUSH1 0x20 DUP2 SWAP1 MSTORE PUSH1 0x40 SWAP2 DUP3 SWAP1 KECCAK256 SWAP1 DUP2 ADD SLOAD SWAP2 MLOAD PUSH4 0x23B872DD PUSH1 0xE0 SHL DUP2 MSTORE CALLER PUSH1 0x4 DUP3 ADD MSTORE ADDRESS PUSH1 0x24 DUP3 ADD MSTORE PUSH1 0x44 DUP2 ADD DUP5 SWAP1 MSTORE SWAP1 SWAP2 PUSH1 0x1 PUSH1 0x1 PUSH1 0xA0 SHL SUB AND SWAP1 PUSH4 0x23B872DD SWAP1 PUSH1 0x64 ADD PUSH1 0x20 PUSH1 0x40 MLOAD DUP1 DUP4 SUB DUP2 PUSH1 0x0 DUP8 DUP1 EXTCODESIZE ISZERO DUP1 ISZERO PUSH2 0x919 JUMPI PUSH1 0x0 DUP1 REVERT JUMPDEST POP GAS CALL ISZERO DUP1 ISZERO PUSH2 0x92D JUMPI RETURNDATASIZE PUSH1 0x0 DUP1 RETURNDATACOPY RETURNDATASIZE PUSH1 0x0 REVERT JUMPDEST POP POP POP POP PUSH1 0x40 MLOAD RETURNDATASIZE PUSH1 0x1F NOT PUSH1 0x1F DUP3 ADD AND DUP3 ADD DUP1 PUSH1 0x40 MSTORE POP DUP2 ADD SWAP1 PUSH2 0x951 SWAP2 SWAP1 PUSH2 0xC00 JUMP JUMPDEST PUSH2 0x995 JUMPI PUSH1 0x40 MLOAD PUSH3 0x461BCD PUSH1 0xE5 SHL DUP2 MSTORE PUSH1 0x20 PUSH1 0x4 DUP3 ADD MSTORE PUSH1 0x15 PUSH1 0x24 DUP3 ADD MSTORE PUSH21 0x115490CC8C081D1C985B9CD9995C8819985A5B1959 PUSH1 0x5A SHL PUSH1 0x44 DUP3 ADD MSTORE PUSH1 0x64 ADD PUSH2 0x2AB JUMP JUMPDEST DUP2 DUP2 PUSH1 0x3 ADD PUSH1 0x0 DUP3 DUP3 SLOAD PUSH2 0x9A9 SWAP2 SWAP1 PUSH2 0xCBB JUMP JUMPDEST SWAP1 SWAP2 SSTORE POP POP POP POP POP JUMP JUMPDEST DUP1 CALLDATALOAD PUSH1 0x1 PUSH1 0x1 PUSH1 0xA0 SHL SUB DUP2 AND DUP2 EQ PUSH2 0x9CA JUMPI PUSH1 0x0 DUP1 REVERT JUMPDEST SWAP2 SWAP1 POP JUMP JUMPDEST PUSH1 0x0 DUP1 PUSH1 0x40 DUP4 DUP6 SUB SLT ISZERO PUSH2 0x9E2 JUMPI PUSH1 0x0 DUP1 REVERT JUMPDEST DUP3 CALLDATALOAD SWAP2 POP PUSH2 0x9F2 PUSH1 0x20 DUP5 ADD PUSH2 0x9B3 JUMP JUMPDEST SWAP1 POP SWAP3 POP SWAP3 SWAP1 POP JUMP JUMPDEST PUSH1 0x0 PUSH1 0x20 DUP3 DUP5 SUB SLT ISZERO PUSH2 0xA0D JUMPI PUSH1 0x0 DUP1 REVERT JUMPDEST POP CALLDATALOAD SWAP2 SWAP1 POP JUMP JUMPDEST PUSH1 0x0 DUP1 PUSH1 0x40 DUP4 DUP6 SUB SLT ISZERO PUSH2 0xA27 JUMPI PUSH1 0x0 DUP1 REVERT JUMPDEST PUSH2 0xA30 DUP4 PUSH2 0x9B3 JUMP JUMPDEST SWAP5 PUSH1 0x20 SWAP4 SWAP1 SWAP4 ADD CALLDATALOAD SWAP4 POP POP POP JUMP JUMPDEST PUSH1 0x0 DUP1 PUSH1 0x0 DUP1 PUSH1 0x80 DUP6 DUP8 SUB SLT ISZERO PUSH2 0xA54 JUMPI PUSH1 0x0 DUP1 REVERT JUMPDEST DUP5 CALLDATALOAD SWAP4 POP PUSH1 0x20 DUP6 ADD CALLDATALOAD SWAP3 POP PUSH2 0xA6B PUSH1 0x40 DUP7 ADD PUSH2 0x9B3 JUMP JUMPDEST SWAP4 SWAP7 SWAP3 SWAP6 POP SWAP3 SWAP4 PUSH1 0x60 ADD CALLDATALOAD SWAP3 POP POP JUMP JUMPDEST PUSH4 0x4E487B71 PUSH1 0xE0 SHL PUSH1 0x0 MSTORE PUSH1 0x41 PUSH1 0x4 MSTORE PUSH1 0x24 PUSH1 0x0 REVERT JUMPDEST PUSH1 0x0 DUP1 PUSH1 0x0 DUP1 PUSH1 0x0 DUP1 PUSH1 0x0 PUSH1 0xE0 DUP9 DUP11 SUB SLT ISZERO PUSH2 0xAAC JUMPI PUSH1 0x0 DUP1 REVERT JUMPDEST DUP8 CALLDATALOAD SWAP7 POP PUSH1 0x20 PUSH2 0xABD DUP2 DUP11 ADD PUSH2 0x9B3 JUMP JUMPDEST SWAP7 POP PUSH1 0x40 DUP10 ADD CALLDATALOAD SWAP6 POP PUSH1 0x60 DUP10 ADD CALLDATALOAD SWAP5 POP PUSH1 0x80 DUP10 ADD CALLDATALOAD SWAP4 POP PUSH1 0xA0 DUP10 ADD CALLDATALOAD SWAP3 POP PUSH1 0xC0 DUP10 ADD CALLDATALOAD PUSH8 0xFFFFFFFFFFFFFFFF DUP1 DUP3 GT ISZERO PUSH2 0xAF6 JUMPI PUSH1 0x0 DUP1 REVERT JUMPDEST DUP2 DUP12 ADD SWAP2 POP DUP12 PUSH1 0x1F DUP4 ADD SLT PUSH2 0xB0A JUMPI PUSH1 0x0 DUP1 REVERT JUMPDEST DUP2 CALLDATALOAD DUP2 DUP2 GT ISZERO PUSH2 0xB1C JUMPI PUSH2 0xB1C PUSH2 0xA7B JUMP JUMPDEST DUP1 PUSH1 0x5 SHL PUSH1 0x40 MLOAD PUSH1 0x1F NOT PUSH1 0x3F DUP4 ADD AND DUP2 ADD DUP2 DUP2 LT DUP6 DUP3 GT OR ISZERO PUSH2 0xB41 JUMPI PUSH2 0xB41 PUSH2 0xA7B JUMP JUMPDEST PUSH1 0x40 MSTORE SWAP2 DUP3 MSTORE DUP5 DUP3 ADD SWAP3 POP DUP4 DUP2 ADD DUP6 ADD SWAP2 DUP15 DUP4 GT ISZERO PUSH2 0xB5F JUMPI PUSH1 0x0 DUP1 REVERT JUMPDEST SWAP4 DUP6 ADD SWAP4 JUMPDEST DUP3 DUP6 LT ISZERO PUSH2 0xB7D JUMPI DUP5 CALLDATALOAD DUP5 MSTORE SWAP4 DUP6 ADD SWAP4 SWAP3 DUP6 ADD SWAP3 PUSH2 0xB64 JUMP JUMPDEST DUP1 SWAP7 POP POP POP POP POP POP POP SWAP3 SWAP6 SWAP9 SWAP2 SWAP5 SWAP8 POP SWAP3 SWAP6 POP JUMP JUMPDEST PUSH1 0x0 DUP1 PUSH1 0x40 DUP4 DUP6 SUB SLT ISZERO PUSH2 0xBA5 JUMPI PUSH1 0x0 DUP1 REVERT JUMPDEST POP POP DUP1 CALLDATALOAD SWAP3 PUSH1 0x20 SWAP1 SWAP2 ADD CALLDATALOAD SWAP2 POP JUMP JUMPDEST PUSH4 0x4E487B71 PUSH1 0xE0 SHL PUSH1 0x0 MSTORE PUSH1 0x11 PUSH1 0x4 MSTORE PUSH1 0x24 PUSH1 0x0 REVERT JUMPDEST PUSH1 0x0 DUP3 DUP3 LT ISZERO PUSH2 0xBDC JUMPI PUSH2 0xBDC PUSH2 0xBB4 JUMP JUMPDEST POP SUB SWAP1 JUMP JUMPDEST PUSH1 0x0 DUP2 PUSH1 0x0 NOT DIV DUP4 GT DUP3 ISZERO ISZERO AND ISZERO PUSH2 0xBFB JUMPI PUSH2 0xBFB PUSH2 0xBB4 JUMP JUMPDEST POP MUL SWAP1 JUMP JUMPDEST PUSH1 0x0 PUSH1 0x20 DUP3 DUP5 SUB SLT ISZERO PUSH2 0xC12 JUMPI PUSH1 0x0 DUP1 REVERT JUMPDEST DUP2 MLOAD DUP1 ISZERO ISZERO DUP2 EQ PUSH2 0xC22 JUMPI PUSH1 0x0 DUP1 REVERT JUMPDEST SWAP4 SWAP3 POP POP POP JUMP JUMPDEST PUSH1 0x0 PUSH1 0x0 NOT DUP3 EQ ISZERO PUSH2 0xC3D JUMPI PUSH2 0xC3D PUSH2 0xBB4 JUMP JUMPDEST POP PUSH1 0x1 ADD SWAP1 JUMP JUMPDEST PUSH1 0x0 PUSH1 0x60 DUP3 ADD DUP6 DUP4 MSTORE PUSH1 0x20 DUP6 DUP2 DUP6 ADD MSTORE PUSH1 0x60 PUSH1 0x40 DUP6 ADD MSTORE DUP2 DUP6 MLOAD DUP1 DUP5 MSTORE PUSH1 0x80 DUP7 ADD SWAP2 POP DUP3 DUP8 ADD SWAP4 POP PUSH1 0x0 JUMPDEST DUP2 DUP2 LT ISZERO PUSH2 0xC8B JUMPI DUP5 MLOAD DUP4 MSTORE SWAP4 DUP4 ADD SWAP4 SWAP2 DUP4 ADD SWAP2 PUSH1 0x1 ADD PUSH2 0xC6F JUMP JUMPDEST POP SWAP1 SWAP9 SWAP8 POP POP POP POP POP POP POP POP JUMP JUMPDEST PUSH1 0x0 DUP3 PUSH2 0xCB6 JUMPI PUSH4 0x4E487B71 PUSH1 0xE0 SHL PUSH1 0x0 MSTORE PUSH1 0x12 PUSH1 0x4 MSTORE PUSH1 0x24 PUSH1 0x0 REVERT JUMPDEST POP DIV SWAP1 JUMP JUMPDEST PUSH1 0x0 DUP3 NOT DUP3 GT ISZERO PUSH2 0xCCE JUMPI PUSH2 0xCCE PUSH2 0xBB4 JUMP JUMPDEST POP ADD SWAP1 JUMP INVALID LOG2 PUSH5 0x6970667358 0x22 SLT KECCAK256 DUP5 PUSH7 0xEF61B854BCDF35 0xBD 0xFB DUP6 PUSH9 0xC48D081A0ED3194750 0xC4 BLOCKHASH SSTORE DUP2 0xE8 SWAP10 0x4A 0xE4 0xC8 0xAB PUSH5 0x736F6C6343 STOP ADDMOD MULMOD STOP CALLER ",
  "sha1": "ec23b1a8deaa66cbc361ba5d1ba5233187d878ff",
  "source": "// SPDX-License-Identifier: GPL-3.0-only\n\npragma solidity 0.8.9;\n\nimport \"../interfaces/IERC20.sol\";\nimport \"./MerkleLib.sol\";\n\ncontract MerkleVesting {\n    using MerkleLib for bytes32;\n\n    uint public numTrees = 0;\n    \n    struct Tranche {\n        uint totalCoins;\n        uint currentCoins;\n        uint startTime;\n        uint endTime;\n        uint coinsPerSecond;\n        uint lastWithdrawalTime;\n        uint lockPeriodEndTime;\n    }\n\n    struct MerkleTree {\n        bytes32 rootHash;\n        bytes32 ipfsHash;\n        address tokenAddress;\n        uint tokenBalance;\n    }\n\n    mapping (address => mapping (uint => bool)) public initialized;\n    mapping (uint => MerkleTree) public merkleTrees;\n    mapping (address => mapping (uint => Tranche)) public tranches;\n\n    event WithdrawalOccurred(address indexed destination, uint numTokens, uint tokensLeft, uint indexed merkleIndex);\n    event MerkleRootAdded(uint indexed index, address indexed tokenAddress, bytes32 newRoot);\n\n    /*\n        Root hash should be built out of following data:\n        - destination\n        - totalCoins\n        - startTime\n        - endTime\n        - lockPeriodEndTime\n    */\n    function addMerkleRoot(bytes32 rootHash, bytes32 ipfsHash, address tokenAddress, uint tokenBalance) public {\n        merkleTrees[++numTrees] = MerkleTree(rootHash, ipfsHash, tokenAddress, 0);\n        depositTokens(numTrees, tokenBalance);\n        emit MerkleRootAdded(numTrees, tokenAddress, rootHash);\n    }\n\n    function depositTokens(uint numTree, uint value) public {\n        MerkleTree storage merkleTree = merkleTrees[numTree];\n        require(IERC20(merkleTree.tokenAddress).transferFrom(msg.sender, address(this), value), \"ERC20 transfer failed\");\n        merkleTree.tokenBalance += value;\n    }\n\n    function initialize(uint merkleIndex, address destination, uint totalCoins, uint startTime, uint endTime, uint lockPeriodEndTime, bytes32[] memory proof) external {\n        require(!initialized[destination][merkleIndex], \"Already initialized\");\n        bytes32 leaf = keccak256(abi.encode(destination, totalCoins, startTime, endTime, lockPeriodEndTime));\n        MerkleTree memory tree = merkleTrees[merkleIndex];\n        require(tree.rootHash.verifyProof(leaf, proof), \"The proof could not be verified.\");\n        initialized[destination][merkleIndex] = true;\n        uint coinsPerSecond = totalCoins / (endTime - startTime);\n        tranches[destination][merkleIndex] = Tranche(\n            totalCoins,\n            totalCoins,\n            startTime,\n            endTime,\n            coinsPerSecond,\n            startTime,\n            lockPeriodEndTime\n        );\n        if (lockPeriodEndTime < block.timestamp) {\n            withdraw(merkleIndex, destination);\n        }\n    }\n\n    function withdraw(uint merkleIndex, address destination) public {\n        require(initialized[destination][merkleIndex], \"You must initialize your account first.\");\n        Tranche storage tranche = tranches[destination][merkleIndex];\n        require(block.timestamp > tranche.lockPeriodEndTime, 'Must wait until after lock period');\n        require(tranche.currentCoins >  0, 'No coins left to withdraw');\n        uint currentWithdrawal = 0;\n\n        // if after vesting period ends, give them the remaining coins\n        if (block.timestamp >= tranche.endTime) {\n            currentWithdrawal = tranche.currentCoins;\n        } else {\n            // compute allowed withdrawal\n            currentWithdrawal = (block.timestamp - tranche.lastWithdrawalTime) * tranche.coinsPerSecond;\n        }\n\n        // update struct\n        tranche.currentCoins -= currentWithdrawal;\n        tranche.lastWithdrawalTime = block.timestamp;\n\n        MerkleTree storage tree = merkleTrees[merkleIndex];\n        tree.tokenBalance -= currentWithdrawal;\n\n        // transfer the tokens, brah\n        IERC20(tree.tokenAddress).transfer(destination, currentWithdrawal);\n        emit WithdrawalOccurred(destination, currentWithdrawal, tranche.currentCoins, merkleIndex);\n    }\n\n}",
  "sourcePath": "contracts/MerkleVesting.sol",
  "type": "contract"
}