{
  "abi": [
    {
      "anonymous": false,
      "inputs": [
        {
          "indexed": true,
          "internalType": "uint256",
          "name": "index",
          "type": "uint256"
        },
        {
          "indexed": true,
          "internalType": "address",
          "name": "tokenAddress",
          "type": "address"
        },
        {
          "indexed": false,
          "internalType": "bytes32",
          "name": "newRoot",
          "type": "bytes32"
        },
        {
          "indexed": false,
          "internalType": "bytes32",
          "name": "ipfsHash",
          "type": "bytes32"
        }
      ],
      "name": "MerkleTreeAdded",
      "type": "event"
    },
    {
      "anonymous": false,
      "inputs": [
        {
          "indexed": true,
          "internalType": "uint256",
          "name": "merkleIndex",
          "type": "uint256"
        },
        {
          "indexed": true,
          "internalType": "address",
          "name": "recipient",
          "type": "address"
        },
        {
          "indexed": false,
          "internalType": "uint256",
          "name": "value",
          "type": "uint256"
        }
      ],
      "name": "Withdraw",
      "type": "event"
    },
    {
      "inputs": [
        {
          "internalType": "bytes32",
          "name": "newRoot",
          "type": "bytes32"
        },
        {
          "internalType": "bytes32",
          "name": "ipfsHash",
          "type": "bytes32"
        },
        {
          "internalType": "address",
          "name": "depositToken",
          "type": "address"
        },
        {
          "internalType": "uint256",
          "name": "tokenBalance",
          "type": "uint256"
        }
      ],
      "name": "addMerkleTree",
      "outputs": [],
      "stateMutability": "nonpayable",
      "type": "function"
    },
    {
      "inputs": [
        {
          "internalType": "uint256",
          "name": "numTree",
          "type": "uint256"
        },
        {
          "internalType": "uint256",
          "name": "value",
          "type": "uint256"
        }
      ],
      "name": "depositTokens",
      "outputs": [],
      "stateMutability": "nonpayable",
      "type": "function"
    },
    {
      "inputs": [
        {
          "internalType": "uint256",
          "name": "",
          "type": "uint256"
        }
      ],
      "name": "merkleTrees",
      "outputs": [
        {
          "internalType": "bytes32",
          "name": "merkleRoot",
          "type": "bytes32"
        },
        {
          "internalType": "bytes32",
          "name": "ipfsHash",
          "type": "bytes32"
        },
        {
          "internalType": "address",
          "name": "tokenAddress",
          "type": "address"
        },
        {
          "internalType": "uint256",
          "name": "tokenBalance",
          "type": "uint256"
        },
        {
          "internalType": "uint256",
          "name": "spentTokens",
          "type": "uint256"
        }
      ],
      "stateMutability": "view",
      "type": "function"
    },
    {
      "inputs": [],
      "name": "numTrees",
      "outputs": [
        {
          "internalType": "uint256",
          "name": "",
          "type": "uint256"
        }
      ],
      "stateMutability": "view",
      "type": "function"
    },
    {
      "inputs": [
        {
          "internalType": "uint256",
          "name": "merkleIndex",
          "type": "uint256"
        },
        {
          "internalType": "address",
          "name": "walletAddress",
          "type": "address"
        },
        {
          "internalType": "uint256",
          "name": "value",
          "type": "uint256"
        },
        {
          "internalType": "bytes32[]",
          "name": "proof",
          "type": "bytes32[]"
        }
      ],
      "name": "withdraw",
      "outputs": [],
      "stateMutability": "nonpayable",
      "type": "function"
    },
    {
      "inputs": [
        {
          "internalType": "address",
          "name": "",
          "type": "address"
        },
        {
          "internalType": "uint256",
          "name": "",
          "type": "uint256"
        }
      ],
      "name": "withdrawn",
      "outputs": [
        {
          "internalType": "bool",
          "name": "",
          "type": "bool"
        }
      ],
      "stateMutability": "view",
      "type": "function"
    }
  ],
  "bytecode": "60806040526000805534801561001457600080fd5b506109bc806100246000396000f3fe608060405234801561001057600080fd5b50600436106100625760003560e01c806303a4153c14610067578063390b7c661461007c5780636fb24f3a1461009857806385d88cb1146100d6578063f1301ccf14610153578063f16ad51e14610166575b600080fd5b61007a610075366004610724565b610179565b005b61008560005481565b6040519081526020015b60405180910390f35b6100c66100a6366004610806565b600160209081526000928352604080842090915290825290205460ff1681565b604051901515815260200161008f565b61011d6100e4366004610830565b6002602081905260009182526040909120805460018201549282015460038301546004909301549193926001600160a01b039091169185565b6040805195865260208601949094526001600160a01b03909216928401929092526060830191909152608082015260a00161008f565b61007a610161366004610849565b6104f5565b61007a610174366004610886565b6105f4565b6000548411156101dc5760405162461bcd60e51b815260206004820152602360248201527f50726f7669646564206d65726b6c6520696e64657820646f65736e27742065786044820152621a5cdd60ea1b60648201526084015b60405180910390fd5b6001600160a01b038316600090815260016020908152604080832087845290915290205460ff16156102685760405162461bcd60e51b815260206004820152602f60248201527f596f75206861766520616c72656164792077697468647261776e20796f75722060448201526e32b73a34ba3632b2103a37b5b2b71760891b60648201526084016101d3565b604080516001600160a01b038516602082015290810183905260009060600160408051601f198184030181528282528051602091820120600089815260029092529190208054632769cd1f60e21b84529193509173__MerkleLib_____________________________91639da7347c916102e99190869088906004016108a8565b60206040518083038186803b15801561030157600080fd5b505af4158015610315573d6000803e3d6000fd5b505050506040513d601f19601f8201168201806040525081019061033991906108fd565b6103855760405162461bcd60e51b815260206004820181905260248201527f5468652070726f6f6620636f756c64206e6f742062652076657269666965642e60448201526064016101d3565b6001600160a01b0385811660008181526001602081815260408084208c855290915291829020805460ff191690911790556002840154905163a9059cbb60e01b81526004810192909252602482018790529091169063a9059cbb90604401602060405180830381600087803b1580156103fd57600080fd5b505af1158015610411573d6000803e3d6000fd5b505050506040513d601f19601f8201168201806040525081019061043591906108fd565b6104795760405162461bcd60e51b8152602060048201526015602482015274115490cc8c081d1c985b9cd9995c8819985a5b1959605a1b60448201526064016101d3565b8381600301600082825461048d919061093c565b92505081905550838160040160008282546104a89190610953565b90915550506040518481526001600160a01b0386169087907f9da6493a92039daf47d1f2d7a782299c5994c6323eb1e972f69c432089ec52bf9060200160405180910390a3505050505050565b6040518060a00160405280858152602001848152602001836001600160a01b031681526020016000815260200160008152506002600080600081546105399061096b565b918290555081526020808201929092526040908101600090812084518155928401516001840155908301516002830180546001600160a01b0319166001600160a01b0390921691909117905560608301516003830155608090920151600490910155546105a690826105f4565b60005460408051868152602081018690526001600160a01b03851692917f7247d7268297fd9fe23a535b70f414660bbcbbcd73ac0d9ce3c103a356a61f45910160405180910390a350505050565b6000828152600260208190526040918290209081015491516323b872dd60e01b81523360048201523060248201526044810184905290916001600160a01b0316906323b872dd90606401602060405180830381600087803b15801561065857600080fd5b505af115801561066c573d6000803e3d6000fd5b505050506040513d601f19601f8201168201806040525081019061069091906108fd565b6106d45760405162461bcd60e51b8152602060048201526015602482015274115490cc8c081d1c985b9cd9995c8819985a5b1959605a1b60448201526064016101d3565b818160030160008282546106e89190610953565b9091555050505050565b80356001600160a01b038116811461070957600080fd5b919050565b634e487b7160e01b600052604160045260246000fd5b6000806000806080858703121561073a57600080fd5b84359350602061074b8187016106f2565b935060408601359250606086013567ffffffffffffffff8082111561076f57600080fd5b818801915088601f83011261078357600080fd5b8135818111156107955761079561070e565b8060051b604051601f19603f830116810181811085821117156107ba576107ba61070e565b60405291825284820192508381018501918b8311156107d857600080fd5b938501935b828510156107f6578435845293850193928501926107dd565b989b979a50959850505050505050565b6000806040838503121561081957600080fd5b610822836106f2565b946020939093013593505050565b60006020828403121561084257600080fd5b5035919050565b6000806000806080858703121561085f57600080fd5b8435935060208501359250610876604086016106f2565b9396929550929360600135925050565b6000806040838503121561089957600080fd5b50508035926020909101359150565b6000606082018583526020858185015260606040850152818551808452608086019150828701935060005b818110156108ef578451835293830193918301916001016108d3565b509098975050505050505050565b60006020828403121561090f57600080fd5b8151801515811461091f57600080fd5b9392505050565b634e487b7160e01b600052601160045260246000fd5b60008282101561094e5761094e610926565b500390565b6000821982111561096657610966610926565b500190565b600060001982141561097f5761097f610926565b506001019056fea2646970667358221220a2c1c685d365f672fb1d2fcb24b73f9bae5f2b7d650e70f1e0d2607a69a5edf864736f6c63430008090033",
  "bytecodeSha1": "9657aba2706bf864fbecad1a8046871a5b8fdc9a",
  "compiler": {
    "evm_version": "istanbul",
    "optimizer": {
      "enabled": true,
      "runs": 200
    },
    "version": "0.8.9+commit.e5eed63a"
  },
  "contractName": "MerkleDropFactory",
  "deployedBytecode": "608060405234801561001057600080fd5b50600436106100625760003560e01c806303a4153c14610067578063390b7c661461007c5780636fb24f3a1461009857806385d88cb1146100d6578063f1301ccf14610153578063f16ad51e14610166575b600080fd5b61007a610075366004610724565b610179565b005b61008560005481565b6040519081526020015b60405180910390f35b6100c66100a6366004610806565b600160209081526000928352604080842090915290825290205460ff1681565b604051901515815260200161008f565b61011d6100e4366004610830565b6002602081905260009182526040909120805460018201549282015460038301546004909301549193926001600160a01b039091169185565b6040805195865260208601949094526001600160a01b03909216928401929092526060830191909152608082015260a00161008f565b61007a610161366004610849565b6104f5565b61007a610174366004610886565b6105f4565b6000548411156101dc5760405162461bcd60e51b815260206004820152602360248201527f50726f7669646564206d65726b6c6520696e64657820646f65736e27742065786044820152621a5cdd60ea1b60648201526084015b60405180910390fd5b6001600160a01b038316600090815260016020908152604080832087845290915290205460ff16156102685760405162461bcd60e51b815260206004820152602f60248201527f596f75206861766520616c72656164792077697468647261776e20796f75722060448201526e32b73a34ba3632b2103a37b5b2b71760891b60648201526084016101d3565b604080516001600160a01b038516602082015290810183905260009060600160408051601f198184030181528282528051602091820120600089815260029092529190208054632769cd1f60e21b84529193509173__$61dd25696c02d5bd2863c8d2c1a2324a87$__91639da7347c916102e99190869088906004016108a8565b60206040518083038186803b15801561030157600080fd5b505af4158015610315573d6000803e3d6000fd5b505050506040513d601f19601f8201168201806040525081019061033991906108fd565b6103855760405162461bcd60e51b815260206004820181905260248201527f5468652070726f6f6620636f756c64206e6f742062652076657269666965642e60448201526064016101d3565b6001600160a01b0385811660008181526001602081815260408084208c855290915291829020805460ff191690911790556002840154905163a9059cbb60e01b81526004810192909252602482018790529091169063a9059cbb90604401602060405180830381600087803b1580156103fd57600080fd5b505af1158015610411573d6000803e3d6000fd5b505050506040513d601f19601f8201168201806040525081019061043591906108fd565b6104795760405162461bcd60e51b8152602060048201526015602482015274115490cc8c081d1c985b9cd9995c8819985a5b1959605a1b60448201526064016101d3565b8381600301600082825461048d919061093c565b92505081905550838160040160008282546104a89190610953565b90915550506040518481526001600160a01b0386169087907f9da6493a92039daf47d1f2d7a782299c5994c6323eb1e972f69c432089ec52bf9060200160405180910390a3505050505050565b6040518060a00160405280858152602001848152602001836001600160a01b031681526020016000815260200160008152506002600080600081546105399061096b565b918290555081526020808201929092526040908101600090812084518155928401516001840155908301516002830180546001600160a01b0319166001600160a01b0390921691909117905560608301516003830155608090920151600490910155546105a690826105f4565b60005460408051868152602081018690526001600160a01b03851692917f7247d7268297fd9fe23a535b70f414660bbcbbcd73ac0d9ce3c103a356a61f45910160405180910390a350505050565b6000828152600260208190526040918290209081015491516323b872dd60e01b81523360048201523060248201526044810184905290916001600160a01b0316906323b872dd90606401602060405180830381600087803b15801561065857600080fd5b505af115801561066c573d6000803e3d6000fd5b505050506040513d601f19601f8201168201806040525081019061069091906108fd565b6106d45760405162461bcd60e51b8152602060048201526015602482015274115490cc8c081d1c985b9cd9995c8819985a5b1959605a1b60448201526064016101d3565b818160030160008282546106e89190610953565b9091555050505050565b80356001600160a01b038116811461070957600080fd5b919050565b634e487b7160e01b600052604160045260246000fd5b6000806000806080858703121561073a57600080fd5b84359350602061074b8187016106f2565b935060408601359250606086013567ffffffffffffffff8082111561076f57600080fd5b818801915088601f83011261078357600080fd5b8135818111156107955761079561070e565b8060051b604051601f19603f830116810181811085821117156107ba576107ba61070e565b60405291825284820192508381018501918b8311156107d857600080fd5b938501935b828510156107f6578435845293850193928501926107dd565b989b979a50959850505050505050565b6000806040838503121561081957600080fd5b610822836106f2565b946020939093013593505050565b60006020828403121561084257600080fd5b5035919050565b6000806000806080858703121561085f57600080fd5b8435935060208501359250610876604086016106f2565b9396929550929360600135925050565b6000806040838503121561089957600080fd5b50508035926020909101359150565b6000606082018583526020858185015260606040850152818551808452608086019150828701935060005b818110156108ef578451835293830193918301916001016108d3565b509098975050505050505050565b60006020828403121561090f57600080fd5b8151801515811461091f57600080fd5b9392505050565b634e487b7160e01b600052601160045260246000fd5b60008282101561094e5761094e610926565b500390565b6000821982111561096657610966610926565b500190565b600060001982141561097f5761097f610926565b506001019056fea2646970667358221220a2c1c685d365f672fb1d2fcb24b73f9bae5f2b7d650e70f1e0d2607a69a5edf864736f6c63430008090033",
  "language": "Solidity",
  "natspec": {
    "kind": "dev",
    "methods": {},
    "version": 1
  },
  "opcodes": "PUSH1 0x80 PUSH1 0x40 MSTORE CALLVALUE DUP1 ISZERO PUSH2 0x10 JUMPI PUSH1 0x0 DUP1 REVERT JUMPDEST POP PUSH1 0x4 CALLDATASIZE LT PUSH2 0x62 JUMPI PUSH1 0x0 CALLDATALOAD PUSH1 0xE0 SHR DUP1 PUSH4 0x3A4153C EQ PUSH2 0x67 JUMPI DUP1 PUSH4 0x390B7C66 EQ PUSH2 0x7C JUMPI DUP1 PUSH4 0x6FB24F3A EQ PUSH2 0x98 JUMPI DUP1 PUSH4 0x85D88CB1 EQ PUSH2 0xD6 JUMPI DUP1 PUSH4 0xF1301CCF EQ PUSH2 0x153 JUMPI DUP1 PUSH4 0xF16AD51E EQ PUSH2 0x166 JUMPI JUMPDEST PUSH1 0x0 DUP1 REVERT JUMPDEST PUSH2 0x7A PUSH2 0x75 CALLDATASIZE PUSH1 0x4 PUSH2 0x724 JUMP JUMPDEST PUSH2 0x179 JUMP JUMPDEST STOP JUMPDEST PUSH2 0x85 PUSH1 0x0 SLOAD DUP2 JUMP JUMPDEST PUSH1 0x40 MLOAD SWAP1 DUP2 MSTORE PUSH1 0x20 ADD JUMPDEST PUSH1 0x40 MLOAD DUP1 SWAP2 SUB SWAP1 RETURN JUMPDEST PUSH2 0xC6 PUSH2 0xA6 CALLDATASIZE PUSH1 0x4 PUSH2 0x806 JUMP JUMPDEST PUSH1 0x1 PUSH1 0x20 SWAP1 DUP2 MSTORE PUSH1 0x0 SWAP3 DUP4 MSTORE PUSH1 0x40 DUP1 DUP5 KECCAK256 SWAP1 SWAP2 MSTORE SWAP1 DUP3 MSTORE SWAP1 KECCAK256 SLOAD PUSH1 0xFF AND DUP2 JUMP JUMPDEST PUSH1 0x40 MLOAD SWAP1 ISZERO ISZERO DUP2 MSTORE PUSH1 0x20 ADD PUSH2 0x8F JUMP JUMPDEST PUSH2 0x11D PUSH2 0xE4 CALLDATASIZE PUSH1 0x4 PUSH2 0x830 JUMP JUMPDEST PUSH1 0x2 PUSH1 0x20 DUP2 SWAP1 MSTORE PUSH1 0x0 SWAP2 DUP3 MSTORE PUSH1 0x40 SWAP1 SWAP2 KECCAK256 DUP1 SLOAD PUSH1 0x1 DUP3 ADD SLOAD SWAP3 DUP3 ADD SLOAD PUSH1 0x3 DUP4 ADD SLOAD PUSH1 0x4 SWAP1 SWAP4 ADD SLOAD SWAP2 SWAP4 SWAP3 PUSH1 0x1 PUSH1 0x1 PUSH1 0xA0 SHL SUB SWAP1 SWAP2 AND SWAP2 DUP6 JUMP JUMPDEST PUSH1 0x40 DUP1 MLOAD SWAP6 DUP7 MSTORE PUSH1 0x20 DUP7 ADD SWAP5 SWAP1 SWAP5 MSTORE PUSH1 0x1 PUSH1 0x1 PUSH1 0xA0 SHL SUB SWAP1 SWAP3 AND SWAP3 DUP5 ADD SWAP3 SWAP1 SWAP3 MSTORE PUSH1 0x60 DUP4 ADD SWAP2 SWAP1 SWAP2 MSTORE PUSH1 0x80 DUP3 ADD MSTORE PUSH1 0xA0 ADD PUSH2 0x8F JUMP JUMPDEST PUSH2 0x7A PUSH2 0x161 CALLDATASIZE PUSH1 0x4 PUSH2 0x849 JUMP JUMPDEST PUSH2 0x4F5 JUMP JUMPDEST PUSH2 0x7A PUSH2 0x174 CALLDATASIZE PUSH1 0x4 PUSH2 0x886 JUMP JUMPDEST PUSH2 0x5F4 JUMP JUMPDEST PUSH1 0x0 SLOAD DUP5 GT ISZERO PUSH2 0x1DC JUMPI PUSH1 0x40 MLOAD PUSH3 0x461BCD PUSH1 0xE5 SHL DUP2 MSTORE PUSH1 0x20 PUSH1 0x4 DUP3 ADD MSTORE PUSH1 0x23 PUSH1 0x24 DUP3 ADD MSTORE PUSH32 0x50726F7669646564206D65726B6C6520696E64657820646F65736E2774206578 PUSH1 0x44 DUP3 ADD MSTORE PUSH3 0x1A5CDD PUSH1 0xEA SHL PUSH1 0x64 DUP3 ADD MSTORE PUSH1 0x84 ADD JUMPDEST PUSH1 0x40 MLOAD DUP1 SWAP2 SUB SWAP1 REVERT JUMPDEST PUSH1 0x1 PUSH1 0x1 PUSH1 0xA0 SHL SUB DUP4 AND PUSH1 0x0 SWAP1 DUP2 MSTORE PUSH1 0x1 PUSH1 0x20 SWAP1 DUP2 MSTORE PUSH1 0x40 DUP1 DUP4 KECCAK256 DUP8 DUP5 MSTORE SWAP1 SWAP2 MSTORE SWAP1 KECCAK256 SLOAD PUSH1 0xFF AND ISZERO PUSH2 0x268 JUMPI PUSH1 0x40 MLOAD PUSH3 0x461BCD PUSH1 0xE5 SHL DUP2 MSTORE PUSH1 0x20 PUSH1 0x4 DUP3 ADD MSTORE PUSH1 0x2F PUSH1 0x24 DUP3 ADD MSTORE PUSH32 0x596F75206861766520616C72656164792077697468647261776E20796F757220 PUSH1 0x44 DUP3 ADD MSTORE PUSH15 0x32B73A34BA3632B2103A37B5B2B717 PUSH1 0x89 SHL PUSH1 0x64 DUP3 ADD MSTORE PUSH1 0x84 ADD PUSH2 0x1D3 JUMP JUMPDEST PUSH1 0x40 DUP1 MLOAD PUSH1 0x1 PUSH1 0x1 PUSH1 0xA0 SHL SUB DUP6 AND PUSH1 0x20 DUP3 ADD MSTORE SWAP1 DUP2 ADD DUP4 SWAP1 MSTORE PUSH1 0x0 SWAP1 PUSH1 0x60 ADD PUSH1 0x40 DUP1 MLOAD PUSH1 0x1F NOT DUP2 DUP5 SUB ADD DUP2 MSTORE DUP3 DUP3 MSTORE DUP1 MLOAD PUSH1 0x20 SWAP2 DUP3 ADD KECCAK256 PUSH1 0x0 DUP10 DUP2 MSTORE PUSH1 0x2 SWAP1 SWAP3 MSTORE SWAP2 SWAP1 KECCAK256 DUP1 SLOAD PUSH4 0x2769CD1F PUSH1 0xE2 SHL DUP5 MSTORE SWAP2 SWAP4 POP SWAP2 PUSH20 0x0 SWAP2 PUSH4 0x9DA7347C SWAP2 PUSH2 0x2E9 SWAP2 SWAP1 DUP7 SWAP1 DUP9 SWAP1 PUSH1 0x4 ADD PUSH2 0x8A8 JUMP JUMPDEST PUSH1 0x20 PUSH1 0x40 MLOAD DUP1 DUP4 SUB DUP2 DUP7 DUP1 EXTCODESIZE ISZERO DUP1 ISZERO PUSH2 0x301 JUMPI PUSH1 0x0 DUP1 REVERT JUMPDEST POP GAS DELEGATECALL ISZERO DUP1 ISZERO PUSH2 0x315 JUMPI RETURNDATASIZE PUSH1 0x0 DUP1 RETURNDATACOPY RETURNDATASIZE PUSH1 0x0 REVERT JUMPDEST POP POP POP POP PUSH1 0x40 MLOAD RETURNDATASIZE PUSH1 0x1F NOT PUSH1 0x1F DUP3 ADD AND DUP3 ADD DUP1 PUSH1 0x40 MSTORE POP DUP2 ADD SWAP1 PUSH2 0x339 SWAP2 SWAP1 PUSH2 0x8FD JUMP JUMPDEST PUSH2 0x385 JUMPI PUSH1 0x40 MLOAD PUSH3 0x461BCD PUSH1 0xE5 SHL DUP2 MSTORE PUSH1 0x20 PUSH1 0x4 DUP3 ADD DUP2 SWAP1 MSTORE PUSH1 0x24 DUP3 ADD MSTORE PUSH32 0x5468652070726F6F6620636F756C64206E6F742062652076657269666965642E PUSH1 0x44 DUP3 ADD MSTORE PUSH1 0x64 ADD PUSH2 0x1D3 JUMP JUMPDEST PUSH1 0x1 PUSH1 0x1 PUSH1 0xA0 SHL SUB DUP6 DUP2 AND PUSH1 0x0 DUP2 DUP2 MSTORE PUSH1 0x1 PUSH1 0x20 DUP2 DUP2 MSTORE PUSH1 0x40 DUP1 DUP5 KECCAK256 DUP13 DUP6 MSTORE SWAP1 SWAP2 MSTORE SWAP2 DUP3 SWAP1 KECCAK256 DUP1 SLOAD PUSH1 0xFF NOT AND SWAP1 SWAP2 OR SWAP1 SSTORE PUSH1 0x2 DUP5 ADD SLOAD SWAP1 MLOAD PUSH4 0xA9059CBB PUSH1 0xE0 SHL DUP2 MSTORE PUSH1 0x4 DUP2 ADD SWAP3 SWAP1 SWAP3 MSTORE PUSH1 0x24 DUP3 ADD DUP8 SWAP1 MSTORE SWAP1 SWAP2 AND SWAP1 PUSH4 0xA9059CBB SWAP1 PUSH1 0x44 ADD PUSH1 0x20 PUSH1 0x40 MLOAD DUP1 DUP4 SUB DUP2 PUSH1 0x0 DUP8 DUP1 EXTCODESIZE ISZERO DUP1 ISZERO PUSH2 0x3FD JUMPI PUSH1 0x0 DUP1 REVERT JUMPDEST POP GAS CALL ISZERO DUP1 ISZERO PUSH2 0x411 JUMPI RETURNDATASIZE PUSH1 0x0 DUP1 RETURNDATACOPY RETURNDATASIZE PUSH1 0x0 REVERT JUMPDEST POP POP POP POP PUSH1 0x40 MLOAD RETURNDATASIZE PUSH1 0x1F NOT PUSH1 0x1F DUP3 ADD AND DUP3 ADD DUP1 PUSH1 0x40 MSTORE POP DUP2 ADD SWAP1 PUSH2 0x435 SWAP2 SWAP1 PUSH2 0x8FD JUMP JUMPDEST PUSH2 0x479 JUMPI PUSH1 0x40 MLOAD PUSH3 0x461BCD PUSH1 0xE5 SHL DUP2 MSTORE PUSH1 0x20 PUSH1 0x4 DUP3 ADD MSTORE PUSH1 0x15 PUSH1 0x24 DUP3 ADD MSTORE PUSH21 0x115490CC8C081D1C985B9CD9995C8819985A5B1959 PUSH1 0x5A SHL PUSH1 0x44 DUP3 ADD MSTORE PUSH1 0x64 ADD PUSH2 0x1D3 JUMP JUMPDEST DUP4 DUP2 PUSH1 0x3 ADD PUSH1 0x0 DUP3 DUP3 SLOAD PUSH2 0x48D SWAP2 SWAP1 PUSH2 0x93C JUMP JUMPDEST SWAP3 POP POP DUP2 SWAP1 SSTORE POP DUP4 DUP2 PUSH1 0x4 ADD PUSH1 0x0 DUP3 DUP3 SLOAD PUSH2 0x4A8 SWAP2 SWAP1 PUSH2 0x953 JUMP JUMPDEST SWAP1 SWAP2 SSTORE POP POP PUSH1 0x40 MLOAD DUP5 DUP2 MSTORE PUSH1 0x1 PUSH1 0x1 PUSH1 0xA0 SHL SUB DUP7 AND SWAP1 DUP8 SWAP1 PUSH32 0x9DA6493A92039DAF47D1F2D7A782299C5994C6323EB1E972F69C432089EC52BF SWAP1 PUSH1 0x20 ADD PUSH1 0x40 MLOAD DUP1 SWAP2 SUB SWAP1 LOG3 POP POP POP POP POP POP JUMP JUMPDEST PUSH1 0x40 MLOAD DUP1 PUSH1 0xA0 ADD PUSH1 0x40 MSTORE DUP1 DUP6 DUP2 MSTORE PUSH1 0x20 ADD DUP5 DUP2 MSTORE PUSH1 0x20 ADD DUP4 PUSH1 0x1 PUSH1 0x1 PUSH1 0xA0 SHL SUB AND DUP2 MSTORE PUSH1 0x20 ADD PUSH1 0x0 DUP2 MSTORE PUSH1 0x20 ADD PUSH1 0x0 DUP2 MSTORE POP PUSH1 0x2 PUSH1 0x0 DUP1 PUSH1 0x0 DUP2 SLOAD PUSH2 0x539 SWAP1 PUSH2 0x96B JUMP JUMPDEST SWAP2 DUP3 SWAP1 SSTORE POP DUP2 MSTORE PUSH1 0x20 DUP1 DUP3 ADD SWAP3 SWAP1 SWAP3 MSTORE PUSH1 0x40 SWAP1 DUP2 ADD PUSH1 0x0 SWAP1 DUP2 KECCAK256 DUP5 MLOAD DUP2 SSTORE SWAP3 DUP5 ADD MLOAD PUSH1 0x1 DUP5 ADD SSTORE SWAP1 DUP4 ADD MLOAD PUSH1 0x2 DUP4 ADD DUP1 SLOAD PUSH1 0x1 PUSH1 0x1 PUSH1 0xA0 SHL SUB NOT AND PUSH1 0x1 PUSH1 0x1 PUSH1 0xA0 SHL SUB SWAP1 SWAP3 AND SWAP2 SWAP1 SWAP2 OR SWAP1 SSTORE PUSH1 0x60 DUP4 ADD MLOAD PUSH1 0x3 DUP4 ADD SSTORE PUSH1 0x80 SWAP1 SWAP3 ADD MLOAD PUSH1 0x4 SWAP1 SWAP2 ADD SSTORE SLOAD PUSH2 0x5A6 SWAP1 DUP3 PUSH2 0x5F4 JUMP JUMPDEST PUSH1 0x0 SLOAD PUSH1 0x40 DUP1 MLOAD DUP7 DUP2 MSTORE PUSH1 0x20 DUP2 ADD DUP7 SWAP1 MSTORE PUSH1 0x1 PUSH1 0x1 PUSH1 0xA0 SHL SUB DUP6 AND SWAP3 SWAP2 PUSH32 0x7247D7268297FD9FE23A535B70F414660BBCBBCD73AC0D9CE3C103A356A61F45 SWAP2 ADD PUSH1 0x40 MLOAD DUP1 SWAP2 SUB SWAP1 LOG3 POP POP POP POP JUMP JUMPDEST PUSH1 0x0 DUP3 DUP2 MSTORE PUSH1 0x2 PUSH1 0x20 DUP2 SWAP1 MSTORE PUSH1 0x40 SWAP2 DUP3 SWAP1 KECCAK256 SWAP1 DUP2 ADD SLOAD SWAP2 MLOAD PUSH4 0x23B872DD PUSH1 0xE0 SHL DUP2 MSTORE CALLER PUSH1 0x4 DUP3 ADD MSTORE ADDRESS PUSH1 0x24 DUP3 ADD MSTORE PUSH1 0x44 DUP2 ADD DUP5 SWAP1 MSTORE SWAP1 SWAP2 PUSH1 0x1 PUSH1 0x1 PUSH1 0xA0 SHL SUB AND SWAP1 PUSH4 0x23B872DD SWAP1 PUSH1 0x64 ADD PUSH1 0x20 PUSH1 0x40 MLOAD DUP1 DUP4 SUB DUP2 PUSH1 0x0 DUP8 DUP1 EXTCODESIZE ISZERO DUP1 ISZERO PUSH2 0x658 JUMPI PUSH1 0x0 DUP1 REVERT JUMPDEST POP GAS CALL ISZERO DUP1 ISZERO PUSH2 0x66C JUMPI RETURNDATASIZE PUSH1 0x0 DUP1 RETURNDATACOPY RETURNDATASIZE PUSH1 0x0 REVERT JUMPDEST POP POP POP POP PUSH1 0x40 MLOAD RETURNDATASIZE PUSH1 0x1F NOT PUSH1 0x1F DUP3 ADD AND DUP3 ADD DUP1 PUSH1 0x40 MSTORE POP DUP2 ADD SWAP1 PUSH2 0x690 SWAP2 SWAP1 PUSH2 0x8FD JUMP JUMPDEST PUSH2 0x6D4 JUMPI PUSH1 0x40 MLOAD PUSH3 0x461BCD PUSH1 0xE5 SHL DUP2 MSTORE PUSH1 0x20 PUSH1 0x4 DUP3 ADD MSTORE PUSH1 0x15 PUSH1 0x24 DUP3 ADD MSTORE PUSH21 0x115490CC8C081D1C985B9CD9995C8819985A5B1959 PUSH1 0x5A SHL PUSH1 0x44 DUP3 ADD MSTORE PUSH1 0x64 ADD PUSH2 0x1D3 JUMP JUMPDEST DUP2 DUP2 PUSH1 0x3 ADD PUSH1 0x0 DUP3 DUP3 SLOAD PUSH2 0x6E8 SWAP2 SWAP1 PUSH2 0x953 JUMP JUMPDEST SWAP1 SWAP2 SSTORE POP POP POP POP POP JUMP JUMPDEST DUP1 CALLDATALOAD PUSH1 0x1 PUSH1 0x1 PUSH1 0xA0 SHL SUB DUP2 AND DUP2 EQ PUSH2 0x709 JUMPI PUSH1 0x0 DUP1 REVERT JUMPDEST SWAP2 SWAP1 POP JUMP JUMPDEST PUSH4 0x4E487B71 PUSH1 0xE0 SHL PUSH1 0x0 MSTORE PUSH1 0x41 PUSH1 0x4 MSTORE PUSH1 0x24 PUSH1 0x0 REVERT JUMPDEST PUSH1 0x0 DUP1 PUSH1 0x0 DUP1 PUSH1 0x80 DUP6 DUP8 SUB SLT ISZERO PUSH2 0x73A JUMPI PUSH1 0x0 DUP1 REVERT JUMPDEST DUP5 CALLDATALOAD SWAP4 POP PUSH1 0x20 PUSH2 0x74B DUP2 DUP8 ADD PUSH2 0x6F2 JUMP JUMPDEST SWAP4 POP PUSH1 0x40 DUP7 ADD CALLDATALOAD SWAP3 POP PUSH1 0x60 DUP7 ADD CALLDATALOAD PUSH8 0xFFFFFFFFFFFFFFFF DUP1 DUP3 GT ISZERO PUSH2 0x76F JUMPI PUSH1 0x0 DUP1 REVERT JUMPDEST DUP2 DUP9 ADD SWAP2 POP DUP9 PUSH1 0x1F DUP4 ADD SLT PUSH2 0x783 JUMPI PUSH1 0x0 DUP1 REVERT JUMPDEST DUP2 CALLDATALOAD DUP2 DUP2 GT ISZERO PUSH2 0x795 JUMPI PUSH2 0x795 PUSH2 0x70E JUMP JUMPDEST DUP1 PUSH1 0x5 SHL PUSH1 0x40 MLOAD PUSH1 0x1F NOT PUSH1 0x3F DUP4 ADD AND DUP2 ADD DUP2 DUP2 LT DUP6 DUP3 GT OR ISZERO PUSH2 0x7BA JUMPI PUSH2 0x7BA PUSH2 0x70E JUMP JUMPDEST PUSH1 0x40 MSTORE SWAP2 DUP3 MSTORE DUP5 DUP3 ADD SWAP3 POP DUP4 DUP2 ADD DUP6 ADD SWAP2 DUP12 DUP4 GT ISZERO PUSH2 0x7D8 JUMPI PUSH1 0x0 DUP1 REVERT JUMPDEST SWAP4 DUP6 ADD SWAP4 JUMPDEST DUP3 DUP6 LT ISZERO PUSH2 0x7F6 JUMPI DUP5 CALLDATALOAD DUP5 MSTORE SWAP4 DUP6 ADD SWAP4 SWAP3 DUP6 ADD SWAP3 PUSH2 0x7DD JUMP JUMPDEST SWAP9 SWAP12 SWAP8 SWAP11 POP SWAP6 SWAP9 POP POP POP POP POP POP POP JUMP JUMPDEST PUSH1 0x0 DUP1 PUSH1 0x40 DUP4 DUP6 SUB SLT ISZERO PUSH2 0x819 JUMPI PUSH1 0x0 DUP1 REVERT JUMPDEST PUSH2 0x822 DUP4 PUSH2 0x6F2 JUMP JUMPDEST SWAP5 PUSH1 0x20 SWAP4 SWAP1 SWAP4 ADD CALLDATALOAD SWAP4 POP POP POP JUMP JUMPDEST PUSH1 0x0 PUSH1 0x20 DUP3 DUP5 SUB SLT ISZERO PUSH2 0x842 JUMPI PUSH1 0x0 DUP1 REVERT JUMPDEST POP CALLDATALOAD SWAP2 SWAP1 POP JUMP JUMPDEST PUSH1 0x0 DUP1 PUSH1 0x0 DUP1 PUSH1 0x80 DUP6 DUP8 SUB SLT ISZERO PUSH2 0x85F JUMPI PUSH1 0x0 DUP1 REVERT JUMPDEST DUP5 CALLDATALOAD SWAP4 POP PUSH1 0x20 DUP6 ADD CALLDATALOAD SWAP3 POP PUSH2 0x876 PUSH1 0x40 DUP7 ADD PUSH2 0x6F2 JUMP JUMPDEST SWAP4 SWAP7 SWAP3 SWAP6 POP SWAP3 SWAP4 PUSH1 0x60 ADD CALLDATALOAD SWAP3 POP POP JUMP JUMPDEST PUSH1 0x0 DUP1 PUSH1 0x40 DUP4 DUP6 SUB SLT ISZERO PUSH2 0x899 JUMPI PUSH1 0x0 DUP1 REVERT JUMPDEST POP POP DUP1 CALLDATALOAD SWAP3 PUSH1 0x20 SWAP1 SWAP2 ADD CALLDATALOAD SWAP2 POP JUMP JUMPDEST PUSH1 0x0 PUSH1 0x60 DUP3 ADD DUP6 DUP4 MSTORE PUSH1 0x20 DUP6 DUP2 DUP6 ADD MSTORE PUSH1 0x60 PUSH1 0x40 DUP6 ADD MSTORE DUP2 DUP6 MLOAD DUP1 DUP5 MSTORE PUSH1 0x80 DUP7 ADD SWAP2 POP DUP3 DUP8 ADD SWAP4 POP PUSH1 0x0 JUMPDEST DUP2 DUP2 LT ISZERO PUSH2 0x8EF JUMPI DUP5 MLOAD DUP4 MSTORE SWAP4 DUP4 ADD SWAP4 SWAP2 DUP4 ADD SWAP2 PUSH1 0x1 ADD PUSH2 0x8D3 JUMP JUMPDEST POP SWAP1 SWAP9 SWAP8 POP POP POP POP POP POP POP POP JUMP JUMPDEST PUSH1 0x0 PUSH1 0x20 DUP3 DUP5 SUB SLT ISZERO PUSH2 0x90F JUMPI PUSH1 0x0 DUP1 REVERT JUMPDEST DUP2 MLOAD DUP1 ISZERO ISZERO DUP2 EQ PUSH2 0x91F JUMPI PUSH1 0x0 DUP1 REVERT JUMPDEST SWAP4 SWAP3 POP POP POP JUMP JUMPDEST PUSH4 0x4E487B71 PUSH1 0xE0 SHL PUSH1 0x0 MSTORE PUSH1 0x11 PUSH1 0x4 MSTORE PUSH1 0x24 PUSH1 0x0 REVERT JUMPDEST PUSH1 0x0 DUP3 DUP3 LT ISZERO PUSH2 0x94E JUMPI PUSH2 0x94E PUSH2 0x926 JUMP JUMPDEST POP SUB SWAP1 JUMP JUMPDEST PUSH1 0x0 DUP3 NOT DUP3 GT ISZERO PUSH2 0x966 JUMPI PUSH2 0x966 PUSH2 0x926 JUMP JUMPDEST POP ADD SWAP1 JUMP JUMPDEST PUSH1 0x0 PUSH1 0x0 NOT DUP3 EQ ISZERO PUSH2 0x97F JUMPI PUSH2 0x97F PUSH2 0x926 JUMP JUMPDEST POP PUSH1 0x1 ADD SWAP1 JUMP INVALID LOG2 PUSH5 0x6970667358 0x22 SLT KECCAK256 LOG2 0xC1 0xC6 DUP6 0xD3 PUSH6 0xF672FB1D2FCB 0x24 0xB7 EXTCODEHASH SWAP12 0xAE 0x5F 0x2B PUSH30 0x650E70F1E0D2607A69A5EDF864736F6C6343000809003300000000000000 ",
  "sha1": "8c252e7db6d6d7e14f0801272105d5c97cf02249",
  "source": "// SPDX-License-Identifier: GPL-3.0-only\n\npragma solidity 0.8.9;\n\nimport \"../interfaces/IERC20.sol\";\nimport \"./MerkleLib.sol\";\n\ncontract MerkleDropFactory {\n    using MerkleLib for bytes32;\n\n    uint public numTrees = 0;\n\n    struct MerkleTree {\n        bytes32 merkleRoot;\n        bytes32 ipfsHash;\n        address tokenAddress;\n        uint tokenBalance;\n        uint spentTokens;\n    }\n\n    mapping (address => mapping (uint => bool)) public withdrawn;\n    mapping (uint => MerkleTree) public merkleTrees;\n\n    event Withdraw(uint indexed merkleIndex, address indexed recipient, uint value);\n    event MerkleTreeAdded(uint indexed index, address indexed tokenAddress, bytes32 newRoot, bytes32 ipfsHash);\n\n    function addMerkleTree(bytes32 newRoot, bytes32 ipfsHash, address depositToken, uint tokenBalance) public {\n        merkleTrees[++numTrees] = MerkleTree(\n            newRoot,\n            ipfsHash,\n            depositToken,\n            0,\n            0\n        );\n        depositTokens(numTrees, tokenBalance);\n        emit MerkleTreeAdded(numTrees, depositToken, newRoot, ipfsHash);\n    }\n\n    function depositTokens(uint numTree, uint value) public {\n        MerkleTree storage merkleTree = merkleTrees[numTree];\n        require(IERC20(merkleTree.tokenAddress).transferFrom(msg.sender, address(this), value), \"ERC20 transfer failed\");\n        merkleTree.tokenBalance += value;\n    }\n\n    function withdraw(uint merkleIndex, address walletAddress, uint value, bytes32[] memory proof) public {\n        require(merkleIndex <= numTrees, \"Provided merkle index doesn't exist\");\n        require(!withdrawn[walletAddress][merkleIndex], \"You have already withdrawn your entitled token.\");\n        bytes32 leaf = keccak256(abi.encode(walletAddress, value));\n        MerkleTree storage tree = merkleTrees[merkleIndex];\n        require(tree.merkleRoot.verifyProof(leaf, proof), \"The proof could not be verified.\");\n        withdrawn[walletAddress][merkleIndex] = true;\n        require(IERC20(tree.tokenAddress).transfer(walletAddress, value), \"ERC20 transfer failed\");\n        tree.tokenBalance -= value;\n        tree.spentTokens += value;\n        emit Withdraw(merkleIndex, walletAddress, value);\n    }\n\n}",
  "sourcePath": "contracts/MerkleDropFactory.sol",
  "type": "contract"
}