{
  "abi": [
    {
      "inputs": [
        {
          "internalType": "bytes32",
          "name": "root",
          "type": "bytes32"
        },
        {
          "internalType": "bytes32",
          "name": "leaf",
          "type": "bytes32"
        },
        {
          "internalType": "bytes32[]",
          "name": "proof",
          "type": "bytes32[]"
        }
      ],
      "name": "verifyProof",
      "outputs": [
        {
          "internalType": "bool",
          "name": "",
          "type": "bool"
        }
      ],
      "stateMutability": "pure",
      "type": "function"
    }
  ],
  "bytecode": "6101db61003a600b82828239805160001a60731461002d57634e487b7160e01b600052600060045260246000fd5b30600052607381538281f3fe73000000000000000000000000000000000000000030146080604052600436106100355760003560e01c80639da7347c1461003a575b600080fd5b61004d61004836600461010c565b610061565b604051901515815260200160405180910390f35b60008382825b8181101561009b57610091838787848181106100855761008561018f565b905060200201356100a8565b9250600101610067565b5050909414949350505050565b60008183106100d95760408051602081018490529081018490526060016040516020818303038152906040526100fd565b60408051602081018590529081018390526060016040516020818303038152906040525b80519060200120905092915050565b6000806000806060858703121561012257600080fd5b8435935060208501359250604085013567ffffffffffffffff8082111561014857600080fd5b818701915087601f83011261015c57600080fd5b81358181111561016b57600080fd5b8860208260051b850101111561018057600080fd5b95989497505060200194505050565b634e487b7160e01b600052603260045260246000fdfea2646970667358221220402763657c3f9f33fc7cbb07fbeefcc266276d47a63657e04f378fb0159b048364736f6c634300080c0033",
  "bytecodeSha1": "5b4155282ebef0ad2bc18486f9bc0c9c9d8a76d9",
  "compiler": {
    "evm_version": "istanbul",
    "optimizer": {
      "enabled": true,
      "runs": 200
    },
    "version": "0.8.12+commit.f00d7308"
  },
  "contractName": "MerkleLib",
  "language": "Solidity",
  "natspec": {
    "kind": "dev",
    "methods": {},
    "version": 1
  },
  "opcodes": "PUSH20 0x0 ADDRESS EQ PUSH1 0x80 PUSH1 0x40 MSTORE PUSH1 0x4 CALLDATASIZE LT PUSH2 0x35 JUMPI PUSH1 0x0 CALLDATALOAD PUSH1 0xE0 SHR DUP1 PUSH4 0x9DA7347C EQ PUSH2 0x3A JUMPI JUMPDEST PUSH1 0x0 DUP1 REVERT JUMPDEST PUSH2 0x4D PUSH2 0x48 CALLDATASIZE PUSH1 0x4 PUSH2 0x10C JUMP JUMPDEST PUSH2 0x61 JUMP JUMPDEST PUSH1 0x40 MLOAD SWAP1 ISZERO ISZERO DUP2 MSTORE PUSH1 0x20 ADD PUSH1 0x40 MLOAD DUP1 SWAP2 SUB SWAP1 RETURN JUMPDEST PUSH1 0x0 DUP4 DUP3 DUP3 JUMPDEST DUP2 DUP2 LT ISZERO PUSH2 0x9B JUMPI PUSH2 0x91 DUP4 DUP8 DUP8 DUP5 DUP2 DUP2 LT PUSH2 0x85 JUMPI PUSH2 0x85 PUSH2 0x18F JUMP JUMPDEST SWAP1 POP PUSH1 0x20 MUL ADD CALLDATALOAD PUSH2 0xA8 JUMP JUMPDEST SWAP3 POP PUSH1 0x1 ADD PUSH2 0x67 JUMP JUMPDEST POP POP SWAP1 SWAP5 EQ SWAP5 SWAP4 POP POP POP POP JUMP JUMPDEST PUSH1 0x0 DUP2 DUP4 LT PUSH2 0xD9 JUMPI PUSH1 0x40 DUP1 MLOAD PUSH1 0x20 DUP2 ADD DUP5 SWAP1 MSTORE SWAP1 DUP2 ADD DUP5 SWAP1 MSTORE PUSH1 0x60 ADD PUSH1 0x40 MLOAD PUSH1 0x20 DUP2 DUP4 SUB SUB DUP2 MSTORE SWAP1 PUSH1 0x40 MSTORE PUSH2 0xFD JUMP JUMPDEST PUSH1 0x40 DUP1 MLOAD PUSH1 0x20 DUP2 ADD DUP6 SWAP1 MSTORE SWAP1 DUP2 ADD DUP4 SWAP1 MSTORE PUSH1 0x60 ADD PUSH1 0x40 MLOAD PUSH1 0x20 DUP2 DUP4 SUB SUB DUP2 MSTORE SWAP1 PUSH1 0x40 MSTORE JUMPDEST DUP1 MLOAD SWAP1 PUSH1 0x20 ADD KECCAK256 SWAP1 POP SWAP3 SWAP2 POP POP JUMP JUMPDEST PUSH1 0x0 DUP1 PUSH1 0x0 DUP1 PUSH1 0x60 DUP6 DUP8 SUB SLT ISZERO PUSH2 0x122 JUMPI PUSH1 0x0 DUP1 REVERT JUMPDEST DUP5 CALLDATALOAD SWAP4 POP PUSH1 0x20 DUP6 ADD CALLDATALOAD SWAP3 POP PUSH1 0x40 DUP6 ADD CALLDATALOAD PUSH8 0xFFFFFFFFFFFFFFFF DUP1 DUP3 GT ISZERO PUSH2 0x148 JUMPI PUSH1 0x0 DUP1 REVERT JUMPDEST DUP2 DUP8 ADD SWAP2 POP DUP8 PUSH1 0x1F DUP4 ADD SLT PUSH2 0x15C JUMPI PUSH1 0x0 DUP1 REVERT JUMPDEST DUP2 CALLDATALOAD DUP2 DUP2 GT ISZERO PUSH2 0x16B JUMPI PUSH1 0x0 DUP1 REVERT JUMPDEST DUP9 PUSH1 0x20 DUP3 PUSH1 0x5 SHL DUP6 ADD ADD GT ISZERO PUSH2 0x180 JUMPI PUSH1 0x0 DUP1 REVERT JUMPDEST SWAP6 SWAP9 SWAP5 SWAP8 POP POP PUSH1 0x20 ADD SWAP5 POP POP POP JUMP JUMPDEST PUSH4 0x4E487B71 PUSH1 0xE0 SHL PUSH1 0x0 MSTORE PUSH1 0x32 PUSH1 0x4 MSTORE PUSH1 0x24 PUSH1 0x0 REVERT INVALID LOG2 PUSH5 0x6970667358 0x22 SLT KECCAK256 BLOCKHASH 0x27 PUSH4 0x657C3F9F CALLER 0xFC PUSH29 0xBB07FBEEFCC266276D47A63657E04F378FB0159B048364736F6C634300 ADDMOD 0xC STOP CALLER ",
  "sha1": "992bc833537ac194451124ae12a3a1c4210790c3",
  "source": "// SPDX-License-Identifier: GPL-3.0-only\n\npragma solidity 0.8.12;\n\nlibrary MerkleLib {\n\n    function verifyProof(bytes32 root, bytes32 leaf, bytes32[] calldata proof) public pure returns (bool) {\n        bytes32 currentHash = leaf;\n\n        uint proofLength = proof.length;\n        for (uint i; i < proofLength;) {\n            currentHash = parentHash(currentHash, proof[i]);\n            unchecked { ++i; }\n        }\n\n        return currentHash == root;\n    }\n\n    function parentHash(bytes32 a, bytes32 b) private pure returns (bytes32) {\n        return keccak256(a < b ? abi.encode(a, b) : abi.encode(b, a));\n    }\n\n}\n",
  "sourcePath": "contracts/MerkleLib.sol",
  "type": "library"
}