{
  "abi": [
    {
      "inputs": [
        {
          "internalType": "address",
          "name": "mgmt",
          "type": "address"
        }
      ],
      "stateMutability": "nonpayable",
      "type": "constructor"
    },
    {
      "anonymous": false,
      "inputs": [
        {
          "indexed": false,
          "internalType": "address",
          "name": "oldManagement",
          "type": "address"
        },
        {
          "indexed": false,
          "internalType": "address",
          "name": "newManagement",
          "type": "address"
        }
      ],
      "name": "ManagementUpdated",
      "type": "event"
    },
    {
      "anonymous": false,
      "inputs": [
        {
          "indexed": true,
          "internalType": "uint256",
          "name": "index",
          "type": "uint256"
        },
        {
          "indexed": true,
          "internalType": "address",
          "name": "tokenAddress",
          "type": "address"
        },
        {
          "indexed": false,
          "internalType": "bytes32",
          "name": "newRoot",
          "type": "bytes32"
        },
        {
          "indexed": false,
          "internalType": "bytes32",
          "name": "ipfsHash",
          "type": "bytes32"
        }
      ],
      "name": "MerkleTreeAdded",
      "type": "event"
    },
    {
      "anonymous": false,
      "inputs": [
        {
          "indexed": true,
          "internalType": "address",
          "name": "destination",
          "type": "address"
        },
        {
          "indexed": false,
          "internalType": "uint256",
          "name": "numTokens",
          "type": "uint256"
        },
        {
          "indexed": false,
          "internalType": "uint256",
          "name": "tokensLeft",
          "type": "uint256"
        },
        {
          "indexed": true,
          "internalType": "uint256",
          "name": "merkleIndex",
          "type": "uint256"
        }
      ],
      "name": "WithdrawalOccurred",
      "type": "event"
    },
    {
      "inputs": [],
      "name": "ERROR_TOLERANCE",
      "outputs": [
        {
          "internalType": "uint256",
          "name": "",
          "type": "uint256"
        }
      ],
      "stateMutability": "view",
      "type": "function"
    },
    {
      "inputs": [],
      "name": "PRECISION",
      "outputs": [
        {
          "internalType": "uint256",
          "name": "",
          "type": "uint256"
        }
      ],
      "stateMutability": "view",
      "type": "function"
    },
    {
      "inputs": [
        {
          "internalType": "bytes32",
          "name": "newRoot",
          "type": "bytes32"
        },
        {
          "internalType": "bytes32",
          "name": "ipfsHash",
          "type": "bytes32"
        },
        {
          "internalType": "uint256",
          "name": "minEndTime",
          "type": "uint256"
        },
        {
          "internalType": "uint256",
          "name": "maxEndTime",
          "type": "uint256"
        },
        {
          "internalType": "uint256",
          "name": "pctUpFront",
          "type": "uint256"
        },
        {
          "internalType": "address",
          "name": "depositToken",
          "type": "address"
        }
      ],
      "name": "addMerkleTree",
      "outputs": [],
      "stateMutability": "nonpayable",
      "type": "function"
    },
    {
      "inputs": [],
      "name": "initialBalance",
      "outputs": [
        {
          "internalType": "uint256",
          "name": "",
          "type": "uint256"
        }
      ],
      "stateMutability": "view",
      "type": "function"
    },
    {
      "inputs": [
        {
          "internalType": "uint256",
          "name": "merkleIndex",
          "type": "uint256"
        },
        {
          "internalType": "address",
          "name": "destination",
          "type": "address"
        },
        {
          "internalType": "uint256",
          "name": "vestingTime",
          "type": "uint256"
        },
        {
          "internalType": "uint256",
          "name": "minTotalPayments",
          "type": "uint256"
        },
        {
          "internalType": "uint256",
          "name": "maxTotalPayments",
          "type": "uint256"
        },
        {
          "internalType": "bytes32[]",
          "name": "proof",
          "type": "bytes32[]"
        }
      ],
      "name": "initialize",
      "outputs": [],
      "stateMutability": "nonpayable",
      "type": "function"
    },
    {
      "inputs": [
        {
          "internalType": "address",
          "name": "",
          "type": "address"
        },
        {
          "internalType": "uint256",
          "name": "",
          "type": "uint256"
        }
      ],
      "name": "initialized",
      "outputs": [
        {
          "internalType": "bool",
          "name": "",
          "type": "bool"
        }
      ],
      "stateMutability": "view",
      "type": "function"
    },
    {
      "inputs": [],
      "name": "management",
      "outputs": [
        {
          "internalType": "address",
          "name": "",
          "type": "address"
        }
      ],
      "stateMutability": "view",
      "type": "function"
    },
    {
      "inputs": [
        {
          "internalType": "uint256",
          "name": "",
          "type": "uint256"
        }
      ],
      "name": "merkleTrees",
      "outputs": [
        {
          "internalType": "bytes32",
          "name": "merkleRoot",
          "type": "bytes32"
        },
        {
          "internalType": "bytes32",
          "name": "ipfsHash",
          "type": "bytes32"
        },
        {
          "internalType": "uint256",
          "name": "minEndTime",
          "type": "uint256"
        },
        {
          "internalType": "uint256",
          "name": "maxEndTime",
          "type": "uint256"
        },
        {
          "internalType": "uint256",
          "name": "pctUpFront",
          "type": "uint256"
        },
        {
          "internalType": "address",
          "name": "tokenAddress",
          "type": "address"
        }
      ],
      "stateMutability": "view",
      "type": "function"
    },
    {
      "inputs": [],
      "name": "numTrees",
      "outputs": [
        {
          "internalType": "uint256",
          "name": "",
          "type": "uint256"
        }
      ],
      "stateMutability": "view",
      "type": "function"
    },
    {
      "inputs": [
        {
          "internalType": "address",
          "name": "newMgmt",
          "type": "address"
        }
      ],
      "name": "setManagement",
      "outputs": [],
      "stateMutability": "nonpayable",
      "type": "function"
    },
    {
      "inputs": [
        {
          "internalType": "address",
          "name": "",
          "type": "address"
        },
        {
          "internalType": "uint256",
          "name": "",
          "type": "uint256"
        }
      ],
      "name": "tranches",
      "outputs": [
        {
          "internalType": "uint256",
          "name": "totalCoins",
          "type": "uint256"
        },
        {
          "internalType": "uint256",
          "name": "currentCoins",
          "type": "uint256"
        },
        {
          "internalType": "uint256",
          "name": "startTime",
          "type": "uint256"
        },
        {
          "internalType": "uint256",
          "name": "endTime",
          "type": "uint256"
        },
        {
          "internalType": "uint256",
          "name": "coinsPerSecond",
          "type": "uint256"
        },
        {
          "internalType": "uint256",
          "name": "lastWithdrawalTime",
          "type": "uint256"
        }
      ],
      "stateMutability": "view",
      "type": "function"
    },
    {
      "inputs": [
        {
          "internalType": "uint256",
          "name": "merkleIndex",
          "type": "uint256"
        },
        {
          "internalType": "uint256",
          "name": "vestingTime",
          "type": "uint256"
        },
        {
          "internalType": "uint256",
          "name": "minTotalPayments",
          "type": "uint256"
        },
        {
          "internalType": "uint256",
          "name": "maxTotalPayments",
          "type": "uint256"
        }
      ],
      "name": "verifyVestingSchedule",
      "outputs": [
        {
          "internalType": "bool",
          "name": "",
          "type": "bool"
        },
        {
          "internalType": "uint256",
          "name": "",
          "type": "uint256"
        },
        {
          "internalType": "uint256",
          "name": "",
          "type": "uint256"
        },
        {
          "internalType": "uint256",
          "name": "",
          "type": "uint256"
        }
      ],
      "stateMutability": "view",
      "type": "function"
    },
    {
      "inputs": [
        {
          "internalType": "uint256",
          "name": "merkleIndex",
          "type": "uint256"
        },
        {
          "internalType": "address",
          "name": "destination",
          "type": "address"
        }
      ],
      "name": "withdraw",
      "outputs": [],
      "stateMutability": "nonpayable",
      "type": "function"
    }
  ],
  "bytecode": "60806040526000805534801561001457600080fd5b5060405161116e38038061116e83398101604081905261003391610058565b600280546001600160a01b0319166001600160a01b0392909216919091179055610088565b60006020828403121561006a57600080fd5b81516001600160a01b038116811461008157600080fd5b9392505050565b6110d7806100976000396000f3fe608060405234801561001057600080fd5b50600436106100ce5760003560e01c806385d88cb11161008c578063aaf5eb6811610066578063aaf5eb6814610248578063c26cb54f14610252578063d4a22bde146102ca578063f287ad04146102dd57600080fd5b806385d88cb11461015d57806386bb8249146101df57806388a8d6021461021d57600080fd5b8062f714ce146100d35780630997eaa1146100e857806318369a2a146100fb5780632811e25314610117578063390b7c661461011f5780636fb6ec4114610128575b600080fd5b6100e66100e1366004610d69565b6102f0565b005b6100e66100f6366004610d95565b610576565b61010460015481565b6040519081526020015b60405180910390f35b610104600181565b61010460005481565b61013b610136366004610de6565b610768565b604080519415158552602085019390935291830152606082015260800161010e565b6101a961016b366004610e18565b60046020819052600091825260409091208054600182015460028301546003840154948401546005909401549294919390926001600160a01b031686565b60408051968752602087019590955293850192909252606084015260808301526001600160a01b031660a082015260c00161010e565b61020d6101ed366004610e31565b600360209081526000928352604080842090915290825290205460ff1681565b604051901515815260200161010e565b600254610230906001600160a01b031681565b6040516001600160a01b03909116815260200161010e565b610104620f424081565b61029d610260366004610e31565b6005602081815260009384526040808520909152918352912080546001820154600283015460038401546004850154949095015492949193909286565b604080519687526020870195909552938501929092526060840152608083015260a082015260c00161010e565b6100e66102d8366004610e5b565b610905565b6100e66102eb366004610e93565b6109c0565b6001600160a01b038116600090815260036020908152604080832085845290915290205460ff166103785760405162461bcd60e51b815260206004820152602760248201527f596f75206d75737420696e697469616c697a6520796f7572206163636f756e74604482015266103334b939ba1760c91b60648201526084015b60405180910390fd5b6001600160a01b0380821660009081526005602081815260408084208785528252808420600480845294829020825160c081018452815481526001808301549582019590955260028201549381019390935260038101546060840152948501546080830152939092015490931660a08201529181015490919061043d5760405162461bcd60e51b815260206004820152601960248201527f4e6f20636f696e73206c65667420746f20776974686472617700000000000000604482015260640161036f565b60008260030154421061045557506001820154610476565b600483015460058401546104699042610f9f565b6104739190610fb6565b90505b8083600101600082825461048a9190610f9f565b909155505042600584015560a082015160405163a9059cbb60e01b81526001600160a01b038681166004830152602482018490529091169063a9059cbb90604401602060405180830381600087803b1580156104e557600080fd5b505af11580156104f9573d6000803e3d6000fd5b505050506040513d601f19601f8201168201806040525081019061051d9190610fd5565b5084846001600160a01b03167f5ffb4b63dec15ba26308386f1d5ca61843b29ba365511062a887d95aa27532d3838660010154604051610567929190918252602082015260400190565b60405180910390a35050505050565b6002546001600160a01b031633146105d05760405162461bcd60e51b815260206004820152601d60248201527f4f6e6c79206d616e6167656d656e74206d61792063616c6c2074686973000000604482015260640161036f565b606482106106145760405162461bcd60e51b81526020600482015260116024820152700706374557046726f6e74203e3d2031303607c1b604482015260640161036f565b8284106106735760405162461bcd60e51b815260206004820152602760248201527f6d696e456e6454696d65206d757374206265206c657373207468616e206d6178604482015266456e6454696d6560c81b606482015260840161036f565b6040518060c00160405280878152602001868152602001858152602001848152602001838152602001826001600160a01b03168152506004600080600081546106bb90610ff7565b918290555081526020808201929092526040908101600090812084518155848401516001820155848301516002820155606085015160038201556080850151600482015560a090940151600590940180546001600160a01b0319166001600160a01b039586161790555481518a815292830189905292841692917f7247d7268297fd9fe23a535b70f414660bbcbbcd73ac0d9ce3c103a356a61f45910160405180910390a3505050505050565b600080600080600054881115610789575060009250829150819050806108fa565b600088815260046020818152604092839020835160c081018552815481526001820154928101929092526002810154938201939093526003830154606082018190529183015460808201526005909201546001600160a01b031660a08301528811806107f85750806040015188105b15610811576000806000809450945094509450506108fa565b60008160600151891415610826575085610897565b60008260400151836060015161083c9190610f9f565b620f424061084a8b8b610f9f565b6108549190610fb6565b61085e9190611012565b905088620f424084604001518c6108759190610f9f565b61087f9084610fb6565b6108899190611012565b6108939190611034565b9150505b60006108a48a6064610fb6565b60808401516108b4906064610f9f565b6108be9084610fb6565b6108c89190611012565b905060006108d68284611012565b6108e08c42611034565b6108ea9190610f9f565b6001985092965090945090925050505b945094509450949050565b6002546001600160a01b0316331461095f5760405162461bcd60e51b815260206004820152601d60248201527f4f6e6c79206d616e6167656d656e74206d61792063616c6c2074686973000000604482015260640161036f565b600280546001600160a01b038381166001600160a01b031983168117909355604080519190921680825260208201939093527f8caf0a9df2e1da9becb3ebfb8a56e83121a5b3f6c5622f715a939ec29c54dfdf910160405180910390a15050565b336001600160a01b03861614610a245760405162461bcd60e51b8152602060048201526024808201527f43616e206f6e6c7920696e697469616c697a6520796f7572206f776e207472616044820152636e63686560e01b606482015260840161036f565b6001600160a01b038516600090815260036020908152604080832089845290915290205460ff1615610a8e5760405162461bcd60e51b8152602060048201526013602482015272105b1c9958591e481a5b9a5d1a585b1a5e9959606a1b604482015260640161036f565b604080516001600160a01b03871660208201529081018490526060810183905260009060800160408051601f19818403018152828252805160209182012060008b815260048084529084902060c086018552805480875260018201549487019490945260028101548686015260038101546060870152808201546080870152600501546001600160a01b031660a08601529251632769cd1f60e21b815290945073__MerkleLib_____________________________92639da7347c92610b5a929091879189910161104c565b60206040518083038186803b158015610b7257600080fd5b505af4158015610b86573d6000803e3d6000fd5b505050506040513d601f19601f82011682018060405250810190610baa9190610fd5565b610bf65760405162461bcd60e51b815260206004820181905260248201527f5468652070726f6f6620636f756c64206e6f742062652076657269666965642e604482015260640161036f565b6001600160a01b03871660009081526003602090815260408083208b84529091528120805460ff19166001179055808080610c338c8b8b8b610768565b935093509350935083610c885760405162461bcd60e51b815260206004820152601860248201527f496e76616c69642076657374696e67207363686564756c650000000000000000604482015260640161036f565b6040518060c001604052808481526020018481526020018281526020018b42610cb19190611034565b815260200183815260200182815250600560008d6001600160a01b03166001600160a01b0316815260200190815260200160002060008e8152602001908152602001600020600082015181600001556020820151816001015560408201518160020155606082015181600301556080820151816004015560a08201518160050155905050610d3f8c8c6102f0565b505050505050505050505050565b80356001600160a01b0381168114610d6457600080fd5b919050565b60008060408385031215610d7c57600080fd5b82359150610d8c60208401610d4d565b90509250929050565b60008060008060008060c08789031215610dae57600080fd5b8635955060208701359450604087013593506060870135925060808701359150610dda60a08801610d4d565b90509295509295509295565b60008060008060808587031215610dfc57600080fd5b5050823594602084013594506040840135936060013592509050565b600060208284031215610e2a57600080fd5b5035919050565b60008060408385031215610e4457600080fd5b610e4d83610d4d565b946020939093013593505050565b600060208284031215610e6d57600080fd5b610e7682610d4d565b9392505050565b634e487b7160e01b600052604160045260246000fd5b60008060008060008060c08789031215610eac57600080fd5b863595506020610ebd818901610d4d565b955060408801359450606088013593506080880135925060a088013567ffffffffffffffff80821115610eef57600080fd5b818a0191508a601f830112610f0357600080fd5b813581811115610f1557610f15610e7d565b8060051b604051601f19603f83011681018181108582111715610f3a57610f3a610e7d565b60405291825284820192508381018501918d831115610f5857600080fd5b938501935b82851015610f7657843584529385019392850192610f5d565b8096505050505050509295509295509295565b634e487b7160e01b600052601160045260246000fd5b600082821015610fb157610fb1610f89565b500390565b6000816000190483118215151615610fd057610fd0610f89565b500290565b600060208284031215610fe757600080fd5b81518015158114610e7657600080fd5b600060001982141561100b5761100b610f89565b5060010190565b60008261102f57634e487b7160e01b600052601260045260246000fd5b500490565b6000821982111561104757611047610f89565b500190565b6000606082018583526020858185015260606040850152818551808452608086019150828701935060005b8181101561109357845183529383019391830191600101611077565b50909897505050505050505056fea264697066735822122085bef4f066fbb3ecb3ad105c2c0625527ba744d20178cffe6696abacabb47bac64736f6c63430008090033",
  "bytecodeSha1": "cbff46221279f88b7be162b4e294dbe606a2395e",
  "compiler": {
    "evm_version": "istanbul",
    "optimizer": {
      "enabled": true,
      "runs": 200
    },
    "version": "0.8.9+commit.e5eed63a"
  },
  "contractName": "MerkleResistor",
  "deployedBytecode": "608060405234801561001057600080fd5b50600436106100ce5760003560e01c806385d88cb11161008c578063aaf5eb6811610066578063aaf5eb6814610248578063c26cb54f14610252578063d4a22bde146102ca578063f287ad04146102dd57600080fd5b806385d88cb11461015d57806386bb8249146101df57806388a8d6021461021d57600080fd5b8062f714ce146100d35780630997eaa1146100e857806318369a2a146100fb5780632811e25314610117578063390b7c661461011f5780636fb6ec4114610128575b600080fd5b6100e66100e1366004610d69565b6102f0565b005b6100e66100f6366004610d95565b610576565b61010460015481565b6040519081526020015b60405180910390f35b610104600181565b61010460005481565b61013b610136366004610de6565b610768565b604080519415158552602085019390935291830152606082015260800161010e565b6101a961016b366004610e18565b60046020819052600091825260409091208054600182015460028301546003840154948401546005909401549294919390926001600160a01b031686565b60408051968752602087019590955293850192909252606084015260808301526001600160a01b031660a082015260c00161010e565b61020d6101ed366004610e31565b600360209081526000928352604080842090915290825290205460ff1681565b604051901515815260200161010e565b600254610230906001600160a01b031681565b6040516001600160a01b03909116815260200161010e565b610104620f424081565b61029d610260366004610e31565b6005602081815260009384526040808520909152918352912080546001820154600283015460038401546004850154949095015492949193909286565b604080519687526020870195909552938501929092526060840152608083015260a082015260c00161010e565b6100e66102d8366004610e5b565b610905565b6100e66102eb366004610e93565b6109c0565b6001600160a01b038116600090815260036020908152604080832085845290915290205460ff166103785760405162461bcd60e51b815260206004820152602760248201527f596f75206d75737420696e697469616c697a6520796f7572206163636f756e74604482015266103334b939ba1760c91b60648201526084015b60405180910390fd5b6001600160a01b0380821660009081526005602081815260408084208785528252808420600480845294829020825160c081018452815481526001808301549582019590955260028201549381019390935260038101546060840152948501546080830152939092015490931660a08201529181015490919061043d5760405162461bcd60e51b815260206004820152601960248201527f4e6f20636f696e73206c65667420746f20776974686472617700000000000000604482015260640161036f565b60008260030154421061045557506001820154610476565b600483015460058401546104699042610f9f565b6104739190610fb6565b90505b8083600101600082825461048a9190610f9f565b909155505042600584015560a082015160405163a9059cbb60e01b81526001600160a01b038681166004830152602482018490529091169063a9059cbb90604401602060405180830381600087803b1580156104e557600080fd5b505af11580156104f9573d6000803e3d6000fd5b505050506040513d601f19601f8201168201806040525081019061051d9190610fd5565b5084846001600160a01b03167f5ffb4b63dec15ba26308386f1d5ca61843b29ba365511062a887d95aa27532d3838660010154604051610567929190918252602082015260400190565b60405180910390a35050505050565b6002546001600160a01b031633146105d05760405162461bcd60e51b815260206004820152601d60248201527f4f6e6c79206d616e6167656d656e74206d61792063616c6c2074686973000000604482015260640161036f565b606482106106145760405162461bcd60e51b81526020600482015260116024820152700706374557046726f6e74203e3d2031303607c1b604482015260640161036f565b8284106106735760405162461bcd60e51b815260206004820152602760248201527f6d696e456e6454696d65206d757374206265206c657373207468616e206d6178604482015266456e6454696d6560c81b606482015260840161036f565b6040518060c00160405280878152602001868152602001858152602001848152602001838152602001826001600160a01b03168152506004600080600081546106bb90610ff7565b918290555081526020808201929092526040908101600090812084518155848401516001820155848301516002820155606085015160038201556080850151600482015560a090940151600590940180546001600160a01b0319166001600160a01b039586161790555481518a815292830189905292841692917f7247d7268297fd9fe23a535b70f414660bbcbbcd73ac0d9ce3c103a356a61f45910160405180910390a3505050505050565b600080600080600054881115610789575060009250829150819050806108fa565b600088815260046020818152604092839020835160c081018552815481526001820154928101929092526002810154938201939093526003830154606082018190529183015460808201526005909201546001600160a01b031660a08301528811806107f85750806040015188105b15610811576000806000809450945094509450506108fa565b60008160600151891415610826575085610897565b60008260400151836060015161083c9190610f9f565b620f424061084a8b8b610f9f565b6108549190610fb6565b61085e9190611012565b905088620f424084604001518c6108759190610f9f565b61087f9084610fb6565b6108899190611012565b6108939190611034565b9150505b60006108a48a6064610fb6565b60808401516108b4906064610f9f565b6108be9084610fb6565b6108c89190611012565b905060006108d68284611012565b6108e08c42611034565b6108ea9190610f9f565b6001985092965090945090925050505b945094509450949050565b6002546001600160a01b0316331461095f5760405162461bcd60e51b815260206004820152601d60248201527f4f6e6c79206d616e6167656d656e74206d61792063616c6c2074686973000000604482015260640161036f565b600280546001600160a01b038381166001600160a01b031983168117909355604080519190921680825260208201939093527f8caf0a9df2e1da9becb3ebfb8a56e83121a5b3f6c5622f715a939ec29c54dfdf910160405180910390a15050565b336001600160a01b03861614610a245760405162461bcd60e51b8152602060048201526024808201527f43616e206f6e6c7920696e697469616c697a6520796f7572206f776e207472616044820152636e63686560e01b606482015260840161036f565b6001600160a01b038516600090815260036020908152604080832089845290915290205460ff1615610a8e5760405162461bcd60e51b8152602060048201526013602482015272105b1c9958591e481a5b9a5d1a585b1a5e9959606a1b604482015260640161036f565b604080516001600160a01b03871660208201529081018490526060810183905260009060800160408051601f19818403018152828252805160209182012060008b815260048084529084902060c086018552805480875260018201549487019490945260028101548686015260038101546060870152808201546080870152600501546001600160a01b031660a08601529251632769cd1f60e21b815290945073__$61dd25696c02d5bd2863c8d2c1a2324a87$__92639da7347c92610b5a929091879189910161104c565b60206040518083038186803b158015610b7257600080fd5b505af4158015610b86573d6000803e3d6000fd5b505050506040513d601f19601f82011682018060405250810190610baa9190610fd5565b610bf65760405162461bcd60e51b815260206004820181905260248201527f5468652070726f6f6620636f756c64206e6f742062652076657269666965642e604482015260640161036f565b6001600160a01b03871660009081526003602090815260408083208b84529091528120805460ff19166001179055808080610c338c8b8b8b610768565b935093509350935083610c885760405162461bcd60e51b815260206004820152601860248201527f496e76616c69642076657374696e67207363686564756c650000000000000000604482015260640161036f565b6040518060c001604052808481526020018481526020018281526020018b42610cb19190611034565b815260200183815260200182815250600560008d6001600160a01b03166001600160a01b0316815260200190815260200160002060008e8152602001908152602001600020600082015181600001556020820151816001015560408201518160020155606082015181600301556080820151816004015560a08201518160050155905050610d3f8c8c6102f0565b505050505050505050505050565b80356001600160a01b0381168114610d6457600080fd5b919050565b60008060408385031215610d7c57600080fd5b82359150610d8c60208401610d4d565b90509250929050565b60008060008060008060c08789031215610dae57600080fd5b8635955060208701359450604087013593506060870135925060808701359150610dda60a08801610d4d565b90509295509295509295565b60008060008060808587031215610dfc57600080fd5b5050823594602084013594506040840135936060013592509050565b600060208284031215610e2a57600080fd5b5035919050565b60008060408385031215610e4457600080fd5b610e4d83610d4d565b946020939093013593505050565b600060208284031215610e6d57600080fd5b610e7682610d4d565b9392505050565b634e487b7160e01b600052604160045260246000fd5b60008060008060008060c08789031215610eac57600080fd5b863595506020610ebd818901610d4d565b955060408801359450606088013593506080880135925060a088013567ffffffffffffffff80821115610eef57600080fd5b818a0191508a601f830112610f0357600080fd5b813581811115610f1557610f15610e7d565b8060051b604051601f19603f83011681018181108582111715610f3a57610f3a610e7d565b60405291825284820192508381018501918d831115610f5857600080fd5b938501935b82851015610f7657843584529385019392850192610f5d565b8096505050505050509295509295509295565b634e487b7160e01b600052601160045260246000fd5b600082821015610fb157610fb1610f89565b500390565b6000816000190483118215151615610fd057610fd0610f89565b500290565b600060208284031215610fe757600080fd5b81518015158114610e7657600080fd5b600060001982141561100b5761100b610f89565b5060010190565b60008261102f57634e487b7160e01b600052601260045260246000fd5b500490565b6000821982111561104757611047610f89565b500190565b6000606082018583526020858185015260606040850152818551808452608086019150828701935060005b8181101561109357845183529383019391830191600101611077565b50909897505050505050505056fea264697066735822122085bef4f066fbb3ecb3ad105c2c0625527ba744d20178cffe6696abacabb47bac64736f6c63430008090033",
  "language": "Solidity",
  "natspec": {
    "kind": "dev",
    "methods": {},
    "version": 1
  },
  "opcodes": "PUSH1 0x80 PUSH1 0x40 MSTORE CALLVALUE DUP1 ISZERO PUSH2 0x10 JUMPI PUSH1 0x0 DUP1 REVERT JUMPDEST POP PUSH1 0x4 CALLDATASIZE LT PUSH2 0xCE JUMPI PUSH1 0x0 CALLDATALOAD PUSH1 0xE0 SHR DUP1 PUSH4 0x85D88CB1 GT PUSH2 0x8C JUMPI DUP1 PUSH4 0xAAF5EB68 GT PUSH2 0x66 JUMPI DUP1 PUSH4 0xAAF5EB68 EQ PUSH2 0x248 JUMPI DUP1 PUSH4 0xC26CB54F EQ PUSH2 0x252 JUMPI DUP1 PUSH4 0xD4A22BDE EQ PUSH2 0x2CA JUMPI DUP1 PUSH4 0xF287AD04 EQ PUSH2 0x2DD JUMPI PUSH1 0x0 DUP1 REVERT JUMPDEST DUP1 PUSH4 0x85D88CB1 EQ PUSH2 0x15D JUMPI DUP1 PUSH4 0x86BB8249 EQ PUSH2 0x1DF JUMPI DUP1 PUSH4 0x88A8D602 EQ PUSH2 0x21D JUMPI PUSH1 0x0 DUP1 REVERT JUMPDEST DUP1 PUSH3 0xF714CE EQ PUSH2 0xD3 JUMPI DUP1 PUSH4 0x997EAA1 EQ PUSH2 0xE8 JUMPI DUP1 PUSH4 0x18369A2A EQ PUSH2 0xFB JUMPI DUP1 PUSH4 0x2811E253 EQ PUSH2 0x117 JUMPI DUP1 PUSH4 0x390B7C66 EQ PUSH2 0x11F JUMPI DUP1 PUSH4 0x6FB6EC41 EQ PUSH2 0x128 JUMPI JUMPDEST PUSH1 0x0 DUP1 REVERT JUMPDEST PUSH2 0xE6 PUSH2 0xE1 CALLDATASIZE PUSH1 0x4 PUSH2 0xD69 JUMP JUMPDEST PUSH2 0x2F0 JUMP JUMPDEST STOP JUMPDEST PUSH2 0xE6 PUSH2 0xF6 CALLDATASIZE PUSH1 0x4 PUSH2 0xD95 JUMP JUMPDEST PUSH2 0x576 JUMP JUMPDEST PUSH2 0x104 PUSH1 0x1 SLOAD DUP2 JUMP JUMPDEST PUSH1 0x40 MLOAD SWAP1 DUP2 MSTORE PUSH1 0x20 ADD JUMPDEST PUSH1 0x40 MLOAD DUP1 SWAP2 SUB SWAP1 RETURN JUMPDEST PUSH2 0x104 PUSH1 0x1 DUP2 JUMP JUMPDEST PUSH2 0x104 PUSH1 0x0 SLOAD DUP2 JUMP JUMPDEST PUSH2 0x13B PUSH2 0x136 CALLDATASIZE PUSH1 0x4 PUSH2 0xDE6 JUMP JUMPDEST PUSH2 0x768 JUMP JUMPDEST PUSH1 0x40 DUP1 MLOAD SWAP5 ISZERO ISZERO DUP6 MSTORE PUSH1 0x20 DUP6 ADD SWAP4 SWAP1 SWAP4 MSTORE SWAP2 DUP4 ADD MSTORE PUSH1 0x60 DUP3 ADD MSTORE PUSH1 0x80 ADD PUSH2 0x10E JUMP JUMPDEST PUSH2 0x1A9 PUSH2 0x16B CALLDATASIZE PUSH1 0x4 PUSH2 0xE18 JUMP JUMPDEST PUSH1 0x4 PUSH1 0x20 DUP2 SWAP1 MSTORE PUSH1 0x0 SWAP2 DUP3 MSTORE PUSH1 0x40 SWAP1 SWAP2 KECCAK256 DUP1 SLOAD PUSH1 0x1 DUP3 ADD SLOAD PUSH1 0x2 DUP4 ADD SLOAD PUSH1 0x3 DUP5 ADD SLOAD SWAP5 DUP5 ADD SLOAD PUSH1 0x5 SWAP1 SWAP5 ADD SLOAD SWAP3 SWAP5 SWAP2 SWAP4 SWAP1 SWAP3 PUSH1 0x1 PUSH1 0x1 PUSH1 0xA0 SHL SUB AND DUP7 JUMP JUMPDEST PUSH1 0x40 DUP1 MLOAD SWAP7 DUP8 MSTORE PUSH1 0x20 DUP8 ADD SWAP6 SWAP1 SWAP6 MSTORE SWAP4 DUP6 ADD SWAP3 SWAP1 SWAP3 MSTORE PUSH1 0x60 DUP5 ADD MSTORE PUSH1 0x80 DUP4 ADD MSTORE PUSH1 0x1 PUSH1 0x1 PUSH1 0xA0 SHL SUB AND PUSH1 0xA0 DUP3 ADD MSTORE PUSH1 0xC0 ADD PUSH2 0x10E JUMP JUMPDEST PUSH2 0x20D PUSH2 0x1ED CALLDATASIZE PUSH1 0x4 PUSH2 0xE31 JUMP JUMPDEST PUSH1 0x3 PUSH1 0x20 SWAP1 DUP2 MSTORE PUSH1 0x0 SWAP3 DUP4 MSTORE PUSH1 0x40 DUP1 DUP5 KECCAK256 SWAP1 SWAP2 MSTORE SWAP1 DUP3 MSTORE SWAP1 KECCAK256 SLOAD PUSH1 0xFF AND DUP2 JUMP JUMPDEST PUSH1 0x40 MLOAD SWAP1 ISZERO ISZERO DUP2 MSTORE PUSH1 0x20 ADD PUSH2 0x10E JUMP JUMPDEST PUSH1 0x2 SLOAD PUSH2 0x230 SWAP1 PUSH1 0x1 PUSH1 0x1 PUSH1 0xA0 SHL SUB AND DUP2 JUMP JUMPDEST PUSH1 0x40 MLOAD PUSH1 0x1 PUSH1 0x1 PUSH1 0xA0 SHL SUB SWAP1 SWAP2 AND DUP2 MSTORE PUSH1 0x20 ADD PUSH2 0x10E JUMP JUMPDEST PUSH2 0x104 PUSH3 0xF4240 DUP2 JUMP JUMPDEST PUSH2 0x29D PUSH2 0x260 CALLDATASIZE PUSH1 0x4 PUSH2 0xE31 JUMP JUMPDEST PUSH1 0x5 PUSH1 0x20 DUP2 DUP2 MSTORE PUSH1 0x0 SWAP4 DUP5 MSTORE PUSH1 0x40 DUP1 DUP6 KECCAK256 SWAP1 SWAP2 MSTORE SWAP2 DUP4 MSTORE SWAP2 KECCAK256 DUP1 SLOAD PUSH1 0x1 DUP3 ADD SLOAD PUSH1 0x2 DUP4 ADD SLOAD PUSH1 0x3 DUP5 ADD SLOAD PUSH1 0x4 DUP6 ADD SLOAD SWAP5 SWAP1 SWAP6 ADD SLOAD SWAP3 SWAP5 SWAP2 SWAP4 SWAP1 SWAP3 DUP7 JUMP JUMPDEST PUSH1 0x40 DUP1 MLOAD SWAP7 DUP8 MSTORE PUSH1 0x20 DUP8 ADD SWAP6 SWAP1 SWAP6 MSTORE SWAP4 DUP6 ADD SWAP3 SWAP1 SWAP3 MSTORE PUSH1 0x60 DUP5 ADD MSTORE PUSH1 0x80 DUP4 ADD MSTORE PUSH1 0xA0 DUP3 ADD MSTORE PUSH1 0xC0 ADD PUSH2 0x10E JUMP JUMPDEST PUSH2 0xE6 PUSH2 0x2D8 CALLDATASIZE PUSH1 0x4 PUSH2 0xE5B JUMP JUMPDEST PUSH2 0x905 JUMP JUMPDEST PUSH2 0xE6 PUSH2 0x2EB CALLDATASIZE PUSH1 0x4 PUSH2 0xE93 JUMP JUMPDEST PUSH2 0x9C0 JUMP JUMPDEST PUSH1 0x1 PUSH1 0x1 PUSH1 0xA0 SHL SUB DUP2 AND PUSH1 0x0 SWAP1 DUP2 MSTORE PUSH1 0x3 PUSH1 0x20 SWAP1 DUP2 MSTORE PUSH1 0x40 DUP1 DUP4 KECCAK256 DUP6 DUP5 MSTORE SWAP1 SWAP2 MSTORE SWAP1 KECCAK256 SLOAD PUSH1 0xFF AND PUSH2 0x378 JUMPI PUSH1 0x40 MLOAD PUSH3 0x461BCD PUSH1 0xE5 SHL DUP2 MSTORE PUSH1 0x20 PUSH1 0x4 DUP3 ADD MSTORE PUSH1 0x27 PUSH1 0x24 DUP3 ADD MSTORE PUSH32 0x596F75206D75737420696E697469616C697A6520796F7572206163636F756E74 PUSH1 0x44 DUP3 ADD MSTORE PUSH7 0x103334B939BA17 PUSH1 0xC9 SHL PUSH1 0x64 DUP3 ADD MSTORE PUSH1 0x84 ADD JUMPDEST PUSH1 0x40 MLOAD DUP1 SWAP2 SUB SWAP1 REVERT JUMPDEST PUSH1 0x1 PUSH1 0x1 PUSH1 0xA0 SHL SUB DUP1 DUP3 AND PUSH1 0x0 SWAP1 DUP2 MSTORE PUSH1 0x5 PUSH1 0x20 DUP2 DUP2 MSTORE PUSH1 0x40 DUP1 DUP5 KECCAK256 DUP8 DUP6 MSTORE DUP3 MSTORE DUP1 DUP5 KECCAK256 PUSH1 0x4 DUP1 DUP5 MSTORE SWAP5 DUP3 SWAP1 KECCAK256 DUP3 MLOAD PUSH1 0xC0 DUP2 ADD DUP5 MSTORE DUP2 SLOAD DUP2 MSTORE PUSH1 0x1 DUP1 DUP4 ADD SLOAD SWAP6 DUP3 ADD SWAP6 SWAP1 SWAP6 MSTORE PUSH1 0x2 DUP3 ADD SLOAD SWAP4 DUP2 ADD SWAP4 SWAP1 SWAP4 MSTORE PUSH1 0x3 DUP2 ADD SLOAD PUSH1 0x60 DUP5 ADD MSTORE SWAP5 DUP6 ADD SLOAD PUSH1 0x80 DUP4 ADD MSTORE SWAP4 SWAP1 SWAP3 ADD SLOAD SWAP1 SWAP4 AND PUSH1 0xA0 DUP3 ADD MSTORE SWAP2 DUP2 ADD SLOAD SWAP1 SWAP2 SWAP1 PUSH2 0x43D JUMPI PUSH1 0x40 MLOAD PUSH3 0x461BCD PUSH1 0xE5 SHL DUP2 MSTORE PUSH1 0x20 PUSH1 0x4 DUP3 ADD MSTORE PUSH1 0x19 PUSH1 0x24 DUP3 ADD MSTORE PUSH32 0x4E6F20636F696E73206C65667420746F20776974686472617700000000000000 PUSH1 0x44 DUP3 ADD MSTORE PUSH1 0x64 ADD PUSH2 0x36F JUMP JUMPDEST PUSH1 0x0 DUP3 PUSH1 0x3 ADD SLOAD TIMESTAMP LT PUSH2 0x455 JUMPI POP PUSH1 0x1 DUP3 ADD SLOAD PUSH2 0x476 JUMP JUMPDEST PUSH1 0x4 DUP4 ADD SLOAD PUSH1 0x5 DUP5 ADD SLOAD PUSH2 0x469 SWAP1 TIMESTAMP PUSH2 0xF9F JUMP JUMPDEST PUSH2 0x473 SWAP2 SWAP1 PUSH2 0xFB6 JUMP JUMPDEST SWAP1 POP JUMPDEST DUP1 DUP4 PUSH1 0x1 ADD PUSH1 0x0 DUP3 DUP3 SLOAD PUSH2 0x48A SWAP2 SWAP1 PUSH2 0xF9F JUMP JUMPDEST SWAP1 SWAP2 SSTORE POP POP TIMESTAMP PUSH1 0x5 DUP5 ADD SSTORE PUSH1 0xA0 DUP3 ADD MLOAD PUSH1 0x40 MLOAD PUSH4 0xA9059CBB PUSH1 0xE0 SHL DUP2 MSTORE PUSH1 0x1 PUSH1 0x1 PUSH1 0xA0 SHL SUB DUP7 DUP2 AND PUSH1 0x4 DUP4 ADD MSTORE PUSH1 0x24 DUP3 ADD DUP5 SWAP1 MSTORE SWAP1 SWAP2 AND SWAP1 PUSH4 0xA9059CBB SWAP1 PUSH1 0x44 ADD PUSH1 0x20 PUSH1 0x40 MLOAD DUP1 DUP4 SUB DUP2 PUSH1 0x0 DUP8 DUP1 EXTCODESIZE ISZERO DUP1 ISZERO PUSH2 0x4E5 JUMPI PUSH1 0x0 DUP1 REVERT JUMPDEST POP GAS CALL ISZERO DUP1 ISZERO PUSH2 0x4F9 JUMPI RETURNDATASIZE PUSH1 0x0 DUP1 RETURNDATACOPY RETURNDATASIZE PUSH1 0x0 REVERT JUMPDEST POP POP POP POP PUSH1 0x40 MLOAD RETURNDATASIZE PUSH1 0x1F NOT PUSH1 0x1F DUP3 ADD AND DUP3 ADD DUP1 PUSH1 0x40 MSTORE POP DUP2 ADD SWAP1 PUSH2 0x51D SWAP2 SWAP1 PUSH2 0xFD5 JUMP JUMPDEST POP DUP5 DUP5 PUSH1 0x1 PUSH1 0x1 PUSH1 0xA0 SHL SUB AND PUSH32 0x5FFB4B63DEC15BA26308386F1D5CA61843B29BA365511062A887D95AA27532D3 DUP4 DUP7 PUSH1 0x1 ADD SLOAD PUSH1 0x40 MLOAD PUSH2 0x567 SWAP3 SWAP2 SWAP1 SWAP2 DUP3 MSTORE PUSH1 0x20 DUP3 ADD MSTORE PUSH1 0x40 ADD SWAP1 JUMP JUMPDEST PUSH1 0x40 MLOAD DUP1 SWAP2 SUB SWAP1 LOG3 POP POP POP POP POP JUMP JUMPDEST PUSH1 0x2 SLOAD PUSH1 0x1 PUSH1 0x1 PUSH1 0xA0 SHL SUB AND CALLER EQ PUSH2 0x5D0 JUMPI PUSH1 0x40 MLOAD PUSH3 0x461BCD PUSH1 0xE5 SHL DUP2 MSTORE PUSH1 0x20 PUSH1 0x4 DUP3 ADD MSTORE PUSH1 0x1D PUSH1 0x24 DUP3 ADD MSTORE PUSH32 0x4F6E6C79206D616E6167656D656E74206D61792063616C6C2074686973000000 PUSH1 0x44 DUP3 ADD MSTORE PUSH1 0x64 ADD PUSH2 0x36F JUMP JUMPDEST PUSH1 0x64 DUP3 LT PUSH2 0x614 JUMPI PUSH1 0x40 MLOAD PUSH3 0x461BCD PUSH1 0xE5 SHL DUP2 MSTORE PUSH1 0x20 PUSH1 0x4 DUP3 ADD MSTORE PUSH1 0x11 PUSH1 0x24 DUP3 ADD MSTORE PUSH17 0x706374557046726F6E74203E3D2031303 PUSH1 0x7C SHL PUSH1 0x44 DUP3 ADD MSTORE PUSH1 0x64 ADD PUSH2 0x36F JUMP JUMPDEST DUP3 DUP5 LT PUSH2 0x673 JUMPI PUSH1 0x40 MLOAD PUSH3 0x461BCD PUSH1 0xE5 SHL DUP2 MSTORE PUSH1 0x20 PUSH1 0x4 DUP3 ADD MSTORE PUSH1 0x27 PUSH1 0x24 DUP3 ADD MSTORE PUSH32 0x6D696E456E6454696D65206D757374206265206C657373207468616E206D6178 PUSH1 0x44 DUP3 ADD MSTORE PUSH7 0x456E6454696D65 PUSH1 0xC8 SHL PUSH1 0x64 DUP3 ADD MSTORE PUSH1 0x84 ADD PUSH2 0x36F JUMP JUMPDEST PUSH1 0x40 MLOAD DUP1 PUSH1 0xC0 ADD PUSH1 0x40 MSTORE DUP1 DUP8 DUP2 MSTORE PUSH1 0x20 ADD DUP7 DUP2 MSTORE PUSH1 0x20 ADD DUP6 DUP2 MSTORE PUSH1 0x20 ADD DUP5 DUP2 MSTORE PUSH1 0x20 ADD DUP4 DUP2 MSTORE PUSH1 0x20 ADD DUP3 PUSH1 0x1 PUSH1 0x1 PUSH1 0xA0 SHL SUB AND DUP2 MSTORE POP PUSH1 0x4 PUSH1 0x0 DUP1 PUSH1 0x0 DUP2 SLOAD PUSH2 0x6BB SWAP1 PUSH2 0xFF7 JUMP JUMPDEST SWAP2 DUP3 SWAP1 SSTORE POP DUP2 MSTORE PUSH1 0x20 DUP1 DUP3 ADD SWAP3 SWAP1 SWAP3 MSTORE PUSH1 0x40 SWAP1 DUP2 ADD PUSH1 0x0 SWAP1 DUP2 KECCAK256 DUP5 MLOAD DUP2 SSTORE DUP5 DUP5 ADD MLOAD PUSH1 0x1 DUP3 ADD SSTORE DUP5 DUP4 ADD MLOAD PUSH1 0x2 DUP3 ADD SSTORE PUSH1 0x60 DUP6 ADD MLOAD PUSH1 0x3 DUP3 ADD SSTORE PUSH1 0x80 DUP6 ADD MLOAD PUSH1 0x4 DUP3 ADD SSTORE PUSH1 0xA0 SWAP1 SWAP5 ADD MLOAD PUSH1 0x5 SWAP1 SWAP5 ADD DUP1 SLOAD PUSH1 0x1 PUSH1 0x1 PUSH1 0xA0 SHL SUB NOT AND PUSH1 0x1 PUSH1 0x1 PUSH1 0xA0 SHL SUB SWAP6 DUP7 AND OR SWAP1 SSTORE SLOAD DUP2 MLOAD DUP11 DUP2 MSTORE SWAP3 DUP4 ADD DUP10 SWAP1 MSTORE SWAP3 DUP5 AND SWAP3 SWAP2 PUSH32 0x7247D7268297FD9FE23A535B70F414660BBCBBCD73AC0D9CE3C103A356A61F45 SWAP2 ADD PUSH1 0x40 MLOAD DUP1 SWAP2 SUB SWAP1 LOG3 POP POP POP POP POP POP JUMP JUMPDEST PUSH1 0x0 DUP1 PUSH1 0x0 DUP1 PUSH1 0x0 SLOAD DUP9 GT ISZERO PUSH2 0x789 JUMPI POP PUSH1 0x0 SWAP3 POP DUP3 SWAP2 POP DUP2 SWAP1 POP DUP1 PUSH2 0x8FA JUMP JUMPDEST PUSH1 0x0 DUP9 DUP2 MSTORE PUSH1 0x4 PUSH1 0x20 DUP2 DUP2 MSTORE PUSH1 0x40 SWAP3 DUP4 SWAP1 KECCAK256 DUP4 MLOAD PUSH1 0xC0 DUP2 ADD DUP6 MSTORE DUP2 SLOAD DUP2 MSTORE PUSH1 0x1 DUP3 ADD SLOAD SWAP3 DUP2 ADD SWAP3 SWAP1 SWAP3 MSTORE PUSH1 0x2 DUP2 ADD SLOAD SWAP4 DUP3 ADD SWAP4 SWAP1 SWAP4 MSTORE PUSH1 0x3 DUP4 ADD SLOAD PUSH1 0x60 DUP3 ADD DUP2 SWAP1 MSTORE SWAP2 DUP4 ADD SLOAD PUSH1 0x80 DUP3 ADD MSTORE PUSH1 0x5 SWAP1 SWAP3 ADD SLOAD PUSH1 0x1 PUSH1 0x1 PUSH1 0xA0 SHL SUB AND PUSH1 0xA0 DUP4 ADD MSTORE DUP9 GT DUP1 PUSH2 0x7F8 JUMPI POP DUP1 PUSH1 0x40 ADD MLOAD DUP9 LT JUMPDEST ISZERO PUSH2 0x811 JUMPI PUSH1 0x0 DUP1 PUSH1 0x0 DUP1 SWAP5 POP SWAP5 POP SWAP5 POP SWAP5 POP POP PUSH2 0x8FA JUMP JUMPDEST PUSH1 0x0 DUP2 PUSH1 0x60 ADD MLOAD DUP10 EQ ISZERO PUSH2 0x826 JUMPI POP DUP6 PUSH2 0x897 JUMP JUMPDEST PUSH1 0x0 DUP3 PUSH1 0x40 ADD MLOAD DUP4 PUSH1 0x60 ADD MLOAD PUSH2 0x83C SWAP2 SWAP1 PUSH2 0xF9F JUMP JUMPDEST PUSH3 0xF4240 PUSH2 0x84A DUP12 DUP12 PUSH2 0xF9F JUMP JUMPDEST PUSH2 0x854 SWAP2 SWAP1 PUSH2 0xFB6 JUMP JUMPDEST PUSH2 0x85E SWAP2 SWAP1 PUSH2 0x1012 JUMP JUMPDEST SWAP1 POP DUP9 PUSH3 0xF4240 DUP5 PUSH1 0x40 ADD MLOAD DUP13 PUSH2 0x875 SWAP2 SWAP1 PUSH2 0xF9F JUMP JUMPDEST PUSH2 0x87F SWAP1 DUP5 PUSH2 0xFB6 JUMP JUMPDEST PUSH2 0x889 SWAP2 SWAP1 PUSH2 0x1012 JUMP JUMPDEST PUSH2 0x893 SWAP2 SWAP1 PUSH2 0x1034 JUMP JUMPDEST SWAP2 POP POP JUMPDEST PUSH1 0x0 PUSH2 0x8A4 DUP11 PUSH1 0x64 PUSH2 0xFB6 JUMP JUMPDEST PUSH1 0x80 DUP5 ADD MLOAD PUSH2 0x8B4 SWAP1 PUSH1 0x64 PUSH2 0xF9F JUMP JUMPDEST PUSH2 0x8BE SWAP1 DUP5 PUSH2 0xFB6 JUMP JUMPDEST PUSH2 0x8C8 SWAP2 SWAP1 PUSH2 0x1012 JUMP JUMPDEST SWAP1 POP PUSH1 0x0 PUSH2 0x8D6 DUP3 DUP5 PUSH2 0x1012 JUMP JUMPDEST PUSH2 0x8E0 DUP13 TIMESTAMP PUSH2 0x1034 JUMP JUMPDEST PUSH2 0x8EA SWAP2 SWAP1 PUSH2 0xF9F JUMP JUMPDEST PUSH1 0x1 SWAP9 POP SWAP3 SWAP7 POP SWAP1 SWAP5 POP SWAP1 SWAP3 POP POP POP JUMPDEST SWAP5 POP SWAP5 POP SWAP5 POP SWAP5 SWAP1 POP JUMP JUMPDEST PUSH1 0x2 SLOAD PUSH1 0x1 PUSH1 0x1 PUSH1 0xA0 SHL SUB AND CALLER EQ PUSH2 0x95F JUMPI PUSH1 0x40 MLOAD PUSH3 0x461BCD PUSH1 0xE5 SHL DUP2 MSTORE PUSH1 0x20 PUSH1 0x4 DUP3 ADD MSTORE PUSH1 0x1D PUSH1 0x24 DUP3 ADD MSTORE PUSH32 0x4F6E6C79206D616E6167656D656E74206D61792063616C6C2074686973000000 PUSH1 0x44 DUP3 ADD MSTORE PUSH1 0x64 ADD PUSH2 0x36F JUMP JUMPDEST PUSH1 0x2 DUP1 SLOAD PUSH1 0x1 PUSH1 0x1 PUSH1 0xA0 SHL SUB DUP4 DUP2 AND PUSH1 0x1 PUSH1 0x1 PUSH1 0xA0 SHL SUB NOT DUP4 AND DUP2 OR SWAP1 SWAP4 SSTORE PUSH1 0x40 DUP1 MLOAD SWAP2 SWAP1 SWAP3 AND DUP1 DUP3 MSTORE PUSH1 0x20 DUP3 ADD SWAP4 SWAP1 SWAP4 MSTORE PUSH32 0x8CAF0A9DF2E1DA9BECB3EBFB8A56E83121A5B3F6C5622F715A939EC29C54DFDF SWAP2 ADD PUSH1 0x40 MLOAD DUP1 SWAP2 SUB SWAP1 LOG1 POP POP JUMP JUMPDEST CALLER PUSH1 0x1 PUSH1 0x1 PUSH1 0xA0 SHL SUB DUP7 AND EQ PUSH2 0xA24 JUMPI PUSH1 0x40 MLOAD PUSH3 0x461BCD PUSH1 0xE5 SHL DUP2 MSTORE PUSH1 0x20 PUSH1 0x4 DUP3 ADD MSTORE PUSH1 0x24 DUP1 DUP3 ADD MSTORE PUSH32 0x43616E206F6E6C7920696E697469616C697A6520796F7572206F776E20747261 PUSH1 0x44 DUP3 ADD MSTORE PUSH4 0x6E636865 PUSH1 0xE0 SHL PUSH1 0x64 DUP3 ADD MSTORE PUSH1 0x84 ADD PUSH2 0x36F JUMP JUMPDEST PUSH1 0x1 PUSH1 0x1 PUSH1 0xA0 SHL SUB DUP6 AND PUSH1 0x0 SWAP1 DUP2 MSTORE PUSH1 0x3 PUSH1 0x20 SWAP1 DUP2 MSTORE PUSH1 0x40 DUP1 DUP4 KECCAK256 DUP10 DUP5 MSTORE SWAP1 SWAP2 MSTORE SWAP1 KECCAK256 SLOAD PUSH1 0xFF AND ISZERO PUSH2 0xA8E JUMPI PUSH1 0x40 MLOAD PUSH3 0x461BCD PUSH1 0xE5 SHL DUP2 MSTORE PUSH1 0x20 PUSH1 0x4 DUP3 ADD MSTORE PUSH1 0x13 PUSH1 0x24 DUP3 ADD MSTORE PUSH19 0x105B1C9958591E481A5B9A5D1A585B1A5E9959 PUSH1 0x6A SHL PUSH1 0x44 DUP3 ADD MSTORE PUSH1 0x64 ADD PUSH2 0x36F JUMP JUMPDEST PUSH1 0x40 DUP1 MLOAD PUSH1 0x1 PUSH1 0x1 PUSH1 0xA0 SHL SUB DUP8 AND PUSH1 0x20 DUP3 ADD MSTORE SWAP1 DUP2 ADD DUP5 SWAP1 MSTORE PUSH1 0x60 DUP2 ADD DUP4 SWAP1 MSTORE PUSH1 0x0 SWAP1 PUSH1 0x80 ADD PUSH1 0x40 DUP1 MLOAD PUSH1 0x1F NOT DUP2 DUP5 SUB ADD DUP2 MSTORE DUP3 DUP3 MSTORE DUP1 MLOAD PUSH1 0x20 SWAP2 DUP3 ADD KECCAK256 PUSH1 0x0 DUP12 DUP2 MSTORE PUSH1 0x4 DUP1 DUP5 MSTORE SWAP1 DUP5 SWAP1 KECCAK256 PUSH1 0xC0 DUP7 ADD DUP6 MSTORE DUP1 SLOAD DUP1 DUP8 MSTORE PUSH1 0x1 DUP3 ADD SLOAD SWAP5 DUP8 ADD SWAP5 SWAP1 SWAP5 MSTORE PUSH1 0x2 DUP2 ADD SLOAD DUP7 DUP7 ADD MSTORE PUSH1 0x3 DUP2 ADD SLOAD PUSH1 0x60 DUP8 ADD MSTORE DUP1 DUP3 ADD SLOAD PUSH1 0x80 DUP8 ADD MSTORE PUSH1 0x5 ADD SLOAD PUSH1 0x1 PUSH1 0x1 PUSH1 0xA0 SHL SUB AND PUSH1 0xA0 DUP7 ADD MSTORE SWAP3 MLOAD PUSH4 0x2769CD1F PUSH1 0xE2 SHL DUP2 MSTORE SWAP1 SWAP5 POP PUSH20 0x0 SWAP3 PUSH4 0x9DA7347C SWAP3 PUSH2 0xB5A SWAP3 SWAP1 SWAP2 DUP8 SWAP2 DUP10 SWAP2 ADD PUSH2 0x104C JUMP JUMPDEST PUSH1 0x20 PUSH1 0x40 MLOAD DUP1 DUP4 SUB DUP2 DUP7 DUP1 EXTCODESIZE ISZERO DUP1 ISZERO PUSH2 0xB72 JUMPI PUSH1 0x0 DUP1 REVERT JUMPDEST POP GAS DELEGATECALL ISZERO DUP1 ISZERO PUSH2 0xB86 JUMPI RETURNDATASIZE PUSH1 0x0 DUP1 RETURNDATACOPY RETURNDATASIZE PUSH1 0x0 REVERT JUMPDEST POP POP POP POP PUSH1 0x40 MLOAD RETURNDATASIZE PUSH1 0x1F NOT PUSH1 0x1F DUP3 ADD AND DUP3 ADD DUP1 PUSH1 0x40 MSTORE POP DUP2 ADD SWAP1 PUSH2 0xBAA SWAP2 SWAP1 PUSH2 0xFD5 JUMP JUMPDEST PUSH2 0xBF6 JUMPI PUSH1 0x40 MLOAD PUSH3 0x461BCD PUSH1 0xE5 SHL DUP2 MSTORE PUSH1 0x20 PUSH1 0x4 DUP3 ADD DUP2 SWAP1 MSTORE PUSH1 0x24 DUP3 ADD MSTORE PUSH32 0x5468652070726F6F6620636F756C64206E6F742062652076657269666965642E PUSH1 0x44 DUP3 ADD MSTORE PUSH1 0x64 ADD PUSH2 0x36F JUMP JUMPDEST PUSH1 0x1 PUSH1 0x1 PUSH1 0xA0 SHL SUB DUP8 AND PUSH1 0x0 SWAP1 DUP2 MSTORE PUSH1 0x3 PUSH1 0x20 SWAP1 DUP2 MSTORE PUSH1 0x40 DUP1 DUP4 KECCAK256 DUP12 DUP5 MSTORE SWAP1 SWAP2 MSTORE DUP2 KECCAK256 DUP1 SLOAD PUSH1 0xFF NOT AND PUSH1 0x1 OR SWAP1 SSTORE DUP1 DUP1 DUP1 PUSH2 0xC33 DUP13 DUP12 DUP12 DUP12 PUSH2 0x768 JUMP JUMPDEST SWAP4 POP SWAP4 POP SWAP4 POP SWAP4 POP DUP4 PUSH2 0xC88 JUMPI PUSH1 0x40 MLOAD PUSH3 0x461BCD PUSH1 0xE5 SHL DUP2 MSTORE PUSH1 0x20 PUSH1 0x4 DUP3 ADD MSTORE PUSH1 0x18 PUSH1 0x24 DUP3 ADD MSTORE PUSH32 0x496E76616C69642076657374696E67207363686564756C650000000000000000 PUSH1 0x44 DUP3 ADD MSTORE PUSH1 0x64 ADD PUSH2 0x36F JUMP JUMPDEST PUSH1 0x40 MLOAD DUP1 PUSH1 0xC0 ADD PUSH1 0x40 MSTORE DUP1 DUP5 DUP2 MSTORE PUSH1 0x20 ADD DUP5 DUP2 MSTORE PUSH1 0x20 ADD DUP3 DUP2 MSTORE PUSH1 0x20 ADD DUP12 TIMESTAMP PUSH2 0xCB1 SWAP2 SWAP1 PUSH2 0x1034 JUMP JUMPDEST DUP2 MSTORE PUSH1 0x20 ADD DUP4 DUP2 MSTORE PUSH1 0x20 ADD DUP3 DUP2 MSTORE POP PUSH1 0x5 PUSH1 0x0 DUP14 PUSH1 0x1 PUSH1 0x1 PUSH1 0xA0 SHL SUB AND PUSH1 0x1 PUSH1 0x1 PUSH1 0xA0 SHL SUB AND DUP2 MSTORE PUSH1 0x20 ADD SWAP1 DUP2 MSTORE PUSH1 0x20 ADD PUSH1 0x0 KECCAK256 PUSH1 0x0 DUP15 DUP2 MSTORE PUSH1 0x20 ADD SWAP1 DUP2 MSTORE PUSH1 0x20 ADD PUSH1 0x0 KECCAK256 PUSH1 0x0 DUP3 ADD MLOAD DUP2 PUSH1 0x0 ADD SSTORE PUSH1 0x20 DUP3 ADD MLOAD DUP2 PUSH1 0x1 ADD SSTORE PUSH1 0x40 DUP3 ADD MLOAD DUP2 PUSH1 0x2 ADD SSTORE PUSH1 0x60 DUP3 ADD MLOAD DUP2 PUSH1 0x3 ADD SSTORE PUSH1 0x80 DUP3 ADD MLOAD DUP2 PUSH1 0x4 ADD SSTORE PUSH1 0xA0 DUP3 ADD MLOAD DUP2 PUSH1 0x5 ADD SSTORE SWAP1 POP POP PUSH2 0xD3F DUP13 DUP13 PUSH2 0x2F0 JUMP JUMPDEST POP POP POP POP POP POP POP POP POP POP POP POP JUMP JUMPDEST DUP1 CALLDATALOAD PUSH1 0x1 PUSH1 0x1 PUSH1 0xA0 SHL SUB DUP2 AND DUP2 EQ PUSH2 0xD64 JUMPI PUSH1 0x0 DUP1 REVERT JUMPDEST SWAP2 SWAP1 POP JUMP JUMPDEST PUSH1 0x0 DUP1 PUSH1 0x40 DUP4 DUP6 SUB SLT ISZERO PUSH2 0xD7C JUMPI PUSH1 0x0 DUP1 REVERT JUMPDEST DUP3 CALLDATALOAD SWAP2 POP PUSH2 0xD8C PUSH1 0x20 DUP5 ADD PUSH2 0xD4D JUMP JUMPDEST SWAP1 POP SWAP3 POP SWAP3 SWAP1 POP JUMP JUMPDEST PUSH1 0x0 DUP1 PUSH1 0x0 DUP1 PUSH1 0x0 DUP1 PUSH1 0xC0 DUP8 DUP10 SUB SLT ISZERO PUSH2 0xDAE JUMPI PUSH1 0x0 DUP1 REVERT JUMPDEST DUP7 CALLDATALOAD SWAP6 POP PUSH1 0x20 DUP8 ADD CALLDATALOAD SWAP5 POP PUSH1 0x40 DUP8 ADD CALLDATALOAD SWAP4 POP PUSH1 0x60 DUP8 ADD CALLDATALOAD SWAP3 POP PUSH1 0x80 DUP8 ADD CALLDATALOAD SWAP2 POP PUSH2 0xDDA PUSH1 0xA0 DUP9 ADD PUSH2 0xD4D JUMP JUMPDEST SWAP1 POP SWAP3 SWAP6 POP SWAP3 SWAP6 POP SWAP3 SWAP6 JUMP JUMPDEST PUSH1 0x0 DUP1 PUSH1 0x0 DUP1 PUSH1 0x80 DUP6 DUP8 SUB SLT ISZERO PUSH2 0xDFC JUMPI PUSH1 0x0 DUP1 REVERT JUMPDEST POP POP DUP3 CALLDATALOAD SWAP5 PUSH1 0x20 DUP5 ADD CALLDATALOAD SWAP5 POP PUSH1 0x40 DUP5 ADD CALLDATALOAD SWAP4 PUSH1 0x60 ADD CALLDATALOAD SWAP3 POP SWAP1 POP JUMP JUMPDEST PUSH1 0x0 PUSH1 0x20 DUP3 DUP5 SUB SLT ISZERO PUSH2 0xE2A JUMPI PUSH1 0x0 DUP1 REVERT JUMPDEST POP CALLDATALOAD SWAP2 SWAP1 POP JUMP JUMPDEST PUSH1 0x0 DUP1 PUSH1 0x40 DUP4 DUP6 SUB SLT ISZERO PUSH2 0xE44 JUMPI PUSH1 0x0 DUP1 REVERT JUMPDEST PUSH2 0xE4D DUP4 PUSH2 0xD4D JUMP JUMPDEST SWAP5 PUSH1 0x20 SWAP4 SWAP1 SWAP4 ADD CALLDATALOAD SWAP4 POP POP POP JUMP JUMPDEST PUSH1 0x0 PUSH1 0x20 DUP3 DUP5 SUB SLT ISZERO PUSH2 0xE6D JUMPI PUSH1 0x0 DUP1 REVERT JUMPDEST PUSH2 0xE76 DUP3 PUSH2 0xD4D JUMP JUMPDEST SWAP4 SWAP3 POP POP POP JUMP JUMPDEST PUSH4 0x4E487B71 PUSH1 0xE0 SHL PUSH1 0x0 MSTORE PUSH1 0x41 PUSH1 0x4 MSTORE PUSH1 0x24 PUSH1 0x0 REVERT JUMPDEST PUSH1 0x0 DUP1 PUSH1 0x0 DUP1 PUSH1 0x0 DUP1 PUSH1 0xC0 DUP8 DUP10 SUB SLT ISZERO PUSH2 0xEAC JUMPI PUSH1 0x0 DUP1 REVERT JUMPDEST DUP7 CALLDATALOAD SWAP6 POP PUSH1 0x20 PUSH2 0xEBD DUP2 DUP10 ADD PUSH2 0xD4D JUMP JUMPDEST SWAP6 POP PUSH1 0x40 DUP9 ADD CALLDATALOAD SWAP5 POP PUSH1 0x60 DUP9 ADD CALLDATALOAD SWAP4 POP PUSH1 0x80 DUP9 ADD CALLDATALOAD SWAP3 POP PUSH1 0xA0 DUP9 ADD CALLDATALOAD PUSH8 0xFFFFFFFFFFFFFFFF DUP1 DUP3 GT ISZERO PUSH2 0xEEF JUMPI PUSH1 0x0 DUP1 REVERT JUMPDEST DUP2 DUP11 ADD SWAP2 POP DUP11 PUSH1 0x1F DUP4 ADD SLT PUSH2 0xF03 JUMPI PUSH1 0x0 DUP1 REVERT JUMPDEST DUP2 CALLDATALOAD DUP2 DUP2 GT ISZERO PUSH2 0xF15 JUMPI PUSH2 0xF15 PUSH2 0xE7D JUMP JUMPDEST DUP1 PUSH1 0x5 SHL PUSH1 0x40 MLOAD PUSH1 0x1F NOT PUSH1 0x3F DUP4 ADD AND DUP2 ADD DUP2 DUP2 LT DUP6 DUP3 GT OR ISZERO PUSH2 0xF3A JUMPI PUSH2 0xF3A PUSH2 0xE7D JUMP JUMPDEST PUSH1 0x40 MSTORE SWAP2 DUP3 MSTORE DUP5 DUP3 ADD SWAP3 POP DUP4 DUP2 ADD DUP6 ADD SWAP2 DUP14 DUP4 GT ISZERO PUSH2 0xF58 JUMPI PUSH1 0x0 DUP1 REVERT JUMPDEST SWAP4 DUP6 ADD SWAP4 JUMPDEST DUP3 DUP6 LT ISZERO PUSH2 0xF76 JUMPI DUP5 CALLDATALOAD DUP5 MSTORE SWAP4 DUP6 ADD SWAP4 SWAP3 DUP6 ADD SWAP3 PUSH2 0xF5D JUMP JUMPDEST DUP1 SWAP7 POP POP POP POP POP POP POP SWAP3 SWAP6 POP SWAP3 SWAP6 POP SWAP3 SWAP6 JUMP JUMPDEST PUSH4 0x4E487B71 PUSH1 0xE0 SHL PUSH1 0x0 MSTORE PUSH1 0x11 PUSH1 0x4 MSTORE PUSH1 0x24 PUSH1 0x0 REVERT JUMPDEST PUSH1 0x0 DUP3 DUP3 LT ISZERO PUSH2 0xFB1 JUMPI PUSH2 0xFB1 PUSH2 0xF89 JUMP JUMPDEST POP SUB SWAP1 JUMP JUMPDEST PUSH1 0x0 DUP2 PUSH1 0x0 NOT DIV DUP4 GT DUP3 ISZERO ISZERO AND ISZERO PUSH2 0xFD0 JUMPI PUSH2 0xFD0 PUSH2 0xF89 JUMP JUMPDEST POP MUL SWAP1 JUMP JUMPDEST PUSH1 0x0 PUSH1 0x20 DUP3 DUP5 SUB SLT ISZERO PUSH2 0xFE7 JUMPI PUSH1 0x0 DUP1 REVERT JUMPDEST DUP2 MLOAD DUP1 ISZERO ISZERO DUP2 EQ PUSH2 0xE76 JUMPI PUSH1 0x0 DUP1 REVERT JUMPDEST PUSH1 0x0 PUSH1 0x0 NOT DUP3 EQ ISZERO PUSH2 0x100B JUMPI PUSH2 0x100B PUSH2 0xF89 JUMP JUMPDEST POP PUSH1 0x1 ADD SWAP1 JUMP JUMPDEST PUSH1 0x0 DUP3 PUSH2 0x102F JUMPI PUSH4 0x4E487B71 PUSH1 0xE0 SHL PUSH1 0x0 MSTORE PUSH1 0x12 PUSH1 0x4 MSTORE PUSH1 0x24 PUSH1 0x0 REVERT JUMPDEST POP DIV SWAP1 JUMP JUMPDEST PUSH1 0x0 DUP3 NOT DUP3 GT ISZERO PUSH2 0x1047 JUMPI PUSH2 0x1047 PUSH2 0xF89 JUMP JUMPDEST POP ADD SWAP1 JUMP JUMPDEST PUSH1 0x0 PUSH1 0x60 DUP3 ADD DUP6 DUP4 MSTORE PUSH1 0x20 DUP6 DUP2 DUP6 ADD MSTORE PUSH1 0x60 PUSH1 0x40 DUP6 ADD MSTORE DUP2 DUP6 MLOAD DUP1 DUP5 MSTORE PUSH1 0x80 DUP7 ADD SWAP2 POP DUP3 DUP8 ADD SWAP4 POP PUSH1 0x0 JUMPDEST DUP2 DUP2 LT ISZERO PUSH2 0x1093 JUMPI DUP5 MLOAD DUP4 MSTORE SWAP4 DUP4 ADD SWAP4 SWAP2 DUP4 ADD SWAP2 PUSH1 0x1 ADD PUSH2 0x1077 JUMP JUMPDEST POP SWAP1 SWAP9 SWAP8 POP POP POP POP POP POP POP POP JUMP INVALID LOG2 PUSH5 0x6970667358 0x22 SLT KECCAK256 DUP6 0xBE DELEGATECALL CREATE PUSH7 0xFBB3ECB3AD105C 0x2C MOD 0x25 MSTORE PUSH28 0xA744D20178CFFE6696ABACABB47BAC64736F6C634300080900330000 ",
  "sha1": "4275a6318768b03e4ecc516191728098e3e7846b",
  "source": "// SPDX-License-Identifier: GPL-3.0-only\n\npragma solidity 0.8.9;\n\nimport \"../interfaces/IERC20.sol\";\nimport \"./MerkleLib.sol\";\n\ncontract MerkleResistor {\n    using MerkleLib for bytes32;\n\n    uint public numTrees = 0;\n\n    uint public initialBalance;\n    address public management;\n\n    struct Tranche {\n        uint totalCoins;\n        uint currentCoins;\n        uint startTime;\n        uint endTime;\n        uint coinsPerSecond;\n        uint lastWithdrawalTime;\n    }\n\n    struct MerkleTree {\n        bytes32 merkleRoot;\n        bytes32 ipfsHash;\n        uint minEndTime; // offsets\n        uint maxEndTime; // offsets\n        uint pctUpFront;\n        address tokenAddress;\n    }\n\n    mapping (address => mapping (uint => bool)) public initialized;\n    mapping (uint => MerkleTree) public merkleTrees;\n    mapping (address => mapping (uint => Tranche)) public tranches;\n\n    uint constant public PRECISION = 1000000;\n    uint constant public ERROR_TOLERANCE = 1;\n\n    event WithdrawalOccurred(address indexed destination, uint numTokens, uint tokensLeft, uint indexed merkleIndex);\n    event MerkleTreeAdded(uint indexed index, address indexed tokenAddress, bytes32 newRoot, bytes32 ipfsHash);\n    event ManagementUpdated(address oldManagement, address newManagement);\n\n    modifier managementOnly() {\n        require (msg.sender == management, 'Only management may call this');\n        _;\n    }\n\n    constructor(address mgmt) {\n        management = mgmt;\n    }\n\n    // change the management key\n    function setManagement(address newMgmt) public managementOnly {\n        address oldMgmt = management;\n        management = newMgmt;\n        emit ManagementUpdated(oldMgmt, newMgmt);\n    }\n\n    function addMerkleTree(bytes32 newRoot, bytes32 ipfsHash, uint minEndTime, uint maxEndTime, uint pctUpFront, address depositToken) public managementOnly {\n        require(pctUpFront < 100, 'pctUpFront >= 100');\n        require(minEndTime < maxEndTime, 'minEndTime must be less than maxEndTime');\n        merkleTrees[++numTrees] = MerkleTree(\n            newRoot,\n            ipfsHash,\n            minEndTime,\n            maxEndTime,\n            pctUpFront,\n            depositToken\n        );\n        emit MerkleTreeAdded(numTrees, depositToken, newRoot, ipfsHash);\n    }\n\n    function initialize(uint merkleIndex, address destination, uint vestingTime, uint minTotalPayments, uint maxTotalPayments, bytes32[] memory proof) external {\n        require(msg.sender == destination, 'Can only initialize your own tranche');\n        require(!initialized[destination][merkleIndex], \"Already initialized\");\n        bytes32 leaf = keccak256(abi.encode(destination, minTotalPayments, maxTotalPayments));\n        MerkleTree memory tree = merkleTrees[merkleIndex];\n        require(tree.merkleRoot.verifyProof(leaf, proof), \"The proof could not be verified.\");\n        initialized[destination][merkleIndex] = true;\n\n        (bool valid, uint totalCoins, uint coinsPerSecond, uint startTime) = verifyVestingSchedule(merkleIndex, vestingTime, minTotalPayments, maxTotalPayments);\n        require(valid, 'Invalid vesting schedule');\n\n        tranches[destination][merkleIndex] = Tranche(\n            totalCoins,\n            totalCoins,\n            startTime,\n            block.timestamp + vestingTime,\n            coinsPerSecond,\n            startTime\n        );\n        withdraw(merkleIndex, destination);\n    }\n\n    function withdraw(uint merkleIndex, address destination) public {\n        require(initialized[destination][merkleIndex], \"You must initialize your account first.\");\n        Tranche storage tranche = tranches[destination][merkleIndex];\n        MerkleTree memory tree = merkleTrees[merkleIndex];\n        require(tranche.currentCoins >  0, 'No coins left to withdraw');\n        uint currentWithdrawal = 0;\n\n        // if after vesting period ends, give them the remaining coins\n        if (block.timestamp >= tranche.endTime) {\n            currentWithdrawal = tranche.currentCoins;\n        } else {\n            // compute allowed withdrawal\n            currentWithdrawal = (block.timestamp - tranche.lastWithdrawalTime) * tranche.coinsPerSecond;\n        }\n\n        // update struct\n        tranche.currentCoins -= currentWithdrawal;\n        tranche.lastWithdrawalTime = block.timestamp;\n\n        // transfer the tokens, brah\n        IERC20(tree.tokenAddress).transfer(destination, currentWithdrawal);\n        emit WithdrawalOccurred(destination, currentWithdrawal, tranche.currentCoins, merkleIndex);\n    }\n\n    function verifyVestingSchedule(uint merkleIndex, uint vestingTime, uint minTotalPayments, uint maxTotalPayments) public view returns (bool, uint, uint, uint) {\n        if (merkleIndex > numTrees) {\n            return (false, 0, 0, 0);\n        }\n\n        MerkleTree memory tree = merkleTrees[merkleIndex];\n\n        if (vestingTime > tree.maxEndTime || vestingTime < tree.minEndTime) {\n            return (false, 0, 0, 0);\n        }\n\n        uint totalCoins;\n        if (vestingTime == tree.maxEndTime) {\n            totalCoins = maxTotalPayments;\n        } else {\n            uint paymentSlope = (maxTotalPayments - minTotalPayments) * PRECISION / (tree.maxEndTime - tree.minEndTime);\n            totalCoins = (paymentSlope * (vestingTime - tree.minEndTime) / PRECISION) + minTotalPayments;\n        }\n\n        uint coinsPerSecond = (totalCoins * (uint(100) - tree.pctUpFront)) / (vestingTime * 100);\n        uint startTime = block.timestamp + vestingTime - (totalCoins / coinsPerSecond);\n\n        return (true, totalCoins, coinsPerSecond, startTime);\n    }\n\n}\n",
  "sourcePath": "contracts/MerkleResistor.sol",
  "type": "contract"
}