{
  "abi": [
    {
      "inputs": [
        {
          "internalType": "uint256",
          "name": "treeIndex",
          "type": "uint256"
        },
        {
          "internalType": "bytes32",
          "name": "leaf",
          "type": "bytes32"
        },
        {
          "internalType": "bytes32[]",
          "name": "proof",
          "type": "bytes32[]"
        }
      ],
      "name": "BadProof",
      "type": "error"
    },
    {
      "inputs": [
        {
          "internalType": "uint256",
          "name": "treeIndex",
          "type": "uint256"
        }
      ],
      "name": "BadTreeIndex",
      "type": "error"
    },
    {
      "inputs": [
        {
          "internalType": "uint256",
          "name": "treeIndex",
          "type": "uint256"
        },
        {
          "internalType": "bytes32",
          "name": "leafHash",
          "type": "bytes32"
        }
      ],
      "name": "LeafAlreadyClaimed",
      "type": "error"
    },
    {
      "inputs": [
        {
          "internalType": "uint256",
          "name": "treeIndex",
          "type": "uint256"
        },
        {
          "internalType": "bytes32",
          "name": "leaf",
          "type": "bytes32"
        }
      ],
      "name": "TokensNotTransferred",
      "type": "error"
    },
    {
      "anonymous": false,
      "inputs": [
        {
          "indexed": true,
          "internalType": "uint256",
          "name": "treeIndex",
          "type": "uint256"
        },
        {
          "indexed": true,
          "internalType": "address",
          "name": "tokenAddress",
          "type": "address"
        },
        {
          "indexed": false,
          "internalType": "bytes32",
          "name": "newRoot",
          "type": "bytes32"
        },
        {
          "indexed": false,
          "internalType": "bytes32",
          "name": "ipfsHash",
          "type": "bytes32"
        }
      ],
      "name": "MerkleTreeAdded",
      "type": "event"
    },
    {
      "anonymous": false,
      "inputs": [
        {
          "indexed": true,
          "internalType": "uint256",
          "name": "treeIndex",
          "type": "uint256"
        },
        {
          "indexed": true,
          "internalType": "address",
          "name": "tokenAddress",
          "type": "address"
        },
        {
          "indexed": false,
          "internalType": "uint256",
          "name": "amount",
          "type": "uint256"
        }
      ],
      "name": "TokensDeposited",
      "type": "event"
    },
    {
      "anonymous": false,
      "inputs": [
        {
          "indexed": true,
          "internalType": "uint256",
          "name": "treeIndex",
          "type": "uint256"
        },
        {
          "indexed": true,
          "internalType": "address",
          "name": "destination",
          "type": "address"
        },
        {
          "indexed": false,
          "internalType": "uint256",
          "name": "value",
          "type": "uint256"
        }
      ],
      "name": "WithdrawalOccurred",
      "type": "event"
    },
    {
      "inputs": [
        {
          "internalType": "bytes32",
          "name": "newRoot",
          "type": "bytes32"
        },
        {
          "internalType": "bytes32",
          "name": "ipfsHash",
          "type": "bytes32"
        },
        {
          "internalType": "address",
          "name": "tokenAddress",
          "type": "address"
        },
        {
          "internalType": "uint256",
          "name": "tokenBalance",
          "type": "uint256"
        }
      ],
      "name": "addMerkleTree",
      "outputs": [],
      "stateMutability": "nonpayable",
      "type": "function"
    },
    {
      "inputs": [
        {
          "internalType": "uint256",
          "name": "treeIndex",
          "type": "uint256"
        },
        {
          "internalType": "uint256",
          "name": "value",
          "type": "uint256"
        }
      ],
      "name": "depositTokens",
      "outputs": [],
      "stateMutability": "nonpayable",
      "type": "function"
    },
    {
      "inputs": [
        {
          "internalType": "uint256",
          "name": "treeIndex",
          "type": "uint256"
        },
        {
          "internalType": "bytes32",
          "name": "leaf",
          "type": "bytes32"
        }
      ],
      "name": "getWithdrawn",
      "outputs": [
        {
          "internalType": "bool",
          "name": "",
          "type": "bool"
        }
      ],
      "stateMutability": "view",
      "type": "function"
    },
    {
      "inputs": [
        {
          "internalType": "uint256",
          "name": "",
          "type": "uint256"
        }
      ],
      "name": "merkleTrees",
      "outputs": [
        {
          "internalType": "bytes32",
          "name": "merkleRoot",
          "type": "bytes32"
        },
        {
          "internalType": "bytes32",
          "name": "ipfsHash",
          "type": "bytes32"
        },
        {
          "internalType": "address",
          "name": "tokenAddress",
          "type": "address"
        },
        {
          "internalType": "uint256",
          "name": "tokenBalance",
          "type": "uint256"
        },
        {
          "internalType": "uint256",
          "name": "spentTokens",
          "type": "uint256"
        }
      ],
      "stateMutability": "view",
      "type": "function"
    },
    {
      "inputs": [],
      "name": "numTrees",
      "outputs": [
        {
          "internalType": "uint256",
          "name": "",
          "type": "uint256"
        }
      ],
      "stateMutability": "view",
      "type": "function"
    },
    {
      "inputs": [
        {
          "internalType": "uint256",
          "name": "treeIndex",
          "type": "uint256"
        },
        {
          "internalType": "address",
          "name": "destination",
          "type": "address"
        },
        {
          "internalType": "uint256",
          "name": "value",
          "type": "uint256"
        },
        {
          "internalType": "bytes32[]",
          "name": "proof",
          "type": "bytes32[]"
        }
      ],
      "name": "withdraw",
      "outputs": [],
      "stateMutability": "nonpayable",
      "type": "function"
    }
  ],
  "bytecode": "608060405234801561001057600080fd5b50610a63806100206000396000f3fe608060405234801561001057600080fd5b50600436106100625760003560e01c806303a4153c14610067578063390b7c661461007c57806385d88cb114610098578063f1301ccf14610114578063f16ad51e14610127578063fa52f3b41461013a575b600080fd5b61007a6100753660046107dc565b61017c565b005b61008560005481565b6040519081526020015b60405180910390f35b6100de6100a63660046108be565b60016020819052600091825260409091208054918101546002820154600383015460049093015491926001600160a01b039091169185565b6040805195865260208601949094526001600160a01b03909216928401929092526060830191909152608082015260a00161008f565b61007a6101223660046108d7565b6104ec565b61007a610135366004610914565b61059c565b61016c610148366004610914565b60009182526001602090815260408084209284526005909201905290205460ff1690565b604051901515815260200161008f565b83158061018a575060005484115b156101b05760405163190a97ad60e01b8152600481018590526024015b60405180910390fd5b600084815260016020908152604080832081516001600160a01b03881681850152808301879052825180820384018152606090910183528051908401208085526005820190935292205460ff161561022557604051631c38e13960e11b815260048101879052602481018290526044016101a7565b8154604051632769cd1f60e21b815273__MerkleLib_____________________________91639da7347c91610261919085908890600401610936565b602060405180830381865af415801561027e573d6000803e3d6000fd5b505050506040513d601f19601f820116820180604052508101906102a2919061098b565b6102c557858184604051630da5a8fd60e41b81526004016101a793929190610936565b6000818152600583016020526040808220805460ff19166001179055600284015490516370a0823160e01b81523060048201526001600160a01b03909116919082906370a0823190602401602060405180830381865afa15801561032d573d6000803e3d6000fd5b505050506040513d601f19601f8201168201806040525081019061035191906109b4565b60405163a9059cbb60e01b81526001600160a01b038981166004830152602482018990529192509083169063a9059cbb906044016020604051808303816000875af11580156103a4573d6000803e3d6000fd5b505050506040513d601f19601f820116820180604052508101906103c8919061098b565b506040516370a0823160e01b81523060048201526000906001600160a01b038416906370a0823190602401602060405180830381865afa158015610410573d6000803e3d6000fd5b505050506040513d601f19601f8201168201806040525081019061043491906109b4565b9050600061044282846109e3565b90508061046c576040516306eb54e960e11b8152600481018b9052602481018690526044016101a7565b8086600301600082825461048091906109e3565b925050819055508086600401600082825461049b91906109fa565b90915550506040518881526001600160a01b038a16908b907fee9ea94d50cffea72be7da20b021e5fd1b0db20ed920d927b659decc48e08e449060200160405180910390a350505050505050505050565b600060016000806000815461050090610a12565b9182905550815260208101919091526040016000908120868155600181018690556002810180546001600160a01b0319166001600160a01b038716179055905490915061054d908361059c565b60005460408051878152602081018790526001600160a01b03861692917f7247d7268297fd9fe23a535b70f414660bbcbbcd73ac0d9ce3c103a356a61f45910160405180910390a35050505050565b8115806105aa575060005482115b156105cb5760405163190a97ad60e01b8152600481018390526024016101a7565b600082815260016020526040808220600281015491516370a0823160e01b815230600482015290926001600160a01b03909216919082906370a0823190602401602060405180830381865afa158015610628573d6000803e3d6000fd5b505050506040513d601f19601f8201168201806040525081019061064c91906109b4565b6040516323b872dd60e01b8152336004820152306024820152604481018690529091506001600160a01b038316906323b872dd906064016020604051808303816000875af11580156106a2573d6000803e3d6000fd5b505050506040513d601f19601f820116820180604052508101906106c6919061098b565b506040516370a0823160e01b81523060048201526000906001600160a01b038416906370a0823190602401602060405180830381865afa15801561070e573d6000803e3d6000fd5b505050506040513d601f19601f8201168201806040525081019061073291906109b4565b9050600061074083836109e3565b90508085600301600082825461075691906109fa565b909155505060028501546040518281526001600160a01b039091169088907fb162210da7d23d82c18cff5af46d3562661d26b42a6848fa28d64a6bdc70386a9060200160405180910390a350505050505050565b80356001600160a01b03811681146107c157600080fd5b919050565b634e487b7160e01b600052604160045260246000fd5b600080600080608085870312156107f257600080fd5b8435935060206108038187016107aa565b935060408601359250606086013567ffffffffffffffff8082111561082757600080fd5b818801915088601f83011261083b57600080fd5b81358181111561084d5761084d6107c6565b8060051b604051601f19603f83011681018181108582111715610872576108726107c6565b60405291825284820192508381018501918b83111561089057600080fd5b938501935b828510156108ae57843584529385019392850192610895565b989b979a50959850505050505050565b6000602082840312156108d057600080fd5b5035919050565b600080600080608085870312156108ed57600080fd5b8435935060208501359250610904604086016107aa565b9396929550929360600135925050565b6000806040838503121561092757600080fd5b50508035926020909101359150565b6000606082018583526020858185015260606040850152818551808452608086019150828701935060005b8181101561097d57845183529383019391830191600101610961565b509098975050505050505050565b60006020828403121561099d57600080fd5b815180151581146109ad57600080fd5b9392505050565b6000602082840312156109c657600080fd5b5051919050565b634e487b7160e01b600052601160045260246000fd5b6000828210156109f5576109f56109cd565b500390565b60008219821115610a0d57610a0d6109cd565b500190565b6000600019821415610a2657610a266109cd565b506001019056fea264697066735822122082eaeb1de5b99ea3180eb7b05ec6fa13d69629d57826c236f128087b3362864764736f6c634300080c0033",
  "bytecodeSha1": "5b5ce10f9461515b252ede16a8122fe02e0a0597",
  "compiler": {
    "evm_version": "istanbul",
    "optimizer": {
      "enabled": true,
      "runs": 200
    },
    "version": "0.8.12+commit.f00d7308"
  },
  "contractName": "MerkleDropFactory",
  "deployedBytecode": "608060405234801561001057600080fd5b50600436106100625760003560e01c806303a4153c14610067578063390b7c661461007c57806385d88cb114610098578063f1301ccf14610114578063f16ad51e14610127578063fa52f3b41461013a575b600080fd5b61007a6100753660046107dc565b61017c565b005b61008560005481565b6040519081526020015b60405180910390f35b6100de6100a63660046108be565b60016020819052600091825260409091208054918101546002820154600383015460049093015491926001600160a01b039091169185565b6040805195865260208601949094526001600160a01b03909216928401929092526060830191909152608082015260a00161008f565b61007a6101223660046108d7565b6104ec565b61007a610135366004610914565b61059c565b61016c610148366004610914565b60009182526001602090815260408084209284526005909201905290205460ff1690565b604051901515815260200161008f565b83158061018a575060005484115b156101b05760405163190a97ad60e01b8152600481018590526024015b60405180910390fd5b600084815260016020908152604080832081516001600160a01b03881681850152808301879052825180820384018152606090910183528051908401208085526005820190935292205460ff161561022557604051631c38e13960e11b815260048101879052602481018290526044016101a7565b8154604051632769cd1f60e21b815273__$61dd25696c02d5bd2863c8d2c1a2324a87$__91639da7347c91610261919085908890600401610936565b602060405180830381865af415801561027e573d6000803e3d6000fd5b505050506040513d601f19601f820116820180604052508101906102a2919061098b565b6102c557858184604051630da5a8fd60e41b81526004016101a793929190610936565b6000818152600583016020526040808220805460ff19166001179055600284015490516370a0823160e01b81523060048201526001600160a01b03909116919082906370a0823190602401602060405180830381865afa15801561032d573d6000803e3d6000fd5b505050506040513d601f19601f8201168201806040525081019061035191906109b4565b60405163a9059cbb60e01b81526001600160a01b038981166004830152602482018990529192509083169063a9059cbb906044016020604051808303816000875af11580156103a4573d6000803e3d6000fd5b505050506040513d601f19601f820116820180604052508101906103c8919061098b565b506040516370a0823160e01b81523060048201526000906001600160a01b038416906370a0823190602401602060405180830381865afa158015610410573d6000803e3d6000fd5b505050506040513d601f19601f8201168201806040525081019061043491906109b4565b9050600061044282846109e3565b90508061046c576040516306eb54e960e11b8152600481018b9052602481018690526044016101a7565b8086600301600082825461048091906109e3565b925050819055508086600401600082825461049b91906109fa565b90915550506040518881526001600160a01b038a16908b907fee9ea94d50cffea72be7da20b021e5fd1b0db20ed920d927b659decc48e08e449060200160405180910390a350505050505050505050565b600060016000806000815461050090610a12565b9182905550815260208101919091526040016000908120868155600181018690556002810180546001600160a01b0319166001600160a01b038716179055905490915061054d908361059c565b60005460408051878152602081018790526001600160a01b03861692917f7247d7268297fd9fe23a535b70f414660bbcbbcd73ac0d9ce3c103a356a61f45910160405180910390a35050505050565b8115806105aa575060005482115b156105cb5760405163190a97ad60e01b8152600481018390526024016101a7565b600082815260016020526040808220600281015491516370a0823160e01b815230600482015290926001600160a01b03909216919082906370a0823190602401602060405180830381865afa158015610628573d6000803e3d6000fd5b505050506040513d601f19601f8201168201806040525081019061064c91906109b4565b6040516323b872dd60e01b8152336004820152306024820152604481018690529091506001600160a01b038316906323b872dd906064016020604051808303816000875af11580156106a2573d6000803e3d6000fd5b505050506040513d601f19601f820116820180604052508101906106c6919061098b565b506040516370a0823160e01b81523060048201526000906001600160a01b038416906370a0823190602401602060405180830381865afa15801561070e573d6000803e3d6000fd5b505050506040513d601f19601f8201168201806040525081019061073291906109b4565b9050600061074083836109e3565b90508085600301600082825461075691906109fa565b909155505060028501546040518281526001600160a01b039091169088907fb162210da7d23d82c18cff5af46d3562661d26b42a6848fa28d64a6bdc70386a9060200160405180910390a350505050505050565b80356001600160a01b03811681146107c157600080fd5b919050565b634e487b7160e01b600052604160045260246000fd5b600080600080608085870312156107f257600080fd5b8435935060206108038187016107aa565b935060408601359250606086013567ffffffffffffffff8082111561082757600080fd5b818801915088601f83011261083b57600080fd5b81358181111561084d5761084d6107c6565b8060051b604051601f19603f83011681018181108582111715610872576108726107c6565b60405291825284820192508381018501918b83111561089057600080fd5b938501935b828510156108ae57843584529385019392850192610895565b989b979a50959850505050505050565b6000602082840312156108d057600080fd5b5035919050565b600080600080608085870312156108ed57600080fd5b8435935060208501359250610904604086016107aa565b9396929550929360600135925050565b6000806040838503121561092757600080fd5b50508035926020909101359150565b6000606082018583526020858185015260606040850152818551808452608086019150828701935060005b8181101561097d57845183529383019391830191600101610961565b509098975050505050505050565b60006020828403121561099d57600080fd5b815180151581146109ad57600080fd5b9392505050565b6000602082840312156109c657600080fd5b5051919050565b634e487b7160e01b600052601160045260246000fd5b6000828210156109f5576109f56109cd565b500390565b60008219821115610a0d57610a0d6109cd565b500190565b6000600019821415610a2657610a266109cd565b506001019056fea264697066735822122082eaeb1de5b99ea3180eb7b05ec6fa13d69629d57826c236f128087b3362864764736f6c634300080c0033",
  "language": "Solidity",
  "natspec": {
    "author": "metapriest, adrian.wachel, marek.babiarz, radoslaw.gorecki",
    "details": "The contract cannot introspect into the contents of the merkle tree, except when provided a merkle proof,therefore the total liabilities of the merkle tree are untrusted and tree balances must be managed separately",
    "kind": "dev",
    "methods": {
      "addMerkleTree(bytes32,bytes32,address,uint256)": {
        "details": "Anyone may call this function, therefore we must make sure trees cannot affect each other",
        "notice": "Add a new merkle tree to the contract, creating a new merkle-drop",
        "params": {
          "ipfsHash": "the ipfs hash of the entire dataset, used for redundance so that creator can ensure merkleproof are always computable",
          "newRoot": "root hash of merkle tree representing liabilities == (destination, value) pairs",
          "tokenAddress": "the address of the token contract that is being distributed",
          "tokenBalance": "the amount of tokens user wishes to use to fund the airdrop, note trees can be under/overfunded"
        }
      },
      "depositTokens(uint256,uint256)": {
        "details": "Anyone may call this function, the only risk here is that the token contract is malicious, rendering the tree malicious",
        "notice": "Add funds to an existing merkle-drop",
        "params": {
          "treeIndex": "index into array-like map of merkleTrees",
          "value": "the amount of tokens user wishes to use to fund the airdrop, note trees can be under/overfunded"
        }
      },
      "withdraw(uint256,address,uint256,bytes32[])": {
        "details": "Anyone may call this function for anyone else, funds go to destination regardless, it's just a question ofwho provides the proof and pays the gas, msg.sender is not used in this function",
        "notice": "Claim funds as a recipient in the merkle-drop",
        "params": {
          "destination": "recipient of tokens",
          "proof": "array of hashes bridging from leaf (hash of destination | value) to merkle root",
          "treeIndex": "index into array-like map of merkleTrees, which tree should we apply the proof to?",
          "value": "amount of tokens that will be sent to destination"
        }
      }
    },
    "notice": "This contract is permissionless and public facing. Any fees must be included in the data of the merkle tree.",
    "title": "A factory pattern for merkledrops, that is, airdrops using merkleproofs to compute eligibility",
    "version": 1
  },
  "opcodes": "PUSH1 0x80 PUSH1 0x40 MSTORE CALLVALUE DUP1 ISZERO PUSH2 0x10 JUMPI PUSH1 0x0 DUP1 REVERT JUMPDEST POP PUSH1 0x4 CALLDATASIZE LT PUSH2 0x62 JUMPI PUSH1 0x0 CALLDATALOAD PUSH1 0xE0 SHR DUP1 PUSH4 0x3A4153C EQ PUSH2 0x67 JUMPI DUP1 PUSH4 0x390B7C66 EQ PUSH2 0x7C JUMPI DUP1 PUSH4 0x85D88CB1 EQ PUSH2 0x98 JUMPI DUP1 PUSH4 0xF1301CCF EQ PUSH2 0x114 JUMPI DUP1 PUSH4 0xF16AD51E EQ PUSH2 0x127 JUMPI DUP1 PUSH4 0xFA52F3B4 EQ PUSH2 0x13A JUMPI JUMPDEST PUSH1 0x0 DUP1 REVERT JUMPDEST PUSH2 0x7A PUSH2 0x75 CALLDATASIZE PUSH1 0x4 PUSH2 0x7DC JUMP JUMPDEST PUSH2 0x17C JUMP JUMPDEST STOP JUMPDEST PUSH2 0x85 PUSH1 0x0 SLOAD DUP2 JUMP JUMPDEST PUSH1 0x40 MLOAD SWAP1 DUP2 MSTORE PUSH1 0x20 ADD JUMPDEST PUSH1 0x40 MLOAD DUP1 SWAP2 SUB SWAP1 RETURN JUMPDEST PUSH2 0xDE PUSH2 0xA6 CALLDATASIZE PUSH1 0x4 PUSH2 0x8BE JUMP JUMPDEST PUSH1 0x1 PUSH1 0x20 DUP2 SWAP1 MSTORE PUSH1 0x0 SWAP2 DUP3 MSTORE PUSH1 0x40 SWAP1 SWAP2 KECCAK256 DUP1 SLOAD SWAP2 DUP2 ADD SLOAD PUSH1 0x2 DUP3 ADD SLOAD PUSH1 0x3 DUP4 ADD SLOAD PUSH1 0x4 SWAP1 SWAP4 ADD SLOAD SWAP2 SWAP3 PUSH1 0x1 PUSH1 0x1 PUSH1 0xA0 SHL SUB SWAP1 SWAP2 AND SWAP2 DUP6 JUMP JUMPDEST PUSH1 0x40 DUP1 MLOAD SWAP6 DUP7 MSTORE PUSH1 0x20 DUP7 ADD SWAP5 SWAP1 SWAP5 MSTORE PUSH1 0x1 PUSH1 0x1 PUSH1 0xA0 SHL SUB SWAP1 SWAP3 AND SWAP3 DUP5 ADD SWAP3 SWAP1 SWAP3 MSTORE PUSH1 0x60 DUP4 ADD SWAP2 SWAP1 SWAP2 MSTORE PUSH1 0x80 DUP3 ADD MSTORE PUSH1 0xA0 ADD PUSH2 0x8F JUMP JUMPDEST PUSH2 0x7A PUSH2 0x122 CALLDATASIZE PUSH1 0x4 PUSH2 0x8D7 JUMP JUMPDEST PUSH2 0x4EC JUMP JUMPDEST PUSH2 0x7A PUSH2 0x135 CALLDATASIZE PUSH1 0x4 PUSH2 0x914 JUMP JUMPDEST PUSH2 0x59C JUMP JUMPDEST PUSH2 0x16C PUSH2 0x148 CALLDATASIZE PUSH1 0x4 PUSH2 0x914 JUMP JUMPDEST PUSH1 0x0 SWAP2 DUP3 MSTORE PUSH1 0x1 PUSH1 0x20 SWAP1 DUP2 MSTORE PUSH1 0x40 DUP1 DUP5 KECCAK256 SWAP3 DUP5 MSTORE PUSH1 0x5 SWAP1 SWAP3 ADD SWAP1 MSTORE SWAP1 KECCAK256 SLOAD PUSH1 0xFF AND SWAP1 JUMP JUMPDEST PUSH1 0x40 MLOAD SWAP1 ISZERO ISZERO DUP2 MSTORE PUSH1 0x20 ADD PUSH2 0x8F JUMP JUMPDEST DUP4 ISZERO DUP1 PUSH2 0x18A JUMPI POP PUSH1 0x0 SLOAD DUP5 GT JUMPDEST ISZERO PUSH2 0x1B0 JUMPI PUSH1 0x40 MLOAD PUSH4 0x190A97AD PUSH1 0xE0 SHL DUP2 MSTORE PUSH1 0x4 DUP2 ADD DUP6 SWAP1 MSTORE PUSH1 0x24 ADD JUMPDEST PUSH1 0x40 MLOAD DUP1 SWAP2 SUB SWAP1 REVERT JUMPDEST PUSH1 0x0 DUP5 DUP2 MSTORE PUSH1 0x1 PUSH1 0x20 SWAP1 DUP2 MSTORE PUSH1 0x40 DUP1 DUP4 KECCAK256 DUP2 MLOAD PUSH1 0x1 PUSH1 0x1 PUSH1 0xA0 SHL SUB DUP9 AND DUP2 DUP6 ADD MSTORE DUP1 DUP4 ADD DUP8 SWAP1 MSTORE DUP3 MLOAD DUP1 DUP3 SUB DUP5 ADD DUP2 MSTORE PUSH1 0x60 SWAP1 SWAP2 ADD DUP4 MSTORE DUP1 MLOAD SWAP1 DUP5 ADD KECCAK256 DUP1 DUP6 MSTORE PUSH1 0x5 DUP3 ADD SWAP1 SWAP4 MSTORE SWAP3 KECCAK256 SLOAD PUSH1 0xFF AND ISZERO PUSH2 0x225 JUMPI PUSH1 0x40 MLOAD PUSH4 0x1C38E139 PUSH1 0xE1 SHL DUP2 MSTORE PUSH1 0x4 DUP2 ADD DUP8 SWAP1 MSTORE PUSH1 0x24 DUP2 ADD DUP3 SWAP1 MSTORE PUSH1 0x44 ADD PUSH2 0x1A7 JUMP JUMPDEST DUP2 SLOAD PUSH1 0x40 MLOAD PUSH4 0x2769CD1F PUSH1 0xE2 SHL DUP2 MSTORE PUSH20 0x0 SWAP2 PUSH4 0x9DA7347C SWAP2 PUSH2 0x261 SWAP2 SWAP1 DUP6 SWAP1 DUP9 SWAP1 PUSH1 0x4 ADD PUSH2 0x936 JUMP JUMPDEST PUSH1 0x20 PUSH1 0x40 MLOAD DUP1 DUP4 SUB DUP2 DUP7 GAS DELEGATECALL ISZERO DUP1 ISZERO PUSH2 0x27E JUMPI RETURNDATASIZE PUSH1 0x0 DUP1 RETURNDATACOPY RETURNDATASIZE PUSH1 0x0 REVERT JUMPDEST POP POP POP POP PUSH1 0x40 MLOAD RETURNDATASIZE PUSH1 0x1F NOT PUSH1 0x1F DUP3 ADD AND DUP3 ADD DUP1 PUSH1 0x40 MSTORE POP DUP2 ADD SWAP1 PUSH2 0x2A2 SWAP2 SWAP1 PUSH2 0x98B JUMP JUMPDEST PUSH2 0x2C5 JUMPI DUP6 DUP2 DUP5 PUSH1 0x40 MLOAD PUSH4 0xDA5A8FD PUSH1 0xE4 SHL DUP2 MSTORE PUSH1 0x4 ADD PUSH2 0x1A7 SWAP4 SWAP3 SWAP2 SWAP1 PUSH2 0x936 JUMP JUMPDEST PUSH1 0x0 DUP2 DUP2 MSTORE PUSH1 0x5 DUP4 ADD PUSH1 0x20 MSTORE PUSH1 0x40 DUP1 DUP3 KECCAK256 DUP1 SLOAD PUSH1 0xFF NOT AND PUSH1 0x1 OR SWAP1 SSTORE PUSH1 0x2 DUP5 ADD SLOAD SWAP1 MLOAD PUSH4 0x70A08231 PUSH1 0xE0 SHL DUP2 MSTORE ADDRESS PUSH1 0x4 DUP3 ADD MSTORE PUSH1 0x1 PUSH1 0x1 PUSH1 0xA0 SHL SUB SWAP1 SWAP2 AND SWAP2 SWAP1 DUP3 SWAP1 PUSH4 0x70A08231 SWAP1 PUSH1 0x24 ADD PUSH1 0x20 PUSH1 0x40 MLOAD DUP1 DUP4 SUB DUP2 DUP7 GAS STATICCALL ISZERO DUP1 ISZERO PUSH2 0x32D JUMPI RETURNDATASIZE PUSH1 0x0 DUP1 RETURNDATACOPY RETURNDATASIZE PUSH1 0x0 REVERT JUMPDEST POP POP POP POP PUSH1 0x40 MLOAD RETURNDATASIZE PUSH1 0x1F NOT PUSH1 0x1F DUP3 ADD AND DUP3 ADD DUP1 PUSH1 0x40 MSTORE POP DUP2 ADD SWAP1 PUSH2 0x351 SWAP2 SWAP1 PUSH2 0x9B4 JUMP JUMPDEST PUSH1 0x40 MLOAD PUSH4 0xA9059CBB PUSH1 0xE0 SHL DUP2 MSTORE PUSH1 0x1 PUSH1 0x1 PUSH1 0xA0 SHL SUB DUP10 DUP2 AND PUSH1 0x4 DUP4 ADD MSTORE PUSH1 0x24 DUP3 ADD DUP10 SWAP1 MSTORE SWAP2 SWAP3 POP SWAP1 DUP4 AND SWAP1 PUSH4 0xA9059CBB SWAP1 PUSH1 0x44 ADD PUSH1 0x20 PUSH1 0x40 MLOAD DUP1 DUP4 SUB DUP2 PUSH1 0x0 DUP8 GAS CALL ISZERO DUP1 ISZERO PUSH2 0x3A4 JUMPI RETURNDATASIZE PUSH1 0x0 DUP1 RETURNDATACOPY RETURNDATASIZE PUSH1 0x0 REVERT JUMPDEST POP POP POP POP PUSH1 0x40 MLOAD RETURNDATASIZE PUSH1 0x1F NOT PUSH1 0x1F DUP3 ADD AND DUP3 ADD DUP1 PUSH1 0x40 MSTORE POP DUP2 ADD SWAP1 PUSH2 0x3C8 SWAP2 SWAP1 PUSH2 0x98B JUMP JUMPDEST POP PUSH1 0x40 MLOAD PUSH4 0x70A08231 PUSH1 0xE0 SHL DUP2 MSTORE ADDRESS PUSH1 0x4 DUP3 ADD MSTORE PUSH1 0x0 SWAP1 PUSH1 0x1 PUSH1 0x1 PUSH1 0xA0 SHL SUB DUP5 AND SWAP1 PUSH4 0x70A08231 SWAP1 PUSH1 0x24 ADD PUSH1 0x20 PUSH1 0x40 MLOAD DUP1 DUP4 SUB DUP2 DUP7 GAS STATICCALL ISZERO DUP1 ISZERO PUSH2 0x410 JUMPI RETURNDATASIZE PUSH1 0x0 DUP1 RETURNDATACOPY RETURNDATASIZE PUSH1 0x0 REVERT JUMPDEST POP POP POP POP PUSH1 0x40 MLOAD RETURNDATASIZE PUSH1 0x1F NOT PUSH1 0x1F DUP3 ADD AND DUP3 ADD DUP1 PUSH1 0x40 MSTORE POP DUP2 ADD SWAP1 PUSH2 0x434 SWAP2 SWAP1 PUSH2 0x9B4 JUMP JUMPDEST SWAP1 POP PUSH1 0x0 PUSH2 0x442 DUP3 DUP5 PUSH2 0x9E3 JUMP JUMPDEST SWAP1 POP DUP1 PUSH2 0x46C JUMPI PUSH1 0x40 MLOAD PUSH4 0x6EB54E9 PUSH1 0xE1 SHL DUP2 MSTORE PUSH1 0x4 DUP2 ADD DUP12 SWAP1 MSTORE PUSH1 0x24 DUP2 ADD DUP7 SWAP1 MSTORE PUSH1 0x44 ADD PUSH2 0x1A7 JUMP JUMPDEST DUP1 DUP7 PUSH1 0x3 ADD PUSH1 0x0 DUP3 DUP3 SLOAD PUSH2 0x480 SWAP2 SWAP1 PUSH2 0x9E3 JUMP JUMPDEST SWAP3 POP POP DUP2 SWAP1 SSTORE POP DUP1 DUP7 PUSH1 0x4 ADD PUSH1 0x0 DUP3 DUP3 SLOAD PUSH2 0x49B SWAP2 SWAP1 PUSH2 0x9FA JUMP JUMPDEST SWAP1 SWAP2 SSTORE POP POP PUSH1 0x40 MLOAD DUP9 DUP2 MSTORE PUSH1 0x1 PUSH1 0x1 PUSH1 0xA0 SHL SUB DUP11 AND SWAP1 DUP12 SWAP1 PUSH32 0xEE9EA94D50CFFEA72BE7DA20B021E5FD1B0DB20ED920D927B659DECC48E08E44 SWAP1 PUSH1 0x20 ADD PUSH1 0x40 MLOAD DUP1 SWAP2 SUB SWAP1 LOG3 POP POP POP POP POP POP POP POP POP POP JUMP JUMPDEST PUSH1 0x0 PUSH1 0x1 PUSH1 0x0 DUP1 PUSH1 0x0 DUP2 SLOAD PUSH2 0x500 SWAP1 PUSH2 0xA12 JUMP JUMPDEST SWAP2 DUP3 SWAP1 SSTORE POP DUP2 MSTORE PUSH1 0x20 DUP2 ADD SWAP2 SWAP1 SWAP2 MSTORE PUSH1 0x40 ADD PUSH1 0x0 SWAP1 DUP2 KECCAK256 DUP7 DUP2 SSTORE PUSH1 0x1 DUP2 ADD DUP7 SWAP1 SSTORE PUSH1 0x2 DUP2 ADD DUP1 SLOAD PUSH1 0x1 PUSH1 0x1 PUSH1 0xA0 SHL SUB NOT AND PUSH1 0x1 PUSH1 0x1 PUSH1 0xA0 SHL SUB DUP8 AND OR SWAP1 SSTORE SWAP1 SLOAD SWAP1 SWAP2 POP PUSH2 0x54D SWAP1 DUP4 PUSH2 0x59C JUMP JUMPDEST PUSH1 0x0 SLOAD PUSH1 0x40 DUP1 MLOAD DUP8 DUP2 MSTORE PUSH1 0x20 DUP2 ADD DUP8 SWAP1 MSTORE PUSH1 0x1 PUSH1 0x1 PUSH1 0xA0 SHL SUB DUP7 AND SWAP3 SWAP2 PUSH32 0x7247D7268297FD9FE23A535B70F414660BBCBBCD73AC0D9CE3C103A356A61F45 SWAP2 ADD PUSH1 0x40 MLOAD DUP1 SWAP2 SUB SWAP1 LOG3 POP POP POP POP POP JUMP JUMPDEST DUP2 ISZERO DUP1 PUSH2 0x5AA JUMPI POP PUSH1 0x0 SLOAD DUP3 GT JUMPDEST ISZERO PUSH2 0x5CB JUMPI PUSH1 0x40 MLOAD PUSH4 0x190A97AD PUSH1 0xE0 SHL DUP2 MSTORE PUSH1 0x4 DUP2 ADD DUP4 SWAP1 MSTORE PUSH1 0x24 ADD PUSH2 0x1A7 JUMP JUMPDEST PUSH1 0x0 DUP3 DUP2 MSTORE PUSH1 0x1 PUSH1 0x20 MSTORE PUSH1 0x40 DUP1 DUP3 KECCAK256 PUSH1 0x2 DUP2 ADD SLOAD SWAP2 MLOAD PUSH4 0x70A08231 PUSH1 0xE0 SHL DUP2 MSTORE ADDRESS PUSH1 0x4 DUP3 ADD MSTORE SWAP1 SWAP3 PUSH1 0x1 PUSH1 0x1 PUSH1 0xA0 SHL SUB SWAP1 SWAP3 AND SWAP2 SWAP1 DUP3 SWAP1 PUSH4 0x70A08231 SWAP1 PUSH1 0x24 ADD PUSH1 0x20 PUSH1 0x40 MLOAD DUP1 DUP4 SUB DUP2 DUP7 GAS STATICCALL ISZERO DUP1 ISZERO PUSH2 0x628 JUMPI RETURNDATASIZE PUSH1 0x0 DUP1 RETURNDATACOPY RETURNDATASIZE PUSH1 0x0 REVERT JUMPDEST POP POP POP POP PUSH1 0x40 MLOAD RETURNDATASIZE PUSH1 0x1F NOT PUSH1 0x1F DUP3 ADD AND DUP3 ADD DUP1 PUSH1 0x40 MSTORE POP DUP2 ADD SWAP1 PUSH2 0x64C SWAP2 SWAP1 PUSH2 0x9B4 JUMP JUMPDEST PUSH1 0x40 MLOAD PUSH4 0x23B872DD PUSH1 0xE0 SHL DUP2 MSTORE CALLER PUSH1 0x4 DUP3 ADD MSTORE ADDRESS PUSH1 0x24 DUP3 ADD MSTORE PUSH1 0x44 DUP2 ADD DUP7 SWAP1 MSTORE SWAP1 SWAP2 POP PUSH1 0x1 PUSH1 0x1 PUSH1 0xA0 SHL SUB DUP4 AND SWAP1 PUSH4 0x23B872DD SWAP1 PUSH1 0x64 ADD PUSH1 0x20 PUSH1 0x40 MLOAD DUP1 DUP4 SUB DUP2 PUSH1 0x0 DUP8 GAS CALL ISZERO DUP1 ISZERO PUSH2 0x6A2 JUMPI RETURNDATASIZE PUSH1 0x0 DUP1 RETURNDATACOPY RETURNDATASIZE PUSH1 0x0 REVERT JUMPDEST POP POP POP POP PUSH1 0x40 MLOAD RETURNDATASIZE PUSH1 0x1F NOT PUSH1 0x1F DUP3 ADD AND DUP3 ADD DUP1 PUSH1 0x40 MSTORE POP DUP2 ADD SWAP1 PUSH2 0x6C6 SWAP2 SWAP1 PUSH2 0x98B JUMP JUMPDEST POP PUSH1 0x40 MLOAD PUSH4 0x70A08231 PUSH1 0xE0 SHL DUP2 MSTORE ADDRESS PUSH1 0x4 DUP3 ADD MSTORE PUSH1 0x0 SWAP1 PUSH1 0x1 PUSH1 0x1 PUSH1 0xA0 SHL SUB DUP5 AND SWAP1 PUSH4 0x70A08231 SWAP1 PUSH1 0x24 ADD PUSH1 0x20 PUSH1 0x40 MLOAD DUP1 DUP4 SUB DUP2 DUP7 GAS STATICCALL ISZERO DUP1 ISZERO PUSH2 0x70E JUMPI RETURNDATASIZE PUSH1 0x0 DUP1 RETURNDATACOPY RETURNDATASIZE PUSH1 0x0 REVERT JUMPDEST POP POP POP POP PUSH1 0x40 MLOAD RETURNDATASIZE PUSH1 0x1F NOT PUSH1 0x1F DUP3 ADD AND DUP3 ADD DUP1 PUSH1 0x40 MSTORE POP DUP2 ADD SWAP1 PUSH2 0x732 SWAP2 SWAP1 PUSH2 0x9B4 JUMP JUMPDEST SWAP1 POP PUSH1 0x0 PUSH2 0x740 DUP4 DUP4 PUSH2 0x9E3 JUMP JUMPDEST SWAP1 POP DUP1 DUP6 PUSH1 0x3 ADD PUSH1 0x0 DUP3 DUP3 SLOAD PUSH2 0x756 SWAP2 SWAP1 PUSH2 0x9FA JUMP JUMPDEST SWAP1 SWAP2 SSTORE POP POP PUSH1 0x2 DUP6 ADD SLOAD PUSH1 0x40 MLOAD DUP3 DUP2 MSTORE PUSH1 0x1 PUSH1 0x1 PUSH1 0xA0 SHL SUB SWAP1 SWAP2 AND SWAP1 DUP9 SWAP1 PUSH32 0xB162210DA7D23D82C18CFF5AF46D3562661D26B42A6848FA28D64A6BDC70386A SWAP1 PUSH1 0x20 ADD PUSH1 0x40 MLOAD DUP1 SWAP2 SUB SWAP1 LOG3 POP POP POP POP POP POP POP JUMP JUMPDEST DUP1 CALLDATALOAD PUSH1 0x1 PUSH1 0x1 PUSH1 0xA0 SHL SUB DUP2 AND DUP2 EQ PUSH2 0x7C1 JUMPI PUSH1 0x0 DUP1 REVERT JUMPDEST SWAP2 SWAP1 POP JUMP JUMPDEST PUSH4 0x4E487B71 PUSH1 0xE0 SHL PUSH1 0x0 MSTORE PUSH1 0x41 PUSH1 0x4 MSTORE PUSH1 0x24 PUSH1 0x0 REVERT JUMPDEST PUSH1 0x0 DUP1 PUSH1 0x0 DUP1 PUSH1 0x80 DUP6 DUP8 SUB SLT ISZERO PUSH2 0x7F2 JUMPI PUSH1 0x0 DUP1 REVERT JUMPDEST DUP5 CALLDATALOAD SWAP4 POP PUSH1 0x20 PUSH2 0x803 DUP2 DUP8 ADD PUSH2 0x7AA JUMP JUMPDEST SWAP4 POP PUSH1 0x40 DUP7 ADD CALLDATALOAD SWAP3 POP PUSH1 0x60 DUP7 ADD CALLDATALOAD PUSH8 0xFFFFFFFFFFFFFFFF DUP1 DUP3 GT ISZERO PUSH2 0x827 JUMPI PUSH1 0x0 DUP1 REVERT JUMPDEST DUP2 DUP9 ADD SWAP2 POP DUP9 PUSH1 0x1F DUP4 ADD SLT PUSH2 0x83B JUMPI PUSH1 0x0 DUP1 REVERT JUMPDEST DUP2 CALLDATALOAD DUP2 DUP2 GT ISZERO PUSH2 0x84D JUMPI PUSH2 0x84D PUSH2 0x7C6 JUMP JUMPDEST DUP1 PUSH1 0x5 SHL PUSH1 0x40 MLOAD PUSH1 0x1F NOT PUSH1 0x3F DUP4 ADD AND DUP2 ADD DUP2 DUP2 LT DUP6 DUP3 GT OR ISZERO PUSH2 0x872 JUMPI PUSH2 0x872 PUSH2 0x7C6 JUMP JUMPDEST PUSH1 0x40 MSTORE SWAP2 DUP3 MSTORE DUP5 DUP3 ADD SWAP3 POP DUP4 DUP2 ADD DUP6 ADD SWAP2 DUP12 DUP4 GT ISZERO PUSH2 0x890 JUMPI PUSH1 0x0 DUP1 REVERT JUMPDEST SWAP4 DUP6 ADD SWAP4 JUMPDEST DUP3 DUP6 LT ISZERO PUSH2 0x8AE JUMPI DUP5 CALLDATALOAD DUP5 MSTORE SWAP4 DUP6 ADD SWAP4 SWAP3 DUP6 ADD SWAP3 PUSH2 0x895 JUMP JUMPDEST SWAP9 SWAP12 SWAP8 SWAP11 POP SWAP6 SWAP9 POP POP POP POP POP POP POP JUMP JUMPDEST PUSH1 0x0 PUSH1 0x20 DUP3 DUP5 SUB SLT ISZERO PUSH2 0x8D0 JUMPI PUSH1 0x0 DUP1 REVERT JUMPDEST POP CALLDATALOAD SWAP2 SWAP1 POP JUMP JUMPDEST PUSH1 0x0 DUP1 PUSH1 0x0 DUP1 PUSH1 0x80 DUP6 DUP8 SUB SLT ISZERO PUSH2 0x8ED JUMPI PUSH1 0x0 DUP1 REVERT JUMPDEST DUP5 CALLDATALOAD SWAP4 POP PUSH1 0x20 DUP6 ADD CALLDATALOAD SWAP3 POP PUSH2 0x904 PUSH1 0x40 DUP7 ADD PUSH2 0x7AA JUMP JUMPDEST SWAP4 SWAP7 SWAP3 SWAP6 POP SWAP3 SWAP4 PUSH1 0x60 ADD CALLDATALOAD SWAP3 POP POP JUMP JUMPDEST PUSH1 0x0 DUP1 PUSH1 0x40 DUP4 DUP6 SUB SLT ISZERO PUSH2 0x927 JUMPI PUSH1 0x0 DUP1 REVERT JUMPDEST POP POP DUP1 CALLDATALOAD SWAP3 PUSH1 0x20 SWAP1 SWAP2 ADD CALLDATALOAD SWAP2 POP JUMP JUMPDEST PUSH1 0x0 PUSH1 0x60 DUP3 ADD DUP6 DUP4 MSTORE PUSH1 0x20 DUP6 DUP2 DUP6 ADD MSTORE PUSH1 0x60 PUSH1 0x40 DUP6 ADD MSTORE DUP2 DUP6 MLOAD DUP1 DUP5 MSTORE PUSH1 0x80 DUP7 ADD SWAP2 POP DUP3 DUP8 ADD SWAP4 POP PUSH1 0x0 JUMPDEST DUP2 DUP2 LT ISZERO PUSH2 0x97D JUMPI DUP5 MLOAD DUP4 MSTORE SWAP4 DUP4 ADD SWAP4 SWAP2 DUP4 ADD SWAP2 PUSH1 0x1 ADD PUSH2 0x961 JUMP JUMPDEST POP SWAP1 SWAP9 SWAP8 POP POP POP POP POP POP POP POP JUMP JUMPDEST PUSH1 0x0 PUSH1 0x20 DUP3 DUP5 SUB SLT ISZERO PUSH2 0x99D JUMPI PUSH1 0x0 DUP1 REVERT JUMPDEST DUP2 MLOAD DUP1 ISZERO ISZERO DUP2 EQ PUSH2 0x9AD JUMPI PUSH1 0x0 DUP1 REVERT JUMPDEST SWAP4 SWAP3 POP POP POP JUMP JUMPDEST PUSH1 0x0 PUSH1 0x20 DUP3 DUP5 SUB SLT ISZERO PUSH2 0x9C6 JUMPI PUSH1 0x0 DUP1 REVERT JUMPDEST POP MLOAD SWAP2 SWAP1 POP JUMP JUMPDEST PUSH4 0x4E487B71 PUSH1 0xE0 SHL PUSH1 0x0 MSTORE PUSH1 0x11 PUSH1 0x4 MSTORE PUSH1 0x24 PUSH1 0x0 REVERT JUMPDEST PUSH1 0x0 DUP3 DUP3 LT ISZERO PUSH2 0x9F5 JUMPI PUSH2 0x9F5 PUSH2 0x9CD JUMP JUMPDEST POP SUB SWAP1 JUMP JUMPDEST PUSH1 0x0 DUP3 NOT DUP3 GT ISZERO PUSH2 0xA0D JUMPI PUSH2 0xA0D PUSH2 0x9CD JUMP JUMPDEST POP ADD SWAP1 JUMP JUMPDEST PUSH1 0x0 PUSH1 0x0 NOT DUP3 EQ ISZERO PUSH2 0xA26 JUMPI PUSH2 0xA26 PUSH2 0x9CD JUMP JUMPDEST POP PUSH1 0x1 ADD SWAP1 JUMP INVALID LOG2 PUSH5 0x6970667358 0x22 SLT KECCAK256 DUP3 0xEA 0xEB SAR 0xE5 0xB9 SWAP15 LOG3 XOR 0xE 0xB7 0xB0 0x5E 0xC6 STATICCALL SGT 0xD6 SWAP7 0x29 0xD5 PUSH25 0x26C236F128087B3362864764736F6C634300080C0033000000 ",
  "sha1": "7f0b8cc8424fba6dd5c2322e7b203bace2581edd",
  "source": "// SPDX-License-Identifier: GPL-3.0-only\n\npragma solidity 0.8.12;\n\nimport \"../interfaces/IERC20.sol\";\nimport \"./MerkleLib.sol\";\n\n/// @title A factory pattern for merkledrops, that is, airdrops using merkleproofs to compute eligibility\n/// @author metapriest, adrian.wachel, marek.babiarz, radoslaw.gorecki\n/// @notice This contract is permissionless and public facing. Any fees must be included in the data of the merkle tree.\n/// @dev The contract cannot introspect into the contents of the merkle tree, except when provided a merkle proof,\n/// @dev therefore the total liabilities of the merkle tree are untrusted and tree balances must be managed separately\ncontract MerkleDropFactory {\n    using MerkleLib for bytes32;\n\n    // the number of airdrops in this contract\n    uint public numTrees;\n\n    // this represents a single airdrop\n    struct MerkleTree {\n        bytes32 merkleRoot;  // merkleroot of tree whose leaves are (address,uint) pairs representing amount owed to user\n        bytes32 ipfsHash; // ipfs hash of entire dataset, as backup in case our servers turn off...\n        address tokenAddress; // address of token that is being airdropped\n        uint tokenBalance; // amount of tokens allocated for this tree\n        uint spentTokens; // amount of tokens dispensed from this tree\n        mapping (bytes32 => bool) withdrawn;\n    }\n\n    // array-like map for all ze merkle trees (airdrops)\n    mapping (uint => MerkleTree) public merkleTrees;\n\n    // every time there's a withdraw\n    event WithdrawalOccurred(uint indexed treeIndex, address indexed destination, uint value);\n\n    // every time a tree is added\n    event MerkleTreeAdded(uint indexed treeIndex, address indexed tokenAddress, bytes32 newRoot, bytes32 ipfsHash);\n\n    // every time a tree is topped up\n    event TokensDeposited(uint indexed treeIndex, address indexed tokenAddress, uint amount);\n\n    error BadTreeIndex(uint treeIndex);\n    error LeafAlreadyClaimed(uint treeIndex, bytes32 leafHash);\n    error BadProof(uint treeIndex, bytes32 leaf, bytes32[] proof);\n    error TokensNotTransferred(uint treeIndex, bytes32 leaf);\n\n    /// @notice Add a new merkle tree to the contract, creating a new merkle-drop\n    /// @dev Anyone may call this function, therefore we must make sure trees cannot affect each other\n    /// @param newRoot root hash of merkle tree representing liabilities == (destination, value) pairs\n    /// @param ipfsHash the ipfs hash of the entire dataset, used for redundance so that creator can ensure merkleproof are always computable\n    /// @param tokenAddress the address of the token contract that is being distributed\n    /// @param tokenBalance the amount of tokens user wishes to use to fund the airdrop, note trees can be under/overfunded\n    function addMerkleTree(bytes32 newRoot, bytes32 ipfsHash, address tokenAddress, uint tokenBalance) public {\n        // prefix operator ++ increments then evaluates\n        MerkleTree storage tree = merkleTrees[++numTrees];\n        tree.merkleRoot = newRoot;\n        tree.ipfsHash = ipfsHash;\n        tree.tokenAddress = tokenAddress;\n\n        // you don't get to add a tree without funding it\n        depositTokens(numTrees, tokenBalance);\n        // I guess we should tell people (interfaces) what happened\n        emit MerkleTreeAdded(numTrees, tokenAddress, newRoot, ipfsHash);\n    }\n\n    /// @notice Add funds to an existing merkle-drop\n    /// @dev Anyone may call this function, the only risk here is that the token contract is malicious, rendering the tree malicious\n    /// @param treeIndex index into array-like map of merkleTrees\n    /// @param value the amount of tokens user wishes to use to fund the airdrop, note trees can be under/overfunded\n    function depositTokens(uint treeIndex, uint value) public {\n        if (treeIndex == 0 || treeIndex > numTrees) {\n            revert BadTreeIndex(treeIndex);\n        }\n        // storage since we are editing\n        MerkleTree storage merkleTree = merkleTrees[treeIndex];\n\n        IERC20 token = IERC20(merkleTree.tokenAddress);\n        uint balanceBefore = token.balanceOf(address(this));\n\n        // yes this could fail, but the balance checker will handle that\n        // balance checking also handles fee-on-transfer tokens\n        // but not malicious tokens, which could lie about balances\n        token.transferFrom(msg.sender, address(this), value);\n\n        uint balanceAfter = token.balanceOf(address(this));\n\n        uint diff = balanceAfter - balanceBefore;\n\n        // bookkeeping to make sure trees don't share tokens\n        merkleTree.tokenBalance += diff;\n\n        // transfer tokens, if this is a malicious token, then this whole tree is malicious\n        // but it does not effect the other trees\n        emit TokensDeposited(treeIndex, merkleTree.tokenAddress, diff);\n    }\n\n    /// @notice Claim funds as a recipient in the merkle-drop\n    /// @dev Anyone may call this function for anyone else, funds go to destination regardless, it's just a question of\n    /// @dev who provides the proof and pays the gas, msg.sender is not used in this function\n    /// @param treeIndex index into array-like map of merkleTrees, which tree should we apply the proof to?\n    /// @param destination recipient of tokens\n    /// @param value amount of tokens that will be sent to destination\n    /// @param proof array of hashes bridging from leaf (hash of destination | value) to merkle root\n    function withdraw(uint treeIndex, address destination, uint value, bytes32[] memory proof) public {\n        // no withdrawing from uninitialized merkle trees\n        if (treeIndex == 0 || treeIndex > numTrees) {\n            revert BadTreeIndex(treeIndex);\n        }\n\n        // storage because we edit\n        MerkleTree storage tree = merkleTrees[treeIndex];\n\n        // compute merkle leaf, this is first element of proof\n        bytes32 leaf = keccak256(abi.encode(destination, value));\n\n        // no withdrawing same airdrop twice\n        if (tree.withdrawn[leaf]) {\n            revert LeafAlreadyClaimed(treeIndex, leaf);\n        }\n\n        // this calls to MerkleLib, will return false if recursive hashes do not end in merkle root\n        if (tree.merkleRoot.verifyProof(leaf, proof) == false) {\n            revert BadProof(treeIndex, leaf, proof);\n        }\n\n        // close re-entrance gate, prevent double claims\n        tree.withdrawn[leaf] = true;\n\n        IERC20 token = IERC20(tree.tokenAddress);\n        uint balanceBefore = token.balanceOf(address(this));\n\n        // transfer the tokens\n        // NOTE: if the token contract is malicious this call could re-enter this function\n        // which will fail because withdrawn will be set to true\n        // Also if this line silently fails then diff will be 0, reverting whole transaction\n        // This also covers the case of fee-on-transfer tokens, but again, not malicious tokens\n        token.transfer(destination, value);\n\n        uint balanceAfter = token.balanceOf(address(this));\n        uint diff = balanceBefore - balanceAfter;\n        if (diff == 0) {\n            revert TokensNotTransferred(treeIndex, leaf);\n        }\n\n        // update struct\n        tree.tokenBalance -= diff;\n        tree.spentTokens += diff;\n\n        emit WithdrawalOccurred(treeIndex, destination, value);\n    }\n\n    function getWithdrawn(uint treeIndex, bytes32 leaf) external view returns (bool) {\n        return merkleTrees[treeIndex].withdrawn[leaf];\n    }\n\n}",
  "sourcePath": "contracts/MerkleDropFactory.sol",
  "type": "contract"
}