{
  "abi": [
    {
      "inputs": [
        {
          "internalType": "address",
          "name": "mgmt",
          "type": "address"
        }
      ],
      "stateMutability": "nonpayable",
      "type": "constructor"
    },
    {
      "anonymous": false,
      "inputs": [
        {
          "indexed": true,
          "internalType": "uint256",
          "name": "index",
          "type": "uint256"
        },
        {
          "indexed": true,
          "internalType": "address",
          "name": "tokenAddress",
          "type": "address"
        },
        {
          "indexed": false,
          "internalType": "bytes32",
          "name": "newRoot",
          "type": "bytes32"
        },
        {
          "indexed": false,
          "internalType": "bytes32",
          "name": "ipfsHash",
          "type": "bytes32"
        }
      ],
      "name": "MerkleTreeAdded",
      "type": "event"
    },
    {
      "anonymous": false,
      "inputs": [
        {
          "indexed": true,
          "internalType": "uint256",
          "name": "merkleIndex",
          "type": "uint256"
        },
        {
          "indexed": true,
          "internalType": "address",
          "name": "recipient",
          "type": "address"
        },
        {
          "indexed": false,
          "internalType": "uint256",
          "name": "value",
          "type": "uint256"
        }
      ],
      "name": "Withdraw",
      "type": "event"
    },
    {
      "inputs": [
        {
          "internalType": "bytes32",
          "name": "newRoot",
          "type": "bytes32"
        },
        {
          "internalType": "bytes32",
          "name": "ipfsHash",
          "type": "bytes32"
        },
        {
          "internalType": "address",
          "name": "depositToken",
          "type": "address"
        },
        {
          "internalType": "uint256",
          "name": "initBalance",
          "type": "uint256"
        }
      ],
      "name": "addMerkleTree",
      "outputs": [],
      "stateMutability": "nonpayable",
      "type": "function"
    },
    {
      "inputs": [],
      "name": "management",
      "outputs": [
        {
          "internalType": "address",
          "name": "",
          "type": "address"
        }
      ],
      "stateMutability": "view",
      "type": "function"
    },
    {
      "inputs": [
        {
          "internalType": "uint256",
          "name": "",
          "type": "uint256"
        }
      ],
      "name": "merkleTrees",
      "outputs": [
        {
          "internalType": "bytes32",
          "name": "merkleRoot",
          "type": "bytes32"
        },
        {
          "internalType": "bytes32",
          "name": "ipfsHash",
          "type": "bytes32"
        },
        {
          "internalType": "address",
          "name": "tokenAddress",
          "type": "address"
        },
        {
          "internalType": "uint256",
          "name": "initialBalance",
          "type": "uint256"
        },
        {
          "internalType": "uint256",
          "name": "spentTokens",
          "type": "uint256"
        }
      ],
      "stateMutability": "view",
      "type": "function"
    },
    {
      "inputs": [],
      "name": "numTrees",
      "outputs": [
        {
          "internalType": "uint256",
          "name": "",
          "type": "uint256"
        }
      ],
      "stateMutability": "view",
      "type": "function"
    },
    {
      "inputs": [
        {
          "internalType": "address",
          "name": "newMgmt",
          "type": "address"
        }
      ],
      "name": "setManagement",
      "outputs": [],
      "stateMutability": "nonpayable",
      "type": "function"
    },
    {
      "inputs": [
        {
          "internalType": "address",
          "name": "newAdder",
          "type": "address"
        }
      ],
      "name": "setTreeAdder",
      "outputs": [],
      "stateMutability": "nonpayable",
      "type": "function"
    },
    {
      "inputs": [],
      "name": "treeAdder",
      "outputs": [
        {
          "internalType": "address",
          "name": "",
          "type": "address"
        }
      ],
      "stateMutability": "view",
      "type": "function"
    },
    {
      "inputs": [
        {
          "internalType": "uint256",
          "name": "merkleIndex",
          "type": "uint256"
        },
        {
          "internalType": "address",
          "name": "walletAddress",
          "type": "address"
        },
        {
          "internalType": "uint256",
          "name": "value",
          "type": "uint256"
        },
        {
          "internalType": "bytes32[]",
          "name": "proof",
          "type": "bytes32[]"
        }
      ],
      "name": "withdraw",
      "outputs": [],
      "stateMutability": "nonpayable",
      "type": "function"
    },
    {
      "inputs": [
        {
          "internalType": "address",
          "name": "",
          "type": "address"
        },
        {
          "internalType": "uint256",
          "name": "",
          "type": "uint256"
        }
      ],
      "name": "withdrawn",
      "outputs": [
        {
          "internalType": "bool",
          "name": "",
          "type": "bool"
        }
      ],
      "stateMutability": "view",
      "type": "function"
    }
  ],
  "bytecode": "60806040526000805534801561001457600080fd5b50604051610adf380380610adf83398101604081905261003391610062565b600180546001600160a01b039092166001600160a01b0319928316811790915560028054909216179055610092565b60006020828403121561007457600080fd5b81516001600160a01b038116811461008b57600080fd5b9392505050565b610a3e806100a16000396000f3fe608060405234801561001057600080fd5b50600436106100935760003560e01c806385d88cb11161006657806385d88cb11461013257806388a8d602146101b0578063a738d590146101c3578063d4a22bde146101d6578063f1301ccf146101e957600080fd5b806303a4153c14610098578063390b7c66146100ad5780636fb24f3a146100c957806377bbd51e14610107575b600080fd5b6100ab6100a63660046107c4565b6101fc565b005b6100b660005481565b6040519081526020015b60405180910390f35b6100f76100d73660046108a6565b600360209081526000928352604080842090915290825290205460ff1681565b60405190151581526020016100c0565b60025461011a906001600160a01b031681565b6040516001600160a01b0390911681526020016100c0565b61017a6101403660046108d0565b600460208190526000918252604090912080546001820154600283015460038401549390940154919390926001600160a01b039091169185565b6040805195865260208601949094526001600160a01b03909216928401929092526060830191909152608082015260a0016100c0565b60015461011a906001600160a01b031681565b6100ab6101d13660046108e9565b61055c565b6100ab6101e43660046108e9565b6105d8565b6100ab6101f736600461090b565b610654565b60005484111561025f5760405162461bcd60e51b815260206004820152602360248201527f50726f7669646564206d65726b6c6520696e64657820646f65736e27742065786044820152621a5cdd60ea1b60648201526084015b60405180910390fd5b6001600160a01b038316600090815260036020908152604080832087845290915290205460ff16156102eb5760405162461bcd60e51b815260206004820152602f60248201527f596f75206861766520616c72656164792077697468647261776e20796f75722060448201526e32b73a34ba3632b2103a37b5b2b71760891b6064820152608401610256565b604080516001600160a01b038516602082015290810183905260009060600160408051601f1981840301815282825280516020918201206000898152600492839052929092208054632769cd1f60e21b85529294509273__MerkleLib_____________________________92639da7347c9261036b928791899101610948565b60206040518083038186803b15801561038357600080fd5b505af4158015610397573d6000803e3d6000fd5b505050506040513d601f19601f820116820180604052508101906103bb919061099d565b6104075760405162461bcd60e51b815260206004820181905260248201527f5468652070726f6f6620636f756c64206e6f742062652076657269666965642e6044820152606401610256565b6001600160a01b0385811660008181526003602090815260408083208b845290915290819020805460ff191660011790556002840154905163a9059cbb60e01b81526004810192909252602482018790529091169063a9059cbb90604401602060405180830381600087803b15801561047f57600080fd5b505af1158015610493573d6000803e3d6000fd5b505050506040513d601f19601f820116820180604052508101906104b7919061099d565b6104fb5760405162461bcd60e51b8152602060048201526015602482015274115490cc8c081d1c985b9cd9995c8819985a5b1959605a1b6044820152606401610256565b8381600401600082825461050f91906109d5565b90915550506040518481526001600160a01b0386169087907f9da6493a92039daf47d1f2d7a782299c5994c6323eb1e972f69c432089ec52bf9060200160405180910390a3505050505050565b6001546001600160a01b031633146105b65760405162461bcd60e51b815260206004820152601d60248201527f4f6e6c79206d616e6167656d656e74206d61792063616c6c20746869730000006044820152606401610256565b600280546001600160a01b0319166001600160a01b0392909216919091179055565b6001546001600160a01b031633146106325760405162461bcd60e51b815260206004820152601d60248201527f4f6e6c79206d616e6167656d656e74206d61792063616c6c20746869730000006044820152606401610256565b600180546001600160a01b0319166001600160a01b0392909216919091179055565b6002546001600160a01b031633146106ae5760405162461bcd60e51b815260206004820152601c60248201527f4f6e6c79207472656541646465722063616e20616464207472656573000000006044820152606401610256565b6040518060a00160405280858152602001848152602001836001600160a01b0316815260200182815260200160008152506004600080600081546106f1906109ed565b918290555081526020808201929092526040908101600090812084518155848401516001820155848301516002820180546001600160a01b0319166001600160a01b039283161790556060860151600383015560809095015160049091015554815188815292830187905292851692917f7247d7268297fd9fe23a535b70f414660bbcbbcd73ac0d9ce3c103a356a61f45910160405180910390a350505050565b80356001600160a01b03811681146107a957600080fd5b919050565b634e487b7160e01b600052604160045260246000fd5b600080600080608085870312156107da57600080fd5b8435935060206107eb818701610792565b935060408601359250606086013567ffffffffffffffff8082111561080f57600080fd5b818801915088601f83011261082357600080fd5b813581811115610835576108356107ae565b8060051b604051601f19603f8301168101818110858211171561085a5761085a6107ae565b60405291825284820192508381018501918b83111561087857600080fd5b938501935b828510156108965784358452938501939285019261087d565b989b979a50959850505050505050565b600080604083850312156108b957600080fd5b6108c283610792565b946020939093013593505050565b6000602082840312156108e257600080fd5b5035919050565b6000602082840312156108fb57600080fd5b61090482610792565b9392505050565b6000806000806080858703121561092157600080fd5b843593506020850135925061093860408601610792565b9396929550929360600135925050565b6000606082018583526020858185015260606040850152818551808452608086019150828701935060005b8181101561098f57845183529383019391830191600101610973565b509098975050505050505050565b6000602082840312156109af57600080fd5b8151801515811461090457600080fd5b634e487b7160e01b600052601160045260246000fd5b600082198211156109e8576109e86109bf565b500190565b6000600019821415610a0157610a016109bf565b506001019056fea264697066735822122083cb51c4d2d82c7849552e6e6dca6164f662d78a1c3faa226f9609e7d4465a4964736f6c63430008090033",
  "bytecodeSha1": "8a022f5d414d1eafe49ffc579500469806f86d94",
  "compiler": {
    "evm_version": "istanbul",
    "optimizer": {
      "enabled": true,
      "runs": 200
    },
    "version": "0.8.9+commit.e5eed63a"
  },
  "contractName": "MerkleDropFactory",
  "deployedBytecode": "608060405234801561001057600080fd5b50600436106100935760003560e01c806385d88cb11161006657806385d88cb11461013257806388a8d602146101b0578063a738d590146101c3578063d4a22bde146101d6578063f1301ccf146101e957600080fd5b806303a4153c14610098578063390b7c66146100ad5780636fb24f3a146100c957806377bbd51e14610107575b600080fd5b6100ab6100a63660046107c4565b6101fc565b005b6100b660005481565b6040519081526020015b60405180910390f35b6100f76100d73660046108a6565b600360209081526000928352604080842090915290825290205460ff1681565b60405190151581526020016100c0565b60025461011a906001600160a01b031681565b6040516001600160a01b0390911681526020016100c0565b61017a6101403660046108d0565b600460208190526000918252604090912080546001820154600283015460038401549390940154919390926001600160a01b039091169185565b6040805195865260208601949094526001600160a01b03909216928401929092526060830191909152608082015260a0016100c0565b60015461011a906001600160a01b031681565b6100ab6101d13660046108e9565b61055c565b6100ab6101e43660046108e9565b6105d8565b6100ab6101f736600461090b565b610654565b60005484111561025f5760405162461bcd60e51b815260206004820152602360248201527f50726f7669646564206d65726b6c6520696e64657820646f65736e27742065786044820152621a5cdd60ea1b60648201526084015b60405180910390fd5b6001600160a01b038316600090815260036020908152604080832087845290915290205460ff16156102eb5760405162461bcd60e51b815260206004820152602f60248201527f596f75206861766520616c72656164792077697468647261776e20796f75722060448201526e32b73a34ba3632b2103a37b5b2b71760891b6064820152608401610256565b604080516001600160a01b038516602082015290810183905260009060600160408051601f1981840301815282825280516020918201206000898152600492839052929092208054632769cd1f60e21b85529294509273__$61dd25696c02d5bd2863c8d2c1a2324a87$__92639da7347c9261036b928791899101610948565b60206040518083038186803b15801561038357600080fd5b505af4158015610397573d6000803e3d6000fd5b505050506040513d601f19601f820116820180604052508101906103bb919061099d565b6104075760405162461bcd60e51b815260206004820181905260248201527f5468652070726f6f6620636f756c64206e6f742062652076657269666965642e6044820152606401610256565b6001600160a01b0385811660008181526003602090815260408083208b845290915290819020805460ff191660011790556002840154905163a9059cbb60e01b81526004810192909252602482018790529091169063a9059cbb90604401602060405180830381600087803b15801561047f57600080fd5b505af1158015610493573d6000803e3d6000fd5b505050506040513d601f19601f820116820180604052508101906104b7919061099d565b6104fb5760405162461bcd60e51b8152602060048201526015602482015274115490cc8c081d1c985b9cd9995c8819985a5b1959605a1b6044820152606401610256565b8381600401600082825461050f91906109d5565b90915550506040518481526001600160a01b0386169087907f9da6493a92039daf47d1f2d7a782299c5994c6323eb1e972f69c432089ec52bf9060200160405180910390a3505050505050565b6001546001600160a01b031633146105b65760405162461bcd60e51b815260206004820152601d60248201527f4f6e6c79206d616e6167656d656e74206d61792063616c6c20746869730000006044820152606401610256565b600280546001600160a01b0319166001600160a01b0392909216919091179055565b6001546001600160a01b031633146106325760405162461bcd60e51b815260206004820152601d60248201527f4f6e6c79206d616e6167656d656e74206d61792063616c6c20746869730000006044820152606401610256565b600180546001600160a01b0319166001600160a01b0392909216919091179055565b6002546001600160a01b031633146106ae5760405162461bcd60e51b815260206004820152601c60248201527f4f6e6c79207472656541646465722063616e20616464207472656573000000006044820152606401610256565b6040518060a00160405280858152602001848152602001836001600160a01b0316815260200182815260200160008152506004600080600081546106f1906109ed565b918290555081526020808201929092526040908101600090812084518155848401516001820155848301516002820180546001600160a01b0319166001600160a01b039283161790556060860151600383015560809095015160049091015554815188815292830187905292851692917f7247d7268297fd9fe23a535b70f414660bbcbbcd73ac0d9ce3c103a356a61f45910160405180910390a350505050565b80356001600160a01b03811681146107a957600080fd5b919050565b634e487b7160e01b600052604160045260246000fd5b600080600080608085870312156107da57600080fd5b8435935060206107eb818701610792565b935060408601359250606086013567ffffffffffffffff8082111561080f57600080fd5b818801915088601f83011261082357600080fd5b813581811115610835576108356107ae565b8060051b604051601f19603f8301168101818110858211171561085a5761085a6107ae565b60405291825284820192508381018501918b83111561087857600080fd5b938501935b828510156108965784358452938501939285019261087d565b989b979a50959850505050505050565b600080604083850312156108b957600080fd5b6108c283610792565b946020939093013593505050565b6000602082840312156108e257600080fd5b5035919050565b6000602082840312156108fb57600080fd5b61090482610792565b9392505050565b6000806000806080858703121561092157600080fd5b843593506020850135925061093860408601610792565b9396929550929360600135925050565b6000606082018583526020858185015260606040850152818551808452608086019150828701935060005b8181101561098f57845183529383019391830191600101610973565b509098975050505050505050565b6000602082840312156109af57600080fd5b8151801515811461090457600080fd5b634e487b7160e01b600052601160045260246000fd5b600082198211156109e8576109e86109bf565b500190565b6000600019821415610a0157610a016109bf565b506001019056fea264697066735822122083cb51c4d2d82c7849552e6e6dca6164f662d78a1c3faa226f9609e7d4465a4964736f6c63430008090033",
  "language": "Solidity",
  "natspec": {
    "kind": "dev",
    "methods": {},
    "version": 1
  },
  "opcodes": "PUSH1 0x80 PUSH1 0x40 MSTORE CALLVALUE DUP1 ISZERO PUSH2 0x10 JUMPI PUSH1 0x0 DUP1 REVERT JUMPDEST POP PUSH1 0x4 CALLDATASIZE LT PUSH2 0x93 JUMPI PUSH1 0x0 CALLDATALOAD PUSH1 0xE0 SHR DUP1 PUSH4 0x85D88CB1 GT PUSH2 0x66 JUMPI DUP1 PUSH4 0x85D88CB1 EQ PUSH2 0x132 JUMPI DUP1 PUSH4 0x88A8D602 EQ PUSH2 0x1B0 JUMPI DUP1 PUSH4 0xA738D590 EQ PUSH2 0x1C3 JUMPI DUP1 PUSH4 0xD4A22BDE EQ PUSH2 0x1D6 JUMPI DUP1 PUSH4 0xF1301CCF EQ PUSH2 0x1E9 JUMPI PUSH1 0x0 DUP1 REVERT JUMPDEST DUP1 PUSH4 0x3A4153C EQ PUSH2 0x98 JUMPI DUP1 PUSH4 0x390B7C66 EQ PUSH2 0xAD JUMPI DUP1 PUSH4 0x6FB24F3A EQ PUSH2 0xC9 JUMPI DUP1 PUSH4 0x77BBD51E EQ PUSH2 0x107 JUMPI JUMPDEST PUSH1 0x0 DUP1 REVERT JUMPDEST PUSH2 0xAB PUSH2 0xA6 CALLDATASIZE PUSH1 0x4 PUSH2 0x7C4 JUMP JUMPDEST PUSH2 0x1FC JUMP JUMPDEST STOP JUMPDEST PUSH2 0xB6 PUSH1 0x0 SLOAD DUP2 JUMP JUMPDEST PUSH1 0x40 MLOAD SWAP1 DUP2 MSTORE PUSH1 0x20 ADD JUMPDEST PUSH1 0x40 MLOAD DUP1 SWAP2 SUB SWAP1 RETURN JUMPDEST PUSH2 0xF7 PUSH2 0xD7 CALLDATASIZE PUSH1 0x4 PUSH2 0x8A6 JUMP JUMPDEST PUSH1 0x3 PUSH1 0x20 SWAP1 DUP2 MSTORE PUSH1 0x0 SWAP3 DUP4 MSTORE PUSH1 0x40 DUP1 DUP5 KECCAK256 SWAP1 SWAP2 MSTORE SWAP1 DUP3 MSTORE SWAP1 KECCAK256 SLOAD PUSH1 0xFF AND DUP2 JUMP JUMPDEST PUSH1 0x40 MLOAD SWAP1 ISZERO ISZERO DUP2 MSTORE PUSH1 0x20 ADD PUSH2 0xC0 JUMP JUMPDEST PUSH1 0x2 SLOAD PUSH2 0x11A SWAP1 PUSH1 0x1 PUSH1 0x1 PUSH1 0xA0 SHL SUB AND DUP2 JUMP JUMPDEST PUSH1 0x40 MLOAD PUSH1 0x1 PUSH1 0x1 PUSH1 0xA0 SHL SUB SWAP1 SWAP2 AND DUP2 MSTORE PUSH1 0x20 ADD PUSH2 0xC0 JUMP JUMPDEST PUSH2 0x17A PUSH2 0x140 CALLDATASIZE PUSH1 0x4 PUSH2 0x8D0 JUMP JUMPDEST PUSH1 0x4 PUSH1 0x20 DUP2 SWAP1 MSTORE PUSH1 0x0 SWAP2 DUP3 MSTORE PUSH1 0x40 SWAP1 SWAP2 KECCAK256 DUP1 SLOAD PUSH1 0x1 DUP3 ADD SLOAD PUSH1 0x2 DUP4 ADD SLOAD PUSH1 0x3 DUP5 ADD SLOAD SWAP4 SWAP1 SWAP5 ADD SLOAD SWAP2 SWAP4 SWAP1 SWAP3 PUSH1 0x1 PUSH1 0x1 PUSH1 0xA0 SHL SUB SWAP1 SWAP2 AND SWAP2 DUP6 JUMP JUMPDEST PUSH1 0x40 DUP1 MLOAD SWAP6 DUP7 MSTORE PUSH1 0x20 DUP7 ADD SWAP5 SWAP1 SWAP5 MSTORE PUSH1 0x1 PUSH1 0x1 PUSH1 0xA0 SHL SUB SWAP1 SWAP3 AND SWAP3 DUP5 ADD SWAP3 SWAP1 SWAP3 MSTORE PUSH1 0x60 DUP4 ADD SWAP2 SWAP1 SWAP2 MSTORE PUSH1 0x80 DUP3 ADD MSTORE PUSH1 0xA0 ADD PUSH2 0xC0 JUMP JUMPDEST PUSH1 0x1 SLOAD PUSH2 0x11A SWAP1 PUSH1 0x1 PUSH1 0x1 PUSH1 0xA0 SHL SUB AND DUP2 JUMP JUMPDEST PUSH2 0xAB PUSH2 0x1D1 CALLDATASIZE PUSH1 0x4 PUSH2 0x8E9 JUMP JUMPDEST PUSH2 0x55C JUMP JUMPDEST PUSH2 0xAB PUSH2 0x1E4 CALLDATASIZE PUSH1 0x4 PUSH2 0x8E9 JUMP JUMPDEST PUSH2 0x5D8 JUMP JUMPDEST PUSH2 0xAB PUSH2 0x1F7 CALLDATASIZE PUSH1 0x4 PUSH2 0x90B JUMP JUMPDEST PUSH2 0x654 JUMP JUMPDEST PUSH1 0x0 SLOAD DUP5 GT ISZERO PUSH2 0x25F JUMPI PUSH1 0x40 MLOAD PUSH3 0x461BCD PUSH1 0xE5 SHL DUP2 MSTORE PUSH1 0x20 PUSH1 0x4 DUP3 ADD MSTORE PUSH1 0x23 PUSH1 0x24 DUP3 ADD MSTORE PUSH32 0x50726F7669646564206D65726B6C6520696E64657820646F65736E2774206578 PUSH1 0x44 DUP3 ADD MSTORE PUSH3 0x1A5CDD PUSH1 0xEA SHL PUSH1 0x64 DUP3 ADD MSTORE PUSH1 0x84 ADD JUMPDEST PUSH1 0x40 MLOAD DUP1 SWAP2 SUB SWAP1 REVERT JUMPDEST PUSH1 0x1 PUSH1 0x1 PUSH1 0xA0 SHL SUB DUP4 AND PUSH1 0x0 SWAP1 DUP2 MSTORE PUSH1 0x3 PUSH1 0x20 SWAP1 DUP2 MSTORE PUSH1 0x40 DUP1 DUP4 KECCAK256 DUP8 DUP5 MSTORE SWAP1 SWAP2 MSTORE SWAP1 KECCAK256 SLOAD PUSH1 0xFF AND ISZERO PUSH2 0x2EB JUMPI PUSH1 0x40 MLOAD PUSH3 0x461BCD PUSH1 0xE5 SHL DUP2 MSTORE PUSH1 0x20 PUSH1 0x4 DUP3 ADD MSTORE PUSH1 0x2F PUSH1 0x24 DUP3 ADD MSTORE PUSH32 0x596F75206861766520616C72656164792077697468647261776E20796F757220 PUSH1 0x44 DUP3 ADD MSTORE PUSH15 0x32B73A34BA3632B2103A37B5B2B717 PUSH1 0x89 SHL PUSH1 0x64 DUP3 ADD MSTORE PUSH1 0x84 ADD PUSH2 0x256 JUMP JUMPDEST PUSH1 0x40 DUP1 MLOAD PUSH1 0x1 PUSH1 0x1 PUSH1 0xA0 SHL SUB DUP6 AND PUSH1 0x20 DUP3 ADD MSTORE SWAP1 DUP2 ADD DUP4 SWAP1 MSTORE PUSH1 0x0 SWAP1 PUSH1 0x60 ADD PUSH1 0x40 DUP1 MLOAD PUSH1 0x1F NOT DUP2 DUP5 SUB ADD DUP2 MSTORE DUP3 DUP3 MSTORE DUP1 MLOAD PUSH1 0x20 SWAP2 DUP3 ADD KECCAK256 PUSH1 0x0 DUP10 DUP2 MSTORE PUSH1 0x4 SWAP3 DUP4 SWAP1 MSTORE SWAP3 SWAP1 SWAP3 KECCAK256 DUP1 SLOAD PUSH4 0x2769CD1F PUSH1 0xE2 SHL DUP6 MSTORE SWAP3 SWAP5 POP SWAP3 PUSH20 0x0 SWAP3 PUSH4 0x9DA7347C SWAP3 PUSH2 0x36B SWAP3 DUP8 SWAP2 DUP10 SWAP2 ADD PUSH2 0x948 JUMP JUMPDEST PUSH1 0x20 PUSH1 0x40 MLOAD DUP1 DUP4 SUB DUP2 DUP7 DUP1 EXTCODESIZE ISZERO DUP1 ISZERO PUSH2 0x383 JUMPI PUSH1 0x0 DUP1 REVERT JUMPDEST POP GAS DELEGATECALL ISZERO DUP1 ISZERO PUSH2 0x397 JUMPI RETURNDATASIZE PUSH1 0x0 DUP1 RETURNDATACOPY RETURNDATASIZE PUSH1 0x0 REVERT JUMPDEST POP POP POP POP PUSH1 0x40 MLOAD RETURNDATASIZE PUSH1 0x1F NOT PUSH1 0x1F DUP3 ADD AND DUP3 ADD DUP1 PUSH1 0x40 MSTORE POP DUP2 ADD SWAP1 PUSH2 0x3BB SWAP2 SWAP1 PUSH2 0x99D JUMP JUMPDEST PUSH2 0x407 JUMPI PUSH1 0x40 MLOAD PUSH3 0x461BCD PUSH1 0xE5 SHL DUP2 MSTORE PUSH1 0x20 PUSH1 0x4 DUP3 ADD DUP2 SWAP1 MSTORE PUSH1 0x24 DUP3 ADD MSTORE PUSH32 0x5468652070726F6F6620636F756C64206E6F742062652076657269666965642E PUSH1 0x44 DUP3 ADD MSTORE PUSH1 0x64 ADD PUSH2 0x256 JUMP JUMPDEST PUSH1 0x1 PUSH1 0x1 PUSH1 0xA0 SHL SUB DUP6 DUP2 AND PUSH1 0x0 DUP2 DUP2 MSTORE PUSH1 0x3 PUSH1 0x20 SWAP1 DUP2 MSTORE PUSH1 0x40 DUP1 DUP4 KECCAK256 DUP12 DUP5 MSTORE SWAP1 SWAP2 MSTORE SWAP1 DUP2 SWAP1 KECCAK256 DUP1 SLOAD PUSH1 0xFF NOT AND PUSH1 0x1 OR SWAP1 SSTORE PUSH1 0x2 DUP5 ADD SLOAD SWAP1 MLOAD PUSH4 0xA9059CBB PUSH1 0xE0 SHL DUP2 MSTORE PUSH1 0x4 DUP2 ADD SWAP3 SWAP1 SWAP3 MSTORE PUSH1 0x24 DUP3 ADD DUP8 SWAP1 MSTORE SWAP1 SWAP2 AND SWAP1 PUSH4 0xA9059CBB SWAP1 PUSH1 0x44 ADD PUSH1 0x20 PUSH1 0x40 MLOAD DUP1 DUP4 SUB DUP2 PUSH1 0x0 DUP8 DUP1 EXTCODESIZE ISZERO DUP1 ISZERO PUSH2 0x47F JUMPI PUSH1 0x0 DUP1 REVERT JUMPDEST POP GAS CALL ISZERO DUP1 ISZERO PUSH2 0x493 JUMPI RETURNDATASIZE PUSH1 0x0 DUP1 RETURNDATACOPY RETURNDATASIZE PUSH1 0x0 REVERT JUMPDEST POP POP POP POP PUSH1 0x40 MLOAD RETURNDATASIZE PUSH1 0x1F NOT PUSH1 0x1F DUP3 ADD AND DUP3 ADD DUP1 PUSH1 0x40 MSTORE POP DUP2 ADD SWAP1 PUSH2 0x4B7 SWAP2 SWAP1 PUSH2 0x99D JUMP JUMPDEST PUSH2 0x4FB JUMPI PUSH1 0x40 MLOAD PUSH3 0x461BCD PUSH1 0xE5 SHL DUP2 MSTORE PUSH1 0x20 PUSH1 0x4 DUP3 ADD MSTORE PUSH1 0x15 PUSH1 0x24 DUP3 ADD MSTORE PUSH21 0x115490CC8C081D1C985B9CD9995C8819985A5B1959 PUSH1 0x5A SHL PUSH1 0x44 DUP3 ADD MSTORE PUSH1 0x64 ADD PUSH2 0x256 JUMP JUMPDEST DUP4 DUP2 PUSH1 0x4 ADD PUSH1 0x0 DUP3 DUP3 SLOAD PUSH2 0x50F SWAP2 SWAP1 PUSH2 0x9D5 JUMP JUMPDEST SWAP1 SWAP2 SSTORE POP POP PUSH1 0x40 MLOAD DUP5 DUP2 MSTORE PUSH1 0x1 PUSH1 0x1 PUSH1 0xA0 SHL SUB DUP7 AND SWAP1 DUP8 SWAP1 PUSH32 0x9DA6493A92039DAF47D1F2D7A782299C5994C6323EB1E972F69C432089EC52BF SWAP1 PUSH1 0x20 ADD PUSH1 0x40 MLOAD DUP1 SWAP2 SUB SWAP1 LOG3 POP POP POP POP POP POP JUMP JUMPDEST PUSH1 0x1 SLOAD PUSH1 0x1 PUSH1 0x1 PUSH1 0xA0 SHL SUB AND CALLER EQ PUSH2 0x5B6 JUMPI PUSH1 0x40 MLOAD PUSH3 0x461BCD PUSH1 0xE5 SHL DUP2 MSTORE PUSH1 0x20 PUSH1 0x4 DUP3 ADD MSTORE PUSH1 0x1D PUSH1 0x24 DUP3 ADD MSTORE PUSH32 0x4F6E6C79206D616E6167656D656E74206D61792063616C6C2074686973000000 PUSH1 0x44 DUP3 ADD MSTORE PUSH1 0x64 ADD PUSH2 0x256 JUMP JUMPDEST PUSH1 0x2 DUP1 SLOAD PUSH1 0x1 PUSH1 0x1 PUSH1 0xA0 SHL SUB NOT AND PUSH1 0x1 PUSH1 0x1 PUSH1 0xA0 SHL SUB SWAP3 SWAP1 SWAP3 AND SWAP2 SWAP1 SWAP2 OR SWAP1 SSTORE JUMP JUMPDEST PUSH1 0x1 SLOAD PUSH1 0x1 PUSH1 0x1 PUSH1 0xA0 SHL SUB AND CALLER EQ PUSH2 0x632 JUMPI PUSH1 0x40 MLOAD PUSH3 0x461BCD PUSH1 0xE5 SHL DUP2 MSTORE PUSH1 0x20 PUSH1 0x4 DUP3 ADD MSTORE PUSH1 0x1D PUSH1 0x24 DUP3 ADD MSTORE PUSH32 0x4F6E6C79206D616E6167656D656E74206D61792063616C6C2074686973000000 PUSH1 0x44 DUP3 ADD MSTORE PUSH1 0x64 ADD PUSH2 0x256 JUMP JUMPDEST PUSH1 0x1 DUP1 SLOAD PUSH1 0x1 PUSH1 0x1 PUSH1 0xA0 SHL SUB NOT AND PUSH1 0x1 PUSH1 0x1 PUSH1 0xA0 SHL SUB SWAP3 SWAP1 SWAP3 AND SWAP2 SWAP1 SWAP2 OR SWAP1 SSTORE JUMP JUMPDEST PUSH1 0x2 SLOAD PUSH1 0x1 PUSH1 0x1 PUSH1 0xA0 SHL SUB AND CALLER EQ PUSH2 0x6AE JUMPI PUSH1 0x40 MLOAD PUSH3 0x461BCD PUSH1 0xE5 SHL DUP2 MSTORE PUSH1 0x20 PUSH1 0x4 DUP3 ADD MSTORE PUSH1 0x1C PUSH1 0x24 DUP3 ADD MSTORE PUSH32 0x4F6E6C79207472656541646465722063616E2061646420747265657300000000 PUSH1 0x44 DUP3 ADD MSTORE PUSH1 0x64 ADD PUSH2 0x256 JUMP JUMPDEST PUSH1 0x40 MLOAD DUP1 PUSH1 0xA0 ADD PUSH1 0x40 MSTORE DUP1 DUP6 DUP2 MSTORE PUSH1 0x20 ADD DUP5 DUP2 MSTORE PUSH1 0x20 ADD DUP4 PUSH1 0x1 PUSH1 0x1 PUSH1 0xA0 SHL SUB AND DUP2 MSTORE PUSH1 0x20 ADD DUP3 DUP2 MSTORE PUSH1 0x20 ADD PUSH1 0x0 DUP2 MSTORE POP PUSH1 0x4 PUSH1 0x0 DUP1 PUSH1 0x0 DUP2 SLOAD PUSH2 0x6F1 SWAP1 PUSH2 0x9ED JUMP JUMPDEST SWAP2 DUP3 SWAP1 SSTORE POP DUP2 MSTORE PUSH1 0x20 DUP1 DUP3 ADD SWAP3 SWAP1 SWAP3 MSTORE PUSH1 0x40 SWAP1 DUP2 ADD PUSH1 0x0 SWAP1 DUP2 KECCAK256 DUP5 MLOAD DUP2 SSTORE DUP5 DUP5 ADD MLOAD PUSH1 0x1 DUP3 ADD SSTORE DUP5 DUP4 ADD MLOAD PUSH1 0x2 DUP3 ADD DUP1 SLOAD PUSH1 0x1 PUSH1 0x1 PUSH1 0xA0 SHL SUB NOT AND PUSH1 0x1 PUSH1 0x1 PUSH1 0xA0 SHL SUB SWAP3 DUP4 AND OR SWAP1 SSTORE PUSH1 0x60 DUP7 ADD MLOAD PUSH1 0x3 DUP4 ADD SSTORE PUSH1 0x80 SWAP1 SWAP6 ADD MLOAD PUSH1 0x4 SWAP1 SWAP2 ADD SSTORE SLOAD DUP2 MLOAD DUP9 DUP2 MSTORE SWAP3 DUP4 ADD DUP8 SWAP1 MSTORE SWAP3 DUP6 AND SWAP3 SWAP2 PUSH32 0x7247D7268297FD9FE23A535B70F414660BBCBBCD73AC0D9CE3C103A356A61F45 SWAP2 ADD PUSH1 0x40 MLOAD DUP1 SWAP2 SUB SWAP1 LOG3 POP POP POP POP JUMP JUMPDEST DUP1 CALLDATALOAD PUSH1 0x1 PUSH1 0x1 PUSH1 0xA0 SHL SUB DUP2 AND DUP2 EQ PUSH2 0x7A9 JUMPI PUSH1 0x0 DUP1 REVERT JUMPDEST SWAP2 SWAP1 POP JUMP JUMPDEST PUSH4 0x4E487B71 PUSH1 0xE0 SHL PUSH1 0x0 MSTORE PUSH1 0x41 PUSH1 0x4 MSTORE PUSH1 0x24 PUSH1 0x0 REVERT JUMPDEST PUSH1 0x0 DUP1 PUSH1 0x0 DUP1 PUSH1 0x80 DUP6 DUP8 SUB SLT ISZERO PUSH2 0x7DA JUMPI PUSH1 0x0 DUP1 REVERT JUMPDEST DUP5 CALLDATALOAD SWAP4 POP PUSH1 0x20 PUSH2 0x7EB DUP2 DUP8 ADD PUSH2 0x792 JUMP JUMPDEST SWAP4 POP PUSH1 0x40 DUP7 ADD CALLDATALOAD SWAP3 POP PUSH1 0x60 DUP7 ADD CALLDATALOAD PUSH8 0xFFFFFFFFFFFFFFFF DUP1 DUP3 GT ISZERO PUSH2 0x80F JUMPI PUSH1 0x0 DUP1 REVERT JUMPDEST DUP2 DUP9 ADD SWAP2 POP DUP9 PUSH1 0x1F DUP4 ADD SLT PUSH2 0x823 JUMPI PUSH1 0x0 DUP1 REVERT JUMPDEST DUP2 CALLDATALOAD DUP2 DUP2 GT ISZERO PUSH2 0x835 JUMPI PUSH2 0x835 PUSH2 0x7AE JUMP JUMPDEST DUP1 PUSH1 0x5 SHL PUSH1 0x40 MLOAD PUSH1 0x1F NOT PUSH1 0x3F DUP4 ADD AND DUP2 ADD DUP2 DUP2 LT DUP6 DUP3 GT OR ISZERO PUSH2 0x85A JUMPI PUSH2 0x85A PUSH2 0x7AE JUMP JUMPDEST PUSH1 0x40 MSTORE SWAP2 DUP3 MSTORE DUP5 DUP3 ADD SWAP3 POP DUP4 DUP2 ADD DUP6 ADD SWAP2 DUP12 DUP4 GT ISZERO PUSH2 0x878 JUMPI PUSH1 0x0 DUP1 REVERT JUMPDEST SWAP4 DUP6 ADD SWAP4 JUMPDEST DUP3 DUP6 LT ISZERO PUSH2 0x896 JUMPI DUP5 CALLDATALOAD DUP5 MSTORE SWAP4 DUP6 ADD SWAP4 SWAP3 DUP6 ADD SWAP3 PUSH2 0x87D JUMP JUMPDEST SWAP9 SWAP12 SWAP8 SWAP11 POP SWAP6 SWAP9 POP POP POP POP POP POP POP JUMP JUMPDEST PUSH1 0x0 DUP1 PUSH1 0x40 DUP4 DUP6 SUB SLT ISZERO PUSH2 0x8B9 JUMPI PUSH1 0x0 DUP1 REVERT JUMPDEST PUSH2 0x8C2 DUP4 PUSH2 0x792 JUMP JUMPDEST SWAP5 PUSH1 0x20 SWAP4 SWAP1 SWAP4 ADD CALLDATALOAD SWAP4 POP POP POP JUMP JUMPDEST PUSH1 0x0 PUSH1 0x20 DUP3 DUP5 SUB SLT ISZERO PUSH2 0x8E2 JUMPI PUSH1 0x0 DUP1 REVERT JUMPDEST POP CALLDATALOAD SWAP2 SWAP1 POP JUMP JUMPDEST PUSH1 0x0 PUSH1 0x20 DUP3 DUP5 SUB SLT ISZERO PUSH2 0x8FB JUMPI PUSH1 0x0 DUP1 REVERT JUMPDEST PUSH2 0x904 DUP3 PUSH2 0x792 JUMP JUMPDEST SWAP4 SWAP3 POP POP POP JUMP JUMPDEST PUSH1 0x0 DUP1 PUSH1 0x0 DUP1 PUSH1 0x80 DUP6 DUP8 SUB SLT ISZERO PUSH2 0x921 JUMPI PUSH1 0x0 DUP1 REVERT JUMPDEST DUP5 CALLDATALOAD SWAP4 POP PUSH1 0x20 DUP6 ADD CALLDATALOAD SWAP3 POP PUSH2 0x938 PUSH1 0x40 DUP7 ADD PUSH2 0x792 JUMP JUMPDEST SWAP4 SWAP7 SWAP3 SWAP6 POP SWAP3 SWAP4 PUSH1 0x60 ADD CALLDATALOAD SWAP3 POP POP JUMP JUMPDEST PUSH1 0x0 PUSH1 0x60 DUP3 ADD DUP6 DUP4 MSTORE PUSH1 0x20 DUP6 DUP2 DUP6 ADD MSTORE PUSH1 0x60 PUSH1 0x40 DUP6 ADD MSTORE DUP2 DUP6 MLOAD DUP1 DUP5 MSTORE PUSH1 0x80 DUP7 ADD SWAP2 POP DUP3 DUP8 ADD SWAP4 POP PUSH1 0x0 JUMPDEST DUP2 DUP2 LT ISZERO PUSH2 0x98F JUMPI DUP5 MLOAD DUP4 MSTORE SWAP4 DUP4 ADD SWAP4 SWAP2 DUP4 ADD SWAP2 PUSH1 0x1 ADD PUSH2 0x973 JUMP JUMPDEST POP SWAP1 SWAP9 SWAP8 POP POP POP POP POP POP POP POP JUMP JUMPDEST PUSH1 0x0 PUSH1 0x20 DUP3 DUP5 SUB SLT ISZERO PUSH2 0x9AF JUMPI PUSH1 0x0 DUP1 REVERT JUMPDEST DUP2 MLOAD DUP1 ISZERO ISZERO DUP2 EQ PUSH2 0x904 JUMPI PUSH1 0x0 DUP1 REVERT JUMPDEST PUSH4 0x4E487B71 PUSH1 0xE0 SHL PUSH1 0x0 MSTORE PUSH1 0x11 PUSH1 0x4 MSTORE PUSH1 0x24 PUSH1 0x0 REVERT JUMPDEST PUSH1 0x0 DUP3 NOT DUP3 GT ISZERO PUSH2 0x9E8 JUMPI PUSH2 0x9E8 PUSH2 0x9BF JUMP JUMPDEST POP ADD SWAP1 JUMP JUMPDEST PUSH1 0x0 PUSH1 0x0 NOT DUP3 EQ ISZERO PUSH2 0xA01 JUMPI PUSH2 0xA01 PUSH2 0x9BF JUMP JUMPDEST POP PUSH1 0x1 ADD SWAP1 JUMP INVALID LOG2 PUSH5 0x6970667358 0x22 SLT KECCAK256 DUP4 0xCB MLOAD 0xC4 0xD2 0xD8 0x2C PUSH25 0x49552E6E6DCA6164F662D78A1C3FAA226F9609E7D4465A4964 PUSH20 0x6F6C634300080900330000000000000000000000 ",
  "sha1": "ee8ae1c653960ff2b6f143ae5d7e7243c387b682",
  "source": "// SPDX-License-Identifier: GPL-3.0-only\n\npragma solidity 0.8.9;\n\nimport \"../interfaces/IERC20.sol\";\nimport \"./MerkleLib.sol\";\n\ncontract MerkleDropFactory {\n    using MerkleLib for bytes32;\n\n    uint public numTrees = 0;\n\n    address public management;\n    address public treeAdder;\n\n    struct MerkleTree {\n        bytes32 merkleRoot;\n        bytes32 ipfsHash;\n        address tokenAddress;\n        uint initialBalance;\n        uint spentTokens;\n    }\n\n    mapping (address => mapping (uint => bool)) public withdrawn;\n    mapping (uint => MerkleTree) public merkleTrees;\n\n    event Withdraw(uint indexed merkleIndex, address indexed recipient, uint value);\n    event MerkleTreeAdded(uint indexed index, address indexed tokenAddress, bytes32 newRoot, bytes32 ipfsHash);\n\n    modifier managementOnly() {\n        require (msg.sender == management, 'Only management may call this');\n        _;\n    }\n\n    constructor(address mgmt) {\n        management = mgmt;\n        treeAdder = mgmt;\n    }\n\n    // change the management key\n    function setManagement(address newMgmt) public managementOnly {\n        management = newMgmt;\n    }\n\n    function setTreeAdder(address newAdder) public managementOnly {\n        treeAdder = newAdder;\n    }\n\n    function addMerkleTree(bytes32 newRoot, bytes32 ipfsHash, address depositToken, uint initBalance) public {\n        require(msg.sender == treeAdder, 'Only treeAdder can add trees');\n        merkleTrees[++numTrees] = MerkleTree(\n            newRoot,\n            ipfsHash,\n            depositToken,\n            initBalance,\n            0\n        );\n        emit MerkleTreeAdded(numTrees, depositToken, newRoot, ipfsHash);\n    }\n\n    function withdraw(uint merkleIndex, address walletAddress, uint value, bytes32[] memory proof) public {\n        require(merkleIndex <= numTrees, \"Provided merkle index doesn't exist\");\n        require(!withdrawn[walletAddress][merkleIndex], \"You have already withdrawn your entitled token.\");\n        bytes32 leaf = keccak256(abi.encode(walletAddress, value));\n        MerkleTree storage tree = merkleTrees[merkleIndex];\n        require(tree.merkleRoot.verifyProof(leaf, proof), \"The proof could not be verified.\");\n        withdrawn[walletAddress][merkleIndex] = true;\n        require(IERC20(tree.tokenAddress).transfer(walletAddress, value), \"ERC20 transfer failed\");\n        tree.spentTokens += value;\n        emit Withdraw(merkleIndex, walletAddress, value);\n    }\n\n}",
  "sourcePath": "contracts/MerkleDropFactory.sol",
  "type": "contract"
}