{
  "abi": [
    {
      "inputs": [],
      "stateMutability": "nonpayable",
      "type": "constructor"
    },
    {
      "inputs": [
        {
          "internalType": "address payable[]",
          "name": "addresses",
          "type": "address[]"
        },
        {
          "internalType": "uint256",
          "name": "amount",
          "type": "uint256"
        }
      ],
      "name": "multisend",
      "outputs": [],
      "stateMutability": "payable",
      "type": "function"
    }
  ],
  "bytecode": "608060405234801561001057600080fd5b506102a1806100206000396000f3fe60806040526004361061001e5760003560e01c80632dc9ad7f14610023575b600080fd5b610036610031366004610142565b610038565b005b3460005b835181101561010a57828210156100995760405162461bcd60e51b815260206004820152601b60248201527f5468652076616c7565206973206e6f742073756666696369656e740000000000604482015260640160405180910390fd5b6100a38383610223565b91508381815181106100b7576100b761023a565b60200260200101516001600160a01b03166108fc849081150290604051600060405180830381858888f193505050501580156100f7573d6000803e3d6000fd5b508061010281610250565b91505061003c565b50505050565b634e487b7160e01b600052604160045260246000fd5b80356001600160a01b038116811461013d57600080fd5b919050565b6000806040838503121561015557600080fd5b823567ffffffffffffffff8082111561016d57600080fd5b818501915085601f83011261018157600080fd5b813560208282111561019557610195610110565b8160051b604051601f19603f830116810181811086821117156101ba576101ba610110565b6040529283528183019350848101820192898411156101d857600080fd5b948201945b838610156101fd576101ee86610126565b855294820194938201936101dd565b9997909101359750505050505050565b634e487b7160e01b600052601160045260246000fd5b6000828210156102355761023561020d565b500390565b634e487b7160e01b600052603260045260246000fd5b60006000198214156102645761026461020d565b506001019056fea2646970667358221220b8966ca3d55fe7c4ed877b3ec45a21acaedf72c7841ef2e7eca7ffd6b30af26964736f6c634300080c0033",
  "bytecodeSha1": "abbdded52c4614f00a2f9e24e87f71c3ac34ec44",
  "compiler": {
    "evm_version": "istanbul",
    "optimizer": {
      "enabled": true,
      "runs": 200
    },
    "version": "0.8.12+commit.f00d7308"
  },
  "contractName": "MultiSender",
  "language": "Solidity",
  "natspec": {
    "kind": "dev",
    "methods": {},
    "version": 1
  },
  "opcodes": "PUSH1 0x80 PUSH1 0x40 MSTORE PUSH1 0x4 CALLDATASIZE LT PUSH2 0x1E JUMPI PUSH1 0x0 CALLDATALOAD PUSH1 0xE0 SHR DUP1 PUSH4 0x2DC9AD7F EQ PUSH2 0x23 JUMPI JUMPDEST PUSH1 0x0 DUP1 REVERT JUMPDEST PUSH2 0x36 PUSH2 0x31 CALLDATASIZE PUSH1 0x4 PUSH2 0x142 JUMP JUMPDEST PUSH2 0x38 JUMP JUMPDEST STOP JUMPDEST CALLVALUE PUSH1 0x0 JUMPDEST DUP4 MLOAD DUP2 LT ISZERO PUSH2 0x10A JUMPI DUP3 DUP3 LT ISZERO PUSH2 0x99 JUMPI PUSH1 0x40 MLOAD PUSH3 0x461BCD PUSH1 0xE5 SHL DUP2 MSTORE PUSH1 0x20 PUSH1 0x4 DUP3 ADD MSTORE PUSH1 0x1B PUSH1 0x24 DUP3 ADD MSTORE PUSH32 0x5468652076616C7565206973206E6F742073756666696369656E740000000000 PUSH1 0x44 DUP3 ADD MSTORE PUSH1 0x64 ADD PUSH1 0x40 MLOAD DUP1 SWAP2 SUB SWAP1 REVERT JUMPDEST PUSH2 0xA3 DUP4 DUP4 PUSH2 0x223 JUMP JUMPDEST SWAP2 POP DUP4 DUP2 DUP2 MLOAD DUP2 LT PUSH2 0xB7 JUMPI PUSH2 0xB7 PUSH2 0x23A JUMP JUMPDEST PUSH1 0x20 MUL PUSH1 0x20 ADD ADD MLOAD PUSH1 0x1 PUSH1 0x1 PUSH1 0xA0 SHL SUB AND PUSH2 0x8FC DUP5 SWAP1 DUP2 ISZERO MUL SWAP1 PUSH1 0x40 MLOAD PUSH1 0x0 PUSH1 0x40 MLOAD DUP1 DUP4 SUB DUP2 DUP6 DUP9 DUP9 CALL SWAP4 POP POP POP POP ISZERO DUP1 ISZERO PUSH2 0xF7 JUMPI RETURNDATASIZE PUSH1 0x0 DUP1 RETURNDATACOPY RETURNDATASIZE PUSH1 0x0 REVERT JUMPDEST POP DUP1 PUSH2 0x102 DUP2 PUSH2 0x250 JUMP JUMPDEST SWAP2 POP POP PUSH2 0x3C JUMP JUMPDEST POP POP POP POP JUMP JUMPDEST PUSH4 0x4E487B71 PUSH1 0xE0 SHL PUSH1 0x0 MSTORE PUSH1 0x41 PUSH1 0x4 MSTORE PUSH1 0x24 PUSH1 0x0 REVERT JUMPDEST DUP1 CALLDATALOAD PUSH1 0x1 PUSH1 0x1 PUSH1 0xA0 SHL SUB DUP2 AND DUP2 EQ PUSH2 0x13D JUMPI PUSH1 0x0 DUP1 REVERT JUMPDEST SWAP2 SWAP1 POP JUMP JUMPDEST PUSH1 0x0 DUP1 PUSH1 0x40 DUP4 DUP6 SUB SLT ISZERO PUSH2 0x155 JUMPI PUSH1 0x0 DUP1 REVERT JUMPDEST DUP3 CALLDATALOAD PUSH8 0xFFFFFFFFFFFFFFFF DUP1 DUP3 GT ISZERO PUSH2 0x16D JUMPI PUSH1 0x0 DUP1 REVERT JUMPDEST DUP2 DUP6 ADD SWAP2 POP DUP6 PUSH1 0x1F DUP4 ADD SLT PUSH2 0x181 JUMPI PUSH1 0x0 DUP1 REVERT JUMPDEST DUP2 CALLDATALOAD PUSH1 0x20 DUP3 DUP3 GT ISZERO PUSH2 0x195 JUMPI PUSH2 0x195 PUSH2 0x110 JUMP JUMPDEST DUP2 PUSH1 0x5 SHL PUSH1 0x40 MLOAD PUSH1 0x1F NOT PUSH1 0x3F DUP4 ADD AND DUP2 ADD DUP2 DUP2 LT DUP7 DUP3 GT OR ISZERO PUSH2 0x1BA JUMPI PUSH2 0x1BA PUSH2 0x110 JUMP JUMPDEST PUSH1 0x40 MSTORE SWAP3 DUP4 MSTORE DUP2 DUP4 ADD SWAP4 POP DUP5 DUP2 ADD DUP3 ADD SWAP3 DUP10 DUP5 GT ISZERO PUSH2 0x1D8 JUMPI PUSH1 0x0 DUP1 REVERT JUMPDEST SWAP5 DUP3 ADD SWAP5 JUMPDEST DUP4 DUP7 LT ISZERO PUSH2 0x1FD JUMPI PUSH2 0x1EE DUP7 PUSH2 0x126 JUMP JUMPDEST DUP6 MSTORE SWAP5 DUP3 ADD SWAP5 SWAP4 DUP3 ADD SWAP4 PUSH2 0x1DD JUMP JUMPDEST SWAP10 SWAP8 SWAP1 SWAP2 ADD CALLDATALOAD SWAP8 POP POP POP POP POP POP POP JUMP JUMPDEST PUSH4 0x4E487B71 PUSH1 0xE0 SHL PUSH1 0x0 MSTORE PUSH1 0x11 PUSH1 0x4 MSTORE PUSH1 0x24 PUSH1 0x0 REVERT JUMPDEST PUSH1 0x0 DUP3 DUP3 LT ISZERO PUSH2 0x235 JUMPI PUSH2 0x235 PUSH2 0x20D JUMP JUMPDEST POP SUB SWAP1 JUMP JUMPDEST PUSH4 0x4E487B71 PUSH1 0xE0 SHL PUSH1 0x0 MSTORE PUSH1 0x32 PUSH1 0x4 MSTORE PUSH1 0x24 PUSH1 0x0 REVERT JUMPDEST PUSH1 0x0 PUSH1 0x0 NOT DUP3 EQ ISZERO PUSH2 0x264 JUMPI PUSH2 0x264 PUSH2 0x20D JUMP JUMPDEST POP PUSH1 0x1 ADD SWAP1 JUMP INVALID LOG2 PUSH5 0x6970667358 0x22 SLT KECCAK256 0xB8 SWAP7 PUSH13 0xA3D55FE7C4ED877B3EC45A21AC 0xAE 0xDF PUSH19 0xC7841EF2E7ECA7FFD6B30AF26964736F6C6343 STOP ADDMOD 0xC STOP CALLER ",
  "sha1": "c9389b3d4a5c5ec8fc4508926c42adfddac5aa3e",
  "source": "// SPDX-License-Identifier: MIT\npragma solidity 0.8.12;\n\ncontract MultiSender {\n    constructor() {}\n\n    // withdrawals enable to multiple withdraws to different accounts\n    // at one call, and decrease the network fee\n    function multisend(address payable[] memory addresses, uint256 amount) payable public {\n        uint256 total = msg.value;\n\n        for (uint i=0; i < addresses.length; i++) {\n            // the total should be greater than the sum of the amounts\n            require(total >= amount, \"The value is not sufficient\");\n            total -= amount;\n\n            // send the specified amount to the recipient\n            addresses[i].transfer(amount);\n        }\n    }\n}",
  "sourcePath": "contracts/MultiSend.sol",
  "type": "contract"
}